:020000040800F2
:1000000000500020918301082D84010841D8000888
:100010002D8401082D8401082D84010800000000B2
:100020000000000000000000000000002D84010816
:100030002D840108000000002D84010897E50008C8
:100040002D8401082D8401082D8401082D840108C8
:100050002D8401082D840108958F0008938F0008D6
:100060002D8401082D8401082D8401082D840108A8
:100070005DE500084DE50008050901082D8401082B
:100080003DE500082DE500082D8401082D840108B8
:100090002D8401082D8401082D840108918F00080A
:1000A0002D840108D10601082D840108E10601080C
:1000B000C5060108B5060108A50601084113010897
:1000C00045130108391301083D1301082D84010867
:1000D0002D840108F9080108ED080108E10801086C
:1000E0001DE700082D8401082D8401080000000090
:1000F0000000000000000000000000000000000000
:0C01000000000000000000005FF808F1A3
:100110002DE9F04F794B7A4CA5B023600023636042
:1001200012F094F8A04618B912F0B2F809F0EAFEFD
:1001300009F08EFF734A744D1378744F43F0010336
:10014000137000230A930B930C934FF4E0130D9359
:100150002B68B87B43F480332B60AB6943F010030A
:10016000AB612B6803F400330B930A9B01330A93B2
:100170000B9B1BB90A9BB3F5A06FF2D12B686249A8
:1001800013F4003301D0022315E00A6842F00102A3
:100190000A600A932B6803F002030B930A9B013356
:1001A0000A930B9B1BB90A9BB3F5A06FF2D12B6886
:1001B0009A0739D501230C93554B56491A6842F0DA
:1001C00010021A601A6822F003021A601A6842F0DC
:1001D00002021A606B686B606B686B606B6843F45B
:1001E00080636B604C4B1A68043B22F070425A608B
:1001F0004A4A0A606A6822F47C126A605A6842F0CD
:1002000000425A60DA6822F40042DA609B681B04FC
:1002100049BF434B4FF4E0130B604FF480130D9331
:100220000C9B012B01D117E0FEE7022B18D168B11E
:100230000D9BB3F5801F02D14FF4A01305E00D9B79
:10024000B3F5E01F02D14FF400130D930D9A6B68C4
:10025000134343F4803302E06B6843F460136B6034
:100260002B6843F080732B602A68274B9601FBD5DF
:100270005A6822F003025A605A6842F002025A6039
:100280006B68214803F00C03082BF9D14268254B19
:1002900002F00C02042A03D0082A03D01F4A12E0FD
:1002A0000A6810E042684468C2F38342E40302F142
:1002B000020201D41C4805E0406810F4003F0868C1
:1002C00018BF400842431A606A681848C2F3031214
:1002D000024492F830411A680490E2401A60FA7BB6
:1002E000DFF84CC0003218BF012288F808200A68E5
:1002F0000A498A421ED1012220E000BF639600080D
:10030000100200209C16002000100240502A0020FD
:1003100000200240280000200410014000127A0052
:10032000001BB7007400002000093D00849B0108F9
:10033000C2330020B7498A4202D102228CF8002041
:100340000393B54AB54BCDF814C0DA60AA6924AC62
:1003500042F00102AA616A6AB14EC8F80C206A6ACA
:10036000DFF82CB342F080726A62AA694FF0000A8B
:1003700042F01C02AA614FF6FF7224F82C2D304681
:1003800021468DF866A008F01BFE5846214608F06D
:1003900017FEA448214608F013FE4FF010038DF815
:1003A0004A304FF002034FF400720DF1900929F822
:1003B000482D8DF84B3030463261494608F000FE3A
:1003C00048228DF84A20304604224946ADF848209C
:1003D00008F0F6FD58464FF480624946ADF84820D3
:1003E00008F0EEFD904920464A6842F000724A60EB
:1003F00012F0FBFD8D49199A8D48B2FBF1F28D493F
:100400000A605146182219F00EFB039B4FF47A72D2
:100410001B688249B3FBF2F3874A013B5360F02328
:1004200081F823300723C2F808A01360BB68DFF807
:1004300064A2CAF80030814B0FCB84E80F00AB698F
:10044000199843F00803AB61AB691AA943F008039C
:10045000AB610823CBF810301023CBF8103008F034
:10046000AFFD1B981CA908F0ABFDDDF814C04FF4DC
:1004700080529CF80030ADF86420022B34BF142366
:1004800010238DF866304FF002038DF86730AB69AA
:1004900038BF4FF0000B43F00403AB6128BF4FF0AF
:1004A000010B3046214608F08BFD654BBBF1000F78
:1004B00001D0644A00E0644A00201A600EF03EF960
:1004C000DAF800301B0713D597F89831012B0FD8B5
:1004D000D8F80C205D4B12F0805B93F89A3100F055
:1004E0002C8605E0594B002283F89A2109F060FF21
:1004F00064200EF046F8A0225548002119F093FA26
:10050000EB69002243F00703EB61AB6943F400633E
:1005100043F00C03AB614F4B4FF0000B03F11001A4
:1005200002F801B001320E2AF5D14B4DFF229A7725
:10053000DA7783F8202083F82120284659461022B4
:1005400019F071FA454B464A2B606B60AB60EB606B
:10055000444BDAF800A01A60434859463C2219F08F
:1005600062FACAF380150523404A3F481BF802107F
:100570000C2202FB0BF211543DB91E3901299FBF19
:10058000FF2103F1FF331154DBB20BF1010BBBF17F
:10059000050FE9D1364A97F805B01370354B364947
:1005A00083F800B0354B2B4AC8F82430C0330B60B9
:1005B000334B1AF0200F03EBCB035B7818BF0123FA
:1005C0009362002340F2DC512E4A22F813100133CB
:1005D000082BF7D1484600211C2219F024FA1AF4FE
:1005E00000730AF4006957D01AF4015F0BD1B9F116
:1005F000000F0AD0244A97F88C01A2F118010128B3
:1006000008BF0A4602E0214A00E01F4A03921894FC
:1006100043E000BF001BB7000005FA0500ED00E055
:1006200000080140001001400000014040420F005E
:10063000801D0020341D002010E000E0C49C010853
:10064000A03300209DDF0008B1DF0008502A002001
:100650006824002010020020601D002065DF0008D3
:10066000562C002008260020102600203FE001081C
:10067000381D00205406002084250020642A002014
:1006800008C50108E80700209C9B0108849B01081D
:10069000000C0140502600200393BBF10E0F04D044
:1006A0000BF0EF0BBBF1080F02D101228DF85A209D
:1006B000012005930DF018FE8DF84D0002200DF07D
:1006C00013FECAF340028DF84F20CAF340328DF872
:1006D0004820CAF3C0328DF84E008DF851508DF885
:1006E0004B20059BB9F1000F07D097F88C9109F1C9
:1006F000FF3EDEF1000949EB0E09003318BF01236C
:100700008DF85330D8F82830CAF30042003318BFB0
:1007100001238DF85430CAF300538DF85530B7F8E3
:100720004A318DF85220B7F848211AF4805FADF8AD
:100730005830B7F85631ADF85E2018BFA54AADF86D
:100740005630CAF3804318BFB2F850218DF85030AC
:10075000B7F8543118BFADF85E20B3F5FA7FADF8A5
:100760005C3084BF0023ADF85E3097F8DE318DF841
:100770004C90CAF3C0050AF001099748002178227D
:1007800088F82C308DF849908DF84A5019F04BF9C3
:100790009DF85A30002B0CBF00230223B9F1000F43
:1007A00000D105B10133049A02EB8303D3F8503131
:1007B0009A1E1A330693002305920493059B33F87F
:1007C000025F05934FF6FF739D4200F0EF819DF8A5
:1007D0004D20EBB22D0AEFB262B1804901EB03115B
:1007E0004A68B24206D10A89042A00F0DA81082A4E
:1007F00000F0D7819DF84E207AB17849784801EB16
:1008000003114A68824208D10A89B2F5806F00F06C
:10081000C881B2F5006F00F0C4819DF8512032B15B
:100820006E491A0189586F4A914200F0BA819DF8C9
:10083000520030B169491A0189586A4A914200F060
:10084000B0819DF84F204AB1644901EB03114A6819
:10085000B24203D10A89102A00F0A3819DF84B20EF
:100860004AB15E4901EB03114A68B24203D10A89D9
:10087000022A00F096819DF84C205AB15749DFF8C2
:1008800060E101EB03114A68724503D10A89022A2B
:1008900000F08781DDF860E0BEF1000F14D04F4A10
:1008A00002EB031CDCF80410DEF8002091420BD1AF
:1008B000BCF80820BEF80410914200F07281BEF826
:1008C0000610914200F06D81022D02D19DF8482062
:1008D00003E0012D04D19DF84920002A00F0618138
:1008E0009DF854203D4D4FEA031862B19DF85A20FF
:1008F0004AB9A3F10802012A05D855F808203A4957
:100900008A4208BF04279DF85520454452B19DF8FE
:100910005A203AB910B10C3B012B01E0043B032BE8
:1009200040F21B81012F67D1DFF8C890FF2389F8BF
:10093000743089F87530294B4FF0000A03EB080238
:10094000517B506802F1080B12898DF86610ADF8E2
:10095000642019A9022289F87CA0C9F8885007935D
:100960008DF8672089F830A0C9F834A0C9F838A0FC
:10097000C9F83CA0C9F870A089F876A089F877A0DA
:1009800089F878A008F01CFB079B9BF8021053F82D
:100990000800524608F0A7FA284651463A460FF09A
:1009A000FBFE124B09F18C01C9F88C30104B09F198
:1009B0009002C9F89030C9F894A028460FF034FF8F
:1009C000054B20219A7803EBC20251721A79013249
:1009D0001A71E2E0502A0020A80800206CC001082B
:1009E000000C014000040040002C01400D8B000869
:1009F000818A000810020020022F59D19DF8103082
:100A00001C2101FB03FCBB4BBB4A9DF8101003EB00
:100A10000C0A8AF87D1002EB080191F80DE001F153
:100A20000803486809894FF000094FF0010BADF841
:100A300064108AF87E9019A98AF886908AF87CB0AA
:100A4000CAF88850CDF824C08DF866E00892079364
:100A50008DF8677008F0B4FA079B089A997852F8F5
:100A600008004A4608F03FFA284649465A460FF021
:100A700093FEA04BA14ADDF824C0CAF88C209C4408
:100A80009F4A0CF18C01CAF89020CAF894900A1D74
:100A900028460FF0C9FE9B4B40219A7803EBC20217
:100AA0005172DA785A44DA70049B5B44049374E020
:100AB000032F50D19DF85030924F93B14FF6FF72F3
:100AC00000232846082197F8018008F077FB8E4B19
:100AD000192243F828008D4BC360BB7807EBC30392
:100AE0002DE0BDF85C2097F80180B2F5FA7F13D9AC
:100AF000874B2846B3FBF2F2082192B2BDF85E3074
:100B000008F05CFB804B0D2243F82800814BC3604A
:100B1000BB7807EBC30312E07F4B2846B3FBF2F22E
:100B2000012192B2BDF85E3008F048FB764B0922F5
:100B300043F82800754BC360BB7807EBC3035A72B8
:100B4000BB787A78013307F8332007EBC30301320F
:100B50005D607A7021E0042F23D1BDF856206E4BE2
:100B6000684F93FBF2F2012192B2BDF8583028464B
:100B700097F8008008F022FB5E4BBA7803EB8803FD
:100B8000013207EBC201C3F85C010A234B703B78CA
:100B90004D6007F8323001333B705A4A9378013385
:100BA0009370059B069A93427FF408AE554A5149CB
:100BB00010785A4B81F87C015948002506781D7041
:100BC000A6F1170002288A46914698461BD8DAF803
:100BD00024300021585903EB050B17F085F818B1A4
:100BE000DAF828305BBB25E04E4F9BE80F002F441E
:100BF00087E80F0098F8003010350133C02D88F8D1
:100C00000030E4D1ECE7484B13F836E003EBC603C1
:100C1000D3F804C088F800E0BCF1000FE0D07545BF
:100C2000DEDA404F2B011F4463440FCB013587E8C8
:100C30000F00F4E73D4F3B68DD0424D41DE03C4B3E
:100C40003C4A13F8360003EBC6035D681070002DB4
:100C5000F0D000238342EDDAC3EBC3016A18D2F867
:100C600000C0DFF8DCE0013341F80EC001EB0E07F5
:100C70009188B9809279BA71ECE706F0EF03082BFE
:100C80002D4B25D126E098F80030012BF5D92B4DBE
:100C900005EB031303F1100810354545EDD055F869
:100CA000100C4FF07C5116F08BFE4FF07C5145F844
:100CB000100C55F8140C16F083FE4FF07C5145F8DB
:100CC000140C55F80C0C16F07BFE45F80C0CE3E701
:100CD0000E2E08D11A78182E42F010021A7031D157
:100CE00011F002F92EE01A78192E22F010021A7073
:100CF000F5E700BF100200206CC00108218F00083A
:100D0000598A0008A808002038240020C18A000859
:100D100000127A00D18A000840420F001F240020F0
:100D2000540600208C05002008C50108502600202C
:100D3000E0A1010810250020F022002094050020E9
:100D40001125002011F0B4F899F80320C34BC44DCD
:100D50009A8099F80420C34EDA803B684FF003096B
:100D600058035EBFC04B01221A70C04A4FF0040AFC
:100D700013784FF4805843F004031370BC4B93E88E
:100D80000300AB6984E8030043F00803AB611998E2
:100D90001AA908F015F9EB69304643F48043EB617A
:100DA0002B69214643F480432B6118238DF866306C
:100DB0004FF42043ADF864308DF8679008F000F9E7
:100DC0004FF4804330462146ADF864308DF866A07C
:100DD00008F0F6F81023214630468DF86630ADF85D
:100DE000648008F0EDF82B69A24A43F480432B613C
:100DF0002B69322023F480432B61138803F4415381
:100E000043F4457343EA09031380938B23F400638F
:100E10001B041B0C93830723138213889BB243F09C
:100E2000400313809F23C6F810808DF840300023C4
:100E30008DF841308DF842308DF843300DF0A1FB34
:100E40005246C6F81480204610A914F01FFCC6F8BC
:100E500010809DF866309DF865201B0243EA02432E
:100E60009DF86720AA461343834A844D934213D0CA
:100E700032200DF086FBC6F81480F52014F026FC15
:100E8000FF2014F023FC7028C6F8108004D12B78C2
:100E9000022B08BF85F800902B78032B0CBF1F2076
:100EA00002200DF0E1F92B78032B02D011F046FE61
:100EB00004E002200DF018FA0028F7D095F8008021
:100EC0006F4D4FF0100B284600215A463C6818F031
:100ED000AAFD4FF6FF73ADF84030022304F400473B
:100EE00004F400664FF000091C408DF842308DF884
:100EF00043900DD0634810A9ADF840B011F0C4FE86
:100F000004232B700124072385F80190AC70EB704B
:100F100077B102235B4810A9ADF8403011F0B4FE60
:100F20000123E2182B71AB7107236C71EB71D4B202
:100F3000B8F1010F0FD92023524810A9ADF8403065
:100F400011F0A2FE052301222B72AA72631C072254
:100F50006C72EA72DCB27EB10223424810A9ADF88D
:100F6000403011F091FE092301222B73AA73631CF8
:100F700007226C73EA73DCB2DAF80430424843F4B7
:100F80004043CAF80430DAF81430002643F0010375
:100F9000CAF81430DAF818303B4F43F40073CAF83B
:100FA000183012F089F8394B012C1993384B19A9D4
:100FB0001A9394BF334680231E934FF480731F937C
:100FC0004FF4806320932023219338464FF400533D
:100FD0001C9422931B961D96239612F04FF83B68A3
:100FE0002C4A43F001033B605368012C23F4702327
:100FF00094BF0021012123F4807343EA012353604D
:101000009168254B013C0B40314643F4602343F08B
:1010100002039360D36AE4B223F4700343EA0454F6
:10102000D46201236A189078002871D06C5C581C37
:10103000092CC0B2D278174F30D9A4F10A06D7F8DC
:101040000CC006EB46064FF0070E0EFA06FE2CEA21
:101050000E0EB2404EEA0202FA602CE03C0800207C
:1010600000100240000C01409C0700209C1600204C
:10107000E49C01080038004015202000C233002005
:101080008C26002000080140080002404C2401404A
:101090009C26002000240140FDF7F1FF3E6904EB8F
:1010A000440C4FF0070E0EFA0CFE26EA0E0602FA6A
:1010B0000CF232433A61062B9A4E0CD85A1E776BCB
:1010C00002EB82021F23934027EA030704FA02F38C
:1010D0003B4373631BE00C2B0CD8DA1F376B02EB1E
:1010E00082021F23934027EA030704FA02F33B43DB
:1010F00033630CE0A3F10D02F76A02EB82021F23B7
:10110000934027EA030704FA02F33B43F3620346E2
:101110000431102986D1834B9A6842F480729A6018
:101120009A6842F001029A609A6842F008029A6056
:1011300099687C4A090730D5FAE7013B092B3FF64D
:10114000D7A97949794B086810225A61214619902C
:1011500077480592039307F033FF082131613C2063
:101160000DF00FFA039B059A1A6197F89A319B4587
:10117000BFF6B8A96D4A0823136178200592736100
:1011800003930DF0F3F9039B059A782053613361C3
:101190000DF0ECF90BF1010BE7E7936843F0040362
:1011A0009360604B9A6812F004020492F9D19A6835
:1011B00042F4A0029A605F4BB3F85C01002841F052
:1011C000C080B3F95E21002A41F0BB80B3F96031E1
:1011D000002B41F0B680584B584D1B6813F4003F6C
:1011E0001FD0C8200DF0CDF9AE2012F054FF08B189
:1011F00012F056FF524C85F87D01C8200DF0C1F960
:10120000504B002114222046C5F8803118F00BFC09
:101210000223E37013F017FB0CF0A5FE4A4B0344C6
:10122000A3604A4C002685F88461201D6670314613
:101230000C2218F0F8FB464B23201978454BA4F5F7
:10124000C27403F11802012988BF1346C5F894310E
:101250000DF097F9752101220EAB682013F040FACA
:101260003D4B6820C5F88C313C4B3146C5F8903178
:10127000432385F8883101220FAB13F031FA9DF832
:101280003C3003F07E03682B8DF83C3006D10123FF
:1012900084F884311D2384F8883166E09DF8383065
:1012A00003F07E03682B8DF8383059D102230620D5
:1012B00084F8843119AAD4F88C31014698479DF8F6
:1012C00067309DF8692003F001035B0002F0010222
:1012D00043EA82029DF8653003F00103134312D004
:1012E0005AB2012A01D1002302E0022A03D10123CC
:1012F00085F8853139E003F00303032BF7D0032091
:101300000DF072FA31E0D4F88C310C20012110AAD2
:1013100098479DF8403013F00F03F0D0042BE6D12E
:10132000E1E700BF00240140FC9C0108000C0140E3
:1013300000080140502A0020502600201002002002
:10134000E0270020E02B0020404B4C0094030020BD
:10135000C2330020B49B010819CF000889CE0008D1
:10136000702B04BF032384F88431A44C00214FF474
:101370008272204618F057FB4FF48073201D002125
:101380007422A4F8AA3018F04EFB4FF07E53A360ED
:10139000E36023619A4BB3F85C01B3F85E51B3F894
:1013A000607118B915B9002F00F08880012384F806
:1013B000503000B216F0B0FA924916F001FB924993
:1013C00016F0B2FB064628B216F0A6FA8D4916F0C2
:1013D000F7FA8D4916F0A8FB054638B216F09CFACC
:1013E000884916F0EDFA884916F09EFB8146304692
:1013F00008F02CFD8046304608F0B4FC064628462E
:1014000008F024FD0746284608F0ACFC054648468F
:1014100008F01CFD8246484608F0A4FC414681467F
:10142000504616F0CDFA41460590484616F0C8FAE7
:1014300051460690304616F0C3FA494607903046AA
:1014400016F0BEFA39468346504616F0B9FA4946B8
:10145000606507F1004016F0B3FA2946A065E5651E
:10146000079816F0ADFA0146069816F0A1F929463C
:101470002066584616F0A4FA0146059816F096F92B
:101480003946606606F1004016F09AFA2946A066D1
:10149000059816F095FA0146584616F087F9294640
:1014A000E066069816F08CFA0146079816F080F967
:1014B00041462067384616F083FA6067504D2B7C12
:1014C00013B1524A526A00E01A464C4C8DF8413032
:1014D0006B7CA2674E4A8DF842304E4FAB89C4F800
:1014E000C02095F8682111933B688DF8402095F84D
:1014F00063B195F8719195F872A1B3F86280464E88
:10150000B36843B1F068984718B1337984F88030F4
:1015100001E01036F4E7E36F002B00F019813F4E35
:1015200000223368BBF1010F43F001033360334BFA
:1015300083F89C2010DD3A4B9A686AB119685945C6
:1015400008DBD86805939047059B18B11B7984F890
:101550009C3001E01033EFE7D4F8983083B9DFF81E
:10156000C0B0DBF808305BB1DBF80C00984720B165
:101570009BF8043084F89C3002E00BF1100BF0E78C
:10158000D4F898301BB1336843F002033360DFF8BE
:1015900094B00BF1080B5BF8103C1BB15BF80C0C22
:1015A0009847F6E7BAF1010F03DCD4F8C430E3B989
:1015B0003CE0DFF874B05BF8083C002BF5D05BF83A
:1015C000102C524504DB5BF8040C98470028ECD142
:1015D0000BF1100BEFE7DAF80C00984728B90AF185
:1015E000100ADAF80830002BF5D1D4F8C43003B370
:1015F000336843F0040333601BE000BF6028002021
:10160000502A0020DB0F49400000344378000020BE
:10161000D5C10008A81200201CC00108CC1F002062
:10162000E49B0108F49C0108649C0108DFF800A217
:10163000D7E733689B0703D5D4F8A030002098473C
:101640009DF841307048714993B19DF84030002BAE
:101650009DF8423008BF7D2203F1FF33DBB218BF93
:101660004FF47A7203FB022280F898310A6003E09B
:1016700080F89831119B0B60D4F8843010A89847FB
:101680000023B9F1010F84F8B03014DDDFF8A4A114
:10169000DAF808307BB1DAF800204A4508DBDAF8DE
:1016A0000C00984720B19AF8043084F8B03002E07A
:1016B0000AF1100AECE7D4F8AC3083B9DFF8749182
:1016C000D9F808305BB1D9F80C00984720B199F8E7
:1016D000043084F8B03002E009F11009F0E7D4F8E2
:1016E000AC301BB1336843F00803336095F85831D0
:1016F0000BB184F8803095F859310BB184F89C30E7
:1017000095F85A310BB184F8B030336818071BD5FF
:101710000FFA88F84FF0640998FBF9F6304616F096
:10172000FBF8824609FB168000B216F0F5F838493E
:1017300016F046F90146504616F03AF8354916F0CB
:101740003FF9C4F8BC0006E00023C4F8BC3002E056
:1017500001200DF049F8304A0A26137843F00203BD
:1017600013702E4B10225A6108221A61DFF8AC80E8
:101770001920D8F80C30013E83F01003C8F80C3063
:10178000D8F80C3083F00803C8F80C300CF0F9FEE0
:1017900001200CF0D3FF19200CF0F3FE00200CF018
:1017A000CDFF16F0FF06E1D10823C8F81030102352
:1017B000C8F81030154BD3F80080194B1A689946B9
:1017C00092F90C209AB9174E3368190734D5DFF80F
:1017D0004C804FF01009D4F8B430C8F814900020B1
:1017E0009847114B0122C8F810901A7024E0D9F8DC
:1017F00000300E49986831444246243607F081FF94
:10180000B6F5907FF3D1DEE710020020EC22002035
:101810008988883C000020419C160020000C014073
:1018200088050020CC1F0020602700207C060020B7
:10183000549C0108949C0108BE4BDFF81C831B6874
:10184000187B16F069F8BC4916F0BAF808F0FEFAF1
:10185000BA4BB9491860D4F8940016F0B1F8B84BF7
:101860001860B4F8AA0016F057F80146B54816F00B
:101870005BF9B54916F058F9B44B186010F076FBD7
:101880004046FF211C2218F0CEF84046D6F800C092
:10189000AF4B01221CF0020F18BF88F801201A700C
:1018A0001FBF03221A70022288F802201CF0040FC6
:1018B00018BF1A784FF0000188F800101FBF511CA4
:1018C0001970032108F802101A784FF01B08511CF8
:1018D000C9B21CF00A0F1970DFF87CE200F8028030
:1018E00013D04FF0040C0EF801C0911CC9B24FF098
:1018F000050C0EF801C0964902F1040C033281F880
:1019000000C0D2B206210EF80210924A11688A066F
:1019100041BF1A7802F1010E83F800E04FF0070E84
:1019200048BF00F802E00A060ED51A784FF0090EFB
:1019300000F802E002F1020E013283F800E0D2B2B8
:101940004FF00A0E00F802E095F805E00EF0EF0205
:10195000082A02D0BEF10E0F08D11A7802F1010C4C
:1019600083F800C04FF00B0C00F802C01A784FF05B
:10197000120802F1010C5FFA8CFC83F800C00C2302
:1019800083544B0741BF724B02321A70724B44BFF3
:10199000102203F80C206E4B11F4806F1A7802F1BC
:1019A000010C5FFA8CFC83F800C000F802800BD0B9
:1019B00095F83082B8F1000F06D002321A70664AEC
:1019C0004FF0130802F80C808A0541BF1A7802F123
:1019D000010C83F800C04FF0150C48BF00F802C09E
:1019E000BEF1180F14D11A784FF0160C00F802C08F
:1019F00002F1010C5FFA8CFC4FF0170800F80C8024
:101A000002F1030C0232D2B283F800C000F802E007
:101A10000A0341BF1A7802F1010E83F800E04FF08B
:101A2000190E48BF00F802E0CA0541BF1A78511CE0
:101A300019701A2148BF81541A78511C1970142347
:101A4000835400219822454817F0EDFF14F067F801
:101A50004349444B44481960B5F85221434B016057
:101A600043491A800023434A0B70D7F800E0B5F8C9
:101A7000A011138093700EF1850A8BB20498DFF8E1
:101A8000FCC0DFF8FC802CF81030D8F80000049A75
:101A9000DFF8F09000F5967049F822000132122A22
:101AA00004926046EAD15246DFF8A8900EF1D50EB6
:101AB000D9F800C01CF4805F08BFB5F8A631C38018
:101AC0001378B3B9937892F803A0534511D20BB1B0
:101AD000013B01E00AF1010303EB830392F801A04B
:101AE00003EB830303F561739BB20AF1040A20F848
:101AF0001A3004327245E3D11CF0080F00F0078160
:101B000095F89831072B00F2FC80DFE813F008000D
:101B10000B003D0069008300A300A300E00045F234
:101B2000F05201E042F6F822134B1A8014F0BDF88F
:101B3000E6E000BFFC04002035FA8E3C34050020AE
:101B4000240500200AE81C4100401C4618270020FC
:101B50005C200020502600205D200020B8290020B5
:101B6000E02B0020040A00201C200020080A00208E
:101B70005709002028200020600500208E29002021
:101B8000BC1F0020A009002042F6F822884B090162
:101B90001A800A2391FBF3F10023A1F5B061854A75
:101BA00042F823100133122BF9D1834A8349402094
:101BB0001160834A13700CF0C5FB002800F0A1806F
:101BC000804B012293F8993190F90000002B14BF4B
:101BD000072306238DE80C0040217B4A7B4B8AE0DB
:101BE00042F6F822724B40201A80794A724B1A60F2
:101BF000734B10221A700CF0A5FB002800F08180B6
:101C000001234FF0000A90F9000040218DE80804FC
:101C1000704A6EE042F6F822654B40201A806E4A08
:101C2000654B1A60664B08221A700CF08BFB00287B
:101C300067D001234FF0000C90F9000040218DE89F
:101C40000810664A4FF4E1330CF02FFE644BC3F8E2
:101C50009C0152E042F6F821554A062B1180584962
:101C60004FF00C02DFF8BCE15E4D5F480A700FD008
:101C700000232B708EF8003003705C4B1B21197011
:101C80005B4B4FF4E1351A705A4B05221A700CE089
:101C90000021297001708EF800105449212008702D
:101CA0005349554D0A70534A1370544A424B4020D1
:101CB0001A600CF047FB20B301234FF0000E90F99F
:101CC000000040218DE808404D4A2B4613E04D4A64
:101CD000394B40201A603A4B0A221A700CF032FB42
:101CE00078B10123002590F900008DE82800464ACC
:101CF00040214FF4E1330CF0D8FD003018BF012033
:101D000028B9082008F0CCF8404A2B4B1A60D9F8C3
:101D10000030590441BF2A4A12211170264A44BF9B
:101D20003B49116042F201021A40AAB144F6206117
:101D30001F4A11809A0441BF214A08211170354978
:101D400044BF1D4A1160DD0741BF1D4A0C211170BF
:101D5000314944BF184A1160180640F19D802F4B4D
:101D60001F484FF0000A2E4DC0F8A03151461522F1
:101D700000F5D270049385F801A0C5F804A0C5F859
:101D800008A017F050FE049BDFF89CB0053B5046BE
:101D9000CBF8003009F0FEFCD8F800300220EB60F0
:101DA0000CF0D0FA002841D1802008F079F86CE0DE
:101DB000600500207C1E002040000020DDEA0008B5
:101DC000AC310020502A0020B1ED0008A0860100AF
:101DD000C9EA000805ED0008B1EA0008B9EC0008FE
:101DE00010020020311F0020301F0020321F002071
:101DF000091E0020331F002090D00300C5E9000811
:101E00008DEB0008B9E9000841EB00083DEB000844
:101E10000DEB00082DEB00081DEB0008562C0020F0
:101E2000642700200A1E00208427002090F805E087
:101E30006B783D490C2202FB03125278724504D0A4
:101E40000133DBB2042BF4D900236B70DBF80030D4
:101E50006A781B7890F90000002B4FF00C0303FB0D
:101E6000021314BF4FF0030E4FF0010E00225B78F7
:101E7000CDF800E0019202210CF017FD2B4B186009
:101E8000002891D0012009F085FC3868284B00F526
:101E9000CB721A600EF04AF9D9F80030990540F17A
:101EA000E380244B0021B3F8D0302022A4F8EC309A
:101EB000214C224D04F5DE7017F0B5FD0023009390
:101EC000022032211E4A04F5DE7310F035FC27464D
:101ED000C4F8C801002800F09D801A4A1A4B03601C
:101EE0001388591CA4F8C431184B1180C4F8CC31A4
:101EF000174BB5F8EC20C4F8BC31164BC4F8C03110
:101F00001AB9154B01221A7084E0037A023BDBB246
:101F1000072B23D8012101FA03F313F08F0F1DD0F3
:101F2000428182861DE000BFE4B70108DC27002063
:101F3000600A0020780000201002002060280020A5
:101F4000C5200108240000204CC1010831D468429A
:101F5000F58A0008A98C0008C6330020B74B092277
:101F60001A70B74B00241B680471C5F8F030039B4E
:101F7000B44AC7F8DC314FF4C873A5F8F4304FF415
:101F80009673A5F8F6304FF4E173A5F8F83093692D
:101F9000C5F8FC0043F001039361039B10271B88E5
:101FA0000EA9ADF8383002238DF83B30039B8DF835
:101FB0003A70586807F004F8039B0EA91B89ADF826
:101FC000383004238DF83A30039BD86806F0F8FFC8
:101FD000039B0120197D06F0DEFF039B9A4A1B69D3
:101FE00019A853618DF86970012719938DF868401D
:101FF0008DF86A7010F096FE039B0FA85B7D8DF83C
:102000003E408DF83C3003238DF83D308DF83F7015
:1020100013F01EFB33688D4A43F010033360B5F9AB
:10202000F460022396FBF3F1B5F9F800118090FB00
:10203000F3F015F071FC864915F076FD854915F031
:10204000BFFC07F003FF0446834B1860304615F0D1
:1020500063FC214615F0B4FC15F078FE7F4B4FF081
:10206000FF3218807E4B1A60D9F800305A0553D5DC
:102070007C4C7D4BD4F8E06104201E600CF062F9CA
:102080000421C4F8E4010CF03AF9784B84F8E80133
:1020900008201E600CF056F9754B082118600CF0F2
:1020A0002EF9744D84F8E901002128462C2217F0FE
:1020B000BAFC8E236B704FF07C08E0237D27EB7019
:1020C00085F8008085F82B706B4D2C220021284666
:1020D00017F0A9FC8A236B702020A023EB7085F8F1
:1020E000008085F82B70C4F8EC610CF02BF92021EE
:1020F000C4F8F0010CF003F984F8F4011020C4F8DE
:10210000F8610CF01FF91021C4F8FC010CF0F7F88D
:1021100084F8000214F010F8584B594C1B78022B2D
:1021200065D1584A00251388322023F040031B0450
:102130001B0C138013884FF4805623F038031B04C4
:102140001B0C138013889BB243F0400313809F2322
:102150008DF83C308DF83D508DF83E508DF83F5055
:102160000CF00FFA8DF86550474D04226E6119A8E6
:102170000FA913F08BFA2E619DF866309DF865204B
:102180001B0243EA02429DF8673013433F4A9342E1
:1021900019D00AD8A2F51A42033A93420CD002F59C
:1021A0001A420232934209D01CE0394A934205D0C8
:1021B0000132934207D015E0202300E080232380E2
:1021C0004FF4807302E04FF4807323806380A38810
:1021D00022881B02A3605343E360224B012283F851
:1021E000012204E0002323806380A360E360E468AD
:1021F000002C4FD0E40A26460027A7420ADA3D19F0
:102200006D100DF16408E8024146102207F064F9F0
:102210000F2806DC0EF0D0F9124BF602C3F8046268
:1022200038E0002358F82320013240F08780013342
:10223000042BF7D12E462C46DFE700BFC633002023
:10224000500000200010024000040140FC26002045
:102250000000204135FA8E3CF4260020042700209F
:10226000F8260020100200200C0B00205C0B002040
:10227000A80B00202C0B0020600B0020C233002094
:102280000800002000380040000C014018BA20006F
:102290001740EF00D9F800106C4B11F400226C4C81
:1022A00018BF01221A706379052B02BF694B4FF4E6
:1022B000C8721A80684B4FF47A721A80674BC82232
:1022C0001A80674A137843F008031370654A13783D
:1022D00023F00203137040F602030B40A3B1624ADD
:1022E000624B4FF07E501A60614B03221A70614BB3
:1022F00001221A70604A00231380604A60491380EB
:102300004CF2503207F0FDF9D9F800309B0341BF81
:102310005C4B04221A71DA7844BF42F00102DA7091
:10232000A3680122C9F80030574B1A70574A137836
:1023300063F07F03137025B0BDE8F08F6F1C254656
:1023400079E7534B00221A7000B215F0E5FA5149B3
:1023500015F036FB3E4C0646B4F95E0115F0DCFA8A
:102360004C4915F02DFB0546B4F9600115F0D4FA7F
:10237000484915F025FB0446304607F067FD8046C6
:10238000304607F0EFFC0646284607F05FFD07469B
:10239000284607F0E7FC0546204607F057FD824631
:1023A000204607F0DFFC41468146504615F008FB09
:1023B00041468346484615F003FB5146059030469A
:1023C00015F0FEFA49460690304615F0F9FA3946FE
:1023D0000790504615F0F4FA2F4C4946206007F15B
:1023E000004015F0EDFA29466060A560069815F0EA
:1023F000E7FA0146059815F0DBF92946E0600798F1
:1024000015F0DEFA0146584615F0D0F9394620613C
:1024100006F1004015F0D4FA29466061584615F0DF
:10242000CFFA0146079815F0C1F92946A061059831
:1024300015F0C6FA0146069815F0BAF94146E06172
:10244000384615F0BDFA2062FEF7C5BE44080020EC
:10245000502A00201A0A0020140A0020D826002042
:10246000F0220020C3330020D22B0020842600203D
:10247000C81F0020700000203433002036330020B5
:10248000A8260020E02700209C0700209C160020A2
:102490002C00002035FA8E3C602600202DE9F04FFC
:1024A00097B013F00BFB954B85B21D8080462846F4
:1024B00015F02EFA9249824615F082FA914C924B11
:1024C000064618600021606815F00EFC08B18F4BBD
:1024D00063606168304615F06BF90146304615F0CF
:1024E00023FBD4F8009006464946504615F05EF9A5
:1024F0000146304615F064FA0146484615F058F991
:10250000206015F049FC824B80B22D1A5D80814D10
:10251000A081A3F800808048D5F888309847794F8B
:10252000079548B97D4F7E4E3B68049713F0020F24
:1025300040F0008100F0F1BDD7F810800021404646
:1025400015F0D2FB70B1774E3388002B00F0B480C9
:10255000D4F88830744F1B7807F10C0504934FF0C2
:10256000000871E03B7D9BB9BB61A569654E022DFA
:102570000CDC06F11C03242101FB05316B4B4046AA
:102580001A68013507F0BDF8B561EEE70123337530
:10259000237D002BD7D05B4B00229A61A569594E51
:1025A000022DD0DC5C4F57F8250015F0B5F906F187
:1025B0001C03242101FB053107F070F816F012FB13
:1025C00047F825000135B561E8E7D5F800C0089364
:1025D0006146CDF814C0069015F0E8F8089B8346D4
:1025E000184615F099F90146584615F09DFADDF8A0
:1025F00014C00146604615F0DBF80346069A1946FA
:1026000068601046059315F0D1F80146584615F05C
:10261000D7F9A96815F0CCF8059BE8602B60A86095
:102620003D4ADFF80CB10023BAF1010F49F802303E
:1026300049F80B3024D008F10108B8F1030F07F175
:10264000040705F1140543D0B6F800A04FEA880945
:10265000BAF57A7F02BF00233B602B612E4B53F803
:1026600028003B6803443B6015F056F92B690133A1
:10267000012B2B61A9D1002368602860AB60CFE7F4
:102680002869012807DD013815F046F90146E86898
:1026900015F04AFA00E0002016F06AFC049B82461E
:1026A00063B1184615F038F90146504615F044FB61
:1026B00020B14FF47A733380002311E03B684FF46C
:1026C0007A7203F5FA7393FBF2F34BF80930B2E731
:1026D0003088012801D10CF04DF83388013BEAE73E
:1026E0000D49134851F8232050F82300121A41F8DD
:1026F00023200133032BF3D114E700BFBC330020A8
:10270000BD37863518040020C823002083F9223EF7
:102710003C08002060280020D0220020CC1F002090
:1027200054330020140A0020A4040020EC220020CE
:10273000EC0400208E4B1B78002B00F0EE840BF095
:1027400012FCD4F8E0308B4DC31A0693D4F8E43071
:10275000C4F8E00093F8008005930027B8F1000F5B
:102760003AD056F8270015F0D7F88346069815F0AA
:10277000CFF8814915F024F900218246686815F0E8
:10278000B3FA58B1404615F0C7F87C4915F018F96E
:1027900001464FF07E5015F0C7F9686050466968F1
:1027A00015F006F80146504615F0BEF9D5F8009030
:1027B00082464946584614F0F9FF0146504615F046
:1027C000FFF80146484614F0F3FF286015F0BEFA02
:1027D0006B4A22F8170004E056F82710684A22F8DE
:1027E00017100137032F05F10C05B7D16449B1F873
:1027F00002A0B1F800900FFA8AF252430FFA89F35F
:1028000003FB03228B8864210993BDF9243003FB69
:10281000032301FB03F2079BB3F8AA305B4392FB4F
:10282000F3F3523B0B93049B1B68180706D5554ADC
:10283000116819B1516809B192687ABB524A12788D
:1028400002F0100101F0FF0561B313F0200529D05B
:1028500002F0020303F0FF0523B34C4B1B78042B5B
:102860001FD94B4B1B88B3F5967F1AD3494B0026D3
:10287000B3F9040015F050F8474B0546188815F0D9
:102880004BF8464915F050F90146284614F08EFFE2
:10289000434915F095F80125804606E000250126FC
:1028A00001E000252E464FF00008069815F030F89C
:1028B000314915F085F83B4FD4F80C410490386845
:1028C00015F02AF8214615F07BF80790786815F086
:1028D00023F8214615F074F80890B86815F01CF834
:1028E000214615F06DF8274A83460798536801463C
:1028F0000A931768946815F063F80C9008980146DD
:1029000015F05EF80C9A0146104614F051FF594636
:102910000C90584615F054F80C9A0146104614F0E5
:1029200047FF16F025FB0C90002D41D040461E4974
:1029300015F002FA28B14046104914F037FF8046DE
:10294000F4E74046194915F0D9F928B140460B493A
:1029500014F02EFF8046F4E74FF07C51404615F00E
:102960002FF807F0FFF9002114F022FF054620E0C0
:102970008833002000050020BD378635DB0FC940B5
:10298000FE0A002044270020F0220020180B00201F
:10299000140B0020C8220020F8070020000020416E
:1029A00035FA8E3CD0220020DB0F4940DB0F49C0B6
:1029B0000025002E00F0A180384614F0ADFF074638
:1029C0000A9814F0A9FF0646204614F0A5FF3946E0
:1029D0000446384614F0F4FF31468046304614F081
:1029E000EFFF0146404614F0E3FE214680462046B4
:1029F00014F0E6FF0146404614F0DAFEA349804693
:102A000015F09AF9002878D0404616F0B1FA014640
:102A10004FF07E5015F088F880463846414614F055
:102A2000CFFF41460A90304614F0CAFF41460646A1
:102A3000204614F0C5FF964F044639680A9814F0F2
:102A4000BFFF79680D90304614F0BAFF0D9B014628
:102A5000184614F0ADFEB9680D90204614F0B0FF92
:102A60000D9B0146184614F0A3FEF9680D900A98D4
:102A700014F0A6FF39698046304614F0A1FF0146E4
:102A8000404614F095FE79690646204614F098FFFA
:102A90000146304614F08CFE0D9B0446194618463C
:102AA00014F08EFF21460646204614F089FF0146A9
:102AB000304614F07DFE16F05BFA0146204614F015
:102AC0007FFF00F10048B969404614F079FF00210A
:102AD00014F06EFEF9690646404614F071FF0021BD
:102AE00014F066FE396A0446404614F069FF014658
:102AF000284614F05DFE054601E0002426460B9BA7
:102B0000262B00F286800FFA89F014F005FF81462B
:102B10000FFA8AF014F000FF0746BDF9240014F004
:102B2000FBFE49468046484614F04AFF3946824635
:102B3000384614F045FF0146504614F039FE414630
:102B40008246404614F03CFF0146504614F030FEE9
:102B50004E49824615F0F0F800285AD0504616F03B
:102B600007FA01464FF07E5014F0DEFF82464846D9
:102B7000514614F025FF51468146384614F020FF97
:102B800051460746404614F01BFF414B82461A6AE5
:102B900038461146D3F81C800A920B9314F010FFAC
:102BA00041460990504614F00BFFDDF824C0014661
:102BB000604614F0FBFD0146304614F0F9FD0B9B16
:102BC00006469B6950461946099314F0F9FE0A9A85
:102BD00082461146484614F0F3FE0146504614F072
:102BE000E5FD0146204614F0E3FD41460446484613
:102BF00014F0E6FE099B80461946384614F0E0FEC4
:102C00000146404614F0D2FD0146284614F0D0FD9E
:102C10000546059B4FF00009D3F80480494640461D
:102C200015F08AF81B4F002838D00C981A4915F077
:102C300065F8002838D03146404614F0C1FE0499AA
:102C400014F0BEFE0146D7F8100114F0B1FD214684
:102C5000C7F81001404614F0B3FE049914F0B0FE1A
:102C60000146D7F8140114F0A3FD2946C7F8140152
:102C7000404614F0A5FE049914F0A2FE0146D7F8D0
:102C8000180114F095FDC7F818010DE00AD7233C90
:102C90009425002018040020C2B8B23EC7F8109155
:102CA000C7F81491C7F81891059B9868064B1B78D4
:102CB000590705D4054B1A6844F61F639A4207D991
:102CC0004FF07E5105E000BFC3330020BC1F002041
:102CD000A44914F075FE3146804614F071FED7F811
:102CE000101114F065FD0146079814F061FD2146AE
:102CF0000646404614F064FED7F8141114F058FD4F
:102D00000146089814F054FD29468146404614F0C7
:102D100057FED7F8181114F04BFD0146584614F031
:102D200047FD4FF07C510546049814F049FE0446D7
:102D30003046214614F044FE21460646484614F02B
:102D40003FFE21468046284614F03AFE864B8246D6
:102D5000D3F80090854B31461F68854B09F1004040
:102D60001D6814F02DFE41460790384614F028FEE9
:102D7000079B0146184614F019FD51460790284656
:102D800014F01EFE079B0146184614F00FFD794C07
:102D90000146D4F800B0584614F00AFD31462060D0
:102DA0000990584614F00CFE51460790384614F02E
:102DB00007FE079B0146184614F0FAFC41460790AF
:102DC000284614F0FDFD079B0146184614F0EEFC62
:102DD0000146484614F0ECFC634B414618600890ED
:102DE000584614F0EDFD51460790484614F0E8FDB2
:102DF000079B0146184614F0D9FC31460790284637
:102E000014F0DEFD079B0146184614F0D1FC014684
:102E1000384614F0CDFC554A51461060079058468C
:102E200014F0CEFD41468246484614F0C9FD0146E5
:102E3000504614F0BDFC31468046384614F0C0FDC3
:102E40000146404614F0B2FC0146284614F0B0FC9E
:102E5000DDF824C0464B614618600546604614F014
:102E6000AFFD089A06461146104614F0A9FD01462A
:102E7000304614F09DFC079B06461946184614F090
:102E80009FFD0146304614F093FC2946064628462D
:102E900014F096FD0146304614F08AFC16F068F8EE
:102EA00001464FF07E5014F03FFE0546206829464B
:102EB00014F086FD2C4B20602946186814F080FD24
:102EC000294B29461860294B2B4C186814F078FDC3
:102ED000264B29461860264B284E186814F070FDC2
:102EE000234B274D18600FF041F8216AE06906F086
:102EF000B7FE244914F064FD15F074FE3080A0691B
:102F000000F1004006F070FE01461F4814F04EFC30
:102F10001C4914F055FD15F065FE21687080E068CD
:102F200006F09EFE174900F1004014F049FDD5F867
:102F3000BC1014F03DFC15F055FE83B21A044ABFD4
:102F400000F56160B380B080104B266AD3F81C1185
:102F5000304614F0F1FE0E4B1A78D8B142F0080258
:102F60001AE000BF00002041882500208C250020A9
:102F7000902500202000002094250020C822002059
:102F8000602800204C3D0F44DB0FC93F180400208F
:102F9000F022002022F00802974F1A70B7F90000C3
:102FA00014F0BAFC8146B7F9020014F0B5FC804673
:102FB000B7F9040014F0B0FC21680746484614F045
:102FC000FFFC61688246404614F0FAFC0146504618
:102FD00014F0EEFBA1688246384614F0F1FC01467D
:102FE000504614F0E5FBA1698246484614F0E8FC1F
:102FF000E1698346404614F0E3FC0146584614F06C
:10300000D7FB39468346304614F0DAFC0146584671
:1030100014F0CEFBE1680646484614F0D1FC216965
:103020008146404614F0CCFC0146484614F0C0FBF3
:1030300061698046384614F0C3FC0146404614F0EE
:10304000B7FB059B00F100475B786C4C012B18D156
:103050006B4B1B785B070ED4D4F82001402390FB08
:10306000F3F3C01A14F058FC314614F0A1FB14F02D
:103070006DFEC4F82001D4F82001402390FBF3F04A
:1030800001E0B5F8AA0014F047FC0146304614F000
:103090008DFBD4F828110646049814F089FB0146EC
:1030A000049814F041FDD4F8245180462946304656
:1030B00014F07CFB0146404614F082FC0146284691
:1030C00014F076FBC4F824010646504615F08AFD3C
:1030D000D4F82C514B4C297806F077FD236818441E
:1030E0002060384615F07EFD297806F06EFD636895
:1030F00018446060304615F075FD697806F065FD8E
:10310000A368414A184406991368A06019441160E5
:103110003E4A13680133136003E000233360736099
:10312000B3603B4BB3F906103A4BD3F800E0BEF85E
:103130000A2091420FDBB1F5FA6F9EF80750BFBF2E
:103140008B1A6B43A2F5FA6593FBF5F5ACBFC5F19D
:103150006405643500E064252F4B304AB3F8A0C104
:1031600093F9623112689BB20492164605930022CD
:1031700040F2E630264B4FEA420933F91280CCEB9D
:10318000080303F2F314844203D8002BB8BF5B4258
:1031900001E04FF4FA73022A049C4FF0640045D01A
:1031A00094F81D411CB1A342CCBF1B1B002393FB11
:1031B000F0F71B4C6FF0630B34F817A00BFB073BC9
:1031C000013734F917400FFA8AF7E41B04FB0BF4BC
:1031D00094FBF0F4134F544427F809400EEB02041B
:1031E00024796343104C93FBF4F364339BB26B4339
:1031F00093FBF0F047E000BFFE0A00201804002017
:10320000C33300200C270020A8330020082700200B
:103210008E290020F8270020502A0020A812002024
:10322000521D0020C02200200CFEFFFF94F81E411A
:103230001CB1A342CCBF1B1B002393FBF0F0AE4C90
:103240006FF0630A0AFB003B04EB400704EB40000D
:10325000B7F93071B0F93201002BA0EB070000FB89
:103260000BFB9BFBFAFB0598C7EB0B0707FB00F773
:10327000A248B8BF5B4287809EF806004343A0483F
:1032800093FBF0F0643073786427434393FBF7F3C8
:103290009C4C022AA354F37A9B4C00FB03F393FB50
:1032A000F7F3A354737D954C00FB03F090FBF7F00C
:1032B000964B9854964B0DD1E0459F700DDB954D84
:1032C000B5F8A221914214DBB1F5FA6FA8BF4FF413
:1032D000FA610FE0E0459D5404DA34F809305B42AE
:1032E00024F809300132032A06F101067FF440AFC9
:1032F000E5E71146891A4FF47A735943C2F5FA6229
:10330000B1FBF2F1642391FBF3F2DFF858E26FF0C6
:1033100063003EF8127000FB021101323EF91220E8
:1033200038B2121A514391FBF3F33B44E3807A4BDA
:10333000724E1B885F063FD5784B0A20B3F90430E4
:1033400093FBF0F0764B1B88C01A00B214F0E4FA3D
:10335000744914F035FB074606F078FD8046384680
:1033600006F000FD0746B6F9020014F0D5FA8146D2
:10337000B6F9000014F0D0FA4146824614F020FB62
:1033800039468346484614F01BFB0146584614F064
:103390000DFA14F0DBFC41463080484614F010FB77
:1033A00039468046504614F00BFB0146404614F067
:1033B000FFF914F0CBFC70805B4B1A78500703D5F3
:1033C0005A4B08225A613CE059490968C9075CBF59
:1033D00042F001021A70574A5749127812075EBF2D
:1033E0001A7822F001021A70544A126812F0040F7F
:1033F00002D05348008870B95248008808B1970736
:1034000009D4514A1288003218BF01221AB94F4814
:103410000079632806D902220A701A7822F0010284
:103420001A7005E01B78DE0756BF02230A700B7086
:103430000AF099FD464B1B68C01A002801DB0BF00F
:10344000A3FF444BD3F88C300BB14348984795F811
:103450009E31294F002B00F08980BB89B7F84801C5
:10346000B0FBF3F03D4B461C1B78B6B2A7F84A619F
:103470001BB3B7F94CA10023DFF87CE034F81380CC
:103480000EF5AB7C3CF813200EF5A779C2EB080BC8
:1034900039F913202CF813800AFB02F132B291FBA8
:1034A000F2F25A4429F813200133042BE4D12B4BB8
:1034B00000221A70AEF84C0104E0B7F84C31013B21
:1034C000A7F84C310C4A0023B2F94C0100284BDD1F
:1034D000B2F94A612249A1F1080232F9132031F808
:1034E0001310424392FBF6F28A1A24F81320013398
:1034F000042BEFD13AE000BF18040020C0220020C6
:103500000CFEFFFF04240020560500201C24002090
:10351000DC220020502A002054200020C822002055
:103520005A0A002035FA8E3CC3330020000C0140BB
:1035300058200020F02200204C200020CC1F00202A
:10354000D82600201A0A0020140A0020C01F0020DC
:1035500050200020602800205C050020F00A002098
:103560006E0500203A1D0020A2F84C31A74EA84B52
:103570003168012208071A7041D5A088DFF8E8E217
:1035800000F10E039BB21C2BA24BB3F9043031D8CF
:10359000A14A128852072DD50A2293FBF2F2BEF8F7
:1035A0000030D21A92B293B20FFA83FE1EF1B30F1B
:1035B000BCBF02F5B4739BB2DFF864E21AB2B32A5F
:1035C0009EF800E0C4BFA3F5B4739BB21EF0080FD1
:1035D00095F8622113D052B2524253438F4A1BB224
:1035E0001268527A53436FF01D0293FBF2F31844B2
:1035F000A08004E00A2293FBF2F3AEF8003011F051
:10360000140FDFF8689271D0834B1B8803F40273A8
:10361000002B6BD0824B1B7803F0100303F0FF0EDE
:1036200043B1804B95F900121A68638801FB02339D
:1036300063805BE0D9F860317B4AD9787B489B781E
:1036400029B3B0F90010B2F90600421A002AB8BF37
:1036500052429A420EDD764A8842C2F800E04FF0AC
:10366000010289F86421C8BF5B42E2889BB213441F
:10367000E3803BE099F864312BB16E4B89F864E14B
:103680001A686D4B1A60674B1B680B4423E0B0F956
:103690000000B2F90620121A82EAE27EAEEBE27E68
:1036A0009E450ADD022392FBF3F2644B1A60644AE2
:1036B0000123137089F864310AE099F864313BB151
:1036C0005C4B89F864111A685B4B1A605C4B19708B
:1036D000544B1B680344D9F868110A8849889342FF
:1036E00003DB8B42A8BF0B461A46E280554B1B7882
:1036F000ABB14D4BB3F90620B5F8A2319A420EDCBE
:10370000514B5B79012B01D0192B02D195F8F62191
:103710002AB90E2B03D0082B1CBF0023A3803F4BDC
:103720001B6893F824A1BAF1000F2FD03A4B1B88E5
:103730009B072BD0454B4649D3F82080404614F0D8
:10374000E7FAF8B9404606F04FFAD7F86C1114F0D2
:1037500037F915F047FAB0F5617FA8BF4FF46170F3
:1037600014F0DAF83B4914F0DFF906F0FBFA0746EB
:10377000504614F0D1F8394614F022F915F032FA17
:1037800080B200E00020E3881844E08033689F06A0
:1037900040F1CD80204B1B8803F03003002B00F05C
:1037A000C6801F4B1B78DE0740F1C180194BB3F96F
:1037B00004000A2390FBF3F014F0AEF8264914F04D
:1037C000FFF8064606F0CEFA8046304606F03EFB8D
:1037D000224B07461B68224AD978224E002973D013
:1037E000DFF88CB0B2F90200BBF802A005910FFA25
:1037F0008AF3C01A04920CF041FC0599049A4B42DA
:10380000984237DB8842A8BF084634E0CC1F00202E
:10381000F10A0020C822002054200020A812002015
:10382000F0220020342700208E290020F20A0020F8
:1038300030270020CC0B002028270020AC330020AC
:103840003827002002000020502A00209425002064
:103850008FC2753CEFB6B04435FA8E3C600A00204A
:10386000720A0020BE330020580A002018040020ED
:103870006E0A00201846BBF800C08244B2F900006E
:103880000FFA8CF21FFA8AFA801A0693CDF810C04C
:103890000591ABF802A00CF0F1FB069BDDF810C01F
:1038A000984204DB059903468842A8BF0B4663444F
:1038B0009BB2ABF800300FFA8AF0049314F02CF8A6
:1038C000049B834618B208E0B2F90200049214F097
:1038D00023F8049A8346B2F9000014F01DF8394623
:1038E0008246584614F06CF841460490504614F055
:1038F00067F8049B0146184613F058FF9C4914F0E2
:1039000013F914F023FA41463080584614F058F861
:1039100039468046504614F053F80146404613F0AD
:1039200047FF934914F000F914F010FA7080914B9E
:10393000B5F874211868904B0093904B1D68904B1C
:10394000196800F16403A8478E4B8F49DB78049314
:103950008E4B1E78032E15D9D9F870319D88B5F598
:10396000FA7F0FD2B4F90400B1F904700028B8BF8F
:1039700040426A42131A9F4203DB2B18BB42A8BF86
:103980003B468B80824B1B6813F000620BD1D9F849
:103990007001E3884F88B1F800800590B1F904A068
:1039A0007C4D144669E10B88002705933D46D9F804
:1039B0007031B946B1F802A0B1F904B0DFF8F48172
:1039C0000693B14541D20FFA8AF013F0A5FFD8F85B
:1039D000081013F0F5FF0790BDF9140013F09CFFD9
:1039E000D8F8041013F0ECFFDDF81CC00146604667
:1039F00013F0DEFE069B079093F9020040420BFB9A
:103A000000F013F089FFD8F80C1013F0D9FFDDF89F
:103A10001CC00146604613F0CBFE14F097F90FA9C5
:103A200080B221F819000FFA85FE01B2714504DC5D
:103A30000FFA87FE714502DB28460546384609F134
:103A4000010908F110080746BBE7534BED1B1A6844
:103A5000ADB212F4805F0593DFF85CA138D04F4A15
:103A60004F4E127812F0040F4D4A02BFD2F83812AE
:103A7000098AA2F83412D2F838224A49108A4A4AEE
:103A8000B1F8068014680FFA88F7E288811A8F422D
:103A900004DCDAF800202788148806E00244974204
:103AA00006DBDAF8002064885788A6F8348215E02F
:103AB000B6F934228A42D9BF2788DAF80020DAF82A
:103AC00000206488D9BF1488B8465788A04605E00E
:103AD000DAF80020B4F8068057881488BAB21FFAC2
:103AE00084F9C9EB0206B6B20FFA85FB30B2834502
:103AF000264D2E4962DD01220A7013F00DFF06905B
:103B0000584613F009FF069A0146104614F00CF8C7
:103B10008346002229788A4214D20DF13C0C3CF9EC
:103B20001200CDF81CC0069213F0F6FE594613F0B1
:103B300047FF15F057F8069ADDF81CC02CF8120064
:103B40000132E7E7164AD2F87021507813F0E4FE0C
:103B5000174913F0E9FF0146584614F0EDF8B8B3E1
:103B600036B2022496FBF4F44C44A4B227462FE06C
:103B700000002041A8120020E02B00209C01002022
:103B8000F827002028200020242300201F240020C4
:103B9000582000209405002050260020C333002028
:103BA000180400208E29002008250020F122002082
:103BB0000000C8428C0500200C2500200020087061
:103BC00002209BFBF0F009EB0004171AA4B2BFB26D
:103BD000059BDAF800601B6895F8009003F48053A9
:103BE0000693A34B0025B3F934A2D3F838320593DA
:103BF000A04BD3F800B04D4580F007810FAB33F8F0
:103C000015200FFA88F0079213F086FE9A4B2901CF
:103C1000C95813F0D5FE14F099F823B29842079AC8
:103C200003DB3BB28342A8BF034613440498934A84
:103C30009BB222F8153069001BB208B1B08811E0C0
:103C4000069870B10598BBF806E0008ACEEB00003C
:103C5000824503DC3088BBF800E005E0BBF80200D9
:103C600000E03088B6F802E0834203DB7345A8BF6A
:103C70007346184650520135BDE7B44205F11005B0
:103C8000DFF8F8B13BD218B2079313F045FE55F8B0
:103C9000181C13F095FE069038B213F03DFE55F84F
:103CA000101C13F08DFE069A0146104613F080FD9D
:103CB00006900FFA88F013F02FFE55F8141C13F03D
:103CC0007FFE069A0146104613F072FD059B069092
:103CD00093F9020040420AFB00F013F01DFE55F874
:103CE0000C1C13F06DFE069A0146104613F060FDA1
:103CF00014F02CF8079B2BF814000134BDE7BBF837
:103D000000300121B1421AB207D23BF91130013122
:103D10009A42B8BF1A4693B2F4E75949D9F870816C
:103D20000968D9F838C248880BEB46098242C8BFF7
:103D3000181A544B514A1F68C8BF80B207F4805309
:103D40000593514BD8BF0020B3F90640494B07F00B
:103D500010071D684A4558D01388059E1B1A9BB250
:103D600022F8023B4EB398F800A0BCF810E0BAF17C
:103D7000000F08D1B5F806A0CAEB0E0B5C4502DDBA
:103D8000F244544514DB7445CCBFB5F802E0B1F8F9
:103D900004E01BB2CCBFB1F802A0B5F800A0734597
:103DA00003DB5345A8BF53469E4622F802ECD1E7F9
:103DB0007445CCBF6B882B8824E0049EB1F802E0E8
:103DC0004EB132F902AC8B889A451BDBF245534663
:103DD000A8BF734616E0B1F800A01BB2534503DB41
:103DE0007345A8BF73469A4622F802ACBCF812305D
:103DF0009C42AFDA0FB18B8804E098F80030002BBA
:103E0000A8D10B8822F8023CA4E720490A788B4607
:103E100002F0040202F0FF0342B1154890F83C3270
:103E2000013BDBB2182B00F23D810BE0184A1278FF
:103E30009342F2D2174931F81300104921F81300C8
:103E40000133F5E701229A40134B1340002B00F099
:103E50002981124B0C491B8813F4807F22D0104B10
:103E60001A88ADF83C205A889B88ADF83E202FE098
:103E700018040020082500208C05002020240020A4
:103E80000C250020502600208E290020C33300205E
:103E90001F240020FC270020992098015420002096
:103EA000C0220020B44B1A88ADF83C205A889B8869
:103EB000ADF83E20B14AADF840301268D40409D5BF
:103EC000D0F83822B1F90640128A944202DA5B42F5
:103ED000ADF84030AA4D4FF47A72B5F902304FF484
:103EE000616403F5E163534393FBF4F3A3F5FA73C1
:103EF000ADF85430B5F9003003F5E1635A4392FB55
:103F0000F4F2A04BA2F5FA721B88ADF85620A3F28A
:103F1000DC53ADF84230D0F838320A881B8AD21A06
:103F2000ADF844204A88D21AADF846208A88D21AC1
:103F3000ADF84820CA88D21AADF84A200A89D21AA8
:103F4000ADF84C204A89D21AADF84E208A89D21A8F
:103F5000ADF85020CA89D31AADF8523000238A4AEE
:103F6000002122F813100133082BF8D1874B884920
:103F70001B68884D0493884B1B680593874B1B78FF
:103F8000C3EBC30301EB0308414573D00B7833B196
:103F900003F1150201239340049A134066D0059B58
:103FA00011F806EC0E2707FB0E37B7F90020B7F91A
:103FB000023064209B1A11F9022C9BB25A4392FBE7
:103FC000F0F211F805AC4FEA530911F8034CC9EBB4
:103FD00002024FEA4A0616A892B211F801CC064432
:103FE00014B936F81C0C0CE0B5F9000036F91C6C5D
:103FF000B04208DA0444844203DBA6423046A8BF3C
:104000002046288008E007DD041BB44203DB84421D
:10401000A8BF044626462E80D7F80A40012000FAA1
:104020000AF02042B5F9006011F9040C12B200FB4D
:1040300006F04FF0640690FBF6F014BF4FF0FF342B
:10404000012490420ADB4FFA8CF25A4392FBF6F2BB
:10405000C9EB020212B28242A8BF02464A4B33F8B1
:104060001E9002FB049423F81E4000E02B800235D2
:10407000073189E7484B4A4E1F6800250E2303FB92
:10408000057393F9064036F9023FE8B263436424AE
:1040900093FBF4F434800DF04FFF01352044082DDC
:1040A0003080EBD1354F384D3B683B4E13F0200F3D
:1040B00033D000200DF040FF2880044601200DF091
:1040C0003BFF324B68801B68190626D5354B2C4ABE
:1040D000D3F860321B78012B23D13168B2F900305C
:1040E00091F914E04FF0320C03FB0EF393FBFCF359
:1040F0001FFA83FE91F90630B2F902205B42534366
:104100006FF0310193FBF1F193FBFCF30EEB010235
:10411000A1187344298018446880D6F800E0002371
:1041200019E0D6F800E0B2F902309EF906105943C2
:10413000322391FBF3F1214429809EF91440B2F916
:10414000001001FB04F292FBF3F21044E4E70133A8
:10415000082B2A5328D00E2101FB03E135F9130067
:10416000B1F900205C009042B1F90210EFDB0AB215
:104170008242A8BF0246EAE72423002050260020FE
:10418000C822002020240020E8070020582000201A
:104190001725002056060020AC1200201025002014
:1041A000E607002018040020A64CD4F870A19AF964
:1041B0000C30A3B994F83C8208F1FF33182B74D863
:1041C000DFE803F0377373517373734A7373737358
:1041D000735B7373737373516773735B3700DFF8CB
:1041E00084924FF0000839F9020F13F095FB964BBB
:1041F000242101FB083105F051FA14F0F3FC326878
:104200000E2303FB082280B2A9F80000B2F90030A7
:1042100000B29842B2F9022003DB13B28342A8BF76
:10422000034608F10108B8F1080FA9F80030DAD107
:10423000C0E79AF8063013B10020698908E09BF8BE
:10424000003003F0040303F0FF00002BF4D101461B
:1042500004F092FE012629E00020E98804F08CFE9B
:104260000120298905E00020298904F085FE69895B
:10427000012004F081FE022618E00226B01E35F867
:104280001610C0B2013604F077FE082EF6D10626CD
:104290000CE00326F01E35F81610C0B2013604F00B
:1042A0006BFE072EF6D1042600E000263B689A0636
:1042B00002D4B8F1050F0AD13046298804F05CFE1B
:1042C000701CC0B2698804F057FE0236F6B23B6833
:1042D000DB0205D494F884337BB10DF073FD0CE060
:1042E000DFF8848100257019C0B238F8021F04F08D
:1042F00043FE0D2DEED00135F5E7544B187800281C
:1043000040F0C7813B681D0340F1C381504D2B78BD
:10431000033B052B1FD84F4B93F8543733B1012B78
:1043200009D10CF087F9C0F17F0004E0D4F88803CC
:1043300003689B689847D4F88C3394F8902313440F
:10434000B3F5807FA8BF4FF480738342D4BFC4F815
:104350008C33C4F88C032B78023B092B00F2898143
:10436000DFE813F00A0015004C0084009A00B30047
:10437000C50040015D0168010023C4F88C33C4F816
:104380009433354B1B68C4F89833032370E1324BE8
:104390001A68D4F8983364339A4240F26A81402014
:1043A00012F052F8002840F064814FF040082B4B87
:1043B000D4F89423234F985C1E4680B112F018F96C
:1043C000D7F88C33B8F1010803F1FF33C7F88C3309
:1043D000D7F8943303F10103C7F89433E7D1D4F845
:1043E0009423184BB25C002A40F04381C3F8942315
:1043F0004FF0FF32C3F89823042339E126230093BA
:10440000174B492003F10C02019302925021A3F1B2
:104410000A02023308F03AFA002840F02A813B6889
:104420004FF0FF3213F080030FBFC4F89433C4F889
:104430009403C4F89823052304BFC4F898230723E2
:1044400016E100BF180400207C060020C5330020C0
:1044500044080020502A0020BC1F0020709D010845
:10446000DA9D0108E6070020942900208B4A0223E8
:104470000021009301910291482002F1080308F005
:1044800005FA002840F0F5804FF0FF33C4F8983368
:10449000C4F894030623EBE0814B072603F10C02DA
:1044A000019302920096A3F10802472000210433F1
:1044B00008F0ECF9002840F0DC804FF0FF33C4F83E
:1044C0009403C4F898332E70D3E0764A0523002174
:1044D000009301910291532002F1080308F0D6F9EC
:1044E000002840F0C680C4F894030823C0E04020B0
:1044F00011F0AAFF002840F0BC80D4F894330D2BB3
:1045000000F2BD80DFE803F0070B0E1219202C31FA
:10451000363B404E595D644814F07CF95CE06348DA
:1045200063491AE063486449644A53E0644B654850
:1045300093F8521793F853274CE0634B634893E882
:10454000060008331B6835E05D4B0C2193F82C27DF
:104550005F4801FB023393F82E1714F05BF93BE040
:10456000574B5C48B3F84411F7E7554B5A48B3F83A
:104570004611F2E7594B5A48D3F89410EDE7574BE0
:104580005848B3F8AA10E8E7D4F89C33D80404D507
:104590004B4B554893F88211DFE7544B0C22C3F87C
:1045A000942319E0464B524893F8861193F88721DB
:1045B00093F8853114F02EF90EE04E48B4F8A013AC
:1045C000CBE73B68190507D53D4B4B48B3F88A113B
:1045D000B3F9882114F01EF9D4F894330133C4F8E8
:1045E000943346E0454B1B689A0115D5B4F8A433C3
:1045F0003E4E8BB9D6F8A8330E200F93404B0FA92F
:104600001B68109307F03AFE4FF48053A6F8A233CC
:104610000A232B7007F08CFE07F012FE29E094F8B5
:10462000AC33002BF6D0354B1B689B01F2D4092329
:104630002B70F1E7334B1A68D4F89833C8339A4299
:1046400004D91F4B93F854678EB904E011F042FF70
:104650000028F6D10DE0D4F8880309F01DFE94F887
:10466000AD33C4F88863022B01D111F058FA01234D
:104670002B7011F019FF60B101232B7009E011F0CC
:1046800029FF0028F5D04FF48053A4F8A2330A2361
:10469000EEE7002017B0BDE8F08F00BF989F01083B
:1046A000B09F0108FC9F010854C101086EC10108B8
:1046B00083C101088BC101089FC10108ABC101087A
:1046C000502A0020B4C10108E8F7FF1FC5C1010846
:1046D000D9C10108E3C10108F2C101086028002026
:1046E00001C2010811C201081BC201081804002000
:1046F00028C2010841C201084CC20108582000200C
:10470000D0260020BC1F00202DE9F04FA04BAFB0F9
:104710001C780193002C00F0E4809E4B1868002860
:1047200001F0C58709F0DAFE9B4C20680AF020F9F9
:10473000002801F0BC8720680AF017F90928974C77
:1047400001D03F2852D10027B8462568944E2DB19C
:10475000944831682A4615F0C9F920B93746B8F1AE
:10476000000F00D1B046904B10369E42EFD3464624
:10477000B8F1000F1DD0D8F800C0D7F8009023681A
:104780001CF803E019F80300704512D15A1C854942
:1047900058B92D2B09D8DFF804E2CEF800204FF0ED
:1047A000200E01F803E0885403E001F803E02260E2
:1047B000E5E723680BB1B8450FD07C4810F0ACFD9D
:1047C000BE4207D856F8100B10F0A6FD092010F0D5
:1047D0002BFCF5E709F08EFE002523689D42A3D24D
:1047E000704B585D10F020FC0135F6E72368002B74
:1047F00041F0CE86042841F033876A4810F00EFF5E
:1048000001F055BF3068DFF8C4A10AF0B1F8002804
:1048100050D0DAF800000AF0A8F8DBF800300246C1
:1048200093F84810002978D1242840F0D78001223D
:1048300083F84820DBF8003093F84820062AE1D1BD
:1048400093F84900522800F0BC8700F2B681362860
:1048500000F01C8700F26081242800F0808600F2BE
:104860001481032800F0DF8240F2EF80052840F039
:1048700001811A200AF0CCFE00264D4B985D0136CE
:104880000AF07DFE0B2EF8D100264A4B985D0136CA
:104890000AF075FE082EF8D10026474B985D0136C8
:1048A0000AF06DFE072EF8D10AF07AFE2B6800227E
:1048B00083F84820414B186809F010FE404B93F8EC
:1048C0007D3053B158F804000AF041F80DF0CCFAED
:1048D00005F0EEFA3B4A3C4BDA604C34982C01F080
:1048E000E686DFF8F48054F8083004EB0802002B69
:1048F000F3D0364E079333600023354D354F8DF896
:104900002130DFF8B89014238DF8203006AB2A60F0
:104910000697C9F80030AB4674E7012904D14D2849
:1049200014BF0022022283E7022904D13C2814BFCD
:10493000002203227CE703290CD140284FF000011C
:1049400002D983F8481075E758711971D9719871B7
:1049500004226DE7042906D1997983F849004A4079
:104960009A71052264E705297FF464AF58791979B3
:104970008842987906D950409871481C18710B44A8
:104980001A7257E790420CBF0622002250E700BF80
:10499000C5330020F4270020D82700204428002019
:1049A00070BD01081428002030BF010869C3010848
:1049B0009FC10108ABC1010883C10108802000200C
:1049C000C80700200400FA0500ED00E08420002064
:1049D0007C2000207DE90008B8290020CF490B7811
:1049E00003F0040303F0FF0E002B7FF423AF232A10
:1049F000DAF800001CD10292019A01231370C84B0F
:104A000003911860C74B1860986010201873C6484F
:104A10005F6083F80DE004330360C44810F07CFC51
:104A200009F068FD0399029A0B7843F002030B70BA
:104A3000BF4B1B681B78934201BFBE4ABE4B1A6036
:104A4000BE4A04BFBE4BDA60F4E6012800F0DF8105
:104A5000022840F0278704200AF0DAFD43200AF0FC
:104A60008EFD4C200AF08BFD46200AF088FD4C207C
:104A700000F0FDBEC0F0E281222840F013875020F4
:104A80000AF0C6FD002700F007BC2A2800F08F8539
:104A900019D8262800F06985282840F00387A94EF8
:104AA00007200AF0B5FDB6F888010AF0B4FDB6F8A3
:104AB0008A010AF0B0FD96F88C010AF060FDB6F8A4
:104AC0008E0100F096BE322800F0A985342800F04F
:104AD00002842C2840F0E6869A4E0C200AF098FDBD
:104AE00096F898010AF04BFDB6F8A4010AF093FD80
:104AF000B6F8A0010AF08FFDB6F8A2010AF08BFD0E
:104B000096F89A010AF03BFDB6F8A6010AF083FD7B
:104B1000B6F8A80100F06DBE452800F0578624D8ED
:104B20003B2800F0B2830BD8382800F02D853A28B6
:104B300040F0B88604200AF06BFD834B00F00DBDF9
:104B4000402800F07385422800F07F853D2840F022
:104B5000A9867C4E02200AF05BFD96F8EC010AF073
:104B60000EFD96F8EB0100F082BE4B2800F0258583
:104B70000ED8472800F0B885C0F0A285492840F03B
:104B8000918602200AF044FD6E4B988900F031BEF8
:104B90004F2800F00986502800F0CB854D2840F0C2
:104BA00081866A4E6A4F30784FF0000900EB400072
:104BB000C0B20AF02DFD00F01BBD732800F0188470
:104BC00000F298806A2800F02F843DD8662800F013
:104BD00086812FD8642800F04481652840F06286E1
:104BE0000B200AF015FD5B4B18880AF014FD5A4B98
:104BF000188880B20AF00FFD584B1B68C3F3C00041
:104C0000C3F38002800040EA4200C3F34002104335
:104C1000C3F3401240EAC20003F0100318430AF045
:104C2000FAFC0AF0D5FB0AF0FFFC464B93F82C0780
:104C300000F01DBE682800F0EA8100F2F581102026
:104C40000AF0E6FC002675E16E2800F010820FD80D
:104C50006C2800F0FC8140F2068406200AF0D8FCA3
:104C60003F4B18680AF0E0FC3E4B188800F0C1BDCD
:104C7000702800F07E82C0F04F82722840F01286C9
:104C8000304E16200AF0C4FCB6F8A0010AF0C3FCAE
:104C9000B6F844010AF0BFFCB6F846010AF0BBFCC6
:104CA000B6F848010AF0B7FCB6F8E2010AF0B3FC26
:104CB00096F801020AF063FC00200AF060FC96F806
:104CC00002020AF05CFC96F88D010AF058FC96F896
:104CD0009B010AF054FC00200AF051FC224B0A20F0
:104CE0001B68B3F9623093FBF0F080B20AF093FCDA
:104CF00000F04EBC7D2800F0808555D8762800F065
:104D0000C38335D8742800F00C83752840F0CA8519
:104D10002F200AF07DFC154EAFE200BFC333002008
:104D2000D8270020C8070020F427002099C30108D5
:104D300008260020EFBEADDEF04F00200400FA058B
:104D400000ED00E0502A0020F8260020AC310020C1
:104D5000FA2B0020BC330020D01F0020CC1F0020E5
:104D6000CC0B0020040B0020A812002023A0010877
:104D7000782800F0E780C0F019837C2840F0928505
:104D8000D14E08200AF044FCB6F84C010AF043FC6E
:104D9000B6F84E010AF03FFCB6F850010AF03BFCB1
:104DA000B6F8520100F025BDA42800F0958317D86D
:104DB000962866D0A02800F0C4837E2840F0728533
:104DC000C14E03200AF024FC96F858010AF0D7FBE4
:104DD00096F859010AF0D3FB96F85A0100F047BD46
:104DE000F12800F0EE80FE2800F09D83F02840F0CE
:104DF0005985B64E04200AF00BFC3368B3F8660000
:104E00000AF009FC3368B3F8640000F0F2BC032038
:104E10000AF0FEFB00200AF0B2FB01200AF0AFFB13
:104E2000102000F024BD0AF0F3FB01200AF0A7FBDC
:104E30000C200AF0A4FB022000F019BD06200AF0A5
:104E4000E7FB41200AF09BFB46200AF098FB4E202E
:104E50000AF095FB41200AF092FB9D4B187800F078
:104E6000C8BC07200AF0D4FBE7200AF088FB964B69
:104E700058790AF084FB00200AF081FB042000F03E
:104E8000B4BC0D200AF0C4FB924B18880AF0C3FB97
:104E9000914B188880B20AF0BEFB904B1B68C3F39D
:104EA000C000C3F38002800040EA4200C3F3400226
:104EB0001043C3F3401240EAC20003F0100318434A
:104EC0000AF0A9FB0AF084FA0AF0AEFB7E4B93F8D5
:104ED0002C070AF054FB824B187900F08ABC122090
:104EE0000AF096FB7F4B0026B3F8AA30B3F5806F2B
:104EF0008CBF082701277C4B33F91600013690FB45
:104F0000F7F080B20AF087FB032EF4D1774E308899
:104F10000AF081FBB0880AF07EFB3089744E0AF0FB
:104F20007AFB30880AF077FBB0880AF074FB30898E
:104F300000F05FBC6F4B985D01360AF020FB102E2D
:104F4000F8D1B1E470200AF063FB4FF000090E269F
:104F500006FB09F65D4F09F101093B683344B3F8DC
:104F600025010AF058FB3B683344B3F827010AF0E7
:104F700052FB3B683344B3F829010AF04CFB3B6811
:104F8000334493F82B010AF0FAFA3B68334493F860
:104F90002C010AF0F4FA3B68334493F82D010AF02F
:104FA000EEFA3B68334493F82E010AF0E8FA3B68C6
:104FB0001E44D6F82F010AF037FBB9F1080FC6D10D
:104FC00072E470200AF024FB3F4E06F1700796F859
:104FD000D4000AF0D4FA96F8D5000AF0D0FA96F880
:104FE000D6000AF0CCFA96F8D7000AF0C8FA96F87C
:104FF000D8000AF0C4FA96F8D9000AF0C0FA0736C9
:1050000096F8D3000AF0BBFABE42E0D14CE410207F
:105010000AF0FEFA0026384B33F8160001360AF083
:10502000FAFA082EF7D13FE4344F002638784000D2
:1050300000F0FE000AF0ECFA3B789E42BFF434AC7C
:105040002F4B33F816000AF0E6FA0136F4E72D4E3E
:1050500006200AF0DDFA30880AF0DDFA70880AF0DE
:10506000DAFAB6F904300A2093FBF0F027E04FF6A5
:10507000FF7607200AF0CCFA234B1888FF28A8BF38
:10508000FF20C0B20AF07BFA204B1868B042A8BFDC
:10509000304620EAE07080B20AF0BDFA1C4B188856
:1050A0000AF0B9FA084B93F88D211A4B186842B1EF
:1050B0000A235843B042A8BF304620EAE07080B2CD
:1050C00097E300F30F00FAE7502A0020A81200200F
:1050D000C2330020BC330020D01F0020CC1F002092
:1050E000C01F002060280020FE0A0020D0220020DF
:1050F00044270020E807002020240020AC310020B5
:105100008E290020C8220020CC26002088260020DE
:10511000D00B0020100B0020BB4E0B200AF078FAB9
:105120003368374618780AF02AFA33684FF00009D6
:1051300058780AF024FA3B68B34E4B44187909F1C9
:1051400001090AF01CFAB9F1030FF4D13368D879D8
:105150000AF015FA336898780AF011FA3368D878AB
:105160000AF00DFA336858890AF055FA3368187A4C
:105170007DE3A64E1E200AF04BFA336800271B7809
:10518000022B66D1336807F1080253F82200A049C8
:1051900012F016FC13F026FD80F30800C0B20AF0EE
:1051A000EEF933689B4903EB8703D86A12F008FCD9
:1051B00013F018FD80F30800C0B20AF0E0F933687C
:1051C00007F10E0253F82200934912F0F9FB13F095
:1051D00009FD80F30800C0B201370AF0D0F9032FAF
:1051E000D0D1072F336821D1586C894912F0E8FBE0
:1051F00013F0F8FC80F30800C0B20AF0C0F933687D
:105200008349986C12F0DCFB13F0ECFC80F308008F
:10521000C0B20AF0B4F9336893F84C0012F078FB8E
:1052200013F0E0FC80F30800C0B20BE03B44587878
:105230000AF0A5F933683B44D87A0AF0A0F933683C
:105240003B44587D01370AF09AF90A2FC9D1FFF77C
:105250002BBB33683B4458780AF091F933683B44E0
:10526000D87A0AF08CF933683B44587D01370AF04C
:1052700086F90A2FEDD1FFF717BB16F8010F0028AA
:105280003FF412AB0AF07BF9F7E701200AF0C0F90E
:105290005E4B1B681878EAE25C4B0C211E685F4B82
:1052A00006EB870696F88520013701FB023393F859
:1052B00038000AF064F996F886000AF060F996F86A
:1052C00087000AF05CF996F888000AF058F9142F64
:1052D000E2D1FFF7E9BA48200AF09AF900274B4BD0
:1052E0001E68062303FB076696F8DA000AF047F902
:1052F00096F8D5000AF043F996F8D6000AF03FF97F
:1053000096F8D7000AF03BF996F8D8000AF037F97A
:10531000013796F8D9000AF032F90C2FDFD1FFF7E8
:10532000C3BA00264FF0010A4FF0000B3C4B1B782C
:105330009B4531DA3B4B4FF000091BF803200C234F
:1053400003FB09F3354F07F13001595C914209D154
:105350003B44586B14F0C1FB0146BAF1000F07D172
:10536000534607E009F10109B9F11D0FE7D110E03B
:1053700006440EE08B420CDA0C2202FB0972526BDF
:105380000391D05C02930AF0FAF8029B039901336F
:10539000F0E70BF1010BC9E7BAF1000F3FF484AA63
:1053A000F0B20AF035F94FF0000ABDE71C4F0026B5
:1053B00038780AF02DF93B789E42BFF475AA194B54
:1053C000002116F803E00C2202FB01F3134800F160
:1053D000300C13F80C20724505D1034493F83800C3
:1053E0000AF0CDF802E001311D29ECD10136E2E7E7
:1053F00008200AF00DF90126F0B201360AF0BFF8D4
:10540000092EF9D1FFF750BAF8270020A812002082
:10541000000020410000C84200007A4424A0010896
:105420005C2000205D20002010200AF0F1F8CA4B1B
:10543000CA4E187800F002000AF0A1F8C84B18789C
:105440000AF09DF830680AF0EFF870680AF0ECF89E
:10545000C44B18880AF0DFF8C34B18880AF0DBF851
:10546000C24B188EC5E105200AF0D2F8C04B18884F
:105470000AF0D1F8BF4B18880AF0CDF8BB4B93F86F
:10548000320000F00100F2E10AF05AF881461220E1
:105490000AF0BEF8B9F1000F01D1B74B03E0B9F142
:1054A000100F03D1B54B1F685E6801E00026374638
:1054B00048460AF064F838460AF0B6F830460AF072
:1054C000B3F8AF4B18680AF0AFF800200AF0A3F861
:1054D00000200AF0A0F877E1A44F002697F83300E7
:1054E000B94680000130C0B20AF092F897F8330054
:1054F0000AF045F899F833309E42BFF4D5A9A14F80
:10550000B85D0AF03CF807F11003985D0AF037F82F
:1055100007F12003985D30370AF031F8B85D0AF0E2
:105520002EF80136E6E708200AF072F80026964BBE
:1055300033F8160001360AF06EF8042EF7D1FFF7A3
:10554000B3B90C200AF064F8904B18680AF06CF8B4
:105550008F4B18680AF068F88E4B186845E10420F4
:105560000AF056F88C4B98683FE18B4E06200AF003
:105570004FF8B6F85C010AF04EF8B6F85E010AF092
:105580004AF8B6F8600134E104200AF041F8824E8E
:1055900096F8820109F0F3FF96F8860109F0EFFF13
:1055A00096F8850109F0EBFF96F887015FE101208D
:1055B0000AF02EF8784B587959E1774E08200AF016
:1055C00027F896F8E00109F0DAFF96F8E10109F012
:1055D000D6FFB6F8E2010AF01EF896F8E40109F0E9
:1055E000CEFFB6F8E6010AF016F896F8E8013EE1BB
:1055F000337802379945BFF457A917F8020C09F020
:10560000BEFF17F8010C09F1010900EB800000EB67
:10561000800000F2EE2080B209F0FDFFE8E70120F3
:1056200009F0F6FF5C4B93F89B0120E1082009F09C
:10563000EFFF0026584B334493F89001013609F0F0
:105640009EFF082EF6D1FFF72FB9534E102009F018
:10565000DFFF707909F093FFB06809F0E5FF96F875
:10566000980109F08CFFB6F85C0109F0D4FFB6F898
:105670005E0109F0D0FFB6F8600109F0CCFFB6F882
:10568000880109F0C8FFB6F88A01B2E0434B424EE8
:10569000187806F12807C0EBC000C0B209F0B8FFC7
:1056A00096F8080200233E4AD25C904200F0E38064
:1056B0000C333C2BF7D10836BE42F1D1FFF7F4B8DA
:1056C0000D2009F0A5FF03F0D3FE364E40F0020096
:1056D000C0B209F054FF308809F0A6FFF06809F065
:1056E000A3FF0AF0AFFE80E009F040FF07468420E8
:1056F00009F08EFF384609F097FF2A4B0DF1380963
:10570000DE6807F18003B3428CBFF61B80260AF0E7
:1057100053FF38463246494603F0DEFE0746002670
:10572000BE42BFF6C1A819F8060009F028FF0136ED
:10573000F6E7194E042009F06BFF012009F01FFF66
:1057400096F8540709F01BFF96F8520709F017FF67
:1057500096F853078BE000BFF02200201C0B0020BE
:10576000180B0020160B0020140B0020C807002087
:105770008C0B00208E0B0020D40B0020640A00202C
:1057800028270020FC0700203C080020E8F7FF1F26
:10579000ECF7FF1FF0F7FF1F502A0020381D0020F4
:1057A00010260020080000200B2009F031FF002007
:1057B00009F0E5FE002009F0E2FE002009F0DFFE1E
:1057C0000FE0012009F024FF002050E0132009F031
:1057D0001FFF0026C74B985D013609F0D0FE0B2E47
:1057E000F8D1002009F020FF002009F01DFFFFF78D
:1057F0005BB809F010FFFFF757B8BF4E032009F060
:1058000007FF336893F81D0109F0B9FE336893F878
:105810001E0109F0B4FE336893F81F0127E040F23F
:105820009984F22800F03C8540F25D85F32840F031
:10583000A48609F085FEFF28B04F40F0C5850026FC
:1058400007F180003146602287F87E6014F0EBF8A3
:105850008DF817609DF8173097F8E220A74E9A420E
:1058600000F26285012009F0D3FE96F87E0009F06F
:1058700086FEFFF719B809F082FEB6F80A0209F0B1
:10588000CAFE96F80C0209F07AFE96F80D0209F0AD
:1058900076FE96F80F0209F072FE96F80E0209F0F5
:1058A0006EFE08E7C8283CD15E797608122E02D930
:1058B0000DF0E6F930E00027B74206D209F04CFEC1
:1058C0000EAB23F817000137F6E732460023B34248
:1058D00007DA0EA931F81300894921F813000133C2
:1058E000F5E7122A05D0864B002123F81210013269
:1058F000F7E7844B01221A700EE0D12800F076837E
:10590000D22840F04186804B1B7803F0040303F05B
:10591000FF06002B00F0A483002009F079FEFEF7BB
:10592000C3BF00F2EE81392811D109F009FE774E8C
:1059300086F8820109F004FE86F8860109F000FE6F
:1059400086F8850109F0FCFD86F88701E4E700F29E
:105950001B812B2804D109F0F3FD6C4B5871DBE758
:105960006FD8252808D1694E0023B36009F0FEFDE9
:10597000B3681843B060CFE73ED8232840F00486D0
:1059800009F0DEFD1328064692D85B4FD7F8009049
:1059900009F0D6FD00210C2202FB01F3DFF880E1C3
:1059A0000EEB030292F83820824221D1734493F81F
:1059B000303009EB860686F8853009F0C1FD86F89F
:1059C000860009F0BDFD86F8870009F0B9FD504A50
:1059D000504B86F888001A6038684F4B00211860D9
:1059E000853008F03BFD4D4B80F00100187093E7C7
:1059F00001311D29CFD15BE727280DD109F0ACFD7E
:105A0000424EA6F85C0109F0A7FDA6F85E0109F078
:105A1000A3FDA6F860017FE7292840F0B58509F0CD
:105A20009BFD3A4EA6F8880109F096FDA6F88A017A
:105A300009F086FD86F88C0109F08EFDA6F88E012E
:105A40006AE7332805D109F07BFD304B83F89B01D1
:105A500062E725D82D2840F0978509F071FD2B4E7F
:105A600086F8980109F078FDA6F8A40109F074FD04
:105A7000A6F8A00109F070FDA6F8A20109F060FDEA
:105A80002B6886F89A015B79082B7FF645AF09F001
:105A900063FDA6F8A60109F05FFDA6F8A8013BE7A3
:105AA00035283FD109F04CFD0B2807463FF600AFE3
:105AB000114B1E6809F044FD03283FF6F9AE06239A
:105AC00003FB076686F8DA0009F03AFD86F8D50090
:105AD00009F036FD86F8D60009F032FD86F8D700C9
