:020000040800F2
:100000000050002041670108DD670108254701080D
:10001000DD670108DD670108DD67010800000000F9
:10002000000000000000000000000000DD67010883
:10003000DD67010800000000DD6701080FE200082D
:10004000DD670108DD670108DD670108DD6701087C
:10005000DD670108DD670108D97B0008D77B000850
:10006000DD670108DD670108DD670108DD6701085C
:1000700051B5000841B50008CD030108DD6701084E
:1000800031B5000821B50008DD670108DD6701080A
:10009000DD670108DD670108DD670108D57B000821
:1000A000DD67010899010108DD670108A901010860
:1000B0008D0101087D0101086D010108496A0008F0
:1000C0004D6A0008416A0008456A0008DD670108BA
:1000D000DD670108C1030108B5030108A903010890
:1000E000A1E30008DD670108DD67010800000000EA
:1000F0000000000000000000000000000000000000
:0C01000000000000000000005FF808F1A3
:100110002DE9F04FA94B97B01B7C8589A84E13BBE6
:10012000A84B28461D8015F0CBFDA749814615F048
:100130001FFEA64CA64B074618600021606815F00C
:10014000ABFFA0B1A34B636011E098470028E7D153
:100150000DF0F6FCA04B1B68EB1A18449F4B1B6874
:1001600064339842DCD2F368002BEED1F0E73846D6
:10017000616815F0F5FC0146384615F0ADFED4F87F
:10018000008007464146484615F0E8FC01463846DF
:1001900015F0EEFD0146404615F0E2FC206015F03A
:1001A000D3FF8F4A8F4B80B21279A081281A5880D2
:1001B0001D809A808C487368984748B98B4B8C4E49
:1001C0001A68049312F0020F40F01E8100F012BE74
:1001D00000237E4D874E05F10E0232F9132046F8BA
:1001E00023200133032BF4D16B61834B304631461E
:1001F0001A7808F0F5FED5F818800021404615F071
:100200004BFF78B17D4F3B88002B00F0B680D4F8CF
:100210008C30DFF8F0811B7808F10C0504934FF067
:1002200000096FE02B7F9BB96B616569674F022DF9
:100230000CDC07F12003242101FB0531674B40460C
:100240001A68013511F083FB7D61EEE701233B77EE
:10025000237F002BD6D05D4B00225A6165695B4F2E
:10026000022DCFDC56F8250015F02EFD07F12003F6
:10027000242101FB053111F037FB18F07DFE46F813
:10028000250001357D61E9E7D5F800C00893614696
:10029000CDF818C0079015F061FC089B83461846FE
:1002A00015F012FD0146584615F016FEDDF818C08F
:1002B0000146604615F054FC0346079A19466860EB
:1002C0001046069315F04AFC0146584615F050FDBD
:1002D000A96815F045FC069BE8602B60A860DFF874
:1002E00020B1002346F80A304AF80B30059B012B59
:1002F00026D009F10109B9F1030F08F1040805F14D
:10030000140547D03B8856F82900B3F57A7F05934A
:1003100002BF0023C8F800302B61D8F800304FEA44
:10032000890A0344C8F8003015F0CEFC2B6901336C
:10033000012B2B61A8D1002368602860AB60CEE759
:100340002869012807DD013815F0BEFC0146E86880
:1003500015F0C2FD00E0002018F0D4FF049A72B13D
:100360000590104615F0B0FC059B0146184615F0A7
:10037000BBFE20B14FF47A733B80002312E0D8F823
:1003800000304FF47A7203F5FA7393FBF2F34BF8F3
:100390000A30AEE73888012801D10BF05FF83B88BE
:1003A000013BE9E7164956F8232051F82310521A69
:1003B00046F823200133032BF4D1FFE6B02C0020B4
:1003C0006C19002068370020BD378635F406002000
:1003D000D036002083F9223E94290020281A0020DC
:1003E000CC2A0020180B002002070020201A002031
:1003F00010370020381E002095190020603700209B
:10040000CC07002084070020904B1B78002B00F0C5
:10041000F1840DF095FBD4F8E4308D4DC31A0693AA
:10042000D4F8E830C4F8E4001F7805934FF0000AD0
:100430004FEA4A030793002F3AD056F82A0015F0E6
:1004400043FC8346069815F03BFC824915F090FC6E
:1004500000218146686815F01FFE58B1384615F036
:1004600033FC7D4915F084FC01464FF07E5015F0B9
:1004700033FD68604846696815F072FB01464846DE
:1004800015F02AFDD5F8008081464146584615F002
:1004900065FB0146484615F06BFC0146404615F0E9
:1004A0005FFB286015F02AFE6C4A079BD05204E0DF
:1004B00056F82A10694A22F81A100AF1010ABAF10C
:1004C000030F05F10C05B3D16449B1F802A0B1F8EE
:1004D00000900FFA8AF252430FFA89F303FB0322CA
:1004E0008B8864210993BDF9243003FB032301FBAE
:1004F00003F25B4B1B885B4392FBF3F3523B0B9382
:10050000049B1B68180706D5564A116819B1516833
:1005100009B192687ABB544A127802F0100101F0D6
:10052000FF0561B313F0200529D002F0020303F0A8
:10053000FF0523B34D4B1B78042B1FD94C4B1B8855
:10054000B3F5967F1AD34B4B0026B3F9040015F090
:10055000BBFB494B0546188815F0B6FB474915F01B
:10056000BBFC0146284615F0F9FA454915F000FC98
:100570000125804606E00025012601E000252E46E3
:100580004FF00008069815F09BFB324915F0F0FB80
:100590003C4FD4F810410490386815F095FB214683
:1005A00015F0E6FB0790786815F08EFB214615F0F4
:1005B000DFFB0890B86815F087FB214615F0D8FBE3
:1005C000284A83460798536801460A931768946837
:1005D00015F0CEFB0C900898014615F0C9FB0C9A5B
:1005E0000146104615F0BCFA59460C90584615F0D5
:1005F000BFFB0C9A0146104615F0B2FA18F082FEC5
:100600000C90002D44D040461F4915F06DFD28B1D7
:100610004046114915F0A2FA8046F4E740461B49CE
:1006200015F044FD28B140460B4915F099FA804673
:10063000F4E74FF07C51404615F09AFB11F0CEFCE8
:10064000002115F08DFA054623E000BF4437002055
:10065000E0070020BD378635DB0FC9400E0E0020B5
:1006600004000020042A0020541E0020300E002028
:100670002C0E0020301E0020D40A00200000204153
:1006800035FA8E3C381E0020DB0F4940DB0F49C095
:100690000025002E00F0A180384615F015FB074616
:1006A0000A9815F011FB0646204615F00DFB394659
:1006B0000446384615F05CFB31468046304615F05E
:1006C00057FB0146404615F04BFA2146804620462E
:1006D00015F04EFB0146404615F042FAA34980460C
:1006E00015F002FD002878D0404618F00BFE0146B8
:1006F0004FF07E5015F0F0FB80463846414615F02D
:1007000037FB41460A90304615F032FB414606461B
:10071000204615F02DFB964F044639680A9815F0CF
:1007200027FB79680D90304615F022FB0D9B0146A2
:10073000184615F015FAB9680D90204615F018FB0B
:100740000D9B0146184615F00BFAF9680D900A98B2
:1007500015F00EFB39698046304615F009FB01465D
:10076000404615F0FDF979690646204615F000FB74
:100770000146304615F0F4F90D9B0446194618461B
:1007800015F0F6FA21460646204615F0F1FA014624
:10079000304615F0E5F918F0B5FD0146204615F094
:1007A000E7FA00F10048B969404615F0E1FA002186
:1007B00015F0D6F9F9690646404615F0D9FA002138
:1007C00015F0CEF9396A0446404615F0D1FA0146D3
:1007D000284615F0C5F9054601E0002426460B9B86
:1007E000262B00F286800FFA89F015F06DFA81460B
:1007F0000FFA8AF015F068FA0746BDF9240015F0E3
:1008000063FA49468046484615F0B2FA39468246B0
:10081000384615F0ADFA0146504615F0A1F94146AB
:100820008246404615F0A4FA0146504615F098F964
:100830004E49824615F058FC00285AD0504618F010
:1008400061FD01464FF07E5015F046FB824648465A
:10085000514615F08DFA51468146384615F088FA12
:1008600051460746404615F083FA414B82461A6AC4
:1008700038461146D3F81C800A920B9315F078FA8B
:1008800041460990504615F073FADDF824C0014640
:10089000604615F063F90146304615F061F90B9B8F
:1008A00006469B6950461946099315F061FA0A9A63
:1008B00082461146484615F05BFA0146504615F04F
:1008C0004DF90146204615F04BF94146044648468D
:1008D00015F04EFA099B80461946384615F048FA3D
:1008E0000146404615F03AF90146284615F038F918
:1008F0000546059B4FF00009D3F804804946404661
:1009000015F0F2FB1B4F002838D00C981A4915F04F
:10091000CDFB002838D03146404615F029FA04991D
:1009200015F026FA0146D7F8140115F019F92146F9
:10093000C7F81401404615F01BFA049915F018FA8F
:100940000146D7F8180115F00BF92946C7F8180128
:10095000404615F00DFA049915F00AFA0146D7F849
:100960001C0115F0FDF8C7F81C010DE00AD7233C67
:10097000C8200020F4060020C2B8B23EC7F8149187
:10098000C7F81891C7F81C91059B9868064B1B780F
:10099000590705D4054B1A6844F61F639A4207D9D4
:1009A0004FF07E5105E000BF6B370020F4180020A7
:1009B000A34915F0DDF93146804615F0D9F9D7F88D
:1009C000141115F0CDF80146079815F0C9F8214625
:1009D0000646404615F0CCF9D7F8181115F0C0F8C6
:1009E0000146089815F0BCF829468146404615F0A6
:1009F000BFF9D7F81C1115F0B3F80146584615F0A9
:100A0000AFF84FF07C510546049815F0B1F9044653
:100A10003046214615F0ACF921460646484615F009
:100A2000A7F921468046284615F0A2F9854B824653
:100A3000D3F80090844B31461F68844B09F1004085
:100A40001D6815F095F941460790384615F090F964
:100A5000079B0146184615F081F851460790284635
:100A600015F086F9079B0146184615F077F8784C83
:100A70000146D4F800B0584615F072F831462060AF
:100A80000990584615F074F951460790384615F00C
:100A90006FF9079B0146184615F062F8414607902A
:100AA000284615F065F9079B0146184615F056F8DB
:100AB0000146484615F054F8624B414618600890CC
:100AC000584615F055F951460790484615F050F92B
:100AD000079B0146184615F041F831460790284615
:100AE00015F046F9079B0146184615F039F80146FE
:100AF000384615F035F8544A51461060079058466C
:100B000015F036F941468246484615F031F901465E
:100B1000504615F025F831468046384615F028F93C
:100B20000146404615F01AF80146284615F018F817
:100B3000DDF824C0454B614618600546604615F057
:100B400017F9089A06461146104615F011F90146A4
:100B5000304615F005F8079B06461946184615F06D
:100B600007F90146304614F0FBFF294606462846A1
:100B700015F0FEF80146304614F0F2FF18F0C2FB03
:100B800001464FF07E5015F0A7F90546206829462A
:100B900015F0EEF82B4B20602946186815F0E8F8A0
:100BA000284B29461860284B2A4C186815F0E0F8A5
:100BB000254B29461860254B274D186815F0D8F8A5
:100BC000224B18600DF01EFD216AE06911F084F9D6
:100BD000224915F0CDF818F0CFF92880A06900F16E
:100BE000004011F03CF901461D4814F0B7FF1B49C5
:100BF00015F0BEF818F0C0F921686880E06811F0BF
:100C00006BF9164900F1004015F0B2F8154B196860
:100C100014F0A6FF18F0B0F983B21A044ABF00F529
:100C20006160AB80A880266A0F4D3046D5F8201150
:100C300015F05AFA0D4B1A78D0B142F0080219E0BB
:100C400000002041BC200020C0200020C420002043
:100C500028000020C8200020301E00204C3D0F44FA
:100C6000DB0FC93F381A0020F4060020541E002074
:100C700022F00802944F1A70B7F9000015F024F81A
:100C80008146B7F9020015F01FF88046B7F9040055
:100C900015F01AF821680746484615F069F86168AA
:100CA0008246404615F064F80146504614F058FF5D
:100CB000A1688246384615F05BF80146504614F0AC
:100CC0004FFFA1698246484615F052F8E169834614
:100CD000404615F04DF80146584614F041FF39469C
:100CE0008346304615F044F80146584614F038FF64
:100CF000E1680646484615F03BF8216981464046C2
:100D000015F036F80146484614F02AFF616980461E
:100D1000384615F02DF80146404614F021FF059B9A
:100D200000F100475B78012B18D1684B1B785B07FB
:100D30000ED4D5F82401402390FBF3F3C01A14F02D
:100D4000C3FF314614F00CFF15F0D8F9C5F82401A3
:100D5000D5F82401402390FBF3F001E05C4B1888A8
:100D600014F0B2FF0146304614F0F8FED5F82C110D
:100D70000646049814F0F4FE0146049815F0ACF809
:100D8000D5F8284180462146304614F0E7FE01465A
:100D9000404614F0EDFF0146204614F0E1FEC5F890
:100DA00028010646504618F0E7F8D5F83051494C6E
:100DB000297811F045F8236818442060384618F067
:100DC000DBF8297811F03CF863681844606030461D
:100DD00018F0D2F8697811F033F8A3683E4A184445
:100DE00006991368A060194411603C4A13680133E6
:100DF000136003E0002333607360B360384BB3F9D2
:100E00000610384BD3F800E0BEF80A2091420FDB01
:100E1000B1F5FA6F9EF80750BFBF8B1A6B43A2F56E
:100E2000FA6593FBF5F5ACBFC5F16405643500E0E8
:100E300064252D4B2D4AB3F8A0C193F96231126895
:100E40009BB20492164605930022254B4FEA4209B5
:100E500033F91280049CCCEB0803002BB8BF5B4233
:100E6000B3F5FA7FA8BF4FF4FA73022A4FF064007B
:100E700044D094F81D411CB1A342CCBF1B1B0023DE
:100E800093FBF0F71A4C6FF0630B34F817A00BFBD1
:100E9000073B013734F917400FFA8AF7E41B04FBCC
:100EA0000BF494FBF0F4134F544427F809400EEB75
:100EB000020424796343104C93FBF4F364339BB234
:100EC0006B4393FBF0F046E00E0E00206B370020E2
:100ED00004000020C42900204C370020C029002035
:100EE000F42B0020B02A0020B02C0020141E00207B
:100EF0009A1A0020281E00200CFEFFFF94F81E41C5
:100F00001CB1A342CCBF1B1B002393FBF0F0AD4CE4
:100F10006FF0630A0AFB003B04EB400704EB400060
:100F2000B7F93471B0F93601002BA0EB070000FBD4
:100F30000BFB9BFBFAFB0598C7EB0B0707FB00F7C6
:100F4000A148B8BF5B4287809EF8060043439F4894
:100F500093FBF0F0643073786427434393FBF7F31B
:100F60009B4C022AA354F37A9A4C00FB03F393FBA5
:100F7000F7F3A354737D944C00FB03F090FBF7F060
:100F8000954B9854954B0DD1E0459F700DDB944DDA
:100F9000B5F8A221914214DBB1F5FA6FA8BF4FF466
:100FA000FA610FE0E0459D5404DA34F809305B4201
:100FB00024F809300132032A06F101067FF445AF17
:100FC000E5E71146891A4FF47A735943C2F5FA627C
:100FD000B1FBF2F1642391FBF3F2DFF854E26FF01E
:100FE00063003EF8127000FB021101323EF912203C
:100FF00038B2121A514391FBF3F33B44E380794B2F
:10100000714E1B885F063FD5774B0A20B3F9043039
:1010100093FBF0F0754B1B88C01A00B214F054FE1D
:10102000734914F0A5FE074611F04CF88046384687
:1010300010F0D4FF0746B6F9020014F045FE8146D1
:10104000B6F9000014F040FE4146824614F090FECE
:1010500039468346484614F08BFE0146584614F044
:101060007DFD15F04BF841463080484614F080FE77
:1010700039468046504614F07BFE0146404614F047
:101080006FFD15F03BF870805A4B1A78500703D566
:10109000594B08225A613CE058490968C9075CBFAE
:1010A00042F001021A70564A5649127817075EBF7D
:1010B0001A7822F001021A70534A126812F0040FD3
:1010C00002D05248008870B95148008808B196078C
:1010D00009D4504A1288003218BF01221AB94E486A
:1010E0000079632806D902220A701A7822F00102D8
:1010F0001A7005E01B78D80756BF02230A700B70E0
:101100000CF01EFD454B1B68C01A002801DB08F0DF
:10111000D5F8434B9B680BB14248984795F89E31F0
:10112000284F002B00F08880BB89B7F84801B0FB3E
:10113000F3F03D4B461C1B78B6B2A7F84A611BB3CF
:10114000B7F94CA10023DFF87CE034F813800EF5EA
:10115000AB7C3CF813200EF5A779C2EB080B39F9EC
:1011600013202CF813800AFB02F132B291FBF2F249
:101170005A4429F813200133042BE4D12A4B0022CE
:101180001A70AEF84C0104E0B7F84C31013BA7F8F7
:101190004C310C4A0023B2F94C0100284ADDB2F967
:1011A0004A612249A1F1080232F9132031F81310E3
:1011B000424392FBF6F28A1A24F813200133042BDF
:1011C000EFD139E0F4060020281E00200CFEFFFFBE
:1011D000281F002036080020401F0020441E002049
:1011E000B02C002024190020301E00203E0D0020CD
:1011F00035FA8E3C6B370020000C01402819002086
:10120000541E00201C190020201A002066370020E0
:10121000FE0C002060370020CC2A0020201900207E
:101220006C1900203A080020D40D00204A08002044
:10123000821A0020A2F84C31A84EA94B3068012236
:1012400001071A7042D5A188DFF8ECE20BB2002B3F
:10125000B8BF5B420E2BA34BB3F9043031DCA24A7A
:10126000128852072DD50A2293FBF2F2BEF8003005
:10127000D21A92B293B20FFA83FE1EF1B30FBCBF23
:1012800002F5B4739BB2DFF868E21AB2B32A9EF893
:1012900000E0C4BFA3F5B4739BB21EF0080F95F82D
:1012A000622113D052B252425343904A1BB2126889
:1012B000527A53436FF01D0293FBF2F30B44A38069
:1012C00004E00A2293FBF2F3AEF8003010F0140FA2
:1012D000DFF8689271D0844B1B8803F40273002BF3
:1012E0006BD0834B1B7803F0100303F0FF0E43B168
:1012F000804B95F900121A68638801FB0233638002
:101300005BE0D9F860317C4AD9787C489B7829B376
:10131000B0F90010B2F90600421A002AB8BF5242D2
:101320009A420EDD764A8842C2F800E04FF0010290
:1013300089F86421C8BF5B42E2889BB21344E38012
:101340003BE099F864312BB16E4B89F864E11A687F
:101350006D4B1A60674B1B680B4423E0B0F900002B
:10136000B2F90620121A82EAE27EAEEBE27E9E45D8
:101370000ADD022392FBF3F2644B1A60644A0123F4
:10138000137089F864310AE099F864313BB15D4B20
:1013900089F864111A685C4B1A605D4B1970554BE3
:1013A0001B680344D9F868110A884988934203DB13
:1013B0008B42A8BF0B461A46E280564B1B78ABB156
:1013C0004D4BB3F90620B5F8A2319A420EDC524BD0
:1013D0005B79012B01D0192B02D195F8F6212AB99E
:1013E0000E2B03D0082B1CBF0023A3803F4B1B6890
:1013F00093F824A1BAF1000F2FD03B4B1B889B0719
:101400002BD0464B4649D3F82080404614F058FE76
:10141000F8B9404610F023FDD7F86C1114F0A8FC81
:1014200017F0AAFDB0F5617FA8BF4FF4617014F00A
:101430004BFC3C4914F050FD10F0D0FD07465046DF
:1014400014F042FC394614F093FC17F095FD80B27D
:1014500000E00020E3881844E08033689F0640F1F4
:10146000CE80214B1B8803F03003002B00F0C78097
:101470001F4B1B78DE0740F1C2801A4BB3F9040002
:101480000A2390FBF3F014F01FFC274914F070FCC2
:10149000064610F0A3FD8046304610F013FE234BA5
:1014A00007461B68224AD978224E002974D0DFF8FB
:1014B00090B0B2F90200BBF802A005910FFA8AF3CE
:1014C000C01A04920EF03EFB0599049A4B429842D2
:1014D00038DB8842A8BF084635E000BF201A00204C
:1014E000D50D0020301E002024190020141E0020DD
:1014F000541E0020EC290020F42B0020D60D0020E3
:10150000E8290020E40E0020E029002050370020C8
:10151000F029002002000020B02C0020C82000206C
:101520008FC2753CEFB6B04435FA8E3C440D0020B6
:10153000560D0020623700203C0D0020F4060020EC
:10154000520D00201846BBF800C08244B2F90000DA
:101550000FFA8CF21FFA8AFA801A0693CDF810C09F
:101560000591ABF802A00EF0EDFA069BDDF810C075
:10157000984204DB059903468842A8BF0B466344A2
:101580009BB2ABF800300FFA8AF0049314F09CFB86
:10159000049B834618B208E0B2F90200049214F0EA
:1015A00093FB049A8346B2F9000014F08DFB394690
:1015B0008246584614F0DCFB41460490504614F035
:1015C000D7FB049B0146184614F0C8FA9C4914F056
:1015D00083FC14F093FD41463080584614F0C8FB5C
:1015E00039468046504614F0C3FB0146404614F08D
:1015F000B7FA934914F070FC14F080FD7080914BA1
:10160000B5F874211868904B0093904B1D68904B6F
:10161000196800F16403A8478E4B8F49DB78049367
:101620008E4B1E78032E15D9D9F870319D88B5F5EB
:10163000FA7F0FD2B4F90400B1F904700028B8BFE2
:1016400040426A42131A9F4203DB2B18BB42A8BFD9
:101650003B468B80824B1B6813F000620BD1D9F89C
:101660007001E3884F88B1F800800590B1F904A0BB
:101670007C4D144669E10B88002705933D46D9F857
:101680007031B946B1F802A0B1F904B0DFF8F481C5
:101690000693B14541D20FFA8AF014F015FBD8F841
:1016A000081014F065FB0790BDF9140014F00CFB52
:1016B000D8F8041014F05CFBDDF81CC0014660464D
:1016C00014F04EFA069B079093F9020040420BFB80
:1016D00000F014F0F9FAD8F80C1014F049FBDDF81A
:1016E0001CC00146604614F03BFA14F007FD0FA938
:1016F00080B221F819000FFA85FE01B2714504DCB1
:101700000FFA87FE714502DB28460546384609F187
:10171000010908F110080746BBE7534BED1B1A6897
:10172000ADB212F4805F0593DFF85CA138D04F4A68
:101730004F4E127812F0040F4D4A02BFD2F8381201
:10174000098AA2F83412D2F838224A49108A4A4A41
:10175000B1F8068014680FFA88F7E288811A8F4280
:1017600004DCDAF800202788148806E00244974257
:1017700006DBDAF8002064885788A6F8348215E082
:10178000B6F934228A42D9BF2788DAF80020DAF87D
:1017900000206488D9BF1488B8465788A04605E061
:1017A000DAF80020B4F8068057881488BAB21FFA15
:1017B00084F9C9EB0206B6B20FFA85FB30B2834555
:1017C000264D2E4962DD01220A7014F07DFA069042
:1017D000584614F079FA069A0146104614F07CFB3C
:1017E0008346002229788A4214D20DF13C0C3CF940
:1017F0001200CDF81CC0069214F066FA594614F097
:10180000B7FA17F0B9FB069ADDF81CC02CF81200E5
:101810000132E7E7164AD2F87021507814F054FAF2
:10182000174914F059FB0146584614F05DFCB8B353
:1018300036B2022496FBF4F44C44A4B227462FE0BF
:1018400000002041141E0020402E00205C000020DB
:10185000B02A0020F8180020881E0020431F002016
:101860002819002070080020941D00206B370020EC
:10187000F4060020F42B00203C200020551E002000
:101880000000C842680800204020002000200870A6
:1018900002209BFBF0F009EB0004171AA4B2BFB2C0
:1018A000059BDAF800601B6895F8009003F48053FC
:1018B0000693A34B0025B3F934A2D3F8383205932D
:1018C000A04BD3F800B04D4580F007810FAB33F843
:1018D00015200FFA88F0079214F0F6F99A4B2901B7
:1018E000C95814F045FA14F009FC23B29842079A3B
:1018F00003DB3BB28342A8BF034613440498934AD8
:101900009BB222F8153069001BB208B1B08811E013
:10191000069870B10598BBF806E0008ACEEB00008F
:10192000824503DC3088BBF800E005E0BBF802002C
:1019300000E03088B6F802E0834203DB7345A8BFBD
:101940007346184650520135BDE7B44205F1100503
:10195000DFF8F8B13BD218B2079314F0B5F955F897
:10196000181C14F005FA069038B214F0ADF955F8C9
:10197000101C14F0FDF9069A0146104614F0F0F818
:1019800006900FFA88F014F09FF955F8141C14F023
:10199000EFF9069A0146104614F0E2F8059B06900E
:1019A00093F9020040420AFB00F014F08DF955F85B
:1019B0000C1C14F0DDF9069A0146104614F0D0F81C
:1019C00014F09CFB079B2BF814000134BDE7BBF817
:1019D00000300121B1421AB207D23BF91130013176
:1019E0009A42B8BF1A4693B2F4E75949D9F87081C0
:1019F0000968D9F838C248880BEB46098242C8BF4B
:101A0000181A544B514A1F68C8BF80B207F480535C
:101A10000593514BD8BF0020B3F90640494B07F05E
:101A200010071D684A4558D01388059E1B1A9BB2A3
:101A300022F8023B4EB398F800A0BCF810E0BAF1CF
:101A4000000F08D1B5F806A0CAEB0E0B5C4502DD0D
:101A5000F244544514DB7445CCBFB5F802E0B1F84C
:101A600004E01BB2CCBFB1F802A0B5F800A07345EA
:101A700003DB5345A8BF53469E4622F802ECD1E74C
:101A80007445CCBF6B882B8824E0049EB1F802E03B
:101A90004EB132F902AC8B889A451BDBF2455346B6
:101AA000A8BF734616E0B1F800A01BB2534503DB94
:101AB0007345A8BF73469A4622F802ACBCF81230B0
:101AC0009C42AFDA0FB18B8804E098F80030002B0D
:101AD000A8D10B8822F8023CA4E720490A788B465B
:101AE00002F0040202F0FF0342B1154890F83C32C4
:101AF000013BDBB2182B00F23D810BE0184A127853
:101B00009342F2D2174931F81300104921F813001B
:101B10000133F5E701229A40134B1340002B00F0EC
:101B20002981124B0C491B8813F4807F22D0104B63
:101B30001A88ADF83C205A889B88ADF83E202FE0EB
:101B4000F40600203C20002068080020541F0020DC
:101B500040200020941D0020F42B00206B37002033
:101B6000431F0020B42A0020992098012419002046
:101B7000281E0020B44B1A88ADF83C205A889B8858
:101B8000ADF83E20B14AADF840301268D40409D512
:101B9000D0F83822B1F90640128A944202DA5B4248
:101BA000ADF84030AA4D4FF47A72B5F902304FF4D7
:101BB000616403F5E163534393FBF4F3A3F5FA7314
:101BC000ADF85430B5F9003003F5E1635A4392FBA8
:101BD000F4F2A04BA2F5FA721B88ADF85620A3F2DE
:101BE000DC53ADF84230D0F838320A881B8AD21A5A
:101BF000ADF844204A88D21AADF846208A88D21A15
:101C0000ADF84820CA88D21AADF84A200A89D21AFB
:101C1000ADF84C204A89D21AADF84E208A89D21AE2
:101C2000ADF85020CA89D31AADF8523000238A4A41
:101C3000002122F813100133082BF8D1874B884973
:101C40001B68884D0493884B1B680593874B1B7852
:101C5000C3EBC30301EB0308414573D00B7833B1E9
:101C600003F1150201239340049A134066D0059BAB
:101C700011F806EC0E2707FB0E37B7F90020B7F96D
:101C8000023064209B1A11F9022C9BB25A4392FB3A
:101C9000F0F211F805AC4FEA530911F8034CC9EB07
:101CA00002024FEA4A0616A892B211F801CC064485
:101CB00014B936F81C0C0CE0B5F9000036F91C6CB0
:101CC000B04208DA0444844203DBA6423046A8BF8F
:101CD0002046288008E007DD041BB44203DB844271
:101CE000A8BF044626462E80D7F80A40012000FAF5
:101CF0000AF02042B5F9006011F9040C12B200FBA1
:101D000006F04FF0640690FBF6F014BF4FF0FF347E
:101D1000012490420ADB4FFA8CF25A4392FBF6F20E
:101D2000C9EB020212B28242A8BF02464A4B33F804
:101D30001E9002FB049423F81E4000E02B80023525
:101D4000073189E7484B4A4E1F6800250E2303FBE5
:101D5000057393F9064036F9023FE8B26343642401
:101D600093FBF4F434800CF033FC01352044082D4F
:101D70003080EBD1354F384D3B683B4E13F0200F90
:101D800033D000200CF024FC2880044601200CF005
:101D90001FFC324B68801B68190626D5354B2C4A30
:101DA000D3F860321B78012B23D13168B2F90030AF
:101DB00091F914E04FF0320C03FB0EF393FBFCF3AC
:101DC0001FFA83FE91F90630B2F902205B425343B9
:101DD0006FF0310193FBF1F193FBFCF30EEB010289
:101DE000A1187344298018446880D6F800E00023C5
:101DF00019E0D6F800E0B2F902309EF90610594316
:101E0000322391FBF3F1214429809EF91440B2F969
:101E1000001001FB04F292FBF3F21044E4E70133FB
:101E2000082B2A5328D00E2101FB03E135F91300BA
:101E3000B1F900205C009042B1F90210EFDB0AB268
:101E40008242A8BF0246EAE7881E0020941D0020B7
:101E5000301E0020541F0020C40A00202819002032
:101E60004B20002032090020201E002044200020AA
:101E7000C20A0020F4060020A64CD4F870A19AF9FA
:101E80000C30A3B994F83C8208F1FF33182B74D8B6
:101E9000DFE803F0377373517373734A73737373AB
:101EA000735B7373737373516773735B3700DFF81E
:101EB00084924FF0000839F9020F13F005FF964B9A
:101EC000242101FB08310FF00FFD17F055F832689F
:101ED0000E2303FB082280B2A9F80000B2F90030FB
:101EE00000B29842B2F9022003DB13B28342A8BFCA
:101EF000034608F10108B8F1080FA9F80030DAD15B
:101F0000C0E79AF8063013B10020698908E09BF811
:101F1000003003F0040303F0FF00002BF4D101466E
:101F200005F04CFE012629E00020E98805F046FE78
:101F30000120298905E00020298905F03FFE6989F3
:101F4000012005F03BFE022618E00226B01E35F8FF
:101F50001610C0B2013605F031FE082EF6D1062665
:101F60000CE00326F01E35F81610C0B2013605F05D
:101F700025FE072EF6D1042600E000263B689A06CF
:101F800002D4B8F1050F0AD13046298805F016FEB3
:101F9000701CC0B2698805F011FE0236F6B23B68CB
:101FA000DB0205D494F884337BB10CF057FA0CE0D3
:101FB000DFF8848100257019C0B238F8021F05F0DF
:101FC000FDFD0D2DEED00135F5E7544B18780028B6
:101FD00040F0C5813B681D0340F1C181504D2B7815
:101FE000033B052B1FD84F4B93F8143833B1012B0B
:101FF00009D10EF083F8C0F17F0004E0D4F8880323
:1020000003689B689847D4F88C3394F89023134462
:10201000B3F5807FA8BF4FF480738342D4BFC4F868
:102020008C33C4F88C032B78023B092B00F2878198
:10203000DFE813F00A0015004C0084009A00B3009A
:10204000C5003E015B0166010023C4F88C33C4F86F
:102050009433354B1B68C4F8983303236EE1324B3D
:102060001A68D4F8983364339A4240F26881402069
:102070000DF064FB002840F062814FF040082B4BCC
:10208000D4F89423234F985C1E4680B107F014FBCC
:10209000D7F88C33B8F1010803F1FF33C7F88C335C
:1020A000D7F8943303F10103C7F89433E7D1D4F898
:1020B0009423184BB25C002A40F04181C3F894236A
:1020C0004FF0FF32C3F89823042337E1262300930F
:1020D000174B492003F10C02019302925021A3F106
:1020E0000A02023307F0D8FE002840F028813B683E
:1020F0004FF0FF3213F080030FBFC4F89433C4F8DD
:102100009403C4F89823052304BFC4F89823072335
:1021100014E100BFF4060020580900206F370020AA
:10212000200B0020B02C0020F4180020E49F0108B0
:102130004EA00108C20A0020FA2B00208A4A02237E
:102140000021009301910291482002F1080307F059
:10215000A3FE002840F0F3804FF0FF33C4F898331B
:10216000C4F894030623E9E0804B072603F10C0230
:10217000019302920096A3F1080247200021043344
:1021800007F08AFE002840F0DA804FF0FF33C4F8F1
:102190009403C4F898332E70D1E0754A05230021CA
:1021A000009301910291532002F1080307F074FE9D
:1021B000002840F0C480C4F894030823BEE0402007
:1021C0000DF0BCFA002840F0BA80D4F894330D2BFF
:1021D00000F2BB80DFE803F0070B0E1219202C3150
:1021E000363A3E4C575B63480DF010FC5AE06248AB
:1021F00062491AE062486349634A51E0634B6448AC
:1022000093F8121893F813284AE0624B624893E857
:10221000060008331B6833E05C4B0C2193F8EC2775
:102220005E4801FB023393F8EE170DF0EFFB39E047
:10223000564B5B48B3F84411F7E7544B5948B3F891
:102240004611F2E7584B59481969EEE7584B59487F
:102250001988EAE7D4F89C33D80404D54B4B564888
:1022600093F88211E1E7554B0C22C3F8942319E04F
:10227000464B534893F8861193F8872193F885319C
:102280000DF0C4FB0EE04F48B4F8A013CDE73B6857
:10229000190507D53D4B4C48B3F88A11B3F988218D
:1022A0000DF0B4FBD4F894330133C4F8943346E012
:1022B000464B1B689A0115D5B4F8A4333F4E8BB931
:1022C000D6F8A8330E200F93414B0FA91B6810932B
:1022D00007F0DCFA4FF48053A6F8A2330A232B70E0
:1022E00007F02CFB07F0B4FA29E094F8AC33002B8C
:1022F000F6D0364B1B689B01F2D409232B70F1E713
:10230000344B1A68D4F89833C8339A4204D91F4B17
:1023100093F814688EB904E00DF056FA0028F6D14F
:102320000DE0D4F8880308F071FE94F8AD33C4F8DA
:102330008863022B01D111F07CFC01232B700DF07E
:102340002DFA60B101232B7009E00DF03DFA002851
:10235000F5D04FF48053A4F8A2330A23EEE700200F
:1023600017B0BDE8F08F00BF0CA2010824A201083D
:1023700070A2010892C50108ACC50108C1C50108D9
:10238000C9C50108DDC50108E9C50108B02C002058
:10239000F2C50108E8F7FF1F03C6010817C60108C8
:1023A00021C6010830C601086C1900203FC601088B
:1023B000040000204FC6010859C60108F406002099
:1023C00066C601087FC601088AC6010828190020D0
:1023D00094290020F41800202DE9F04FA04BAFB055
:1023E0001C780193002C00F0E4809E4B18680028B4
:1023F00002F04B8009F06CF89B4C20680CF00AF856
:10240000002802F0428020680CF001F80928974C5F
:1024100001D03F2852D10027B8462568944E2DB1EF
:10242000944831682A4617F023FD20B93746B8F1A1
:10243000000F00D1B046904B10369E42EFD3464677
:10244000B8F1000F1DD0D8F800C0D7F8009023686D
:102450001CF803E019F80300704512D15A1C854995
:1024600058B92D2B09D8DFF804E2CEF800204FF040
:10247000200E01F803E0885403E001F803E0226035
:10248000E5E723680BB1B8450FD07C4810F0F4F8AD
:10249000BE4207D856F8100B10F0EEF809200FF0E6
:1024A00077FFF5E709F020F8002523689D42A3D2C5
:1024B000704B585D0FF06CFF0135F6E72368002B79
:1024C00041F06887042841F0B9876A480AF000FDA6
:1024D00001F0DBBF3068DFF8C4A10BF09BFF0028E0
:1024E00050D0DAF800000BF092FFDBF80030024623
:1024F00093F84810002978D1242840F0D780012291
:1025000083F84820DBF8003093F848000628E1D132
:1025100093F84960502E00F0E28700F2A881342E33
:1025200000F0058500F24681242E00F07C8600F242
:102530001381032E00F05F8240F2EF80052E40F001
:1025400001811A2006F0FEFF00264D4B985D0136F2
:1025500006F0AFFF0B2EF8D100264A4B985D0136EE
:1025600006F0A7FF082EF8D10026474B985D0136EC
:1025700006F09FFF072EF8D106F0ACFF2B68002273
:1025800083F84820414B186808F0A2FF404B93F8AD
:102590007D3053B158F8040008F014FD0BF0B0FF83
:1025A0000FF0C2FD3B4A3C4BDA604C34982C01F0F2
:1025B0006C87DFF8F48054F8083004EB0802002B35
:1025C000F3D0364E079333600023354D354F8DF8E9
:1025D0002130DFF8B89014238DF8203006AB2A6044
:1025E0000697C9F80030AB4674E7012904D14D289D
:1025F00014BF0022022283E7022904D13C2814BF21
:10260000002203227CE703290CD140284FF000016F
:1026100002D983F8481075E758711971D97198710A
:1026200004226DE7042906D1997983F849004A40CC
:102630009A71052264E705297FF464AF5879197906
:102640008842987906D950409871481C18710B44FB
:102650001A7257E790420CBF0622002250E700BFD3
:102660006F370020A82A00208C2A0020101E00208E
:10267000A4BE0108E01D002084C00108A7C701080E
:10268000DDC50108E9C50108C1C5010850190020D0
:10269000A40A00200400FA0500ED00E0541900200F
:1026A0004C19002021E40008182C0020D8490B7890
:1026B00003F0040303F0FF0E002B7FF423AF232A63
:1026C000DAF800001CD10292019A01231370D14B59
:1026D00003911860D04B1860986010201873CF4891
:1026E0005F6083F80DE004330360CD480FF0C4FF52
:1026F00008F0FAFE0399029A0B7843F002030B707C
:10270000C84B1B681B78934201BFC74AC74B1A606E
:10271000C74A04BFC74BDA60F4E6012E00F05F81C0
:10272000022E40F06887042006F00CFF432006F0DC
:10273000C0FE4C2006F0BDFE462006F0BAFE4C203E
:1027400000F03EBFC0F08281222E40F0548750201E
:1027500006F0F8FE0027CBE32C2E00F0928518D867
:10276000282E00F075852A2E00F08585262E40F053
:102770004287B14E062006F0E5FEB6F85C0106F091
:10278000E4FEB6F85E0106F0E0FEB6F8600100F087
:10279000D9BE302E00F01786322E00F0B2852E2ED4
:1027A00040F02987A44E402006F0CCFE06F14007F9
:1027B00000F0F8BD422E00F0BA8520D83A2E00F085
:1027C0006A820BD8362E00F0D385382E40F013875E
:1027D000042006F0B7FE984E00F02BBD3D2E00F011
:1027E0008D82402E00F094853B2E40F0048701201E
:1027F00006F0A8FE914B1B68187800F0E1BE492E48
:1028000000F088820ED8462E00F00386472E00F096
:102810004186452E40F0EF86132006F093FE0026F9
:1028200000F081BE4D2E00F04B854F2E00F06986E2
:102830004B2E40F0E086804E082006F083FE96F88E
:10284000E00106F036FE96F8E10106F032FEB6F839
:10285000E20106F07AFE96F8E40106F02AFEB6F8E8
:10286000E60106F072FE96F8E80100F0A9BE722EAD
:1028700000F0EA8352D8692E00F0F0812AD8652E44
:1028800000F0258115D8522E00F04886642E40F0C5
:10289000B286072006F056FEE72006F00AFE664BD9
:1028A000587906F006FE002006F003FE042000F032
:1028B00045BE672E00F0548100F2C381122006F05D
:1028C00041FE5F4B00261B88B3F5806F8CBF082745
:1028D000012726E16D2E00F0D48115D86B2E4E4FC6
:1028E00000F0268440F20684564E062006F02AFEAA
:1028F000308806F02AFE708806F027FEB6F904300C
:102900000A2093FBF0F0F3E16F2E00F00A82C0F092
:10291000C781702E00F0608200F06DBE7D2E00F049
:10292000158629D8762E00F0138409D8742E00F06D
:10293000248340F2C2832F2006F004FE424ECFE2F1
:10294000782E00F01981C0F05D837C2E40F0538614
:10295000394E082006F0F6FDB6F84C0106F0F5FDFC
:10296000B6F84E0106F0F1FDB6F8500106F0EDFDA7
:10297000B6F8520100F0E6BDA42E00F0118417D87D
:10298000962E76D0A02E00F040847E2E40F0338626
:10299000294E032006F0D6FD96F8580106F089FD71
:1029A00096F8590106F085FD96F85A0100F008BE28
:1029B000F12E00F02081FE2E00F01984F02E40F060
:1029C0001A861E4E042006F0BDFD3368B3F866007B
:1029D00006F0BBFD3368B3F8640000F0B3BD03201C
:1029E00006F0B0FD002006F064FD012006F061FD58
:1029F000102000F0E5BD304606F0A4FD012006F0F1
:102A000058FD0C2006F055FD304600F0D9BD00BF42
:102A10006B3700208C2A0020A40A0020A82A00205E
:102A2000D7C701083C1A0020EFBEADDEF04F0020F2
:102A30000400FA0500ED00E0B02C0020141E002078
:102A400004000020301E002097A20108062006F096
:102A500079FD412006F02DFD462006F02AFD4E208E
:102A600006F027FD412006F024FDC54B187800F044
:102A700069BD0D2006F066FDC24B188806F065FDA5
:102A8000C14B188880B206F060FDC04B1B68C3F3D1
:102A9000C000C3F38002800040EA4200C3F340025A
:102AA0001043C3F3401240EAC20003F0100318437E
:102AB00006F04BFD06F026FC06F050FDB44B93F8F3
:102AC000EC0706F0F6FCB34B187900F03BBD0B2089
:102AD00006F038FDAB4B188806F037FDAA4B188876
:102AE00080B206F032FDA94B1B68C3F3C000C3F3EC
:102AF0008002800040EA4200C3F340021043C3F367
:102B0000401240EAC20003F01003184306F01DFD16
:102B100006F0F8FB06F022FD9D4B93F8EC0700F061
:102B20004FBD9D4B33F91600013690FBF7F080B294
:102B300006F00BFD032EF4D1984E308806F005FD0B
:102B4000B08806F002FD3089954E06F0FEFC308814
:102B500006F0FBFCB08806F0F8FC308900F0F2BC0F
:102B6000102006F0EFFC00268E4B985D013606F033
:102B7000A0FC102EF8D1FFE4702006F0E3FC4FF02B
:102B800000090E2606FB09F6874F09F101093B688B
:102B90003344B3F8250106F0D8FC3B683344B3F85E
:102BA000270106F0D2FC3B683344B3F8290106F054
:102BB000CCFC3B68334493F82B0106F07AFC3B686D
:102BC000334493F82C0106F074FC3B68334493F8CB
:102BD0002D0106F06EFC3B68334493F82E0106F09D
:102BE00068FC3B681E44D6F82F0106F0B7FCB9F12B
:102BF000080FC6D1C0E4702006F0A4FC644E06F1B4
:102C0000700796F8D40006F054FC96F8D50006F04C
:102C100050FC96F8D60006F04CFC96F8D70006F06B
:102C200048FC96F8D80006F044FC96F8D90006F067
:102C300040FC073696F8D30006F03BFCBE42E0D1DC
:102C40009AE4102006F07EFC0026584B33F816005C
:102C5000013606F07AFC082EF7D18DE4544F002699
:102C60003878400000F0FE0006F06CFC3B789E4295
:102C7000BFF482AC4F4B33F8160006F066FC013609
:102C8000F4E706F05FFC4C4B186806F067FC4B4B12
:102C9000188800F057BC042006F054FC484BC0E2F2
:102CA0004FF6FF76072006F04DFC464B1888FF28AC
:102CB000A8BFFF20C0B206F0FCFB434B1868B0422F
:102CC000A8BF304620EAE07080B206F03EFC3F4BE1
:102CD000188806F03AFC2E4B93F88D213C4B18686F
:102CE0004AB10A235843B042A8BF304620EAE070F8
:102CF00080B200F027BC00F30F00F9E7244E022059
:102D000006F020FC96F8EC0106F0D3FB96F8EB01F8
:102D100000F056BC022006F015FC1D4B988900F00F
:102D200011BC2C4E0B2006F00DFC3368374618788A
:102D300006F0BFFB33684FF00009587806F0B9FB86
:102D40003B68244E4B44187909F1010906F0B1FBA8
:102D5000B9F1030FF4D13368D87906F0AAFB3368D0
:102D6000987806F0A6FB3368D87806F0A2FB3368A3
:102D7000588906F0EAFB3368187A00F021BC00BFDE
:102D80006D37002068370020D62A0020201A002046
:102D9000B02C0020CC2A00200E0E0020381E00206F
:102DA000042A0020C40A0020141E0020541F002002
:102DB000CC340020F42B0020E40E0020140E002060
:102DC000B0290020E4180020A0180020E80E002000
:102DD000280E0020B02A0020BE4E1E2006F0B2FBB6
:102DE000336800271B78022B66D1336807F108028D
:102DF00053F82200B84912F0BBFF16F0BDF880F37B
:102E00000800C0B206F055FB3368B44903EB8703F2
:102E1000D86A12F0ADFF16F0AFF880F30800C0B228
:102E200006F047FB336807F10E0253F82200AC4965
:102E300012F09EFF16F0A0F880F30800C0B2013730
:102E400006F037FB032FD0D1072F336821D1586C00
:102E5000A14912F08DFF16F08FF880F30800C0B280
:102E600006F027FB33689C49986C12F081FF16F03E
:102E700083F880F30800C0B206F01BFB336893F8B8
:102E80004C0012F01DFF16F077F880F30800C0B276
:102E90000BE03B44587806F00CFB33683B44D87A8F
:102EA00006F007FB33683B44587D013706F001FB11
:102EB0000A2FC9D1FFF760BB33683B44587806F04E
:102EC000F8FA33683B44D87A06F0F3FA33683B44A7
:102ED000587D013706F0EDFA0A2FEDD1FFF74CBB14
:102EE00016F8010F00283FF447AB06F0E2FAF7E7C7
:102EF000784B0C211E687B4B06EB870696F88520E5
:102F0000013701FB023393F8380006F0D2FA96F845
:102F1000860006F0CEFA96F8870006F0CAFA96F810
:102F2000880006F0C6FA142FE2D1FFF725BB48202F
:102F300006F008FB0027674B1E68062303FB0766A5
:102F400096F8DA0006F0B5FA96F8D50006F0B1FA70
:102F500096F8D60006F0ADFA96F8D70006F0A9FA72
:102F600096F8D80006F0A5FA013796F8D90006F0D1
:102F7000A0FA0C2FDFD1FFF7FFBA00264FF0010AAD
:102F80004FF0000B584B1B789B4531DA574B4FF0F5
:102F900000091BF803200C2303FB09F3514F07F131
:102FA0003001595C914209D13B44586B16F057FFF0
:102FB0000146BAF1000F07D1534607E009F10109B4
:102FC000B9F11D0FE7D110E006440EE08B420CDA98
:102FD0000C2202FB0972526B0391D05C029306F043
:102FE00068FA029B03990133F0E70BF1010BC9E783
:102FF000BAF1000F3FF4C0AAF0B206F0A3FA4FF006
:10300000000ABDE7384F0026387806F09BFA3B7877
:103010009E42BFF4B1AA354B002116F803E00C2202
:1030200002FB01F32F4800F1300C13F80C2072451D
:1030300005D1034493F8380006F03BFA02E0013171
:103040001D29ECD10136E2E7294E162006F07AFA66
:10305000B6F8A00106F079FAB6F8440106F075FA60
:10306000B6F8460106F071FAB6F8480106F06DFAB6
:10307000B6F8E20106F069FA96F8010206F019FACC
:10308000002006F016FA96F8020206F012FA96F8F8
:103090008D0106F00EFA96F89B0106F00AFA002060
:1030A00006F007FA0B4B0A201B68B3F9623093FB5A
:1030B000F0F080B206F049FABBE0082006F042FAD0
:1030C0000126F0B2013606F0F4F9092EF9D1FFF726
:1030D00053BA00BF141E0020000020410000C84267
:1030E00000007A4498A201082C1900202D19002014
:1030F000B02C0020102006F025FAD04BD04E1878C6
:1031000000F0020006F0D5F9CE4B187806F0D1F9A0
:10311000306806F023FA706806F020FACA4B188867
:1031200006F013FAC94B188806F00FFA388E09E238
:10313000052006F007FAC64B188806F006FAC54BBC
:10314000188806F002FA97F8320000F0010037E222
:1031500006F090F98146122006F0F4F9B9F1000F5B
:1031600001D1BD4B03E0B9F1100F03D1BB4B1F6878
:103170005E6801E000263746484606F09AF9384670
:1031800006F0ECF9304606F0E9F9B54B186806F0A0
:10319000E5F9002006F0D9F9002006F0D6F9C0E1E3
:1031A000B04F002697F83300B94680000130C0B216
:1031B00006F0C8F997F8330006F07BF999F8333038
:1031C0009E42BFF4D9A9A84FB85D06F072F907F185
:1031D0001003985D06F06DF907F12003985D303714
:1031E00006F067F9B85D06F064F90136E6E70820F5
:1031F00006F0A8F900269D4B33F81600013606F0BC
:10320000A4F9042EF7D1FFF7B7B90C2006F09AF90C
:10321000974B186806F0A2F9964B186806F09EF9CD
:10322000954B18688AE1042006F08CF9934B986856
:1032300084E196F8820106F03CF996F8860106F0E2
:1032400038F996F8850106F034F996F88701B7E168
:103250008A4E072006F076F9B6F8880106F075F96F
:10326000B6F88A0106F071F996F88C0106F021F99A
:10327000B6F88E0166E1012006F064F97F4B5879BB
:103280009EE17E4E0C2006F05DF996F8980106F05E
:1032900010F9B6F8A40106F058F9B6F8A00106F046
:1032A00054F9B6F8A20106F050F996F89A0106F022
:1032B00000F9B6F8A60106F048F9B6F8A80141E110
:1032C0006F4E704F30784FF0000900EB4000C0B2F5
:1032D00006F038F9337802379945BFF44DA917F84D
:1032E000020C06F0E6F817F8010C09F1010900EBF1
:1032F000800000EB800000F2EE2080B206F025F99D
:10330000E8E7012006F01EF95C4B93F89B0157E1BA
:10331000082006F017F90026584B334493F8900123
:10332000013606F0C6F8082EF6D1FFF725B9534E40
:10333000102006F007F9707906F0BBF8B06806F0C7
:103340000DF996F8980106F0B4F8B6F85C0106F0AD
:10335000FCF8B6F85E0106F0F8F8B6F8600106F081
:10336000F4F8B6F8880106F0F0F8B6F88A01E9E05A
:10337000454B424E187806F12807C0EBC000C0B29A
:1033800006F0E0F896F808020023404AD25C90422A
:1033900000F01A810C333C2BF7D10836BE42F1D134
:1033A000FFF7EAB8B6F8C00206F0CFF896F8C20206
:1033B00006F07FF8043696F8BF0206F07AF8BE42AF
:1033C000F0D1FFF7D9B8E02006F0BCF82B4E06F19B
:1033D0008007B6F84202043600F03F0006F0B5F868
:1033E000B6F83E02C0F3861006F0AFF896F83C023D
:1033F000000906F05EF896F83C0200F00F0006F0B7
:1034000058F896F83D0206F054F8BE42E1D1FFF7B5
:10341000B3B80D2006F096F80FF05EFD1C4E40F09C
:103420000200C0B206F045F8308806F097F8F06860
:1034300006F094F80CF06AFD80E000BF541E0020F6
:10344000340E0020300E00202E0E00202C0E002006
:10345000A40E0020A60E0020EC0E0020480D002037
:10346000E0290020A40A0020D80A0020180B002020
:10347000E8F7FF1FECF7FF1FF0F7FF1FB02C00204D
:10348000CC3400205A2E0020801A0020441A00203C
:103490001800002006F004F80746842006F052F8D1
:1034A000384606F05BF8C54B0DF13809DE6807F1C8
:1034B0008003B3428CBFF61B80260CF0E1FD38463A
:1034C000324649460FF03CFD07460026BE42BFF695
:1034D00053A819F8060005F0ECFF0136F6E7B84EE0
:1034E000042006F02FF8012005F0E3FF96F81408F9
:1034F00005F0DFFF96F8120805F0DBFF96F81308D9
:103500005EE00B2006F01EF8002005F0D2FF002040
:1035100005F0CFFF002005F0CCFF0BE0012006F006
:1035200011F800204CE0A74B985D013605F0C1FF73
:103530000B2EF8D1002006F011F8002006F00EF84E
:10354000FFF71AB806F001F8FFF716B89E4E0320F1
:1035500005F0F8FF336893F81D0105F0AAFF336802
:1035600093F81E0105F0A5FF336893F81F0127E0CB
:1035700040F2FF84F22E00F07D8540F29E85F32E0E
:1035800040F0FD8605F076FFFF28904F40F01E8644
:10359000002607F180003146602287F87E6016F031
:1035A0000CFC8DF817609DF8173097F8E220874ED5
:1035B0009A4200F2A385012005F0C4FF96F87E0030
:1035C00005F077FFFEF7D8BF05F073FFB6F80A02E3
:1035D00005F0BBFF96F80C0205F06BFF96F80D02A4
:1035E00005F067FF96F80F0205F063FF96F80E02EC
:1035F00005F05FFFD1E6512E32D1744B93F87C3049
:10360000012B28D805F036FF6D4E86F8140805F01A
:1036100031FF86F8120805F02DFF86F813081AE02E
:1036200000F23884CD2E00F0438240F24B82D02E3F
:1036300000F07B8340F28583D12E00F0CD83D22E23
:1036400040F0A486624B1B7803F0040303F0FF06EE
:10365000002B00F0FB83002005F074FFFEF78CBF09
:1036600000F21E82372E2ED15B790726B3FBF6F6C9
:10367000C6EBC6029B1A13F0FF0F02D008F08AFFB8
:10368000E9E7F6B2013EF6B2FF2EE4D005F0F2FE15
:103690005FFA80F94FFA89F007F01CFD0746002811
:1036A000ECD080F8009005F0F1FE788005F0E2FEA5
:1036B000387105F0DFFE787105F0DCFEF87105F079
:1036C000D9FEB871DEE700F230812B2E04D105F06F
:1036D000D1FE3B4B5871BEE700F28680252E08D103
:1036E000374E0023B36005F0DBFEB3681843B060CB
:1036F000B1E73ED8232E40F0498605F0BBFE1328E3
:103700000646BBD8304FD7F8009005F0B3FE002135
:103710000C2202FB01F3DFF8CCE00EEB030292F87F
:103720003820824221D1734493F8303009EB860669
:1037300086F8853005F09EFE86F8860005F09AFE34
:1037400086F8870005F096FE224A234B86F888000B
:103750001A603868214B00211860853007F02AFE76
:103760001F4B80F00100187075E701311D29CFD182
:1037700084E7272E0DD105F089FE114EA6F85C01D5
:1037800005F084FEA6F85E0105F080FEA6F8600153
:1037900061E7292E40F0FA8505F078FE084EA6F87C
:1037A000880105F073FEA6F88A0105F063FE86F82D
:1037B0008C0105F06BFEA6F88E014CE71800002086
:1037C000B02C0020DDC50108141E0020A40A002032
:1037D0006B370020F42D0020380D0020901D0020B4
:1037E0000200002098A20108312E30D105F042FEDF
:1037F0001F2806463FF642AF2B685B79082B7FF403
:103800003DAF05F043FEDFF86493903609EB860781
:1038100000F03F00788005F039FE7B88800100F4DD
:10382000FE501843788005F025FE000109F82600B7
:1038300005F020FE19F8263000F00F00184309F8B3
:10384000260005F017FE78700DF038FF03E73AD830
:103850002D2E22D105F00EFEC44E86F8980105F0FB
:1038600015FEA6F8A40105F011FEA6F8A00105F0CA
:103870000DFEA6F8A20105F0FDFD2B6886F89A0161
:103880005B79082B7FF6E7AE05F000FEA6F8A601EF
:1038900005F0FCFDA6F8A801DDE62F2E40F07685A8
:1038A000B24E06F1400705F0F1FDA6F8C00205F0A2
:1038B000E1FD86F8C20205F0DDFD043686F8BF02A0
:1038C000BE42F0D1C7E6332E05D105F0D3FDA74B9C
:1038D00083F89B01BFE6352E40F0588505F0CAFD00
:1038E0000B2807463FF6CAAEA14B1E6805F0C2FD85
:1038F00003283FF6C3AE062303FB076686F8DA000B
:1039000005F0B8FD86F8D50005F0B4FD86F8D600C0
:1039100005F0B0FD86F8D70005F0ACFD86F8D800BC
:1039200005F0A8FD86F8D90095E6432E23D105F0D1
:10393000A1FD8E4E0023B360707105F0B1FDB36838
:103940001843B06005F096FD86F8980105F09EFDDD
:10395000A6F85C0105F09AFDA6F85E0105F096FD5B
:10396000A6F8600105F092FDA6F8880105F08EFD2D
:10397000A6F88A016FE63BD83C2E09D17C4E376809
:1039800005F078FD3870336818780AF0D5FE62E6E5
:1039900014D8392E40F0FA8405F06CFD734E86F889
:1039A000820105F067FD86F8860105F063FD86F863
:1039B000850105F05FFD86F887014CE63E2E09D1B2
:1039C00005F058FD694E86F8EC0105F053FD86F8C8
:1039D000EB0140E6412E40F0D984002605F04AFD77
:1039E000624B33440136082E83F89001F6D132E65B
:1039F0004A2E04D105F04AFD5C4B98812BE60CD889
:103A0000442E04D15B4B012283F87D2023E6482E0F
:103A100040F0BC840CF082FB1DE64C2E19D105F061
:103A200029FD524E86F8E00105F024FD86F8E101FB
:103A300005F02CFDA6F8E20105F01CFD86F8E40176
:103A400005F024FDA6F8E60105F014FD86F8E8016E
:103A500001E64E2E40F09A8405F00CFD1128074631
:103A60003FF60CAE05F006FD404ED43706EB47039B
:103A7000987005F00BFD40F2ED23984205DD40F60D
:103A8000CA039842A8BF184601E040F2EE20A0F217
:103A9000EE20192390FBF3F006EB4706F070DAE511
:103AA000D32E7FF4BDAD05F0F1FC334B1880D2E589
:103AB000324B1B785B073FF5CEAD314B4FF4C872EC
:103AC0001A80C8E5C92E25D105F0D4FC2D4B1A78F3
:103AD00010B142F0020201E022F002021A7005F079
:103AE000C9FC294B294E187005F0DAFC306005F04E
:103AF000D7FC706005F0CAFC254B188005F0C6FCA9
:103B0000244B1C4A188092F8323043F0020382F8AA
:103B10003230A0E544D8C82E40F038845E7976086B
:103B2000122E3FF6ABAD0027B74206D205F0AEFC31
:103B30000EAB23F817000137F6E732460023B342F5
:103B400007DA0EA931F81300134921F813000133E5
:103B5000F5E7122A05D0104B002123F8121001328C
:103B6000F7E70E4B01221A7075E500BFB02C00205C
:103B7000141E0020A40A00203C0D00206B370020FA
:103B8000FE0C0020541E0020300E0020340E0020B9
:103B90002E0E00202C0E0020741700200E0C00208A
:103BA000CA2E40F08180AF4E002733681B78022B6D
:103BB00061D1D6F8009005F05DFC12F081F8AA49B9
:103BC00012F08AF907F1080A49F82A00D6F800909D
:103BD00005F050FC07F10A0309EB830912F070F8B5
:103BE000A24912F079F9C9F80400D6F8009005F05E
:103BF00041FC12F065F89E4912F06EF907F10E0AC9
:103C00000137032F49F82A00D3D1072FD6F80090A7
:103C10001AD105F02FFC12F053F8934912F05CF919
:103C2000C9F84400D6F8009005F024FC12F048F8DA
:103C30008D4912F051F9C9F84800D6F8009005F006
:103C400019FC89F84C0012E005F014FCB94489F81D
:103C50000100D6F8009005F00DFCB94489F80B007E
:103C6000D6F8009005F006FCB94489F81500013734
:103C70000A2FCAD1EFE4D6F8009005F0FBFBB94457
:103C800089F80100D6F8009005F0F4FBB94489F8F2
:103C90000B00D6F8009005F0EDFBB94401370A2F70
:103CA00089F81500E7D1D6E4CC2E40F06F835B791C
:103CB000092B7FF6E3AC6F4E376805F0DBFB3870FD
:103CC000376805F0D7FB787005F0D4FB33686428BB
:103CD000A8BF6420187105F0CDFB33686428A8BF25
:103CE0006420587105F0C6FB3368FF28A8BFFF2089
:103CF000987105F0BFFB37686428A8BF6420F8718D
:103D000005F0B8FBB870376805F0B4FBF870376899
:103D100005F0BCFB2B6878815B790A2B7FF69BACA6
:103D2000366805F0A7FB307295E4534B1B785A07B1
:103D30003FF591AC0BF0A8FA0EF020FA0BF0E2F888
:103D400089E4CE2E0AD14C4B1B785F073FF583AC3C
:103D50004A4A137843F0040313707CE4CF2E40F0FA
:103D6000158305F093FB6FF4AF6143189BB2444E8B
:103D7000C62B98BFA6F8A00105F088FBA6F8440161
:103D800005F084FBA6F8460105F080FBA6F8480183
:103D900005F07CFBA6F8E20105F06CFB86F8010259
:103DA00005F068FB05F066FB86F8020205F062FB91
:103DB00086F88D0105F05EFB86F89B0105F05AFB45
:103DC000284B1F6805F062FB00EB80004000A7F85D
:103DD000620005F04FFBE2E505F04CFB824605F082
:103DE0005FFB814605F05CFB074605F059FB064684
:103DF00005F04CFB05F04AFB05F03CFBBAF1000F67
:103E000011D1204B1020C3F800905F600EF064F9D0
:103E10001A4A137843F001031370002E3FF41BACD1
:103E2000194B1E6017E4BAF1100F7FF414AC174B56
:103E3000C3F800905F600EB1134B1E601348144B23
:103E40000222011D1A700BF08FFE04E405F012FB34
:103E50000B4B022883F8EC077FF66EAF83F8EC6714
:103E60006AE700BF141E0020000020410000C84285
:103E700000007A44B02A00206B370020541E002036
:103E8000B02C0020EC0E0020E0290020480D00207E
:103E9000400D0020DB2E7FF46BABC04B1E211B6856
:103EA0002827D9721973322119710F2159712221D2
:103EB00099710E211974352199761921D971212111
:103EC000012617224FF02D0E5F709F7059745F729C
:103ED000532178271E705A759A7583F80DE0552284
:103EE000D9769F72142183F814E09E774FF4FA7705
:103EF00083F85460DFF8D0E2A94E0A20DA70197214
:103F000000226421A3F84E700027DA759A731A769E
:103F1000DA735A761F6598741977C3F820E0DE6269
:103F20001E635E639F4EA04F1E64A04E9F635E643F
:103F30009F4EDF6383F85B209E4F4FF4E1729E64D7
:103F4000A3F85C204B261022C3F824E09F6283F87C
:103F50004C6083F8550083F8560083F8570083F8C7
:103F6000581083F8591083F85A1083F85E20FFF731
:103F700072BBD62E0AD1002605F088FA8E4B23F8A4
:103F800016000136082EF7D1FFF765BB48D8D42EAE
:103F900040F0FC815B790F2B7FF470AB05F06AFA7F
:103FA000072806463FF66AAB7C4FD7F8009005F02D
:103FB0006DFA0E235E43B144A9F82501D7F80090AD
:103FC00005F064FAB144A9F82701D7F8009005F08C
:103FD0005DFAB144A9F82901D7F8009005F04AFA32
:103FE000B14489F82B01D7F8009005F043FAB144A9
:103FF00089F82C01D7F8009005F03CFAB14489F813
:104000002D01D7F8009005F035FAB14489F82E015A
:104010003F6805F045FA3E44C6F82F01FFF71BBB89
:10402000D92E12D105F032FA644EA6F84C0105F0F3
:104030002DFAA6F84E0105F029FAA6F8500105F070
:1040400025FAA6F85201FFF706BBDA2E40F09E8152
:10405000524E376805F00EFA87F81D01376805F0F3
:1040600009FA87F81E01366805F004FA86F81F0180
:10407000FFF7F1BA05F0FEF90F2806463FF6FEAA53
:1040800005F0F8F94E4BC6EBC6061E44307105F03C
:10409000F1F9707105F0EEF9B07105F0EBF9F0711E
:1040A00005F0E8F9307205F0E5F9707205F0E2F913
:1040B000B0720AF065FAFFF7CEBADC2E0ED105F029
:1040C000D9F93E4E86F8580105F0D4F986F8590121
:1040D00005F0D0F986F85A01FFF7BDBAEF2E40F08F
:1040E00055812E4E376805F0D1F9A7F8660036687D
:1040F00005F0CCF9A6F86400FFF7ADBA9DF81730CB
:1041000006EBC30393F8E930D8073FD59DF8173085
:1041100006EBC30393F8E8202A4B33F91230002B47
:1041200034DD9DF8173096F87E9006EBC303D3F884
:10413000EC304FEAC90158689DF8173006EB010EC4
:1041400006EBC306D6F8EC30CEF880001A890026BC
:10415000AEF8862092B20123B340134003D101365A
:10416000102EF8D100E033463944A1F884304823BA
:104170008DF83A300EA9012309F10109ADF8382074
:104180008DF83B3003F027FE87F87E909DF81730BE
:104190000133DBB28DF81730FFF705BA141E00208B
:1041A000CDCCCC3E0AD7233C8FC2F53C0000A040CA
:1041B0000000404000006040B42A0020B02C0020E5
:1041C000802D0020541F00203333B33F97F87E200A
:1041D000B04E9042BFF452AA0290002005F0B2F90E
:1041E00005F078F9D9F8000007F072F92A6810682C
:1041F00006F0E8FEA84A106805F01CF907F01AF965
:1042000072B6A64F4FF480624FF4007A7A614FF095
:10421000010BC7F814A03846ADF838200EA9482283
:104220008DF83A208DF83BB003F0D5FD10223846CA
:104230000EA98DF83A208DF83BB0ADF838A003F008
:10424000CAFD029B4FEAC30906EB0901B1F88430AD
:10425000D1F880C0D8080CEB8002C6F858215CF871
:10426000202003F00703C6F85C219B00C6F86021FC
:104270000F229A40D243D6F860E10BFA03FB02EA20
:104280000E0EC6F860E1D6F85CE102EA0E02C6F84E
:104290005C21D6F860214FF0080E0EFA03FE4EEABC
:1042A0000202C6F86021D6F85C214BEA0202C6F889
:1042B0005C21D6F85C31B1F886204CF82030D1F87A
:1042C00080301A61C7F810A0BB685905FCD4714B47
:1042D0000826D3F85C11D3F858219A46116003EBF5
:1042E0000902D2F88000B2F886104FF400724161E2
:1042F0007A616B4A16611026566140F60556BB6816
:104300005A0503D4002EFAD0013EF8E74823016194
:10431000ADF838108DF83A300EA901238DF83B30F6
:1043200003F059FD5E4B10221A61B6B1BB685B48C1
:104330005B05CCD50AEB0902D2F88030B2F88620B2
:104340009B684FF400711A42554B4FF0080215BF9D
:10435000016141611A615A61E8E7504A4FF4007106
:10436000116108221A6162B60A2009F046FF0FF0B7
:1043700060FC2B68F32283F84920FFF76CB9FA2E12
:1043800004D1484B1B785E077FF5D6AC08F002F9E4
:10439000FEF7F2B80C2803D143480EF06DF949E05E
:1043A0000A2801D00D2864D1404D41480EF064F92F
:1043B0002846232115F045FD08B1401B20602368E5
:1043C0007BB35A1EA95C202901D11346F8E7374A6E
:1043D00000212360D154374B374DD3F80080D5F8F6
:1043E0000090324F484615F03AFD0646494632469F
:1043F000384615F03DFD314A20B9BB5D43445B783A
:10440000580703D010359542E9D306E0954204D20F
:10441000701CEB683844984702E029480EF02CF9EC
:104420000023224800213022236015F0C6FC019BA6
:104430001B7853B307F058F8FDF7DEBF0C28ABD05C
:104440007F2804D1FDF7D8BF2F2B3DF6D5AFA0F1C3
:104450002002D2B25E2A3DF6CFAF13B920283DF438
:10446000CBAF5A1C2260114AD0540DF091FFFDF7DA
:10447000C3BF7F28E8D10D4A013B002111482360CA
:10448000D1540EF0F9F8FDF7B7BF00202FB0BDE80A
:10449000F08F00BFA40A002054190020000801403A
:1044A000000C01406B370020ACC70108E01D002064
:1044B00041D3010880010020A4BE010884C0010886
:1044C000B7C70108D3C701082DE9F04FA84BA94A87
:1044D00019788BB014680592049341B1A64A136809
:1044E000E31A002BA1BFA24900230B70137142F203
:1044F0000103A24A156803922B400BB99E4A5371DF
:104500002F0740F19D819E4B1B681B7A072B00F201
:104510008581DFE813F0080008003200C8000001C0
:10452000240124016101974B1A78002A00F076815A
:1045300000221A70944B02221E78944B1B681F783D
:10454000934B93F800E0934802F1010C835C3341F4
:1045500003F00F03BB420CD20B2B9FBF815C10F802
:104560000C0001EA0E0100EB01219CBF8A4840F8D3
:1045700023100232102AE6D1F7E0884B1A78002A7D
:1045800000F04C8100221A70854B864A9F78DE78B5
:10459000597807F0070041EA002106F03F0040018A
:1045A00040EAD700116019795060587989009F79E5
:1045B00041EA961100F0010641EA86219160DE7918
:1045C00007F00F01C90141EA500106F07F00D160F8
:1045D0000001197A40EA17105F7A4900106141EA38
:1045E000D61107F003009E7A41EA40215161D97A41
:1045F00006F01F008001C90040EA970041EA561109
:104600005F7B9E7BD161197B906107F0070041EAD7
:10461000002106F03F00400140EAD7001162D97B3B
:104620005062187C89005F7C41EA961100F0010617
:1046300041EA862191629E7C07F00F01C90141EA9F
:10464000500106F07F00000140EA1710D162D97CCA
:1046500010631F7D490041EAD61107F0030041EACB
:1046600040215163997D5E7DDB7DC90041EA561191
:1046700006F01F00DE07D16348BF40F214714FEA15
:10468000801040EA970058BFAD21906398071164ED
:104690004CBF40F21471AD2113F0080F516414BFE8
:1046A00003230123BBE0404A1378002B00F0B680BF
:1046B000002313703D4A3E4E10783E4906EB4007FA
:1046C000B1F800E097F803C0397941EA0C218E4532
:1046D00040F0A4807178012904D0812940F09F80A6
:1046E000032300E00B46102884BF102111703249CB
:1046F00016780022D0B2B04201F1020180F08F8022
:1047000011F8027C11F8010C40EA07202B4F27F822
:1047100012000132EEE72A4B1A78002A7ED0294F88
:1047200000221A703B78A82B78D1FE7C002E75D120
:1047300007EB4603D8781B7903EB002011F0C0FA91
:10474000214911F0C9FB214911F008FA11F0FCFCD4
:104750001F4B43F826000136082EE9D105E01D4B1A
:104760001A78002A5AD000221A70012357E000BF9D
:104770004C16002094290020080C0020941D0020D5
:10478000E8180020F9170020CD340020C83400209C
:10479000CE340020E9170020BC1600206A18002043
:1047A000511800202C170020211800202418002068
:1047B0002518002022180020281800200C1700209F
:1047C0001A18002005180020CDCCCC400080BB4337
:1047D000EC160020BA160020A84A1378F3B1002383
:1047E00013704FF6FF72A649585C0133121A1E2B44
:1047F00092B2F8D1C87F8B7F03EB00239BB29A4221
:104800000CD10023C8188278C07802EB00229D48A2
:1048100040F813200233142BF4D1A6E70023D90764
:104820000ED5994A012151719849C3F340030B7089
:10483000049983F001030B7004F5C333A0331360B4
:104840006A0412D5904B9A790AB1002199715A7174
:104850005AB1049A012313708C4B00221A7004F58C
:104860004333894A03F5A0731360EB070ED5864BDB
:10487000D9791A7A8A4209D001221A71834A002012
:10488000507004F5C332A0321A601972AF0409D512
:1048900000237F4A32F81320002A41F0FA800133C6
:1048A0000C2BF6D1784F7B7923B9FB68E31A002BE8
:1048B000C1F27F8104F59C432033FB60754B1D786A
:1048C000C5B1754A1268944240F21B81013D1D70CA
:1048D00017E1D9F80030072C98BF195D6F4B88BFDE
:1048E00021461B686E489847032C0CD907EB4404FB
:1048F000208201356A4BECB21A78DFF8C491A242EB
:104900001A46E6D81EE0D9F8002004F10E0302EBA7
:104910008303D9881A890028E8D0401A4FF47A73A3
:104920004343501A93FBF0F040F2EE2300F57A7007
:104930009842B8BF184640F6CA039842A8BF184626
:1049400080B2D3E742F20106039B1B681E40B6FA11
:1049500086F6544B7609D3F800A02EB93B7904991A
:104960000B704A4B59781970049B1D781DB1474B49
:104970001D7885F00105D9F800B097F835904FF013
:10498000030CB9FBFCFC0F230CEB4C0C87F8343008
:10499000CCEB090C92F80080434F5FFA8CFC0024AA
:1049A00044454BDA1DB1414B33F8140000E0284672
:1049B000BBF816303E4A834203D8BBF81830834216
:1049C0001CD252F82420304B924503D2394B33F895
:1049D000140017E0E0B2CDF818C0079304F014FCFF
:1049E000032CDDF818C00DDC079B012193F834205F
:1049F000A14022EA010283F8342003E00AF596730D
:104A000042F82430A6B9204B27F81C0093F8C820A0
:104A10002AB9B9F1020F0BD9012283F8C8203B88CB
:104A200078881844BB88184480B20323B0FBF3F0A5
:104A3000204B063723F814000134B1E7124D194911
:104A400095F834201C4BA2F10F067242724185F892
:104A5000C920002A36D0194A1268540103D5039A96
:104A60001268D0052ED40A689A60DB68D21AC82A68
:104A700042D9114B012283F821203DE0D5170020B7
:104A8000B517002058160020080C00200000002058
:104A900098170020F0180020EC180020400000209B
:104AA000CC340020F41800203E0C0020180C00200C
:104AB000880C0020F42B0020F81800202819002072
:104AC000E8180020A54A0120507010700A68996803
:104AD000DA605B68521A9A4282BFA14B002283F8C7
:104AE00021200024444507DAE0B204F08DFB9D4B01
:104AF00023F814000134F5E795F83530013385F8D3
:104B00003530039B1B68DA0405D5974B1B68DB0720
:104B100001D40FF0D3FD059B1C68944B1A68D07A22
:104B2000B8B19049537B013831F810001BB1C0F582
:104B30003B60083080B200B2A0F57A70B0F57A7FA1
:104B4000A8BF4FF47A7020EAE07011F0BDF88849F0
:104B500037E0039B1B681F043CD5864DD5F8CC304D
:104B6000E31A002B36DB04F59C432033C5F8CC3028
:104B7000814B127B5979814B33F8113095F8D01065
:104B80009BB293FBF2F3013101F00F0285F8D020C4
:104B90002A4482F8D1300346794A825C01301344BA
:104BA00010289BB2F8D11BB293FBF0F000B20028A2
:104BB00003DB6428A8BF642000E0002011F084F823
:104BC000704911F089F9704911F0D2F811F0BCFA6E
:104BD0006E4B1880039B6E4D1B6813F4807F00F0B2
:104BE00019816C4BDFF878A19C4205D99AF8023004
:104BF00013B901238AF802309AF80230002B00F032
:104C00000981574B93F82140574B661E98467442D2
:104C100074411F682E78002CC6F38006C7F38067A6
:104C200014BF4FF000094FF003099AF82030052B0C
:104C300000F2EA80DFE803F0034A5E82B4D1002E7E
:104C400038D04C4BD3F8E400B3F8E81006F0C3FBBF
:104C5000012809D1504A514B12681B68D28864213F
:104C600001FB0233CAF810305FB14B4B1B681B7954
:104C70003BB110F0AFF903238AF820304FF47A7378
:104C800035E0002C40F0C080444BDFF8D4B01A6807
:104C9000DAF810309A4209D910F09CF903238BF806
:104CA000203040F6B833CBF81C30BEE701238BF838
:104CB0002030BAE74FF4806017B10DF01DFA01E023
:104CC0000DF00AFA0023CAF810309DE0002C79D1CB
:104CD000314B1B681B7A012B02D010F07BF9A4E743
:104CE00010F078F903238AF8203040F6B833CAF878
:104CF0001C309AE724B105238AF82030012100E016
:104D000021466EB11B4B4FF00209D3F8E4301A8AEA
:104D1000144B1A805A809A801F4A12685288DA808F
:104D20001E4B1A68DAF814309A4201D8002E68D166
:104D300047F23053CAF81C30032344E02B7843F089
:104D400002032B700FF0BAFC144BDAF81C201B681E
:104D50001344CAF81830042335E000BF00000020D7
:104D6000F8180020F42B002028190020E818002053
:104D700000007A44080C0020A4180020B418002079
:104D8000D90C00200000C84200C07F44E80E00207B
:104D90006B370020404B4C000C370020F4180020EB
:104DA0009C4B9CB11A68DAF818309A422CD99A4B6D
:104DB0009B781BB9D8F80030D80725D42B7823F07E
:104DC00002032B7005238AF820302EE71B68DAF8DF
:104DD0001C201344CAF8183016E0904A8D4B126814
:104DE0001B68D288642101FB02334FF48060CAF84B
:104DF000103000238AF820308AF803300DF06CF967
:104E000013E700297FF411AFB9F1000F02D0484633
:104E100006F024FB824E834FB6F8521106F5C87097
:104E200006F0D9FAB6F8A031B7F9022003F10B0168
:104E3000914281460BDB0B3B934208DCB7F9002023
:104E4000914204DB9342CCBF0023012300E0002306
:104E5000B9F1000F0FD1744A1268110111D5734ACC
:104E6000D27872B92A7852070BD523B1704A1378D9
:104E700043F0200303E06E4A137823F020031370FD
:104E80000BE010F099F86B496B4B00200022086092
:104E90001A6048605A6088609A602B785C0736D543
:104EA000039B1B68D80632D5614B1B78D9062ED4DC
:104EB000594B624C9B788BB196F8EC31B9F1000FED
:104EC00014D173B1534B1A68D4F8EC309B1A002BF1
:104ED00007DA0FF0F3FB84F8F09018E0B9F1000F57
:104EE0000DD1102006F0BAFA01230EE03BB1494A79
:104EF0004FF47A71126801FB0323C4F8EC3094F884
:104F0000F03023B106F096FA002384F8F030002246
:104F1000134696F8EAB196F8EB11B6F8A241B6F846
:104F2000A4E137F912009B08A042C4BF63F07F03DD
:104F3000DBB201327045B8BF43F04003042AF0D120
:104F40003E4C94F8F1209A4205D194F8F220F92AC7
:104F500004D8013200E0002284F8F22084F8F13015
:104F60002D4BDFF8C4809A789A46E2B9D8F8003021
:104F7000DA0708D5B9F1000F15D12B78DB0712D568
:104F80000FF0D0F90FE02B7858070CD5049B1B7855
:104F90004BB1264BDB7833B911B10FF08FFB02E038
:104FA000B9F1000FF9D094F8F230244A142BDFF84D
:104FB000909040F0A4809AF802301BF1000B18BFCB
:104FC0004FF0010B002B45D092F8F1305F2B11D13F
:104FD0002B7803F0040303F0FF0113B10FF06EFB15
:104FE00008E00B200691059206F038FA059A06991A
:104FF00082F8F210BBF1000F2CD094F8F1307D2B29
:1050000028D12B7803F0040303F0FF02D3B10FF093
:1050100055FB1FE0F4180020000000200C37002092
:10502000B02C0020F42B002028190020F8180020B4
:10503000541E0020481E0020C4360020080C00200A
:10504000141E00200B20059206F008FAAD4B059ABD
:1050500083F8F2202B7803F0040303F0FF01002B08
:105060004DD194F8F130A74A572B11D1A64B4FF4EC
:105070007A721A80039B1B681A0601D50AF00AFE91
:10508000A24B1B685B073AD5A14B0A221A8036E077
:1050900003980068400717D55A2B15D192F8F330C2
:1050A0002BB1012382F8F31082F8F43027E092F854
:1050B000F53083F0010382F8F5300BB10C2000E0ED
:1050C0000D2006F0CBF91AE05D2B00F0EE845B2B8F
:1050D00000F0ED845E2B02D1032000F0E9BC562BDA
:1050E00001D10DF0F1F89AF80230002B00F0F584B0
:1050F00094F8F1306F2B40F0EA840FF013F9039B22
:105100001B685B0737D594F8F5307E4A93B12B784E
:1051100058070FD5B7F90610B6F8A231994209DD44
:10512000D8F8003013F0010302BF3221A2F8F810C2
:1051300082F8F530D8F80030D9030DD594F8FA206C
:10514000704B2AB993F8F32012B93222A3F8F82051
:10515000012384F8FA300EE094F8F330694A53B131
:105160002B7803F0040303F0FF0123B9012382F835
:10517000F31082F8F430D9F800A00023C8F800300A
:105180000AF187090AF1D70B99F8002099F8013044
:1051900019F8010C9A420DD2494606F0E7F848B1D9
:1051A00019F8022C012303FA02F2D8F80030134355
:1051B000C8F8003009F10409D945E5D1554B1B78F1
:1051C00053B1554EDFF844913368DFF8608113F036
:1051D000020F40F0BF82B6E20AF1D5080AF21D1AAA
:1051E00098F8012098F8023098F800009A422DD2E1
:1051F00008F1010106F0BAF840B398F805100C2246
:1052000002FB0142D2F8043143451FD0C2F80481A9
:1052100098F8040002F1FC0382F8FC0000205860BA
:1052200098F803205A7098F803200C2A4FF00102D6
:1052300004BF9A700322DA7094F82C2118BF98707A
:1052400001238B4022EA030384F82C3108F106087D
:10525000D045C5D1314B324CD3F80080314B4FF0A3
:10526000000A1B680593049B1B78049394F8009034
:10527000B9F1000F00F05E82D4F80330059AD31A1A
:10528000002B0DDB1F4902F5FA73C4F8033091F8C7
:105290002C21012303FA0AF322EA030381F82C31BB
:1052A000049B002B00F0468214F8012C6378043232
:1052B000D2B2002B40F0FD811B4B37F91220B3F81E
:1052C000A03103F1C8018A4202DD94F802B02FE058
:1052D000C83B9A4204DA94F802C0CCF1000B27E0F4
:1052E000084A012392F82C2103FA0AF322EA030365
:1052F000044A82F82C31059B03F5FA73C4F8033095
:1053000018E200BF080C002060370020201A00209F
:10531000663700206F37002028190020B02A0020AF
:10532000050D0020F4180020B02C002024190020C6
:10533000A74B93F82C3143FA0AF3DA0700F1FA810C
:10534000BBF1000FCCBF0220012006F0A9F809F143
:10535000FF33252B00F2E581DFE813F026002E0055
:105360003D004F00670070008A00A600C200CC001C
:10537000D700E3014F005E0070008A00A6008000A5
:105380009B00B700070111011B018A0194019E01D6
:10539000800125012F0144014E01580162016C0179
:1053A0007601E200ED00F80000230093FA23019358
:1053B00040460021012207E000230093642301936B
:1053C00008F10100002102225B4607F09DF84046EB
:1053D00005F0B2FFA5E1002300936423019308F1D7
:1053E00003005B460021032207F08EF8784B40460D
:1053F000D3F8301105F058FF93E1002300936423A4
:10540000019308F1050000210D225B4607F07CF8AE
:10541000B9F10D0F00F085810023009364230193FF
:1054200008F1040000210E223FE100230093FF2336
:10543000019308F106000021052236E1654B0F2299
:105440001968654B881C0093C823019324315B467F
:1054500007F05AF8B9F10F0F00F063815D4B12228B
:1054600019685D4B481C0093C823019320311CE14F
:10547000584B10221968594B01F10C000093C823B6
:10548000019330315B4607F03FF8B9F1100F00F09F
:105490004881504B13221968504B01F10B000093C7
:1054A000C82301932C3100E14A4B112219684C4B5F
:1054B00001F116000093C82301933C315B4607F0CD
:1054C00023F8B9F1110F00F02C81424B1422196816
:1054D000434B01F115000093C82301933831E4E0F8
:1054E0003C4B092219683C4BC81C0093C82301930C
:1054F0002831DAE0374B0A221968384B01F10D00E8
:105500000093C82301933431CFE0324B0B2219684A
:10551000334B01F117000093C82301934031C4E0DD
:105520002C4B242219682C4B01F108000093C8234E
:1055300001934431B9E0274B25221968264B01F12C
:1055400012000093C82301934831AEE0214B0022A2
:105550001868002103780092022B4FF0C8030193D2
:105560000CBF4C301C3026229FE01A4B00211868DB
:1055700000230093C82301930430152295E0154BB6
:105580000021186800230093C82301930E301622CF
:105590008BE0104B0021186800230093C82301936F
:1055A0001830172281E00B4B00211868002300936C
:1055B000C823019305301C2277E0064B00211868B0
:1055C00000230093C82301930F301D226DE000BF1C
:1055D000080C0020901D0020000020410000C8425F
:1055E00000007A44A54B0021186800230093C823CB
:1055F000019306301E2258E0A04B002118680023BA
:105600000093C823019310301F224EE09B4B0021D2
:10561000186800230093C82301931A30202244E025
:10562000964B0021186800230093C823019307308C
:1056300021223AE0914B0021186800230093C823EF
:1056400001931130222230E08C4B00211868002396
:105650000093C82301931B30232226E0874B0021AF
:10566000186800230093C823019309301B221CE013
:10567000824B0021186800230093C82301930A304D
:10568000182212E07D4B0021186800230093C823E4
:1056900001931430192208E0784B00211868002388
:1056A0000093C82301931E301A225B4606F02CFF9C
:1056B00037E0012B35D137F91230A078B3F5617F8F
:1056C00005DB40F633029342A8BF134601E04FF4D6
:1056D0006173B9F10C0F24D14FF4966292FBF0F094
:1056E000A3F5617393FBF0F3654A5FFA83FB1378CC
:1056F0005B4516D0BBF1040F34BF5B460223137029
:1057000009FB03635F4A03F2EE73136009F0B5FB14
:105710004846594605F07AFE0BF10100C0B205F08B
:10572000BFFE5949012391F82C2103FA0AF31343D0
:1057300081F82C310AF1010ABAF1040F04F10C04CA
:105740007FF494AD3DE5039B1B68DB0511D54F4B02
:10575000DB7873B1D9F800309C070AD5B8F800306F
:1057600013F001040AD10FF027FC01200CF0C4FC57
:1057700004E001200CF0B0FC012300E000233268BB
:1057800050070DD563B101200CF0A6FCB8F800302D
:10579000990708D40FF010FC02200CF0ADFC02E0D9
:1057A00002200CF099FCB8F80030394A13F0030FCE
:1057B0004FF0100114BF51611161D9F8002012F0AF
:1057C0000A0F2FD03268D2060ED55B070FD4042003
:1057D0000CF092FC2F4B0A22B3F9043093FBF2F346
:1057E000294AA2F8343102E004200CF075FC336839
:1057F0009C0607D5B8F80030580606D440200CF0B7
:105800007BFC02E040200CF067FC3368590641BF86
:10581000204B0A22B3F9043093FBF2F344BF1A4A37
:10582000A2F83631D9F800309A0608D433681B053F
:1058300040F1B2804FF480700CF05EFCB0E0164B8B
:105840001B789C076AD5154B1B78042B66D93368E7
:10585000DFF834A013F4007B24D0B8F80030D80669
:1058600050D410200CF048FC20200CF035FC0C48E3
:10587000011D0AF079F9022340E000BF901D0020CD
:10588000AC2A0020B02A0020080C0020F8180020C4
:10589000000C0140301E0020541E0020300E00205D
:1058A000EC0E0020B8F8004004F01004A4B22CB1B3
:1058B00010200CF011FC01248AF838B13368590526
:1058C00014D5DAF83C31BD495A89B1F90030DFF816
:1058D000F0B2002BB8BF5B42934207DAB1F9023055
:1058E000002BB8BF5B429342C0F24A81B8F8003047
:1058F0009A0608D520200CF0EFFB00238AF83831F7
:10590000012400E000249AF84831C3B90E2005F0C4
:10591000A5FDAB4B012283F8482110E0B8F8003018
:1059200003F03003002B81D010200CF0D5FB202099
:105930000CF0D2FBA24B002283F8382102E0002CAD
:105940003FF474AF002214469E4B002023F814004D
:105950009D4B191D03F10A0E21F81400002142F895
:105960000E109644CEF80400CEF8081023F8140068
:1059700003F1320E5A3342F80E10D15096441344BC
:10598000CEF80400CEF80810586099601432002C4C
:105990007FF44CAF0124D7E74FF480700CF09CFBF0
:1059A0008A4B5A791C46082A01D00E2A02D140207F
:1059B0000CF092FB864B1B685B0518D594F83032CF
:1059C0001BB92B7813F0040F02E0336813F4002F97
:1059D00009D0804B00221A703C2004F0C9FF30B17E
:1059E00003F028FDF8E70EF0C5FB0EF022F9744B2A
:1059F000012283F8CC2193F8CD211D46F2B1D9F8CC
:105A000000305C071AD53368180703D408200CF05F
:105A100063FB13E0B8F8004004F00804A4B26CB9CA
:105A200008200CF069FB6C4B1A686C4B1A60FB8801
:105A3000A5F8CE316A4B1C606A4B1C6095F8CD31DD
:105A4000002B00F0B680D9F80030D90640F1B180C3
:105A500033689A0204D44FF400700CF03DFBA8E0C8
:105A6000B8F8004004F40074A4B2002C40F0A18007
:105A70004FF400700CF040FB574B1A68574B1A60FC
:105A80004F4BFA88A3F8CE21554B1C60554B1C6038
:105A90008FE04B4A01231371534B0021597004F5D9
:105AA000C333A0331360FEF7FDBE012000E00220E7
:105AB0005FFA80FA0AF1FF3386F8EC370CF05EFBF0
:105AC00009F020FA504605F0EBFCFFF718BBBBF1DC
:105AD000000F02D07E2B3FF410AB94F8F130972BDF
