:020000040800F2
:1000000000500020D1A401086DA5010851B40008DA
:100010006DA501086DA501086DA50108000000008F
:100020000000000000000000000000006DA50108B5
:100030006DA50108000000006DA501085BA2000885
:100040006DA501086DA501086DA501086DA5010844
:100050006DA501086DA5010827A6000831A60008B6
:100060002FA600082DA600082BA60008ED6A0008A0
:10007000DD6A0008CD6A0008BD6A0008AD6A0008A4
:10008000996A0008856A00086DA501086DA5010838
:100090006DA501086DA501086DA5010829A6000838
:1000A0006DA501085DB200086DA501084DB20008FC
:1000B00041B2000831B2000821B20008AF71000857
:1000C000B5710008A5710008AB7100086DA50108A5
:1000D0006DA50108E1A30008D5A300086DA50108DE
:1000E00025A600086DA501086DA501080000000007
:1000F0000000000000000000000000000000000000
:0C01000000000000000000005FF808F1A3
:100110002DE9F04F2E4B2F4D2F4AC5F8B8342F4BF9
:1001200000241A600123A1B01E2260212C4885F80A
:10013000C134C5F8BC4485F8C23414F0FFFE40B1A8
:10014000284B80221C60284B214628481C6018F050
:1001500051FA28220021264818F04CFA254A264850
:100160001388254C591C118003222821A5F8C83476
:1001700014F0E4FE00B34FF47A73204AC5F8CC348F
:100180000021A4F10803082014F05FFCC5F8EC047A
:1001900090B11B4B03601B4A1B4B116899424FF0F7
:1001A000000337D1136062B6184B18680CF072FF69
:1001B000174B1B689847FEE7D5F8EC0420B10CF00C
:1001C0008EFC0023C5F8EC3420460CF0BBFCE2E7C3
:1001D000FB920008FC02002065A00008EC2B002028
:1001E000442B0020F02B0020602B0020682B0020E7
:1001F000C407002074020020CC070020CDC60008F0
:1002000068C90108F04F0020EFBEADDE00F0FF1F0F
:1002100004F0FF1F0A930B930C934FF4E013BB4CB5
:100220000D93236843F480332360A36943F01003E4
:10023000A361236803F400330B930A9B01330A93F1
:100240000B9B1BB90A9BB3F5A06FF2D1236813F483
:10025000003300F09A8202230C93AD4BAD4F1A6825
:1002600042F010021A601A6822F003021A601A683B
:1002700042F002021A6063686360636863606368E7
:1002800043F480636360A44B1A68043B22F070421D
:100290005A60A24A3A60626822F47C1262605A682C
:1002A00042F000425A60DA6822F40042DA609B6849
:1002B0001E0449BF9A4B4FF4E0133B604FF4801388
:1002C0000D930C9B012B00F07882022B05D10D9B26
:1002D0006268134343F480336360236843F08073A0
:1002E000236023689801FCD5636823F003036360EF
:1002F000636843F002036360636803F00C03082B38
:10030000FAD16368DFF86C8203F00C03042B00F071
:100310005882082B00F05782804BC8F80030636881
:10032000DFF85492C3F3031319F80320D8F8003010
:10033000DFF848B2D340C8F800307A4B4FF6FF726E
:10034000CBF80C30A3690DF1800A43F00103A361DF
:10035000636A636A744E43F080736362A3693046D4
:1003600043F01C03A361002315932AF82C2D51465A
:100370000CF0FFFB51466D480CF0FBFB51466C48FE
:100380000CF0F7FB02214FF400728DF8461010219B
:10039000ADF844208DF847103046326111A90CF0B9
:1003A000E8FB644950464A6842F000724A600CF02B
:1003B0005AFD159B604A3046B3FBF2F34FF47A7254
:1003C000C5F8F034D8F800304FF0010CB3FBF2F36D
:1003D0005A4A013B5360F0238BF82330002393608B
:1003E0000723DFF89CE11360554A09F10E01002351
:1003F00031F8026F46FA03F818F0010F18BF0CFA33
:1004000003F803F101031EBF1060A2F80480083254
:10041000102BEFD100F580607045E8D13B683F4A72
:10042000934240F0E281012385F8F4340AF0F0FAB7
:1004300018B90AF0BDFD0BF097F80BF041F9052251
:100440004049414818F02EFB18B10AF0B1FD0BF0FD
:100450008BF895F8F5343D4F43F0010385F8F534FA
:100460003B4B07F1050A9A783A4B1A703A4B3B4AD4
:100470001B689046136095F8FA3485F8F63400232B
:10048000D85D4FEA830B5E1C002800F0B481039313
:100490000AF02AF8039B4AF8230010B10523C6711D
:1004A000837112215AF80B000AF044F8032E3346E8
:1004B000E6D1002108460AF09FF8002101200AF049
:1004C0009BF8002102200AF097F8012102200AF08F
:1004D00093F8A369002143F00103A361402220485F
:1004E00018F088F84FF0FF331E4AC5F848356420ED
:1004F000C2F803300AF0A2FFA02200211A4818F027
:1005000079F80024194D1A4E3CE000BF001002405B
:1005100000200240340000200410014000127A0044
:10052000001BB7000005FA0500080140000C01405F
:10053000001001400000014040420F0010E000E0C8
:10054000081A00206EC90108011A0020F3070020D4
:10055000FC190020E8140020441C0020342C00204A
:1005600004080020440800207C38002054C70108FB
:10057000C0A901081C020020A8A9010800ED00E0A4
:10058000001401400023605956F83310DA00884205
:1005900040F0348109EB0203187F103414F096F90F
:1005A000E02CEFD1AB4AAC4C0021A4469146AB4EB7
:1005B00000250B5D01F10F00204406EB030A10F843
:1005C00001EFBEF1000F05D09AF80C70774508BF17
:1005D00082F8587090F803E0BEF1000F04D0F75C89
:1005E000774508BF82F859700135032DE7D1B2F87D
:1005F000580040B10CEB010009EB83035065C3F8D0
:10060000502502F517721C313829D1D10424914F9D
:10061000202200219248D8F8005087F85C4517F056
:10062000E9FF00208D4B024693F80BE093F80AC0D7
:100630004FF0FF092346039789498A4F05F040068A
:10064000D4571E2C8C7140F0DF80002E00F0E48027
:10065000BCF1000F00F0E0800132042A01F1080132
:10066000EED110B1039A82F85C357F4B15F4805FB0
:1006700093F800A07D4BDFF8449283F800A07C4FF4
:100680007C4C7D4E00F0CE80B88819F0D3FA7B4BBD
:10069000C9F800002360708A19F0CCFA784B794CC5
:1006A0001860788819F0C6FA774B002518603888EA
:1006B00019F0C0FA754B1860608BC0F5FA6019F03C
:1006C000BDFA734B248B1860FB88724AE01A1C44F5
:1006D000714BA4B280B210801C80A0F57A7019F022
:1006E000ADFA6E4B1860C4F5FA6019F0A7FA6C4BBE
:1006F0006C4C1860AAF11703022B257000F2E280FF
:100700004FF0000BDFF8B8A105EB0A03594655F886
:100710000A00049319F07AFC049B002800F08C80F6
:10072000D8F8003013F4805A40F0ED800023D9F857
:1007300000105D4A42F823100133082BFAD1B6F8B5
:100740001480BAF1000F01D0B7F80480B378042BFD
:1007500005D14FF480500AF053F94FF00008237888
:10076000C02200215148069317F044FF3779B3782F
:10077000003718BF0127042B00F2EA80DFE813F0EE
:100780002406E8002606F4001D06226842F0010255
:1007900022600A93236803F002030B930A9B013340
:1007A0000A930B9B1BB90A9BB3F5A06FF2D1236888
:1007B0009F0701D501234FE5FEE7636843F460130B
:1007C0008AE53B68A9E563686268C3F38343D103A4
:1007D00003F1020302D4364A53439EE5626812F4E1
:1007E000003F3A6818BF5208F6E7324A93427FF456
:1007F0001DAE022318E64AF8230057E60133042B06
:100800007FF4C2AE0020C8E61F2C7FF425AF1EB1D6
:10081000BEF1000F7FF420AF013B81F80690DBB200
:10082000012019E7B08A19F005FAC9F80000308AEA
:1008300019F000FA20602EE71F4A05EB020E0FCBDD
:100840008EE80F00237810350133802D23707FF45C
:100850005BAF65E7FC020020E0A90108E822002068
:10086000A811002018AA0108F0140020D433002099
:10087000E03900205C1300204413002000007A447B
:10088000240E0020082C0020D00E0020B00E0020E6
:10089000D80E0020AA0E0020CC0E0020C80E00208A
:1008A000D40E0020C8120020342300205C23002036
:1008B00000093D00001BB700DC0E0020A42400202E
:1008C000401B0020244B13F83A2003EBCA0A082AE5
:1008D000227088BF0822DAF804C088BF2270BCF1F9
:1008E000000F3FF41DAF0025DFF878A023789D426C
:1008F000BFF616AF2B0103EB0A0E63440FCB013595
:100900008EE80F00F2E72378012B7FF60FAF4FF050
:100910007C58124D05EB031303F1100B1035AB455A
:100920003FF404AF414655F80C0C19F0DBF9414691
:1009300045F80C0C55F8100C19F0D4F9414645F85F
:10094000100C55F8080C19F0CDF945F8080CE5E73E
:10095000034CA1460BE000BF68B10108E00E002087
:100960006F120339DC0E0020B94CDFF83893B94A16
:10097000B94B21461A60B94AB94B4846002F18BFF7
:100980001346B84A0025136019F0A4F801464FF049
:100990007A5019F05BFAB4490590204619F0A2F993
:1009A000B24CDFF804B30790069BAB4240F36E8570
:1009B00005EB0B035E79002130460AF017FC04902A
:1009C000002840F00685AA4AA34B1A60A34AA54B0B
:1009D0001A60A84CA84A94F8F534079243F004032F
:1009E00084F8F534136813F0010600F072850025D1
:1009F000FF2294F85D75A14B2946384683F8405094
:100A00001D605D609D60DD6383F8412083F84220B6
:100A100083F8435083F8445083F845500AF0E6FBCE
:100A2000064690B3036891496A18507C18B1526821
:100A3000934200F043851835C02DF5D10025C4F848
:100A40006C6584F86055384609F04EFD10B10223FC
:100A5000C571837100252A2109F06CFD884A0021A7
:100A600030460AF017FC874B874AC4F87035874B2D
:100A7000111F3046C4F87435C4F878550AF05EFC8E
:100A80002A467179306811F087FDB4F84E7694F8F3
:100A90004A66A4F850763046002F40F0688509F089
:100AA00023FD94F84B26C4F85406003218BF0122E7
:100AB00084F8582650B1252294F84C368271002BC8
:100AC000C7710CBF1221162109F034FD002009F076
:100AD00067FD4FF000096E4B0020C4F8783605F032
:100AE000B3FF012005F0B0FF6A4B6B4803F120080B
:100AF00053F8056C6EB313F9092CA11891F87C76A4
:100B000091F87EE691F880C600EB0215991E11F867
:100B100001AFBA4591F802A008BF2F71F24591F8D4
:100B200004A008BF85F805E0E24508BF85F806C0C7
:100B30008B42ECD1120181180D7955B14D7945B137
:100B40008D7935B186505A7981F80C90CA719A79AD
:100B50000A7210339845CBD14F4D13F067FF13F055
:100B600065FF287E13F0B2FE01232A7E02F01F01EA
:100B70005209022A03FA01F300F02685032A00F045
:100B80002985287D09F0B0FC064618B1122383712F
:100B90000223C371687D09F0A7FC18B11323837188
:100BA0000223C371A87D09F09FFC18B1142383713F
:100BB0000223C3711B21304609F0BCFC687D09F09B
:100BC00093FC072109F0B6FCA87D09F08DFC1B21E0
:100BD00009F0B0FC2A69314B9A4240F0018503F5D7
:100BE0006043D96841F48051D960D96821F48051BB
:100BF000D9602B7F002B00F0108500231846118848
:100C000001F4415141F4457101430B431380938B2F
:100C100023F400631B041B0C9383072313821388A4
:100C20009BB243F04003138094F8F434032B40D17B
:100C30001F200FF0A8FF0023194A02EBC30191F90E
:100C40000210022901F0E9830133042BF5D12DE0D4
:100C5000ACC5A7374D690108E0250020CD68010823
:100C600079690108E42500206F12833A5C23002093
:100C7000CF680108FC020020342C0020303800200E
:100C800040420F0065670108700800209D68010858
:100C9000E822002025AA01080819002000300140A0
:100CA00082110020ACC5A7364413002002200FF0AB
:100CB0006AFF09F052FD012005F020FF2C2009F009
:100CC00013FC039BC3F884069F238DF84430002354
:100CD00032208DF845308DF846308DF847300AF0D7
:100CE000ADFB039BD3F8840609F046FC15AA042348
:100CF00011A9BC4809F0BEFC039BD3F8840609F097
:100D000040FC9DF856309DF855201B0243EA0243F3
:100D10009DF857201343B44A934223D032200AF05F
:100D20008DFB039BD3F8840609F026FCF521AD4822
:100D300009F0CEFCFF21AB4809F0CAFC039B8DF8FB
:100D40005400D3F8840609F01CFC9DF85430702B35
:100D500008D1039B93F8F434022B03D10323039AA5
:100D600082F8F434A14B5F799E797D1E6A4206F1C8
:100D7000FF3E6A41DEF1000343EB0E0384F88C363C
:100D8000079B84F888261D682B0400F14A8415F01F
:100D9000007505D0964BDD7AA5F108004542454126
:100DA00014220021934884F88A5617F023FC012F5F
:100DB00004BF94F8893684F890361DB194F88B36C8
:100DC00084F89F3694F88E361BB194F88F3684F8E9
:100DD0009A36012E08BF94F88D36864D08BF84F8E8
:100DE000953600232E464FF0070B1F469946DFF835
:100DF000248208F1940A3078E8B109F075FB18B143
:100E000080F806B080F80790002109F093FB0023DA
:100E100031781AF813005A00884240F0058408EB34
:100E2000020393F8953073700723337101237A1C02
:100E3000B770F370D7B20BF1010B5FFA8BFBBBF10C
:100E40000B0F06F10506D6D1002B00F0BB806A4ED1
:100E50004920736843F44043736013F037FD674AD9
:100E6000674900234FF01C0E104688460EFB032CEA
:100E7000DCF804C08C4540F0DE83DBB21C2101FBB2
:100E80000303726919694FF000090A43726106226F
:100E900083F819901A765A480CF05DF815A80CF0F2
:100EA0002FF8584B022F159334BF4B4680231A93CB
:100EB0004FF480731B934FF480631C9320231D9386
:100EC0004FF40053504E15A94D4818971E9316968F
:100ED000CDF85C90CDF86490CDF87C900CF01DF8C6
:100EE000012F94BF00220122D8F80030474943F077
:100EF0000103C8F800304B684FF0070E23F470234D
:100F000023F4807343EA02234B608A68404B13400A
:100F100043F4602343F002038B60CA6A7B1E22F411
:100F20007002DBB242EA0353CB621F270123EA7847
:100F30004AB395F80180581CB8F1090FC0B295F872
:100F400004C040F27E83A8F10A02D1F80C9002EBB3
:100F500042020EFA02FA29EA0A090CFA02F242EAFD
:100F60000902CA60062B00F2798303F1FF3C4A6B49
:100F70000CEB8C0C07FA0CF322EA030308FA0CF2D0
:100F80001A434A6303460535AE42D0D11F4B9A68D7
:100F900042F480729A609A6842F001029A609A68FC
:100FA00042F008029A609A681107FCD49A6842F0ED
:100FB00004029A60154B9A685207FCD49A6842F46E
:100FC000A0029A60D4F8AC06002841F03182D4F82F
:100FD000B036002B41F02C82D4F8B436002B41F00F
:100FE000278219E000380040152020004C2F0020F7
:100FF000082C00208C09002000100240580100201D
:10100000080002404C240140A009002000240140B7
:10101000FDF7F1FFA8A901080EF06CFA30B9012024
:1010200002210AF075FA012015F0B8FF94F8F534A2
:1010300043F0020384F8F53409F02AFFB24B186834
:1010400014F08AFEB14B1A88B14B1A80B14B5A6B1F
:1010500099460AB10EF0CAFEAF4BB0491B78B04CAE
:10106000D80001444A78AF492260079A12681140BB
:1010700009B101222260002140F2DC55AA4A22F87F
:10108000115001310829FAD12268002A40F0038367
:1010900003F0EF02082AA54A40F042831178182B8A
:1010A00041F01001117001D114F02EFE2368A04D03
:1010B000002B40F03E83AB89002B40F0748301216C
:1010C000084609F099FA0021084609F095FA00212E
:1010D000022009F091FA0A24964D012009F0F6F950
:1010E000002009F0F3F919200AF0A8F92B68DF03B2
:1010F00002D4012009F054FA19200AF09FF90020C7
:1011000009F04EFA013CE8D12146204609F074FA74
:101110002146012009F070FA874B884D587A18F063
:101120008DFD874918F0DEFD864918F0D3FC08F0E4
:10113000EFFB854B15AF1860B9F8140018F07EFD71
:101140000146824818F082FEC5F8B80612F097F9F9
:101150000123159310237E4A16931368904613F4C7
:10116000800F04BF7B4A1592DE005EBF159A42F0E5
:1011700010021592784A1168880748BF159A774877
:1011800044BF42F0C60215924A0748BF159A039021
:1011900044BF42F008021592159A42F00061159181
:1011A000017801F0EF06082E01D00E2904D142F09B
:1011B000006242F480521592159ADE0354BF42F445
:1011C000005242F420421592159AD80443BF42F0CF
:1011D00064421592502242F044424CBF169215923E
:1011E0009A0642BF159A42F4807215925E0742BF7A
:1011F000159A42F400321592159A42F40020159087
:10120000580505D5564B1B7913B142F4C0121592FF
:101210004FF00109182902BF159B43F06073159325
:1012200021463846E6B208F0E6FC70B1304615F0CB
:10123000D4FE50B9620957F8223006F01F0609FAA9
:1012400006F623EA060647F822600134272CE7D188
:10125000DFF828A197E803004FF419728AE8030029
:1012600000210AF1080017F0C5F90FF0ABFE0022CB
:10127000DFF80CE13B4BF4461A809A703A4E3B4B38
:101280003B4C3C48DFF8FC90C5F82C39338BDFF839
:10129000F8B0C4F80490A06085F8282919B2049029
:1012A0000AF51D7ADBF800002EF8121000F5967092
:1012B0004AF822000132122AF4D1D8F80000C20400
:1012C00058BFB6F92410ACF806102B49DFF8B0C0AF
:1012D00001F1500E0A78002A58D18A7891F803A0BB
:1012E000524553D2002A00F06E82013A02EB82028C
:1012F00002EB820202F5617291F801A092B20AF14A
:10130000040A2CF81A2041E0E41400208818002078
:101310009A18002078120020D433002068B1010808
:101320005C0F002020001000241300204412002035
:101330006E340020541C002010260020FC020020E7
:1013400035FA8E3CDB0FC93F28260020A889803A59
:10135000342C002001000010EC140020F0140020B8
:10136000D81100205C2F0020082C0020A08601004E
:10137000F82B002001420108601C0020B809002061
:10138000C0160020054201081817002004318E45C0
:10139000A0D1010740F13282307A0A2800F2278278
:1013A000DFE810F0220222029C04DD040605290574
:1013B0002905B5052502F80522020024A1460127CA
:1013C0004FF00008FFF7D3BAC24CF7E7C24CFFF763
:1013D000C0BA304609F088F86B1C6061DBB210B10E
:1013E0000322C37182711A2109F0A4F8002F52D090
:1013F000BBF8000018F022FC18F076FEB74B4FF651
:10140000FF7A1E68B6FBF0F353441B0CB6FBF3F6F1
:101410000FB1B6FBF0FA9BF80230042B3FD15046D7
:1014200018F008FCAB4918F05DFCA060099030464C
:1014300018F000FC494618F055FC099B0890A84993
:10144000184618F04FFC089A0146104618F040FB69
:101450009BF80330E0603246019304991FFA8AF347
:10146000CDF80080204615F0D1FA002318229D49BE
:10147000AB4219D1002383F00103237401231D44DF
:10148000082D637404F118047FF48EAA0122964B90
:101490001A70FFF79EBA059815F01EFFACE73046AC
:1014A00018F0C8FB0799BEE702FB031046686068A6
:1014B000864201D00133DBE70123DCE71B8D874A3D
:1014C0009BB212680133B2FBF3F3884A1370FFF743
:1014D000B5BA9A047FF5D9AA94F84826844B04F546
:1014E000AE651A7004F5C86816F8089000214846E1
:1014F00009F07CFE074698B300224FF0010A5FFA1C
:1015000086FB05F80FBC45F8040C05F80E2C05F811
:101510000D2C05F810AC484608F0E6FFD3445FFAFE
:101520008BFB18B180F806A080F807B04FF0000BD5
:101530002A2108F0FFFF6F4A0021384609F0AAFE71
:101540006D4B2A1D2B606D4B294638466B60C5F8E4
:1015500008B009F0F3FE5A467979386811F01CF8A2
:101560000136082E05F11C05BED1FFF78EBA08F032
:10157000BBFF4021C4F870060546304609F036FE30
:101580000646CDB1C0B12523AB7101231A21EB7101
:10159000284608F0CFFF0021A4F87476019158493D
:1015A000544A91FBF7F192FBF7F389B200919BB299
:1015B0003146544815F02AFA0023D4F85C261380EB
:1015C00084F86D36FFF785BA4F4AD1680B43D36074
:1015D000FFF7D7BA4C4A11690B431361FFF7D1BA31
:1015E0004A4B9A420BD103F5EC33196941F480411F
:1015F0001961196921F480411961FFF7FABA444B66
:101600009A427FF4F6AA03F5EA33196941F40041DE
:101610001961196921F40041EEE701230220FFF767
:10162000EEBA0125FFF7BCBB01330A2B7FF4F1AB07
:101630000023FFF7F8BB0133072B7FF417AC00231F
:101640001CE40A6908EB480A0EFA0AF922EA0909B9
:101650000CFA0AF242EA09020A6183E40C2B0DD863
:10166000DA1FD1F830C002EB820207FA02F32CEA4B
:10167000030308FA02F21A430A6383E40D3BCA6AC1
:1016800003EB830307FA03FC22EA0C0208FA03F3D4
:101690001343CB6276E41F4A1F4912F833E0024439
:1016A000556881F800E0002D3FF4F2AC00221B4E9B
:1016B0007245BFF6EDACC2EBC2002918D1F800C0EC
:1016C000871940F806C088880132B8808979B971D5
:1016D000EEE700BF6F12833A282930381C02002041
:1016E00000007A445C230020600F00208C02002060
:1016F0000C23002040420F00F16801083D670108FB
:1017000020A10700580900200010024000380040C6
:10171000003C004084B001086C340020FC33002001
:101720000E2B3FF4BBAC1178192B21F01001117076
:10173000B9E400244FF0040B274EDFF8A0A005F118
:10174000030818F8017F002F3FF4B5AC384608F0C5
:10175000CBFE013403467061E4B210B180F806B0EC
:10176000C47100213846039309F040FD0746039BEE
:101770001A21184608F0DEFE002F3FF49CAC002230
:101780006B8801929AFBF3F32A889BB20092304651
:10179000124A394615F03AF90123082C737406F100
:1017A0001806CED187E400240D4F0E4EA88918F0FC
:1017B00041FA3A6801463019243408F0C1F9B4F509
:1017C000907FF3D17BE40AF1010A0AEB8A0A0AEB63
:1017D0008A0A0AF561728FE51C39002040420F0029
:1017E000CC1400208034002013F009FA30B908200E
:1017F00009F006F9049BC4F80490A360D8F800200F
:1018000053040BD51223237044F620636380C44B2A
:101810006360C44BA360C44BC5F82C3942F201038A
:101820001A4209D044F620639004638040F1D983C2
:1018300008232370BD4B636096F828302178043369
:101840008B42A8BF0B464FF0000AB94C85F8783997
:10185000D30384F800A040F1528113F0A9FC0123C6
:101860002370B44B40F22A3293F8F1B05146B2489B
:1018700016F0C0FEBBF1000F00F03481514658460F
:1018800009F0B4FCAD4B026804461A6082689946C0
:10189000002A00F02781584608F026FEC5F87C098A
:1018A00018B1292380F807A083711B2108F042FE9C
:1018B0000023A34AD9F8001002F1180E5EF8330095
:1018C0004FEAC30C814240F093836244107F12F0D0
:1018D000FDFFD9F800009B4A03884FF0000A23F06F
:1018E00001031B041B0C0380974BDFF884E21B6889
:1018F000ADF83EA0934281BF03F1B772934902F560
:101900005852B2FBF1F292BF002202F1FF3292B2C2
:10191000511CB3FBF1F38E49ADF83AA0B3FBF1F3E0
:1019200003219BB2B3FBF1F14FEA410CAEF800C0CA
:10193000DFF840E28DF840A0AEF8001020A921F8B1
:10194000482DADF83C3013F02AF86023ADF846A0DE
:10195000ADF848A0ADF84AA0ADF84CA0ADF850A045
:10196000ADF84EA0ADF852A0ADF84430E3794FF099
:10197000000B580757BF0122042303F00203ADF800
:1019800046204EBFADF848304FF48072ADF84C3071
:101990004FF0000358BFADF85020ADF84A3011AAFF
:1019A0006179D9F8000009F02DFB6179D9F80000C0
:1019B00012F0C8FFD9F800206648B2F84430DFF8CA
:1019C000B8A16FEA43436FEA53439BB2A2F8443095
:1019D00013889BB243F080031380E379617913F09D
:1019E000040F14BF042301238B40118C9BB289B2D6
:1019F00021EA03011184118C89B20B4313841388EB
:101A00009BB243F0010313801C22217B524B02FB4B
:101A1000013143690A6913434361292381F819B0ED
:101A20000B7643691A4342614C4AC1F814B08A608C
:101A30004A7B15A88DF8542001228DF856B08DF8F8
:101A400055208DF8572012F05FFFA068CAF80000FB
:101A50000BF081FADAF80000026822F001021204A9
:101A6000120C02600BF077FA15A80BF049FAD9F8BE
:101A70000020617934320A44159240F22A321892D9
:101A800080221A922C4A15A91692102217924FF40E
:101A900000721B924FF40052DAF80000CDF864B0E7
:101AA000CDF870B01E92CDF87CB0CDF874B00BF0CC
:101AB00034FA6279D9F800100C2A8EBF5B46204BAD
:101AC00003EB420B8A8998BFBBF8A83092B213434C
:101AD000DAF800208B81136843F0020313600122BF
:101AE0001F4B1A700023FF211C461E481A181C5257
:101AF0000433802B9170D170F8D113F0C9FBD8F862
:101B0000003059056FD504200FF03AFA164B042126
:101B100018600FF02BFA154B187008202EE000BF4C
:101B20007D42010865420108400D0300554201084D
:101B3000A0160020141500208E2F0020C032002097
:101B4000A8A90108FF6BDC021C020020006CDC026B
:101B500000350C000010024058010020036400080A
:101B6000B8320020081600200417002008170020B3
:101B70008C2F00208A2F0020BC3200200FF000FAAA
:101B8000BC4B082118600FF0F1F9BB4B2C221870E8
:101B90000021BA4816F02EFD7C2385F880398E236B
:101BA00085F88139E02385F883397D23202085F865
:101BB000AB390FF0E5F9B24B202118600FF0D6F9E0
:101BC000B04B18704FF480500FF0DAF9AE4B4FF471
:101BD000805118600FF0CAF90022AC4B1870AC4B62
:101BE0001A700CF0BDFBAB4C2288002A40F0358205
:101BF000A94B95F8BC09C5F8AC39022385F8B03972
:101C000095F8BD39013B5BB2012BDEBFA34A1B0136
:101C1000D258C5F8B429002800F01F8208F064FCEF
:101C2000C5F8B80918B11A2383710023C3711321B1
:101C300008F080FCD5F8AC39986808F0A2FC00BF29
:101C4000D5F8AC390221586808F0F3FC4FF00008D1
:101C50009F2332208DF844308DF845808DF84680E2
:101C60008DF8478009F0EAFB8DF8558000BFD5F864
:101C7000AC39986808F080FCD5F8AC093A4611A94F
:101C80000423406808F0F6FCD5F8AC39986808F0F1
:101C900078FC00BF9DF856309DF855201B0243EAA2
:101CA00002439DF8572013437D4A934200F024835A
:101CB00000F30D83A2F52102A2F5CC42934200F07D
:101CC0001B8300F3BD81A2F51A42023A934240F011
:101CD000BF81202323804FF480736AE30A221B0113
:101CE00093FBF2F300226F49A3F5B06341F8223071
:101CF0000132122AFAD142F6F82363806A4B40205F
:101D000063606A4B2270A3600FF03AF982460028A4
:101D10003FF46DAD0CF00CFB737AB17A00280CBF68
:101D200001220322002B14BF0623072300290CBF26
:101D3000002108219AF902E082460B438DE80C004D
:101D40005B4B5C4A402170460EF066FFBAF1000F13
:101D500001D0594B1860003018BF012046E5102310
:101D6000237042F6F8236380544B40206360544B49
:101D7000A3600FF005F9824600283FF438AD0CF05F
:101D8000D7FAB37A00280CBF01220322002B0CBF24
:101D900000230823717A9AF902E0002918BF43F062
:101DA000010382468DE80C004FF4E133454AC9E750
:101DB0000823237042F6F8236380434B402063607E
:101DC000424BA3600FF0DCF8824600283FF40FADD1
:101DD0000CF0AEFA737A00280CBF01220322003304
:101DE00018BF01239AF902E08DE80C0082464FF4F7
:101DF000E133374AA6E700234FF00C0E354A364947
:101E00001370364A062884F800E00B70137073D004
:101E10001B22334B4FF4E13B1A700522314B83F800
:101E200000E0314B1A7042F6F82363802F4B4020BC
:101E300063602F4BA3600FF0A3F8824600283FF4A5
:101E4000D6AC0CF075FAB37A00280CBF012203223D
:101E5000002B0CBF00230823717A9AF902E00029B5
:101E600018BF43F0010382468DE80C005B46214A0F
:101E700068E700BFF8160020091700207C0C00203E
:101E8000101700200B170020201700201C1700201F
:101E90001D17002078020020AC0C0020081900203B
:101EA0001720C200F0280020753E0108913E01086D
:101EB000A086010099440108402C0020B13D010892
:101EC000C13D0108E5420108313D0108453D0108D9
:101ED0009D42010861180020581800206018002059
:101EE00062180020CE2A002086180020A9F30008DE
:101EF000BDF30008D1F300082122404BDFF83CB1CC
:101F00001A703F4B83F800E03E4B18708BE74FF0A0
:101F1000000B3D4B402083F800B00E23237044F6A5
:101F200020636380394B6360394BA3600FF028F85E
:101F300000283FF45CACB0F800A0364B0AF4825A9B
:101F400083F800B0737ABAF5825FB27A14BF0121C8
:101F50000321B3EB0B0390F9020018BF0123BAB9B8
:101F6000BAF5825F14BF5A46082213438DE80A006F
:101F7000294A4FF4E13340210EF04EFEBAF5825F5C
:101F80007FF4E9AE0022254B1860254B1A70E2E67B
:101F90000822EAE70A221B0193FBF2F300222149FF
:101FA000A3F5B06341F822300132102AFAD141F68C
:101FB0000B2363801C4B402063601C4B2270A3608A
:101FC0000EF0DEFF00283FF412AC0322002390F94C
:101FD000020040218DE80C00154B164A0EF01CFE45
:101FE000B9E6D1077FF528AC0C232370124B22E40D
:101FF0000133042B7FF462AC002068E462180020F7
:10200000CE2A002086180020932A00208D42010845
:1020100029460108912A0020514501087C11002021
:10202000D0110020542900201140010895400108DA
:10203000A0680600ED4401084542010890D0030065
:10204000AE4A934200F0B281AD4A934200F0528111
:1020500000232380A3816360A360A568B5B14FF01E
:102060000008ED0A0DF15409A8450ADA08EB050449
:10207000641010223946E00207F078FE0F2800F3C2
:10208000AD8107F093FF9F4BED021D6000239E4A38
:102090009E4D13609E4A9F4C13809F4A13809F4A17
:1020A00013809F4A13602A681F2A40F0A1814FF4D1
:1020B00080639C4A238011889B48002940F0A181BD
:1020C00001809278994B02B101221A70B4F9003064
:1020D000974A1B021360039B96481B78964C052B6E
:1020E00002BF4FF4C872954B1A800DF0DBFDC82279
:1020F000934B00211A80934AA4F8C2191378A4F8CC
:10210000C41943F00803137004238F4A84F8C039BC
:1021100013708E4A8E4B1170642219705A70596078
:102120008C4B198059808C4B5A799846012A0BD1D7
:10213000282204F6C81016F05DFA4CF25032874996
:1021400004F6CC1007F0FCFC0021854B84F8F01954
:1021500019605960996098F80630012B09D1102256
:10216000804816F047FA4CF250327F497F4807F01A
:10217000E7FC7F4B7F4F1B687F4A3B607F4B802093
:102180001B689B1A18BF01237D4A137014F006FFC9
:10219000002319467B481A181433B3F58C7F11615C
:1021A000F9D1012104200EF009FC98F805A00620C1
:1021B0001AF1000118BF01210EF000FC98F80690FA
:1021C000072019F1000118BF01210EF0F7FB98F864
:1021D0000A30002B40F0B78198F80B30002B40F00C
:1021E000B2813968C1F38041BAF1000F03D1B9F16E
:1021F000000F00D1494608200EF0E0FB624B1A6840
:10220000984612F0010F07D0296800200EF004FC58
:10221000012100200EF0D2FBD8F800309A0708D533
:10222000012108460EF0CAFB584B0120596B0EF0F5
:10223000F3FBD8F800100220C1F340010EF0BEFB02
:10224000534B54491B8C042091FBF3F10EF0E4FB3B
:10225000012103200EF0B2FB4F4B052019780EF040
:10226000ADFB012109200EF0A9FBD8F800100A20CF
:10227000C1F380010EF0A2FBD8F800300B2013F060
:10228000140F14BF012100210EF098FB39680C20B7
:10229000C1F380210EF092FB3B685B0508D5337AD1
:1022A000083B012B04D84FF4FA610C200EF0B4FB6C
:1022B00079880D2001F001010EF080FB94F8F534CF
:1022C00063F07F0384F8F53421B0BDE8F08F334A22
:1022D000934211D004DC324A934208D0314AF5E4EB
:1022E000314A934262D0013293427FF4B1AE4FF44F
:1022F0000073EFE44023EDE48023EBE418BA200000
:102300001620C200D832002034130020F42E002002
:1023100038130020DC3900203A1300203C13002041
:102320002C120020C8320020DE3900203E1300208D
:10233000301200201C2D0020FC020020181E00205E
:10234000161E002044120020482F0020E611002015
:10235000640D0020D21100204C2F0020CDCCCC3DAC
:10236000EC120020F00C0020CDCCCC3E000D002063
:10237000441C0020342C0020CF680108E0250020F8
:10238000600F002040000020EC1400207812002094
:102390008211002040420F00452C00201740EF0022
:1023A0001920C2001540EF001840EF004FF4807371
:1023B0002380A381638822881B0263605343B3F1A7
:1023C000807FA360614D05D90123B72085F8BE3910
:1023D00007F010FD012385F8BF393EE6002359F8C8
:1023E0002320013220D10133042BF8D125463BE6CE
:1023F0003F2A16BF4FF4FA434FF40073B3FBF2F3D6
:1024000057E6B4F90030994204DD1F2B02DD0123A9
:10241000038056E693FBF1F3FAE732F83330002BF2
:102420007EF44CACFEF742BC04F101082C46DDE71B
:102430000022474B00B21A7017F000FC454917F014
:1024400051FC0746B4F9B00617F0F8FB414917F004
:1024500049FC0646B4F9B40617F0F0FB3D4917F005
:1024600041FC3D490546384617F034FB07F050FA69
:102470008146384607F04CFA37490746304617F090
:1024800029FB07F045FA8046304607F041FA324909
:102490000646284617F01EFB07F03AFA8346284600
:1024A00007F036FA49468246584617F01BFC494663
:1024B0000390504617F016FC59460490384617F022
:1024C00011FC51460590384617F00CFC4146069029
:1024D000584617F007FC214D5146286008F100408E
:1024E00017F000FC05996860AE60304617F0FAFB03
:1024F000049917F0EFFA0699E860304617F0F2FBFE
:102500000146039817F0E4FA4146286107F10040BC
:1025100017F0E8FB03996861304617F0E3FB0146CA
:10252000069817F0D5FA0499A861304617F0DAFB3F
:10253000059917F0CFFA4946E861404617F0D2FBFB
:102540002862FEF769BD01214EE600BFFC020020B3
:102550003C00002035FA8E3CDB0FC93F58190020A3
:102560002DE9F04FAF4B9BB01B689847AE4B0590E1
:102570001B78012B07D1AD49AD4A096889891180C3
:10258000AC4909795180AC4C2278002A00F09C8635
:10259000072B40F08C8307F065FD0B90A74F3B683D
:1025A000079713F4806F05D0A548836813B100F135
:1025B0005C019847A34AA4481268B0F90680518983
:1025C0000890884580F276834FF07E52626094F9DD
:1025D0000C204FF0000B002A14BF01234FF0FF33F3
:1025E0009A4994F809A00D8B94F80890984E069398
:1025F0000991089B33F91B70781B0028B8BF404233
:10260000B0F5FA7FA8BF4FF4FA70BBF1020F00F0EB
:1026100065834845CCBFA0EB0900002017F00EFBF6
:10262000AF4246F82B00C0F267830BF1010BBBF100
:10263000030FDED1079B1F6817F4805700F06383F8
:10264000B8F5FA6F4346A8BF4FF4FA63B3F57A7F43
:10265000B8BF4FF47A73A3F57A73227C22B1627CFF
:102660005343642293FBF2F34FF0640E93FBFEF2AC
:10267000784802F1010C30F9121030F91C006FF0AB
:10268000630C0CFB0233401A584390FBFEF00844E5
:1026900000B217F0D3FA6E4B8146D8609846002FEF
:1026A00040D01D2014F080FBC8B16B4BDB78B3B970
:1026B0006A49484617F00CFA17F0F0FC4FF47A73A9
:1026C00000B2000390FBF3F3C5F5FA6000B2584383
:1026D00040F30F30284417F0B1FAC8F80C00262058
:1026E00014F028FBF0B15C4BDB78DBB9262014F04A
:1026F0005BFB5A49002800F01B83F06817F0E8F9EB
:1027000017F0CCFC4FF47A7300B2000390FBF3F3A4
:10271000C5F57A7000B2584340F30F30284417F0E3
:102720008DFAF0604E4B1B885E0640F1B3819D0729
:1027300018BF0023D8F8002008BFD8F80830A261DD
:10274000D8F804202362E261464A5368D2F800A018
:102750000693454BD2F80880596806980791D168CE
:102760009A681F68D3F80C900992089117F0B2F993
:1027700009990446079817F0ADF90146204617F06D
:10278000B1FA08990A90069817F0A2F90999044637
:10279000079817F09DF90146204617F0A3FA414625
:1027A0008346504617F096F949460446384617F0D6
:1027B0008FF90146204617F095FA414606465046E5
:1027C00017F086F949460446384617F083F9014662
:1027D000204617F087FA05460146304617F07AF989
:1027E0000A9917F075F9594617F072F94FF07C51B4
:1027F00017F078FA41460D90089817F069F94946A4
:102800000C90099817F064F90C9A0146104617F0DD
:1028100069FA0D9B0146184617F05CF9134C0699AE
:10282000206025E0EC2B0020E8140020C8110020D7
:10283000C0120020241B0020540D0020342C002046
:102840005C2C0020E8390020C0160020082C002055
:10285000E8110020EC3900205C2F002000007A44B1
:10286000EA16002000000020480200205802002044
:10287000504617F02FF907990C90384617F02AF9AF
:102880000C9B0146184617F02DFA31460C9058461D
:1028900017F020F90A9917F01DF9294617F01AF9CF
:1028A0004FF07C5117F01EFA0C9B0146184617F0AA
:1028B0000FF9594660600A9817F00AF9069983469D
:1028C000504617F005F949468246099817F002F973
:1028D0000146504617F006FA29468146584617F039
:1028E000F7F8314617F0F6F84FF07C5117F0FAF987
:1028F0000146484617F0EEF84146A060089817F0E8
:10290000E9F807998046384617F0E2F80146404654
:1029100017F0E8F931460746584617F0D9F8294626
:1029200017F0D8F84FF07C5117F0DCF90146384623
:1029300017F0D0F810A9E060204610F061FD139A5E
:10294000179B0792169A06930892AB4B129A9D69B1
:1029500009921A6ADC69114610460D930C9217F021
:10296000B9F8DDF854A081460799504617F0B2F83F
:1029700021468046204617F0ADF80146404617F044
:10298000B1F909998046089817F0A2F8494617F05E
:10299000A9F90146404617F09DF8109E149FDDF8F6
:1029A00064B080463946304617F094F8069917F01F
:1029B0008FF8594617F08CF8294617F093F901461D
:1029C000404617F087F839460A90304617F080F8ED
:1029D00007990646504617F07BF829468246284656
:1029E000189FDDF8448017F075F80146504617F03F
:1029F00079F941468246384617F06CF8494617F097
:102A000071F90146504617F065F85946814630463F
:102A100017F05EF8069917F05DF8214617F062F995
:102A20000146484617F056F809998146089817F06C
:102A300051F8294617F056F941460546384617F031
:102A400047F8214617F04EF90146284617F042F89C
:102A5000014617F03FF806990446304617F038F85B
:102A6000594617F037F80C9A114617F03BF9014612
:102A7000204617F02FF80D9B0A9AC3F81C909A6114
:102A800018625E4B1A605E4AC3F80490128894077D
:102A900008BF98605B4B584C1B6813F0140F1AD09A
:102AA000574B1B8803F40273ABB1574B534D1A7845
:102AB00012F0100200F04A8194F82430A06A002B32
:102AC0000CBF01234FF0FF33584317F0B7F8696884
:102AD00017F000F868604D4D4D4F2B7CB3B14D4B56
:102AE000B3F906207B8B9A4210DC4B4B1B78012BF1
:102AF00001D0192B02D1494A927B3AB90E2B05D04D
:102B0000082B1FBF00233D4A2365936094F856802D
:102B1000B8F1000F32D03A4B1B8899072ED0404BAA
:102B200040491E6A304617F085FA002840F05D8162
:102B3000304606F032FEA16D17F0D4F814F01AFCFE
:102B4000B0F5617FA8BF4FF4617017F077F8364990
:102B500017F0C8F806F0DCFE0646404617F06EF89F
:102B6000314617F0BFF814F005FC00B217F066F814
:102B7000224E0146F06816F0ADFFF06094F85C90CC
:102B8000B9F1000F00F08680284B0420DB6CB3F90C
:102B90000C6044F620639E42A8BF1E46B6F57A7FBD
:102BA000B8BF4FF47A76B6B2A4F85E6014F0FCF8C1
:102BB0001F4B10B91A68D2006CD54FF47A72B6FB6D
:102BC000F2F6642292FBF6F6142EA8BF1426DFF864
:102BD00064B01B680948216EDBF8002013F4805FA5
:102BE000D0F80CA014BFB2F83280B2F9328001F1F3
:102BF000010204EB41031FE0540D0020E811002006
:102C0000EA160020EC1400204412002000000020EE
:102C1000082C0020C0160020F01400206E34002084
:102C2000E82500208FC2753CD06D393A4000002065
:102C3000342C0020E41400202266504618BF4FEACE
:102C400058080792069317F029FA079A069B9642AE
:102C5000DCBF00222266226EA3F8640004EB42026D
:102C6000B2F9640016F0EAFF0146504616F030FF54
:102C700017F014FA00B20028B8BF4042404540F3B4
:102C8000B680DBF80030988E16F0D8FF5A4917F05E
:102C900029F86861BD7F002D00F0DE81022D00F073
:102CA000B380032D00F0B181544B5888B1E000236C
:102CB0000B9373E4B8F5FA6F107ABFBFA8EB01026B
:102CC0005043C1F5FA6190FBF1F0C0F1640016F0D9
:102CD000B5FF4B4917F006F8606078E45045D8BF5F
:102CE0000020069BC8BFA0EB0A00584316F0A6FFC1
:102CF000AF42B060BFF69EAC56F82B1001F1004118
:102D000046F82B1091E4099B5A8B90450EDBB8F5E1
:102D1000FA6F4346A8BF4FF4FA634FF47A719B1AD7
:102D20004B43C2F5FA62B3FBF2F396E41346F4E7C1
:102D3000F06816F0CDFE17F0B1F94FF47A7300B2D7
:102D4000000390FBF3F3C5F5FA60E3E4E17A2D4E5E
:102D5000B4F92C30A07A61B3B6F90660F11A0029F3
:102D6000B8BF494281420EDD226301229E4284F8AF
:102D70003420C8BF404216F061FF0146E86816F0F3
:102D8000A9FEE860A7E694F8341019B1E16BA163DD
:102D900084F83420A06A1844B0F5FA6FA8BF4FF445
:102DA000FA60B0F57A7FB8BF4FF47A7016F046FF3C
:102DB000E7E7B6F90620D21A82EAE276A6EBE276D7
:102DC000864207DD022192FBF1F22264012284F89F
:102DD0004420DDE794F83420002ADBD0E26B84F84D
:102DE0004410A26384F83410D4E70020BDE64FF00D
:102DF0007E536B614EE700BF6F12833AF82B0020C1
:102E00000AD7233CC0160020B4F85E0000F57A70A3
:102E100080B2FD7F0235EDB2B9F1000F00F00A81FA
:102E2000002800F00781904B00261B688F4FB0FBF5
:102E3000F3F000B2A4F88C0016F000FF01464FF04A
:102E40007E5017F003F88046DFF8289207F1100A49
:102E5000AE42C0F2E280864B1B78092B12D1854B23
:102E6000854E186814F086FA844B3080DB6CB3F919
:102E70000C004FF47A7390FBF3F016F0DFFE17F0BE
:102E80000DF97080B4F98C30002B40F3E8800026F7
:102E90007B4FDFF8E091A7F11008F3B29D4200F2FA
:102EA000CF8094F85C300793002B40F0DA80002D3F
:102EB00000F08B80022DA8BF0225089500254FF059
:102EC0007E59704BDFF8EC811F68694B1B780993C2
:102ED0007B1D0A93089B9D4240F3EE80099B092BC2
:102EE00008D1694B644DB3F88C20986CAA8017F018
:102EF000D5F8E880654B93F82150002D5FD01E2057
:102F000013F052FF00285AD0614B1B88580656D444
:102F10005D4F604E97F8C830AB4213D087F8C85069
:102F2000284616F08BFE5C4916F0DCFE5B49054630
:102F300016F0D0FD06F0ECFCB061284606F0E8FC87
:102F4000C7F8CC00D6F81880A56C4146284616F084
:102F5000C9FE276DD4F8CC6081463146384616F05C
:102F6000C1FE0146484616F0B3FD4D49814617F0B3
:102F700061F808B9DFF828914A49484617F064F823
:102F800008B9DFF8209141463846C4F8489016F059
:102F9000A9FE31460746284616F0A4FE01463846EB
:102FA00016F098FD3E49054617F044F800B93C4D2F
:102FB0003C49284617F048F800B93A4D2565079B6B
:102FC0001BB10022304B83F85C20374B1B78002B61
:102FD00040F06D81354EB278002A00F06881344CA3
:102FE0002378013B0D2B00F25081DFE813F005013F
:102FF00019013F0139024E014E0153027F02C00503
:10300000DD05EE050D061806210697F82000C0EB39
:10301000401300EB8300C000FAE65AF8261059F876
:10302000260016F055FD414616F05CFE47F82600D6
:1030300001360DE7B4F88C30013BA4F88C3021E761
:1030400057F8260058F8261016F044FD47F82600D9
:1030500049F82600013620E7A4F88C5021E7002526
:103060001FE70223089329E7CC140020E40D002079
:10307000E8140020E8110020C012002040000020C9
:10308000F40D0020E8390020540D0020082C002009
:10309000EA1600200000002035FA8E3CDB0FC93F05
:1030A00000C0F94400C0F9C4A0240020C8320020A8
:1030B0003E1300200AD7233C022D15BF38787878BC
:1030C00097F802B097F809B016F0B8FD414616F02F
:1030D00009FE4FF08041064616F0C0FF60B14FF088
:1030E0008041304616F0F4FC524916F0FBFD0146D3
:1030F000304616F0EFFC0646AB0006934E4B4F49A8
:1031000053F8250016F0EEFD20F000434C4A0693DC
:10311000069B42F825000C32824642F82530BBF16E
:10312000000F1FD0584616F089FD414616F0DAFD13
:1031300083465146504616F0D5FD069916F0D2FD4D
:10314000594616F0CFFD59460C90484616F0C0FC83
:103150000C9A0146104616F0BDFC0146504616F08A
:10316000C1FD82463749304616F0BCFD514616F087
:10317000B9FD0A9B064613F8010B0A93F0B116F04D
:103180005DFD414616F0AEFD069916F0ABFD2E49E9
:10319000824616F063FF58BB0021504616F040FFF0
:1031A00040BB5146484616F093FC0146484616F08F
:1031B0004DFE0146304616F095FD0646099B0C2B48
:1031C00005D1304616F06AFF204B23F81500204940
:1031D000304616F02FFF00B91D4E1E49304616F03E
:1031E00033FF00B91B4E1C4BAA00D650013571E6C7
:1031F0004146DBE74946D9E7184B1B78D90707D585
:10320000802009F041FB08B10DF0EEFC17F094FAB4
:103210001F2013F0C9FD002837D00C23237034E0A1
:1032200000220F4B1A600F4B1A600F4A12685A6047
:103230000323F3E7D7A36841E81100206F12033B93
:10324000040E002000004843A4707D3FC0120020FF
:1032500000C0F94400C0F9C49C0D00209416002061
:10326000C4320020C01400201817002012F050F9BA
:10327000924D934B1A686B686433934205D2402099
:1032800012F01EF9002800F0C78012F069F900283A
:1032900000F0D58423780C3B022B08D9012323703E
:1032A000884B93F8032112B1002283F80321864B47
:1032B0001B78072B05D106F0D5FE0B9BC01A834B5C
:1032C000988000227F4B1A707F4E3378072B40F096
:1032D000048506F0C7FE0890DFF8F8A1DAF804309C
:1032E000504698475546002876D00022BAF8C0408C
:1032F0008AF86120002C40F09585DAF82420BAF98C
:103300003C30DFF8C0B19B1ACAF83030DAF8282018
:10331000BAF93E300AF130009B1ACAF83430DAF8B4
:103320002C20BAF940309AF862109B1ACAF838304B
:103330000CF0C8FC059BDBF80801CBF80831181A23
:10334000DBF80C310344CBF80C31614B93F800806F
:10335000B8F1000F40F0088516F070FC4FF07C517A
:1033600016F0C0FC81460AF12C070AF5A2760BF58F
:103370008E74C2460BF5887857F8040F16F05EFC81
:10338000296A16F0AFFCD5F840310146304698471F
:10339000D5F8B031014606F170009847D5F8C43031
:1033A0000146D7F80401984754F82A10386283463A
:1033B00016F090FB494616F095FC58F82A1016F0C6
:1033C00089FB44F82AB048F82A000AF1010ABAF148
:1033D000030F06F12406CFD13E4A3F4B116D3A4C04
:1033E0005960516D926D9960DA602278072A05D193
:1033F00006F038FE089BC01A344B1880314A92F808
:1034000029311546002B00F0DB85013B82F829317C
:1034100000201BB0BDE8F08FDFF8C8804027C2460F
:10342000DFF8C4902B6818F8030068B112F016F9A1
:10343000D9F80030013F03F1FF33C9F800302B68A1
:1034400003F101032B60EDD12B681AF80330002B38
:103450007FF41BAF2B604FF0FF336B600423DDE67E
:1034600012F056F81D4A5021A2F10C0301932623B5
:10347000029200934920A2F10A03163A0AF05CFA7C
:1034800000287FF402AF4FF0FF320C4B18605A60F7
:103490000723C3E612F03CF8052300210093104BEC
:1034A00002910191A3F1080253200AF045FA002885
:1034B0007FF4EBAE014B18600823AFE6C014002088
:1034C00018170020540D0020E8140020C01200201E
:1034D000871800205C2C0020F42E0020D2AA0108BE
:1034E0008CAC01086CAA0108C432002012F010F85C
:1034F000914B924D186813F03DFF8046D5F8D000EF
:1035000013F038FF8146402011F0DAFF29460028E9
:103510007FF4BBAE8A4D8B4F2B6878784C2B01F231
:10352000ED83DFE813F04D005300610068006C008C
:1035300070007600840088008D00920097009E0045
:10354000A300AF00B900BE00C900CE00D300D80070
:10355000E000E800F000F800000179018101890134
:1035600096019F01A801B101BA01C301CC01D501A7
:10357000DE01E401ED01F401FA01000206020C0291
:1035800013021A02210227022D0234023B024102D9
:1035900047024D02530257025B02600265026A0253
:1035A000700276028302E302E802ED02F202F70201
:1035B000FD02020307030C03110316031B031F0381
:1035C000614A6249624813F04BFB09E0614B5E4A75
:1035D0000193614B614900936148624B13F040FBDA
:1035E0002B6801332B6050E65F4B604A60496148AD
:1035F00013F036FBF4E7604A54496048E3E7604A59
:1036000052496048DFE7604B6049B3F900206048E9
:10361000D9E713F063FB32885B494243B1F90010EC
:10362000034692FBF1F25B48D2B25B49E0E7328895
:1036300056495A48C7E75A4B54491A8A5948C2E76B
:10364000574B52495A8A5848BDE74FF07E52574966
:103650005748B8E71FFA89F31FFA88F255495648C8
:10366000C6E7564B56499A8A5648ACE7564B1B68F4
:10367000DA0404D591F8D42054485149A3E70F2324
:103680002B60ADE7524953488B784A78097800910E
:10369000514913F0E5FAA3E7504B49491A885048BD
:1036A00091E74B4B9B79012B9AD1B1F9D830B1F905
:1036B000DA204C483F499BE74B4B34491A684B484A
:1036C00081E74B4B31499A784A487CE74A4B2F496E
:1036D0001A784A4877E70C2303FB0011484891F811
:1036E000DC202A496FE70C2303FB0011454891F8C1
:1036F000DE20264967E70C2303FB0011424891F8BE
:10370000DD2022495FE70C2303FB00113F4891F8BD
:10371000E5201E4957E70C2303FB00113C4891F8B4
:10372000DF201A494FE70C2303FB0011394891F8B9
:10373000E020164947E700BF5C130020540D00202D
:10374000C0140020FC19002073C90108D9DA01084F
:103750007FC90108B3C90108A8CE010893C90108AF
:10376000A1C901088DC90108B8C90108C1C901086A
:10377000ECD20108CDC901081C000020DBC90108FA
:10378000BF1D0020EEC90108DC39002011CF01085F
:10379000F9C901080ACA010804CA010815CA0108C2
:1037A000441300201DCA010829CA010813D50108C5
:1037B00035CA01080CCB010840CA01087812002064
:1037C000DBD201084CCA01084013002053CA01088B
:1037D0004C2F002067CA01085ECA01085A13002056
:1037E00077CA01087FCA0108F42E00208DCA01089B
:1037F000462C002096CA010810360020A6CA0108EF
:10380000B8CA0108C0CA0108C8CA0108D4CA010858
:10381000E0CA0108E8CA01080C2303FB001186482E
:1038200091F8E4208549CEE60C2303FB001184487F
:10383000B1F8E6208149C6E60C2303FB001191F89C
:10384000E23091F8E12091F8E3107E4800917E4942
:103850001FE77E4B7E4819684B780A78897800917B
:10386000794916E7794B7B4819680B79CA78497909
:10387000009175490DE7754B77481968CB798A79BE
:10388000097A0091704904E7704B744819688B7A83
:103890004A7AC97A00916C49FBE66C4B704819680A
:1038A0004B7B0A7B897B00916749F2E6674B6D4849
:1038B00019680B7CCA7B497C00916349E9E6634B3C
:1038C00069481968CB7C8A7C097D00915E49E0E6F5
:1038D0005E4B664819688B7D4A7DC97D00915A49C7
:1038E000D7E65A4B55491B6861481A7E6BE6574B21
:1038F000604819680B7FCA7E497F00915249C8E62B
:10390000524B4E491B685C4893F826205BE64F4BB0
:103910004A491B6859481A8C55E64C4B47491B6865
:103920005748DA8B4FE6494B44491B6855485A8C37
:1039300049E6464B41491B6853489A8C43E6434B42
:103940003E491B68514893F827203CE63F4B3B49D2
:103950001B684F4893F82C2035E63C4B37491B68D1
:103960004C4893F82D202EE6384B34491B684A48C2
:103970005A8E28E6354B31491B6848489A8E22E614
:10398000324B2E491B68464893F836201BE62F4BD6
:103990002A491B68434893F8372014E62B4B2749E4
:1039A0001B6841481A8F0EE6284B24491B683F4884
:1039B0005A8F08E6254B21491B683D481A8D02E6BF
:1039C000224B1E491B683B485A8DFCE50A7A3A484F
:1039D0001A49F8E54A7A39481849F4E5384B174945
:1039E000DA783848EFE5364B14491A793648EAE573
:1039F000334B12495A793548E5E5314A3449D38980
:103A000034485289F4E52E4A3149138A3248928962
:103A1000EEE5324B188816F011F9314916F062F9CB
:103A200016F03CFB054902462E48CCE52B4B0349DA
:103A3000DA782D48C7E500BFF1CA010811CF0108A7
:103A4000FACA010812CB010809CB0108E4140020CE
:103A500018CB010820CB010829CB010830CB010885
:103A600037CB01083ECB010846CB01084ECB0108FD
:103A700057CB010850CB01085ECB010870CB010881
:103A80007DCB010888CB010897CB0108AACB0108A0
:103A9000B7CB0108C5CB0108D6CB0108EDCB010897
:103AA000FFCB010819CC01082FCC01083DCC01083F
:103AB00047CC010854CC010897E4010865CC010803
:103AC000462C002072CC01087BCC01088DCC01086B
:103AD0000CCB01089DCC0108ABCC01088818002054
:103AE0000000C842BDCC0108C8CC01087D4B7E490E
:103AF0005A797E4867E57E4B7B49DA787D4862E5F6
:103B000091F800217C4878495DE57C4B76499A7FA5
:103B10007B4858E5794B744993F82020794852E561
:103B2000764B71495A8C78484DE5744B6E491A7A38
:103B3000764848E5764B6C491A79764843E5744BEC
:103B400069499A7874483EE5714B67491A88734809
:103B500039E56F4B6449DA89714834E5BA786249CE
:103B6000704830E5704B60491A6870482BE51A20A0
:103B700013F01AF9A0B16E4B1B888BB96D4B10A9CD
:103B80001B680E201093059B119309F039FC6A4BBA
:103B90001A686A4B1A600A232370059809F07EFCA4
:103BA00009F0FAFBFFF771BB654B1B78002BF4D0D3
:103BB0001A2013F0F9F80028EFD1624B93F8033183
:103BC000002BEAD109232370EAE75F4B1A685F4BA9
:103BD0005B68C833934211D2B378032B0BD15C4D91
:103BE00028680CF0EBFF00232B605A4B1B78022B4C
:103BF00001D10DF0E7F90123FFF710BB16F0C2FE6B
:103C00000028E9D1FFF741BB012A01D106F00CFAE7
:103C10000D231320237013F063F9FFF736BB012A3D
:103C200004D106F06BF800283FF42FAB0E23F0E729
:103C30001F2013F0B9F800287FF427ABDBE7F378F7
:103C4000002B3FF434AB444B1D7815F0010508D12F
:103C5000424BDFF810911F78414BD3F80080BD42F2
:103C60001ADB394B374D1B68D5F804219A4224D909
:103C70002378012B7FF41BAB324C94F80321002AEC
:103C80007FF415ABB378032B10D016F055FD01234C
:103C900084F80331FFF70BBB414659F8250016F0B5
:103CA000B5F9002801F036800135D8E7802008F00A
:103CB000EBFD00287FF4FBAAE7E72378012B3FF414
:103CC000F6AA95F80331002B3FF4F1AA09F0ECFEB7
:103CD000002385F80331FFF7EABA00230893FFF7C2
:103CE000FBBA00BF2E18002011CF0108D5CC010867
:103CF0008C190020E3CC0108F0CC0108082C00202E
:103D000006CD010817CD010831CD01084BCD0108C2
:103D1000441300205DCD01086ECD010881CD01085E
:103D200090CD0108A1CD0108441C0020ACCD0108B4
:103D30003813002034130020301200202C120020F1
:103D4000F2140020540D002018170020C014002089
:103D5000D0320020C914002094160020C812002080
:103D6000A42400203423002015F068FF4FF07C517C
:103D700015F0B8FF8B4F0AF12C090AF5A2782546F9
:103D8000069054460BF5887A0BF58E7B337859F8FC
:103D9000040F172B04BF6219928F079308BF3A8054
:103DA00015F04CFF216A15F09DFF079B0146082B7B
:103DB00004D1079013F0DEFA07993880D4F8403127
:103DC00040469847D4F8B031014608F17000984752
:103DD00033780146032B04D1079013F0CBFA0799EF
:103DE0003880D4F8C430D9F8040198475BF815102E
:103DF000C9F82000079015F06DFE069915F072FFC6
:103E00005AF8151015F066FE079B4AF815004BF896
:103E100015300235062D08F1240807F10207B5D147
:103E2000FFF7DABA604B55465B780AF1240709932D
:103E30005E4B079219684FF47A73B3FBF1F3C3EB4F
:103E4000431103EB8103DB009BB2069333781646E4
:103E50000A93544BB3F90690069B5B080B93069BA1
:103E60009C4201BF00237B65C5F894303B60504BFA
:103E7000F318B3F93C007B6D03447B6515F0DEFE5F
:103E8000D5F8942002F10108B8F1010FC5F894802B
:103E90000AD10023012CC5F88800C5F88400C5F8B4
:103EA0008C305CD1002034E0D5F884A00D925146CE
:103EB0000C9015F00DFE8346404615F0BFFE0146FE
:103EC000584615F0C3FF514615F004FE0C9B014601
:103ED0008246C5F88800184615F0FAFD594615F0D7
:103EE00001FFD5F88C1015F0F5FD012C8346C5F8BF
:103EF0009000C5F884A0C5F88C000D9A2FD1B8F1B8
:103F0000010FCFDD104615F099FE0146584615F019
:103F10009DFF13F05FFC0A9B8046032B05D113F035
:103F200029FA01230FFA80F90793099B83B11846F8
:103F300015F084FE414616F073F848B1079B13B1A3
:103F4000184BA3F806901B480BF0ACFEFFF744BAE1
:103F50000B9A7B6D1344069A93FBF2F33B60023697
:103F6000062E07F1040705F114057FF478AF079BCF
:103F700013B10C4BA3F80690012C0BD10E4B93F808
:103F8000283123B10D4B1B8823F4806313B9012022
:103F900012F0A6FF064AB2F8C030013BA2F8C030CA
:103FA000FFF71ABAC0120020462C0020F42E002081
:103FB0005C2C00201C2D0020540D0020802F0020A0
:103FC000AC4B5B79002B00F03984AB4B1B78013B89
:103FD000DBB285F829312378072B40F0328406F0D4
:103FE00041F80B90A54B4FF07E501B6807936B6810
:103FF0000E93D5F82C3119460A9315F069FDA04BA4
:10400000196815F06FFE4FF07E510C9016F012F803
:1040100010B94FF07E530C934FF0000A4FF0000B95
:10402000984B994D0693994B0893994BDFF8B882BA
:1040300053F82A70594638464FEA8A0458F82A60DD
:1040400015F0E4FFE0B908F1E80858F82A80304696
:10405000414615F03DFD814620F00041384615F0FF
:10406000DFFF58B15946484615F0F8FF002800F028
:10407000EC834146384615F02DFD0646854BE6504B
:10408000854B1B8809939B073AD0BAF1020F37D0B2
:10409000079B93F82E80404615F0D0FD7F4BE158EA
:1040A00015F020FE8146C8F1000015F0C7FD074657
:1040B0000146484615F0B4FF40B9404615F0BAFD38
:1040C0004946074615F0B6FF00B94F46744B33F921
:1040D0001A00089BB3F90030C01A15F0AFFD714902
:1040E00015F000FE0146384615F0F2FC099B0D90D4
:1040F000DF0740F1D7836C4B196815F0F3FD0646D6
:104100006A4B304623445B681946099315F0E0FC7E
:1041100095F83C310746002B77D0059AD5F8403109
:10412000D31A634A126893426FDD079B93F84830B5
:10413000022B02D1012006F033FABAF1020F40F04F
:1041400065845C4B3846D3F8008008F10049494645
:1041500015F066FF002840F078844146384615F097
:1041600069FF00B94746069B059AC3F800B0D5F829
:104170004031D31A504A1268934223DC4FF07E51EB
:104180000A9815F04DFF00283FD04C4BDFF81C91EA
:10419000D3F80080D9F80400414620F0004015F023
:1041A0003FFF90B3D9F80810404621F0004115F0C8
:1041B00055FF50B3D9F80C10404621F0004115F0DE
:1041C0004DFF10B33E4B186810F0020019D03D4B64
:1041D00033483D491A68B1F90CE0B0F90030A3EB5F
:1041E0000E03002BB8BF5B4293420EDAB0F90230E7
:1041F000B1F90E105B1A002BB8BF5B429A4204DD86
:10420000002085F83C0106F0CBF9304B0E98E158C0
:1042100015F068FD394615F065FDDFF8D080BAF17C
:10422000020F014644F8080006D1294A294B1068BC
:104230001B689847C8F80800069B1B680D93264B1F
:104240005969264B186815F04DFD0C9915F04AFD7B
:10425000234BE15815F046FD394615F043FD0D9905
:1042600015F038FC1F4B0F90D3F8009009F100486F
:1042700041463DE0462C002010360020E41400208A
:10428000F824002060120020540D00209418002013
:10429000EC240020840E0020EA160020040E0020EA
:1042A000D6330020CDCCCC3DD4240020F42E0020E9
:1042B0000025002018250020FC24002008250020CF
:1042C000EC1400200425002088180020A8240020D9
:1042D000CC250020282500200000002014360020D6
:1042E000B42400201C2500209C0D00205412002026
:1042F00015F096FE38B90F9A49461046904615F0CB
:1043000099FE00B9C846BAF1020F40F0A183A94B4B
:104310001B78012B02D0192B40F09A834FF0010338
:10432000A54938460F9315F099FE0F9B00B9034637
:10433000DBB23BB10D9B28F0004023F0004115F0AB
:104340006FFE10B1069BC3F80080BAF1020F00F0B7
:1043500099809A4A9A4B09991B68A0589847994A9C
:10436000994B01461B68A0589847079B804693F8D5
:104370003730002B00F07683944B1B88002B40F0E5
:104380007183934BE158934B186815F0ABFC4FF0D9
:104390007E51814615F04EFE08B94FF07E598E4B86
:1043A0004846196815F09EFC0146304615F09AFC07
:1043B000414615F08DFB894B8046E15815F088FB8E
:1043C000874B196815F042FD844B064644F803807C
:1043D000079B93F84830002B4AD0824B1B78DA07B2
:1043E00040F142834FF07E510A9815F02DFEF8B14E
:1043F00095F83C31E3B97C4B26F00040196815F084
:104400002DFEA8B1794B27F00040196815F026FE63
:1044100070B1774BE058774B20F00040196815F0E9
:10442000FFFD28B1012385F83C31059BC5F84031DB
:1044300095F83C31E3B1059AD5F84031D31A6E4A6C
:104440001268934214DA694B27F00040196815F09E
:10445000E7FD40B9664BE058664B20F00040196814
:1044600015F0FCFD20B1002085F83C0106F098F81D
:10447000624B0E98E15815F035FC314615F032FCD0
:104480005F4B185195F84C315E4F3BB9069B47F88E
:1044900004B0C3F800B05A4B44F803B0069B0AF1CD
:1044A000010A04330693089BBAF1030F03F10203D8
:1044B00008937FF4BAAD544C2278072A05D105F051
:1044C000D1FD0B9BC01A514B58802378012B40F033
:1044D000D18205F0C7FD4E49D5F850314B4A0968E5
:1044E000C31A93805B1A0590D380C5F85001494BDD
:1044F000494CD3F80090494B99F82C801B6813F471
:10450000805F00F01983374BB5F856611B78304651
:10451000DB0758BF424BE4685CBF1B8BA5F85431E6
:1045200015F08CFB82460146204615F083FD0028DD
:1045300000F0A9823B4BD5F85C111868C5F86011F2
:10454000C5F86411C5F8580115F0C2FAFF23C5F883
:10455000680185F86C31204615F0C6FD2146A5F8A6
:104560005401504615F0B4FAC5F87001D5F87441FD
:104570002146D5F8700115F069FC4FF07E510446D4
:1045800015F058FD08B94FF07E540021204615F073
:104590005BFD00B90024244EC5F8704131683868CD
:1045A00015F098FA164B196815F094FAB9F828B076
:1045B0003CE000BFD4330020000096422C250020B0
:1045C000202500207C25002024250020EA1600203C
:1045D000100E0020D0240020CC240020980E0020B3
:1045E0001436002094160020102500200C250020F1
:1045F0009C0D00201425002000250020C024002050
:104600006C12002054120020E8140020C012002078
:10461000CC140020E4140020E8110020342C0020E9
:10462000082C00205C130020601200208246CBF191
:10463000000015F003FB0546584615F0FBFA294625
:104640008346504615F0ECFC002840F09382594612
:10465000504615F0EFFC00B9DA467E49504615F099
:1046600041FB71680690786815F034FA7A4B596806
:1046700015F030FA82460146284615F0EFFC30B9B5
:10468000514658465D4615F0D5FC00B9554671496E
:10469000284615F027FBB1680790B86815F01AFA9C
:1046A000B9F82A700646784215F0C8FA0546014660
:1046B000304615F0B5FC40B9384615F0BBFA314626
:1046C000054615F0B7FC00B935466249284615F095
:1046D00009FB624B06465B780BB900F10046B8F166
:1046E000000F25D05E4B5A7912B35E4A1578FDB1A2
:1046F000187815F09FFA0746284615F09FFA0146EC
:10470000384615F0EFFA584B0546188815F092FA1E
:104710000146284615F09AFB5449054615F08AFCD7
:1047200000B9524D4FF07E51284615F08DFC08B966
:104730004FF07E554FF000084FF0000AC1464C4B39
:104740004C4F93F800B0DA45C0F2348241464846F7
:1047500015F0BEF9484D4FF07E51C5F82C010646C4
:1047600015F07CFC002800F05F8231464FF07E504F
:1047700015F06CFB0024074610AEA34500F34B82F6
:1047800012F018FB18B14FF07C53C5F8703195F951
:104790006C0115F053FAD5F8703182460693D5F8BE
:1047A0006831D5F858010793D5F864310893334B35
:1047B000DB780B9315F072FC8046D5F8600115F09C
:1047C0006DFC2F4B81461E680025304615F066FCB7
:1047D00007462C4B1B6803F0100203F480530D9323
:1047E000294B0C92B3F90630284A0993284B1478C8
:1047F0005B8B04F001040A935D45C0F0398224B953
:10480000244B254AA34500F373821B4CD4F808328D
:104810000BB110F09BFF94F80C320BB10EF0D4FDED
:104820001E4B1B78072B05D105F01CFC059BC01AFD
:104830001B4BD88001232370FEF7EABD0123FFF74D
:10484000C8BB00230B93FFF7CDBB3946404615F09C
:104850003FF912E46F12833A6C120020F01400202A
:104860004C2F0020E6110020D2110020713DAA3FFC
:10487000C8120020DC0E0020540D00205C2F002008
:10488000A4240020342C0020C01600209416002000
:10489000082C0020CC12002034230020E814002033
:1048A000C0120020D5F8BC80D5F8C070414638460B
:1048B00015F0CAFB00B94746AF4BB3F90000B3F996
:1048C00002300028B8BF4042002BB8BF5B4298427C
:1048D000B8BF184615F0B2F9A84915F003FAA84B6D
:1048E00081461B78002B55D0A64B59461B681846AD
:1048F000099315F0B3FB002800F08680A24B5946BF
:10490000D3F80080404615F0A9FB00287CD007F1C1
:1049100000409E4915F0E6F9099915F097FA4FF015
:104920007E5115F0D7F849460746404615F0D0F8B5
:10493000414615F08BFA4FF07E51804615F07AFB18
:1049400008B94FF07E585946404615F07DFB00B936
:10495000D8463946404615F0C5F94FF07E51074616
:1049600015F068FB08B94FF07E575946384615F0E8
:104970006BFB00B95F46864B0D98196815F0B2F9CC
:104980000146384615F0AEF90146304615F0A2F85A
:10499000FFF7B5BB7F4B8049D3F80080404615F048
:1049A0003FFB68B341464FF07E5015F091F87B49CC
:1049B00015F098F949460990794815F089F8099B4E
:1049C0000146184615F08EF9414615F083F86D4BF7
:1049D000196815F087F980465946404615F02AFBBC
:1049E00090B94146694815F031FA07F10047014690
:1049F000384615F077F94FF07E5115F06BF8ACE7BB
:104A0000604BD3F80080E7E75846A6E7654B1B6884
:104A100099077FF5A8AB089BB3F90000564B33F913
:104A20001A30C01A15F00AF95F4B06465349186848
:104A300015F058F90146304615F054F90999064623
:104A400015F046F80746FFF78EBB4F46FFF78BBBC6
:104A50004FF001034FF07E51D5F82C010F9315F064
:104A6000F3FA62E45946A0E495F83C31002B3FF498
:104A7000FFACF8E4072B03D105F0F4FA059036E516
:104A80000023059333E5B5F8780115F0D7F8824691
:104A90000146204615F0D8FAF0B1D5F87C11D5F8CA
:104AA000D000C5F85811C5F86411C5F8600115F0BB
:104AB0000FF80123C5F8680185F86C31204615F020
:104AC00013FB5146A5F85401204615F001F8C5F82E
:104AD0007001D5F880414BE5B5F85431B34217D891
:104AE000262012F027F998B9304BD5F85C111868D8
:104AF000C5F86011C5F85801C5F8641114F0E8FF55
:104B0000FF23C5F8680185F86C31C5F870B12DE553
:104B1000D5F87C11D5F8D000C5F85811C5F860015A
:104B2000C5F8641114F0D4FF0123C5F8680185F8B5
:104B30006C31C5F870B1CCE71D4B588B15F07EF881
:104B40000146E06814F0C4FF184BC5F870011968FD
:104B5000D5F8D000C5F85811C5F86001C5F8641142
:104B600014F0B6FF0123D5F88441C5F8680185F833
:104B70006C31FDE4AA4670E5D6330020CDCCCC3DA7
:104B8000E0240020DC240020E42400200000C842AF
:104B9000D8240020E8240020AE47813F610BB63BBB
:104BA00000003443EC140020D42400205C130020C7
:104BB000082C00207968069815F094F8B9680890D8
:104BC000079815F08FF8089A0146104614F082FFF6
:104BD000F9680890304615F085F8089A01461046A5
:104BE00014F078FF294615F07DF84946089015F035
:104BF00035FA089A68B91146404615F01BFA089A2A
:104C000000B9904610AB43F82A2010370AF1010A88
:104C100099E59146F6E756F82400394615F062F812
:104C200046F824000134A8E512F0C4F838B94FF072
:104C30007C51204615F012FA00283FF4A8AD4FF041
:104C40007C51304615F04EF806460146204615F0D8
:104C5000E7F950B931464FF07E5014F039FF214644
:104C6000064615F0E7F900B92646C5F870618EE5ED
:104C70002D4A2B019958069815F034F810AB53F8CB
:104C800025100E90504615F02DF80E9B0146184643
:104C900014F020FF079915F025F8089914F01AFF71
:104CA0000B9BFBB115F0FAF9B84203DB4845A8BFEE
:104CB000484600E0384614F0C1FF0C9A034662B142
:104CC0005CB10D9A4AB90E9012F074F80E9B20B99F
:104CD000099A0A998A42B8BF3346144A42F82530E5
:104CE000013589E515F0DAF94045DFDA4046E2E7BB
:104CF00052F8241043F82410013483E515F042FEE5
:104D000000283EF4C2AA0A4B1A680A4B1A600A230A
:104D1000FEF784BA084B094A1B6803F59C53083315
:104D2000C2F80431FEF7A4BFDC0E0020CC12002034
:104D3000301200202C12002018170020540D0020E3
:104D40002DE9F04F0024BC4D97B0605938B9CC34F0
:104D5000B4F5197FF9D1002017B0BDE8F08F05F048
:104D600090FB0028F3D0B54A13780192002B00F095
:104D7000B580B34B18680028EDD005F076FDDFF85C
:104D8000F0A2B04DDAF8000005F07BFB0028E2D07D
:104D9000DAF8000005F072FB0928AB4C01D03F287F
:104DA00050D14FF00008C14646462768DFF8A8B248
:104DB00008EB0B0347B13A4658F80B10284600930E
:104DC00013F070FE009B08B976B3994608F1080805
:104DD000B8F58C7FECD196B1D6F800E0D9F800C0D8
:104DE00023681EF803001CF80310814207D15A1CE7
:104DF000E9B97D2B1BD820202260E854A9542368F0
:104E00000BB14E4508D0914811F07AFF4E4511D9AB
:104E10008F4811F075FF002723689F42B2D2E85DEA
:104E200006F03DFF0137F7E71E469946CEE7E85406
:104E30002260D5E756F8080B11F062FF092006F052
:104E40002EFFE3E72368002B41F04B82042803D1B7
:104E50007C480DF064FE7EE70C2841F06F827D48AF
:104E600011F04EFF7A4811F04BFF8BE701220B4601
:104E700001F049BA591E685C2028F7D002B12360BE
:104E80000026754FEE54F159284606EB07080EF040
:104E900077F838B90836B6F58C7FF4D16F4811F041
:104EA0002FFF05E06E4B9845F8D2D8F804309847AC
:104EB000002301F02CBA7F2B3FF664AFA0F1200253
:104EC000D2B25E2A3FF65EAF13B920283FF45AAF44
:104ED0005A1C2260E85406F0E2FE53E7614A9B4602
:104EE00091461178604E01F00101DFF88881009150
:104EF00056F80A3C002B41F094810BF1010BBBF1F9
:104F0000030F06F1CC06F3D125E7012B05D14D287F
:104F10000CBF0223002301F09DB9022B56D10023C0
:104F20003C2806F8023C4CD03E2849D016F802EC4A
:104F3000BEF1060F41F0798116F8015C002D41F0B9
:104F40004F810124494B05AF0FCB87E80F0016F8BE
:104F5000053C16F803AC33440A93BAF1440F0FFA38
:104F60008AF30996ADF82C30ADF82E508DF830400C
:104F7000ADF81C3001F0248100F20781BAF1050F71
:104F800000F0348200F2C180BAF1020F00F07B81A0
:104F900000F2A380A24500F06C813946504602F031
:104FA0000BF90546002840F06281BAF1740F00F059
:104FB0009A82BAF1770F00F000836FF001049FE24C
:104FC000012306F8013C032301F044B9032B0BD164
:104FD0000023C0289FBF06F8063C06F8050C06F81B
:104FE000040C042301F036B9042B09D116F8043C53
:104FF00006F8030C5D4006F8045C052301F02AB9AD
:10500000052B93D116F8052C16F8063C9A4216F893
:10501000042C08D9424006F8042C5A1C234406F8F4
:10502000062C987282E7824202D1062301F012B95F
:10503000002301F00FB900BFC0090020A024002008
:10504000542300201C2400209C24002074CE01083E
:1050500079CE01087ECE0108F4C5010889CE010889
:105060000CC7010894160020CA090020ACAC010846
:1050700058230020E4140020009B002B41F0D58031
:1050800023281DD10123019956F80A2C0B70C04B1F
:10509000C0491A60C04BC1481A609A609DF8002050
:1050A00059605A7340221A73BD4A0433136007F0E3
:1050B000A1F8BC4811F024FE4FF4006011F06EFF1F
:1050C000B94B93F82230AB427FF430AFB74BB84ABC
:1050D0001360B84AB84BDA6028E7BAF1030F00F062
:1050E000D880BAF1040F7FF458AF00250422B349E9
:1050F000384604F012FAB24B3846197804F02BFA0D
:10510000059B5A1C05921D70BBE0BAF1240F00F0FC
:10511000AB811FD8BAF1200F7FF43FAFDFF8B4A204
:10512000A84B9AF80120D91C1A709AF80020059112
:105130005A709AF80220BAF808109A70384604F0AB
:105140000AFA059B9AF80520591C05911A709AF8DD
:10515000062075E0BAF1280F00F0AB81BAF1380FE4
:105160007FF41BAF0522974B01245A700A220025B9
:105170009A70954A1C701178DD7019715178927887
:105180005971D91D05919A718AE0BAF1810F00F029
:105190006F8124D8BAF1540F00F09E8108D8BAF17B
:1051A000520F7FF4FAAE874B5A1C05921D7077E0C0
:1051B000BAF16E0F00F02781BAF1800F7FF4EDAEE7
:1051C000059A824B511C05910A211B881170FF2BF7
:1051D000A8BFFF23059A511C0591137047E0BAF14F
:1051E000A00F00F0318130D8BAF1820F7FF4D5AE34
:1051F000774B38461A78734BDFF8ECA1591C1A70BC
:10520000744B0591198904F0A6F9734B059A1B8814
:10521000511CFF2BA8BFFF2305911370DAF808106B
:10522000384681F3100189B204F095F9DAF80010DC
:10523000384601F30F0189B204F08DF9674B1A78F3
:10524000059B591C05911A702AE0BAF1B80F00F0BD
:105250000D81BAF1FE0F7FF4A0AE0024604D35F849
:1052600014103846013404F076F9042CF7D10025E7
:1052700007E0544BDA1C059225221D7083F801A02B
:105280009A7001240CE004225649384604F045F98E
:1052900006E002224B4B1A705A70DA1C05929C7081
:1052A000ADF81E40002C64D0059B56F80A0C0693FE
:1052B000444B059303681B6A03B19847059B069C02
:1052C000E41A00230E9324238DF834304D238DF8F7
:1052D0003530BDF91E30FF2C2246A8BFFF22013316
:1052E00000F071879DF82030002B14BF3C233E2333
:1052F000FE2CCCBF072705278DF83630BDF81C30B3
:105300008DF837208DF838303A46C8BF23120DA9E2
:1053100056F80A0CC4BF8DF83A308DF8394005F0C4
:10532000B6F80DAB1F4400230DF13702974240F051
:105330004D87002C8DF813300EDD2246059956F866
:105340000A0C05F0A4F8059B9DF813201C449C4210
:1053500040F041878DF8132056F80A0C01220DF118
:10536000130105F094F856F80A0C03685B6A03B160
:105370009847002306F8023C002D3FF4BEAD56F8D6
:105380000A0C0BF0F5FB56F80A0CA847B5E500BF70
:1053900058230020CBA400089C0F0020A9CE0108B0
:1053A0005423002079CE010882110020EFBEADDE2B
:1053B000F04F00200400FA0500ED00E0011A002083
:1053C000F0070020183A0020280E0020C40C00200E
:1053D000E61100204C2F0020D2110020482F002081
:1053E000C0120020AFCE0108EC1200200B22B349FE
:1053F000384604F092F80822B149384604F08DF896
:105400000722B04941E7B04BB04A1B88DFF8F4A24D
:10541000FF2BA8BFFF23511C0591DAF80810137069
:1054200081F3100189B2384604F095F8A84B38464C
:10543000198804F090F8DAF8001001F30F0189B22E
:10544000384604F088F82BE7A24B3846196804F078
:105450006EF8A14B3846196804F069F89F4B19683B
:10546000384604F064F81BE79D4BF8E79D4BF6E7E0
:105470004FF00A0A9C4B19689A68059B0392581CC6
:10548000059083F800A04FF6FF739942A8BF194614
:1054900021EAE17189B23846029304F05CF8039A7C
:1054A000029B0AFB02F19942A8BF194621EAE17169
:1054B000C5E70A22854BDFF848A29A70BAF80010B7
:1054C0001A1D1C7083F801E0DC703846059204F068
:1054D00042F8BAF80210B3E77C4A134603F8025BBD
:1054E00005935570DCE6099B0A9A9A420FBF29463C
:1054F0005A1C099219787D4A384611F081FD012421
:10550000A31C40F06483BAF1470F099B0A9A62D149
:1055100009A8A2EB030A05F0E2FBBAF1050F044665
:1055200055D909A805F0F1FB099B0A9982469942D1
:1055300002D009A805F0F4FB0599069BCDF808A058
:105540005B1A103B5345B8BF1FFA83FA684B3846C5
:1055500099680393091B8A4588BF1FFA81FA21467F
:1055600003F0E5FF039B45B95146384603F0F3FFCE
:105570000599039B481C05900D7057469B68E219DE
:105580009A42059988BF1F1B039104F00FFD3A460C
:105590000399204604F0EAFB059B03440593002D84
:1055A0003FF465AE0022029B83427FF760AE059B0D
:1055B0000130591C05911A70F5E7099B0A9A9A4225
:1055C0001DBF5A1C0992197829464A4A94E70125B9
:1055D0004FF0800AB0E7BAF1290FA2EB030437D0ED
:1055E000BAF1390F20D0BAF1210F49D15A1C0992D2
:1055F0001A46414C12F8021B16A8099261705A789B
:105600002270DA1C40F8342D9B78A37005F07DFBE6
:10561000099B20815A1C09921A4612F8021B6171DB
:1056200009925B78A37123E05A1C09921A780A2A1E
:1056300040F014869A1C09925978304A1170D91C8E
:10564000099199785170191D0991DB7893700FE0D9
:105650005A1C16AC44F8342D1B7820460A2B09D16D
:1056600005F053FB264D2880204605F04EFB688050
:105670000124ACE205F049FB204605F046FBF7E7C4
:10568000BAF15F0F00F04E8400F28781BAF1350F56
:1056900000F0028300F2B880BAF12B0F00F0EB8427
:1056A00047D8BAF1230F00F0E0822DD8BAF10B0FE2
:1056B00000F071854FF0FF3489E200BFC1C90108D5
:1056C000B8C90108A8CE0108D2110020183A00205C
:1056D000E8160020E8F7FF1FECF7FF1FF0F7FF1FA9
:1056E000441C0020541C0020F00C0020B96F01085D
:1056F00078020020AD6F01084C2F0020280E0020FA
:105700002C0E0020EC120020BAF1250F00F0A1842D
:10571000BAF1270FCED109A805F0F7FAC24C2060E4
:1057200009A805F0F2FA606009A805F0EEFAA06099
:105730009EE7BAF12F0F00F0F18457D8BAF12D0F80
:10574000B8D15A1C16AC44F8342D1B78B74D2046FE
:105750002B7205F0DAFAA883204605F0D6FA2883E2
:10576000204605F0D2FA099B68835A1C09921B78DF
:10577000EB740A9B9B1A032B07DD204605F0C5FA44
:10578000A884204605F0C1FAE884099B0A9AD21A37
:10579000032A0DDD5A1C09921A4612F8021B2046F4
:1057A000A97709925B7885F8203005F0AEFA688415
:1057B000099B0A9AD21A052A0CDD5A1C09921B78F9
:1057C0002046EB7205F08BFA099BE8605A1C09929F
:1057D0001B782B74099B0A9AD21A002A7FF748AFCC
:1057E0005A1C09921B7885F8213041E7BAF1310F34
:1057F00000F0AD84BAF1330F7FF45CAF5A1C09920C
:105800001A788A4B5A7533E7BAF1480F00F01D84B5
:105810003DD8BAF13C0F3FF42BAF25D8BAF1370F82
:105820007FF448AF0725B4FBF5F5C5EBC503E41AD3
:105830007FF440AF7E4BEDB2E2B2AA423FF418AF24
:105840004FF0000A099A511C099192F9002003EBCC
:10585000CA0797F90210914200F026850AF1010A61
:10586000BAF1040FF3D125E7BAF13E0F00F0CD8174
:10587000BAF1410F7FF41EAF00236C49099A501C06
:10588000099012785A540133082BF7D1F0E6BAF197
:10589000510F00F0B7832AD8BAF14C0F00F01E84E4
:1058A000BAF14E0F7FF406AF5A1C09921C78112CE6
:1058B0003FF600AF9A1C16A840F8342D5B785D4D7A
:1058C00005F8143005F021FA40F6CA039842A8BF43
:1058D000184640F2EE239842B8BF18461923A0F2AA
:1058E000EE2090FBF3F005EB44046070C0E6BAF1E3
:1058F0005B0F00F0D982BAF15D0F7FF4DBAE5A1C6A
:1059000016AC44F8342D1B784B4D20466B71D8F8FB
:10591000007005F0FAF938842046D8F8007005F0D8
:10592000F4F9099A0A9BF8839B1A072B13DD20468A
:1059300005F0EBF96881204605F0E7F9A8812046DB
:10594000D8F8007005F0E1F978842046D8F80070A6
:1059500005F0DBF9B884099A0A9B9B1A032B07DD33
:10596000204605F0D2F9E881204605F0CEF92882DC
:10597000099B0A9AD21A002A06DD591C0991D8F807
:1059800000201B7882F8263005F082FA0FF0CCF95F
:10599000D8F800000DF030FC6AE6BAF1D40F00F040
:1059A000018200F28480BAF1CA0F00F042814FD820
:1059B000BAF1B70F00F0D68014D8BAF1610F7FF4B6
:1059C00079AE5A1C09921A461C4912F8020B099228
:1059D000C87059781A4A5171DA1C09929A78194B91
:1059E000DA7045E6BAF1B90F00F03E83BAF1C80F9C
:1059F0007FF460AEC4F34704122C3FF65BAE002583
:105A00000DAFA542C0F2E68000230F4A0DA99C42CB
:105A100040F0E78000210C4A122B40F0E88001247E
:105A20000A4B1C70D3E000BFA8090020082C0020FE
:105A300082110020CF2A0020462C00208818002048
:105A40002E1800208C190020F0290020EE290020BB
:105A5000BAF1CE0F00F0CA8211D8BAF1CC0F00F023
:105A60003D81BAF1CD0F7FF425AE99F80030D9070A
:105A70003FF5FEAD4FF4C872BD4B1A80F8E5BAF1A0
:105A8000D00F00F0A682BAF1D20F7FF413AE5A1CE9
:105A90000992187805065DD499F80030DC073FF5C7
:105AA000E7AD032828BF002005F0DDF9E0E5BAF1F5
:105AB000DC0F00F0E78125D8BAF1D90F00F0BE81E4
:105AC00013D8BAF1D60F7FF4F5AD0024A94DAA4F33
:105AD0002B789C42BFF6CCAD09A805F016F914F05E
