:020000040800F2
:1000000000500020D90501087506010851F00008CC
:100010007506010875060108750601080000000054
:10002000000000000000000000000000750601084C
:10003000750601080000000075060108739C0008A1
:1000400075060108750601087506010875060108A0
:10005000750601087506010875A3000873A300085A
:100060007506010875060108750601087506010880
:1000700021E1000811E10008E97E00087506010889
:1000800001E10008F1E000087506010875060108A5
:1000900075060108750601087506010871A30008B8
:1000A0007506010865B200087506010875B20008FA
:1000B00055B2000845B2000835B20008FD540008EA
:1000C00001550008F5540008F954000875060108A8
:1000D00075060108E17E0008D97E0008D17E00087F
:1000E000D99D00087506010875060108000000008A
:1000F0000000000000000000000000000000000000
:0C01000000000000000000005FF808F1A3
:100110002DE9F04F838F9046828DA3B09A4288BF1D
:100120000387038F00F12407838724238DF8083089
:100130004D238DF809303E238DF80A300DF1080A61
:100140000B7804460D4600263846514605228DF8A8
:100150000B608DF80C300DF0FDF930B19DF80C30CE
:10016000A4F84A6084F8483013E0A38FD84A238764
:10017000A38DA38713780BB90423137029782388E0
:100180000091127804200192D24940F269120DF0D8
:1001900037FA2E784F2E00F01F8600F2B180342EF1
:1001A00000F0228443D8222E00F0FB8313D8032EC4
:1001B00000F0B48107D8012E00F09881022E40F0A3
:1001C000FF860025A0E1042E00F0B681052E40F048
:1001D000F7860025C0E1282E00F0008517D8242ED0
:1001E00000F0E284262E40F0EB86BB4D2046B5F8A9
:1001F0005C1109F0EBF8B5F85E11204609F0E6F85D
:100200002046B5F8601109F0E1F800F065BE2C2E2B
:1002100000F0FA84322E00F056852A2E40F0D08667
:10022000AD4B2046597909F009F900F055BE422E30
:1002300000F05C8531D83A2E00F089821CD8362E29
:1002400000F07C85382E40F0BB86A34D204695F803
:10025000821109F0F3F895F88611204609F0EEF8BE
:1002600095F88511204609F0E9F8204695F88711A0
:1002700009F0E4F800F030BE3D2E00F0A182402EDF
:1002800000F028853B2E40F09B86944B20461B6C4B
:10029000197809F0D3F800F01FBE472E00F06885EA
:1002A0001ED8452E00F0AD85462E40F089860AF016
:1002B00019FB8B4D40F00201C9B2204609F0BEF88F
:1002C0002988204609F044F8E968204609F040F8FA
:1002D0000AF076FF0146204609F03AF800F0FCBD2E
:1002E0004B2E00F0B6844D2E00F0EE80492E40F0EB
:1002F0006786794B2046998909F068F800F0ECBDD3
:10030000722E00F0D98370D8682E00F0FB8142D89D
:10031000642E00F03D810BD8502E00F04C85522EFB
:1003200040F04E862046002109F088F800F0D4BD48
:10033000662E00F0408100F26F816A4B674D19888C
:10034000204609F043F82988204689B209F03EF892
:100350006B682046C3F3C001C3F38002890041EA01
:100360004201C3F340021143C3F3401241EAC20108
:1003700003F01003194309F029F80CF0D3FD0146EE
:10038000204608F0E5FF544B204693F8E41609F0A8
:1003900055F800F0A1BD6D2E00F0CE811BD8692E5E
:1003A00000F0BB816C2E40F00B864C4D2046B5F81A
:1003B0005E1009F00BF8B5F86010204609F006F859
:1003C000B5F962300A2193FBF1F1204689B208F0B9
:1003D000FDFF00F081BD6F2E00F0FE81C0F0BD81F9
:1003E000702E00F04D8200F0EBBD7D2E00F03185C7
:1003F00016D8752E00F0CF8207D8732E00F0B08388
:10040000742E40F0DD8500252EE3782E00F00B8160
:100410007C2E00F00885772E40F0D285002541E340
:10042000A02E00F0B18337D87E2E00F02685962EC0
:1004300040F0C6852B4B294D1988204608F0C6FF91
:100440002988204689B208F0C1FF6B682046C3F3B3
:10045000C001C3F38002890041EA4201C3F34002B4
:100460001143C3F3401241EAC20103F010031943E0
:1004700008F0ACFF0CF056FD0146204608F068FF7E
:10048000154B204693F8E41608F0D8FF2046297B48
:1004900008F09CFF00F020BDF12E00F00981FE2E37
:1004A00000F06783F02E40F08B850C4D20462B6CBE
:1004B000B3F8661008F08AFF2B6C2046B3F864107E
:1004C00008F084FF00F008BD074D0026E1E300BFFF
:1004D000241F00205B580108D816002020050020AA
:1004E00000000020201F002082180020204600214C
:1004F00008F0A4FF3146204608F0A0FF2046102156
:1005000008F09CFF00F0E8BCCD4B2046595D01355A
:1005100008F094FF042DF7D100F0DEBC2046012145
:1005200008F08CFF20460C2108F088FF20460221AD
:1005300008F084FF00F0D0BC0025C24B2046595D76
:10054000013508F07BFF042DF7D1BF4B2046197809
:1005500008F03CFF00F0C0BCBC4B2046595D0135A3
:1005600008F06CFF0B2DF7D10025B94B2046595DE3
:10057000013508F063FF082DF7D10025B54B204663
:10058000595D013508F05AFF072DF7D100F0A4BCE2
:100590002046E72108F052FFAF4B2046597908F07A
:1005A0004DFF2046002108F049FF2046042108F0B5
:1005B000CFFE00F091BCA94B0025B3F8AA30B3F5EB
:1005C000806F8CBF08260126A54B204633F91510F5
:1005D000013591FBF6F189B208F0F8FE032DF3D155
:1005E0000025A04B53F825000FF0FAFC013581B22D
:1005F000204608F0EBFE032DF3D100259A4B53F86B
:1006000025000FF0EDFC013581B2204608F0DEFE3A
:10061000032DF3D100F060BC20469449102208F06D
:100620005DFE00F059BC4FF000090E2505FB09F5F1
:100630008F4E2046336C09F101092B44B3F8251184
:1006400008F0C4FE336C20462B44B3F8271108F0A1
:10065000BDFE336C20462B44B3F8291108F0B6FEDA
:10066000336C20462B4493F82B1108F0E7FE336CD3
:1006700020462B4493F82C1108F0E0FE336C204602
:100680002B4493F82D1108F0D9FE336C20462B44EF
:1006900093F82E1108F0D2FE336C20461D44D5F895
:1006A0002F1108F055FEB9F1080FBED100F014BCAF
:1006B000694D05F1700695F8D410204608F0BEFE8D
:1006C00095F8D510204608F0B9FE95F8D6102046CA
:1006D00008F0B4FE95F8D710204608F0AFFE95F864
:1006E000D810204608F0AAFE95F8D910204608F048
:1006F000A5FE073595F8D310204608F09FFEB542B9
:10070000D9D1E9E300255B4B204633F815100135BC
:1007100008F05CFE082DF6D1DEE30025544B93F87B
:100720005C309D4280F0D883534B204633F815103F
:1007300008F04CFE0135F1E74D4D2046696E08F09A
:1007400007FE2046B5F8681008F040FEC4E3484BA9
:100750002046D96E08F0FCFDBEE34FF6FF76474B0E
:10076000434D19882046FF29A8BFFF21C9B208F0D0
:1007700065FE296F2046B142A8BF314621EAE171EA
:1007800089B208F023FEB5F87410204608F01EFE6A
:10079000314BA96F93F88D315BB10A235943B142B4
:1007A000A8BF314621EAE171204689B208F00EFE69
:1007B00092E301F30F01204689B208F007FE8BE3B4
:1007C000254D204695F8EC1108F038FE204695F8A6
:1007D000EB1108F033FE7FE3254D2046EB6F2E46EC
:1007E000197808F02BFEEB6F2046597808F026FEAA
:1007F0004FF00009F36F20464B44197909F10109C4
:1008000008F01CFEB9F1030F194DF3D1EB6F204630
:10081000D97908F013FEEB6F2046997808F00EFEA8
:10082000EB6F2046D97808F009FEEB6F2046598916
:1008300008F0CCFDEB6F2046197A08F0FFFD4BE382
:100840007158010876580108231F00207B580108C1
:100850008758010890580108D81600206C0B00201A
:1008600030050020380500204405002050050020F8
:100870002005002064050020401E0020341E0020BA
:10088000CC4D00262B6C1B78022B6ED12B6C06F105
:10089000080253F82200C8490FF0B6F912F02AF9FD
:1008A00080F30801C9B2204608F0C8FD2B6CC3498B
:1008B00003EB8603D86A0FF0A7F912F01BF980F357
:1008C0000801C9B2204608F0B9FD2B6C06F10E02F2
:1008D00053F82200BA490FF097F912F00BF980F3A0
:1008E0000801C9B22046013608F0A8FD032ECDD17B
:1008F000072E2B6C24D1586CAF490FF085F912F0FC
:10090000F9F880F30801C9B2204608F097FD2B6C76
:10091000A949986C0FF078F912F0ECF880F308010F
:10092000C9B2204608F08AFD2B6C93F84C000FF0FA
:1009300013F912F0DFF880F30801C9B220460EE087
:1009400033445978204608F079FD2B6C2046334417
:10095000D97A08F073FD20462B6C3344597D01365B
:1009600008F06CFD0A2EC3D1B6E22B6C204633444E
:10097000597808F063FD2B6C20463344D97A08F08F
:100980005DFD2B6C20463344597D013608F056FD41
:100990000A2EEAD1A0E220468A492F2208F09EFCC6
:1009A0009AE20026834B0C211D6C864B05EB8605D5
:1009B00095F88520204601FB023393F8381008F0A3
:1009C0003DFD95F88610204608F038FD95F8871013
:1009D000204608F033FD0136204695F8881008F0CF
:1009E0002DFD142EDED177E20026724B20461D6CC1
:1009F000062303FB065595F8DA1008F01FFD95F85D
:100A0000D510204608F01AFD95F8D610204608F0BB
:100A100015FD95F8D710204608F010FD95F8D81070
:100A2000204608F00BFD0136204695F8D91008F055
:100A300005FD0C2ED9D14FE201311D2913D00C2216
:100A400002FB01F35F4800F1300E13F80E20B242B2
:100A5000F2D103445E6B304613F071F8314682B236
:100A6000204608F03BFC0135524B93F89C20954200
:100A700080F232828033EE5C0021E0E701311D29F3
:100A80000FD00C2202FB01F34E4800F1300E13F898
:100A90000E20B242F2D1034493F83810204608F0F9
:100AA000CDFC0135434B93F89C20954280F0148295
:100AB0008033EE5C0021E4E7434D2046B5F8A011F9
:100AC00008F084FCB5F84411204608F07FFCB5F826
:100AD0004611204608F07AFCB5F84811204608F087
:100AE00075FCB5F8E211204608F070FC20460021A4
:100AF00008F0A4FC2046002108F0A0FC20460021BC
:100B000008F09CFC95F88D11204608F097FC95F8AC
:100B10009B11204608F092FC2046002108F08EFC34
:100B2000244B0A211B6C2046B3F9623093FBF1F190
:100B300089B208F04BFC95F88211204608F07EFC43
:100B400095F88611204608F079FC95F88511204625
:100B500008F074FC204695F8871108F06FFCBBE1A3
:100B60000125E9B22046013508F068FC092DF8D1CD
:100B7000B2E10025154B204633F81510013508F079
:100B800025FC042DF6D1A7E1114B2046196808F089
:100B9000DFFB104B2046196808F0DAFB0E4B2046AD
:100BA000196808F0D5FB97E1074B2046996808F0D3
:100BB000CFFB91E120050020000020410000C84249
:100BC00000007A448C3D0108D8160020BE050020A4
:100BD000E8F7FF1FECF7FF1FF0F7FF1FCD4D204692
:100BE000B5F8881108F0F2FBB5F88A11204608F034
:100BF000EDFB95F88C11204608F020FC2046B5F856
:100C00008E1108F0E3FB67E1C24D204695F898117C
:100C100008F014FCB5F8A411204608F0D7FBB5F88D
:100C2000A011204608F0D2FBB5F8A211204608F02A
:100C3000CDFB95F89A11204608F000FCB5F8A611F6
:100C4000204608F0C3FB2046B5F8A81108F0BEFB0B
:100C500042E1B04D204695F8E01108F0EFFB95F821
:100C6000E111204608F0EAFBB5F8E211204608F051
:100C7000ADFB95F8E411204608F0E0FBB5F8E6116D
:100C8000204608F0A3FB204695F8E81108F0D6FBB3
:100C900022E1A14B023593F85C309E4280F01C812A
:100CA00015F8021C204608F0C9FB15F8011C204667
:100CB00001EB810101EB810101F2EE2189B208F023
:100CC00085FB0136E5E7934B204693F89B1108F02E
:100CD000B5FB01E100258F4B20462B4493F8901182
:100CE000013508F0ABFB082DF5D1F5E0894D204624
:100CF000697908F0A3FBA968204608F029FB95F85C
:100D00009811204608F09AFBB5F85C11204608F0CF
:100D10005DFBB5F85E11204608F058FBB5F8601190
:100D2000204608F053FBB5F88811204608F04EFB2A
:100D30002046B5F88A1108F049FBCDE0754D05F164
:100D40001806754A95F8041292F9A8004BB2984219
:100D500000F0198192F9B400984200F0148192F9E0
:100D6000C0209A4200F00F810835B542E9D1B3E0C6
:100D7000284608F097FB06462046314608F0E8FA78
:100D8000664BDD6806F18003AB428CBFAD1B80254E
:100D90000AF064F930462A46514609F0D7FD064666
:100DA0000025B54280F298801AF80510204608F018
:100DB00045FB0135F5E72046002108F03FFB2046C2
:100DC000002108F03BFB2046002108F037FB2046BD
:100DD000002108F033FB7FE02046002108F02EFBC5
:100DE0002046002108F02AFB2046002108F026FBBF
:100DF0002046002108F0ACFA2046002108F0A8FAAD
:100E00006AE00025464B2046595D013508F016FB87
:100E10000B2DF7D12046002108F09AFA2046002138
:100E200008F096FA58E03B4D2046B5F84C1108F012
:100E3000CDFAB5F84E11204608F0C8FAB5F85011B1
:100E4000204608F0C3FA2046B5F8521108F0BEFA61
:100E500042E0314D20462B6C93F81D1108F0EEFA5C
:100E60002B6C204693F81E1108F0E8FA2B6C2046F4
:100E700093F81F1108F0E2FA2EE0264D204695F86F
:100E8000581108F0DBFA95F85911204608F0D6FA07
:100E9000204695F85A1108F0D1FA1DE0C0F073848D
:100EA000D02E00F07D84D22E40F0B9801D4B1B78EF
:100EB00003F0040303F0FF0173B9AB6813F8012BCF
:100EC000AB60144B022A94BF83F8E42683F8E4163F
:100ED00005F0E0FC05F084FDA38FA18D033393FBA7
:100EE000F1F201FB1233B4F84A10626B3846D15468
:100EF00094F8481094F84A30594084F848100CF09F
:100F000055FBA38D80B1A3876368186A0CF0ECF8D9
:100F10001BE000BFD81600202005002000000020A4
:100F20007B580108221F0020A28FA3872287B84A7E
:100F300013780BB9042313701278238804200092CD
:100F4000B4494FF4EC720CF05BFBB34B93F8EF3009
:100F5000002B00F09B85D8F824000CF072FA48B101
:100F6000AE4B1C461D680CF025FC23685B1B0A2B4E
:100F7000F9D9F0E708F0B4FF05F01CFCA84AA94B2A
:100F8000DA6000F083BD204608F058FAB5F8061282
:100F9000204608F01BFA95F80812204608F04EFA91
:100FA00095F80912204608F049FA95F80B122046E8
:100FB00008F044FA204695F80A1208F03FFAD3E602
:100FC0004E2E64D1AB681A4612F8019BB9F1110F8D
:100FD000AA6024D8944E5A7809F1D4090233AB6040
:100FE00006EB49039A70284608F06BFA40F2ED23AD
:100FF000984205DD40F6CA039842A8BF184601E0B2
:1010000040F2EE20A0F2EE20192390FBF3F006EB65
:101010004906F07060E701321D2A40F0C680A38FB8
:10102000A28D00269A4288BF2387238F3846A38744
:1010300024238DF808304D238DF8093021238DF8B5
:101040000A302B78514605228DF80B608DF80C3054
:101050000CF080FA30B19DF80C30A4F84A6084F8A6
:10106000483039E7A38F6A4A2387A38DA387137873
:101070000BB9042313702978238800911278042077
:1010800001926A494FF4E2720CF0BAFA24E700F2D6
:101090000782372E3CD16B780726B3FBF6F6C6EBFA
:1010A000C6029B1A13F0FF0FB9D1F6B2013EF6B299
:1010B000FF2E3FF411AFAB6813F8019B5FFA89F97B
:1010C000AB604FFA89F00CF053FE83460028A6D09F
:1010D00080F80090284608F0F4F9AB68ABF80200FD
:1010E00013F8012BAB608BF80420AB6813F8012BCD
:1010F000AB608BF80520AB6813F8012BAB608BF865
:101100000720AB6813F8012BAB608BF80620CDE706
:1011100000F20E81292E16D1284608F0D2F9424E4F
:10112000A6F88801284608F0CCF9AB68A6F88A0131
:1011300013F8012B2846AB6086F88C2108F0C1F922
:10114000A6F88E01C8E634487AD8252E09D1364E45
:1011500000232846B36008F0A5F9B3681843B060CF
:10116000BAE6272E10D1284608F0ABF92E4EA6F885
:101170005C01284608F0A5F9A6F85E01284608F0AB
:10118000A0F9A6F86001A7E6232E7FF448AFAB686C
:101190001A4612F8011B1329AA603FF640AF93F8D4
:1011A00001C0066C0233AB6000220C235343DFF80E
:1011B0008CE00EEB030999F83890E1457FF42BAFF2
:1011C000734493F8303006EB810282F88530AB68C7
:1011D00013F8011BAB6082F88610AB6813F8011B93
:1011E000AB6082F88710AB6813F8011BAB60104B43
:1011F00082F88810C0F8D0300E4B06F185001E60D2
:101200000DF05CF80C4B80F00100187464E600BF30
:10121000241F00204258010820050020700C0020E7
:101220000400FA0500ED00E0D81600205B58010824
:101230001C180020EC1D0020000000208C3D01083F
:101240002D2E2AD1AB68A24E13F8012B2846AB6095
:1012500086F8982108F035F9A6F8A401284608F088
:1012600030F9A6F8A001284608F02BF9AB68A6F8DB
:10127000A20113F8012BAB6086F89A216B78082B3A
:101280007FF62AAE284608F01CF9A6F8A6012846E3
:1012900008F017F9A6F8A8011EE609D82B2E7FF44E
:1012A000BEAEAB6813F8012BAB60894B5A7113E6E5
:1012B000332E07D1AB6813F8012BAB60844B83F856
:1012C0009B2109E6352E7FF4AAAEAA68134613F8CF
:1012D000011B0B29AB603FF6A2AE036C50780232C3
:1012E0000328AA603FF69BAE062202FB013383F877
:1012F000DA00AA6812F8011BAA6083F8D510AA6860
:1013000012F8011BAA6083F8D610AA6812F8011B14
:10131000AA6083F8D710AA6812F8011BAA6083F8A4
:10132000D810AA6812F8011BAA6083F8D910D3E577
:10133000432E2DD1AB68664E13F8012B2846AB60C7
:1013400000237271B36008F0ADF8B3681843AB685E
:10135000B06013F8012B2846AB6086F8982108F09E
:10136000B0F8A6F85C01284608F0ABF8A6F85E01D4
:10137000284608F0A6F8A6F86001284608F0A1F86B
:10138000A6F88801284608F09CF8A6F88A01A3E58B
:1013900049D83C2E09D14F4B1A6CAB6813F8010B9E
:1013A000AB60107008F0B8FE96E51CD8392E7FF4BB
:1013B00036AEAB6813F8012BAB60454B83F8822146
:1013C000AA6812F8011BAA6083F88611AA6812F8AD
:1013D000011BAA6083F88511AA6812F8011BAA6094
:1013E00083F8871178E53E2E0DD1AB68384A13F8A3
:1013F000011BAB6082F8EC11AB6813F8011BAB600A
:1014000082F8EB1168E5412E7FF409AE0023AA684B
:1014100012F8011BAA602E4A1A440133082B82F8E5
:101420009011F4D158E5482E02D109F0DDFE53E5C4
:1014300007D8442E7FF4F3AD264B012283F8EF202A
:101440004AE54A2E05D1284608F03BF8204B988102
:1014500042E54C2E7FF4E3ADAB681D4E13F8012B33
:101460002846AB6086F8E021AB6813F8012BAB602F
:1014700086F8E12108F025F8AB68A6F8E20113F838
:10148000012B2846AB6086F8E42108F01AF8AB6817
:10149000A6F8E60113F8012BAB6086F8E8211BE5FE
:1014A000D32E06D1284608F00CF80A4BA3F8CC003E
:1014B00012E500F29181CD2E10D1074B1B78590710
:1014C0003FF50AAD034B4FF4C872A3F8EC2003E5D7
:1014D000D816002020050020221F002000F2F980ED
:1014E000CA2E40F08580B54A136C934619780229BC
:1014F00069D103F11C0A03F12806D5F808904B4680
:1015000013F8010BAB600EF027FBAD490EF030FC79
:1015100009F102034AF8040F99F80100AB600EF0DC
:101520001BFBA8490EF024FC09F10303CAF80C00C8
:1015300099F80200AB600EF00FFBA3490EF018FC07
:10154000B245CAF81800D8D1DBF840A04FF0030923
:101550000AF1040BB9F1070FAE681AD1334613F83C
:10156000010BAB600EF0F8FA95490EF001FCB31CCC
:10157000CAF844007078AB600EF0EEFA90490EF0B5
:10158000F7FBCAF84800B3780336AE608AF84C30EF
:1015900011E016F8013BAE608BF80030AB6813F831
:1015A000012BAB600AEB0903DA72AB6813F8012B6D
:1015B000AB608BF8142009F10109B9F10A0F0BF1A6
:1015C000010BC7D188E403F10A01AA6812F8010BE4
:1015D000AA6003F8010FAA688B4212F8010BAA60F7
:1015E0009872AA6812F8010BAA601875EDD173E41D
:1015F000CC2E42D16B78092B7FF611AD6F4BDE6F8D
:10160000AB68F01C13F8012BAB603270AB6813F8B9
:10161000012BAB6072700023A968022B11F8012B1B
:1016200003F10103A9600CBFFF2164218A42A8BF16
:101630000A46032B00F8012FEED1AA68284612F8BB
:10164000013B642B28BF6423AA60F371AB6813F8D5
:10165000012BAB60B270AB6813F8012BAB60F2707A
:1016600007F02FFF70816B780A2B7FF635ACAB68E3
:1016700013F8012BAB6032722EE4C82E7FF4CFAC8E
:101680006E787608122E3FF6CAAC4FF00009B145CD
:1016900007D2284607F015FF2AF8190009F10109B9
:1016A000F5E732460023B34206DA3AF81300474919
:1016B00021F813000133F6E7122A05D0434B00212D
:1016C00023F812100132F7E73C4B012283F8CE20B9
:1016D00002E4CF2EDFF8E4907FF4E0AB284607F079
:1016E000F0FE6FF4AF6683199BB2394EC62B98BFDC
:1016F000A6F8A001284607F0E4FEA6F84401284613
:1017000007F0DFFEA6F84601284607F0DAFEA6F845
:101710004801284607F0D5FEAB68A6F8E201DA1CBE
:10172000AA60DA780433AB6086F88D21AB6828466E
:1017300013F8012BD9F84090AB6086F89B21AB6879
:101740000133AB6007F0BDFE00EB8000AB684000EA
:10175000A9F8620013F8012BAB6086F88221AB6810
:1017600013F8012BAB6086F88621AB6813F8012BC8
:10177000AB6086F88521AB6813F8012BAB6086F867
:101780008721FFF7A9BB134B1B785A073FF5A4AB82
:1017900099F8EE3043F0040389F8EE30FFF79CBB74
:1017A0000C4B1B7858073FF597AB05F0CDFA05F0C9
:1017B00071F805F015F9FFF78FBB00BF2005002079
:1017C000000020410000C84200007A449C1600201E
:1017D000D8160020221F0020DB2E6BD1AD4B1E211E
:1017E0001B6C2826D9721973322119710F21597176
:1017F000222199710E211974352199761921D971F7
:101800002121012517224FF02D0E5E709E70597414
:101810005E72532178261D705A759A7583F80DE013
:101820005522D9769E72142183F814E09D774FF4E7
:10183000FA7683F85450DFF888E2974D0A20DA7080
:10184000197200226421A3F84E600026DA759A739B
:101850001A76DA735A761E6598741977C3F820E001
:10186000DD621D635D638D4D8D4E1D648D4D9E63E8
:101870005D648D4DDE6383F85B208C4E4FF4E17226
:101880009D64A3F85C204B251022C3F824E09E62DF
:1018900083F84C5083F8550083F8560083F85700BE
:1018A00083F8581083F8591083F85A1083F85E2093
:1018B000FFF712BB00F28280D62E0BD100262846FD
:1018C00007F0FFFD7A4B23F816000136082EF6D1FB
:1018D000FFF702BB6F4A40D8D42E7FF4A0AB6B78E1
:1018E0000F2B7FF49CABAB6813F8019BB9F1070F8A
:1018F000AB603FF694AB2846166C07F0E2FD0E2372
:1019000003FB0966A6F82501284607F0DAFDA6F8CC
:101910002701284607F0D5FDAB68A6F8290113F882
:10192000012B2846AB6086F82B21AB6813F8012BFE
:10193000AB6086F82C21AB6813F8012BAB6086F8FE
:101940002D21AB6813F8012BAB6086F82E2107F030
:10195000A9FDC6F82F01FFF7BFBAD92E16D1284628
:1019600007F0AFFD534EA6F84C01284607F0A9FD3D
:10197000A6F84E01284607F0A4FDA6F85001284617
:1019800007F09FFDA6F85201FFF7A6BADA2E7FF402
:1019900046AB136CAA6812F8011BAA6083F81D11EC
:1019A000AA6812F8011BAA6083F81E11AA6812F82F
:1019B000011BAA6083F81F11FFF78EBAEF2E0DD11D
:1019C000344B28461E6C07F07CFDA6F866002846BE
:1019D00007F077FDA6F86400FFF77EBA18D8DC2E72
:1019E0007FF41DABAB681A4612F8011B981CAA6065
:1019F000304A033382F8581113F8021CA86082F8A9
:101A0000591113F8011CAB6082F85A11FFF764BA40
:101A1000F22E31D1AA68114611F8013B0F2BA960B3
:101A20003FF6FDAA51780232AA60234AC3EBC303F2
:101A300013441971AA6812F8011BAA605971AA68A7
:101A400012F8011BAA609971AA6812F8011BAA601A
:101A5000D971AA6812F8011BAA601972AA6812F853
:101A6000011BAA605972AA6812F8011BAA60997238
:101A700008F076FAFFF730BAFA2E7FF4D0AA0F4BAF
:101A80001B785B073FF5CBAAFFF722BA23B0BDE86E
:101A9000F08F00BF20050020CDCCCC3E0AD7233CE0
:101AA0008FC2F53C0000A0400000404000006040B4
:101AB000F4050020D8160020A8170020221F0020BF
:101AC0003333B33F2DE9F04F9D4F8BB004F0D2FA82
:101AD0003B6813F480420AD09A480021027832B160
:101AE000994A017001201070984A1170C822D807D5
:101AF00003920CD5944A51789078884207D00120FF
:101B0000D07092480024917064224470039299042A
:101B100009D500238E4A32F81320002A41F0538061
:101B200001330C2BF6D1039B23B9874B9DF80C2076
:101B30001A70DA70874B884A1D7811680492C5B113
:101B4000864A1268914240F22281013D1D701EE1D9
:101B5000DAF80030072C98BF195D7C4B88BF21460E
:101B60005B687F489847032C0ED908EB4404A0809B
:101B700001357B4BECB21A78DFF8CC81A242DFF85A
:101B8000FCA11A46E4D820E0DAF8002004F10E03A4
:101B900002EB8303D9881A890028E6D0401A4FF453
:101BA0007A734343501A93FBF0F040F6C90300F5F3
:101BB0007A70984205DC40F2EE239842B8BF18468E
:101BC00001E040F6CA0080B2CFE742F201063B686E
:101BD0001E40B6FA86F6634B7609D3F800B036B9E4
:101BE00098F8033088F80030584B5978197098F8F5
:101BF00000501DB1554B1D7885F001050F2388F865
:101C00002830DAF8003098F829A04FF0030CBAFB1E
:101C1000FCFC0CEB4C0CCCEB0A0C92F80090DFF8BF
:101C200060815FFA8CFC00244C4551DA1DB14E4AAC
:101C300032F8140000E02846DA8A4C49824202D881
:101C40001A8B824220D251F824103F4A8B4503D28E
:101C5000474A32F814001BE0E0B2CDF818C00593F3
:101C600007920CF06BFD032C059BDDF818C00FDC10
:101C7000079A4FF0010E92F828100EFA04FE21EA9E
:101C80000E0182F8281003E00BF5967241F824202B
:101C9000BEB92D4A28F81C0092F8BC1029B9BAF137
:101CA000020F0ED9012182F8BC10B8F80020B8F854
:101CB00002001044B8F80420104480B20322B0FBA4
:101CC000F2F02B4A08F1060822F814000134ABE7C1
:101CD0001D4D244995F82830A3F10F02534253417A
:101CE00085F8BD30234A8BB1234B1B685B0102D5BD
:101CF0003B68DE050AD40B689360D2689B1AC82B38
:101D000040D91C4B012283F821203BE00F4B0120DE
:101D1000587018700B689168D36052685B1A9342D0
:101D200082BF144B002283F8212000244C4529DA7D
:101D3000E0B20CF003FD0E4B23F814000134F5E77C
:101D40003C1E0020EE05002010060020140000209C
:101D5000C0160020681E002054140020641E0020BD
:101D60007C0500206C1E0020140600208406002044
:101D7000401E0020701E002008160020381E002083
:101D80003A06002095F82930013385F829303B6860
:101D9000DC0405D5AC4B1B68D80701D40DF04AF91B
:101DA000049B1C68A94B1A68D07AB8B1A849537B28
:101DB000013831F810001BB1C0F53B60083080B22B
:101DC00000B2A0F57A70B0F57A7FA8BF4FF47A70B0
:101DD00020EAE0700DF0C4FE9E4934E03B6819042F
:101DE0003AD59D4DD5F8C030E31A002B34DB04F50D
:101DF0009C432033C5F8C030984B127B5979984BDF
:101E000033F8113095F8C4109BB293FBF2F3013113
:101E100001F00F0285F8C4202A4482F8C530034639
:101E2000904A825C0130134410289BB2F8D11BB257
:101E300093FBF0F000B26428A8BF642020EAE070B1
:101E40000DF08EFE88490DF093FF88490DF0DCFE01
:101E50000EF0C6F8864B18803B68864D13F4807FE1
:101E600000F01D81844BDFF814B29C4205D99BF829
:101E7000023013B901238BF802309BF80230002B9B
:101E800000F00D817D4B2E7893F821406E4B621E41
:101E90009946544254411A68002CC6F38006C2F396
:101EA000806814BF4FF0000A4FF0030A9BF82030FF
:101EB000052B00F2EE80DFE803F0034E628695B258
:101EC000002E3AD0644BD3F8D800B3F8DC100CF0F5
:101ED000A7F8012809D16A4A6A4B12681B68D288A0
:101EE000642101FB0233CBF81030B8F1000F0BD0A6
:101EF000634B1B681B793BB109F0F4FF03238BF89C
:101F000020304FF47A7337E0002C40F0C2805D4BF4
:101F1000DBF810201968594B91420AD9049309F053
:101F2000E1FF049B032283F8202040F6B832DA61F7
:101F3000BCE7012283F82020B8E74FF48060B8F1B5
:101F4000000F02D004F026FC01E004F013FC002393
:101F5000CBF810309DE0002C56D1494B1B681B7A02
:101F6000012B02D009F0BEFFA0E709F0BBFF03235D
:101F70008BF8203040F6B833CBF81C3096E724B10C
:101F800005238BF82030012100E021466EB1324B51
:101F90004FF0020AD3F8D8301A8A2D4B1A805A8093
:101FA0009A80374A12685288DA80364B1A68DBF812
:101FB00014309A4201D8002E68D147F23053CBF842
:101FC0001C30032321E02B7843F002032B700DF02B
:101FD00031F82C4BDBF81C201B681344CBF818306D
:101FE000042312E0274B9CB11A68DBF818309A42A0
:101FF0004FD9254B1B781BB9D9F80030DB0748D4E3
:102000002B7823F002032B7005238BF820304DE74B
:102010001B68DBF81C201344CBF8183039E0184A51
:10202000184B12681B68D288642101FB02334FF4FD
:102030008060CBF8103000238BF820308BF8033011
:1020400004F098FB32E700BF08160020381E00207D
:10205000401E002000007A4410060020F41D0020DD
:10206000041E0020D50600200000C84200C07F44A6
:1020700094050020221F0020404B4C00701E0020C1
:10208000401500206C1E00201000002000297FF465
:102090000DAFBAF1000F02D050460BF0EFFFA24E89
:1020A000B6F8521106F5C8700BF0BAFF81469F488A
:1020B000B6F8A031B0F9022003F10B01914283463A
:1020C0000BDB0B3B934208DCB0F90020914204DBB0
:1020D0009342CCBF0023012300E00023B9F1000F9D
:1020E0000FD1934A1268100111D5924AD27872B971
:1020F0002A7851070BD523B18F4A137843F0200378
:1021000003E08D4A137823F0200313700BE009F0ED
:10211000D9FE8A498A4B0020002208601A60486074
:102120005A6088609A602B785A0735D53B68DB0681
:1021300032D5814B1B78DC062ED4824B824C1B7827
:102140008BB196F8EC31B9F1000F14D173B17F4B1C
:102150001A68D4F8E0309B1A002B07DA0CF06AFFFB
:1021600084F8E49018E0B9F1000F0DD110200BF0C5
:1021700085FF01230EE03BB1744A4FF47A71126877
:1021800001FB0323C4F8E03094F8E43023B10BF0F2
:1021900061FF002384F8E43096F8EA3196F8EB11F9
:1021A000049300231A46B6F8A241B6F8A4E13BF91D
:1021B00013009208A042C4BF62F07F02D2B2013382
:1021C0007045B8BF42F04002042BF0D15E4C94F849
:1021D000E530934205D194F8E630F92B04D8013369
:1021E00000E0002384F8E630564B84F8E5201A78A6
:1021F000DFF83C819A46E2B9D8F80030D80708D514
:10220000B9F1000F15D12B78D90712D50CF0D8FEF3
:102210000FE02B785A070CD54B4B1B784BB1454B35
:10222000DB7833B911B10CF005FF02E0B9F1000F12
:10223000F9D094F8E630444A142BDFF81C9140F0B2
:10224000A580049B003318BF012304939AF8003043
:1022500063B392F8E5305F2B11D12B7803F00403C0
:1022600003F0FF0113B10CF0E5FE08E00B2006912E
:1022700005920BF003FF059A069982F8E610049B7D
:10228000A3B194F8E5307D2B10D12B7803F0040333
:1022900003F0FF0213B10CF0CDFE07E00B20059216
:1022A0000BF0ECFE284B059A83F8E6202B7803F020
:1022B000040303F0FF01002B68D194F8E530224AB3
:1022C000572B0AD14FF47A73A2F8E830204B1B68E1
:1022D0005B075BD50A221F4B4FE03868400717D5D4
:1022E0005A2B15D192F8EA302BB1012382F8EA106B
:1022F00082F8EB304AE092F8EC3083F0010382F888
:10230000EC300BB10C2000E00D200BF0B7FE3DE0EF
:102310005D2B00F062845B2B00F061845E2B1DD18D
:10232000032000F05DBC00BFD8160020401E002036
:1023300008160020701E00200E060020800F0020CE
:10234000F814002010000020100600206C1E002051
:10235000240500205C14002060050020562B01D1CC
:1023600004F0E8FC9AF800304BB994F8E530972B6C
:1023700040F04E84B34B4FF4C8721A8006E094F8D4
:10238000E5306F2B40F03B840CF01AFE3B68580799
:1023900037D594F8EC30AC4A93B12B7859070FD568
:1023A000BBF90610B6F8A231994209DDD8F8003021
:1023B00013F0010302BF3221A2F8EE1082F8EC30D4
:1023C000D8F80030DA030DD594F8F0209E4B2AB9E6
:1023D00093F8EA2012B93222A3F8EE20012384F800
:1023E000F0300EE094F8EA30974A53B12B7803F0BE
:1023F000040303F0FF0123B9012382F8EA1082F8F5
:10240000EB30D9F800900023C8F8003009F18705B7
:1024100009F1D70A2A786B7815F8010C9A420DD287
:1024200029460BF0D9FD48B115F8022C012303FA17
:1024300002F2D8F800301343C8F80030043555458F
:10244000E8D1824B1B784BB1814DDFF81C822B68A1
:10245000804E13F0020F40F0F382EBE209F1D50554
:1024600009F21D196A78AB7828789A4228D2691C3B
:102470000BF0B2FD20B369790C2303FB0143D3F8C1
:10248000FC20AA421CD0C3F8FC50287903F1F402C6
:1024900083F8F40000205060EB785370EB780C2B3D
:1024A0004FF0010304BF93700323D37018BF9070E3
:1024B000012394F824218B4022EA030384F8243179
:1024C00006354D45CED1644BDFF8A0811D68634BC6
:1024D0001B680593237806930023049398F80090D3
:1024E000B9F1000F00F09D82D8F80330059AD31A95
:1024F000002B0CDB02F5FA73049AC8F803300123B1
:10250000934094F8242122EA030384F82431069BA3
:10251000002B00F0868218F8013C98F80120043363
:10252000DBB2002A40F038823BF913204C4BB3F861
:10253000A03103F1C8018A4202DD98F802A016E03A
:10254000C83B9A4204DA98F802C0CCF1000A0EE0C7
:10255000049A0123934094F8242122EA030384F887
:102560002431059B03F5FA73C8F8033059E294F857
:102570002431049A1341DB0700F15382BAF1000FB2
:10258000CCBF022001200BF09BFD09F1FF33252B6E
:1025900000F23F82DFE813F02600330043006C00B6
:1025A00085008D00A200B900D000D700E1003D02F7
:1025B0006C0078008D00A200B9009B00B100C8003B
:1025C0001F012E013D01D301E201F101C4014C01C3
:1025D0005B016A01790188019701A601B501EB0051
:1025E000F300FF002B7803EB0A0CBCF1FA0FA8BF35
:1025F0004FF0FA0C2CEAEC7C85F800C00BE06B780D
:1026000003EB0A0CBCF1640FA8BF4FF0640C2CEA7A
:10261000EC7C85F801C028460BF0C4FCF9E1EB78AE
:10262000284603EB0A0CBCF1640FA8BF4FF0640C02
:102630002CEAEC7C0B4B85F803C019680BF069FCA5
:10264000E7E100BF0C06002010060020251F002037
:1026500008160020061600209C0500206C1E002095
:10266000D8160020F00500202405002005070020D2
:102670006B795344642BA8BF642323EAE373B9F155
:102680000D0F6B7100F0C5812B7903EB0A0CBCF1C7
:10269000640FA8BF4FF0640C2CEAEC7C85F804C0F2
:1026A000B7E1AB7903EB0A0C8CF3080C85F806C094
:1026B000AFE1C14B52461968C8230093881CBF4B39
:1026C00024310BF073FEB9F10F0F00F0A281BA4B69
:1026D0001968C823481C0093203157E0B64B524676
:1026E0001968C823009301F10C00B54B30310BF091
:1026F0005DFEB9F1100F00F08C81AF4B1968C82353
:1027000001F10B0000932C3124E0AB4B52461968C9
:10271000C823009301F11600AA4B3C310BF046FE92
:10272000B9F1110F00F07581A34B1968C82301F1AD
:1027300015000093383117E09F4B1968C823C81C57
:102740000093283122E09C4B1968C82301F10D0049
:102750000093343152469A4B1AE0974B1968C823BC
:1027600001F11700009340315246964B10E0924B16
:102770001968C82301F108000093443106E08E4B2C
:102780001968C82301F112000093483152468B4B5F
:102790000BF00CFE3DE1884B1A681378022B0DD12B
:1027A00092F84C3003EB0A0CBCF1C80FA8BF4FF0F5
:1027B000C80C2CEAEC7C82F84CC02AE1137F03EBB6
:1027C0000A0CBCF1C80FA8BF4FF0C80C2CEAEC7C77
:1027D00082F81CC01DE1784B1A68137903EB0A0CD0
:1027E000BCF1C80FA8BF4FF0C80C2CEAEC7C82F8F3
:1027F00004C00EE1704B1A68937B03EB0A0CBCF12A
:10280000C80FA8BF4FF0C80C2CEAEC7C82F80EC0B1
:10281000FFE0694B1A68137E03EB0A0CBCF1C80F8A
:10282000A8BF4FF0C80C2CEAEC7C82F818C0F0E08E
:10283000614B1A68537903EB0A0CBCF1C80FA8BFAF
:102840004FF0C80C2CEAEC7C82F805C0E1E05A4B52
:102850001A68D37B03EB0A0CBCF1C80FA8BF4FF07A
:10286000C80C2CEAEC7C82F80FC0D2E0524B1A68FC
:10287000937903EB0A0CBCF1C80FA8BF4FF0C80C4A
:102880002CEAEC7C82F806C0C3E04B4B1A68137C40
:1028900003EB0A0CBCF1C80FA8BF4FF0C80C2CEA20
:1028A000EC7C82F810C0B4E0434B1A68937E03EBD3
:1028B0000A0CBCF1C80FA8BF4FF0C80C2CEAEC7C86
:1028C00082F81AC0A5E03C4B1A68D37903EB0A0CD6
:1028D000BCF1C80FA8BF4FF0C80C2CEAEC7C82F802
:1028E00007C096E0344B1A68537C03EB0A0CBCF12A
:1028F000C80FA8BF4FF0C80C2CEAEC7C82F811C0BE
:1029000087E02D4B1A68D37E03EB0A0CBCF1C80F8D
:10291000A8BF4FF0C80C2CEAEC7C82F81BC078E012
:10292000254B1A68537A03EB0A0CBCF1C80FA8BFF9
:102930004FF0C80C2CEAEC7C82F809C069E01E4B11
:102940001A68937A03EB0A0CBCF1C80FA8BF4FF0CA
:10295000C80C2CEAEC7C82F80AC05AE0164B1A68C4
:10296000137D03EB0A0CBCF1C80FA8BF4FF0C80CD5
:102970002CEAEC7C82F814C04BE00F4B1B689A7F6A
:1029800002EB0A0CBCF1C80FA8BF4FF0C80C2CEA30
:10299000EC7C83F81EC03CE0012A3AD13BF91300DD
:1029A00098F80220B0F5617F0EDB40F633039842C1
:1029B000A8BF18460AE000BFEC1D0020000020411F
:1029C0000000C84200007A444FF46170B9F10C0F66
:1029D0001FD14FF4966393FBF2F3A0F5617090FB67
:1029E000F3F0A94AC0B21378834212D0042834BF4E
:1029F00003460223137009FB0363A44A03F2E66350
:102A00000790136003F000FF07980130C0B20BF08D
:102A100057FB049A0123934094F82421134384F82C
:102A20002431049B08F10C080133042B04937FF438
:102A300055AD09E53B68D80510D5954BDB786BB1F2
:102A4000D8F80030990709D5338813F001070AD167
:102A500009F038FA012003F09DFE04E0012003F0A4
:102A600089FE012300E000232A6852070CD55BB1E0
:102A7000012003F07FFE33889B0708D409F022FA77
:102A8000022003F087FE02E0022003F073FE338889
:102A9000804A13F0030F4FF0100114BF5161116110
:102AA000D8F8002012F00A0F2CD02A68D7060DD5CE
:102AB00058070ED4042003F06DFE774B0A22B3F9B9
:102AC000043093FBF2F3754A138002E0042003F014
:102AD00051FE2B68990606D533885A0606D4402045
:102AE00003F058FE02E0402003F044FE2B685B0632
:102AF00041BF694B0A22B3F9043093FBF2F348BF9C
:102B0000A4F826312B684FF480701F0502D503F01E
:102B100041FE01E003F02EFE614B5B79082B01D0F2
:102B20000E2B02D1402003F025FE012384F828312A
:102B300094F82931FBB1D8F8003058071BD52B6821
:102B4000190703D4082003F015FE14E0348804F0BC
:102B50000804A4B27CB9082003F01CFE514B1A688B
:102B6000514B1A60514BBBF80620A3F82A21504B59
:102B70001C60504B1C604D4F97F82931002B7FD0C3
:102B8000D8F80030DA067BD52B689B0204D44FF4CA
:102B9000007003F0EFFD73E0348804F40074A4B215
:102BA000002C6DD14FF4007003F0F4FD3D4B1A681A
:102BB0003D4B1A60BBF80630A7F82A313C4B1C602D
:102BC0003C4B1C605CE0394B0122DA703A4B00222E
:102BD0005A7064230393FEF7ADBF012000E002208A
:102BE0005FFA80FA0AF1FF3386F8E43603F052FE0A
:102BF00003F0F6FE50460BF063FAFFF7C7BB049AEA
:102C0000002A3FF4B2AB7E2B7FF4AFABFFF7BCBB27
:102C1000A72B06D1294A137843F004031370FFF75A
:102C2000B5BB0022BB2B099201D1022303E0B72BD5
:102C300004D14FF6FE73ADF826300AE0BE2B01D169
:102C4000022304E0BD2B7FF4A1AB4FF6FE73ADF879
:102C50002430D9F80020BDF82410B2F864300B44B9
:102C6000A2F86430BDF82610B2F866300B44A2F822
:102C7000663004F05FF8002384F8E630FFF786BB87
:102C800003980BB0BDE8F08F041600209C050020CF
:102C9000701E0020000C01407E050020EC05002085
:102CA000D816002084050020C4140020100600203F
:102CB000CC140020D0140020140000200E060020A8
:102CC0002DE9F04F95B0074603F0D4F99F4B85B23C
:102CD0001D8028460CF040FF9D4982460CF094FF71
:102CE0009C4C9D4B06461860002160680DF020F951
:102CF00008B19A4B6360616830460CF07DFE014676
:102D000030460DF035F8D4F8009006464946504656
:102D10000CF070FE014630460CF076FF0146484646
:102D20000CF06AFE20600DF05BF98D4E80B23288A7
:102D30008C4BAD1AA081801ABA8D1D809A808A4A68
:102D40008A4D12795880DA808948D5F888309847BA
:102D5000DFF800823746069548B9864F864E3B68B5
:102D6000039713F0020F40F00F8100F096BDD8F8E2
:102D70001090002148460DF0DBF870B17F4E33888B
:102D8000002B00F0BD80D4F888307D4F1B7807F110
:102D90000C0503934FF0000873E098F814309BB9CA
:102DA000C8F81830A5696B4E022D0BDC06F11C0328
:102DB000242101FB053148463A68013503F015FA34
:102DC000B561EFE701233375237D002BD6D0614B2E
:102DD00000229A61A5695F4E022DCFDC644F06F197
:102DE0001C03242101FB053157F8250003F0CAF923
:102DF0000FF080FE0CF0B4FE47F825000135B561F8
:102E0000E8E7D5F800C0484661460892CDF814C0FE
:102E100007930CF0EFFD079B834618460CF0A0FECD
:102E2000014658460CF0A4FFDDF814C00146604688
:102E30000CF0E2FD034668601946484605930CF025
:102E4000D9FD014658460CF0DFFEA9680CF0D4FD10
:102E5000059B089AE8602B60A860454BDFF8249139
:102E60004AF8032000234AF80930049B012B2BD099
:102E700008F10108B8F1030F07F1040705F1140583
:102E80004AD033884FEA880AB3F57A7F049302BFA9
:102E900000233B602B61364B386853F828900CF0C8
:102EA0005FFE49460CF0A8FD0DF074F82B69386000
:102EB0000133012B2B614FF00002A2D1C5F8049021
:102EC000C5F80090AA60C8E72869012807DD013825
:102ED0000CF046FE0146E8680CF04AFF00E00020D6
:102EE0000FF0CEFF039B834663B118460CF038FE0B
:102EF000014658460DF044F820B14FF47A73338000
:102F0000002511E03B684FF47A7203F5FA7393FBE6
:102F1000F2F349F80A30ABE73088012801D10BF011
:102F2000ADF83388013BEAE7164B114E53F8250004
:102F30000CF016FE014656F825000CF05BFD46F835
:102F400025000135032DEFD107E700BF201F00202A
:102F5000BD3786353C0700200415002083F9223E4A
:102F60007C0F0020BE050020280500206C0B0020EF
:102F70003805002024050020C41E0020F80600208B
:102F8000C807002010080020494B1B78002B00F0D8
:102F9000848406F09FFAD4F8E030464DC31A0593B6
:102FA000D4F8E430C4F8E00093F8008004930027DC
:102FB000B8F1000F32D005980CF0CEFD3E490CF070
:102FC00023FE00218246686856F827B00CF0B0FF57
:102FD00058B140460CF0C4FD38490CF015FE0146CE
:102FE0004FF07E500CF0C4FE6860504669680CF0EB
:102FF00003FD014650460CF0BBFED5F8009082461A
:10300000494658460CF0F6FC014650460CF0FCFDD3
:10301000014648460CF0F0FC286001E056F8270015
:103020000CF0B8FF264A0C3522F817000137032FA1
:10303000BED1234AB2F802A0B2F800800FFA8AF398
:103040005B430FFA88F9928809FB09330892BDF9AE
:103050002090642209FB093902FB09F3069AB2F8B1
:10306000AA9009FB09F993FBF9F9A9F15203099315
:10307000039B186810F0080026D0124E002130681B
:103080000CF056FF054660B9706800210CF050FF47
:1030900048B9B06800210CF04BFFB0FA80F040094D
:1030A00002E0002000E0284600F001070DE000BF2C
:1030B000F81E002024080020BD378635DB0FC940EC
:1030C0003005002044050020074605980CF044FD1B
:1030D00065490CF099FDD4F80C51644C03902168BB
:1030E00028460CF091FD6168834628460CF08CFD63
:1030F000A168069028460CF087FD5D4B0790594665
:1031000058461E685D689C680CF07EFD81460698F6
:1031100001460CF079FD014648460CF06DFC8146F5
:10312000079801460CF070FD014648460CF064FC1F
:103130000FF0A6FE0A90002F00F0A0803146304626
:103140000CF062FD2946074628460CF05DFD01465D
:1031500038460CF051FC2146074620460CF054FD41
:10316000014638460CF048FC424907460CF008FF7F
:10317000002800F0838038460FF082FE01464FF0B1
:103180007E500CF0F5FD8146304649460CF03CFD82
:103190004946074628460CF037FD49460646204674
:1031A0000CF032FD344C0546216838460CF02CFDFD
:1031B00061680B9030460CF027FD0B9B01461846CA
:1031C0000CF01AFCA1680B9028460CF01DFD0B9B1F
:1031D000014618460CF010FCE1680B9038460CF0E4
:1031E00013FD2169074630460CF00EFD01463846B6
:1031F0000CF002FC6169064628460CF005FD01460C
:1032000030460CF0F9FB0B9B0546194618460CF0AE
:10321000FBFC2946064628460CF0F6FC01463046E3
:103220000CF0EAFB0FF02CFE014628460CF0ECFCFB
:1032300000F10047A16938460CF0E6FC00210CF0D3
:10324000DBFBE169064638460CF0DEFC00210CF0A1
:10325000D3FB216A054638460CF0D6FC00210CF061
:10326000CBFB04460DE000BFBD3786353805002096
:10327000440500200AD7233CD01100200024254615
:103280002646099B262B00F286800FFA88F00CF068
:1032900067FC81460FFA8AF00CF062FC0746BDF924
:1032A00020000CF05DFC4946804648460CF0ACFC22
:1032B0003946824638460CF0A7FC014650460CF0D1
:1032C0009BFB4146824640460CF09EFC0146504620
:1032D0000CF092FB584982460CF052FE00285AD05E
:1032E00050460FF0CDFD01464FF07E500CF040FDF2
:1032F0008246484651460CF087FC51468146384686
:103300000CF082FC5146074640460CF07DFC4B4BCE
:1033100082461A6A38461146D3F81C8009920B93EC
:103320000CF072FC4146089050460CF06DFCDDF844
:1033300020C0014660460CF05DFB014630460CF0B3
:103340005BFB0B9B06469B695046194608930CF0A5
:103350005BFC099A8246114648460CF055FC014632
:1033600050460CF047FB014628460CF045FB414611
:10337000054648460CF048FC089B804619463846EE
:103380000CF042FC014640460CF034FB014620465E
:103390000CF032FB0446049B4FF00009D3F8048084
:1033A000494640460CF0ECFD254F78B30A98254974
:1033B0000CF0C8FD80B3314640460CF025FC039963
:1033C0000CF022FC0146D7F810010CF015FB294641
:1033D000C7F8100140460CF017FC03990CF014FCE0
:1033E0000146D7F814010CF007FB2146C7F8140179
:1033F00040460CF009FC03990CF006FC0146D7F896
:1034000018010CF0F9FAC7F8180105E0C7F8109197
:10341000C7F81491C7F81891049B98680A4B1B7859
:10342000590705D4094B1A6844F61F639A420FD90D
:103430004FF07E510DE000BF0AD7233CD011002091
:103440003C070020C2B8B23E221F00206C1E0020A4
:10345000A4490CF0D9FB314680460CF0D5FBD7F8D7
:1034600010110CF0C9FA014658460CF0C5FA29466D
:10347000064640460CF0C8FBD7F814110CF0BCFA15
:10348000014606980CF0B8FA2146054640460CF075
:10349000BBFBD7F818110CF0AFFA014607980CF0F7
:1034A000ABFA4FF07C51074603980CF0ADFB044695
:1034B000304621460CF0A8FB2146064628460CF073
:1034C000A3FB2146804638460CF09EFB864B824685
:1034D000D3F80090854B31461F68854B09F10040B9
:1034E0001D680CF091FB4146069038460CF08CFBB1
:1034F000069B014618460CF07DFA51460690284678
:103500000CF082FB069B014618460CF073FA794CCE
:103510000146D4F800B058460CF06EFA31462060EF
:10352000089058460CF070FB5146069038460CF057
:103530006BFB069B014618460CF05EFA414606906E
:1035400028460CF061FB069B014618460CF052FA27
:10355000014648460CF050FA634B4146186007900C
:1035600058460CF051FB5146069048460CF04CFB77
:10357000069B014618460CF03DFA31460690284657
:103580000CF042FB069B014618460CF035FA01464A
:1035900038460CF031FA554A5146106006905846AC
:1035A0000CF032FB4146824648460CF02DFB0146AA
:1035B00050460CF021FA3146804638460CF024FB88
:1035C000014640460CF016FA014628460CF014FA63
:1035D000DDF820C0464B61461860054660460CF099
:1035E00013FB079A0646114610460CF00DFB0146E8
:1035F00030460CF001FA069B0646194618460CF0B8
:1036000003FB014630460CF0F7F9294606462846EA
:103610000CF0FAFA014630460CF0EEF90FF030FCEF
:1036200001464FF07E500CF0A3FB0546206829466A
:103630000CF0EAFA2C4B2060294618680CF0E4FAEA
:10364000294B29461860294B2B4C18680CF0DCFAE2
:10365000264B29461860264B284E18680CF0D4FAE1
:10366000234B274D186006F0BDFC216AE06902F08B
:1036700081FF24490CF0C8FA0FF03CFA3080A069B1
:1036800000F1004002F039FF01461F480CF0B2F98A
:103690001C490CF0B9FA0FF02DFA21687080E0682F
:1036A00002F068FF174900F100400CF0ADFAD5F8C0
:1036B000BC100CF0A1F90FF01DFA83B21A044ABF36
:1036C00000F56160B380B080104B266AD3F81C11FE
:1036D00030460CF055FC0E4B1A78D8B142F0080277
:1036E0001AE000BF00002041C4110020C8110020D2
:1036F000CC11002020000020D01100207E050020E9
:103700006C0B00204C3D0F44DB0FC93F3C070020F1
:103710000E06002022F00802974F1A70B7F9000039
:103720000CF01EFA8146B7F902000CF019FA804637
:10373000B7F904000CF014FA2168074648460CF06B
:1037400063FA6168824640460CF05EFA01465046D4
:103750000CF052F9A168824638460CF055FA014641
:1037600050460CF049F9A169824648460CF04CFAE3
:10377000E169834640460CF047FA014658460CF092
:103780003BF93946834630460CF03EFA014658462E
:103790000CF032F9E168064648460CF035FA21692A
:1037A000814640460CF030FA014648460CF024F9B8
:1037B0006169804638460CF027FA014640460CF015
:1037C0001BF9049B00F100475B786C4C012B18D16E
:1037D0006B4B1B785B070ED4D4F82001402390FB81
:1037E000F3F3C01A0CF0BCF931460CF005F90CF0FB
:1037F000D1FBC4F82001D4F82001402390FBF3F062
:1038000001E0B5F8AA000CF0ABF9014630460CF027
:10381000F1F8D4F82811064603980CF0EDF80146AB
:1038200003980CF0A5FAD4F8245180462946304676
:103830000CF0E0F8014640460CF0E6F90146284657
:103840000CF0DAF8C4F82401064650460FF052F99D
:10385000D4F82C514B4C297802F040FE23681844D0
:10386000206038460FF046F9297802F037FE636889
:103870001844606030460FF03DF9697802F02EFE82
:10388000A368414A184405991368A060194411605F
:103890003E4A13680133136003E000233360736012
:1038A000B3603B4BB3F906103A4BD3F800E0BEF8D7
:1038B0000A2091420FDBB1F5FA6F9EF80750BFBFA7
:1038C0008B1A6B43A2F5FA6593FBF5F5ACBFC5F116
:1038D0006405643500E064252F4B304AB3F8A0C17D
:1038E00093F9623112689BB2039216460493002248
:1038F00040F2E630264B4FEA420933F91280CCEB16
:10390000080303F2F314844203D8002BB8BF5B42D0
:1039100001E04FF4FA73022A039C4FF0640045D093
:1039200094F81D411CB1A342CCBF1B1B002393FB89
:10393000F0F71B4C6FF0630B34F817A00BFB073B41
:10394000013734F917400FFA8AF7E41B04FB0BF434
:1039500094FBF0F4134F544427F809400EEB020493
:1039600024796343104C93FBF4F364339BB26B43B1
:1039700093FBF0F047E000BF300500203C0700203B
:10398000221F0020A8140020081F0020A4140020DB
:10399000401E00209C050020D81600206005002055
:1039A0006E160020700F00200CFEFFFF94F81E41E1
:1039B0001CB1A342CCBF1B1B002393FBF0F0AE4C09
:1039C0006FF0630A0AFB003B04EB400704EB400086
:1039D000B7F93071B0F93201002BA0EB070000FB02
:1039E0000BFB9BFBFAFB0498C7EB0B0707FB00F7ED
:1039F000A248B8BF5B4287809EF806004343A048B8
:103A000093FBF0F0643073786427434393FBF7F340
:103A10009C4C022AA354F37A9B4C00FB03F393FBC8
:103A2000F7F3A354737D954C00FB03F090FBF7F084
:103A3000964B9854964B0DD1E0459F700DDB954EFB
:103A4000B6F8A221914214DBB1F5FA6FA8BF4FF48A
:103A5000FA610FE0E0459D5404DA34F809305B4226
:103A600024F809300132032A06F101067FF440AF41
:103A7000E5E71146891A4FF47A735943C2F5FA62A1
:103A8000B1FBF2F1642391FBF3F2DFF858E26FF03F
:103A900063003EF8127000FB021101323EF9122061
:103AA00038B2121A514391FBF3F33B44E3807A4B53
:103AB000724D1B885F063FD5784B0A20B3F904305E
:103AC00093FBF0F0764B1B88C01A00B20CF048F85C
:103AD00074490CF099F8074602F042FE80463846D9
:103AE00002F0CAFD0746B5F902000CF039F881462C
:103AF000B5F900000CF034F8414682460CF084F829
:103B00003946834648460CF07FF8014658460BF08C
:103B100071FF0CF03FFA4146288048460CF074F8DB
:103B20003946804650460CF06FF8014640460BF08F
:103B300063FF0CF02FFA68805B4B1A78500703D5AF
:103B40005A4B08225A613CE059490968C9075CBFD1
:103B500042F001021A70574A5749127817075EBFA0
:103B60001A7822F001021A70544A126812F0040FF7
:103B700002D05348008870B95248008808B19507B0
:103B800009D4514A1288003218BF01221AB94F488D
:103B90000079632806D902220A701A7822F00102FD
:103BA0001A7005E01B78D80756BF02230A700B7005
:103BB00005F090FC464B1B68C01A002801DB0AF098
:103BC00015FE444BD3F88C300BB14348984796F818
:103BD0009E31294F002B00F08980BB89B7F848013E
:103BE000B0FBF3F03D4B451C1B78ADB2A7F84A5132
:103BF0001BB3B7F94CA10023DFF87CE034F8138045
:103C00000EF5AB7C3CF813200EF5A779C2EB080B40
:103C100039F913202CF813800AFB02F12AB291FB28
:103C2000F2F25A4429F813200133042BE4D12B4B30
:103C300000221A70AEF84C0104E0B7F84C31013B99
:103C4000A7F84C310C4A0023B2F94C0100284BDD97
:103C5000B2F94A512249A1F1080232F9132031F890
:103C60001310424392FBF5F28A1A24F81320013311
:103C7000042BEFD13AE000BF3C070020700F00207A
:103C80000CFEFFFF3C1000207A080020541000209A
:103C9000780F0020D8160020061600207E05002090
:103CA0003607002035FA8E3C221F0020000C014010
:103CB000081600200E060020941E00202405002077
:103CC0005C1400200C060020F806002028050020C7
:103CD000981E00206C0B0020800800203807002070
:103CE0009208002056160020A2F84C31A64B012263
:103CF0001A70A64BDFF80083196811F0080F3BD04B
:103D0000A088A34D00F10E039BB21C2BA14B2DD814
:103D1000A14A1288520729D5B3F904200A2392FB3D
:103D2000F3F22B88D21A92B293B21DB2B335BCBF54
:103D300002F5B4739BB2994D1AB2B32A2D78C4BF61
:103D4000A3F5B4739BB22D0796F8622114D552B235
:103D500052425343D8F800201BB2527A53436FF0BB
:103D60001D0293FBF2F30344A38005E0B3F9043092
:103D70000A2293FBF2F32B8011F0140F884D75D0BB
:103D8000854B1B8803F40273002B6FD0834B1B7889
:103D900003F0100303F0FF0043B1824B96F90012C9
:103DA0001A68638801FB023363805FE0D5F86031F5
:103DB0007D4A93F803E07D499B78BEF1000F25D042
:103DC000B1F900E0B2F90610CEEB0102002AB8BF4B
:103DD00052429A420DDD764A714510604FF0010261
:103DE00085F86421C8BF5B42E2889BB21344E3803C
:103DF0003CE095F864312BB16E4B85F864011A688C
:103E00006D4B1A60674B1B68734424E0B1F90010D6
:103E1000B2F90620521A82EAE270A0EBE2709842F0
:103E20000ADD022392FBF3F2644B1A60644B012219
:103E30001A7085F864210BE095F8643143B15D4B4D
:103E400085F864E11A685C4B1A605D4B83F800E00A
:103E5000544B1B680B44D5F868110A884988934273
:103E600003DB8B42A8BF0B461A46E280554B1B78FA
:103E7000ABB14D4BB3F90620B6F8A2319A420EDC35
:103E8000514B5B79012B01D0192B02D196F8F62109
:103E90002AB90E2B03D0082B1CBF0023A380D8F80F
:103EA000003093F824A1BAF1000F2FD03A4B1B88B1
:103EB0009B072BD0454B4649D3F8209048460CF041
:103EC0004BF8F8B9484602F018FBD7F86C110BF024
:103ED0009BFE0EF00FFEB0F5617FA8BF4FF461703E
:103EE0000BF03EFE3B490BF043FF02F0C5FB0746DB
:103EF00050460BF035FE39460BF086FE0EF0FAFD0B
:103F000080B200E00020E3881844E080324BD8F80B
:103F10000000B6F874210093304B1E68304B1968CE
:103F200000F16403B0472F4BDB7803932E4B1F78CF
:103F30002E4B032F15D9D5F870219688B6F5FA7F48
:103F40000FD2B4F90400B3F904E00028B8BF40422E
:103F500071420A1A964503DB32187245A8BF7246B1
:103F60009A80234A126812F0006147D1D5F8702177
:103F7000B4F806A0B3F80280B3F800900492B3F945
:103F800004B01C4E0C467DE13907002024050020BA
:103F9000EC0500207E050020061600200E060020FD
:103FA0003C070020D0140020401E00203A070020CB
:103FB000CC14002084050020C41400200C1F002015
:103FC000D414002010000020D8160020D0110020AA
:103FD0008FC2753CEFB6B044681800206400002022
:103FE0009C050020701E002057100020C00F0020EC
:103FF00008160020B8080020600500200026D5F82B
:104000007011B24635465A88B3F80090B3F904B03F
:10401000DFF838830491BA4542D210B206920BF011
:104020009FFDD8F808100BF0EFFD05900FFA89F00E
:104030000BF096FDD8F804100BF0E6FDDDF814C087
:10404000014660460BF0D8FC049B059093F90200F2
:1040500040420BFB00F00BF083FDD8F80C100BF086
:10406000D3FDDDF814C0014660460BF0C5FC0BF033
:1040700091FF0DA980B221F81A000FFA85FE01B256
:104080007145069A04DC0FFA86FE714502DB28466C
:10409000054630460AF1010A08F110080646BAE75B
:1040A000A24BAD1B1A68ADB212F4805F0493DFF827
:1040B000A4A238D09E4A9F4E127812F0040F9D4A57
:1040C00002BFD2F83812098AA2F83412D2F8382284
:1040D0009949108A994AB1F8068014680FFA88F74E
:1040E000E288811A8F4204DCDAF8002027881488DD
:1040F00006E00244974206DBDAF80020648857881D
:10410000A6F8348215E0B6F934228A42D9BF27884E
:10411000DAF80020DAF800206488D9BF1488B8469D
:104120005788A04605E0DAF80020B4F806805788E2
:104130001488BAB21FFA84F9C9EB0206B6B20FFAB4
:1041400085FB30B283457E4D7E493CDD01220A70FD
:104150000BF006FD059058460BF002FD059A01464E
:1041600010460BF005FE8346002229788A4214D2BD
:104170000DF1340C3CF91200CDF818C005920BF08B
:10418000EFFC59460BF040FD0EF0B4FC059ADDF84B
:1041900018C02CF812000132E7E7664AD2F8702105
:1041A00050780BF0DDFC68490BF0E2FD0146584603
:1041B0000BF0E6FE88B136B2022496FBF4F44C44D0
:1041C000A4B2274609E00020087002209BFBF0F013
:1041D00009EB0004171AA4B2BFB2049BDAF800601E
:1041E0001B6895F8009003F480530593514B00250C
:1041F000B3F934A2D3F838320493504BD3F800B05B
:104200004D4580F023810DAB33F815200FFA88F06F
:1042100006920BF0A5FC4D4B2901C9580BF0F4FC9C
:104220000BF0B8FE23B29842069A03DB3BB28342FE
:10423000A8BF034613440398454A9BB222F81530A1
:1042400069001BB208B1B08811E0059870B10498FC
:10425000BBF806E0008ACEEB0000824503DC308824
:10426000BBF800E005E0BBF8020000E03088B6F8DB
:1042700002E0834203DB7345A8BF734618465052E1
:104280000135BDE7BC4206F11006314B40D20FFAB2
:104290008AF006930BF064FC56F8181C0BF0B4FC83
:1042A00005900FFA88F00BF05BFC56F8101C0BF031
:1042B000ABFCDDF814C0014660460BF09DFB059099
:1042C0000FFA89F00BF04CFC56F8141C0BF09CFC18
:1042D000DDF814C0014660460BF08EFB049B059090
:1042E00093F9020040420BFB00F00BF039FC56F84A
:1042F0000C1C0BF089FCDDF814C0014660460BF085
:104300007BFB0BF047FE069B23F814000134B9E752
:104310001A880121B94214B21ED233F91120013199
:104320009442B8BF1446A2B2F4E700BF3C1E00207E
:10433000221F00203C070020401E002044110020C6
:10434000571000208C0F00200000C842B008002049
:104350006405002048110020AF49D5F870C10968F4
:10436000D5F83892488803EB47078442C8BF101A33
:10437000AA4AC8BF80B21668A94AD8BF0020B2F9BD
:104380000640A84A06F48058156806F01002049208
:10439000A54ABA425AD013881B1A9BB222F8023B94
:1043A000B8F1000F29D09CF800A0B9F810E0BAF1DC
:1043B000000F08D1B5F806A0CAEB0E0B5C4502DD74
:1043C000F244544514DB7445CCBFB5F802E0B1F8B3
:1043D00004E01BB2CCBFB1F802A0B5F800A0734551
:1043E00003DB5345A8BF53469E4622F802ECD0E7B4
:1043F0007445CCBF6B882B8825E0039EB1F802E0A2
:104400004EB132F902AC8B889A451CDBF24553461B
:10441000A8BF734617E0B1F800A01BB2534503DBF9
:104420007345A8BF73469A4622F802ACB9F8123019
:104430009C42AEDA049B0BB18B8804E09CF8003000
:10444000002BA6D10B8822F8023CA2E777490A7814
:104450008B4602F0040202F0FF0342B1744991F866
:104460003C32013BDBB2182B00F24D810BE0714A6C
:1044700012789342F2D2704931F813006A4921F858
:1044800013000133F5E701229A406C4B1340002BD7
:1044900000F039816A4B62481B8813F4807F08D092
:1044A000684B1A88ADF834205A889B88ADF83620BE
:1044B00015E0654B1A88ADF834205A889B88ADF812
:1044C0003620564AADF838301268D40409D5D1F8F0
:1044D0003822B0F90640128A944202DA5B42ADF803
:1044E00038305A4D4FF47A72B5F902304FF46164A6
:1044F00003F5E163534393FBF4F3A3F5FA73ADF8CB
:104500004C30B5F9003003F5E1635A4392FBF4F205
:10451000454BA2F5FA721B88ADF84E20A3F2DC538E
:10452000ADF83A30D1F8383202881B8AD21AADF889
:104530003C204288D21AADF83E208288D21AADF8CB
:104540004020C288D21AADF842200289D21AADF8B2
:1045500044204289D21AADF846208289D21AADF899
:104560004820C289D31AADF84A300023384A0021C6
:1045700022F813100133082BF8D1364B36491B684B
:10458000364D0393364B1B680493364B1B78C3EBB5
:10459000C30301EB0308414500F09D800B783BB15C
:1045A00003F1150201239340039A134000F08F801A
:1045B000049B11F806EC0E2707FB0E37B7F9002015
:1045C000B7F9023064209B1A11F9022C9BB25A43AE
:1045D00092FBF0F211F805AC4FEA530911F8034CC5
:1045E000C9EB02024FEA4A0614A892B211F801CCB4
:1045F000064414B936F81C0C0CE0B5F9000036F985
:104600001C6CB04230DA0444844203DBA6423046DC
:10461000A8BF2046288030E0481100203C1E002022
:10462000401E00204411002064050020221F0020AD
:104630003C07002057100020F40500209920980125
:1046400006160020700F0020C00F00207E050020FD
:104650005005002008160020531100207A09002080
:10466000680B00204C11002007DD041BB44203DB63
:104670008442A8BF044626462E80D7F80A4001206F
:1046800000FA0AF02042B5F9006011F9040C12B2E8
:1046900000FB06F04FF0640690FBF6F014BF4FF0FD
:1046A000FF34012490420ADB4FFA8CF25A4392FB0A
:1046B000F6F2C9EB020212B28242A8BF02469D4B3B
:1046C00033F81E9002FB049423F81E4000E02B8078
:1046D000023507315FE7984B984E1F6800250E237F
:1046E00003FB057393F9064036F9023FE8B26343D2
:1046F000642493FBF4F4348005F05AFC0135204423
:10470000082D3080EBD18E4E8A4C33688A4D13F0E1
:10471000200F33D0002005F04BFC208007460120FD
:1047200005F046FC874B60801B68190626D5864B32
:10473000864AD3F860321B78012B23D12968B2F95D
:10474000003091F914E04FF0320C03FB0EF393FBB1
:10475000FCF31FFA83FE91F90630B2F902205B42A6
:1047600053436FF0310193FBF1F193FBFCF30EEB3C
:104770000102B9187344218018446080D5F800E024
:10478000002319E0D5F800E0B2F902309EF90610D6
:104790005943322391FBF3F1394421809EF914707F
:1047A000B2F9001001FB07F292FBF3F21044E4E7C8
:1047B0000133082BE25310D00E2101FB03E134F941
:1047C0001300B1F900205F009042B1F90210EFDB55
:1047D0000AB28242A8BF0246EAE75B4FD7F870A14F
:1047E0009AF90C30A3B997F83C8208F1FF33182BE3
:1047F00074D8DFE803F0377373517373734A7373BC
:104800007373735B7373737373516773735B370085
:10481000DFF828914FF0000839F9020F0BF0A0F9EA
:104820004B4B242101FB083101F0ACFC0EF062F986
:104830002A680E2303FB082280B2A9F80000B2F90F
:10484000003000B29842B2F9022003DB13B2834277
:10485000A8BF034608F10108B8F1080FA9F8003015
:10486000DAD1C0E79AF8063013B10020618908E078
:104870009BF8003003F0040303F0FF00002BF4D199
:10488000014603F037FD012529E00020E18803F00F
:1048900031FD0120218905E00020218903F02AFD56
:1048A0006189012003F026FD022518E00225A81EDB
:1048B00034F81510C0B2013503F01CFD082DF6D1F7
:1048C00006250CE00325E81E34F81510C0B20135AA
:1048D00003F010FD072DF6D1042500E00025336814
:1048E0009A0602D4B8F1050F0AD12846218803F0B0
:1048F00001FD681CC0B2618803F0FCFC0235EDB21A
:104900003368DB0205D497F8843373B105F094FA69
:104910000BE0104E00242819C0B236F8021F03F035
:10492000E9FC0D2CEFD00134F5E7002015B0BDE80F
:10493000F08F00BF50050020680B00204E050020BE
:104940003C1E0020081600203C0700207E050020A9
:10495000A0090020461E0020094B1B78032B01BF35
:10496000084A094B1268012005BFC3F89820074A7E
:104970000020C3F8A02004BF054AC3F8A420704754
:104980002C040020580000206C0B00200953000864
:10499000315100080C4A1378022B13D10B490C4BF0
:1049A00009685278C3F898100A49002AC3F8A01081
:1049B00009490CBF6F226E22C3F8A41083F8A82007
:1049C00001207047002070472C0400205C0000206C
:1049D0006C0B0020C95300083151000813B5104B6F
:1049E00004461B21586801AA022307F0E0FD90B19C
:1049F0009DF805309DF8040003EB00200BF0B0F8A3
:104A000008490AF0F9FF08490BF0B2F907490AF022
:104A1000F3FF2060012000F0010002B010BD00BFD4
:104A2000C40A002000404E4600008C4300000C42A7
:104A30002DE9FF41354C267B2546002E61D11420FF
:104A400006F0B2F93248334B7627D02103AA8360AF
:104A50000770067107F0ADFD002852D09DF80C30AC
:104A6000582B4ED13146402204F110000EF063FF66
:104A7000384601F0C5F86061002842D0264A138804
:104A8000591C11802382882104F12002182307F089
:104A90008EFD38B36069F42103AA07F08AFD08B3DC
:104AA0001E4F01250420D7F8C080322100951C4AF2
:104AB00004F110032076657608F034FCE06100B361
:104AC000184B257303603223A387174BC4F84C801F
:104AD0001B6884F83E502E464571C7F8C430C7F8AD
:104AE000C8000EE0E86920B108F07EFC074B002208
:104AF000DA61696929B1886806F004F8034B00227D
:104B00005A61304604B0BDE8F08100BFC40A0020FD
:104B100004120020740C00201C0000206C0B0020EC
:104B2000278E000884590108500000202DE9F0412B
:104B3000674B86B01B78032B01D00020C0E002AA8F
:104B40001746644B03F1100514461868596808337A
:104B500003C4AB422246F7D15F48604B682400266D
:104B6000752101AA83600470067107F022FD0028F8
:104B7000E3D09DF80430702BDFD1594D382302204B
:104B800058493A4608F03CFD3146102205F15000E4
:104B90000EF0D1FE204601F033F8A8650028CCD0F5
:104BA0001B2140F202323B4607F0EBFC00287CD090
:104BB0009DF808304FF0010808FA03F00AF0A6FB50
:104BC00002460B4640A1D1E900010AF02FFD0AF090
:104BD000BDFE454C1C21A06040F20232A86D3B4650
:104BE00007F0CFFC002860D09DF808304FF48040DB
:104BF00018410AF0B5FF6B21E06001AAA86D07F02B
:104C0000D8FC002851D09DF8043003F0080101F0D1
:104C1000FF0221B1424666F3C3038DF804309DF8CC
:104C20000430590604D56FF386138DF8043034E050
:104C3000002A32D12D4A0120138885F85200591CD0
:104C400011802279A5F8543042F003022271284ADB
:104C5000284BA261284A2949E261A26200222287E8
:104C60006287A28784F84A20E287A4F84020A4F84B
:104C700042200022E264224AEB65126820759A679E
:104C8000204A84F82000C3F880201F4A6162C3F8DC
:104C900084201E4AC3F8902012E0A86D6B219DF875
:104CA000042007F064FC0028C4D1A96D00293FF45A
:104CB00044AF886805F026FF094B00229A653CE75F
:104CC00006B0BDE8F08100BF000000000060604059
:104CD0002C0400209059010804120020740C0020BC
:104CE000C40A00208B5901086C0B00201C00002016
:104CF000F78B0008700B0020140B00208D8B000830
:104D00005800002045520008E150000890C1793D4C
:104D1000F0B55B4B87B01B78012B01D00020A7E0DA
:104D200002AA1746574B03F1100514461868596834
:104D3000083303C4AB422246F7D15348534B0026F5
:104D400083603146682301AA0370067107F031FCC5
:104D50000028E3D09DF80440682CDFD14C4D34236B
:104D600002204C493A4608F04BFC31460C222846BA
:104D70000EF0E1FD204600F043FF68600028CDD032
:104D8000162140F202323B4607F0FBFB002864D0BC
:104D90009DF80830012707FA03F00AF0B7FA024637
:104DA0000B4635A1D1E900010AF040FC0AF0CEFD26
:104DB000394C3E21A06001AA686807F0FAFB002880
:104DC0004BD09DF8043003F00702BA421CBF67F3D2
:104DD00002038DF804309DF8043018BF3E465A0691
:104DE00004D56FF386138DF804302EE0002E2CD1FD
:104DF0002A4A012013882075591C118022796B8062
:104E000042F001022271264A264BA261002222872B
:104E10006287A28784F84A20E287A4F84020A4F899
:104E200042200022E264204AAB601268E5619A6782
:104E30001E4AC3F880201E4AC3F884201D4AC3F8C6
:104E400088201D4AC3F8902012E068683E219DF832
:104E5000042007F08CFB0028CAD1696800293FF4C0
:104E60005DAF886805F04EFE094B00225A6055E799
:104E700007B0F0BDAFF300800000000000606040AC
:104E80002C040020A059010804120020740C0020FA
:104E9000C40A00208B5901086C0B00201C00002064
:104EA000358D0008700B0020540000206D50000864
:104EB000E1500008DD49000890C1793DF0B55C4B38
:104EC00087B01B78022B01D00020A9E002AA15466A
:104ED000584B03F11006144618685968083303C488
:104EE000B3422246F7D15448544B002683607521C3
:104EF000682301AA0370067107F05BFB0028E3D06A
:104F00009DF80440682CDFD14D4F342302204D49D9
:104F10002A4608F075FB3146102207F160000EF0BA
:104F20000AFD204600F06CFEB8660028CCD06B214C
:104F3000802207F01CFB002867D0434B1C461E68EC
:104F400008F038FC23689B1B642BF9D9B86E1B2131
:104F50002A463B4E07F02DFB002856D09DF808301E
:104F60000125C3F3C10305FA03F00AF0CFF90246A5
:104F70000B462DA1D1E900010AF058FB0AF0E6FC2E
:104F8000324C1C21A06001AAB06E07F012FB002871
:104F90003BD09DF804304FF48040C3F3C103184167
:104FA0000AF0DEFD2A4A86F8625013886036B38024
:104FB0005919231DF3602379E06043F00303237143
:104FC000244B1180A361244B257563620023238742
:104FD0006387A38784F84A30E387A4F84030A4F8B5
:104FE00042300023E3641D4BE6611B6884F82050C7
:104FF000E3671B4BA662C4F884301A4B2846C4F8FA
:105000008830194BC4F894300AE0B96E00293FF497
:105010005BAF886805F076FD094B00229A6653E77E
:1050200007B0F0BDAFF300800000000000606040FA
:105030002C040020B059010804120020740C002038
:10504000C40A00208B590108700C00206C0B002052
:105050001C000020CB8C0008618C00085C00002044
:1050600021530008E150000890C1793D38B504464D
:10507000192004F0F4FD0CB1257800E00125164C50
:1050800015216068002207F072FA10B9022009F0B9
:105090004FF84FF0180265F302026068162102F023
:1050A0001F0207F064FA20B10B4B9B680BB10B4A4F
:1050B0005A60012560681721002207F058FA2A4635
:1050C00060683D2107F053FA60682A46BDE8384021
:1050D0003E2107F04CBA00BFC40A00200000834103
:1050E00030B5124C0546207987B010F0010019D078
:1050F000A369E06901A99847A0B1BDF904000AF0CD
:105100002FFD0390BDF906000AF02AFD0490BDF9B9
:1051100008000AF025FD29460590227D03A800F02D
:1051200003FC012000F0010007B030BD6C0B002033
:1051300030B5144C0546237987B003F0020303F021
:10514000FF00D3B1636AA06A01A99847A8B1BDF96D
:1051500004000AF005FD0390BDF906000AF000FD09
:105160000490BDF908000AF0FBFC2946059094F86C
:10517000202003A800F0D8FB012000F0010007B0B8
:1051800030BD00BF6C0B0020F0B5294D85B02B68F9
:10519000002B4AD0274E96F87000002846D11A6896
:1051A000254C12B1A1690A43A2619A889868ADF8AA
:1051B000002002228DF80320694604228DF8022087
:1051C00005F0EEF8A369002743F00103A3612B6803
:1051D0000124187B197D05F0CEF82B68174993F947
:1051E000150004F009FE2B68154A1B6953610293F0
:1051F00008230DEB03008DF80D308DF80C708DF841
:105200000E4000F067FB2B6801A85B7D8DF80670EF
:105210008DF8043003238DF805308DF8074000F039
:105220003BFB86F87040204600E0184605B0F0BD14
:1052300028040020C40A002000100240F95300088E
:105240000004014038B50446FFF79EFF18B12A4B11
:10525000012283F890200CB1257800E00125274C2D
:105260006B218022A06D07F082F9642005F09CFD7F
:1052700068210722A06D07F07AF9642005F094FDFB
:105280006B210022A06D07F072F9642005F08CFDFF
:105290006B210122A06D07F06AF9A06D1B21182275
:1052A00007F065F918B1E36D0BB1154A5A60A06DAE
:1052B0001C21102207F05BF928B1104BDB6D13B1F4
:1052C0004FF08B429A6005F00702A06D1A2107F09B
:1052D0004EF90C4BA06D1A78192107F048F9A06D12
:1052E0003721102207F043F9A06D38210122BDE8D3
:1052F000384007F03CB900BF6C0B0020C40A002006
:10530000000083412E04002008B50020FFF73CFF79
:10531000024B4FF48052A3F8AA2008BD6C0B00206A
:1053200038B50446FFF730FF18B1234B012283F84C
:1053300090200CB1257800E00125204C6B218022C3
:10534000A06E07F014F9642004F089FC6B2103229D
:10535000A06E07F00CF91A4B19211A78A06E07F00D
:1053600006F90F2004F07BFC1A2105F00702A06E5D
:1053700007F0FDF8A06E1B21182207F0F8F818B10D
:10538000E36E0BB10F4A5A60A06E1C21102207F089
:10539000EEF828B1094BDB6E13B14FF08B429A60E7
:1053A000A06E3721022207F0E2F8A06E3821012218
:1053B000BDE8384007F0DBB86C0B0020C40A0020C1
:1053C0002E0400200000834108B50020FFF7DCFE1A
:1053D000074B5B7813B1012B03D008BD4FF400627B
:1053E00001E04FF48052034BA3F8AA2008BD00BF90
:1053F0002C0400206C0B0020074B1B681A69074B1C
:1054000019685869104206D0114204D05A61044B01
:10541000986F07F069BE704728040020000401401F
:105420006C0B0020054A08B5138801339BB213802A
:10543000034B187802F018F8002008BD2005002062
:10544000080E002010B54000204CC0B2207020484B
:10545000204C0170204800210170012020701F4C59
:1054600023601F4C23601F4B1A701F4A1F4B107084
:1054700019701F49086811461A4630B383889C0585
:1054800015D40388DB050DD44FF480530488A4059C
:1054900002D5013BFAD112E08BB103889BB243F4F1
:1054A0008073038083889BB243F4407383804FF4FE
:1054B0008053087810B1013BFBD100E013B9BDE87F
:1054C0001040AFE7107880F0010010BD5C0F0020A5
:1054D0005D0F00205F0F00205E0F0020640F002092
:1054E000600F0020680F0020690F00206A0F002065
:1054F0006C0F002002F0C2B802F014BA02F0BEB87D
:1055000002F010BA2DE9F04F0C688DB0BB4920466F
:105510000EF0D2FABA49002820460CBF0125072513
:105520000EF0CAFAB7490028204608BF02250EF03F
:10553000C3FA002808BF0425E90740F1F180B2480A
:10554000002106F011FF0020014607F06FFAAF4C72
:10555000AF48002106F008FFAE48002106F004FF26
:105560006379AD4A013B0020AC4952F8232008F092
:1055700047F8AB48002106F0F7FE26460027D6F88C
:105580001480002140460AF0D3FC28B1A548002130
:1055900006F0EAFE00266FE0A3493A460790D6F8E7
:1055A00018B0D6F81CA0D6F8209008F029F840468C
:1055B00000210AF0C7FC079B18B19C48194606F069
:1055C000D3FE08A9404600F022FF002106F0CCFEE1
:1055D000584600210AF0B6FC18B19448002106F0A4
:1055E000C3FE08A9584600F012FF002106F0BCFED9
:1055F000504600210AF0A6FC18B18C48002106F0A4
:10560000B3FE08A9504600F002FF002106F0ACFEF0
:10561000484600210AF096FC18B18448002106F0A3
:10562000A3FE08A9484600F0F2FE01370246804971
:10563000002007F0E5FF0C2F06F110069FD1A5E72B
:1056400094F8D51052B294F8D4300091019294F8A5
:10565000D7200020029294F9D8207649039294F939
:10566000D9200734049294F8D320059232460136AB
:1056700007F0C6FF102E03D094F8D620002ADFD101
:105680006D48002106F070FE604B6C4C9F6854F82A
:10569000042F22B100206A4907F0B2FFF7E716464F
:1056A000684B53F8264054B10123B3403B4204D029
:1056B00000206549224607F0A3FF0136F0E7634862
:1056C000214606F051FE2246504B0CA9134493F894
:1056D00090310B445E49515C0132082A03F8101CDA
:1056E000F2D1002408AA20465A498DF8284007F034
:1056F00087FF5948214606F037FE2146204608F02C
:1057000053FB5649204607F07BFF204603F0B8F9CB
:105710005348214606F028FE2046214608F076FA36
:10572000AA0748D54F48002106F01EFE4E4800212A
:1057300006F01AFE354B002093F8E4264B4907F09B
:105740005FFF4B48002106F00FFE0020014608F0E5
:1057500067F94848002106F007FE0020014608F0DE
:10576000C9F94548002106F0FFFD0020014603F07D
:105770001FF84248002106F0F7FD0020014602F024
:10578000FBFD00260E27774300243D4A01231268C3
:10579000A3403A44D2F80A20134224D101340E2CFB
:1057A000F3D10136082EEDD100202C4907F028FF57
:1057B000102003F065F96B071CD53248002106F074
:1057C000D3FD3148002106F0CFFD304B00201A7880
:1057D0002F4907F015FF0020204907F011FF202076
:1057E00003F04EF906E000202A493246234607F02E
:1057F00007FFD3E700200DB0BDE8F08FD8590108AE
:1058000062720108DF590108E5590108D816002025
:10581000F3590108055A010808470108115A0108FF
:105820001C5A0108295A0108365A0108445E010829
:105830003D6101084E5A01083E5A0108C054010852
:105840006D5A0108C45401087B5A0108885A01089E
:10585000E86E0108945A01089D5A0108D5640108B0
:10586000AC5A0108B95A0108CC5A0108345B010846
:10587000DA5A0108E45A0108F35A0108015B0108E9
:10588000680B00200D5B01081E5B01080416002058
:10589000305B0108415B01080C4B0D49DA68437825
:1058A000D243C2F30222C2F10402934002781B01E8
:1058B000DBB20A4482F8003303780122580903F06E
:1058C0001F0302FA03F341F82030704700ED00E0B7
:1058D00000E100E0026830B5D543124B1C682C4053
:1058E0001C6059682940596019680A431A600268A7
:1058F0009C68D5432C409C60D9682940D960417987
:10590000102909BF996801F180431143996015BFBF
:1059100003F58233D96819680A4316BF0A43DA606F
:105920001A6030BD00040140023A2DE9F8430C46EC
:10593000062A31D8DFE802F0040810161C202400E3
:1059400043680B60036804E0036803F100430B60E5
:10595000436803F1004322E0436803F100430B6016
:1059600003681CE0036803F100430B6043680EE02A
:1059700043680B6003680AE003680B60436804E057
:10598000436803F100430B60036803F10043636065
:10599000836803F1004304E003680B6043686360BD
:1059A00083682E4DA36095F85030002B54D0D4F866
:1059B0000080696D40460AF027F967688146296EC4
:1059C00038460AF021F9014648460AF015F8A6685B
:1059D0008146E96E30460AF017F9014648460AF05A
:1059E0000BF80DF087F80AF0BBF82060A96D40466F
:1059F0000AF00AF9696E814638460AF005F901464F
:105A0000484609F0F9FF296F814630460AF0FCF854
:105A10000146484609F0F0FF0DF06CF80AF0A0F8D6
:105A20006060E96D40460AF0EFF8A96E804638469E
:105A30000AF0EAF80146404609F0DEFF696F0746C2
:105A400030460AF0E1F80146384609F0D5FF0DF07E
:105A500051F80AF085F8A060BDE8F8836C0B0020CF
:105A60002DE9F74F8568044668688A46934699464B
:105A7000002856D0EE6A4EB1327802200092237888
:105A800029496D2207F0BCFD00204AE00123EC62A9
:105A90002371B9F1000F29D0B5F828802078C845C6
:105AA00028BFC8465FFA88F8CDF8008006EB0A01E7
:105AB00001220BEB06036F68B84710B102281BD018
:105AC00010E01A4BD3F804112279012A07D1D3F838
:105AD00004216088521A8242F6D97D220FE0237990
