:020000040800F2
:1000000000500020497E0108E57E01087DFA0008C5
:10001000E57E0108E57E0108E57E0108000000009C
:10002000000000000000000000000000E57E010864
:10003000E57E010800000000E57E01089B01010843
:10004000E57E0108E57E0108E57E0108E57E010800
:10005000E57E0108E57E01086599000863990008BE
:10006000E57E0108E57E0108E57E0108E57E0108E0
:1000700079DE000869DE00087D2E0108E57E0108B2
:1000800059DE000849DE0008E57E0108E57E01082A
:10009000E57E0108E57E0108E57E0108619900081A
:1000A000E57E0108492C0108E57E0108592C01086C
:1000B0003D2C01082D2C01081D2C0108019400087D
:1000C00005940008F9930008FD930008E57E0108F7
:1000D000E57E0108712E0108652E0108592E0108E0
:1000E0002D030108E57E0108E57E010800000000FF
:1000F0000000000000000000000000000000000000
:0C01000000000000000000005FF808F1A3
:100110002DE9F04F794B7A4CA5B023600023636042
:100120000AF0BCF8A04618B90AF0DAF80BF070FA39
:100130000BF014FB734A744C1378744F43F00103B3
:10014000137000230A930B930C934FF4E0130D9359
:100150002368B87B43F480332360A36943F0100322
:10016000A361236803F400330B930A9B01330A93C2
:100170000B9B1BB90A9BB3F5A06FF2D123686249B0
:1001800013F4003301D0022315E00A6842F00102A3
:100190000A600A93236803F002030B930A9B01335E
:1001A0000A930B9B1BB90A9BB3F5A06FF2D123688E
:1001B0009A0739D501230C93554B56491A6842F0DA
:1001C00010021A601A6822F003021A601A6842F0DC
:1001D00002021A606368636063686360636843F483
:1001E000806363604C4B1A68043B22F070425A6093
:1001F0004A4A0A60626822F47C1262605A6842F0DD
:1002000000425A60DA6822F40042DA609B681B04FC
:1002100049BF434B4FF4E0130B604FF480130D9331
:100220000C9B012B01D117E0FEE7022B18D168B11E
:100230000D9BB3F5801F02D14FF4A01305E00D9B79
:10024000B3F5E01F02D14FF400130D930D9A6368CC
:10025000134343F4803302E0636843F46013636044
:10026000236843F0807323602268274B9601FBD5F7
:100270005A6822F003025A605A6842F002025A6039
:100280006368214803F00C03082BF9D14268254B21
:1002900002F00C02042A03D0082A03D01F4A12E0FD
:1002A0000A6810E042684568C2F38342ED0302F138
:1002B000020201D41C4805E0406810F4003F0868C1
:1002C00018BF400842431A6062681848C2F303121C
:1002D000024492F8E0501A680490EA401A60FA7BEF
:1002E000DFF84CC0003218BF012288F808200A68E5
:1002F0000A498A421ED1012220E000BF6FAD0008EA
:1003000000020020941A0020001002404C26002019
:1003100000200240100000200410014000127A006A
:10032000001BB7008C01002000093D003C9601082D
:100330007A330020B7498A4202D102228CF8002089
:100340000393B54AB54BCDF814C0DA60A26924AD69
:1003500042F00102A261626AB14EC8F80C20626AE2
:10036000DFF82CB342F080726262A2694FF0000A9B
:1003700042F01C02A2614FF6FF7225F82C2D304688
:1003800029468DF866A009F003FB5846294609F076
:10039000FFFAA448294609F0FBFA4FF010038DF844
:1003A0004A304FF002034FF400720DF1900929F822
:1003B000482D8DF84B3030463261494609F0E8FA55
:1003C00048228DF84A20304604224946ADF848209C
:1003D00009F0DEFA58464FF480624946ADF84820ED
:1003E00009F0D6FA904928464A6842F000724A60FD
:1003F0000EF0F5F88D49199A8D48B2FBF1F28D494E
:100400000A605146182219F06AF8039B4FF47A7279
:100410001B688249B3FBF2F3874A013B5360F02328
:1004200081F823300723C2F808A01360BB68DFF807
:1004300064A2CAF80030814B0FCB85E80F00A36996
:10044000199843F00803A361A3691AA943F00803AC
:10045000A3610823CBF810301023CBF8103009F03B
:1004600097FA1B981CA909F093FADDF814C04FF411
:1004700080529CF80030ADF86420022B34BF142366
:1004800010238DF866304FF002038DF86730A369B2
:1004900038BF4FF0000B43F00403A36128BF4FF0B7
:1004A000010B3046294609F073FA654BBBF1000F8A
:1004B00001D0644A00E0644A00201A600FF060FF37
:1004C000DAF800301B0713D597F89831012B0FD8B5
:1004D000D8F80C205D4B12F0805B93F89A3100F055
:1004E0004E8605E0594B002283F89A210BF0E6FA7C
:1004F00064200FF048FEA0225548002118F0EFFFBD
:10050000E369002243F00703E361A36943F4006356
:1005100043F00C03A3614F4B4FF0000B03F11001AC
:1005200002F801B001320E2AF5D14B4CFF229A7726
:10053000DA7783F8202083F82120204659461022BC
:1005400018F0CDFF454B464A23606360A360E3602B
:10055000444B59461A6044483C22DAF800A018F08F
:10056000BEFF5946CAF380140520404BDFF8F8E07F
:10057000CA5C0C234B4303F80E2044B91E3A012AEF
:100580009FBFFF2200F1FF3003F80E20C0B20131FF
:100590000529EAD1364B97F805B01870354B364926
:1005A00083F800B0354B2B4AC8F82430C0330B60B9
:1005B000334B1AF0200F03EBCB035B7818BF0123FA
:1005C0009362002340F2DC512E4A22F813100133CB
:1005D000082BF7D1484600211C2218F080FF1AF49E
:1005E00000730AF4006957D01AF4015F0BD1B9F116
:1005F000000F0AD0244A97F88C01A2F118010128B3
:1006000008BF0A4602E0214A00E01F4A03921895FB
:1006100043E000BF001BB7000005FA0500ED00E055
:1006200000080140001001400000014040420F005E
:10063000601C00202C1B002010E000E02C9701081B
:100640005C330020D1FA0008E5FA00084C260020AF
:10065000C01C0020000200201416002009D300084E
:1006600052280020AC2D0020B42D0020F0C101083C
:10067000DC15002038060020DC1D0020602600204C
:10068000E4BF0108CC070020549601083C960108FD
:10069000000C0140F42D00200393BBF10E0F04D099
:1006A0000BF0EF0BBBF1080F02D101228DF85A209D
:1006B000012005930DF058FA8DF84D0002200DF041
:1006C00053FACAF340028DF84F20CAF340328DF836
:1006D0004820CAF3C0328DF84E008DF851408DF895
:1006E0004B20059BB9F1000F07D097F88C9109F1C9
:1006F000FF34D4F1000949EB0409003318BF01238A
:100700008DF85330D8F82830CAF30042003318BFB0
:1007100001238DF85430CAF300538DF85530B7F8E3
:100720004A318DF85220B7F848211AF4805FADF8AD
:100730005830B7F85631ADF85E2018BFA54AADF86D
:100740005630CAF3804318BFB2F850218DF85030AC
:10075000B7F8543118BFADF85E20B3F5FA7FADF8A5
:100760005C3084BF0023ADF85E3097F8DE318DF841
:100770004C90CAF3C0040AF001099748002178227E
:1007800088F82C308DF849908DF84A4018F0A7FE73
:100790009DF85A30002B0CBF00230223B9F1000F43
:1007A00000D104B10133049A02EB8303D3F8003182
:1007B0009A1E1A330693002305920493059B33F87F
:1007C000024F05934FF6FF739C4200F0EF819DF8B6
:1007D0004D20E3B2240AE7B262B1804901EB031174
:1007E0004A68B24206D10A89042A00F0DA81082A4E
:1007F00000F0D7819DF84E207AB17849784801EB16
:1008000003114A68824208D10A89B2F5806F00F06C
:10081000C881B2F5006F00F0C4819DF8512032B15B
:100820006E491A0189586F4A914200F0BA819DF8C9
:10083000520030B169491A0189586A4A914200F060
:10084000B0819DF84F204AB1644901EB03114A6819
:10085000B24203D10A89102A00F0A3819DF84B20EF
:100860004AB15E4901EB03114A68B24203D10A89D9
:10087000022A00F096819DF84C205AB15749DFF8C2
:1008800060E101EB03114A68724503D10A89022A2B
:1008900000F08781DDF860E0BEF1000F14D04F4A10
:1008A00002EB031CDCF80410DEF8002091420BD1AF
:1008B000BCF80820BEF80410914200F07281BEF826
:1008C0000610914200F06D81022C02D19DF8482063
:1008D00003E0012C04D19DF84920002A00F0618139
:1008E0009DF854203D4C4FEA031862B19DF85A2000
:1008F0004AB9A3F10802012A05D854F808203A4958
:100900008A4208BF04279DF85520444452B19DF8FF
:100910005A203AB910B10C3B012B01E0043B032BE8
:1009200040F21B81012F67D1DFF8C890FF2389F8BF
:10093000743089F87530294B4FF0000A03EB080238
:10094000517B506802F1080B12898DF86610ADF8E2
:10095000642019A9022289F87CA0C9F8884007936D
:100960008DF8672089F830A0C9F834A0C9F838A0FC
:10097000C9F83CA0C9F870A089F876A089F877A0DA
:1009800089F878A009F004F8079B9BF8021053F847
:100990000800524608F08FFF204651463A4612F0B2
:1009A000B7F9124B09F18C01C9F88C30104B09F1E1
:1009B0009002C9F89030C9F894A0204612F0F0F9DE
:1009C000054B20219A7803EBC20251721A79013249
:1009D0001A71E2E04C2600208C080020BCBA010805
:1009E000000C014000040040002C0140DD94000890
:1009F0005194000800020020022F59D19DF81030B8
:100A00001C2101FB03FCBC4BBC4A9DF8101003EBFE
:100A10000C0A8AF87D1002EB080191F80DE001F153
:100A20000803486809894FF000094FF0010BADF841
:100A300064108AF87E9019A98AF886908AF87CB0AA
:100A4000CAF88840CDF824C08DF866E00892079374
:100A50008DF8677008F09CFF079B089A997852F808
:100A600008004A4608F027FF204649465A4612F039
:100A70004FF9A14BA24ADDF824C0CAF88C209C444F
:100A8000A04A0CF18C01CAF89020CAF894900A1D73
:100A9000204612F085F99C4B40219A7803EBC20264
:100AA0005172DA785A44DA70049B5B44049374E020
:100AB000032F50D19DF85030934F93B14FF6FF72F2
:100AC00000232046082197F8018009F05FF88F4B3A
:100AD000192243F828008E4BC360BB7807EBC30391
:100AE0002DE0BDF85C2097F80180B2F5FA7F13D9AC
:100AF000884B2046B3FBF2F2082192B2BDF85E307B
:100B000009F044F8814B0D2243F82800824BC36062
:100B1000BB7807EBC30312E0804B2046B3FBF2F235
:100B2000012192B2BDF85E3009F030F8774B09220E
:100B300043F82800764BC360BB7807EBC3035A72B7
:100B4000BB787A78013307F8332007EBC30301320F
:100B50005C607A7021E0042F23D1BDF856206F4BE2
:100B6000694F93FBF2F2012192B2BDF85830204652
:100B700097F8008009F00AF85F4BBA7803EB880316
:100B8000013207EBC201C3F85C010A234B703B78CA
:100B90004C6007F8323001333B705B4A9378013385
:100BA0009370059B069A93427FF408AE564A524EC4
:100BB00011785B4B86F87C115A4900240F781C7021
:100BC000A7F11701022990469A461AD8736A0021A4
:100BD000185903EB040916F0E3FD10B1B36A7BBBAF
:100BE00027E0514B04EB030E99E80F008EE80F004D
:100BF0009AF8003010340133C02C8AF80030E5D167
:100C0000ECE74A4B13F837C003EBC703D3F8049063
:100C10008AF800C0B9F1000FE0D06445DEDA424A3C
:100C2000230103EB020E4B440FCB01348EE80F007F
:100C3000F3E73F4B1A68994612F4805F26D11FE014
:100C40003C4B3D4A13F8370003EBC7035C68107058
:100C5000002CEED000238342EBDAC3EBC301621811
:100C6000D2F80090DFF8DCC0013341F80C9001EBC2
:100C70000C0E9188AEF8041092798EF80620EAE7FF
:100C800007F0EF03082B2D4B25D126E09AF8003012
:100C9000012BF5D92A4C04EB031303F1100A10348D
:100CA0005445EDD054F8100C4FF07C5116F0E4FB95
:100CB0004FF07C5144F8100C54F8140C16F0DCFB87
:100CC0004FF07C5144F8140C54F80C0C16F0D4FB83
:100CD00044F80C0CE3E70E2F08D11A78182F42F0D5
:100CE00010021A7030D10FF013FC2DE01A78192F72
:100CF00022F010021A70F5E700020020BCBA0108C9
:100D0000F1980008299400088C080020901C00200D
:100D10009194000800127A00A194000840420F004C
:100D20004F1C00203806002070050020E4BF010899
:100D3000F42D0020F8A30108681D0020601B00208E
:100D400078050020691D00200FF0C6FB98F80320ED
:100D50007C4B7D4C9A8098F80420DFF80C82DA8076
:100D6000D9F800304FF0030A58035EBF774B0122D9
:100D70001A70774A4FF0040B13784FF4805743F002
:100D800004031370734B93E80300D8F8183085E818
:100D9000030043F00803C8F8183019981AA908F09E
:100DA000F7FDD8F81C30294643F48043C8F81C30BE
:100DB000D8F81030204643F48043C8F81030182388
:100DC0008DF866304FF42043ADF864308DF867A09D
:100DD00008F0DEFD4FF4804329462046ADF864302C
:100DE0008DF866B008F0D4FD1023294620468DF812
:100DF0006630ADF8647008F0CBFDD8F810303220C2
:100E000043F48043C8F81030D8F8103023F48043FE
:100E1000C8F81030504B1A8802F4415242F445721F
:100E200042EA0A021A80998B072221F40061090420
:100E3000090C99831A821A8892B242F040021A80F1
:100E40009F2327618DF8403000238DF841308DF8C5
:100E500042308DF843300FF096F928465A466761C4
:100E600010A910F09BF927619DF866309DF8652068
:100E70001B0243EA02439DF8672045461343374A65
:100E8000DFF8E880934212D032200FF07CF96761DE
:100E9000F52010F073F9FF2010F070F97028276129
:100EA00005D198F80030022B08BF88F800A098F808
:100EB0000030032B0CBF1F2002200CF022FD98F8FD
:100EC0000030032B02D010F0DFFB04E002200CF016
:100ED0004BFE0028F7D0D9F800404FF0100C04F476
:100EE000004304931E4B6246184600210693CDF83A
:100EF00014C098F800A018F0F2FA4FF6FF72069BA3
:100F0000ADF8402002224FF0000B14EA020104F475
:100F100000678DF842208DF843B01C46DDF814C000
:100F200026D0104810A9ADF840C010F05BFC042397
:100F300023700722012384F801B0A370E2709B465E
:100F400017E000BF20080020000C014080070020AF
:100F5000941A00204C97010800380040152020000A
:100F60004018002000080140001002407A330020A1
:100F70008B46049B8BB1022210A99948ADF8402002
:100F800010F030FC01220BEB0201072384F805B0BE
:100F90002271A271E3715FFA81FBBAF1010F12D9DC
:100FA00020228F4810A9ADF8402010F01BFC05222C
:100FB00001232272A3720BF10102072384F809B006
:100FC000E3725FFA82FB97B10222864810A9ADF85E
:100FD000402010F007FC092201232273A3730BF1B8
:100FE0000102072384F80DB0E3735FFA82FB6A689D
:100FF0007D4842F440426A606A697B4F42F00102D8
:101000006A61AA6942F40072AA610DF04FFB774A47
:1010100000251992764ABBF1010F1A9294BF2A4615
:1010200080221E924FF480721F924FF480622092B1
:1010300020223846219219A94FF4005222921B9582
:101040001D952395CDF870B00DF012FB3A686949F3
:1010500042F001023A604A68BBF1010F22F47022AB
:1010600094BF0020012022F4807242EA00224A60EC
:101070008868614A0BF1FF33024042F4602242F07B
:1010800002028A60CA6ADBB222F4700242EA0353A7
:10109000CB6201236219917800295BD0605D591CF5
:1010A0000928C9B2D278DFF84CE111D9A0F10A07BA
:1010B000DEF80CA007EB47074FF0070C0CFA07FC13
:1010C0002AEA0C0CBA404CEA0202CEF80C200EE0E0
:1010D000DEF8107000EB400C4FF0070A0AFA0CFA29
:1010E00027EA0A0702FA0CF23A43CEF81020062B40
:1010F000404F0ED8013B7A6B03EB83034FF01F0E7A
:101100000EFA03FE22EA0E0200FA03F313437B6396
:101110001FE00C2B0ED8073B3A6B03EB83034FF019
:101120001F0E0EFA03FE22EA0E0200FA03F3134327
:101130003B630EE0A3F10D02D7F82CC002EB820254
:101140001F2393402CEA030E00FA02F34EEA030336
:10115000FB620B460435102D9CD1264B9A6842F455
:1011600080729A609A6842F001029A609A6842F02E
:1011700008029A6099681F4A090741D5FAE7013BBE
:10118000092B3FF6B5A91D49164B086810225A6174
:101190002946199012480592039308F0F9FB08219B
:1011A00031613C200EF0EFFF039B059A1A6197F81E
:1011B0009A319B45BFF696A90A4A08231361782005
:1011C0000592736103930EF0D3FF039B059A782079
:1011D000536133610EF0CCFF0BF1010BE7E700BF69
:1011E00000080140000C0140080002404C2401406E
:1011F0005018002000240140FDF7F1FF549701082A
:10120000936843F004039360A74B9F6817F00407AB
:10121000FAD19A6842F4A0029A60D9F800309B0390
:101220001FD5C8200EF0AFFFAE2012F014FD08B19C
:1012300012F01DFD9D4C86F87D01C8200EF0A3FF25
:101240009B4B002114222046C6F8803118F047F944
:101250000223E37013F049FA0EF01EFC954B034491
:10126000A360954B98F8001003F11802012988BF7C
:101270001346924D002486F8844123206C70C6F8F2
:1012800088310EF080FF752101220EAB682012F02C
:1012900081F80FAB68202146012212F07BF89DF8FF
:1012A0003C30A5F5C27503F07E03682B8DF83C3009
:1012B00001D1012345E09DF8384004F07E04682CFC
:1012C0008DF838403AD10223062185F884310A4648
:1012D00019AB204612F05EF89DF867309DF8692042
:1012E00003F001035B0002F0010243EA82029DF871
:1012F000653003F00103134312D05AB2012A01D121
:10130000002302E0022A03D1012386F885311AE086
:1013100003F00303032BF7D003200CF0B5FD12E01C
:1013200010AB20460C21012212F034F89DF8403019
:1013300013F00F03F0D0042BE6D1E1E7702C02D1BB
:10134000032385F884315E4C00214FF482722046DD
:1013500018F0C5F84FF48073201D00217422A4F802
:10136000AA3018F0BCF84FF07E53A360E36023610D
:10137000544BB3F85C01B3F85E51B3F8608120B907
:101380001DB9B8F1000F00F08980012384F85030B6
:1013900000B216F01DF84C4916F06EF84B4916F0E5
:1013A0001FF9064628B216F013F8474916F064F8FC
:1013B000464916F015F905460FFA88F016F008F8B8
:1013C000414916F059F8414916F00AF9834630466A
:1013D0000AF0C2F8814630460AF04AF80646284626
:1013E0000AF0BAF8804628460AF042F80546584600
:1013F0000AF0B2F8824658460AF03AF8494683465F
:10140000504616F039F849460490584616F034F81C
:1014100051460590304616F02FF859460690304652
:1014200016F02AF841460790504616F025F859461E
:10143000606508F1004016F01FF82946A065E565D3
:10144000069816F019F80146059815F00DFF294683
:101450002066079816F010F80146049815F002FF70
:101460004146606606F1004016F006F82946A0667F
:10147000049816F001F80146079815F0F3FE294686
:10148000E066059815F0F8FF0146069815F0ECFEA9
:1014900049462067404615F0EFFF6067094D2B7CF9
:1014A000C3B10B4A526A16E000240140FC2D002013
:1014B000DC270020404B4C006C9601088403002080
:1014C000102400204C260020DB0F4940000034434C
:1014D000700000201A468DF841306B7C8E4C8DF8E0
:1014E0004230AB89A26711938C4B8D4A9846C4F861
:1014F000C02095F8682195F863B18DF840201A68EE
:1015000095F87191B2F8622095F872A1854E049217
:10151000B36843B1F068984718B1337984F88030E4
:1015200001E01036F4E7E36F002B00F00F817E4EF0
:1015300000223368BBF1010F43F001033360764BA7
:1015400083F89C2010DD794B9A686AB11968594577
:1015500008DBD86805939047059B18B11B7984F880
:101560009C3001E01033EFE7D4F8983083B9DFF80E
:10157000BCB1DBF808305BB1DBF80C00984720B158
:101580009BF8043084F89C3002E00BF1100BF0E77C
:10159000D4F898301BB1336843F002033360BAF1DA
:1015A000010F03DCD4F8C430E3B923E0DFF890B1D5
:1015B0005BF8083C002BF5D05BF8102C524504DB9F
:1015C0005BF8040C98470028ECD10BF1100BEFE707
:1015D000DAF80C00984728B90AF1100ADAF808304E
:1015E000002BF5D1D4F8C4303BB1336843F0040389
:1015F000336002E0DFF84CA1F0E733689B0703D5C6
:10160000D4F8A030002098479DF841304848494917
:1016100093B19DF84030002B9DF8423008BF7D22E9
:1016200003F1FF33DBB218BF4FF47A7203FB0222DF
:1016300080F88C310A6003E080F88C31119B0B60DC
:10164000D4F8843010A898470023B9F1010F84F82A
:10165000B03014DDDFF8F0A0DAF808307BB1DAF84A
:1016600000204A4508DBDAF80C00984720B19AF8C8
:10167000043084F8B03002E00AF1100AECE7D4F844
:10168000AC3083B9DFF8C090D9F808305BB1D9F835
:101690000C00984720B199F8043084F8B03002E08B
:1016A00009F11009F0E7D4F8AC301BB1336843F00E
:1016B0000803336095F858310BB184F8803095F801
:1016C00059310BB184F89C3095F85A310BB184F83C
:1016D000B030336818071BD5BDF910904FF0640A7D
:1016E00099FBFAF6304615F073FE83460AFB169016
:1016F00000B215F06DFE104915F0BEFE01465846C9
:1017000015F0B2FD0D4915F0B7FEC4F8BC0020E09D
:101710000023C4F8BC301CE010240020442E00201C
:1017200069EE00087CBA0108C03000209C960108D0
:10173000000200205C1B00208988883C00002041BA
:10174000DC960108CC960108EC96010801200CF00B
:101750009BFB2C4A0A26137843F0020313702A4B92
:1017600010225A6108221A61DFF89C901920D9F8DA
:101770000C30013E83F01003C9F80C30D9F80C305E
:1017800083F00803C9F80C300EF0FDFC01200EF0C8
:10179000F7FD19200EF0F7FC00200EF0F1FD16F019
:1017A000FF06E1D10823C9F810301023C9F8103022
:1017B000164BD3F80090164B1A689A4692F90C20F3
:1017C0009AB9144E336819072AD5DFF83C904FF0C8
:1017D000100AD4F8B430C9F814A0002098470E4B72
:1017E0000122C9F810A01A701AE0DAF800300B498B
:1017F000986831444A46243609F009FBB6F5907FD3
:10180000F3D1DEE7941A0020000C01405C1B00209D
:101810006C050020C0300020383000206006002019
:10182000BB4BDFF810931B68187B15F0D1FDB9494D
:1018300015F022FE09F090FEB74BB6491860D4F8B7
:10184000940015F019FEB54B1860B4F8AA0015F015
:10185000BFFD0146B24815F0C3FEB24915F0C0FE07
:10186000B14B18600EF096FE4846FF211C2217F07F
:1018700036FE4846D6F800C0AC4B01221CF0020FE1
:1018800018BF89F801201A701FBF03221A700222A4
:1018900089F802201CF0040F18BF1A784FF00001DD
:1018A00089F800101FBF511C1970032109F802109C
:1018B0001A784FF01B09511CC9B21CF00A0F19709D
:1018C000DFF870E200F8029013D04FF0040C0EF82D
:1018D00001C0911CC9B24FF0050C0EF801C093492C
:1018E00002F1040C033281F800C0D2B206210EF8D6
:1018F00002108F4A11688A0641BF1A7802F1010E60
:1019000083F800E04FF0070E48BF00F802E00A0637
:101910000ED51A784FF0090E00F802E002F1020E1F
:10192000013283F800E0D2B24FF00A0E00F802E074
:1019300095F805E00EF0EF02082A02D0BEF10E0F76
:1019400008D11A7802F1010C83F800C04FF00B0C9B
:1019500000F802C01A784FF0120902F1010C5FFA88
:101960008CFC83F800C00C2383544B0741BF6F4BA2
:1019700002321A706F4B44BF102203F80C206B4BDD
:1019800011F4806F1A7802F1010C5FFA8CFC83F875
:1019900000C000F802900BD095F83092B9F1000F1A
:1019A00006D002321A70634A4FF0130902F80C9005
:1019B0008A0541BF1A7802F1010C83F800C04FF08C
:1019C000150C48BF00F802C0BEF1180F14D11A78E8
:1019D0004FF0160C00F802C002F1010C5FFA8CFC0B
:1019E0004FF0170900F80C9002F1030C0232D2B24A
:1019F00083F800C000F802E00A0341BF1A7802F140
:101A0000010E83F800E04FF0190E48BF00F802E025
:101A1000CA0541BF1A78511C19701A2148BF815458
:101A20001A78511C197014238354002198224248BB
:101A300017F055FD0FF021FD4049414B4148196019
:101A4000B5F85221404B016040491A800023404ABA
:101A50000B70D8F800E0B5F8A011138093700EF168
:101A600085028BB2DFF8F090DFF8F0C0D9F8000003
:101A7000DFF8ECA000F596704AF827002CF8173034
:101A80000137122F6046EDD1294F0EF1D50ED7F850
:101A900000C01CF4805F08BFB5F8A631C38013787E
:101AA000B3B9937892F803A0534511D20BB1013B1F
:101AB00001E00AF1010303EB830392F801A003EBB9
:101AC000830303F561739BB20AF1040A20F81A300C
:101AD00004327245E3D11CF0080F00F0028195F842
:101AE0009851072D00F2F780DFE815F008000B0091
:101AF0003C0068008100A100A100DB0045F2F0522B
:101B000001E042F6F822134B1A800FF07CFDE1E071
:101B1000E004002035FA8E3C18050020080500205E
:101B20000AE81C4100401C46F02F0020C818002085
:101B3000F42D0020C9180020B4250020DC27002047
:101B4000E809002084180020EC0900203B0900204F
:101B50009418002044050020901800208A250020B9
:101B60008409002042F6F822864B09011A800A23D4
:101B700091FBF3F10023A1F5B061834A42F82310F1
:101B80000133122BF9D1814A814940201160814AE9
:101B900013700CF017F8002800F09D807E4B012296
:101BA00093F8993190F90000002B14BF0723062306
:101BB0008DE80C004021794A794B86E042F6F82204
:101BC000704B40201A80774A704B1A60714B10227C
:101BD0001A700BF0F7FF00287DD001234FF0000AA8
:101BE00090F9000040218DE808046F4A6BE042F64E
:101BF000F822644B40201A806C4A644B1A60654B93
:101C000008221A700BF0DEFF002864D001234FF089
:101C1000000C90F9000040218DE80810644A4FF450
:101C2000E1330BF09BFE634BC3F890014FE042F6AB
:101C3000F822544B4FF00C0E1A80564B5E485F4909
:101C40005F4A83F800E0062D4FF0000303700B702D
:101C500013700BD05B4B1B221A705B4B052283F871
:101C600000E05A4B4FF4E1351A7008E0554B212241
:101C70001A70554B83F800E0544B1D70544D554A73
:101C8000424B40201A600BF09DFF20B301234FF020
:101C9000000E90F9000040218DE808404E4A2B4686
:101CA00013E04E4A394B40201A603A4B0A221A7010
:101CB0000BF088FF78B10123002590F900008DE832
:101CC0002800474A40214FF4E1330BF047FE003033
:101CD00018BF012028B9082009F068FC414A2B4BA5
:101CE0001A603A68500441BF2A4B12211970274BE1
:101CF00044BF3D49196042F201031340ABB144F6C1
:101D00002061204B1980910441BF224B082119709A
:101D1000364944BF1D4B1960D30741BF1D4B0C21F1
:101D20001970334944BF194B1960150640F19F8063
:101D30002048DFF8C8B04FF0000A2E4D5146C0F8D9
:101D400094B1152200F5CC7085F801A0C5F804A067
:101D5000C5F808A017F0C3FB274AABF105035046AE
:101D6000136004920AF0F6FED9F800300220EB600E
:101D70000BF028FF049A9646002841D1802009F0F4
:101D800015FC6CE044050020F81600201800002027
:101D900069E00008A82D00204C2600203DE3000843
:101DA000A086010055E0000891E200083DE000082F
:101DB00045E200080002002086160020AD17002032
:101DC000AC170020AE17002085160020AF170020AA
:101DD00090D0030051DF000819E1000845DF00083A
:101DE000CDE00008C9E0000899E00008B9E000086B
:101DF000A9E000083C3000205C3000205228002080
:101E000090F805C06B783D490C2202FB0312527812
:101E1000624504D00133DBB2042BF4D900236B708C
:101E2000DEF800306A781B7890F90000002B4FF044
:101E30000C0303FB021314BF4FF0030E4FF0010E0F
:101E400000225B78CDF800E0019202210BF086FDC4
:101E50002B4B1860002891D001200AF07BFED8F8A7
:101E60000000284B00F5CB721A6010F01BFC3B6899
:101E7000980540F1E580244B0021B3F8D0302022B2
:101E8000A4F8EC30214C224D04F5D87017F027FB54
:101E900000230093022032211E4A04F5D87308F073
:101EA0006BFDA646C4F8BC01002800F09F801A4ACA
:101EB0001A4B03601388591CA4F8B831184B1180D1
:101EC000C4F8C031174BB5F8EC20C4F8B031164B4C
:101ED000C4F8B4311AB9154B01221A7086E0037A9E
:101EE000023BDBB2072B23D8012101FA03F313F0E5
:101EF0008F0F1DD0428182861DE000BFB4A801086B
:101F0000F82D0020440A002070000020000200206C
:101F100010240020F59E00081C0000209CBB010836
:101F200031D46842C5940008799600087C330020BB
:101F3000B94B09221A70B94B00241B680471C5F80B
:101F4000F030039BB64ACEF8D0314FF4C873A5F8F1
:101F5000F4304FF49673A5F8F6304FF4E173A5F81A
:101F6000F8309369C5F8FC0043F001039361039BCB
:101F70004FF010081B880EA9ADF8383002238DF8F9
:101F80003B30039B8DF83A80586807F001FD039BB6
:101F90000EA91B89ADF8383004238DF83A30039B25
:101FA000D86807F0F5FC039B0120197D07F0DBFCE6
:101FB000039B9C4A1B6919A853618DF869804FF0F7
:101FC000010819938DF868408DF86A800EF030FF93
:101FD000039B0FA85B7D8DF83E408DF83C300323BA
:101FE0008DF83D308DF83F800EF004FF33688E4A47
:101FF00043F010033360B5F9F460022396FBF3F16C
:10200000B5F9F800118090FBF3F015F0E1F987497C
:1020100015F0E6FA864915F02FFA09F09DFA044604
:10202000844B1860304615F0D3F9214615F024FA98
:1020300015F0E8FB804B4FF0FF3218807F4B1A60A1
:102040003B68590555D57E4C7E4BD4F8D49104207D
:10205000C3F800900BF0B6FD0421C4F8D8010BF0D2
:102060008EFD794B84F8DC010820C3F800900BF05A
:10207000A9FD764B082118600BF081FD744D84F8A2
:10208000DD01002128462C2217F029FA8E236B70DF
:102090004FF07C08E0237D26EB7085F8008085F802
:1020A0002B606C4D2C220021284617F018FA8A2349
:1020B0006B702020A023EB7085F8008085F82B60E2
:1020C000C4F8E0910BF07EFD2021C4F8E4010BF090
:1020D00056FD84F8E8011020C4F8EC910BF072FD75
:1020E0001021C4F8F0010BF04AFD84F8F40113F05C
:1020F00069FC594B594C1B78022B65D1584A002575
:102100001388322023F040031B041B0C1380138818
:102110004FF4805623F038031B041B0C13801388E4
:102120009BB243F0400313809F238DF83C308DF821
:102130003D508DF83E508DF83F500EF024F88DF84C
:102140006550484D04226E6119A80FA90FF026F8BA
:102150002E619DF866309DF865201B0243EA02421D
:102160009DF867301343404A934219D00AD8A2F52C
:102170001A42033A93420CD002F51A4202329342B9
:1021800009D01CE0394A934205D00132934207D06E
:1021900015E0202300E0802323804FF4807302E0C9
:1021A0004FF4807323806380A38822881B02A3607E
:1021B0005343E360224B012283F8F52104E000231E
:1021C00023806380A360E360E468002C50D0E40ABD
:1021D000A1460026A6420ADA35196D100DF16408F1
:1021E000E8024146102207F05FFE0F2807DC10F0DE
:1021F0009FFC134B4FEAC922C3F8F82138E00023B3
:1022000058F82320013240F084800133042BF7D1A9
:10221000A9462C46DEE700BF7C3300204C0000209E
:102220000010024000040140D42F00200000204193
:1022300035FA8E3CCC2F0020DC2F0020D02F002040
:1022400000020020F00A0020400B00208C0B002030
:10225000100B0020440B00207A33002020000020C7
:1022600000380040000C014018BA20001740EF0071
:102270003968294B11F40022284C18BF01221A702A
:102280006379052B02BF264B4FF4C8721A80254B89
:102290004FF47A721A80244BC8221A80234A13788A
:1022A00043F008031370224A137823F002031370DB
:1022B00040F602030B40A3B11E4A1F4B4FF07E5065
:1022C0001A601E4B03221A701D4B01221A701D4A00
:1022D000002313801C4A1D4913804CF2503208F031
:1022E00096FD3B689A0341BF194B04221A71DA78B4
:1022F00044BF42F00102DA70A36801223B60154B33
:102300001A70154A137863F07F03137025B0BDE887
:10231000F08F6E1C25467CE7280800204C26002004
:10232000FE090020F8090020B02F0020601B0020CB
:102330007B330020CE27002038180020BC3000203E
:1023400088010020AC320020AE3200205C18002052
:10235000FC2D002080070020941A00202DE9F04F6A
:1023600097B007460FF058F8984B85B21D80284665
:1023700015F02AF89649824615F07EF8954C964B52
:10238000064618600021606815F00AFA08B1934B00
:1023900063606168304614F067FF0146304615F00F
:1023A0001FF9D4F8009006464946504614F05AFFEB
:1023B0000146304615F060F80146484614F054FFD7
:1023C000206015F045FA864E864B328880B2A91AF5
:1023D0002D1A5D80A081844D801ABA8D9880198055
:1023E000DA808248D5F888309847DFF8E8813746A8
:1023F000079548B97E4F7F4E3B68049713F0020F54
:1024000040F0008100F0F1BDD8F81090002148465E
:1024100015F0C6F970B1784E3388002B00F0B58006
:10242000D4F88830754F1B7807F10C0504934FF0F2
:10243000000872E098F814309BB9C8F81830A56904
:10244000644E022D0BDC06F11C03242101FB053137
:1024500048463A68013508F0DAFCB561EFE7012338
:102460003375237D002BD6D05A4B00229A61A56983
:10247000584E022DCFDC5D4F57F8250014F0A8FF11
:1024800006F11C03242101FB053108F08DFC16F038
:1024900005F947F825000135B561E8E7D5F800C032
:1024A00008936146CDF814C0069014F0DBFE089B3B
:1024B0008346184614F08CFF0146584615F090F8F4
:1024C000DDF814C00146604614F0CEFE0346069ABD
:1024D000194668601046059314F0C4FE014658463C
:1024E00014F0CAFFA96814F0BFFE059BE8602B60DA
:1024F000A8603E4ADFF808B10023BAF1010F49F89D
:10250000023049F80B3024D008F10108B8F1030F6C
:1025100007F1040705F1140543D0B6F800A04FEA0F
:102520008809BAF57A7F02BF00233B602B612F4BED
:1025300053F828003B6803443B6014F049FF2B69C3
:102540000133012B2B61A9D1002368602860AB60A7
:10255000CFE72869012807DD013814F039FF01466B
:10256000E86815F03DF800E0002016F05DFA049BE5
:10257000824663B1184614F02BFF0146504615F011
:1025800037F920B14FF47A733380002311E03B68B0
:102590004FF47A7203F5FA7393FBF2F34BF80930B8
:1025A000B2E73088012801D10BF0ECFB3388013B06
:1025B000EAE70E49124851F8232050F82300121A76
:1025C00041F823200133032BF3D113E778330020A4
:1025D000BD378635FC030020E032002083F9223E1F
:1025E0005C1B00202008002010240020401B00203D
:1025F000C030002020330020F8090020880400208B
:10260000D00400208E4B1B78002B00F0EE840DF0E0
:1026100043FAD4F8E0308B4DC31A0693D4F8E43073
:10262000C4F8E00093F8008005930027B8F1000F8C
:102630003AD056F8270014F0CBFE8346069814F0E3
:10264000C3FE814914F018FF00218246686815F026
:10265000A7F858B1404614F0BBFE7C4914F00CFFBB
:1026600001464FF07E5014F0BBFF68605046696829
:1026700014F0FAFD0146504614F0B2FFD5F8009070
:1026800082464946584614F0EDFD0146504614F086
:10269000F3FE0146484614F0E7FD286015F0B2F855
:1026A0006B4A22F8170004E056F82710684A22F80F
:1026B00017100137032F05F10C05B7D16449B1F8A4
:1026C00002A0B1F800900FFA8AF252430FFA89F390
:1026D00003FB03228B8864210993BDF9243003FB9B
:1026E000032301FB03F2079BB3F8AA305B4392FB81
:1026F000F3F3523B0B93049B1B68180706D5554A0E
:10270000116819B1516809B192687ABB524A1278BE
:1027100002F0100101F0FF0561B313F0200529D08C
:1027200002F0020303F0FF0523B34C4B1B78042B8C
:102730001FD94B4B1B88B3F5967F1AD3494B002604
:10274000B3F9040014F044FE474B0546188814F012
:102750003FFE464914F044FF0146284614F082FD2E
:10276000434914F089FE0125804606E00025012634
:1027700001E000252E464FF00008069814F024FED4
:10278000314914F079FE3B4FD4F80C41049038687D
:1027900014F01EFE214614F06FFE0790786814F0C6
:1027A00017FE214614F068FE0890B86814F010FE79
:1027B000214614F061FE274A834607985368014674
:1027C0000A931768946814F057FE0C900898014615
:1027D00014F052FE0C9A0146104614F045FD59467D
:1027E0000C90584614F048FE0C9A0146104614F01E
:1027F0003BFD16F019F90C90002D41D040461E49C2
:1028000014F0F6FF28B14046104914F02BFD804625
:10281000F4E74046194914F0CDFF28B140460B4972
:1028200014F022FD8046F4E74FF07C51404614F04E
:1028300023FE08F01DFE002114F016FD054620E0E1
:1028400054330020E4040020BD378635DB0FC94037
:10285000E20A00201C300020601B0020FC0A00203F
:10286000F80A0020381B0020DC070020000020416F
:1028700035FA8E3C401B0020DB0F4940DB0F49C07E
:102880000025002E00F0A180384614F0A1FD074677
:102890000A9814F09DFD0646204614F099FD39462D
:1028A0000446384614F0E8FD31468046304614F0C0
:1028B000E3FD0146404614F0D7FC21468046204601
:1028C00014F0DAFD0146404614F0CEFCA3498046E0
:1028D00014F08EFF002878D0404616F0A5F8014687
:1028E0004FF07E5014F07CFE80463846414614F08E
:1028F000C3FD41460A90304614F0BEFD41460646EF
:10290000204614F0B9FD964F044639680A9814F031
:10291000B3FD79680D90304614F0AEFD0D9B014675
:10292000184614F0A1FCB9680D90204614F0A4FDDF
:102930000D9B0146184614F097FCF9680D900A9813
:1029400014F09AFD39698046304614F095FD014631
:10295000404614F089FC79690646204614F08CFD47
:102960000146304614F080FC0D9B0446194618467B
:1029700014F082FD21460646204614F07DFD0146F6
:10298000304614F071FC16F04FF80146204614F062
:1029900073FD00F10048B969404614F06DFD002157
:1029A00014F062FCF9690646404614F065FD00210A
:1029B00014F05AFC396A0446404614F05DFD0146A5
:1029C000284614F051FC054601E0002426460B9BE6
:1029D000262B00F286800FFA89F014F0F9FC81466C
:1029E0000FFA8AF014F0F4FC0746BDF9240014F045
:1029F000EFFC49468046484614F03EFD3946824683
:102A0000384614F039FD0146504614F02DFC41467D
:102A10008246404614F030FD0146504614F024FC36
:102A20004E49824614F0E4FE00285AD0504615F074
:102A3000FBFF01464FF07E5014F0D2FD824648461F
:102A4000514614F019FD51468146384614F014FDE4
:102A500051460746404614F00FFD414B82461A6A24
:102A600038461146D3F81C800A920B9314F004FDEB
:102A700041460990504614F0FFFCDDF824C00146A1
:102A8000604614F0EFFB0146304614F0EDFB0B9B63
:102A900006469B6950461946099314F0EDFC0A9AC4
:102AA00082461146484614F0E7FC0146504614F0B1
:102AB000D9FB0146204614F0D7FB41460446484660
:102AC00014F0DAFC099B80461946384614F0D4FC11
:102AD0000146404614F0C6FB0146284614F0C4FBEC
:102AE0000546059B4FF00009D3F80480494640464F
:102AF00014F07EFE1B4F002838D00C981A4914F0B1
:102B000059FE002838D03146404614F0B5FC0499EF
:102B100014F0B2FC0146D7F8100114F0A5FB2146D1
:102B2000C7F81001404614F0A7FC049914F0A4FC67
:102B30000146D7F8140114F097FB2946C7F8140191
:102B4000404614F099FC049914F096FC0146D7F81D
:102B5000180114F089FBC7F818010DE00AD7233CCF
:102B6000EC1D0020FC030020C2B8B23EC7F8109153
:102B7000C7F81491C7F81891059B9868064B1B7805
:102B8000590705D4054B1A6844F61F639A4207D9C2
:102B90004FF07E5105E000BF7B33002090180020ED
:102BA000A44914F069FC3146804614F065FCD7F85E
:102BB000101114F059FB0146079814F055FB2146FB
:102BC0000646404614F058FCD7F8141114F04CFB9C
:102BD0000146089814F048FB29468146404614F007
:102BE0004BFCD7F8181114F03FFB0146584614F07F
:102BF0003BFB4FF07C510546049814F03DFC044625
:102C00003046214614F038FC21460646484614F06A
:102C100033FC21468046284614F02EFC864B824623
:102C2000D3F80090854B31461F68854B09F1004071
:102C30001D6814F021FC41460790384614F01CFC36
:102C4000079B0146184614F00DFB51460790284695
:102C500014F012FC079B0146184614F003FB794C54
:102C60000146D4F800B0584614F0FEFA3146206010
:102C70000990584614F000FC51460790384614F06D
:102C8000FBFB079B0146184614F0EEFA41460790FD
:102C9000284614F0F1FB079B0146184614F0E2FAAF
:102CA0000146484614F0E0FA634B4146186008902C
:102CB000584614F0E1FB51460790484614F0DCFBFF
:102CC000079B0146184614F0CDFA31460790284676
:102CD00014F0D2FB079B0146184614F0C5FA0146D2
:102CE000384614F0C1FA554A5146106007905846CC
:102CF00014F0C2FB41468246484614F0BDFB014633
:102D0000504614F0B1FA31468046384614F0B4FB10
:102D10000146404614F0A6FA0146284614F0A4FAEB
:102D2000DDF824C0464B614618600546604614F045
:102D3000A3FB089A06461146104614F09DFB014677
:102D4000304614F091FA079B06461946184614F0CF
:102D500093FB0146304614F087FA2946064628467A
:102D600014F08AFB0146304614F07EFA15F05CFE42
:102D700001464FF07E5014F033FC0546206829468A
:102D800014F07AFB2C4B20602946186814F074FB71
:102D9000294B29461860294B2B4C186814F06CFB02
:102DA000264B29461860264B284E186814F064FB01
:102DB000234B274D18600DF0EDFB216AE06908F008
:102DC000D5FA244914F058FB15F068FC3080A0694E
:102DD00000F1004008F08EFA01461F4814F042FA54
:102DE0001C4914F049FB15F059FC21687080E0681B
:102DF00008F0BCFA174900F1004014F03DFBD5F88B
:102E0000BC1014F031FA15F049FC83B21A044ABF21
:102E100000F56160B380B080104B266AD3F81C11B6
:102E2000304614F0E5FC0E4B1A78D8B142F0080297
:102E30001AE000BF00002041E01D0020E41D00203A
:102E4000E81D002014000020EC1D0020381B00208D
:102E5000102400204C3D0F44DB0FC93FFC03002031
:102E6000601B002022F00802974F1A70B7F900008B
:102E700014F0AEFA8146B7F9020014F0A9FA8046C0
:102E8000B7F9040014F0A4FA21680746484614F084
:102E9000F3FA61688246404614F0EEFA0146504665
:102EA00014F0E2F9A1688246384614F0E5FA0146CA
:102EB000504614F0D9F9A1698246484614F0DCFA6C
:102EC000E1698346404614F0D7FA0146584614F0AB
:102ED000CBF939468346304614F0CEFA01465846BF
:102EE00014F0C2F9E1680646484614F0C5FA2169B3
:102EF0008146404614F0C0FA0146484614F0B4F941
:102F000061698046384614F0B7FA0146404614F02D
:102F1000ABF9059B00F100475B786C4C012B18D195
:102F20006B4B1B785B070ED4D4F82001402390FB39
:102F3000F3F3C01A14F04CFA314614F095F914F07A
:102F400061FCC4F82001D4F82001402390FBF3F089
:102F500001E0B5F8AA0014F03BFA0146304614F03F
:102F600081F9D4F828110646049814F07DF9014639
:102F7000049814F035FBD4F8245180462946304695
:102F800014F070F90146404614F076FA01462846DE
:102F900014F06AF9C4F824010646504615F07EFB89
:102FA000D4F82C514B4C297808F095F92368184433
:102FB0002060384615F072FB297808F08CF96368B8
:102FC00018446060304615F069FB697808F083F9B1
:102FD000A368414A184406991368A0601944116017
:102FE0003E4A13680133136003E0002333607360CB
:102FF000B3603B4BB3F906103A4BD3F800E0BEF890
:103000000A2091420FDBB1F5FA6F9EF80750BFBF5F
:103010008B1A6B43A2F5FA6593FBF5F5ACBFC5F1CE
:103020006405643500E064252F4B304AB3F8A0C135
:1030300093F9623112689BB20492164605930022FE
:1030400040F2E630264B4FEA420933F91280CCEBCE
:10305000080303F2F314844203D8002BB8BF5B4289
:1030600001E04FF4FA73022A049C4FF0640045D04B
:1030700094F81D411CB1A342CCBF1B1B002393FB42
:10308000F0F71B4C6FF0630B34F817A00BFB073BFA
:10309000013734F917400FFA8AF7E41B04FB0BF4ED
:1030A00094FBF0F4134F544427F809400EEB02044C
:1030B00024796343104C93FBF4F364339BB26B436A
:1030C00093FBF0F047E000BFE20A0020FC03002081
:1030D0007B330020E42F002060330020E02F00200D
:1030E0008A250020983000204C260020442E002005
:1030F000F6150020301B00200CFEFFFF94F81E4147
:103100001CB1A342CCBF1B1B002393FBF0F0AE4CC1
:103110006FF0630A0AFB003B04EB400704EB40003E
:10312000B7F93071B0F93201002BA0EB070000FBBA
:103130000BFB9BFBFAFB0598C7EB0B0707FB00F7A4
:10314000A248B8BF5B4287809EF806004343A04870
:1031500093FBF0F0643073786427434393FBF7F3F9
:103160009C4C022AA354F37A9B4C00FB03F393FB81
:10317000F7F3A354737D954C00FB03F090FBF7F03D
:10318000964B9854964B0DD1E0459F700DDB954DB5
:10319000B5F8A221914214DBB1F5FA6FA8BF4FF444
:1031A000FA610FE0E0459D5404DA34F809305B42DF
:1031B00024F809300132032A06F101067FF440AFFA
:1031C000E5E71146891A4FF47A735943C2F5FA625A
:1031D000B1FBF2F1642391FBF3F2DFF858E26FF0F8
:1031E00063003EF8127000FB021101323EF912201A
:1031F00038B2121A514391FBF3F33B44E3807A4B0C
:10320000724E1B885F063FD5784B0A20B3F9043015
:1032100093FBF0F0764B1B88C01A00B214F0D8F87C
:10322000744914F029F9074608F096F980463846A3
:1032300008F01EF90746B6F9020014F0C9F88146F5
:10324000B6F9000014F0C4F84146824614F014F9AF
:1032500039468346484614F00FF90146584614F0A3
:1032600001F814F0CFFA41463080484614F004F9D2
:1032700039468046504614F0FFF80146404613F0A8
:10328000F3FF14F0BFFA70805B4B1A78500703D538
:103290005A4B08225A613CE059490968C9075CBF8A
:1032A00042F001021A70574A5749127812075EBF5E
:1032B0001A7822F001021A70544A126812F0040FB0
:1032C00002D05348008870B95248008808B1970767
:1032D00009D4514A1288003218BF01221AB94F4846
:1032E0000079632806D902220A701A7822F00102B6
:1032F0001A7005E01B78DE0756BF02230A700B70B8
:103300000CF0CAFB464B1B68C01A002801DB0BF00F
:103310001BFB444BD3F88C300BB14348984795F8CE
:103320009E31294F002B00F08980BB89B7F84801F6
:10333000B0FBF3F03D4B461C1B78B6B2A7F84A61D0
:103340001BB3B7F94CA10023DFF87CE034F81380FD
:103350000EF5AB7C3CF813200EF5A779C2EB080BF9
:1033600039F913202CF813800AFB02F132B291FBD9
:10337000F2F25A4429F813200133042BE4D12B4BE9
:1033800000221A70AEF84C0104E0B7F84C31013B52
:10339000A7F84C310C4A0023B2F94C0100284BDD50
:1033A000B2F94A612249A1F1080232F9132031F839
:1033B0001310424392FBF6F28A1A24F813200133C9
:1033C000042BEFD13AE000BFFC030020301B0020AB
:1033D0000CFEFFFF341C00203A0500204C1C00208E
:1033E0004C1B00204C260020C0180020381B002059
:1033F0003E0A002035FA8E3C7B330020000C014051
:10340000C4180020601B0020B8180020C030002025
:10341000B02F0020FE090020F8090020B430002061
:10342000BC1800201024002040050020D40A0020F1
:1034300052050020DE150020A2F84C31A74EA84B03
:103440003168012208071A7041D5A088DFF8E8E248
:1034500000F10E039BB21C2BA24BB3F9043031D800
:10346000A14A128852072DD50A2293FBF2F2BEF828
:103470000030D21A92B293B20FFA83FE1EF1B30F4C
:10348000BCBF02F5B4739BB2DFF864E21AB2B32A90
:103490009EF800E0C4BFA3F5B4739BB21EF0080F02
:1034A00095F8622113D052B2524253438F4A1BB255
:1034B0001268527A53436FF01D0293FBF2F31844E3
:1034C000A08004E00A2293FBF2F3AEF8003011F082
:1034D000140FDFF8689271D0834B1B8803F40273DA
:1034E000002B6BD0824B1B7803F0100303F0FF0E10
:1034F00043B1804B95F900121A68638801FB0233CF
:1035000063805BE0D9F860317B4AD9787B489B784F
:1035100029B3B0F90010B2F90600421A002AB8BF68
:1035200052429A420EDD764A8842C2F800E04FF0DD
:10353000010289F86421C8BF5B42E2889BB2134450
:10354000E3803BE099F864312BB16E4B89F864E17C
:103550001A686D4B1A60674B1B680B4423E0B0F987
:103560000000B2F90620121A82EAE27EAEEBE27E99
:103570009E450ADD022392FBF3F2644B1A60644A13
:103580000123137089F864310AE099F864313BB182
:103590005C4B89F864111A685B4B1A605C4B1970BC
:1035A000544B1B680344D9F868110A884988934230
:1035B00003DB8B42A8BF0B461A46E280554B1B78B3
:1035C000ABB14D4BB3F90620B5F8A2319A420EDCEF
:1035D000514B5B79012B01D0192B02D195F8F621C3
:1035E0002AB90E2B03D0082B1CBF0023A3803F4B0E
:1035F0001B6893F824A1BAF1000F2FD03A4B1B8817
:103600009B072BD0454B4649D3F82080404614F009
:10361000DBF8F8B9404607F06DFED7F86C1113F0EF
:103620002BFF15F03BF8B0F5617FA8BF4FF4617038
:1036300013F0CEFE3B4913F0D3FF07F019FF074606
:10364000504613F0C5FE394613F016FF15F026F864
:1036500080B200E00020E3881844E08033689F06D1
:1036600040F1CD80204B1B8803F03003002B00F08D
:10367000C6801F4B1B78DE0740F1C180194BB3F9A0
:1036800004000A2390FBF3F013F0A2FE264913F086
:10369000F3FE064607F0ECFE8046304607F05CFF7E
:1036A000224B07461B68224AD978224E002973D044
:1036B000DFF88CB0B2F90200BBF802A005910FFA56
:1036C0008AF3C01A04920EF095FF0599049A4B42B2
:1036D000984237DB8842A8BF084634E0C03000205B
:1036E000D50A0020381B0020C0180020442E0020DE
:1036F000601B00200C3000208A250020D60A002004
:1037000008300020B00B002000300020643300207F
:1037100010300020020000204C260020EC1D00206C
:103720008FC2753CEFB6B04435FA8E3C440A002097
:10373000560A0020743300203C0A0020FC030020BD
:10374000520A00201846BBF800C08244B2F90000BB
:103750000FFA8CF21FFA8AFA801A0693CDF810C07D
:103760000591ABF802A00EF045FF069BDDF810C0F6
:10377000984204DB059903468842A8BF0B46634480
:103780009BB2ABF800300FFA8AF0049313F020FEDE
:10379000049B834618B208E0B2F90200049213F0C9
:1037A00017FE049A8346B2F9000013F011FE394661
:1037B0008246584613F060FE41460490504613F08E
:1037C0005BFE049B0146184613F04CFD9C4913F028
:1037D00007FF14F017F841463080584613F04CFEAE
:1037E00039468046504613F047FE0146404613F0E6
:1037F0003BFD934913F0F4FE14F004F87080914BF4
:10380000B5F874211868904B0093904B1D68904B4D
:10381000196800F16403A8478E4B8F49DB78049345
:103820008E4B1E78032E15D9D9F870319D88B5F5C9
:10383000FA7F0FD2B4F90400B1F904700028B8BFC0
:1038400040426A42131A9F4203DB2B18BB42A8BFB7
:103850003B468B80824B1B6813F000620BD1D9F87A
:103860007001E3884F88B1F800800590B1F904A099
:103870007C4D144669E10B88002705933D46D9F835
:103880007031B946B1F802A0B1F904B0DFF8F481A3
:103890000693B14541D20FFA8AF013F099FDD8F89A
:1038A000081013F0E9FD0790BDF9140013F090FD26
:1038B000D8F8041013F0E0FDDDF81CC001466046A6
:1038C00013F0D2FC069B079093F9020040420BFBD9
:1038D00000F013F07DFDD8F80C1013F0CDFDDDF8ED
:1038E0001CC00146604613F0BFFC13F08BFF0FA90C
:1038F00080B221F819000FFA85FE01B2714504DC8F
:103900000FFA87FE714502DB28460546384609F165
:10391000010908F110080746BBE7534BED1B1A6875
:10392000ADB212F4805F0593DFF85CA138D04F4A46
:103930004F4E127812F0040F4D4A02BFD2F83812DF
:10394000098AA2F83412D2F838224A49108A4A4A1F
:10395000B1F8068014680FFA88F7E288811A8F425E
:1039600004DCDAF800202788148806E00244974235
:1039700006DBDAF8002064885788A6F8348215E060
:10398000B6F934228A42D9BF2788DAF80020DAF85B
:1039900000206488D9BF1488B8465788A04605E03F
:1039A000DAF80020B4F8068057881488BAB21FFAF3
:1039B00084F9C9EB0206B6B20FFA85FB30B2834533
:1039C000264D2E4962DD01220A7013F001FD06909A
:1039D000584613F0FDFC069A0146104613F000FE0F
:1039E0008346002229788A4214D20DF13C0C3CF91E
:1039F0001200CDF81CC0069213F0EAFC594613F0F1
:103A00003BFD14F04BFE069ADDF81CC02CF81200AA
:103A10000132E7E7164AD2F87021507813F0D8FC4B
:103A2000174913F0DDFD0146584613F0E1FEB8B327
:103A300036B2022496FBF4F44C44A4B227462FE09D
:103A400000002041442E0020DC27002064000020DC
:103A50009830002094180020941B00204F1C002058
:103A6000C418002078050020F42D00207B330020AE
:103A7000FC0300208A250020601D0020611B00201F
:103A80000000C84270050020641D0020002008705E
:103A900002209BFBF0F009EB0004171AA4B2BFB29E
:103AA000059BDAF800601B6895F8009003F48053DA
:103AB0000693A34B0025B3F934A2D3F8383205930B
:103AC000A04BD3F800B04D4580F007810FAB33F821
:103AD00015200FFA88F0079213F07AFC9A4B29010F
:103AE000C95813F0C9FC13F08DFE23B29842079A0F
:103AF00003DB3BB28342A8BF034613440498934AB6
:103B00009BB222F8153069001BB208B1B08811E0F1
:103B1000069870B10598BBF806E0008ACEEB00006D
:103B2000824503DC3088BBF800E005E0BBF802000A
:103B300000E03088B6F802E0834203DB7345A8BF9B
:103B40007346184650520135BDE7B44205F11005E1
:103B5000DFF8F8B13BD218B2079313F039FC55F8EF
:103B6000181C13F089FC069038B213F031FC55F89C
:103B7000101C13F081FC069A0146104613F074FBEA
:103B800006900FFA88F013F023FC55F8141C13F07C
:103B900073FC069A0146104613F066FB059B0690DF
:103BA00093F9020040420AFB00F013F011FC55F8B3
:103BB0000C1C13F061FC069A0146104613F054FBEE
:103BC00013F020FE079B2BF814000134BDE7BBF86F
:103BD00000300121B1421AB207D23BF91130013154
:103BE0009A42B8BF1A4693B2F4E75949D9F870819E
:103BF0000968D9F838C248880BEB46098242C8BF29
:103C0000181A544B514A1F68C8BF80B207F480533A
:103C10000593514BD8BF0020B3F90640494B07F03C
:103C200010071D684A4558D01388059E1B1A9BB281
:103C300022F8023B4EB398F800A0BCF810E0BAF1AD
:103C4000000F08D1B5F806A0CAEB0E0B5C4502DDEB
:103C5000F244544514DB7445CCBFB5F802E0B1F82A
:103C600004E01BB2CCBFB1F802A0B5F800A07345C8
:103C700003DB5345A8BF53469E4622F802ECD1E72A
:103C80007445CCBF6B882B8824E0049EB1F802E019
:103C90004EB132F902AC8B889A451BDBF245534694
:103CA000A8BF734616E0B1F800A01BB2534503DB72
:103CB0007345A8BF73469A4622F802ACBCF812308E
:103CC0009C42AFDA0FB18B8804E098F80030002BEB
:103CD000A8D10B8822F8023CA4E720490A788B4639
:103CE00002F0040202F0FF0342B1154890F83C32A2
:103CF000013BDBB2182B00F23D810BE0184A127831
:103D00009342F2D2174931F81300104921F81300F9
:103D10000133F5E701229A40134B1340002B00F0CA
:103D20002981124B0C491B8813F4807F22D0104B41
:103D30001A88ADF83C205A889B88ADF83E202FE0C9
:103D4000FC030020601D002070050020781C00206E
:103D5000641D0020F42D00208A2500207B330020E4
:103D60004F1C00209C30002099209801C018002092
:103D7000301B0020B44B1A88ADF83C205A889B8831
:103D8000ADF83E20B14AADF840301268D40409D5F0
:103D9000D0F83822B1F90640128A944202DA5B4226
:103DA000ADF84030AA4D4FF47A72B5F902304FF4B5
:103DB000616403F5E163534393FBF4F3A3F5FA73F2
:103DC000ADF85430B5F9003003F5E1635A4392FB86
:103DD000F4F2A04BA2F5FA721B88ADF85620A3F2BC
:103DE000DC53ADF84230D0F838320A881B8AD21A38
:103DF000ADF844204A88D21AADF846208A88D21AF3
:103E0000ADF84820CA88D21AADF84A200A89D21AD9
:103E1000ADF84C204A89D21AADF84E208A89D21AC0
:103E2000ADF85020CA89D31AADF8523000238A4A1F
:103E3000002122F813100133082BF8D1874B884951
:103E40001B68884D0493884B1B680593874B1B7830
:103E5000C3EBC30301EB0308414573D00B7833B1C7
:103E600003F1150201239340049A134066D0059B89
:103E700011F806EC0E2707FB0E37B7F90020B7F94B
:103E8000023064209B1A11F9022C9BB25A4392FB18
:103E9000F0F211F805AC4FEA530911F8034CC9EBE5
:103EA00002024FEA4A0616A892B211F801CC064463
:103EB00014B936F81C0C0CE0B5F9000036F91C6C8E
:103EC000B04208DA0444844203DBA6423046A8BF6D
:103ED0002046288008E007DD041BB44203DB84424F
:103EE000A8BF044626462E80D7F80A40012000FAD3
:103EF0000AF02042B5F9006011F9040C12B200FB7F
:103F000006F04FF0640690FBF6F014BF4FF0FF345C
:103F1000012490420ADB4FFA8CF25A4392FBF6F2EC
:103F2000C9EB020212B28242A8BF02464A4B33F8E2
:103F30001E9002FB049423F81E4000E02B80023503
:103F4000073189E7484B4A4E1F6800250E2303FBC3
:103F5000057393F9064036F9023FE8B263436424DF
:103F600093FBF4F434800CF0FBFA01352044082D67
:103F70003080EBD1354F384D3B683B4E13F0200F6E
:103F800033D000200CF0ECFA2880044601200CF01D
:103F9000E7FA324B68801B68190626D5354B2C4A48
:103FA000D3F860321B78012B23D13168B2F900308D
:103FB00091F914E04FF0320C03FB0EF393FBFCF38A
:103FC0001FFA83FE91F90630B2F902205B42534397
:103FD0006FF0310193FBF1F193FBFCF30EEB010267
:103FE000A1187344298018446880D6F800E00023A3
:103FF00019E0D6F800E0B2F902309EF906105943F4
:10400000322391FBF3F1214429809EF91440B2F947
:10401000001001FB04F292FBF3F21044E4E70133D9
:10402000082B2A5328D00E2101FB03E135F9130098
:10403000B1F900205C009042B1F90210EFDB0AB246
:104040008242A8BF0246EAE7941B0020F42D00201C
:10405000381B0020781C0020CC070020C41800204A
:104060006F1D00203A060020482E0020681D002009
:10407000CA070020FC030020A64CD4F870A19AF9CE
:104080000C30A3B994F83C8208F1FF33182B74D894
:10409000DFE803F0377373517373734A7373737389
:1040A000735B7373737373516773735B3700DFF8FC
:1040B00084924FF0000839F9020F13F089F9964BFA
:1040C000242101FB083106F06FFE14F0E7FA326894
:1040D0000E2303FB082280B2A9F80000B2F90030D9
:1040E00000B29842B2F9022003DB13B28342A8BFA8
:1040F000034608F10108B8F1080FA9F80030DAD139
:10410000C0E79AF8063013B10020698908E09BF8EF
:10411000003003F0040303F0FF00002BF4D101464C
:1041200005F012FC012629E00020E98805F00CFCCE
:104130000120298905E00020298905F005FC69890D
:10414000012005F001FC022618E00226B01E35F819
:104150001610C0B2013605F0F7FB082EF6D1062680
:104160000CE00326F01E35F81610C0B2013605F03B
:10417000EBFB072EF6D1042600E000263B689A06EA
:1041800002D4B8F1050F0AD13046298805F0DCFBCE
:10419000701CC0B2698805F0D7FB0236F6B23B68E6
:1041A000DB0205D494F884337BB10CF01FF90CE0EA
:1041B000DFF8848100257019C0B238F8021F05F0BD
:1041C000C3FB0D2DEED00135F5E7544B18780028D0
:1041D00040F0C7813B681D0340F1C381504D2B78EF
:1041E000033B052B1FD84F4B93F8543733B1012BAA
:1041F00009D10EF0DBFCC0F17F0004E0D4F88803A5
:1042000003689B689847D4F88C3394F89023134440
:10421000B3F5807FA8BF4FF480738342D4BFC4F846
:104220008C33C4F88C032B78023B092B00F2898174
:10423000DFE813F00A0015004C0084009A00B30078
:10424000C50040015D0168010023C4F88C33C4F847
:104250009433354B1B68C4F89833032370E1324B19
:104260001A68D4F8983364339A4240F26A81402045
:1042700008F012F9002840F064814FF040082B4B01
:10428000D4F89423234F985C1E4680B111F0EEFCC5
:10429000D7F88C33B8F1010803F1FF33C7F88C333A
:1042A000D7F8943303F10103C7F89433E7D1D4F876
:1042B0009423184BB25C002A40F04381C3F8942346
:1042C0004FF0FF32C3F89823042339E126230093EB
:1042D000174B492003F10C02019302925021A3F1E4
:1042E0000A0202330BF01CF9002840F02A813B68D7
:1042F0004FF0FF3213F080030FBFC4F89433C4F8BB
:104300009403C4F89823052304BFC4F89823072313
:1043100016E100BFFC030020600600207D33002072
:10432000280800204C26002090180020C49701087F
:104330002E980108CA070020902500208B4A0223EE
:104340000021009301910291482002F108030BF033
:10435000E7F8002840F0F5804FF0FF33C4F89833B9
:10436000C4F894030623EBE0814B072603F10C020B
:10437000019302920096A3F1080247200021043322
:104380000BF0CEF8002840F0DC804FF0FF33C4F88B
:104390009403C4F898332E70D3E0764A05230021A5
:1043A000009301910291532002F108030BF0B8F839
:1043B000002840F0C680C4F894030823C0E04020E1
:1043C00008F06AF8002840F0BC80D4F894330D2B34
:1043D00000F2BD80DFE803F0070B0E1219202C312C
:1043E000363B404E595D644813F070FF5CE0634813
:1043F00063491AE063486449644A53E0644B654882
:1044000093F8521793F853274CE0634B634893E8B3
:10441000060008331B6835E05D4B0C2193F82C2710
:104420005F4801FB023393F82E1713F04FFF3BE078
:10443000574B5C48B3F84411F7E7554B5A48B3F86B
:104440004611F2E7594B5A48D3F89410EDE7574B11
:104450005848B3F8AA10E8E7D4F89C33D80404D538
:104460004B4B554893F88211DFE7544B0C22C3F8AD
:10447000942319E0464B524893F8861193F887210C
:1044800093F8853113F022FF0EE04E48B4F8A013E4
:10449000CBE73B68190507D53D4B4B48B3F88A116C
:1044A000B3F9882113F012FFD4F894330133C4F820
:1044B000943346E0454B1B689A0115D5B4F8A433F4
:1044C0003E4E8BB9D6F8A8330E200F93404B0FA960
:1044D0001B6810930AF01CFD4FF48053A6F8A2331A
:1044E0000A232B700AF06EFD0AF0F4FC29E094F820
:1044F000AC33002BF6D0354B1B689B01F2D409235B
:104500002B70F1E7334B1A68D4F89833C8339A42CA
:1045100004D91F4B93F854678EB904E008F002F8F1
:104520000028F6D10DE0D4F8880309F003FA94F8D6
:10453000AD33C4F88863022B01D10CF09EFF012338
:104540002B7007F0D9FF60B101232B7009E007F051
:10455000E9FF0028F5D04FF48053A4F8A2330A23D2
:10456000EEE7002017B0BDE8F08F00BFEC9901081E
:10457000049A0108509A0108A4BB0108BEBB0108B7
:10458000D3BB0108DBBB0108EFBB0108FBBB010883
:104590004C26002004BC0108E8F7FF1F15BC0108E9
:1045A00029BC010833BC010842BC010810240020CA
:1045B00051BC010861BC01086BBC0108FC03002070
:1045C00078BC010891BC01089CBC0108C4180020FB
:1045D000A82F0020901800202DE9F04FA04BAFB07D
:1045E0001C780193002C00F0E4809E4B1868002892
:1045F00001F0C58709F000FC9B4C20680BF0D2FE4F
:10460000002801F0BC8720680BF0C9FE0928974CF0
:1046100001D03F2852D10027B8462568944E2DB1CD
:10462000944831682A4614F0BDFF20B93746B8F1E6
:10463000000F00D1B046904B10369E42EFD3464655
:10464000B8F1000F1DD0D8F800C0D7F8009023684B
:104650001CF803E019F80300704512D15A1C854973
:1046600058B92D2B09D8DFF804E2CEF800204FF01E
:10467000200E01F803E0885403E001F803E0226013
:10468000E5E723680BB1B8450FD07C4810F068FD12
:10469000BE4207D856F8100B10F062FD092010F04A
:1046A000CFFBF5E709F0B4FB002523689D42A3D2B8
:1046B000704B585D10F0C4FB0135F6E72368002B02
:1046C00041F0CE86042841F033876A480DF084FA21
:1046D00001F055BF3068DFF8C4A10BF063FE00287D
:1046E00050D0DAF800000BF05AFEDBF8003002463A
:1046F00093F84810002978D1242840F0D78001226F
:1047000083F84820DBF8003093F84820062AE1D1EE
:1047100093F84900522800F0BC8700F2B681362891
:1047200000F01C8700F26081242800F0808600F2EF
:104730001481032800F0DF8240F2EF80052840F06A
:1047400001811A200AF016FA00264D4B985D0136B9
:1047500010F064FB0B2EF8D100264A4B985D013611
:1047600010F05CFB082EF8D10026474B985D01360F
:1047700010F054FB072EF8D10AF0C2F92B68002282
:1047800083F84820414B186809F036FB404B93F8FA
:104790007D3053B158F8040009F0A8F80BF078FE0A
:1047A00006F00CFF3B4A3C4BDA604C34982C01F08D
:1047B000E686DFF8F48054F8083004EB0802002B9A
:1047C000F3D0364E079333600023354D354F8DF8C7
:1047D0002130DFF8B89014238DF8203006AB2A6022
:1047E0000697C9F80030AB4674E7012904D14D287B
:1047F00014BF0022022283E7022904D13C2814BFFF
:10480000002203227CE703290CD140284FF000014D
:1048100002D983F8481075E758711971D9719871E8
:1048200004226DE7042906D1997983F849004A40AA
:104830009A71052264E705297FF464AF58791979E4
:104840008842987906D950409871481C18710B44D9
:104850001A7257E790420CBF0622002250E700BFB1
:104860007D330020903000200C310020402E0020AD
:1048700084A10108102E002034A30108B9BD01084D
:10488000EFBB0108FBBB0108D3BB01088C30002043
:10489000AC0700200400FA0500ED00E0EC18002051
:1048A000E8180020B1030108B4250020CF490B7897
:1048B00003F0040303F0FF0E002B7FF423AF232A41
:1048C000DAF800001CD10292019A01231370C84B40
:1048D00003911860C74B1860986010201873C64881
:1048E0005F6083F80DE004330360C44810F038FCC7
:1048F00009F08EFA0399029A0B7843F002030B70C9
:10490000BF4B1B681B78934201BFBE4ABE4B1A6067
:10491000BE4A04BFBE4BDA60F4E6012800F0DF8136
:10492000022840F0278704200AF024F9432010F0E1
:1049300075FA4C2010F072FA462010F06FFA4C20F5
:1049400000F0FDBEC0F0E281222840F01387502025
:104950000AF010F9002700F007BC2A2800F08F8524
:1049600019D8262800F06985282840F00387A94E29
:1049700007200AF0FFF8B6F888010AF01CF9B6F82B
:104980008A010AF018F996F88C0110F047FAB6F887
:104990008E0100F096BE322800F0A985342800F080
:1049A00002842C2840F0E6869A4E0C200AF0E2F8A9
:1049B00096F8980110F032FAB6F8A4010AF0FBF864
:1049C000B6F8A0010AF0F7F8B6F8A2010AF0F3F879
:1049D00096F89A0110F022FAB6F8A6010AF0EBF860
:1049E000B6F8A80100F06DBE452800F0578624D81F
:1049F0003B2800F0B2830BD8382800F02D853A28E8
:104A000040F0B88604200AF0B5F8834B00F00DBDE5
:104A1000402800F07385422800F07F853D2840F053
:104A2000A9867C4E02200AF0A5F896F8EC0110F059
:104A3000F5F996F8EB0100F082BE4B2800F02585D1
:104A40000ED8472800F0B885C0F0A285492840F06C
:104A5000918602200AF08EF86E4B988900F031BEE4
:104A60004F2800F00986502800F0CB854D2840F0F3
:104A700081866A4E6A4F30784FF0000900EB4000A3
:104A8000C0B20AF077F800F01BBD732800F018845C
:104A900000F298806A2800F02F843DD8662800F044
:104AA00086812FD8642800F04481652840F0628612
:104AB0000B200AF05FF85B4B18880AF07CF85A4B21
:104AC000188880B20AF077F8584B1B68C3F3C0000F
:104AD000C3F38002800040EA4200C3F34002104367
:104AE000C3F3401240EAC20003F0100318430AF077
:104AF00062F809F04DFF0AF068F8464B93F82C076E
:104B000000F01DBE682800F0EA8100F2F581102057
:104B10000AF030F8002675E16E2800F010820FD8F8
:104B20006C2800F0FC8140F2068406200AF022F88E
:104B30003F4B18680AF049F83E4B188800F0C1BD99
:104B4000702800F07E82C0F04F82722840F01286FA
:104B5000304E16200AF00EF8B6F8A0010AF02BF835
:104B6000B6F844010AF027F8B6F846010AF023F82F
:104B7000B6F848010AF01FF8B6F8E2010AF01BF88F
:104B800096F8010210F04AF9002010F047F996F863
:104B9000020210F043F996F88D0110F03FF996F8F3
:104BA0009B0110F03BF9002010F038F9224B0A204D
:104BB0001B68B3F9623093FBF0F080B209F0FBFFA1
:104BC00000F04EBC7D2800F0808555D8762800F096
:104BD000C38335D8742800F00C83752840F0CA854B
:104BE0002F2009F0C7FF154EAFE200BF7B33002036
:104BF0000C310020AC07002090300020E9BD0108F6
:104C0000AC2D0020EFBEADDEF04F00200400FA0511
:104C100000ED00E04C260020D02F0020A82D002021
:104C2000F627002078330020C4300020C030002058
:104C3000B00B0020E80A0020442E0020779A0108DB
:104C4000782800F0E780C0F019837C2840F0928536
:104C5000D14E082009F08EFFB6F84C0109F0ABFFE9
:104C6000B6F84E0109F0A7FFB6F8500109F0A3FF0E
:104C7000B6F8520100F025BDA42800F0958317D89E
:104C8000962866D0A02800F0C4837E2840F0728564
:104C9000C14E032009F06EFF96F8580110F0BEF8DF
:104CA00096F8590110F0BAF896F85A0100F047BD8D
:104CB000F12800F0EE80FE2800F09D83F02840F0FF
:104CC0005985B64E042009F055FF3368B3F86600E5
:104CD00009F071FF3368B3F8640000F0F2BC032000
:104CE00009F048FF002010F099F8012010F096F824
:104CF000102000F024BD09F03DFF012010F08EF8D7
:104D00000C2010F08BF8022000F019BD062009F0ED
:104D100031FF412010F082F8462010F07FF84E203D
:104D200010F07CF8412010F079F89D4B187800F0D5
:104D3000C8BC072009F01EFFE72010F06FF8964B63
:104D4000587910F06BF8002010F068F8042000F09B
:104D5000B4BC0D2009F00EFF924B188809F02BFF10
:104D6000914B188880B209F026FF904B1B68C3F363
:104D7000C000C3F38002800040EA4200C3F3400257
:104D80001043C3F3401240EAC20003F0100318437B
:104D900009F011FF09F0FCFD09F017FF7E4B93F8B5
:104DA0002C0710F03BF8824B187900F08ABC1220D7
:104DB00009F0E0FE7F4B0026B3F8AA30B3F5806F10
:104DC0008CBF082701277C4B33F91600013690FB76
:104DD000F7F080B209F0EFFE032EF4D1774E308861
:104DE00009F0E9FEB08809F0E6FE3089744E09F05A
:104DF000E2FE308809F0DFFEB08809F0DCFE308981
:104E000000F05FBC6F4B985D013610F007F8102E74
:104E1000F8D1B1E4702009F0ADFE4FF000090E2684
:104E200006FB09F65D4F09F101093B683344B3F80D
:104E3000250109F0C0FE3B683344B3F8270109F0AF
:104E4000BAFE3B683344B3F8290109F0B4FE3B686D
:104E5000334493F82B010FF0E1FF3B68334493F8A0
:104E60002C010FF0DBFF3B68334493F82D010FF06A
:104E7000D5FF3B68334493F82E010FF0CFFF3B681A
:104E80001E44D6F82F0109F0A0FEB9F1080FC6D1D3
:104E900072E4702009F06EFE3F4E06F1700796F83E
:104EA000D4000FF0BBFF96F8D5000FF0B7FF96F8CF
:104EB000D6000FF0B3FF96F8D7000FF0AFFF96F8CB
:104EC000D8000FF0ABFF96F8D9000FF0A7FF073618
:104ED00096F8D3000FF0A2FFBE42E0D14CE41020C0
:104EE00009F048FE0026384B33F81600013609F069
:104EF00062FE082EF7D13FE4344F00263878400098
:104F000000F0FE0009F036FE3B789E42BFF434AC60
:104F10002F4B33F8160009F04EFE0136F4E72D4E04
:104F2000062009F027FE308809F045FE708809F058
:104F300042FEB6F904300A2093FBF0F027E04FF66A
:104F4000FF76072009F016FE234B1888FF28A8BF1C
:104F5000FF20C0B20FF062FF204B1868B042A8BF1C
:104F6000304620EAE07080B209F025FE1C4B18881C
:104F700009F021FE084B93F88D211A4B186842B1B5
:104F80000A235843B042A8BF304620EAE07080B2FE
:104F900097E300F30F00FAE74C260020442E002090
:104FA0007A33002078330020C4300020C030002045
:104FB000B430002010240020E20A0020401B002012
:104FC0001C300020CC070020781C0020A82D0020D9
:104FD0008A250020381B0020801800203C18002063
:104FE000B40B0020F40A0020BB4E0B2009F0C2FDD8
:104FF0003368374618780FF011FF33684FF0000917
:1050000058780FF00BFF3B68B34E4B44187909F109
:1050100001090FF003FFB9F1030FF4D13368D87918
:105020000FF0FCFE336898780FF0F8FE3368D878FC
:105030000FF0F4FE3368588909F0BDFD3368187A23
:105040007DE3A64E1E2009F095FD336800271B78EE
:10505000022B66D1336807F1080253F82200A049F9
:1050600012F00AFA13F01AFB80F30800C0B20FF036
:10507000D5FE33689B4903EB8703D86A12F0FCF92D
:1050800013F00CFB80F30800C0B20FF0C7FE3368CA
:1050900007F10E0253F82200934912F0EDF913F0D4
:1050A000FDFA80F30800C0B201370FF0B7FE032FFE
:1050B000D0D1072F336821D1586C894912F0DCF91F
:1050C00013F0ECFA80F30800C0B20FF0A7FE3368CB
:1050D0008349986C12F0D0F913F0E0FA80F30800DD
:1050E000C0B20FF09BFE336893F84C0012F06CF9DD
:1050F00013F0D4FA80F30800C0B20BE03B445878B8
:105100000FF08CFE33683B44D87A0FF087FE33688B
:105110003B44587D01370FF081FE0A2FC9D1FFF7BC
:105120002BBB33683B4458780FF078FE33683B4420
:10513000D87A0FF073FE33683B44587D01370FF087
:105140006DFE0A2FEDD1FFF717BB16F8010F0028EF
:105150003FF412AB0FF062FEF7E7012009F00AFD01
:105160005E4B1B681878EAE25C4B0C211E685F4BB3
:1051700006EB870696F88520013701FB023393F88A
:1051800038000FF04BFE96F886000FF047FE96F8B9
:1051900087000FF043FE96F888000FF03FFE142FB3
:1051A000E2D1FFF7E9BA482009F0E4FC00274B4BB5
:1051B0001E68062303FB076696F8DA000FF02EFE42
:1051C00096F8D5000FF02AFE96F8D6000FF026FECE
:1051D00096F8D7000FF022FE96F8D8000FF01EFECA
:1051E000013796F8D9000FF019FE0C2FDFD1FFF729
:1051F000C3BA00264FF0010A4FF0000B3C4B1B785E
:105200009B4531DA3B4B4FF000091BF803200C2380
:1052100003FB09F3354F07F13001595C914209D185
:105220003B44586B14F0B5F90146BAF1000F07D1B1
:10523000534607E009F10109B9F11D0FE7D110E06C
:1052400006440EE08B420CDA0C2202FB0972526B10
:105250000391D05C02930FF0E1FD029B03990133AF
:10526000F0E70BF1010BC9E7BAF1000F3FF484AA94
:10527000F0B209F07FFC4FF0000ABDE71C4F00269A
:10528000387809F077FC3B789E42BFF475AA194B39
:10529000002116F803E00C2202FB01F3134800F191
:1052A000300C13F80C20724505D1034493F83800F4
:1052B0000FF0B4FD02E001311D29ECD10136E2E727
:1052C000082009F057FC0126F0B201360FF0A6FDC8
:1052D000092EF9D1FFF750BA98300020442E002053
:1052E000000020410000C84200007A44789A01087A
:1052F000C8180020C9180020102009F03BFCCA4B38
:10530000CA4E187800F002000FF088FDC84B1878DC
:105310000FF084FD306809F058FC706809F055FC06
:10532000C44B188809F047FCC34B188809F043FCAC
:10533000C24B188EC5E1052009F01CFCC04B188833
:1053400009F039FCBF4B188809F035FCBB4B93F8CA
:10535000320000F00100F2E109F00FFC814612205A
:1053600009F008FCB9F1000F01D1B74B03E0B9F126
:10537000100F03D1B54B1F685E6801E00026374669
:1053800048460FF04BFD384609F01FFC304609F047
:105390001CFCAF4B186809F018FC002009F00BFC4E
:1053A000002009F008FC77E1A44F002697F83300AD
:1053B000B94680000130C0B209F0DCFB97F8330039
:1053C0000FF02CFD99F833309E42BFF4D5A9A14FC0
:1053D000B85D0FF023FD07F11003985D0FF01EFD7F
:1053E00007F12003985D30370FF018FDB85D0FF01E
:1053F00015FD0136E6E7082009F0BCFB0026964BB8
:1054000033F81600013609F0D6FB042EF7D1FFF76A
:10541000B3B90C2009F0AEFB904B186809F0D5FB2E
:105420008F4B186809F0D1FB8E4B186845E10420BA
:1054300009F0A0FB8C4B98683FE18B4E062009F0E9
:1054400099FBB6F85C0109F0B6FBB6F85E0109F00D
:10545000B2FBB6F8600134E1042009F08BFB824E08
:1054600096F882010FF0DAFC96F886010FF0D6FC70
:1054700096F885010FF0D2FC96F887015FE10120D4
:1054800009F078FB784B587959E1774E082009F0FC
:1054900071FB96F8E0010FF0C1FC96F8E1010FF006
:1054A000BDFCB6F8E20109F086FB96F8E4010FF0C6
:1054B000B5FCB6F8E60109F07EFB96F8E8013EE19E
:1054C000337802379945BFF457A917F8020C0FF04B
:1054D000A5FC17F8010C09F1010900EB800000EBB5
:1054E000800000F2EE2080B209F065FBE8E70120C1
:1054F00009F040FB5C4B93F89B0120E1082009F088
:1055000039FB0026584B334493F8900101360FF0D5
:1055100085FC082EF6D1FFF72FB9534E102009F065
:1055200029FB70790FF07AFCB06809F04EFB96F811
:1055300098010FF073FCB6F85C0109F03CFBB6F87B
:105540005E0109F038FBB6F8600109F034FBB6F8EB
:10555000880109F030FBB6F88A01B2E0434B424EB5
:10556000187806F12807C0EBC000C0B209F002FBB2
:1055700096F8080200233E4AD25C904200F0E38095
:105580000C333C2BF7D10836BE42F1D1FFF7F4B80B
:105590000D2009F0EFFA04F053FC364E40F0020003
:1055A000C0B20FF03BFC308809F00FFBF06809F047
:1055B0000CFB0DF003FA80E009F0F4FA07468420B2
:1055C00009F0D8FA384609F000FB2A4B0DF13809EA
:1055D000DE6807F18003B3428CBFF61B80260DF016
:1055E000A7FA38463246494604F05EFC07460026D4
:1055F000BE42BFF6C1A819F806000FF00FFC013635
:10560000F6E7194E042009F0B5FA01200FF006FC68
:1056100096F854070FF002FC96F852070FF0FEFBC5
:1056200096F853078BE000BF601B0020000B0020A2
:10563000FC0A0020FA0A0020F80A0020AC0700202B
:10564000700B0020720B0020B80B0020480A0020CD
:1056500000300020E007002020080020E8F7FF1FAE
:10566000ECF7FF1FF0F7FF1F4C260020DC15002091
:10567000B42D0020200000200B2009F07BFA002030
:105680000FF0CCFB00200FF0C9FB00200FF0C6FB91
:105690000FE0012009F06EFA002050E0132009F01D
:1056A00069FA0026C74B985D01360FF0B7FB0B2E49
:1056B000F8D1002009F089FA002009F086FAFFF7F6
:1056C0005BB809F078FAFFF757B8BF4E032009F02E
:1056D00051FA336893F81D010FF0A0FB336893F87B
:1056E0001E010FF09BFB336893F81F0127E040F287
:1056F0009984F22800F03C8540F25D85F32840F063
:10570000A48609F03AFAFF28B04F40F0C58500267C
:1057100007F180003146602287F87E6013F0DFFEDB
:105720008DF817609DF8173097F8E220A74E9A423F
:1057300000F26285012009F01DFA96F87E000FF054
:105740006DFBFFF719B80FF069FBB6F80A0209F014
:1057500032FA96F80C020FF061FB96F80D020FF08A
:105760005DFB96F80F020FF059FB96F80E020FF052
:1057700055FB08E7C8283CD15E797608122E02D97D
:105780000CF02CF830E00027B74206D209F000FAFE
:105790000EAB23F817000137F6E732460023B34279
:1057A00007DA0EA931F81300894921F813000133F3
:1057B000F5E7122A05D0864B002123F8121001329A
:1057C000F7E7844B01221A700EE0D12800F07683AF
:1057D000D22840F04186804B1B7803F0040303F08D
:1057E000FF06002B00F0A483002009F0C3F9FEF7A8
:1057F000C3BF00F2EE81392811D109F0BEF9774E0E
:1058000086F8820109F0B9F986F8860109F0B5F940
:1058100086F8850109F0B1F986F88701E4E700F21E
:105820001B812B2804D109F0A8F96C4B5871DBE7D8
:105830006FD8252808D1694E0023B36009F0B2F96A
:10584000B3681843B060CFE73ED8232840F0048601
:1058500009F093F91328064692D85B4FD7F80090C9
:1058600009F08BF900210C2202FB01F3DFF880E143
:105870000EEB030292F83820824221D1734493F850
:10588000303009EB860686F8853009F076F986F81F
:10589000860009F072F986F8870009F06EF9504A1F
:1058A000504B86F888001A6038684F4B002118600A
:1058B000853008F013FA4D4B80F00100187093E723
:1058C00001311D29CFD15BE727280DD109F060F9FF
:1058D000424EA6F85C0109F05BF9A6F85E0109F0FA
:1058E00057F9A6F860017FE7292840F0B58509F04F
:1058F0004FF93A4EA6F8880109F04AF9A6F88A014C
:1059000009F03BF986F88C0109F042F9A6F88E01FE
:105910006AE7332805D109F030F9304B83F89B0151
:1059200062E725D82D2840F0978509F026F92B4EFF
:1059300086F8980109F02CF9A6F8A40109F028F9D5
:10594000A6F8A00109F024F9A6F8A20109F015F9BA
:105950002B6886F89A015B79082B7FF645AF09F032
:1059600017F9A6F8A60109F013F9A6F8A8013BE774
:1059700035283FD109F001F90B2807463FF600AF63
:10598000114B1E6809F0F9F803283FF6F9AE06231B
:1059900003FB076686F8DA0009F0EFF886F8D50011
:1059A00009F0EBF886F8D60009F0E7F886F8D7009A
:1059B00009F0E3F886F8D80009F0DFF886F8D90096
:1059C00012E700BFEFBB0108442E0020AC07002007
:1059D00040170020110900207B3300204C260020B6
:1059E00090270020380A0020F02D0020020000201F
:1059F000789A0108372840F02F855B790726B3FB9A
:105A0000F6F6C6EBC6029B1A13F0FF0F7FF4B8AE92
:105A1000F6B2013EF6B2FF2E3FF4E6AE09F0ADF865
:105A20005FFA80F94FFA89F007F0E8FF074600288F
:105A30003FF4A6AE80F8009009F0AAF8788009F04B
:105A40009CF8387109F099F8787109F096F8F871B6
:105A500009F093F8B871DCE7442804D1BE4B012269
:105A600083F87D20C0E64DD83E2809D109F085F89D
:105A7000BA4E86F8EC0109F080F886F8EB01B3E63F
:105A80000CD83C2840F0E884B54E376809F075F82A
:105A90003870336818780AF017FEA5E641280AD155
:105AA000002609F06AF8AD4B33440136082E83F81E
:105AB0009001F6D198E6432840F0CE8409F05DF8D5
:105AC000A64E0023B360707109F06CF8B3681843F8
:105AD000B06009F052F886F8980109F059F8A6F874
