:020000040800F2
:1000000000500020EDA2010889A30108A1ED00081D
:1000100089A3010889A3010889A301080000000041
:1000200000000000000000000000000089A301089B
:1000300089A301080000000089A301089BD20008E1
:1000400089A3010889A3010889A3010889A30108DC
:1000500089A3010889A3010809D700081DD7000852
:1000600019D7000815D7000811D70008CD7400086B
:10007000BD740008AD7400089D7400088D740008FC
:10008000797400086574000889A3010889A3010830
:1000900089A3010889A3010889A301080DD70008D5
:1000A00089A3010825F7000889A3010815F70008AE
:1000B00005F70008F5F60008E5F60008EF780008F7
:1000C000F5780008E5780008EB78000889A30108B6
:1000D00089A3010819D400080DD4000889A30108D8
:1000E00005D7000889A3010889A3010800000000C2
:1000F0000000000000000000000000000000000000
:0C01000000000000000000005FF808F1A3
:100110002DE9F04F5B4B5C4D5C4AC5F8B8345C4B45
:1001200000241A6001239BB01E22502105F599601E
:1001300085F8C134C5F8BC4485F8C2340FF0A1FE7F
:1001400040B1802221465348C5F8E444C5F8E8444C
:1001500018F05EF9504F28220021504818F058F945
:100160003B8828215A1C3A804D480322A5F8EC34DC
:100170000FF087FE00284DD04FF47A73D5F8DC6479
:10018000C5F8F034002E43D03368C5F8DC34D5F818
:10019000D834336003B15E60D5F8D03406F108047A
:1001A0000133D5F8C82400212046C5F8D034C5F85D
:1001B000D86418F02DF93B88082201339BB23B80AC
:1001C000F38100233274374AB3637382B387726555
:1001D0003373324AD5F8E43472611BB9D5F8D83498
:1001E000C5F8E434C5F81045A4B12F4B23602F4A5D
:1001F0002F4B116899424FF0000361D1136062B632
:100200002C4B186814F038FD2B4B1B689847FEE701
:100210003446E7E7D5F8101541B3D5F8E434083390
:10022000994204BF0023C5F8E4340B7A012B12D89D
:1002300001238A6B174C9340DB43002254F82200C1
:10024000184044F822000132202AF7D1D5F8E824DA
:100250001340C5F8E83419480FF0DAFDD5F8D0346A
:1002600043B9C5F8E4340023C5F810350C480FF045
:10027000F1FDBCE7D5F8E434002BF4D1D5F8D8343F
:10028000EFE700BF8B020108F0040020E9CE000870
:10029000941C0020141C002000000020DC09002019
:1002A000E409002029F7000860C70108F04F00208A
:1002B000EFBEADDE00F0FF1F04F0FF1FB809002005
:1002C0000A930B930C934FF4E013BB4C0D932368EC
:1002D00043F480332360A36943F01003A3612368D0
:1002E00003F400330B930A9B01330A930B9B1BB956
:1002F0000A9BB3F5A06FF2D1236813F4003300F02A
:100300009A8202230C93AD4BAD4F1A6842F0100253
:100310001A601A6822F003021A601A6842F0020298
:100320001A606368636063686360636843F4806352
:100330006360A44B1A68043B22F070425A60A24AE0
:100340003A60626822F47C1262605A6842F00042AD
:100350005A60DA6822F40042DA609B681E0449BFE2
:100360009A4B4FF4E0133B604FF480130D930C9BBA
:10037000012B00F07882022B05D10D9B626813439C
:1003800043F480336360236843F080732360236801
:100390009801FCD5636823F003036360636843F04E
:1003A00002036360636803F00C03082BFAD16368EF
:1003B000DFF86C8203F00C03042B00F05882082B4A
:1003C00000F05782804BC8F800306368DFF8549221
:1003D000C3F3031319F80320D8F80030DFF848B24C
:1003E000D340C8F800307A4B4FF6FF72CBF80C3090
:1003F000A3690DF1680A43F00103A361636A636AAC
:10040000744E43F080736362A369304643F01C036B
:10041000A36100230F932AF82C2D51460FF05BFDAA
:1004200051466D480FF057FD51466C480FF053FD93
:1004300002214FF400728DF83A101021ADF83820E7
:100440008DF83B10304632610EA90FF044FD64492F
:1004500050464A6842F000724A6014F0F9FA0F9B65
:10046000604A3046B3FBF2F34FF47A72C5F81435A4
:10047000D8F800304FF0010CB3FBF2F35A4A013BBD
:100480005360F0238BF82330002393600723DFF8B9
:100490009CE11360554A09F10E01002331F8026F07
:1004A00046FA03F818F0010F18BF0CFA03F803F12D
:1004B00001031EBF1060A2F804800832102BEFD198
:1004C00000F580607045E8D13B683F4A934240F0B8
:1004D000E281012385F8183510F0ECF818B90EF018
:1004E000C9FF0EF0ABFC0EF0E7FD05224049414884
:1004F00018F0E6F918B10EF0BDFF0EF09FFC95F86C
:1005000019353D4F43F0010385F819353B4B07F191
:10051000050A9A783A4B1A703A4B3B4A1B68904648
:10052000136095F81E3585F81A350023D85D4FEA1B
:10053000830B5E1C002800F0B48103930CF0F0FFE5
:10054000039B4AF8230010B10523C6718371122161
:100550005AF80B000DF00AF8032E3346E6D10021BD
:1005600008460DF065F8002101200DF061F800212A
:1005700002200DF05DF8012102200DF059F8A36969
:10058000002143F00103A3614022204817F040FFFF
:100590004FF0FF331E4AC5F86C356420C2F80330B3
:1005A0000CF071FEA02200211A4817F031FF002440
:1005B000194D1A4E3CE000BF0010024000200240DE
:1005C0005C0100200410014000127A00001BB700FB
:1005D0000005FA0500080140000C01400010014030
:1005E0000000014040420F0010E000E01018002021
:1005F00066C70108B11700200B0A0020AC170020C5
:1006000084170020401A0020D81C00201C0A00205B
:100610005C0A0020C03A00204CC50108B4A70108BC
:10062000380000209CA7010800ED00E00014014004
:100630000023605956F83310DA00884240F03481C4
:1006400009EB0203187F10340FF0DEF8E02CEFD135
:10065000AB4AAC4C0021A4469146AB4E00250B5D45
:1006600001F10F00204406EB030A10F801EFBEF180
:10067000000F05D09AF80C70774508BF82F85870C3
:1006800090F803E0BEF1000F04D0F75C774508BF97
:1006900082F859700135032DE7D1B2F8580040B106
:1006A0000CEB010009EB83035065C3F8742502F5D8
:1006B00017721C313829D1D10424914F20220021F6
:1006C0009248D8F8005087F8804517F0A1FE002026
:1006D0008D4B024693F80BE093F80AC04FF0FF09E8
:1006E0002346039789498A4F05F04006D4571E2CAC
:1006F0008C7140F0DF80002E00F0E480BCF1000F30
:1007000000F0E0800132042A01F10801EED110B1BD
:10071000039A82F880357F4B15F4805F93F800A030
:100720007D4BDFF8449283F800A07C4F7C4C7D4EDB
:1007300000F0CE80B88819F08BF97B4BC9F8000027
:100740002360708A19F084F9784B794C18607888A6
:1007500019F07EF9774B00251860388819F078F980
:10076000754B1860608BC0F5FA6019F075F9734B22
:10077000248B1860FB88724AE01A1C44714BA4B2A7
:1007800080B210801C80A0F57A7019F065F96E4B6C
:100790001860C4F5FA6019F05FF96C4B6C4C186086
:1007A000AAF11703022B257000F2E2804FF0000B34
:1007B000DFF8B8A105EB0A03594655F80A0004937F
:1007C00019F032FB049B002800F08C80D8F8003030
:1007D00013F4805A40F0ED800023D9F800105D4AF0
:1007E00042F823100133082BFAD1B6F81480BAF17D
:1007F000000F01D0B7F80480B378042B05D14FF473
:1008000080500FF04FFF4FF000082378C0220021E6
:100810005148069317F0FCFD3779B378003718BFBD
:100820000127042B00F2EA80DFE813F02606E80037
:100830002806F4001F06226842F0010222600A9393
:10084000236803F002030B930A9B01330A930B9B6B
:100850001BB90A9BB3F5A06FF2D123689F0701D59E
:1008600001234FE5FEE7636843F460138AE53B68C4
:10087000A9E563686268C3F38343D10303F102030C
:1008800002D4364A53439EE5626812F4003F3A6848
:1008900018BF5208F6E7324A93427FF41DAE022396
:1008A00018E64AF8230057E60133042B7FF4C2AE62
:1008B0000020C8E61F2C7FF425AF1EB1BEF1000F4B
:1008C0007FF420AF013B81F80690DBB2012019E7ED
:1008D000B08A19F0BDF8C9F80000308A19F0B8F8EC
:1008E00020602EE71F4A05EB020E0FCB8EE80F00AB
:1008F000237810350133802D23707FF45BAF65E7DB
:10090000F0040020D4A7010880250020D01F00207B
:100910000CA801088C1700201C360020203C002069
:10092000F0150020D815002000007A443C1000206B
:10093000AC1C0020E8100020C8100020F01000209F
:10094000C2100020E4100020E0100020EC10002075
:1009500054150020142900203C29002000093D00E6
:10096000001BB700F4100020842A00203C1900204E
:10097000244B13F83A2003EBCA0A082A227088BFD6
:100980000822DAF804C088BF2270BCF1000F3FF4DF
:100990001DAF0025DFF878A023789D42BFF616AF83
:1009A0002B0103EB0A0E63440FCB01358EE80F00D9
:1009B000F2E72378012B7FF60FAF4FF07C58124DF2
:1009C00005EB031303F1100B10355D453FF404AF45
:1009D000414655F80C0C19F093F8414645F80C0CBB
:1009E00055F8100C19F08CF8414645F8100C55F8E4
:1009F000080C19F085F845F8080CE5E7034CA1460A
:100A00000BE000BF48AE0108F81000206F12033958
:100A1000F4100020B94CDFF83893B94AB94B21469D
:100A20001A60B94AB94B4846002F18BF1346B84A56
:100A30000025136018F05CFF01464FF07A5019F062
:100A400013F9B4490590204619F05AF8B24CDFF872
:100A500004B30790069BAB4240F3708505EB0B0394
:100A60005E79002130460EF023FE0490002840F00D
:100A70000885AA4AA34B1A60A34AA54B1A60A84C42
:100A8000A84A94F81935079243F0040384F81935FD
:100A9000136813F0010600F074850025FF2294F816
:100AA0008175A14B2946384683F840501D605D6032
:100AB0009D60DD6383F8412083F8422083F8435032
:100AC00083F8445083F845500EF0F2FD064690B38B
:100AD000036891496A18507C18B15268934200F03B
:100AE00045851835C02DF5D10025C4F8906584F8EA
:100AF000845538460CF014FD10B10223C571837182
:100B000000252A210CF032FD884A002130460CF0E5
:100B100007FB874B874AC4F89435874B111F304633
:100B2000C4F89835C4F89C550CF04EFB2A467179F0
:100B3000306811F04FF8B4F8727694F86E66A4F845
:100B400074763046002F40F06A850CF0E9FC94F88A
:100B50006F26C4F87806003218BF012284F87C267C
:100B600050B1252294F870368271002BC7710CBFEA
:100B7000122116210CF0FAFC00200CF02DFD4FF094
:100B800000096E4B0020C4F89C3606F04DFC012095
:100B900006F04AFC6A4B6B4803F1200853F8056CD9
:100BA0006EB313F9092CA11891F8A07691F8A2E67A
:100BB00091F8A4C600EB0215991E11F801AFBA45D1
:100BC00091F802A008BF2F71F24591F804A008BF68
:100BD00085F805E0E24508BF85F806C08B42ECD1F8
:100BE000120181180D7955B14D7945B18D7935B125
:100BF00086505A7981F80C90CA719A790A7210332A
:100C00009845CBD14F4D0EF0AFFE0EF0ADFE287ED5
:100C10000EF0FAFD01232A7E02F01F015209022A7A
:100C200003FA01F300F02885032A00F02B85287DC4
:100C30000CF076FC064618B1122383710223C371AF
:100C4000687D0CF06DFC18B1132383710223C3710E
:100C5000A87D0CF065FC18B1142383710223C371C5
:100C60001B2130460CF082FC687D0CF059FC0721FA
:100C70000CF07CFCA87D0CF053FC1B210CF076FCE6
:100C80002A69314B9A4240F0038503F56043D968E5
:100C900041F48051D960D96821F48051D9602B7F0B
:100CA000002B00F0128500200346118801F4415109
:100CB00041F445710B4303431380938B23F400638A
:100CC0001B041B0C93830723138213889BB243F0EE
:100CD0004003138094F81835032B40D11F2007F0F0
:100CE000A6FF0023194A02EBC30191F90210022961
:100CF00001F0A1820133042BF5D12DE0ACC5A7375B
:100D0000216A0108C02B0020A16901084D6A010871
:100D1000C42B00206F12833A3C290020A3690108EC
:100D2000F0040020D81C0020783A002040420F0038
:100D300035680108880A00207169010880250020B3
:100D400019A80108CC13002000300140AA1F002080
:100D5000ACC5A736D8150020022007F068FF0FF0B9
:100D600050FB012006F0BAFB2C200CF0D9FB039BB2
:100D7000C3F8A8069F238DF83830002332208DF861
:100D800039308DF83A308DF83B300CF07CFA039B0B
:100D9000D3F8A8060CF00CFC0FAA04230EA9BC483B
:100DA0000FF0B9FA039BD3F8A8060CF006FC9DF8E7
:100DB0003E309DF83D201B0243EA02439DF83F2050
:100DC0001343B44A934223D032200CF05CFA039BC5
:100DD000D3F8A8060CF0ECFBF521AD480FF0C9FAEA
:100DE000FF21AB480FF0C5FA039B8DF83C00D3F808
:100DF000A8060CF0E2FB9DF83C30702B08D1039B59
:100E000093F81835022B03D10323039A82F818357F
:100E1000A14B5F799E797D1E6A4206F1FF3E6A41D1
:100E2000DEF1000343EB0E0384F8B036079B84F831
:100E3000AC261D682B0400F14C8415F0007505D01C
:100E4000964BDD7AA5F10800454245411422002168
:100E5000934884F8AE5617F0DBFA012F04BF94F8DC
:100E6000AD3684F8B4361DB194F8AF3684F8C33685
:100E700094F8B2361BB194F8B33684F8BE36012E1E
:100E800008BF94F8B136864D08BF84F8B936002300
:100E90002E464FF0070B1F469946DFF8248208F1D3
:100EA000940A3078E8B10CF03BFB18B180F806B03A
:100EB00080F8079000210CF059FB002331781AF8D4
:100EC00013005A00884240F0078408EB020393F8AD
:100ED000953073700723337101237A1CB770F37058
:100EE000D7B20BF1010B5FFA8BFBBBF10B0F06F1D5
:100EF0000506D6D1002B00F0BB806A4E49207368EE
:100F000043F4404373600EF07FFC674A6749002357
:100F10004FF01C0E104688460EFB032CDCF804C074
:100F20008C4540F0E083DBB21C2101FB03037269B6
:100F300019694FF000090A437261062283F819907B
:100F40001A765A4813F0F9FD0FA813F0CBFD584B51
:100F5000022F0F9334BF4B46802314934FF48073BA
:100F600015934FF480631693202317934FF4005387
:100F7000504E0FA94D48129718931096CDF84490F3
:100F8000CDF84C90CDF8649013F0B9FD012F94BFCB
:100F900000220122D8F80030474943F00103C8F885
:100FA00000304B684FF0070E23F4702323F4807356
:100FB00043EA02234B608A68404B134043F46023AA
:100FC00043F002038B60CA6A7B1E22F47002DBB21C
:100FD00042EA0353CB621F270123EA784AB395F80C
:100FE0000180581CB8F1090FC0B295F804C040F256
:100FF0008083A8F10A02D1F80C9002EB42020EFAAB
:1010000002FA29EA0A090CFA02F242EA0902CA6063
:10101000062B00F27B8303F1FF3C4A6B0CEB8C0C3C
:1010200007FA0CF322EA030308FA0CF21A434A63A4
:1010300003460535AE42D0D11F4B9A6842F4807208
:101040009A609A6842F001029A609A6842F0080237
:101050009A609A681107FCD49A6842F004029A6078
:10106000154B9A685207FCD49A6842F4A0029A6021
:10107000D4F8D006002841F0E980D4F8D436002B0B
:1010800041F0E480D4F8D836002B41F0DF8019E03D
:101090000038004015202000FE2F0020AC1C00204E
:1010A000A40B0020001002403C0000200800024079
:1010B0004C240140B80B002000240140FDF7F1FF53
:1010C0009CA7010808F0AAF930B9012002210CF010
:1010D000EDFA01200AF012FA94F8193543F00203F0
:1010E00084F819350DF056FFB24B186814F096FECF
:1010F000B14B1A88B14B1A80B14B5A6B99460AB161
:1011000008F006FEAF4BB0491B78B04CD800014444
:101110004A78AF492260079A1268114009B101224A
:101120002260002140F2DC55AA4A22F81150013118
:101130000829FAD12268002A40F0058303F0EF0263
:10114000082AA54A40F044831178182B41F0100179
:10115000117001D114F03AFE2368A04D002B40F02D
:101160004083AB89002B40F07683012108460CF0C8
:101170005FFA002108460CF05BFA002102200CF017
:1011800057FA0A24964D01200CF0BCF900200CF00F
:10119000B9F919200CF077F82B68DF0302D401208D
:1011A0000CF01AFA19200CF06EF800200CF014FA6A
:1011B000013CE8D1214620460CF03AFA21460120B4
:1011C0000CF036FA874B884D587A18F045FC874961
:1011D00018F096FC864918F08BFB09F033F9854B23
:1011E0000FAF1860B9F8140018F036FC01468248B9
:1011F00018F03AFDC5F8DC0612F00FFB01230F933F
:1012000010237E4A10931368904613F4800F04BF96
:101210007B4A0F92DE005EBF0F9A42F010020F92DF
:10122000784A1168880748BF0F9A774844BF42F050
:10123000C6020F924A0748BF0F9A039044BF42F07C
:1012400008020F920F9A42F000610F91017801F0AD
:10125000EF06082E01D00E2904D142F0006242F4BC
:1012600080520F920F9ADE0354BF42F4005242F4B0
:1012700020420F920F9AD80443BF42F064420F926B
:10128000502242F044424CBF10920F929A0642BF45
:101290000F9A42F480720F925E0742BF0F9A42F497
:1012A00000320F920F9A42F400200F90580505D596
:1012B000564B1B7913B142F4C0120F924FF0010943
:1012C000182902BF0F9B43F060730F9321463846E5
:1012D000E6B209F02AFA70B1304615F08CFD50B92B
:1012E000620957F8223006F01F0609FA06F623EACB
:1012F000060647F822600134272CE7D1DFF82CA13D
:1013000097E803004FF419728AE8030000210AF1FC
:10131000080017F07DF807F0A9FE0022DFF810E1C1
:101320003B4BF4461A809A703A493B4B3B4E3C4C3F
:101330003C481960DFF8FC90338BDFF8FCB0C4F850
:101340000490A06085F84C2919B204900AF51C7A23
:10135000DBF800002EF8121000F596704AF8220013
:101360000132122AF4D1D8F80000C20458BFB6F9ED
:101370002410ACF806102C49DFF8B4C001F1500E6F
:101380000A78002A5AD18A7891F803A0524555D29A
:10139000002A00F07082013A02EB820202EB820224
:1013A00002F5617291F801A092B20AF1040A2CF8D8
:1013B0001A2043E0801700204C1300205E13002009
:1013C000041500201C36002048AE010874110020CE
:1013D00020001000B015002049130020B636002070
:1013E000501A0020F02B0020F004002035FA8E3C2B
:1013F000DB0FC93F082C0020A889803AD81C0020A8
:1014000001000010881700208C1700207031002088
:1014100010300020A086010094270020AC1C002082
:101420009C1C0020712201085C1A0020D00B0020B7
:10143000CC2F002075220108B431002004318E45E4
:101440009ED1020740F12A82307A0A2800F21F82D8
:10145000DFE810F01A021A026403A503CE03F103B9
:10146000F1033A041D027D041A020024A14601275B
:101470004FF00008FFF7D1BAC24CF7E7C24CFFF7B4
:10148000BEBA30460CF04CF86B1C6061DBB210B198
:101490000322C37182711A210CF068F8002F52D018
:1014A000BBF8000018F0D8FA18F02CFDB74B4FF637
:1014B000FF7A1E68B6FBF0F353441B0CB6FBF3F641
:1014C0000FB1B6FBF0FA9BF80230042B3FD1504627
:1014D00018F0BEFAAB4918F013FBA0600990304633
:1014E00018F0B6FA494618F00BFB099B0890A8497A
:1014F000184618F005FB089A0146104618F0F6F950
:101500009BF80330E0603246019304991FFA8AF396
:10151000CDF80080204615F0E3FA002318229D49FB
:10152000AB4219D1002383F00103237401231D442E
:10153000082D637404F118047FF48CAA0122964BE1
:101540001A70FFF79CBA059815F0D4FDACE7304649
:1015500018F07EFA0799BEE702FB03104668606840
:10156000864201D00133DBE70123DCE71B8D874A8C
:101570009BB212680133B2FBF3F3884A1370FFF792
:10158000B3BA9A047FF5D7AA94F86C26844B04F278
:1015900094551A7004F2646816F8089000214846C1
:1015A0000EF086F8074698B300224FF0010A5FFA62
:1015B00086FB05F80FBC45F8040C05F80E2C05F861
:1015C0000D2C05F810AC48460BF0AAFFD3445FFA87
:1015D0008BFB18B180F806A080F807B04FF0000B25
:1015E0002A210BF0C3FF6F4A002138460BF098FD0B
:1015F0006D4B2A1D2B606D4B294638466B60C5F834
:1016000008B00BF0E1FD5A467979386810F0E2FA3B
:101610000136082E05F11C05BED1FFF78CBA0BF080
:101620007FFF4021C4F89406054630460EF040F88E
:101630000646CDB1C0B12523AB7101231A21EB7150
:1016400028460BF093FF0021A4F8987601915849A1
:10165000544A91FBF7F192FBF7F389B200919BB2E8
:101660003146544815F03CFA0023D4F88026138004
:1016700084F89136FFF783BA4F4AD1680B43D360A1
:10168000FFF7D5BA4C4A11690B431361FFF7CFBA84
:101690004A4B9A420BD103F5EC33196941F480416E
:1016A0001961196921F480411961FFF7F8BA444BB7
:1016B0009A427FF4F4AA03F5EA33196941F4004130
:1016C0001961196921F40041EEE701200223FFF7B7
:1016D000ECBA0125FFF7BABB01330A2B7FF4EFAB5D
:1016E0000023FFF7F6BB0133072B7FF415AC002373
:1016F0001AE40A6908EB480A0EFA0AF922EA09090B
:101700000CFA0AF242EA09020A6181E40C2B0DD8B4
:10171000DA1FD1F830C002EB820207FA02F32CEA9A
:10172000030308FA02F21A430A6381E40D3BCA6A12
:1017300003EB830307FA03FC22EA0C0208FA03F323
:101740001343CB6274E41F4A1F4912F833E002448A
:10175000556881F800E0002D3FF4F0AC00221B4EEC
:101760007245BFF6EBACC2EBC2002918D1F800C03D
:10177000871940F806C088880132B8808979B97124
:10178000EEE700BF6F12833A282930383800002076
:1017900000007A443C2900207811002080040020B9
:1017A000A425002040420F00C56901080D6801080A
:1017B00020A10700700B00200010024000380040FC
:1017C000003C004064AD0108B436002044360020DF
:1017D0000E2B3FF4B9AC1178192B21F010011170C8
:1017E000B7E400244FF0040BB14EDFF8C8A205F1B6
:1017F000030818F8017F002F3FF4B3AC38460BF014
:101800008FFE013403467061E4B210B180F806B077
:10181000C4710021384603930DF04AFF0746039B2D
:101820001A2118460BF0A2FE002F3FF49AAC0022BA
:101830006B8801929AFBF3F32A889BB200923046A0
:101840009C4A394615F04CF90123082C737406F1B3
:101850001806CED185E40024974F984EA88918F039
:10186000F7F83A6801463019243408F003FFB4F55C
:10187000907FF3D179E40AF1010A0AEB8A0A0AEBB4
:101880008A0A0AF561728DE50EF07DF830B90820FC
:101890000EF008FF049BC4F80490A360D8F8002061
:1018A00050040BD51223237044F620636380844BCD
:1018B00084496360844BA360844B196042F2010346
:1018C0001A4209D044F620639104638040F1678294
:1018D000082323707E4B636096F828302178043308
:1018E0008B42A8BF0B460024DFF82C92D00385F86A
:1018F000983989F800401CD513F020FC012389F8A1
:101900000030744B40F22A3293F8F190214672482D
:1019100016F07EFD484605F045FC2146FF226F4843
:101920000B180C52043180299A70DA70F8D113F038
:1019300075FCD8F8003059053FD5042007F074FB3A
:10194000674B0421186007F065FB664B1870082090
:1019500007F06AFB644B0821186007F05BFB634BE0
:101960002C2218700021624816F052FD7C2385F865
:1019700099398E2385F89A39E02385F89C397D239F
:10198000202085F8C43907F04FFB5A4B20211860FE
:1019900007F040FB584B18704FF4805007F044FBA1
:1019A000564B4FF48051186007F034FB0022544B23
:1019B0001870544B1A7013F083FA534C2288002A83
:1019C00040F04782514B95F8D809C5F8C839022331
:1019D00085F8CC3995F8D939013B5BB2012BDEBFD4
:1019E0004B4A1B01D258C5F8D029002800F031829B
:1019F0000BF096FDC5F8D40918B11A2383710023A2
:101A0000C37113210BF0B2FDD5F8C83998680BF0FB
:101A1000D4FD00BFD5F8C839022158680EF05AFC31
:101A20004FF000089F2332208DF838308DF8398030
:101A30008DF83A808DF83B800BF025FC8DF83D80C9
:101A400000BFD5F8C83998680BF0B2FDD5F8C809C1
:101A50003A460EA9042340680EF05DFCD5F8C8395B
:101A600098680BF0AAFD00BF9DF83E309DF83D2020
:101A70001B0243EA02439DF83F201343254A934249
:101A800000F0448300F32D83A2F52102A2F5CC429D
:101A9000934200F03B8300F3CF81A2F51A42023A51
:101AA000934240F0D181202323804FF480738EE352
:101AB000603B002040420F0068170020C83600201D
:101AC000ED220108400D0300D522010894270020D3
:101AD000C5220108242E0020E8310020182F002004
:101AE000A0310020A431002094310020A531002035
:101AF000890E0020AC310020A7310020BC3100202D
:101B0000B8310020B93100206C040020BC0E002048
:101B1000CC1300201720C200AB2F00200A221B018B
:101B200093FBF2F30022A149A3F5B06341F8223000
:101B30000132122AFAD142F6F82363809C4B4020EE
:101B400063609C4B2270A36007F06EFA8246002807
:101B50003FF49DAE13F09CF9737AB17A00280CBF64
:101B600001220322002B14BF0623072300290CBFE8
:101B7000002108219AF902E082460B438DE80C000F
:101B80008D4B8E4A4021704607F09AF8BAF1000F4B
:101B900001D08B4B1860003018BF012076E610236F
:101BA000237042F6F8236380864B40206360864BA7
:101BB000A36007F039FA824600283FF468AE13F0BC
:101BC00067F9B37A00280CBF01220322002B0CBF57
:101BD00000230823717A9AF902E0002918BF43F024
:101BE000010382468DE80C004FF4E133774AC9E7E0
:101BF0000823237042F6F8236380754B402063600E
:101C0000744BA36007F010FA824600283FF43FAE01
:101C100013F03EF9737A00280CBF0122032200332F
:101C200018BF01239AF902E08DE80C0082464FF4B8
:101C3000E133694AA6E700234FF00C0E674A684972
:101C40001370684A062884F800E00B70137030D0D7
:101C50001B22654B4FF4E13B1A700522634B83F85E
:101C600000E0634B1A7042F6F8236380614B40201A
:101C70006360614BA36007F0D7F9824600283FF408
:101C800006AE13F005F9B37A00280CBF0122032237
:101C9000002B0CBF00230823717A9AF902E0002977
:101CA00018BF43F0010382468DE80C005B46534A9F
:101CB00068E721224C4BDFF87CB11A704B4B83F85C
:101CC00000E04B4B1870CEE74FF0000B4C4B402020
:101CD00083F800B00E23237044F620636380494BE1
:101CE0006360494BA36007F09FF900283FF4CFAD34
:101CF000B0F800A0454B0AF4825A83F800B0737A1A
:101D0000BAF5825FB27A14BF01210321B3EB0B0352
:101D100090F9020018BF0123BAB9BAF5825F14BF67
:101D20005A46082213438DE80A00394A4FF4E1333A
:101D3000402106F0C5FFBAF5825F7FF42CAF002288
:101D4000344B1860344B1A7025E70822EAE70A2260
:101D50001B0193FBF2F300223049A3F5B06341F875
:101D600022300132102AFAD141F60B2363802C4B2A
:101D7000402063602B4B2270A36007F055F90028C8
:101D80003FF485AD03234FF0000E90F90200264A80
:101D90008DE808404021254B06F092FFFBE6D30773
:101DA0007FF59AAD0C232370214B94E5A4260020E7
:101DB000091E0108251E0108A0860100E52501086D
:101DC000E41C0020411D0108551D01082D240108B7
:101DD000B91C0108D11C0108E52301081D280020B9
:101DE000401300201C280020CC250020F0250020D6
:101DF0001E280020F5920008099300080D23010811
:101E000067280020FD2201087527010865280020A9
:101E10009D2601085C310020683100200827002041
:101E2000A51F01082920010839260108A06806001D
:101E3000B522010890D00300B54A934200F0C48156
:101E4000B44A934200F0608100232380A381636041
:101E5000A360A568B5B14FF00008ED0A0DF13C098B
:101E6000A8450ADA08EB0504641010223946E0029E
:101E700008F016FD0F2800F3BF8108F031FEA64BD5
:101E8000ED021D600023A54AA54D1360A54AA64C8E
:101E90001380A64A1380A64A1380A64A13602A68B4
:101EA0001F2A40F0B3814FF48063A34A2380118836
:101EB000A248002940F0B38101809278A04B02B182
:101EC00001221A70B4F900309E4A1B021360039B72
:101ED0009D481B789D4C052B02BF4FF4C8729C4B4C
:101EE0001A8007F071FEC8229A4B00211A809A4A84
:101EF000A4F8DE191378A4F8E01943F0080313706E
:101F00000423964A84F8DC391370954A954B117076
:101F1000642219705A705960934B19805980934B01
:101F20005A799846012A0BD1282204F6E41016F0BB
:101F30006FFA4CF250328E4904F6E81008F09AFB22
:101F400000218C4B84F80C1A19605960996098F83C
:101F50000630012B09D11022874816F059FA4CF2AD
:101F600050328649864808F085FB864B864F1B68B1
:101F7000864A3B60864B4FF001091B6880209B1A04
:101F800018BF0123834A137009F0B8FA00214022D8
:101F9000814884F8449A16F03BFA00237F4A80482F
:101FA000C4F8483A136006F0ADFD4946052006F036
:101FB000E1FD98F805A007201AF1000118BF0121E2
:101FC00006F0D8FD98F80690082019F1000118BF16
:101FD000012106F0CFFD98F80A30002B40F0C181B6
:101FE00098F80B30002B40F0BC813968C1F3804178
:101FF000BAF1000F03D1B9F1000F00D14946092011
:1020000006F0B8FD674BDFF898811A68994612F020
:10201000010F09D02B680121642BB8BF6423084647
:10202000C8F8443006F0A6FDD9F800309A070AD562
:102030000121022006F09EFD5B4B5B6B642BB8BF59
:102040006423C8F87830D9F800100320C1F34001A8
:1020500006F090FD554B01211A8C554B042093FB43
:10206000F2F3642BB8BF6423C8F8143106F082FD84
:10207000504B0620197806F07DFD01210A2006F05C
:1020800079FDD9F800100B20C1F3800106F072FD34
:10209000D9F800300C2013F0140F14BF01210021D7
:1020A00006F068FD39680D20C1F3802106F062FD5D
:1020B00039684B0507D5337A083B012B9CBF4FF499
:1020C000FA63C8F8B432C1F300410E2006F052FDA5
:1020D00094F8193563F07F0384F819351BB0BDE817
:1020E000F08F354A934211D004DC344A934208D031
:1020F000334AD5E4334A934266D0013293427FF4A7
:10210000A3AE4FF40073CFE44023CDE48023CBE4AF
:1021100018BA20001620C20030350020C815002053
:10212000981F0020CC150020C0150020CE150020DF
:10213000D0150020C415002020350020C215002035
:10214000D2150020A8170020C01D0020F004002098
:10215000B0200020AE20002049130020F92F0020DD
:102160007E3100207C0F00206A310020FE2F0020ED
:10217000CDCCCC3D78150020000F0020CDCCCC3E3E
:10218000100F0020401A0020D81C0020A36901086D
:10219000C02B002078110020BC170020B8170020A9
:1021A000600100208817002004150020AA1F0020CD
:1021B00040420F00E91C00201740EF001920C20028
:1021C0001540EF001840EF004FF480732380A38187
:1021D000638822881B0263605343B3F1807FA3604E
:1021E000614D05D90123B72085F8DA3908F09CFB49
:1021F000012385F8DB392CE6002359F8232001322E
:1022000020D10133042BF8D1254629E63F2A16BFF9
:102210004FF4FA434FF40073B3FBF2F345E6B4F91D
:102220000030994204DD1F2B02DD0123038044E6C8
:1022300093FBF1F3FAE732F83330002B7EF494ADE0
:10224000FEF78ABD04F101082C46DDE70022474B6A
:1022500000B21A7017F000FC454917F051FC074610
:10226000B4F9D40617F0F8FB414917F049FC0646CB
:10227000B4F9D80617F0F0FB3D4917F041FC3D4991
:102280000546384617F034FB08F0DCF8814638463E
:1022900008F0D8F837490746304617F029FB08F010
:1022A000D1F88046304608F0CDF832490646284637
:1022B00017F01EFB08F0C6F88346284608F0C2F85F
:1022C00049468246584617F01BFC49460390504643
:1022D00017F016FC59460490384617F011FC514689
:1022E0000590384617F00CFC41460690584617F00A
:1022F00007FC214D5146286008F1004017F000FC12
:1023000005996860AE60304617F0FAFB049917F043
:10231000EFFA0699E860304617F0F2FB01460398A1
:1023200017F0E4FA4146286107F1004017F0E8FB96
:1023300003996861304617F0E3FB0146069817F0F1
:10234000D5FA0499A861304617F0DAFB059917F021
:10235000CFFA4946E861404617F0D2FB2862FEF703
:10236000B1BE012144E600BFF0040020340000208B
:1023700035FA8E3CDB0FC93F1C1400202DE9F04FCD
:10238000B04B9BB01B780590012B07D1AE49AF4AEB
:102390000968C9691180AE4909885180AD4C22781D
:1023A000002A00F09986072B40F08A830AF09CFDF2
:1023B0000B90A94F3B68079713F4806F05D0A7488F
:1023C000836813B100F15C019847A54AA5481268DB
:1023D000B0F9068051890890884580F274834FF0E7
:1023E0007E52626094F90C204FF0000B002A14BF5B
:1023F00001234FF0FF339C4994F809A00D8B94F80A
:1024000008909A4E06930991089B33F91B70781B2C
:102410000028B8BF4042B0F5FA7FA8BF4FF4FA7069
:10242000BBF1020F00F063834845CCBFA0EB09006D
:10243000002017F011FBAF4246F82B00C0F2658375
:102440000BF1010BBBF1030FDED1079B1F6817F4E3
:10245000805700F06183B8F5FA6F4346A8BF4FF488
:10246000FA63B3F57A7FB8BF4FF47A73A3F57A7342
:10247000227C22B1627C5343642293FBF2F34FF03F
:10248000640E93FBFEF27A4802F1010C30F912104F
:1024900030F91C006FF0630C0CFB0233401A5843F8
:1024A00090FBFEF0084400B217F0D6FA6F4B81465D
:1024B000D8609846002F40D01D2014F005FCC8B10C
:1024C0006C4BDB78B3B96C49484617F00FFA17F03C
:1024D000F3FC4FF47A7300B2000390FBF3F3C5F5FD
:1024E000FA6000B2584340F30F30284417F0B4FAB2
:1024F000C8F80C00262014F0ADFBF0B15D4BDB7882
:10250000DBB9262014F0E0FB5B49002800F01983BA
:10251000F06817F0EBF917F0CFFC4FF47A7300B2C4
:10252000000390FBF3F3C5F57A7000B2584340F313
:102530000F30284417F090FAF060504B1B885E066D
:1025400040F1B2819D0718BF0023D8F8002008BFD2
:10255000D8F80830A261D8F804202362E261484A22
:102560005368D2F800A00693464BD2F80880596809
:1025700006980791D1689A681F68D3F80C90099261
:10258000089117F0B5F909990446079817F0B0F9C2
:102590000146204617F0B4FA08990A90069817F0F9
:1025A000A5F909990446079817F0A0F901462046B5
:1025B00017F0A6FA41468346504617F099F9494666
:1025C0000446384617F092F90146204617F098FA6B
:1025D00041460646504617F089F9494604463846B2
:1025E00017F086F90146204617F08AFA054601469B
:1025F000304617F07DF90A9917F078F9594617F027
:1026000075F94FF07C5117F07BFA41460D90089810
:1026100017F06CF949460C90099817F067F90C9A75
:102620000146104617F06CFA0D9B0146184617F04C
:102630005FF9154C06992060504617F059F9079933
:1026400024E000BF84170020D83100204C15002062
:102650000C1800206C0F0020D81C0020001D00204A
:10266000283C0020CC2F0020AC1C00208031002012
:102670002C3C00201030002000007A44F62F00206F
:102680000400002038010020480100200C9038464A
:1026900017F02EF90C9B0146184617F031FA314617
:1026A0000C90584617F024F90A9917F021F9294699
:1026B00017F01EF94FF07C5117F022FA0C9B0146DF
:1026C000184617F013F9594660600A9817F00EF98A
:1026D00006998346504617F009F9494682460998FB
:1026E00017F006F90146504617F00AFA29468146C6
:1026F000584617F0FBF8314617F0FAF84FF07C51C6
:1027000017F0FEF90146484617F0F2F84146A0607E
:10271000089817F0EDF807998046384617F0E6F864
:102720000146404617F0ECF931460746584617F087
:10273000DDF8294617F0DCF84FF07C5117F0E0F98E
:102740000146384617F0D4F810A9E060204611F091
:1027500025F8139A179B0792169A06930892AB4B8B
:10276000129A9D6909921A6ADC69114610460D9306
:102770000C9217F0BDF821468146204617F0B8F8B4
:10278000DDF854A080460799504617F0B1F801468D
:10279000404617F0B5F909998046089817F0A6F851
:1027A000494617F0ADF90146404617F0A1F8109ED2
:1027B000149FDDF864B080463946304617F098F82B
:1027C000069917F093F8594617F090F8294617F034
:1027D00097F90146404617F08BF839460A90304683
:1027E00017F084F807990646504617F07FF82946F7
:1027F00082462846189FDDF8448017F079F8014694
:10280000504617F07DF941468246384617F070F879
:10281000494617F075F90146504617F069F85946D0
:102820008146304617F062F8069917F061F82146A4
:1028300017F066F90146484617F05AF8099981469B
:10284000089817F055F8294617F05AF941460546F9
:10285000384617F04BF8214617F052F90146284642
:1028600017F046F8014617F043F80699044630463B
:1028700017F03CF8594617F03BF80C9A114617F040
:102880003FF90146204617F033F80D9B0A9AC3F82A
:102890001C909A6118625E4B1A605E4AC3F80490FD
:1028A0001288940708BF98605B4B584C1B6813F064
:1028B000140F1AD0574B1B8803F40273ABB1574B5C
:1028C000534D1A7812F0100200F0498194F8243028
:1028D000A06A002B0CBF01234FF0FF33584317F0C1
:1028E000BBF8696817F004F868604D4D4D4F2B7CBC
:1028F000B3B14D4BB3F906207B8B9A4210DC4B4BA6
:102900001B78012B01D0192B02D1494A927B3AB98D
:102910000E2B05D0082B1FBF00233D4A2365936073
:1029200094F85680B8F1000F32D03A4B1B889907C3
:102930002ED0404B40491E6A304617F089FA0028D5
:1029400040F05C81304607F0C2FCA16D17F0D8F86A
:1029500014F01EFCB0F5617FA8BF4FF4617017F052
:102960007BF8364917F0CCF807F06CFD0646404678
:1029700017F072F8314617F0C3F814F009FC00B2F2
:1029800017F06AF8224E0146F06816F0B1FFF060C9
:1029900094F85C90B9F1000F00F08580284B04207A
:1029A000D3F8EC6044F620639E42A8BF1E46B6F5FD
:1029B0007A7FB8BF4FF47A76B6B2A4F85E6014F0AE
:1029C00083F9204B10B91A68D2006CD54FF47A7293
:1029D000B6FBF2F6642292FBF6F6142EA8BF14267C
:1029E000DFF864B01B680A48216EDBF8002013F49E
:1029F000805FD0F80CA014BFB2F83280B2F93280F8
:102A000001F1010204EB410322661FE06C0F00207C
:102A100080310020F62F0020881700204913002065
:102A200004000020AC1C0020CC2F00208C170020BC
:102A3000B6360020C82B00208FC2753CD06D393AC5
:102A400060010020D81C002080170020504618BFCD
:102A50004FEA58080792069317F02EFA079A069B3A
:102A60009642DCBF00222266226EA3F8640004EBCB
:102A70004202B2F9640016F0EFFF0146504616F02C
:102A800035FF17F019FA00B20028B8BF40424045A0
:102A900040F3B680DBF80030988E16F0DDFF5A491F
:102AA00017F02EF86861BD7F002D00F0DC81022D4B
:102AB00000F0B280032D00F0AF81544B5888B0E095
:102AC00000230B9375E4B8F5FA6F107ABFBFA8EB3B
:102AD00001025043C1F5FA6190FBF1F0C0F16400CE
:102AE00016F0BAFF4A4917F00BF860607AE45045D7
:102AF000D8BF0020069BC8BFA0EB0A00584316F0C1
:102B0000ABFFAF42B060BFF6A0AC56F82B1001F19E
:102B1000004146F82B1093E4099B5A8B90450EDB3D
:102B2000B8F5FA6F4346A8BF4FF4FA634FF47A71D1
:102B30009B1A4B43C2F5FA62B3FBF2F398E41346D7
:102B4000F4E7F06816F0D2FE17F0B6F94FF47A7396
:102B500000B2000390FBF3F3C5F5FA60E5E4E17A17
:102B60002C4EB4F92C30A07A61B3B6F90660F11A94
:102B70000029B8BF494281420EDD226301229E42F4
:102B800084F83420C8BF404216F066FF0146E8686A
:102B900016F0AEFEE860A8E694F8341019B1E16BC7
:102BA000A16384F83420A06A1844B0F5FA6FA8BF76
:102BB0004FF4FA60B0F57A7FB8BF4FF47A7016F030
:102BC0004BFFE7E7B6F90620D21A82EAE276A6EBD7
:102BD000E276864207DD022192FBF1F222640122B5
:102BE00084F84420DDE794F83420002ADBD0E26B3F
:102BF00084F84410A26384F83410D4E70020BEE6C1
:102C00004FF07E536B614EE76F12833A9C1C00209D
:102C10000AD7233CCC2F0020B4F85E0000F57A7070
:102C200080B2FD7F0235EDB2B9F1000F00F00981ED
:102C3000002800F00681904B00261B688F4FB0FBE8
:102C4000F3F000B2A4F88C0016F006FF01464FF036
:102C50007E5017F009F88046DFF8289207F1100A35
:102C6000AE42C0F2E180864B1B78092B11D1854B17
:102C7000854E186814F08CFA844B3080D3F8EC0041
:102C80004FF47A7390FBF3F016F0E6FE17F014F9A8
:102C90007080B4F98C30002B40F3E88000267C4F24
:102CA000DFF8E091A7F11008F3B29D4200F2CF8067
:102CB00094F85C300793002B40F0DA80002D00F090
:102CC0008B80022DA8BF0225089500254FF07E5964
:102CD000704BDFF8F0811F68694B1B7809937B1DEF
:102CE0000A93089B9D4240F3EF80099B092B08D172
:102CF000694B654DB3F88C20986CAA8017F0DCF80E
:102D0000E880664B93F82150002D5FD01E2013F011
:102D1000DBFF00285AD0624B1B88580656D45E4F02
:102D2000604E97F8C830AB4213D087F8C850284699
:102D300016F092FE5C4916F0E3FE5C49054616F07B
:102D4000D7FD07F07FFBB061284607F07BFBC7F893
:102D5000CC00D6F81880A56C4146284616F0D0FE67
:102D6000276DD4F8CC6081463146384616F0C8FE4F
:102D70000146484616F0BAFD4D49814617F068F8FD
:102D800008B9DFF82C914B49484617F06BF808B9A1
:102D9000DFF8209141463846C4F8489016F0B0FE5E
:102DA00031460746284616F0ABFE0146384616F077
:102DB0009FFD3F49054617F04BF800B93C4D3D4992
:102DC000284617F04FF800B93A4D2565079B1BB10F
:102DD0000022314B83F85C20374B1B78002B40F0EE
:102DE0006E81364EB278002A00F06981344C237827
:102DF000013B0D2B00F25181DFE813F006011A01AF
:102E0000400139024F014F0153028002C105DE0526
:102E1000EF050E061906220697F82000C0EB4013B6
:102E200000EB8300C000FBE65AF8261059F8260094
:102E300016F05CFD414616F063FE47F826000136A9
:102E40000EE7B4F88C30013BA4F88C3021E757F83A
:102E5000260058F8261016F04BFD47F8260049F8D2
:102E60002600013620E7A4F88C5021E700251FE753
:102E70000223089329E700BF68170020FC0F0020F9
:102E800084170020803100204C15002060010020B4
:102E90000C100020283C00206C0F0020AC1C0020EF
:102EA000F62F00200400002035FA8E3CDB0FC93FCE
:102EB00000C0F94400C0F9C4802A00202035002059
:102EC000D21500200AD7233C022D15BF3878787818
:102ED00097F802B097F809B016F0BEFD414616F01B
:102EE0000FFE4FF08041064616F0C6FF60B14FF06E
:102EF0008041304616F0FAFC524916F001FE0146B8
:102F0000304616F0F5FC0646AB0006934E4B4F4993
:102F100053F8250016F0F4FD20F000434C4A0693C8
:102F2000069B42F825000C32824642F82530BBF160
:102F3000000F1FD0584616F08FFD414616F0E0FDF9
:102F400083465146504616F0DBFD069916F0D8FD33
:102F5000594616F0D5FD59460C90484616F0C6FC69
:102F60000C9A0146104616F0C3FC0146504616F076
:102F7000C7FD82463749304616F0C2FD514616F06D
:102F8000BFFD0A9B064613F8010B0A93F0B116F039
:102F900063FD414616F0B4FD069916F0B1FD2E49C9
:102FA000824616F069FF58BB0021504616F046FFD6
:102FB00040BB5146484616F099FC0146484616F07B
:102FC00053FE0146304616F09BFD0646099B0C2B2E
:102FD00005D1304616F070FF204B23F8150020492C
:102FE000304616F035FF00B91D4E1E49304616F02A
:102FF00039FF00B91B4E1C4BAA00D650013570E6B4
:103000004146DBE74946D9E7184B1B78D90707D576
:1030100080200CF09BFE08B105F03AFE17F084FA10
:103020001F2013F051FE002837D00C23237034E00A
:1030300000220F4B1A600F4B1A600F4A12685A6039
:103040000323F3E7D7A36841803100206F12033BCD
:103050001C10002000004843A4707D3F4C15002048
:1030600000C0F94400C0F9C4B40F0020A42F002010
:103070001C3500205C170020B431002012F008FA43
:10308000924D934B1A686B686433934205D240208B
:1030900012F0D6F9002800F0C68012F021FA0028BC
:1030A00000F0D58423780C3B022B08D90123237030
:1030B000884B93F8032112B1002283F80321864B39
:1030C0001B78072B05D109F00FFF0B9BC01A834B10
:1030D000988000227F4B1A707F4E3378072B40F088
:1030E000048509F001FF0890DFF8F8A1DAF8043050
:1030F000504698475546002876D00022BAF8C0407E
:103100008AF86120002C40F09585DAF82420BAF97D
:103110003C30DFF8C0B19B1ACAF83030DAF828200A
:10312000BAF93E300AF130009B1ACAF83430DAF8A6
:103130002C20BAF940309AF862109B1ACAF838303D
:1031400006F052FD059BDBF80801CBF80831181A90
:10315000DBF80C310344CBF80C31614B93F8008061
:10316000B8F1000F40F0088516F076FC4FF07C5166
:1031700016F0C6FC81460AF12C070AF5A2760BF57B
:103180008E74C2460BF5887857F8040F16F064FC6D
:10319000296A16F0B5FCD5F840310146304698470B
:1031A000D5F8B031014606F170009847D5F8C43023
:1031B0000146D7F80401984754F82A10386283462C
:1031C00016F096FB494616F09BFC58F82A1016F0AC
:1031D0008FFB44F82AB048F82A000AF1010ABAF134
:1031E000030F06F12406CFD13E4A3F4B116D3A4CF6
:1031F0005960516D926D9960DA602278072A05D185
:1032000009F072FE089BC01A344B1880314A92F8BC
:1032100029311546002B00F0E385013B82F8293166
:103220001BB0BDE8F08FDFF8CC804027C246DFF846
:10323000C8902B6818F8030068B112F0CFF9D9F8DC
:103240000030013F03F1FF33C9F800302B6803F170
:1032500001032B60EDD12B681AF80330002B7FF4AB
:103260001CAF2B604FF0FF336B600423DEE612F0DF
:103270000FF91E4A5021A2F10C030193262302925A
:1032800000934920A2F10A03163A0AF0FBFD002838
:103290007FF403AF4FF0FF320C4B18605A600723E6
:1032A000C4E612F0F5F8052300210093104B0291BB
:1032B0000191A3F1080253200AF0E4FD00287FF4F5
:1032C000ECAE024B18600823B0E600BF5C1700208C
:1032D000B43100206C0F0020841700204C15002012
:1032E0004B130020001D0020981F0020AAA80108F1
:1032F00064AA010844A801081C35002012F0C8F88F
:10330000914B924D186813F043FF8046D5F8D000DA
:1033100013F03EFF8146402012F092F82946002823
:103320007FF4BBAE8A4D8B4F2B6878784C2B01F223
:10333000F583DFE813F04D005300610068006C0076
:1033400070007600840088008D00920097009E0037
:10335000A300AF00B900BE00C900CE00D300D80062
:10336000E000E800F000F800000179018101890126
:1033700096019F01A801B101BA01C301CC01D50199
:10338000DE01E401ED01F401FA01000206020C0283
:1033900013021A02210227022D0234023B024102CB
:1033A00047024D02530257025B02600265026A0245
:1033B000700276028302E302E802ED02F202F702F3
:1033C000FD02020307030C03110316031B031F0373
:1033D000614A624962480AF04BFA09E0614B5E4A71
:1033E0000193614B614900936148624B0AF040FAD6
:1033F0002B6801332B6050E65F4B604A604961489F
:103400000AF036FAF4E7604A54496048E3E7604A54
:1034100052496048DFE7604B6049B3F900206048DB
:10342000D9E70AF051FA32885B494243B1F90010FA
:10343000034692FBF1F25B48D2B25B49E0E7328887
:1034400056495A48C7E75A4B54491A8A5948C2E75D
:10345000574B52495A8A5848BDE74FF07E52574958
:103460005748B8E71FFA89F31FFA88F255495648BA
:10347000C6E7564B56499A8A5648ACE7564B1B68E6
:10348000DA0404D591F8D42054485149A3E70F2316
:103490002B60ADE7524953488B784A780978009100
:1034A00051490AF0E5F9A3E7504B49491A885048B9
:1034B00091E74B4B9B79012B9AD1B1F9D830B1F9F7
:1034C000DA204C483F499BE74B4B34491A684B483C
:1034D00081E74B4B31499A784A487CE74A4B2F4960
:1034E0001A784A4877E70C2303FB0011484891F803
:1034F000DC202A496FE70C2303FB0011454891F8B3
:10350000DE20264967E70C2303FB0011424891F8AF
:10351000DD2022495FE70C2303FB00113F4891F8AF
:10352000E5201E4957E70C2303FB00113C4891F8A6
:10353000DF201A494FE70C2303FB0011394891F8AB
:10354000E020164947E700BFF01500206C0F00206F
:103550005C170020AC1700206BC70108E4D80108F5
:1035600077C70108ABC70108A0CC01088BC70108C9
:1035700099C7010885C70108B0C70108B9C7010884
:1035800077D00108C5C7010820000020D3C7010873
:10359000BB1B0020E6C70108C01500209ECD010816
:1035A000F1C7010802C80108FCC701080DC80108DD
:1035B000D815002015C8010821C8010894D20108B7
:1035C0002DC8010804C9010838C8010804150020E5
:1035D00066D0010844C80108D41500204BC8010872
:1035E000FE2F00205FC8010856C80108EE15002014
:1035F0006FC8010877C80108981F002085C8010816
:10360000EA1C00208EC80108583800209EC8010816
:10361000B0C80108B8C80108C0C80108CCC8010872
:10362000D8C80108E0C801080C2303FB0011864834
:1036300091F8E4208549CEE60C2303FB0011844871
:10364000B1F8E6208149C6E60C2303FB001191F88E
:10365000E23091F8E12091F8E3107E4800917E4934
:103660001FE77E4B7E4819684B780A78897800916D
:10367000794916E7794B7B4819680B79CA784979FB
:10368000009175490DE7754B77481968CB798A79B0
:10369000097A0091704904E7704B744819688B7A75
:1036A0004A7AC97A00916C49FBE66C4B70481968FC
:1036B0004B7B0A7B897B00916749F2E6674B6D483B
:1036C00019680B7CCA7B497C00916349E9E6634B2E
:1036D00069481968CB7C8A7C097D00915E49E0E6E7
:1036E0005E4B664819688B7D4A7DC97D00915A49B9
:1036F000D7E65A4B55491B6861481A7E6BE6574B13
:10370000604819680B7FCA7E497F00915249C8E61C
:10371000524B4E491B685C4893F826205BE64F4BA2
:103720004A491B6859481A8C55E64C4B47491B6857
:103730005748DA8B4FE6494B44491B6855485A8C29
:1037400049E6464B41491B6853489A8C43E6434B34
:103750003E491B68514893F827203CE63F4B3B49C4
:103760001B684F4893F82C2035E63C4B37491B68C3
:103770004C4893F82D202EE6384B34491B684A48B4
:103780005A8E28E6354B31491B6848489A8E22E606
:10379000324B2E491B68464893F836201BE62F4BC8
:1037A0002A491B68434893F8372014E62B4B2749D6
:1037B0001B6841481A8F0EE6284B24491B683F4876
:1037C0005A8F08E6254B21491B683D481A8D02E6B1
:1037D000224B1E491B683B485A8DFCE50A7A3A4841
:1037E0001A49F8E54A7A39481849F4E5384B174937
:1037F000DA783848EFE5364B14491A793648EAE565
:10380000334B12495A793548E5E5314A3449D38971
:1038100034485289F4E52E4A3149138A3248928954
:10382000EEE5324B188816F017F9314916F068F9B1
:1038300016F042FB054902462E48CCE52B4B0349C6
:10384000DA782D48C7E500BFE9C801089ECD010818
:10385000F2C801080AC9010801C90108801700203F
:1038600010C9010818C9010821C9010828C901089F
:103870002FC9010836C901083EC9010846C9010817
:103880004FC9010848C9010856C9010868C901089B
:1038900075C9010880C901088FC90108A2C90108BA
:1038A000AFC90108BDC90108CEC90108E5C90108B1
:1038B000F7C9010811CA010827CA010835CA010859
:1038C0003FCA01084CCA0108ABE201085DCA010801
:1038D000EA1C00206ACA010873CA010885CA0108E7
:1038E00004C9010895CA0108A3CA01084C130020A5
:1038F0000000C842B5CA0108C0CA01087D4B7E4914
:103900005A797E4867E57E4B7B49DA787D4862E5E7
:1039100091F800217C4878495DE57C4B76499A7F97
:103920007B4858E5794B744993F82020794852E553
:10393000764B71495A8C78484DE5744B6E491A7A2A
:10394000764848E5764B6C491A79764843E5744BDE
:1039500069499A7874483EE5714B67491A887348FB
:1039600039E56F4B6449DA89714834E5BA786249C0
:10397000704830E5704B60491A6870482BE51A2092
:1039800013F0A2F9A0B16E4B1B888BB96D4B10A937
:103990001B680E201093059B119309F0D7FF6A4B0B
:1039A0001A686A4B1A600A23237005980AF01CF8FB
:1039B00009F09CFFFFF771BB654B1B78002BF4D01F
:1039C0001A2013F081F90028EFD1624B93F80331EC
:1039D000002BEAD109232370EAE75F4B1A685F4B9B
:1039E0005B68C833934211D2B378032B0BD15C4D83
:1039F000286805F037F900232B605A4B1B78022BFF
:103A000001D105F033FB0123FFF710BB16F0B4FE24
:103A10000028E9D1FFF741BB012A01D107F09EF848
:103A20000D231320237005F099FBFFF736BB012A05
:103A300004D106F0FDFE00283FF42FAB0E23F0E783
:103A40001F2013F041F900287FF427ABDBE7F37860
:103A5000002B3FF434AB444B1D7815F0010508D121
:103A6000424BDFF810911F78414BD3F80080BD42E4
:103A70001ADB394B374D1B68D5F804219A4224D9FB
:103A80002378012B7FF41BAB324C94F80321002ADE
:103A90007FF415ABB378032B10D016F045FD01234E
:103AA00084F80331FFF70BBB414659F8250016F0A7
:103AB000BBF9002801F03E800135D8E780200CF0EA
:103AC00045F900287FF4FBAAE7E72378012B3FF4B0
:103AD000F6AA95F80331002B3FF4F1AA0AF08AFA0E
:103AE000002385F80331FFF7EABA00230893FFF7B4
:103AF000FBBA00BF4A3100209ECD0108CDCA0108A3
:103B000050140020DBCA0108E8CA0108AC1C0020E0
:103B1000FECA01080FCB010829CB010843CB0108DD
:103B2000D815002055CB010866CB010879CB0108D8
:103B300088CB010899CB0108401A0020A4CB0108CA
:103B4000CC150020C8150020A8170020C41500209F
:103B50008E1700206C0F0020B43100205C1700206D
:103B60002835002065170020A42F002054150020C0
:103B7000842A00201429002015F06EFF4FF07C519C
:103B800015F0BEFF8E4F0AF12C090AF5A2782546E2
:103B9000069054460BF5887A0BF58E7B337859F8EE
:103BA000040F172B04BF6219928F079308BF3A8046
:103BB00015F052FF216A15F0A3FF079B0146082B61
:103BC00004D1079013F0E4FA07993880D4F8403113
:103BD00040469847D4F8B031014608F17000984744
:103BE00033780146032B04D1079013F0D1FA0799DB
:103BF0003880D4F8C430D9F8040198475BF8151020
:103C0000C9F82000079015F073FE069915F078FFAB
:103C10005AF8151015F06CFE079B4AF815004BF882
:103C200015300235062D08F1240807F10207B5D139
:103C3000FFF7DABA634B55465B780AF1240709931C
:103C4000614B079219684FF47A73B3FBF1F3C3EB3E
:103C5000431103EB8103DB009BB2069333781646D6
:103C60000A93574BB3F90690069B5B080B93069B90
:103C70009C4201BF00237B65C5F894303B60534BE9
:103C8000F318B3F93C007B6D03447B6515F0E4FE4B
:103C9000D5F8942002F10108B8F1010FC5F894801D
:103CA0000AD10023012CC5F88800C5F88400C5F8A6
:103CB0008C305CD1002034E0D5F884A00D925146C0
:103CC0000C9015F013FE8346404615F0C5FE0146E4
:103CD000584615F0C9FF514615F00AFE0C9B0146E7
:103CE0008246C5F88800184615F000FE594615F0C2
:103CF00007FFD5F88C1015F0FBFD012C8346C5F8A5
:103D00009000C5F884A0C5F88C000D9A2FD1B8F1A9
:103D1000010FCFDD104615F09FFE0146584615F005
:103D2000A3FF13F065FC0A9B8046032B05D113F01B
:103D30002FFA01230FFA80F90793099B83B11846E4
:103D400015F08AFE414616F079F848B1079B13B189
:103D50001B4BA3F806901E4805F036FFFFF744BA48
:103D60000B9A7B6D1344069A93FBF2F33B60023689
:103D7000062E07F1040705F114057FF478AF079BC1
:103D800013B10F4BA3F80690012C11D10022114B57
:103D90001B689A621A63DA620F4B93F8283123B1D9
:103DA0000E4B1B8823F4806313B9012005F0D6F96C
:103DB000064AB2F8C030013BA2F8C030FFF714BA8F
:103DC0004C150020EA1C0020981F0020001D002038
:103DD000C01D0020D83100206C0F0020343000209E
:103DE000AC4B5B79002B00F03984AB4B1B78013B6B
:103DF000DBB285F829312378072B40F0328409F0B3
:103E000073F80B90A54B4FF07E501B6807936B68BF
:103E10000E93D5F82C3119460A9315F067FDA04B87
:103E2000196815F06DFE4FF07E510C9016F010F8E9
:103E300010B94FF07E530C934FF0000A4FF0000B77
:103E4000984B994D0693994B0893994BDFF8B8829C
:103E500053F82A70594638464FEA8A0458F82A60BF
:103E600015F0E2FFE0B908F1E80858F82A8030467A
:103E7000414615F03BFD814620F00041384615F0E3
:103E8000DDFF58B15946484615F0F6FF002800F00E
:103E9000EC834146384615F02BFD0646854BE6502F
:103EA000854B1B8809939B073AD0BAF1020F37D094
:103EB000079B93F82E80404615F0CEFD7F4BE158CE
:103EC00015F01EFE8146C8F1000015F0C5FD07463D
:103ED0000146484615F0B2FF40B9404615F0B8FD1E
:103EE0004946074615F0B4FF00B94F46744B33F905
:103EF0001A00089BB3F90030C01A15F0ADFD7149E6
:103F000015F0FEFD0146384615F0F0FC099B0D90BA
:103F1000DF0740F1D7836C4B196815F0F1FD0646B9
:103F20006A4B304623445B681946099315F0DEFC62
:103F300095F83C310746002B77D0059AD5F84031EB
:103F4000D31A634A126893426FDD079B93F8483097
:103F5000022B02D1012009F03FFBBAF1020F40F021
:103F600065845C4B3846D3F8008008F10049494627
:103F700015F064FF002840F078844146384615F07B
:103F800067FF00B94746069B059AC3F800B0D5F80D
:103F90004031D31A504A1268934223DC4FF07E51CD
:103FA0000A9815F04BFF00283FD04C4BDFF81C91CE
:103FB000D3F80080D9F80400414620F0004015F005
:103FC0003DFF90B3D9F80810404621F0004115F0AC
:103FD00053FF50B3D9F80C10404621F0004115F0C2
:103FE0004BFF10B33E4B186810F0020019D03D4B48
:103FF00033483D491A68B1F90CE0B0F90030A3EB41
:104000000E03002BB8BF5B4293420EDAB0F90230C8
:10401000B1F90E105B1A002BB8BF5B429A4204DD67
:10402000002085F83C0109F0D7FA304B0E98E15892
:1040300015F066FD394615F063FDDFF8D080BAF162
:10404000020F014644F8080006D1294A294B10689E
:104050001B689847C8F80800069B1B680D93264B01
:104060005969264B186815F04BFD0C9915F048FD61
:10407000234BE15815F044FD394615F041FD0D99EB
:1040800015F036FC1F4B0F90D3F8009009F1004853
:1040900041463DE0EA1C00205838002080170020EF
:1040A000D82A0020EC1400206C0F002058130020A8
:1040B000CC2A00209C100020F62F00201C1000208D
:1040C0001E360020CDCCCC3DB42A0020981F002005
:1040D000E02A0020F82A0020DC2A0020E82A00201C
:1040E00088170020E42A00204C130020882A002092
:1040F000AC2B0020082B0020040000205C3800209E
:10410000942A0020FC2A0020B40F0020E014002094
:1041100015F094FE38B90F9A49461046904615F0AE
:1041200097FE00B9C846BAF1020F40F0A183A94B2F
:104130001B78012B02D0192B40F09A834FF001031A
:10414000A54938460F9315F097FE0F9B00B903461B
:10415000DBB23BB10D9B28F0004023F0004115F08D
:104160006DFE10B1069BC3F80080BAF1020F00F09B
:1041700099809A4A9A4B09991B68A0589847994A7E
:10418000994B01461B68A0589847079B804693F8B7
:104190003730002B00F07683944B1B88002B40F0C7
:1041A0007183934BE158934B186815F0A9FC4FF0BD
:1041B0007E51814615F04CFE08B94FF07E598E4B6A
:1041C0004846196815F09CFC0146304615F098FCED
:1041D000414615F08BFB894B8046E15815F086FB74
:1041E000874B196815F040FD844B064644F8038060
:1041F000079B93F84830002B4AD0824B1B78DA0794
:1042000040F142834FF07E510A9815F02BFEF8B131
:1042100095F83C31E3B97C4B26F00040196815F065
:104220002BFEA8B1794B27F00040196815F024FE49
:1042300070B1774BE058774B20F00040196815F0CB
:10424000FDFD28B1012385F83C31059BC5F84031BF
:1042500095F83C31E3B1059AD5F84031D31A6E4A4E
:104260001268934214DA694B27F00040196815F080
:10427000E5FD40B9664BE058664B20F000401968F8
:1042800015F0FAFD20B1002085F83C0109F0A4F9F1
:10429000624B0E98E15815F033FC314615F030FCB6
:1042A0005F4B185195F84C315E4F3BB9069B47F870
:1042B00004B0C3F800B05A4B44F803B0069B0AF1AF
:1042C000010A04330693089BBAF1030F03F10203BA
:1042D00008937FF4BAAD544C2278072A05D108F030
:1042E00003FE0B9BC01A514B58802378012B40F0E2
:1042F000D18208F0F9FD4E49D5F850314B4A096892
:10430000C31A93805B1A0590D380C5F85001494BBE
:10431000494CD3F80090494B99F82C801B6813F452
:10432000805F00F01983374BB5F856611B78304633
:10433000DB0758BF424BE4685CBF1B8BA5F85431C8
:1043400015F08AFB82460146204615F081FD0028C3
:1043500000F0A9823B4BD5F85C111868C5F86011D4
:10436000C5F86411C5F8580115F0C0FAFF23C5F867
:10437000680185F86C31204615F0C4FD2146A5F88A
:104380005401504615F0B2FAC5F87001D5F87441E1
:104390002146D5F8700115F067FC4FF07E510446B8
:1043A00015F056FD08B94FF07E540021204615F057
:1043B00059FD00B90024244EC5F8704131683868B1
:1043C00015F096FA164B196815F092FAB9F828B05C
:1043D0003CE000BF1C360020000096420C2B002061
:1043E000002B00205C2B0020042B0020F62F002047
:1043F00028100020B02A0020AC2A0020B010002095
:104400005C380020A42F0020F02A0020EC2A002095
:10441000B40F0020F42A0020E02A0020A02A002067
:10442000F8140020E0140020841700204C15002010
:10443000681700208017002080310020D81C002041
:10444000AC1C0020F0150020EC1400208246CBF1BB
:10445000000015F001FB0546584615F0F9FA29460B
:104460008346504615F0EAFC002840F093825946F6
:10447000504615F0EDFC00B9DA467E49504615F07D
:104480003FFB71680690786815F032FA7A4B5968EC
:1044900015F02EFA82460146284615F0EDFC30B99B
:1044A000514658465D4615F0D3FC00B95546714952
:1044B000284615F025FBB1680790B86815F018FA82
:1044C000B9F82A700646784215F0C6FA0546014644
:1044D000304615F0B3FC40B9384615F0B9FA31460C
:1044E000054615F0B5FC00B935466249284615F079
:1044F00007FB624B06465B780BB900F10046B8F14A
:10450000000F25D05E4B5A7912B35E4A1578FDB183
:10451000187815F09DFA0746284615F09DFA0146D1
:10452000384615F0EDFA584B0546188815F090FA04
:104530000146284615F098FB5449054615F088FCBD
:1045400000B9524D4FF07E51284615F08BFC08B94A
:104550004FF07E554FF000084FF0000AC1464C4B1B
:104560004C4F93F800B0DA45C0F2348241464846D9
:1045700015F0BCF9484D4FF07E51C5F82C010646A8
:1045800015F07AFC002800F05F8231464FF07E5033
:1045900015F06AFB0024074610AEA34500F34B82DA
:1045A00012F098FB18B14FF07C53C5F8703195F9B3
:1045B0006C0115F051FAD5F8703182460693D5F8A2
:1045C0006831D5F858010793D5F864310893334B17
:1045D000DB780B9315F070FC8046D5F8600115F080
:1045E0006BFC2F4B81461E680025304615F064FC9D
:1045F00007462C4B1B6803F0100203F480530D9305
:10460000294B0C92B3F90630284A0993284B1478A9
:104610005B8B04F001040A935D45C0F0398224B934
:10462000244B254AA34500F373821B4CD4F808326F
:104630000BB111F0EDF894F80C320BB10FF092F8C9
:104640001E4B1B78072B05D108F04EFC059BC01AAA
:104650001B4BD88001232370FEF7E2BD0123FFF737
:10466000C8BB00230B93FFF7CDBB3946404615F07E
:104670003DF912E46F12833AF81400208C170020E1
:10468000FE2F00207E3100206A310020713DAA3FBC
:1046900054150020F41000206C0F00201030002072
:1046A000842A0020D81C0020CC2F0020A42F00201A
:1046B000AC1C00205815002014290020841700206D
:1046C0004C150020D5F8BC80D5F8C070414638465E
:1046D00015F0C8FB00B94746AF4BB3F90000B3F97A
:1046E00002300028B8BF4042002BB8BF5B4298425E
:1046F000B8BF184615F0B0F9A84915F001FAA84B53
:1047000081461B78002B55D0A64B59461B6818468E
:10471000099315F0B1FB002800F08680A24B5946A2
:10472000D3F80080404615F0A7FB00287CD007F1A5
:1047300000409E4915F0E4F9099915F095FA4FF0FB
:104740007E5115F0D5F849460746404615F0CEF89B
:10475000414615F089FA4FF07E51804615F078FBFE
:1047600008B94FF07E585946404615F07BFB00B91A
:10477000D8463946404615F0C3F94FF07E510746FA
:1047800015F066FB08B94FF07E575946384615F0CC
:1047900069FB00B95F46864B0D98196815F0B0F9B2
:1047A0000146384615F0ACF90146304615F0A0F840
:1047B000FFF7B5BB7F4B8049D3F80080404615F02A
:1047C0003DFB68B341464FF07E5015F08FF87B49B2
:1047D00015F096F949460990794815F087F8099B34
:1047E0000146184615F08CF9414615F081F86D4BDD
:1047F000196815F085F980465946404615F028FBA2
:1048000090B94146694815F02FFA07F10047014673
:10481000384615F075F94FF07E5115F069F8ACE7A0
:10482000604BD3F80080E7E75846A6E7654B1B6866
:1048300099077FF5A8AB089BB3F90000564B33F9F5
:104840001A30C01A15F008F95F4B0646534918682C
:1048500015F056F90146304615F052F90999064609
:1048600015F044F80746FFF78EBB4F46FFF78BBBAA
:104870004FF001034FF07E51D5F82C010F9315F046
:10488000F1FA62E45946A0E495F83C31002B3FF47C
:10489000FFACF8E4072B03D108F026FB059036E5C2
:1048A0000023059333E5B5F8780115F0D5F8824675
:1048B0000146204615F0D6FAF0B1D5F87C11D5F8AE
:1048C000D000C5F85811C5F86411C5F8600115F09D
:1048D0000DF80123C5F8680185F86C31204615F004
:1048E00011FB5146A5F85401204614F0FFFFC5F80E
:1048F0007001D5F880414BE5B5F85431B34217D873
:10490000262012F0A7F998B9304BD5F85C11186839
:10491000C5F86011C5F85801C5F8641114F0E6FF38
:10492000FF23C5F8680185F86C31C5F870B12DE535
:10493000D5F87C11D5F8D000C5F85811C5F860013C
:10494000C5F8641114F0D2FF0123C5F8680185F899
:104950006C31C5F870B1CCE71D4B588B15F07CF865
:104960000146E06814F0C2FF184BC5F870011968E1
:10497000D5F8D000C5F85811C5F86001C5F8641124
:1049800014F0B4FF0123D5F88441C5F8680185F817
:104990006C31FDE4AA4670E51E360020CDCCCC3D3E
:1049A000C02A0020BC2A0020C42A00200000C842DF
:1049B000B82A0020C82A0020AE47813F610BB63BD1
:1049C0000000344388170020B42A0020F01500208E
:1049D000AC1C00207968069815F092F8B968089028
:1049E000079815F08DF8089A0146104614F080FFDC
:1049F000F9680890304615F083F8089A0146104689
:104A000014F076FF294615F07BF84946089015F01A
:104A100033FA089A68B91146404615F019FA089A0F
:104A200000B9904610AB43F82A2010370AF1010A6A
:104A300099E59146F6E756F82400394615F060F8F6
:104A400046F824000134A8E512F044F938B94FF0D3
:104A50007C51204615F010FA00283FF4A8AD4FF025
:104A60007C51304615F04CF806460146204615F0BC
:104A7000E5F950B931464FF07E5014F037FF21462A
:104A8000064615F0E5F900B92646C5F870618EE5D1
:104A90002D4A2B019958069815F032F810AB53F8AF
:104AA00025100E90504615F02BF80E9B0146184627
:104AB00014F01EFF079915F023F8089914F018FF59
:104AC0000B9BFBB115F0F8F9B84203DB4845A8BFD2
:104AD000484600E0384614F0BFFF0C9A034662B126
:104AE0005CB10D9A4AB90E9012F0F4F80E9B20B901
:104AF000099A0A998A42B8BF3346144A42F82530C7
:104B0000013589E515F0D8F94045DFDA4046E2E79E
:104B100052F8241043F82410013483E515F02CFEDC
:104B200000283EF4BAAA0A4B1A680A4B1A600A23F4
:104B3000FEF77CBA084B094A1B6803F59C530833FF
:104B4000C2F80431FEF79CBFF41000205815002075
:104B5000A8170020C4150020B43100206C0F0020DD
:104B60002DE9F04FB64A97B013780192002B00F070
:104B7000B780B44B186800286DD00BF0C8FCDFF884
:104B8000F8A2B14DDAF8000008F097FC002862D0D6
:104B9000DAF8000008F08EFC0928AC4C01D03F2860
:104BA00050D14FF00008C14646462768DFF8ACB246
:104BB00008EB0B0347B13A4658F80B102846009310
:104BC00013F07EFE009B08B976B3994608F10808F9
:104BD000B8F58C7FECD196B1D6F800E0D9F800C0DA
:104BE00023681EF803001CF80310814207D15A1CE9
:104BF000E9B97D2B1BD820202260E854A9542368F2
:104C00000BB14E4508D0924811F0EFFF4E4511D937
:104C1000904811F0EAFF002723689F42B2D2E85D76
:104C200006F0AEFF0137F7E71E469946CEE7E85497
:104C30002260D5E756F8080B11F0D7FF092006F0DF
:104C40009FFFE3E72368002B41F09B82042805D1F6
:104C50007D480EF032F917B0BDE8F08F0C2841F016
:104C6000B3827D4811F0C1FF7A4811F0BEFF89E799
:104C700001220B4601F097BA591E685C2028F7D034
:104C800002B123600026754FEE54F159284606EB19
:104C900007080EF043FB38B90836B6F58C7FF4D11F
:104CA0006F4811F0A2FF05E06E4B9845F8D2D8F896
:104CB00004309847002301F07ABA7F2B3FF662AFA9
:104CC000A0F12002D2B25E2A3FF65CAF13B92028D1
:104CD0003FF458AF5A1C2260E85406F051FF51E7E8
:104CE0009846614F614D3A7802F00102009255F802
:104CF0000A3C002B41F0CA8108F10108B8F1030F0A
:104D000005F1CC05F3D1A6E7012B05D14D280CBF49
:104D10000223002301F0D0B9022B57D100233C28F5
:104D200005F8023C4DD03E284AD015F802ECBEF101
:104D3000060F41F0AC8115F8014C002C41F0858143
:104D40004FF001094A4B05AE0FCB86E80F0015F86E
:104D5000053C15F803AC2B440A93BAF1440F0FFA43
:104D60008AF30995ADF82C30ADF82E408DF83090CF
:104D7000ADF81C3001F0598100F21181BAF1050F34
:104D800000F0538200F2C980BAF1020F00F0938163
:104D900000F2AB80CA4500F083813146504601F0F5
:104DA0002BFA0446002840F07981BAF1740F00F024
:104DB000C882BAF1770F00F055836FF00109CEE297
:104DC000012305F8013C032301F076B9032B0BD135
:104DD0000023C0289FBF05F8063C05F8050C05F820
:104DE000040C042301F068B9042B09D115F8043C24
:104DF00005F8030C5E4005F8046C052301F05CB96E
:104E0000052B92D115F8061C15F8053C15F8042C55
:104E10008B420CD94B1C05F8063CCC23424005F8CC
:104E2000042C144A03FB08230B4498727DE782424A
:104E300002D1062301F040B9002301F03DB900BFC3
:104E4000802A002034290020FC2900207C2A002010
:104E50006CCC010871CC010876CC010884C3010830
:104E600081CC01089CC40108A42F0020E20B002083
:104E700084AA0108D80B002038290020009B002BB1
:104E800041F00581232824D10123019955F80A2CEA
:104E90000B708C4B8C491A608C4B8D481A609A6051
:104EA0009DF8002059605A7340221A73894A0433CE
:104EB0001360894B894ADB78003318BF01231370D4
:104EC00011F0C2FE864811F090FE4FF4006006F02B
:104ED00015FB844B93F82230B3427FF426AF824B0C
:104EE000824A1A60824BDC601FE7BAF1030F00F0C0
:104EF0001B81BAF1040F7FF450AF002404227D49D6
:104F000030460BF047FD7C4B304619780BF060FDC6
:104F1000059B5A1C05921C70CAE0BAF1240F00F0E0
:104F2000C2811FD8BAF1200F7FF437AFDFF8E0A1BC
:104F3000724B9AF80120D91C1A709AF8002005913A
:104F40005A709AF80220BAF808109A7030460BF09E
:104F50003FFD059B9AF80520591C05911A709AF897
:104F6000062083E0BAF1280F00F0CF81BAF1380FA4
:104F70007FF413AF0522614B4FF001095A700A22EA
:104F800000249A705E4A83F800901178DC701971E1
:104F9000517892785971D91D05919A71CBE0BAF187
:104FA000810F00F0848130D8BAF1540F00F0C28133
:104FB00008D8BAF1520F7FF4F0AE504B5A1C05924C
:104FC0001C70B8E0BAF16E0F00F03C81BAF1800FAE
:104FD0007FF4E3AE00210A264A4B4B4C1B780B3B77
:104FE000DBB299425ADA22880598FF2AA8BFFF222D
:104FF00000F1010ECDF814E006700598013100F1C2
:10500000010ECDF814E00270EBE7BAF1A00F00F04A
:105010003A8130D8BAF1820F7FF4BFAE3B4B3046B5
:105020001A78364BDFF8F8A0591C1A70384B0591E6
:1050300019890BF0CDFC374B059A1B88511CFF2BAF
:10504000A8BFFF2305911370DAF80810304681F3EA
:10505000100189B20BF0BCFCDAF80010304601F305
:105060000F0189B20BF0B4FC2B4B1A78059B591C2D
:1050700005911A705FE0BAF1B80F00F01681BAF12D
:10508000FE0F7FF48AAE0024DFF8989039F81410F0
:10509000304601340BF09CFC042CF7D1002407E0CF
:1050A000164BDA1C059225221C7083F801A09A7019
:1050B0004FF001093FE00422184930460BF06AFC2A
:1050C00039E000BF3829002003D50008B4110020C2
:1050D000A1CC010834290020AC170020340F002097
:1050E00071CC0108AA1F0020F04F0020EFBEADDEFA
:1050F00000ED00E0B1170020080A0020583C002015
:105100004010002054150020D40E00207E310020D5
:10511000FE2F00206A310020F92F0020A7CC0108C3
:10512000781500204C1500200222BD4B1A705A70D1
:10513000DA1C05929C70ADF81E90B9F1000F66D094
:10514000059B55F80A0C0693B54B059303681B6A3B
:1051500003B19847059B069EF61A00230E9324235D
:105160008DF834304D238DF83530BDF91E30FF2ECB
:105170003246A8BFFF22013300F05A879DF8203045
:10518000002B14BF3C233E23FE2ECCBF4FF007095B
:105190004FF005098DF83630BDF81C308DF83720FA
:1051A0008DF838304A46C8BF33120DA955F80A0C9D
:1051B000C4BF8DF83A308DF8396008F084F90DAB32
:1051C000994400230DF13702914540F03487002EB9
:1051D0008DF813300EDD3246059955F80A0C08F0AB
:1051E00072F9059B9DF813201E449E4240F02887CB
:1051F0008DF8132055F80A0C01220DF1130108F067
:1052000062F955F80A0C03685B6A03B198470023FA
:1052100005F8023C002C3FF46FAD55F80A0C03F082
:10522000FBFC55F80A0CA04766E50B227D49304689
:105230000BF0B0FB08227C4930460BF0ABFB072299
:105240007A493AE77A4B764A1B88DFF80CA2FF2BA3
:10525000A8BFFF23511C0591DAF80810137081F3E1
:10526000100189B230460BF0B3FB724B30461988FF
:105270000BF0AEFBDAF8001001F30F0189B23046F3
:105280000BF0A6FB57E76C4B304619680BF08CFB14
:105290006A4B304619680BF087FB694B196830463A
:1052A0000BF082FB47E7674BF8E7674BF6E74FF0F9
:1052B0000A0A4FF6FF7B654B654A1B780B3B5FFA8A
:1052C00083F94C45BFF6EAAE116893685945A8BF0B
:1052D00059460598029321EAE171431C059389B26E
:1052E00080F800A0304603920BF072FB029B304620
:1052F0000AFB03F15945A8BF594621EAE17189B279
:105300000BF066FB0134039ADBE70A22444BDFF81B
:105310004CA19A70BAF800101A1D83F8009083F817
:1053200001E083F80390304605920BF051FBBAF888
:105330000210A4E73A4A134603F8024B059354704F
:10534000F9E6099B0A9A9A420FBF21465A1C099214
:105350001978404A304611F061FD4FF0010919F10A
:10536000020F40F06A83BAF1470F099B0A9A40F096
:10537000878009A8A2EB030A0BF0E6FABAF1050F41
:10538000814679D909A80BF0F5FA099B0A9A834658
:105390009A4202D009A80BF0F8FA059A069BDFF8AA
:1053A000C0A09B1A103BDAF808205B45CDF808B086
:1053B000A2EB0902B8BF1FFA83FB9345494630466A
:1053C00088BF1FFA82FB0BF0EFFA3CB95946304612
:1053D0000BF0FEFA059A511C05911470DAF80830AA
:1053E00009EB0B029A42059E88BFA3EB090B05F05F
:1053F00077FB5A463146484605F052FA059B03446E
:105400000593002C3FF44AAE0022029B83427FF7B3
:1054100045AE059B0130591C05911A70F5E700BF98
:10542000583C0020B9C70108B0C70108A0CC01084A
:105430006A310020F42F0020E8F7FF1FECF7FF1F70
:10544000F0F7FF1F401A0020501A002054150020CA
:10545000000F0020D56D01087815002044100020B1
:105460006C040020099B0A9A9A421DBF5A1C09929B
:1054700019782146B54A6DE701244FF0800B8CE77F
:10548000BAF1290FA2EB030437D0BAF1390F20D0BB
:10549000BAF1210F4AD15A1C09921A46AC4C12F8A3
:1054A000021B16A8099261705A782270DA1C40F823
:1054B000342D9B78A3700BF05DFA099B20815A1C58
:1054C00009921A4612F8021B617109925B78A37166
:1054D00023E05A1C09921A780A2A40F0F1859A1C96
:1054E000099259789B4A1170D91C09919978517089
:1054F000191D0991DB7893700FE05A1C16AC44F823
:10550000342D1B7820460A2B0AD10BF033FA924E29
:10551000308020460BF02EFA70804FF001098CE2AB
:105520000BF028FA20460BF025FAF6E7BAF15F0FE8
:1055300000F0568400F27981BAF1350F00F004834F
:1055400000F29080BAF12B0F00F0EB8420D8BAF172
:10555000230F00F0E18206D8BAF10B0F00F050855E
:105560004FF0FF3969E2BAF1250F00F0C884BAF1B3
:10557000270FF5D109A80BF0FDF9784C206009A898
:105580000BF0F8F9606009A80BF0F4F9A060C4E72B
:10559000BAF12F0F00F0F78457D8BAF12D0FDFD1F1
:1055A0005A1C16AC44F8342D1B786D4E20463372CD
:1055B0000BF0E0F9B08320460BF0DCF93083204695
:1055C0000BF0D8F9099B70835A1C09921B78F3746D
:1055D0000A9B9B1A032B07DD20460BF0CBF9B08406
:1055E00020460BF0C7F9F084099B0A9AD21A032AC5
:1055F0000DDD5A1C09921A4612F8021B2046B1779B
:1056000009925B7886F820300BF0B4F97084099B1E
:105610000A9AD21A052A0CDD5A1C09921B782046D8
:10562000F3720BF091F9099BF0605A1C09921B78F8
:105630003374099B0A9AD21A002A7FF76EAF5A1C5C
:1056400009921B7886F8213067E7BAF1310F00F034
:10565000B384BAF1330F83D15A1C09921A78404BA4
:105660005A755AE7BAF1480F00F045843ED8BAF1AE
:105670003C0F3FF452AF26D8BAF1370F7FF470AF2A
:105680000726B4FBF6F6C6EBC603E41A7FF468AF50
:10569000DFF8D4B0F6B2E3B2B3423FF43EAF4FF01E
:1056A000000A099B5A1C099293F900300BEBCA09B6
:1056B00099F902209A4200F044850AF1010ABAF1F0
:1056C000040FF3D14CE7BAF13E0F00F0D481BAF1E8
:1056D000410F7FF445AF00232149099A501C0990DE
:1056E00012785A540133082BF7D116E7BAF1510F4B
:1056F00000F0DE833AD8BAF14C0F00F02484BAF1FE
:105700004E0F7FF42DAF5A1C09921C78112C3FF6D6
:1057100027AF9A1C16A840F8342D5B78114E06F876
:1057200014300BF027F940F6CA039842A8BF184678
:1057300040F2EE239842B8BF18461923A0F2EE209B
:1057400090FBF3F006EB44046070E6E6C96D0108D7
:10575000FE2F00204010002044100020C00B00202D
:10576000AC1C0020A2280020AA1F0020BAF15B0F69
:1057700000F0DC82BAF15D0F7FF4F2AE5A1C16AC79
:1057800044F8342D1B78C64EDFF84C93204689F838
:105790000530D6F800A00BF0EDF8AAF8200020465E
:1057A000D6F800A00BF0E6F8099A0A9BAAF81E00AA
:1057B0009B1A072B17DD20460BF0DCF8A9F80A002E
:1057C00020460BF0D7F8A9F80C002046D6F800A028
:1057D0000BF0D0F8AAF822002046D6F800A00BF073
:1057E000C9F8AAF82400099A0A9B9B1A032B09DD21
:1057F00020460BF0BFF8A9F80E0020460BF0BAF8CF
:10580000A9F81000099B0A9AD21A002A05DD591C32
:10581000099132681B7882F8263009F0BBFB0AF048
:1058200047F930680DF0B6FE77E6BAF1D40F00F014
:10583000F9816FD8BAF1CA0F00F052813DD8BAF1A0
:10584000B70F00F0C28014D8BAF1610F7FF488AEB0
:105850005A1C09921A46934912F8020B0992C87011
:105860005978914A5171DA1C09929A788F4BDA7003
:1058700053E6BAF1B90F00F04D83BAF1C80F7FF4C7
:105880006FAEC4F34704122C3FF66AAE00260DF14A
:105890003409A642C0F2D4800023854A0DA99C4257
:1058A00040F0D5800021824A122B40F0D6804FF084
:1058B0000109804B83F80090BFE0BAF1CE0F00F0F1
:1058C000EC8210D8BAF1CC0F00F06081BAF1CD0FA4
:1058D0007FF446AE3B78D9073FF51FAE4FF4C87250
:1058E000754B1A8019E6BAF1D00F00F0CA82BAF1EE
:1058F000D20F7FF435AE5A1C0992187806065CD494
:105900003B78DC073FF509AE032828BF002009F0EB
:105910007FFA02E6BAF1DC0F00F0F68126D8BAF180
:10592000D90F00F0CE8114D8BAF1D60F7FF418AE9B
:105930000024624EDFF8A49133789C42BFF6EDADAF
:1059400009A80BF017F814F083F849F82400013483
:10595000F2E7BAF1DA0F00F0C281BAF1DB0F7FF49F
:10596000FFAD4F4B4E22564918684AE0BAF1EF0F8F
:1059700077D015D8BAF1DD0F00F03183BAF1DE0F20
:105980007FF4EEAD09A80AF0F5FF4E4C208209A87D
:105990000AF0F0FF608209A80AF0ECFFA082BCE5E3
:1059A000BAF1F20F00F06981BAF1FA0F7FF4D8ADC5
:1059B0003B78DB073FF5D4AD69E200F07F000328B8
:1059C00028BF002011F0EEF8A7E55A1C09921A46EC
:1059D00012F8029B0992DA1C587809929978B9F169
:1059E000000F11D101283FF698AD01293FF695AD82
:1059F00081423FF492AD4E22334B02FB013102FB58
:105A0000003011F037FA88E5B9F1010F7FF485AD68
:105A100001283FF682AD01293FF67FAD81423FF478
:105A20007CAD0C23294A584303FB01210B688418E1
:105A300083504B6863608B68A3600024FFF77BBBD7
:105A400009A80AF097FF29F81600013621E731F876
:105A5000130022F81300013321E722F81310013359
:105A600022E709A80AF086FF0E4CE08109A80AF097
:105A700081FFA08151E5591C09911946144811F87C
:105A8000024B847009915C78914244703FF445ADBB
:105A9000DA1C09929A780F4B83F854203DE500BF39
:105AA000801700204C1300204A31002050140020A1
:105AB000BA270020B8270020B0200020541500206D
:105AC00034C30108D8150020262D002048100020DE
:105AD0006C100020B4110020EA1C002014290020C2
