:020000040800F2
:1000000000500020ADA5010849A60108E1B3000891
:1000100049A6010849A6010849A6010800000000F8
:1000200000000000000000000000000049A60108D8
:1000300049A601080000000049A60108EFA1000838
:1000400049A6010849A6010849A6010849A60108D0
:1000500049A6010849A60108BBA50008C5A50008D6
:10006000C3A50008C1A50008BFA50008396B00089A
:10007000296B0008196B0008096B0008F96A000871
:10008000E56A0008D16A000849A6010849A60108E6
:1000900049A6010849A6010849A60108BDA500080E
:1000A00049A60108EDB1000849A60108DDB1000824
:1000B000D1B10008C1B10008B1B10008FB7100085E
:1000C00001720008F1710008F771000849A60108E3
:1000D00049A6010875A3000869A3000849A60108FC
:1000E000B9A5000849A6010849A6010800000000BA
:1000F0000000000000000000000000000000000000
:0C01000000000000000000005FF808F1A3
:100110002DE9F04F2E4B2F4D2F4AC5F8B8342F4BF9
:1001200000241A600123A1B01E2260212C4885F80A
:10013000C134C5F8BC4485F8C23415F013FC40B195
:10014000284B80221C60284B214628481C6018F050
:10015000BFFA28220021264818F0BAFA254A264874
:100160001388254C591C118003222821A5F8C83476
:1001700015F0F8FB00B34FF47A73204AC5F8CC347D
:100180000021A4F10803082015F051F9C5F8EC048A
:1001900090B11B4B03601B4A1B4B116899424FF0F7
:1001A000000337D1136062B6184B186813F05CFF78
:1001B000174B1B689847FEE7D5F8EC0420B114F004
:1001C00039FB0023C5F8EC34204614F069FBE2E764
:1001D000E382000824030020F99F00085830002023
:1001E000B02F00205C300020CC2F0020D42F002026
:1001F000EC070020AC020020F40700207144010845
:1002000068CA0108F04F0020EFBEADDE00F0FF1F0E
:1002100004F0FF1F0A930B930C934FF4E013BB4CB5
:100220000D93236843F480332360A36943F01003E4
:10023000A361236803F400330B930A9B01330A93F1
:100240000B9B1BB90A9BB3F5A06FF2D1236813F483
:10025000003300F09A8202230C93AD4BAD4F1A6825
:1002600042F010021A601A6822F003021A601A683B
:1002700042F002021A6063686360636863606368E7
:1002800043F480636360A44B1A68043B22F070421D
:100290005A60A24A3A60626822F47C1262605A682C
:1002A00042F000425A60DA6822F40042DA609B6849
:1002B0001E0449BF9A4B4FF4E0133B604FF4801388
:1002C0000D930C9B012B00F07882022B05D10D9B26
:1002D0006268134343F480336360236843F08073A0
:1002E000236023689801FCD5636823F003036360EF
:1002F000636843F002036360636803F00C03082B38
:10030000FAD16368DFF86C8203F00C03042B00F071
:100310005882082B00F05782804BC8F80030636881
:10032000DFF85492C3F3031319F80320D8F8003010
:10033000DFF848B2D340C8F800307A4B4FF6FF726E
:10034000CBF80C30A3690DF1800A43F00103A361DF
:10035000636A636A744E43F080736362A3693046D4
:1003600043F01C03A361002315932AF82C2D51465A
:1003700014F0ADFA51466D4814F0A9FA51466C4894
:1003800014F0A5FA02214FF400728DF846101021E6
:10039000ADF844208DF847103046326111A914F0B1
:1003A00096FA644950464A6842F000724A6013F077
:1003B00047FD159B604A3046B3FBF2F34FF47A7267
:1003C000C5F8F034D8F800304FF0010CB3FBF2F36D
:1003D0005A4A013B5360F0238BF82330002393608B
:1003E0000723DFF89CE11360554A09F10E01002351
:1003F00031F8026F46FA03F818F0010F18BF0CFA33
:1004000003F803F101031EBF1060A2F80480083254
:10041000102BEFD100F580607045E8D13B683F4A72
:10042000934240F0E281012385F8F4340AF0BAFAED
:1004300018B90AF085FD0BF05FF80BF009F90522F9
:100440004049414818F09CFB18B10AF079FD0BF0C7
:1004500053F895F8F5343D4F43F0010385F8F53432
:100460003B4B07F1050A9A783A4B1A703A4B3B4AD4
:100470001B689046136095F8FA3485F8F63400232B
:10048000D85D4FEA830B5E1C002800F0B481039313
:1004900009F0F4FF039B4AF8230010B10523C6714D
:1004A000837112215AF80B000AF00EF8032E33461E
:1004B000E6D1002108460AF069F8002101200AF07F
:1004C00065F8002102200AF061F8012102200AF0FB
:1004D0005DF8A369002143F00103A3614022204895
:1004E00018F0F6F84FF0FF331E4AC5F8483564207F
:1004F000C2F803300AF06AFFA02200211A4818F05F
:10050000E7F80024194D1A4E3CE000BF00100240ED
:1005100000200240980200200410014000127A00DE
:10052000001BB7000005FA0500080140000C01405F
:10053000001001400000014040420F0010E000E0C8
:100540002C1600206ECA0108151600201B0800207A
:1005500010160020A81500205C180020A0300020F4
:100560002C0800206C080020B838002054C801086E
:10057000B0AA01083400002098AA010800ED00E0AC
:10058000001401400023605956F83310DA00884205
:1005900040F0348109EB0203187F103414F088FE18
:1005A000E02CEFD1AB4AAC4C0021A4469146AB4EB7
:1005B00000250B5D01F10F00204406EB030A10F843
:1005C00001EFBEF1000F05D09AF80C70774508BF17
:1005D00082F8587090F803E0BEF1000F04D0F75C89
:1005E000774508BF82F859700135032DE7D1B2F87D
:1005F000580040B10CEB010009EB83035065C3F8D0
:10060000502502F517721C313829D1D10424914F9D
:10061000202200219248D8F8005087F85C4518F055
:1006200057F800208D4B024693F80BE093F80AC070
:100630004FF0FF092346039789498A4F05F040068A
:10064000D4571E2C8C7140F0DF80002E00F0E48027
:10065000BCF1000F00F0E0800132042A01F1080132
:10066000EED110B1039A82F85C357F4B15F4805FB0
:1006700093F800A07D4BDFF8449283F800A07C4FF4
:100680007C4C7D4E00F0CE80B88819F041FB7B4B4E
:10069000C9F800002360708A19F03AFB784B794C56
:1006A0001860788819F034FB774B0025186038887B
:1006B00019F02EFB754B1860608BC0F5FA6019F0CD
:1006C0002BFB734B248B1860FB88724AE01A1C4486
:1006D000714BA4B280B210801C80A0F57A7019F022
:1006E0001BFB6E4B1860C4F5FA6019F015FB6C4BE0
:1006F0006C4C1860AAF11703022B257000F2E280FF
:100700004FF0000BDFF8B8A105EB0A03594655F886
:100710000A00049319F0E8FC049B002800F08C8088
:10072000D8F8003013F4805A40F0ED800023D9F857
:1007300000105D4A42F823100133082BFAD1B6F8B5
:100740001480BAF1000F01D0B7F80480B378042BFD
:1007500005D14FF480500AF01DF94FF000082378BE
:10076000C02200215148069317F0B2FF3779B378C1
:10077000003718BF0127042B00F2EA80DFE813F0EE
:100780002606E8002806F4001F06226842F001024F
:1007900022600A93236803F002030B930A9B013340
:1007A0000A930B9B1BB90A9BB3F5A06FF2D1236888
:1007B0009F0701D501234FE5FEE7636843F460130B
:1007C0008AE53B68A9E563686268C3F38343D103A4
:1007D00003F1020302D4364A53439EE5626812F4E1
:1007E000003F3A6818BF5208F6E7324A93427FF456
:1007F0001DAE022318E64AF8230057E60133042B06
:100800007FF4C2AE0020C8E61F2C7FF425AF1EB1D6
:10081000BEF1000F7FF420AF013B81F80690DBB200
:10082000012019E7B08A19F073FAC9F80000308A7C
:1008300019F06EFA20602EE71F4A05EB020E0FCB6F
:100840008EE80F00237810350133802D23707FF45C
:100850005BAF65E724030020D0AA0108001F002039
:10086000802B002008AB0108B015002014340020B4
:10087000183A002014140020FC13002000007A44D1
:10088000480E002074300020F40E0020D40E00200A
:10089000FC0E0020CE0E0020F00E0020EC0E0020FA
:1008A000F80E00207813002090220020B8220020AB
:1008B00000093D00001BB700000F002000240020AD
:1008C00058170020244B13F83A2003EBCA0A082AD1
:1008D000227088BF0822DAF804C088BF2270BCF1F9
:1008E000000F3FF41DAF0025DFF878A023789D426C
:1008F000BFF616AF2B0103EB0A0E63440FCB013595
:100900008EE80F00F2E72378012B7FF60FAF4FF050
:100910007C58124D05EB031303F1100B1035AB455A
:100920003FF404AF414655F80C0C19F049FA414622
:1009300045F80C0C55F8100C19F042FA414645F8F0
:10094000100C55F8080C19F03BFA45F8080CE5E7CF
:10095000034CA1460BE000BFA0B10108040F00202A
:100960006F120339000F0020B94CDFF83893B94AF1
:10097000B94B21461A60B94AB94B4846002F18BFF7
:100980001346B84A0025136019F012F901464FF0DA
:100990007A5019F0C9FAB4490590204619F010FAB6
:1009A000B24CDFF804B30790069BAB4240F370856E
:1009B00005EB0B035E79002130460AF0DFFB049063
:1009C000002840F00885AA4AA34B1A60A34AA54B09
:1009D0001A60A84CA84A94F8F534079243F004032F
:1009E00084F8F534136813F0010600F074850025CF
:1009F000FF2294F85D75A14B2946384683F8405094
:100A00001D605D609D60DD6383F8412083F84220B6
:100A100083F8435083F8445083F845500AF0AEFB06
:100A2000064690B3036891496A18507C18B1526821
:100A3000934200F045851835C02DF5D10025C4F846
:100A40006C6584F86055384609F018FD10B1022332
:100A5000C571837100252A2109F036FD884A0021DD
:100A600030460AF0DFFB874B874AC4F87035874B66
:100A7000111F3046C4F87435C4F878550AF026FCC6
:100A80002A467179306810F08BFAB4F84E7694F8F3
:100A90004A66A4F850763046002F40F06A8509F087
:100AA000EDFC94F84B26C4F85406003218BF01221E
:100AB00084F8582650B1252294F84C368271002BC8
:100AC000C7710CBF1221162109F0FEFC002009F0AD
:100AD00031FD4FF000096E4B0020C4F8783605F068
:100AE000D9FF012005F0D6FF6A4B6B4803F12008BF
:100AF00053F8056C6EB313F9092CA11891F87C76A4
:100B000091F87EE691F880C600EB0215991E11F867
:100B100001AFBA4591F802A008BF2F71F24591F8D4
:100B200004A008BF85F805E0E24508BF85F806C0C7
:100B30008B42ECD1120181180D7955B14D7945B137
:100B40008D7935B186505A7981F80C90CA719A79AD
:100B50000A7210339845CBD14F4D14F059FC14F064
:100B600057FC287E14F0A4FB01232A7E02F01F010B
:100B70005209022A03FA01F300F02885032A00F043
:100B80002B85287D09F07AFC064618B11223837163
:100B90000223C371687D09F071FC18B113238371BE
:100BA0000223C371A87D09F069FC18B11423837175
:100BB0000223C3711B21304609F086FC687D09F0D1
:100BC0005DFC072109F080FCA87D09F057FC1B2182
:100BD00009F07AFC2A69314B9A4240F0038503F50B
:100BE0006043D96841F48051D960D96821F48051BB
:100BF000D9602B7F002B00F0128500231846118846
:100C000001F4415141F4457101430B431380938B2F
:100C100023F400631B041B0C9383072313821388A4
:100C20009BB243F04003138094F8F434032B40D17B
:100C30001F200BF0C8FE0023194A02EBC30191F9F3
:100C40000210022901F0F3830133042BF5D12DE0CA
:100C5000ACC5A737916C01083C250020116C010838
:100C6000BD6C0108402500206F12833AB822002095
:100C7000136C010824030020A030002070380020ED
:100C800040420F00A56A010898080020E16B0108A6
:100C9000001F002015AB0108541200200030014055
:100CA0005A2B0020ACC5A736FC13002002200BF005
:100CB0008AFE09F01CFD012005F046FF2C2009F0FA
:100CC000DDFB039BC3F884069F238DF8443000238B
:100CD00032208DF845308DF846308DF847300AF0D7
:100CE00075FB039BD3F8840609F010FC15AA0423B6
:100CF00011A9BC4809F088FC039BD3F8840609F0CD
:100D00000AFC9DF856309DF855201B0243EA024329
:100D10009DF857201343B44A934223D032200AF05F
:100D200055FB039BD3F8840609F0F0FBF521AD4891
:100D300009F098FCFF21AB4809F094FC039B8DF867
:100D40005400D3F8840609F0E6FB9DF85430702B6C
:100D500008D1039B93F8F434022B03D10323039AA5
:100D600082F8F434A14B5F799E797D1E6A4206F1C8
:100D7000FF3E6A41DEF1000343EB0E0384F88C363C
:100D8000079B84F888261D682B0400F14C8415F01D
:100D9000007505D0964BDD7AA5F108004542454126
:100DA00014220021934884F88A5617F091FC012FF1
:100DB00004BF94F8893684F890361DB194F88B36C8
:100DC00084F89F3694F88E361BB194F88F3684F8E9
:100DD0009A36012E08BF94F88D36864D08BF84F8E8
:100DE000953600232E464FF0070B1F469946DFF835
:100DF000248208F1940A3078E8B109F03FFB18B179
:100E000080F806B080F80790002109F05DFB002310
:100E100031781AF813005A00884240F0078408EB32
:100E2000020393F8953073700723337101237A1C02
:100E3000B770F370D7B20BF1010B5FFA8BFBBBF10C
:100E40000B0F06F10506D6D1002B00F0BB806A4ED1
:100E50004920736843F44043736014F029FA674AE9
:100E6000674900234FF01C0E104688460EFB032CEA
:100E7000DCF804C08C4540F0E083DBB21C2101FBB0
:100E80000303726919694FF000090A43726106226F
:100E900083F819901A765A4813F047F815A813F0FA
:100EA00019F8584B022F159334BF4B4680231A93E1
:100EB0004FF480731B934FF480631C9320231D9386
:100EC0004FF40053504E15A94D4818971E9316968F
:100ED000CDF85C90CDF86490CDF87C9013F007F8D5
:100EE000012F94BF00220122D8F80030474943F077
:100EF0000103C8F800304B684FF0070E23F470234D
:100F000023F4807343EA02234B608A68404B13400A
:100F100043F4602343F002038B60CA6A7B1E22F411
:100F20007002DBB242EA0353CB621F270123EA7847
:100F30004AB395F80180581CB8F1090FC0B295F872
:100F400004C040F28083A8F10A02D1F80C9002EBB1
:100F500042020EFA02FA29EA0A090CFA02F242EAFD
:100F60000902CA60062B00F27B8303F1FF3C4A6B47
:100F70000CEB8C0C07FA0CF322EA030308FA0CF2D0
:100F80001A434A6303460535AE42D0D11F4B9A68D7
:100F900042F480729A609A6842F001029A609A68FC
:100FA00042F008029A609A681107FCD49A6842F0ED
:100FB00004029A60154B9A685207FCD49A6842F46E
:100FC000A0029A60D4F8AC06002841F03B82D4F825
:100FD000B036002B41F03682D4F8B436002B41F005
:100FE000318219E000380040152020007E290020C1
:100FF00074300020B40900200010024038000020A6
:10100000080002404C240140C8090020002401408F
:10101000FDF7F1FF98AA01080CF0CEF830B90120D5
:1010200002210AF03DFA012016F074F894F8F53424
:1010300043F0020384F8F53409F0F2FEB24B18686D
:1010400015F038F8B14B1A88B14B1A80B14B5A6B76
:1010500099460AB10CF02AFDAF4BB0491B78B04C51
:10106000D80001444A78AF492260079A12681140BB
:1010700009B101222260002140F2DC55AA4A22F87F
:10108000115001310829FAD12268002A40F0058365
:1010900003F0EF02082AA54A40F044831178182B88
:1010A00041F01001117001D114F0DCFF2368A04D54
:1010B000002B40F04083AB89002B40F07683012168
:1010C000084609F063FA0021084609F05FFA00219A
:1010D000022009F05BFA0A24964D012009F0C0F9BC
:1010E000002009F0BDF919200AF070F92B68DF0320
:1010F00002D4012009F01EFA19200AF067F9002035
:1011000009F018FA013CE8D12146204609F03EFAE0
:101110002146012009F03AFA874B884D587A18F099
:10112000FBFD874918F04CFE864918F041FD07F099
:10113000E3FB854B15AF1860B9F8140018F0ECFD0F
:101140000146824818F0F0FEC5F8B80611F057FDC8
:101150000123159310237E4A16931368904613F4C7
:10116000800F04BF7B4A1592DE005EBF159A42F0E5
:1011700010021592784A1168880748BF159A774877
:1011800044BF42F0C60215924A0748BF159A039021
:1011900044BF42F008021592159A42F00061159181
:1011A000017801F0EF06082E01D00E2904D142F09B
:1011B000006242F480521592159ADE0354BF42F445
:1011C000005242F420421592159AD80443BF42F0CF
:1011D00064421592502242F044424CBF169215923E
:1011E0009A0642BF159A42F4807215925E0742BF7A
:1011F000159A42F400321592159A42F40020159087
:10120000580505D5564B1B7913B142F4C0121592FF
:101210004FF00109182902BF159B43F06073159325
:1012200021463846E6B207F0DAFC70B1304615F0D8
:1012300014FF50B9620957F8223006F01F0609FA68
:1012400006F623EA060647F822600134272CE7D188
:10125000DFF82CA197E803004FF419728AE8030025
:1012600000210AF1080017F033FA0BF0CBFD002241
:10127000DFF810E13B4BF4461A809A703A493B4B39
:101280003B4E3C4C3C481960DFF8FC90338BDFF858
:10129000FCB0C4F80490A06085F8282919B2049025
:1012A0000AF51C7ADBF800002EF8121000F5967093
:1012B0004AF822000132122AF4D1D8F80000C20400
:1012C00058BFB6F92410ACF806102C49DFF8B4C0AA
:1012D00001F1500E0A78002A5AD18A7891F803A0B9
:1012E000524555D2002A00F07082013A02EB820288
:1012F00002EB820202F5617291F801A092B20AF14A
:10130000040A2CF81A2043E0A4150020D411002070
:10131000E61100202813002014340020A0B1010899
:10132000800F002020001000D4130020D1110020D5
:10133000AE3400206C1800206C250020240300200F
:1013400035FA8E3CDB0FC93F84250020A889803AFE
:10135000A030002001000010AC150020B0150020C6
:10136000F02A002090290020A086010014220020ED
:1013700074300020643000206115010878180020C6
:10138000E00900204C29002065150108342B0020BD
:1013900004318E459ED1010740F13282307A0A280D
:1013A00000F22782DFE810F0220222029B04DC0414
:1013B000050528052805B5052502F80522020024A3
:1013C000A14601274FF00008FFF7D1BAC24CF7E75A
:1013D000C24CFFF7BEBA304609F050F86B1C606192
:1013E000DBB210B10322C37182711A2109F06CF8CB
:1013F000002F52D0BBF8000018F08EFC18F0E2FE6F
:10140000B74B4FF6FF7A1E68B6FBF0F353441B0C44
:10141000B6FBF3F60FB1B6FBF0FA9BF80230042BE3
:101420003FD1504618F074FCAB4918F0C9FCA060DD
:101430000990304618F06CFC494618F0C1FC099B35
:101440000890A849184618F0BBFC089A01461046B7
:1014500018F0ACFB9BF80330E0603246019304992E
:101460001FFA8AF3CDF80080204615F071FC0023A6
:1014700018229D49AB4219D1002383F00103237444
:1014800001231D44082D637404F118047FF48CAA11
:101490000122964B1A70FFF79CBA059815F08AFF47
:1014A000ACE7304618F034FC0799BEE702FB0310A6
:1014B00046686068864201D00133DBE70123DCE740
:1014C0001B8D874A9BB212680133B2FBF3F3884A43
:1014D0001370FFF7B3BA9A047FF5D7AA94F8482699
:1014E000844B04F5AE651A7004F5C86816F80890C8
:1014F0000021484609F042FE074698B300224FF00B
:10150000010A5FFA86FB05F80FBC45F8040C05F8E4
:101510000E2C05F80D2C05F810AC484608F0AEFF6F
:10152000D3445FFA8BFB18B180F806A080F807B0AF
:101530004FF0000B2A2108F0C7FF6F4A0021384600
:1015400009F070FE6D4B2A1D2B606D4B2946384605
:101550006B60C5F808B009F0B9FE5A467979386869
:101560000FF01EFD0136082E05F11C05BED1FFF758
:101570008CBA08F083FF4021C4F870060546304657
:1015800009F0FCFD0646CDB1C0B12523AB710123A6
:101590001A21EB71284608F097FF0021A4F8747611
:1015A00001915849544A91FBF7F192FBF7F389B244
:1015B00000919BB23146544815F0CAFB0023D4F881
:1015C0005C26138084F86D36FFF783BA4F4AD168E2
:1015D0000B43D360FFF7D5BA4C4A11690B43136133
:1015E000FFF7CFBA4A4B9A420BD103F5EC33196996
:1015F00041F480411961196921F480411961FFF7B3
:10160000F8BA444B9A427FF4F4AA03F5EA33196915
:1016100041F400411961196921F40041EEE7012309
:101620000220FFF7ECBA0125FFF7BABB01330A2B02
:101630007FF4EFAB0023FFF7F6BB0133072B7FF4FA
:1016400015AC00231AE40A6908EB480A0EFA0AF9F5
:1016500022EA09090CFA0AF242EA09020A6181E463
:101660000C2B0DD8DA1FD1F830C002EB820207FA3A
:1016700002F32CEA030308FA02F21A430A6381E434
:101680000D3BCA6A03EB830307FA03FC22EA0C0250
:1016900008FA03F31343CB6274E41F4A1F4912F89C
:1016A00033E00244556881F800E0002D3FF4F0ACCF
:1016B00000221B4E7245BFF6EBACC2EBC2002918EC
:1016C000D1F800C0871940F806C088880132B88078
:1016D0008979B971EEE700BF6F12833A2829303853
:1016E0003400002000007A44B8220020840F00203B
:1016F000B4020020241F002040420F00356C010876
:101700007D6A010820A10700800900200010024026
:1017100000380040003C0040BCB00108AC34002060
:101720003C3400200E2B3FF4B9AC1178192B21F07A
:1017300010011170B7E400244FF0040B274EDFF8BE
:10174000A0A005F1030818F8017F002F3FF4B3AC07
:10175000384608F093FE013403467061E4B210B1DC
:1017600080F806B0C47100213846039309F006FDE5
:101770000746039B1A21184608F0A6FE002F3FF4E7
:101780009AAC00226B8801929AFBF3F32A889BB2F1
:1017900000923046124A394615F0DAFA0123082C35
:1017A000737406F11806CED185E400240D4F0E4E59
:1017B000A88918F0ADFA3A6801463019243407F0C8
:1017C000B3F9B4F5907FF3D179E40AF1010A0AEB99
:1017D0008A0A0AEB8A0A0AF561728DE558390020F7
:1017E00040420F008C150020C034002013F01BFF76
:1017F00030B9082009F0CEF8049BC4F80490A36027
:10180000D8F800104B040BD51223237044F6206344
:101810006380C24BC24A6360C24BA360C24B1A6072
:1018200042F20103194209D044F620638804638020
:1018300040F1D98308232370BC4B63604FF0000A4A
:1018400096F82830227804339342B94CB8BFDAB204
:10185000CB0385F8742984F800A040F1528113F07D
:101860000DFA01232370B34B40F22A3293F8F1B002
:101870005146B14816F02CFFBBF1000F00F0348147
:101880005146584609F07AFCAC4B026804461A608F
:1018900082689946002A00F02781584608F0EEFD3C
:1018A000C5F8780918B1292380F807A083711B2196
:1018B00008F00AFE0023A24AD9F8001002F1180E1F
:1018C0005EF833004FEAC30C814240F093836244D8
:1018D000107F13F0EDFCD9F800009A4A03884FF00E
:1018E000000A23F001031B041B0C0380964BDFF856
:1018F0007CE21B68ADF83EA0934281BF03F1B77252
:10190000924902F55852B2FBF1F292BF002202F165
:10191000FF3292B2511CB3FBF1F38D49ADF83AA0FE
:10192000B3FBF1F303219BB2B3FBF1F14FEA410C9E
:10193000AEF800C0DFF838E28DF840A0AEF8001035
:1019400020A921F8482DADF83C3013F01AFD602392
:10195000ADF846A0ADF848A0ADF84AA0ADF84CA04F
:10196000ADF850A0ADF84EA0ADF852A0ADF844309F
:10197000E3794FF0000B580757BF0122042303F00F
:101980000203ADF846204EBFADF848304FF48072E8
:10199000ADF84C304FF0000358BFADF85020ADF813
:1019A0004A3011AA6179D9F8000009F0F3FA617997
:1019B000D9F8000013F0B8FCD9F800206548B2F857
:1019C0004430DFF8B0A16FEA43436FEA53439BB260
:1019D000A2F8443013889BB243F080031380E3796C
:1019E000617913F0040F14BF042301238B40118C81
:1019F0009BB289B221EA03011184118C89B20B4395
:101A0000138413889BB243F0010313801C22217BB3
:101A1000514B02FB013143690A6913434361292396
:101A200081F819B00B7643691A4342614B4AC1F8F9
:101A300014B08A604A7B15A88DF8542001228DF8D5
:101A400056B08DF855208DF8572013F04FFCA06844
:101A5000CAF8000012F069FADAF80000026822F011
:101A600001021204120C026012F05FFA15A812F0C3
:101A700031FAD9F80020617934320A44159240F2E3
:101A80002A32189280221A922B4A15A916921022F5
:101A900017924FF400721B924FF40052DAF80000D4
:101AA000CDF864B0CDF870B01E92CDF87CB0CDF812
:101AB00074B012F01CFA6279D9F800100C2A8EBFAB
:101AC0005B461F4B03EB420B8A8998BFBBF8A830DB
:101AD00092B21343DAF800208B81136843F00203BB
:101AE000136001221E4B1A700023FF211C461D4863
:101AF0001A181C520433802B9170D170F8D113F056
:101B00002DF9D8F8003059056ED504200BF058F99E
:101B1000154B042118600BF049F92DE0DD15010883
:101B2000400D0300C515010814220020B515010859
:101B300027290020A0270020D82B0020082F0020D4
:101B400098AA0108FF6BDC0234000020006CDC0264
:101B500000350C0000100240380000204F640008DF
:101B6000022F002094280020202B0020D62B0020BC
:101B7000D42B0020042F0020BE4B187008200BF03F
:101B80001FF9BD4B082118600BF010F9BB4B2C223C
:101B900018700021BA4816F09BFD7C2385F87C392B
:101BA0008E2385F87D39E02385F87F397D23202039
:101BB00085F8A7390BF004F9B24B202118600BF01F
:101BC000F5F8B14B18704FF480500BF0F9F8AF4BAB
:101BD0004FF4805118600BF0E9F80022AC4B1870FC
:101BE000AC4B1A7012F064FBAB4C2288002A40F018
:101BF0003682AA4B95F8B809C5F8A839022385F8AA
:101C0000AC3995F8B939013B5BB2012BDEBFA44A70
:101C10001B01D258C5F8B029002800F0208208F036
:101C20002DFCC5F8B40918B11A2383710023C371C0
:101C3000132108F049FCD5F8A839986808F06BFC26
:101C400000BFD5F8A8390221586808F0BCFC4FF055
:101C500000089F2332208DF844308DF845808DF8A0
:101C600046808DF8478009F0B1FB8DF8558000BFA4
:101C7000D5F8A839986808F049FCD5F8A8093A467B
:101C800011A90423406808F0BFFCD5F8A83998686A
:101C900008F041FC00BF9DF856309DF855201B020E
:101CA00043EA02439DF8572013437E4A934200F0D3
:101CB0002D8300F31683A2F52102A2F5CC429342B4
:101CC00000F0248300F3BE81A2F51A42023A934247
:101CD00040F0C081202323804FF4807373E30A22F5
:101CE0001B0193FBF2F300226F49A3F5B06341F8A7
:101CF00022300132122AFAD142F6F82363806B4B6C
:101D0000402063606A4B2270A3600BF059F8824652
:101D100000283FF46EAD12F0B3FA737AB17A00285E
:101D20000CBF01220322002B14BF06230723002926
:101D30000CBF002108219AF902E082460B438DE88E
:101D40000C005C4B5C4A402170460AF085FEBAF1FB
:101D5000000F01D0594B1860003018BF012047E533
:101D60001023237042F6F8236380554B40206360B4
:101D7000544BA3600BF024F8824600283FF439ADA1
:101D800012F07EFAB37A00280CBF01220322002B46
:101D90000CBF00230823717A9AF902E0002918BFCA
:101DA00043F0010382468DE80C004FF4E133464ACC
:101DB000C9E70823237042F6F8236380434B402091
:101DC0006360434BA3600AF0FBFF824600283FF4A8
:101DD00010AD12F055FA737A00280CBF01220322CD
:101DE000003318BF01239AF902E08DE80C00824607
:101DF0004FF4E133374AA6E700234FF00C0E364A82
:101E000036491370364A062884F800E00B701370C8
:101E100074D01B22334B4FF4E13B1A700522324B36
:101E200083F800E0314B1A7042F6F8236380304BA0
:101E3000402063602F4BA3600AF0C2FF8246002857
:101E40003FF4D7AC12F01CFAB37A00280CBF012281
:101E50000322002B0CBF00230823717A9AF902E0B9
:101E6000002918BF43F0010382468DE80C005B4651
:101E7000214A68E7242B0020142B0020252B00206A
:101E8000A00C00202C2B0020272B00203C2B002016
:101E9000382B0020392B00209C020020D00C002081
:101EA000541200201720C20024200020D511010860
:101EB000F1110108A0860100D1180108AC30002002
:101EC0000D110108211101081D17010885100108D5
:101ED0009D100108D516010885210020C811002099
:101EE000842100204C1F0020701F0020862100202C
:101EF00091D00008A5D00008FD1501082122404B13
:101F0000DFF83CB11A703F4B83F800E03E4B18708D
:101F10008AE74FF0000B3D4B402083F800B00E23C2
:101F2000237044F620636380394B6360394BA360B0
:101F30000AF046FF00283FF45CACB0F800A0364B36
:101F40000AF4825A83F800B0737ABAF5825FB27AE3
:101F500014BF01210321B3EB0B0390F9020018BF5A
:101F60000123BAB9BAF5825F14BF5A460822134357
:101F70008DE80A00294A4FF4E13340210AF06CFD54
:101F8000BAF5825F7FF4E8AE0022254B1860254B3E
:101F90001A70E1E60822EAE70A221B0193FBF2F33A
:101FA00000222149A3F5B06341F822300132102A02
:101FB000FAD141F60B2363801C4B402063601C4B1D
:101FC0002270A3600AF0FCFE00283FF412AC03224A
:101FD000002390F9020040218DE80C00154B164AB1
:101FE0000AF03AFDB8E6CA077FF528AC0C23237047
:101FF000124B22E40133042B7FF462AC002068E42E
:102000004C1F0020701F002086210020CF210020BF
:10201000ED150108591B0108CD210020891901087F
:10202000DC2A0020E82A0020882000207113010803
:10203000F5130108A068060025190108A515010877
:1020400090D00300B24A934200F0BA81B14A934261
:1020500000F05A8100232380A3816360A360A568F8
:10206000B5B14FF00008ED0A0DF15409A8450ADAA0
:1020700008EB0504641010223946E00206F06AFEFF
:102080000F2800F3B58106F085FFA34BED021D601C
:102090000023A24AA24D1360A24AA34C1380A34A74
:1020A0001380A34A1380A34A13602A681F2A40F0B2
:1020B000A9814FF48063A04A238011889F4800299A
:1020C00040F0A981018092789D4B02B101221A70E3
:1020D000B4F900309B4A1B021360039B9A481B789B
:1020E0009A4C052B02BF4FF4C872994B1A800BF023
:1020F00039FCC822974B00211A80974AA4F8BE19D0
:102100001378A4F8C01943F0080313700423934A0A
:1021100084F8BC391370924A924B11706422197082
:102120005A705960904B19805980904B5A79984653
:10213000012A0BD1282204F6C41016F0C9FA4CF279
:1021400050328B4904F6C81006F0EEFC0021894B92
:1021500084F8EC1919605960996098F80630012BE1
:1021600009D11022844816F0B3FA4CF25032834958
:10217000834806F0D9FC834B834F1B68834A3B603E
:10218000834B80201B689B1A18BF0123814A137060
:1021900014F0C0FF002319467F481A181433B3F512
:1021A000A07F1161F9D1012105200AF091FB0121E5
:1021B00006200AF08DFB98F805A008201AF100010E
:1021C00018BF01210AF084FB98F80690092019F144
:1021D000000118BF01210AF07BFB98F80A30002BA0
:1021E00040F0BB8198F80B30002B40F0B681396885
:1021F000C1F38041BAF1000F03D1B9F1000F00D152
:1022000049460A200AF064FB644B1A68984612F0AB
:10221000010F07D0296800200AF088FB0121002067
:102220000AF056FBD8F800309A0708D50121084675
:102230000AF04EFB5A4B0120596B0AF077FBD8F895
:1022400000100220C1F340010AF042FB554B5649F1
:102250001B8C052091FBF3F10AF068FB01210320A0
:102260000AF036FB012104200AF032FB4F4B072015
:1022700019780AF02DFB01210B200AF029FBD8F870
:1022800000100C20C1F380010AF022FBD8F80030C6
:102290000D2013F0140F14BF012100210AF018FBC8
:1022A00039680E20C1F380210AF012FB3B685B0500
:1022B00008D5337A083B012B04D84FF4FA610E207D
:1022C0000AF034FB79880F2001F001010AF000FBCD
:1022D00094F8F53463F07F0384F8F53421B0BDE859
:1022E000F08F334A934211D004DC324A934208D033
:1022F000314AECE4314A934262D0013293427FF496
:10230000A9AE4FF40073E6E44023E4E48023E2E462
:1023100018BA20001620C200202F0020EC13002045
:1023200060330020F0130020E4130020F21300209B
:10233000F4130020E8130020102F0020E6130020E3
:10234000F6130020CC150020883100202403002043
:10235000301A00202E1A0020D111002079290020E7
:10236000FE2A0020880D0020EA2A00207E29002075
:10237000CDCCCC3D9C130020140D0020CDCCCC3E08
:10238000240D00205C180020A0300020136C0108F0
:102390003C250020840F00200C010020AC150020FB
:1023A000281300205A2B002040420F00B13000209B
:1023B0001740EF001920C2001540EF001840EF0051
:1023C0004FF480732380A381638822881B0263609B
:1023D0005343B3F1807FA360614D05D90123B7203A
:1023E00085F8BA3906F0FAFC012385F8BB3936E6E0
:1023F000002359F82320013220D10133042BF8D1D6
:10240000254633E63F2A16BF4FF4FA434FF40073D4
:10241000B3FBF2F34FE6B4F90030994204DD1F2B11
:1024200002DD012303804EE693FBF1F3FAE732F875
:102430003330002B7EF442ACFEF738BC04F10108C7
:102440002C46DDE70022474B00B21A7017F064FCFF
:10245000454917F0B5FC0746B4F9B00617F05CFC27
:10246000414917F0ADFC0646B4F9B40617F054FC28
:102470003D4917F0A5FC3D490546384617F098FB45
:1024800006F03AFA8146384606F036FA37490746EA
:10249000304617F08DFB06F02FFA8046304606F0E6
:1024A0002BFA32490646284617F082FB06F024FA3A
:1024B0008346284606F020FA49468246584617F0D9
:1024C0007FFC49460390504617F07AFC5946049029
:1024D000384617F075FC51460590384617F070FCE9
:1024E00041460690584617F06BFC214D5146286036
:1024F00008F1004017F064FC05996860AE60304652
:1025000017F05EFC049917F053FB0699E86030461B
:1025100017F056FC0146039817F048FB4146286126
:1025200007F1004017F04CFC03996861304617F042
:1025300047FC0146069817F039FB0499A86130461C
:1025400017F03EFC059917F033FB4946E861404619
:1025500017F036FC2862FEF75FBD01214AE600BF96
:10256000240300203000002035FA8E3CDB0FC93FE9
:10257000A41200202DE9F04FAE4B9BB01B680593D1
:10258000AD4B1B78012B05D1AC4AC1681180AC4919
:1025900009795180AB4C2278002A00F08186072B04
:1025A00040F0858307F028FD0B90A74F3B68079705
:1025B00013F4806F05D0A548836813B100F15C0166
:1025C0009847A34BA3491B68B1F906505A89089153
:1025D000954280F26F834FF07E53636094F90C3024
:1025E0004FF00009002B14BF01234FF0FF339A4A2C
:1025F00094F809B0168B94F808A0984F06930992A6
:10260000089B33F91980A8EB06000028D8BFA6EB79
:102610000800B0F5FA7F82F28B83B9F1020F02F065
:102620008D83824580F25983A0EB0A0017F074FB7A
:10263000B04547F82900C2F28F8309F10109B9F1C9
:10264000030FDDD1079B1F6817F4805700F0478305
:10265000B5F5FA6FA8BF4FF4FA65B5F57A7FB8BF44
:102660004FF47A75A5F57A75237C23B1637C5D43BD
:10267000642395FBF3F5642195FBF1F3784803F1AE
:10268000010E30F9132030F91E006FF0630E0EFBBF
:102690000355801A684390FBF1F0104400B217F024
:1026A0003BFB6E4D8046E860002F3FD01D2014F0AC
:1026B00019FCC0B16B4BDB78ABB96B49404617F0E6
:1026C00075FA17F059FD4FF47A7300B2000390FBCE
:1026D000F3F3C6F5FA6000B2584340F30F303044CC
:1026E00017F01AFBE860262014F0C2FBF0B15D4B36
:1026F000DB78DBB9262014F0F5FB5B49002800F0FD
:102700000283E86817F052FA17F036FD4FF47A7337
:1027100000B2000390FBF3F3C6F57A7000B25843A1
:1027200040F30F30304417F0F7FAE8604F4B1B8846
:102730005F0640F1AF819E0718BF00232A6808BFDB
:10274000AB68A2616A682362E261494A5368D2F8C1
:1027500000A00693474BD2F8088059680698079165
:10276000D1689A681F68D3F80C900992089117F005
:102770001FFA09990446079817F01AFA01462046ED
:1027800017F01EFB08990A90069817F00FFA09999E
:102790000446079817F00AFA0146204617F010FB86
:1027A00041468346504617F003FA494604463846E8
:1027B00017F0FCF90146204617F002FB4146064699
:1027C000504617F0F3F949460446384617F0F0F939
:1027D0000146204617F0F4FA05460146304617F048
:1027E000E7F90A9917F0E2F9594617F0DFF94FF0C7
:1027F0007C5117F0E5FA41460D90089817F0D6F98C
:1028000049460C90099817F0D1F90C9A01461046E8
:1028100017F0D6FA0D9B0146184617F0C9F9164C69
:1028200006992060504617F0C3F907990C90384676
:1028300024E000BF2C290020A815002070130020E0
:1028400020160020780D0020A0300020C830002085
:10285000203A00204C29002074300020002B00205A
:10286000243A00209029002000007A447629002094
:1028700000000020740200208402002017F098F964
:102880000C9B0146184617F09BFA31460C905846AF
:1028900017F08EF90A9917F08BF9294617F088F985
:1028A0004FF07C5117F08CFA0C9B0146184617F03C
:1028B0007DF9594660600A9817F078F906998346C1
:1028C000504617F073F949468246099817F070F997
:1028D0000146504617F074FA29468146584617F0CB
:1028E00065F9314617F064F94FF07C5117F068FA3A
:1028F0000146484617F05CF94146A060089817F079
:1029000057F907998046384617F050F90146404676
:1029100017F056FA31460746584617F047F9294648
:1029200017F046F94FF07C5117F04AFA0146384645
:1029300017F03EF910A9E060204610F021F9139A33
:10294000179B0792169A06930892AB4B129A9D69B1
:1029500009921A6ADC69114610460D930C9217F021
:1029600027F9DDF854A081460799504617F020F961
:1029700021468046204617F01BF90146404617F0D5
:102980001FFA09998046089817F010F9494617F080
:1029900017FA0146404617F00BF9109E149FDDF818
:1029A00064B080463946304617F002F9069917F0B0
:1029B000FDF8594617F0FAF8294617F001FA0146D2
:1029C000404617F0F5F839460A90304617F0EEF811
:1029D00007990646504617F0E9F8294682462846E8
:1029E000189FDDF8448017F0E3F80146504617F0D1
:1029F000E7F941468246384617F0DAF8494617F0BB
:102A0000DFF90146504617F0D3F859468146304663
:102A100017F0CCF8069917F0CBF8214617F0D0F94B
:102A20000146484617F0C4F809998146089817F0FE
:102A3000BFF8294617F0C4F941460546384617F055
:102A4000B5F8214617F0BCF90146284617F0B0F852
:102A5000014617F0ADF806990446304617F0A6F87F
:102A6000594617F0A5F80C9A114617F0A9F9014636
:102A7000204617F09DF80D9B0A9AC3F81C909A61A6
:102A800018625E4B1A605E4AC3F80490128894077D
:102A900008BF98605B4B584C1B6813F0140F1AD09A
:102AA000574B1B8803F40273ABB1574B534D1E7841
:102AB00016F0100600F0358194F82430A06A002B3F
:102AC0000CBF01234FF0FF33584317F025F9696815
:102AD00017F06EF868604D4D4D4F2B7CB3B14D4BE8
:102AE000B3F906207B8B9A4210DC4B4B1B78012BF1
:102AF00001D0192B02D1494A927B3AB90E2B05D04D
:102B0000082B1FBF00233D4A2365936094F856802D
:102B1000B8F1000F32D03A4B1B8899072ED0404BAA
:102B200040491E6A304617F0F3FA002840F04A8107
:102B3000304605F026FEA16D17F042F914F088FC2E
:102B4000B0F5617FA8BF4FF4617017F0E5F8364922
:102B500017F036F905F0D0FE0646404617F0DCF8CF
:102B6000314617F02DF914F073FC00B217F0D4F8C9
:102B7000224E0146F06817F01BF8F06094F85C9064
:102B8000B9F1000F00F08680284B04201B6EDE6830
:102B900044F620639E42A8BF1E46B6F57A7FB8BFB2
:102BA0004FF47A76B6B2A4F85E6014F09BF9204B2D
:102BB00010B91A68D2006DD54FF47A72B6FBF2F6EE
:102BC000642292FBF6F6142EA8BF1426DFF864B038
:102BD0001B680A48216EDBF8002013F4805FD0F8F0
:102BE0000CA014BFB2F83280B2F9328001F10102B8
:102BF00004EB410320E000BF780D0020002B0020F3
:102C000076290020AC150020D11100200000002002
:102C1000743000204C290020B0150020AE34002074
:102C2000442500208FC2753CD06D393A0C0100203C
:102C3000A0300020A41500202266504618BF4FEA9D
:102C400058080792069317F097FA079A069BB24224
:102C5000A4BF00222266226EA3F8640004EB4202A5
:102C6000B2F9640017F058F80146504616F09EFF7E
:102C700017F082FA00B20028B8BF4042404540F346
:102C8000A380DBF80030988E17F046F8504917F013
:102C900097F86861BD7F002D00F0C981022D00F01A
:102CA0009F80032D00F09C814A4B58889DE00023B3
:102CB0000B937AE4B5F5FA6F187ABFBFAB1A584395
:102CC000C2F5FA6290FBF2F0C0F1640017F024F84C
:102CD000414917F075F8606080E40020A6E4099B84
:102CE0005B8B9D420DDBB5F5FA6FA8BF4FF4FA651B
:102CF0004FF47A72ED1A5543C3F5FA63B5FBF3F559
:102D0000B2E41D46F4E7E86816F050FF17F034FA15
:102D10004FF47A7300B2000390FBF3F3C6F5FA6048
:102D2000FCE4E27A2D4BB4F92C10A07A62B3B3F92B
:102D30000620531A002BB8BF5B4283420EDD0123ED
:102D40008A42266384F83430C8BF404216F0E4FF5C
:102D50000146E86816F02CFFE860BCE694F83430D1
:102D60001BB1E36B84F83460A363A06A0844B0F538
:102D7000FA6FA8BF4FF4FA60B0F57A7FB8BF4FF48E
:102D80007A7016F0C9FFE7E7B3F906305B1A83EAF9
:102D9000E376A6EBE376864209DD022293FBF2F3AB
:102DA0002364012384F8443084F83430DDE794F858
:102DB0003430002BD9D0E36B84F84420A36384F82B
:102DC0003420D2E70020D0E64FF07E536B6161E7FC
:102DD0006F12833A643000200AD7233C4C2900202C
:102DE000B4F85E0000F57A7080B2FD7F0235EDB276
:102DF000B9F1000F00F00981002800F00681904B26
:102E000000261B688F4FB0FBF3F000B2A4F88C00D3
:102E100016F082FF01464FF07E5017F085F880468D
:102E2000DFF8289207F1100AAE42C0F2E180864B2B
:102E30001B78092B11D1854B854E186814F008FBBF
:102E4000844B30801B6ED8684FF47A7390FBF3F09C
:102E500016F062FF17F090F97080B4F98C30002BF7
:102E600040F3E88000267C4FDFF8E091A7F11008DE
:102E7000F3B29D4200F2CF8094F85C300793002BB0
:102E800040F0DA80002D00F08B80022D28BF022553
:102E9000089500254FF07E59704BDFF8F0811F68D0
:102EA000694B1B7809937B1D0A93089B9D4240F355
:102EB000EF80099B092B08D1694B654DB3F88C2035
:102EC000986CAA8017F058F9E880664B93F8215067
:102ED000002D5FD01E2014F005F800285AD0624B58
:102EE0001B88580656D45E4F604E97F8C830AB42E8
:102EF00013D087F8C850284616F00EFF5C4916F02C
:102F00005FFF5C49054616F053FE05F0F5FCB06125
:102F1000284605F0F1FCC7F8CC00D6F81880A56C5F
:102F20004146284616F04CFF276DD4F8CC60814608
:102F30003146384616F044FF0146484616F036FE44
:102F40004D49814617F0E4F808B9DFF82C914B4958
:102F5000484617F0E7F808B9DFF8209141463846AF
:102F6000C4F8489016F02CFF31460746284616F064
:102F700027FF0146384616F01BFE3F49054617F06D
:102F8000C7F800B93C4D3D49284617F0CBF800B9C9
:102F90003A4D2565079B1BB10022314B83F85C201D
:102FA000374B1B78002B40F06E81364EB278002AEA
:102FB00000F06981344C2378013B0D2B00F25181E4
:102FC000DFE813F006011A0140013A024F014F01F8
:102FD00054028002C105DE05EF050E061906220621
:102FE00097F82000C0EB401300EB8300C000FBE625
:102FF0005AF8261059F8260016F0D8FD414616F06A
:10300000DFFE47F8260001360EE7B4F88C30013BAE
:10301000A4F88C3021E757F8260058F8261016F04F
:10302000C7FD47F8260049F82600013620E7A4F836
:103030008C5021E700251FE70223089329E700BFF2
:103040008C150020080E0020A8150020002B002061
:10305000701300200C010020180E0020203A0020E0
:10306000780D002074300020762900200000002018
:1030700035FA8E3CDB0FC93F00C0F94400C0F9C4EB
:10308000FC230020102F0020F61300200AD7233C39
:10309000022D15BF3878787897F802B097F809B004
:1030A00016F03AFE414616F08BFE4FF08041064680
:1030B00017F042F860B14FF08041304616F076FDCF
:1030C000524916F07DFE0146304616F071FD064667
:1030D000AB0006934E4B4F4953F8250016F070FE97
:1030E00020F000434C4A0693069B42F825000C3220
:1030F000824642F82530BBF1000F1FD0584616F02B
:103100000BFE414616F05CFE83465146504616F0D3
:1031100057FE069916F054FE594616F051FE5946D0
:103120000C90484616F042FD0C9A0146104616F0E7
:103130003FFD0146504616F043FE82463749304671
:1031400016F03EFE514616F03BFE0A9B064613F86B
:10315000010B0A93F0B116F0DFFD414616F030FE88
:10316000069916F02DFE2E49824616F0E5FF58BB53
:103170000021504616F0C2FF40BB5146484616F0AB
:1031800015FD0146484616F0CFFE0146304616F0C2
:1031900017FE0646099B0C2B05D1304616F0ECFFB6
:1031A000204B23F815002049304616F0B1FF00B936
:1031B0001D4E1E49304616F0B5FF00B91B4E1C4B84
:1031C000AA00D650013570E64146DBE74946D9E70B
:1031D000184B1B78D90707D5802011F0D5F908B115
:1031E00009F022FC17F01EFB1F2013F07BFE0028C5
:1031F00037D00C23237034E000220F4B1A600F4BA2
:103200001A600F4A12685A600323F3E7D7A3684194
:10321000002B00206F12033B280E002000004843C3
:10322000A4707D3F7013002000C0F94400C0F9C4B1
:10323000C00D0020202900200C2F00208015002028
:10324000342B002011F0C4FE924D934B1A686B682A
:103250006433934205D2402011F092FE002800F022
:10326000C78011F0DDFE002800F0D58423780C3BE8
:10327000022B08D901232370884B93F8032112B144
:10328000002283F80321864B1B78072B05D106F01B
:10329000B3FE0B9BC01A834B988000227F4B1A70A1
:1032A0007F4E3378072B40F0048506F0A5FE08908A
:1032B000DFF8F8A1DAF80430504698475546002860
:1032C00076D00022BAF8C0408AF86120002C40F085
:1032D0009585DAF82420BAF93C30DFF8C0B19B1AA2
:1032E000CAF83030DAF82820BAF93E300AF1300056
:1032F0009B1ACAF83430DAF82C20BAF940309AF820
:1033000062109B1ACAF838300AF03CFB059BDBF8C8
:103310000801CBF80831181ADBF80C310344CBF85C
:103320000C31614B93F80080B8F1000F40F0088534
:1033300016F0F2FC4FF07C5116F042FD81460AF186
:103340002C070AF5A2760BF58E74C2460BF5887829
:1033500057F8040F16F0E0FC296A16F031FDD5F895
:103360004031014630469847D5F8B031014606F164
:1033700070009847D5F8C4300146D7F80401984743
:1033800054F82A103862834616F012FC494616F0AB
:1033900017FD58F82A1016F00BFC44F82AB048F82C
:1033A0002A000AF1010ABAF1030F06F12406CFD16F
:1033B0003E4A3F4B116D3A4C5960516D926D996088
:1033C000DA602278072A05D106F016FE089BC01A9B
:1033D000344B1880314A92F829311546002B00F001
:1033E000DB85013B82F8293100201BB0BDE8F08F5E
:1033F000DFF8C8804027C246DFF8C4902B6818F871
:10340000030068B111F08AFED9F80030013F03F1E2
:10341000FF33C9F800302B6803F101032B60EDD1B5
:103420002B681AF80330002B7FF41BAF2B604FF092
:10343000FF336B600423DDE611F0CAFD1D4A502105
:10344000A2F10C0301932623029200934920A2F1DA
:103450000A03163A0BF0D8FD00287FF402AF4FF0B4
:10346000FF320C4B18605A600723C3E611F0B0FD21
:10347000052300210093104B02910191A3F1080252
:1034800053200BF0C1FD00287FF4EBAE014B186018
:103490000823AFE680150020342B0020780D002093
:1034A000A815002070130020D3110020C830002080
:1034B00060330020C2AB01087CAD01085CAB0108A1
:1034C0000C2F002011F084FD914B924D186813F0E1
:1034D000BFFF8046D5F8D00013F0BAFF81464020E8
:1034E00011F04EFD294600287FF4BBAE8A4D8B4F6C
:1034F0002B6878784C2B01F20584DFE813F04D003F
:103500005300610068006C00700076008400880041
:103510008D00920097009E00A300AF00B900BE008E
:10352000C900CE00D300D800E000E800F000F800A9
:10353000000179018101890196019F01A801B10172
:10354000BA01C301CC01D501DE01E401ED01F401B2
:10355000FA01000206020C0213021A0221022702DB
:103560002D0234023B02410247024D025302570230
:103570005B02600265026A02700276028302E30265
:10358000E802ED02F202F702FD02020307030C0358
:10359000110316031B031F03614A624962480BF0C3
:1035A00029FA09E0614B5E4A0193614B614900933E
:1035B0006148624B0BF01EFA2B6801332B6050E61A
:1035C0005F4B604A604961480BF014FAF4E7604AC7
:1035D00054496048E3E7604A52496048DFE7604B7E
:1035E0006049B3F900206048D9E70BF02FFA328820
:1035F0005B494243B1F90010034692FBF1F25B488C
:10360000D2B25B49E0E7328856495A48C7E75A4B7D
:1036100054491A8A5948C2E7574B52495A8A58485E
:10362000BDE74FF07E5257495748B8E71FFA89F374
:103630001FFA88F255495648C6E7564B56499A8AAA
:103640005648ACE7564B1B68DA0404D591F8D420F1
:1036500054485149A3E70F232B60ADE75249534823
:103660008B784A780978009151490BF0C3F9A3E7A8
:10367000504B49491A88504891E74B4B9B79012B95
:103680009AD1B1F9D830B1F9DA204C483F499BE7DB
:103690004B4B34491A684B4881E74B4B31499A7878
:1036A0004A487CE74A4B2F491A784A4877E70C2367
:1036B00003FB0011484891F8DC202A496FE70C23EE
:1036C00003FB0011454891F8DE20264967E70C23EB
:1036D00003FB0011424891F8DD2022495FE70C23EB
:1036E00003FB00113F4891F8E5201E4957E70C23E2
:1036F00003FB00113C4891F8DF201A494FE70C23E7
:1037000003FB0011394891F8E020164947E700BF54
:1037100014140020780D00208015002010160020C1
:1037200073CA0108E9DB01087FCA0108B3CA0108AE
:10373000A8CF010893CA0108A1CA01088DCA0108CF
:10374000B8CA0108C1CA0108A4D30108CDCA01083A
:103750001C000020DBCA0108D7190020EECA0108AE
:10376000E413002011D00108F9CA01080ACB0108AE
:1037700004CB010815CB0108FC1300201DCB010868
:1037800029CB01085ED5010835CB01080CCC010816
:1037900040CB01082813002093D301084CCB01082B
:1037A000F813002053CB01087E29002067CB0108C5
:1037B0005ECB01081214002077CB01087FCB0108F3
:1037C000603300208DCB0108B230002096CB010879
:1037D00050360020A6CB0108B8CB0108C0CB0108A9
:1037E000C8CB0108D4CB0108E0CB0108E8CB010825
:1037F0000C2303FB0011864891F8E4208549CEE6AE
:103800000C2303FB00118448B1F8E6208149C6E689
:103810000C2303FB001191F8E23091F8E12091F8BC
:10382000E3107E4800917E491FE77E4B7E48196871
:103830004B780A7889780091794916E7794B7B486B
:1038400019680B79CA784979009175490DE7754B6C
:1038500077481968CB798A79097A0091704904E729
:10386000704B744819688B7A4A7AC97A00916C490E
:10387000FBE66C4B704819684B7B0A7B897B009197
:103880006749F2E6674B6D4819680B7CCA7B497C37
:1038900000916349E9E6634B69481968CB7C8A7CEF
:1038A000097D00915E49E0E65E4B664819688B7DB4
:1038B0004A7DC97D00915A49D7E65A4B55491B6844
:1038C00061481A7E6BE6574B604819680B7FCA7EC9
:1038D000497F00915249C8E6524B4E491B685C48EB
:1038E00093F826205BE64F4B4A491B6859481A8CCF
:1038F00055E64C4B47491B685748DA8B4FE6494B16
:1039000044491B6855485A8C49E6464B41491B6857
:1039100053489A8C43E6434B3E491B68514893F801
:1039200027203CE63F4B3B491B684F4893F82C202F
:1039300035E63C4B37491B684C4893F82D202EE662
:10394000384B34491B684A485A8E28E6354B314972
:103950001B6848489A8E22E6324B2E491B6846481F
:1039600093F836201BE62F4B2A491B68434893F8EF
:10397000372014E62B4B27491B6841481A8F0EE667
:10398000284B24491B683F485A8F08E6254B21499C
:103990001B683D481A8D02E6224B1E491B683B48B6
:1039A0005A8DFCE50A7A3A481A49F8E54A7A3948C4
:1039B0001849F4E5384B1749DA783848EFE5364BC3
:1039C00014491A793648EAE5334B12495A79354891
:1039D000E5E5314A3449D38934485289F4E52E4A21
:1039E0003149138A32489289EEE5324B188816F035
:1039F00093F9314916F0E4F916F0BEFB0549024689
:103A00002E48CCE52B4B0349DA782D48C7E500BF9B
:103A1000F1CB010811D00108FACB010812CC010842
:103A200009CC0108A415002018CC010820CC0108FD
:103A300029CC010830CC010837CC01083ECC010864
:103A400046CC01084ECC010857CC010850CC0108E7
:103A50005ECC010870CC01087DCC010888CC01083F
:103A600097CC0108AACC0108B7CC0108C5CC010845
:103A7000D6CC0108EDCC0108FFCC010819CD010816
:103A80002FCD01083DCD010847CD010854CD0108D7
:103A9000BBE5010865CD0108B230002072CD0108F8
:103AA0007BCD01088DCD01080CCC01089DCD01080E
:103AB000ABCD0108D41100200000C842BDCD0108E3
:103AC000C8CD01087D4B7E495A797E4867E57E4B1B
:103AD0007B49DA787D4862E591F800217C48784995
:103AE0005DE57C4B76499A7F7B4858E5794B744974
:103AF00093F82020794852E5764B71495A8C7848E2
:103B00004DE5744B6E491A7A764848E5764B6C4918
:103B10001A79764843E5744B69499A7874483EE5CA
:103B2000714B67491A88734839E56F4B6449DA89E4
:103B3000714834E5BA786249704830E5704B6049A5
:103B40001A6870482BE51A2013F0CCF9A0B16E4B1F
:103B50001B888BB96D4B10A91B680E201093059B19
:103B600011930AF0B5FF6A4B1A686A4B1A600A2370
:103B7000237005980AF0FAFF0AF07AFFFFF771BB8D
:103B8000654B1B78002BF4D01A2013F0ABF90028FA
:103B9000EFD1624B93F80331002BEAD10923237054
:103BA000EAE75F4B1A685F4B5B68C833934211D2F8
:103BB000B378032B0BD15C4D286808F01FFF00235E
:103BC0002B605A4B1B78022B01D109F01BF9012302
:103BD000FFF710BB16F04EFF0028E9D1FFF741BBFD
:103BE000012A01D105F014FA0D231320237009F0E6
:103BF00081F9FFF736BB012A04D105F073F80028DC
:103C00003FF42FAB0E23F0E71F2013F06BF90028D1
:103C10007FF427ABDBE7F378002B3FF434AB444B66
:103C20001D7815F0010508D1424BDFF810911F787F
:103C3000414BD3F80080BD421ADB394B374D1B682E
:103C4000D5F804219A4224D92378012B7FF41BABA9
:103C5000324C94F80321002A7FF415ABB378032B80
:103C600010D016F0DFFD012384F80331FFF70BBB02
:103C7000414659F8250016F037FA002801F04E8029
:103C80000135D8E7802010F07FFC00287FF4FBAAE4
:103C9000E7E72378012B3FF4F6AA95F80331002BD0
:103CA0003FF4F1AA0BF068FA002385F80331FFF71F
:103CB000EABA00230893FFF7FBBA00BFCA2A002024
:103CC00011D00108D5CD0108D8120020E3CD01089C
:103CD000F0CD01087430002006CE010817CE01088F
:103CE00031CE01084BCE0108FC1300205DCE010847
:103CF0006ECE010881CE010890CE0108A1CE010848
:103D00005C180020ACCE0108F0130020EC1300205A
:103D1000CC150020E8130020B2150020780D0020FB
:103D2000342B002080150020182F0020891500203A
:103D30002029002078130020002400209022002059
:103D400015F0EAFF4FF07C5116F03AF88B4F0AF16C
:103D50002C090AF5A2782546069054460BF5887A78
:103D60000BF58E7B337859F8040F172B04BF6219BB
:103D7000928F079308BF3A8015F0CEFF216A16F0A4
:103D80001FF8079B0146082B04D1079013F060FB36
:103D900007993880D4F8403140469847D4F8B0317C
:103DA000014608F17000984733780146032B04D18F
:103DB000079013F04DFB07993880D4F8C430D9F838
:103DC000040198475BF81510C9F82000079015F01A
:103DD000EFFE069915F0F4FF5AF8151015F0E8FEFD
:103DE000079B4AF815004BF815300235062D08F1EF
:103DF000240807F10207B5D1FFF7DABA604B554640
:103E00005B780AF1240709935E4B079219684FF417
:103E10007A73B3FBF1F3C3EB431103EB8103DB00D4
:103E20009BB20693337816460A93544BB3F9069027
:103E3000069B5B080B93069B9C4201BF00237B659E
:103E4000C5F894303B60504BF318B3F93C007B6DE0
:103E500003447B6515F060FFD5F8942002F101085A
:103E6000B8F1010FC5F894800AD10023012CC5F8E0
:103E70008800C5F88400C5F88C305CD1002034E09F
:103E8000D5F884A00D9251460C9015F08FFE834614
:103E9000404615F041FF0146584616F045F8514698
:103EA00015F086FE0C9B01468246C5F88800184630
:103EB00015F07CFE594615F083FFD5F88C1015F0EF
:103EC00077FE012C8346C5F89000C5F884A0C5F89C
:103ED0008C000D9A2FD1B8F1010FCFDD104615F0EF
:103EE0001BFF0146584616F01FF813F0E1FC0A9B31
:103EF0008046032B05D113F0ABFA01230FFA80F9AA
:103F00000793099B83B1184615F006FF414616F04A
:103F1000F5F848B1079B13B1184BA3F806901B485E
:103F200009F020FDFFF744BA0B9A7B6D1344069A03
:103F300093FBF2F33B600236062E07F1040705F10E
:103F400014057FF478AF079B13B10C4BA3F80690D0
:103F5000012C0BD10E4B93F8283123B10D4B1B884C
:103F600023F4806313B9012008F0C4FF064AB2F8B5
:103F7000C030013BA2F8C030FFF71ABA701300201E
:103F8000B230002060330020C8300020883100208B
:103F9000780D0020B4290020AC4B5B79002B00F099
:103FA0003984AB4B1B78013BDBB285F82931237890
:103FB000072B40F0328406F01FF80B90A54B4FF012
:103FC0007E501B6807936B680E93D5F82C31194609
:103FD0000A9315F0EBFDA04B196815F0F1FE4FF0B8
:103FE0007E510C9016F094F810B94FF07E530C935C
:103FF0004FF0000A4FF0000B984B994D0693994BE8
:104000000893994BDFF8B88253F82A70594638461E
:104010004FEA8A0458F82A6016F066F8E0B908F109
:10402000E80858F82A803046414615F0BFFD814621
:1040300020F00041384616F061F858B1594648461C
:1040400016F07AF8002800F0EC834146384615F067
:10405000AFFD0646854BE650854B1B8809939B07B1
:104060003AD0BAF1020F37D0079B93F82E80404622
:1040700015F052FE7F4BE15815F0A2FE8146C8F1C3
:10408000000015F049FE07460146484616F036F88E
:1040900040B9404615F03CFE4946074616F038F850
:1040A00000B94F46744B33F91A00089BB3F900303E
:1040B000C01A15F031FE714915F082FE01463846EE
:1040C00015F074FD099B0D90DF0740F1D7836C4B11
:1040D000196815F075FE06466A4B304623445B6846
:1040E0001946099315F062FD95F83C310746002BFF
:1040F00077D0059AD5F84031D31A634A12689342B3
:104100006FDD079B93F84830022B02D1012006F0A7
:1041100011FABAF1020F40F07E845C4B3846D3F8B6
:10412000008008F10049494615F0E8FF002840F0FA
:1041300091844146384615F0EBFF00B94746069B8F
:10414000059AC3F800B0D5F84031D31A504A126826
:10415000934223DC4FF07E510A9815F0CFFF0028E0
:104160003FD04C4BDFF81C91D3F80080D9F8040005
:10417000414620F0004015F0C1FF90B3D9F8081077
:10418000404621F0004115F0D7FF50B3D9F80C108C
:10419000404621F0004115F0CFFF10B33E4B1868A8
:1041A00010F0020019D03D4B33483D491A68B1F96F
:1041B0000CE0B0F90030A3EB0E03002BB8BF5B425C
:1041C00093420EDAB0F90230B1F90E105B1A002BEF
:1041D000B8BF5B429A4204DD002085F83C0106F03E
:1041E000A9F9304B0E98E15815F0EAFD394615F063
:1041F000E7FDDFF8D080BAF1020F014644F808006D
:1042000006D1294A294B10681B689847C8F808004E
:10421000069B1B680D93264B5969264B186815F0B1
:10422000CFFD0C9915F0CCFD234BE15815F0C8FDDE
:10423000394615F0C5FD0D9915F0BAFC1F4B0F90CE
:10424000D3F8009009F1004841463DE0B23000202B
:1042500050360020A4150020542400201013002004
:10426000780D0020E011002048240020A80E002036
:1042700076290020280E002016340020CDCCCC3D1D
:1042800030240020603300205C24002074240020AF
:104290005824002064240020AC1500206024002055
:1042A000D41100200424002028250020842400208C
:1042B0000000002054360020102400207824002024
:1042C000C00D00200413002015F018FF38B90F9A14
:1042D00049461046904615F01BFF00B9C846BAF192
:1042E000020F40F0BA83A94B1B78012B02D0192B87
:1042F00040F0B3834FF00103A54938460F9315F002
:104300001BFF0F9B00B90346DBB23BB10D9B28F0AE
:10431000004023F0004115F0F1FE10B1069BC3F8F8
:104320000080BAF1020F00F099809A4A9A4B0999DD
:104330001B68A0589847994A994B01461B68A0589A
:104340009847079B804693F83730002B00F08F8307
:10435000944B1B88002B40F08A83934BE158934B7E
:10436000186815F02DFD4FF07E51814615F0D0FEF6
:1043700008B94FF07E598E4B4846196815F020FD5C
:104380000146304615F01CFD414615F00FFC894BE7
:104390008046E15815F00AFC874B196815F0C4FDFA
:1043A000844B064644F80380079B93F84830002B63
:1043B0004AD0824B1B78DA0740F15B834FF07E5185
:1043C0000A9815F0AFFEF8B195F83C31E3B97C4B93
:1043D00026F00040196815F0AFFEA8B1794B27F020
:1043E0000040196815F0A8FE70B1774BE058774B84
:1043F00020F00040196815F081FE28B1012385F8EE
:104400003C31059BC5F8403195F83C31E3B1059A44
:10441000D5F84031D31A6E4A1268934214DA694BC8
:1044200027F00040196815F069FE40B9664BE05866
:10443000664B20F00040196815F07EFE20B1002088
:1044400085F83C0106F076F8624B0E98E15815F0BD
:10445000B7FC314615F0B4FC5F4B185195F84C3160
:104460005E4F3BB9069B47F804B0C3F800B05A4B07
:1044700044F803B0069B0AF1010A04330693089B33
:10448000BAF1030F03F1020308937FF4BAAD544C61
:104490002278072A05D105F0AFFD0B9BC01A514BBE
:1044A00058802378012B40F0EA8205F0A5FD4E49A3
:1044B000D5F850314B4A0968C31A93805B1A0590AE
:1044C000D380C5F85001494B494CD3F80090494B73
:1044D00099F82C801B6813F4805F00F04F83374BF2
:1044E000B5F856611B783046DB0758BF424BE4688D
:1044F0005CBF1B8BA5F8543115F00EFC82460146BB
:10450000204615F005FE002800F0C2823B4BD5F88E
:104510005C111868C5F86011C5F86411C5F8580138
:1045200015F044FBFF23C5F8680185F86C3120467F
:1045300015F048FE2146A5F85401504615F036FB0B
:10454000C5F87001D5F874412146D5F8700115F011
:10455000EBFC4FF07E51044615F0DAFD08B94FF040
:104560007E540021204615F0DDFD00B90024244EC4
:10457000C5F870413168386815F01AFB164B196898
:1045800015F016FBB9F828B03CE000BF1434002049
:1045900000009642882400207C240020D82400209B
:1045A0008024002076290020340E00202C240020B6
:1045B00028240020BC0E0020543600202029002092
:1045C0006C24002068240020C00D002070240020EE
:1045D0005C2400201C2400201C1300200413002055
:1045E000A8150020701300208C150020A4150020B1
:1045F000002B0020A0300020743000201414002074
:10460000101300208246CBF1000015F085FB054613
:10461000584615F07DFB29468346504615F06EFD41
:10462000002840F0C9825946504615F071FD00B986
:10463000DA467E49504615F0C3FB716806907868EB
:1046400015F0B6FA7A4B596815F0B2FA824601466F
:10465000284615F071FD30B9514658465D4615F0B3
:1046600057FD00B955467149284615F0A9FBB168B8
:104670000790B86815F09CFAB9F82A700646784297
:1046800015F04AFB05460146304615F037FD40B9A6
:10469000384615F03DFB3146054615F039FD00B9A9
:1046A00035466249284615F08BFB624B06465B781F
:1046B0000BB900F10046B8F1000F25D05E4B5A79D6
:1046C00012B35E4A1578FDB1187815F021FB074644
:1046D000284615F021FB0146384615F071FB584B72
:1046E0000546188815F014FB0146284615F01CFCF9
:1046F0005449054615F00CFD00B9524D4FF07E515E
:10470000284615F00FFD08B94FF07E554FF0000810
:104710004FF0000AC1464C4B4C4F93F800B0DA45BD
:10472000C0F24C824146484615F040FA484D4FF0E1
:104730007E51C5F82C01064615F0FEFC002800F05D
:10474000778231464FF07E5015F0EEFB002407468D
:1047500010AEA34500F3638212F0CAFB18B14FF00C
:104760007C53C5F8703195F96C0115F0D5FAD5F880
:10477000703182460693D5F86831D5F85801079311
:10478000D5F864310893334BDB780B9315F0F4FCC8
:104790008046D5F8600115F0EFFC2F4B81461E686E
:1047A0000025304615F0E8FC07462C4B1B6803F04B
:1047B000100203F480530D93294B0C92B3F9063089
:1047C000284A0993284B14785B8B04F001040A9360
:1047D0005D45C0F0518224B9244B254AA34500F31E
:1047E0008B821B4CD4F808320BB111F05DF994F8B0
:1047F0000C320BB10EF0A8F91E4B1B78072B05D11C
:1048000005F0FAFB059BC01A1B4BD88001232370CF
:10481000FEF7EABD0123FFF7C8BB00230B93FFF7A8
:10482000CDBB3946404615F0C1F912E46F12833A08
:104830001C130020B01500207E290020FE2A002035
:10484000EA2A0020713DAA3F78130020000F0020C3
:10485000780D00209029002000240020A0300020A6
:104860004C29002020290020743000207C130020D7
:1048700090220020A815002070130020D5F8BC80DD
:10488000D5F8C0704146384615F038FC00287BD07A
:1048900041464FF07E5015F089F9AA4B8046B3F996
:1048A0000000B3F9023080EAE07183EAE372A1EB21
:1048B000E071A2EBE372914268DD0028D8BF40426C
:1048C00015F02AFAA04915F07BFAA04B07461B7891
:1048D000002B60D09E4B59461B681846099315F073
:1048E0002BFC002800F095809A4B5946D3F8009095
:1048F000484615F021FC002800F08B804FF07E51D7
:10490000404615F053F9944915F05AFA099915F0F3
:104910000BFB4FF07E5115F04BF939468046484667
:1049200015F044F9494615F0FFFA4FF07E5107465D
:1049300015F0EEFB08B94FF07E575946384615F092
:10494000F1FB00B95F464146384615F039FA4FF0A1
:104950007E51074615F0DCFB08B94FF07E575946EB
:10496000384615F0DFFB00B95F467C4B0D9819689F
:1049700015F026FA0146384615F022FA014630466F
:1049800015F016F9FFF7A7BB394682E7002BCCBF1D
:104990001846584294E7724B7249D3F80090484643
:1049A00015F0ACFB002831D049464FF07E5015F091
:1049B000FDF86D4915F004FA394609906B4815F079
:1049C000F5F8099B0146184615F0FAF9494615F025
:1049D000EFF85F4B196815F0F3F90746594638466A
:1049E00015F096FBA8B94FF07E51404615F0DEF861
:1049F00039468046584815F097FA0146404615F06A
:104A0000DFF94FF07E5115F0D3F8A0E7504B1F6847
:104A1000E4E758469BE7564B1B6899077FF58FAB39
:104A2000089BB3F90000474B33F91A30C01A15F050
:104A300073F9504B06464449186815F0C1F9014610
:104A4000304615F0BDF90999064615F0AFF807464E
:104A5000FFF775BB4F46FFF772BB4FF001034FF0F6
:104A60007E51D5F82C010F9315F05CFB49E45946B3
:104A700087E495F83C31002B3FF4E6ACDFE4072BEC
:104A800003D105F0B9FA05901DE5002305931AE559
:104A9000B5F8780115F040F982460146204615F038
:104AA00041FBF0B1D5F87C11D5F8D000C5F858110C
:104AB000C5F86411C5F8600115F078F80123C5F850
:104AC000680185F86C31204615F07CFB5146A5F84D
:104AD0005401204615F06AF8C5F87001D5F88041F8
:104AE00032E5B5F85431B34217D8262012F0C0F998
:104AF00098B9214BD5F85C111868C5F86011C5F854
:104B00005801C5F8641115F051F8FF23C5F8680184
:104B100085F86C31C5F870B114E5D5F87C11D5F87D
:104B2000D000C5F85811C5F86001C5F8641115F03A
:104B30003DF80123C5F8680185F86C31C5F870B1FE
:104B4000CCE700BF16340020CDCCCC3D3C24002067
:104B500038240020402400200000C84234240020D3
:104B600044240020AE47813F610BB63B0000344334
:104B7000AC15002030240020141400207A4B588BF0
:104B800015F0CAF80146E06815F010F8774BC5F843
:104B900070011968D5F8D000C5F85811C5F8600142
:104BA000C5F8641115F002F80123D5F88441C5F861
:104BB000680185F86C31C7E4AA463AE57968069839
:104BC00015F0FEF8B9680890079815F0F9F8089AFA
:104BD0000146104614F0ECFFF9680890304615F0D5
:104BE000EFF8089A0146104614F0E2FF294615F046
:104BF000E7F84946089015F09FFA089A68B91146F7
:104C0000404615F085FA089A00B9904610AB43F873
:104C10002A2010370AF1010A81E59146F6E756F895
:104C20002400394615F0CCF846F82400013490E50C
:104C300012F05EF938B94FF07C51204615F07CFA3D
:104C400000283FF490AD4FF07C51304615F0B8F895
:104C500006460146204615F051FA50B931464FF04C
:104C60007E5014F0A3FF2146064615F051FA00B914
:104C70002646C5F8706176E53D4A2B01995806989D
:104C800015F09EF810AB53F825100E90504615F015
:104C900097F80E9B0146184614F08AFF079915F005
:104CA0008FF8089914F084FF0B9BFBB115F064FAA0
:104CB000B84203DB4845A8BF484600E0384615F037
:104CC0002BF80C9A034662B15CB10D9A4AB90E906A
:104CD00012F00EF90E9B20B9099A0A998A42B8BFC0
:104CE0003346244A42F82530013571E515F044FA7F
:104CF0004045DFDA4046E2E752F8241043F824103A
:104D000001346BE515F0B6FE00283EF4AAAA1A4B52
:104D10001A681A4B1A600A23FEF76CBA184B194A24
:104D20001B6803F59C530833C2F80431FEF78CBFAF
:104D3000B9F1020F4FF4FA707DF476AC8345A8BF49
:104D40000020069BB8BFA0EB0B00584314F0E4FF13
:104D5000B045B860BDF676AC57F8292002F10042A4
:104D600047F82920FDF769BC743000201414002096
:104D7000000F00207C130020CC150020E813002039
:104D8000342B0020780D00202DE9F04FBB4B97B05D
:104D90001B781F2B0CD14FF47A72C368B848B3FB51
:104DA000F2F3B84A19B2148841801B1B838011802A
:104DB000B54B1A780193002A00F0B880B34B1868FD
:104DC00000286DD005F01BFDDFF8F4A2B04DDAF835
:104DD000000005F020FB002862D0DAF8000005F0A2
:104DE00017FB0928AB4C01D03F2850D14FF00008E9
:104DF000C14646462768DFF8ACB208EB0B0347B163
:104E00003A4658F80B102846009313F0B9FE009B61
:104E100008B976B3994608F10808B8F58C7FECD14B
:104E200096B1D6F800E0D9F800C023681EF8030058
:104E30001CF80310814207D15A1CE9B97D2B1BD8FD
:104E400020202260E854A95423680BB14E4508D0B5
:104E5000914811F0F3FF4E4511D9904811F0EEFF43
:104E6000002723689F42B2D2E85D06F0E0FE0137DA
:104E7000F7E71E469946CEE7E8542260D5E756F894
:104E8000080B11F0DBFF092006F0D1FEE3E72368F1
:104E9000002B41F04B82042806D17D480DF0FFF92C
:104EA000002017B0BDE8F08F0C2841F062827C48EA
:104EB00011F0C4FF794811F0C1FF88E701220B46C9
:104EC00001F046BA591E685C2028F7D002B1236071
:104ED0000026744FEE54F159284606EB07080DF0F2
:104EE0000FFC38B90836B6F58C7FF4D16E4811F056
:104EF000A5FF05E06D4B9845F8D2D8F804309847E7
:104F0000002301F029BA7F2B3FF661AFA0F1200208
:104F1000D2B25E2A3FF65BAF13B920283FF457AFF9
:104F20005A1C2260E85406F082FE50E7604B92461D
:104F3000984693F800B05F4E0BF00101009156F8CF
:104F40000A3C002B41F095810AF1010ABAF1030FE6
:104F500006F1CC06F3D1A3E7012B05D14D280CBFF8
:104F60000223002301F09BB9022B56D100233C28D9
:104F700006F8023C4CD03E2849D016F802ECBEF1AF
:104F8000060F41F0778116F8015C002D41F0508149
:104F90000124494B05AF0FCB87E80F0016F8053CFD
:104FA00016F8039C33440A93B9F1440F0FFA89F3BE
:104FB0000996ADF82C30ADF82E508DF83040ADF894
:104FC0001C3001F0258100F20D81B9F1050F00F0D0
:104FD000378200F2C780B9F1020F00F0818100F240
:104FE000A980A14500F072813946484602F00CF9CB
:104FF0000546002840F06881B9F1740F00F09B82EB
:10500000B9F1770F00F002836FF00104A0E20123F1
:1050100006F8013C032301F042B9032B0BD1002316
:10502000C0289FBF06F8063C06F8050C06F8040CDD
:10503000042301F034B9042B09D116F8043C06F816
:10504000030C5D4006F8045C052301F028B9052B2C
:1050500093D116F8061C16F8053C16F8042C8B4262
:1050600030D94B1C06F8063CCC23424006F8042CF1
:10507000124A03FB0A230B4498727EE7A81500200E
:1050800070130020C00F0020FC230020B02200205D
:1050900078230020F823002074CF010879CF01087D
:1050A0007ECF010878C6010889CF010890C70108A2
:1050B00020290020F20900209CAD0108E809002009
:1050C000B4220020824202D1062301F0E8B8002376
:1050D00001F0E5B8009B002B41F0CC8023281DD1C6
:1050E0000123019956F80A2C0B70BF4BBF491A6077
:1050F000BF4BC0485A60DA609DF8002099605A742E
:1051000040221A74BC4A0833136007F03BF8BB48CE
:1051100011F094FE4FF4006011F0FCFFB84B93F8CF
:105120002230AB427FF429AFB64BB74A1A60B74B77
:10513000DC6022E7B9F1030F00F0D880B9F1040F69
:105140007FF452AF00250422B149384603F0D9F963
:10515000B04B3846197803F0F2F9059B5A1C0592BA
:105160001D70BBE0B9F1240F00F0A8811FD8B9F180
:10517000200F7FF439AFDFF8B092A74B99F80120E8
:10518000D91C1A7099F8002005915A7099F80220DC
:10519000B9F808109A70384603F0D1F9059B99F8D0
:1051A0000520591C05911A7099F8062075E0B9F18F
:1051B000280F00F0A681B9F1380F7FF415AF052252
:1051C000954B01245A700A2200259A70934A1C704C
:1051D0001178DD701971517892785971D91D059146
:1051E0009A718AE0B9F1810F00F06C8124D8B9F18D
:1051F000540F00F0998108D8B9F1520F7FF4F4AE42
:10520000854B5A1C05921D7077E0B9F16E0F00F0C6
:105210002481B9F1800F7FF4E7AE059A804B511CD1
:1052200005910A211B881170FF2BA8BFFF23059A47
:10523000511C0591137047E0B9F1A00F00F02E81C9
:1052400030D8B9F1820F7FF4CFAE764B38461A785A
:10525000714BDFF8E891591C1A70734B059119894D
:1052600003F06DF9714B059A1B88511CFF2BA8BFE9
:10527000FF2305911370D9F80810384681F3100107
:1052800089B203F05CF9D9F80010384601F30F0138
:1052900089B203F054F9664B1A78059B591C0591A5
:1052A0001A702AE0B9F1B80F00F00A81B9F1FE0FC7
:1052B0007FF49AAE00245F4D35F81410384601345F
:1052C00003F03DF9042CF7D1002507E0524BDA1C1E
:1052D000059225221D7083F801909A7001240CE03C
:1052E00004225549384603F00CF906E002224A4BE5
:1052F0001A705A70DA1C05929C70ADF81E40002C92
:1053000064D0059B56F80A0C0693434B059303683B
:105310001B6A03B19847059B069CE41A00230E9371
:1053200024238DF834304D238DF83530BDF91E30EF
:10533000FF2C2246A8BFFF22013300F06C879DF8A6
:105340002030002B14BF3C233E23FE2CCCBF07276C
:1053500005278DF83630BDF81C308DF837208DF8D4
:1053600038303A46C8BF23120DA956F80A0CC4BFFC
:105370008DF83A308DF8394005F053F80DAB1F44E5
:1053800000230DF13702974240F04887002C8DF83A
:1053900013300EDD2246059956F80A0C05F041F847
:1053A000059B9DF813201C449C4240F03C878DF8DF
:1053B000132056F80A0C01220DF1130105F031F803
:1053C00056F80A0C03685B6A03B19847002306F895
:1053D000023C002D3FF4B8AD56F80A0C07F0E8FA8D
:1053E00056F80A0CA847AFE5B42200205FA40008D5
:1053F000C00F0020A9CF0108B022002079CF0108FA
:105400005A2B0020F04F0020EFBEADDE00ED00E093
:105410001516002018080020503A00204C0E0020DD
:10542000E80C0020FE2A00207E290020EA2A002025
:105430007929002070130020AFCF01089C130020B1
:105440000B22B249384603F05CF80822B0493846CE
:1054500003F057F80722AF4944E7AF4BAF4A1B8828
:10546000DFF8EC92FF2BA8BFFF23511C0591D9F860
:105470000810137081F3100189B2384603F05FF809
:10548000A74B3846198803F05AF8D9F8001001F3F1
:105490000F0189B2384603F052F82EE7A14B384687
:1054A000196803F038F8A04B3846196803F033F850
:1054B0009E4B1968384603F02EF81EE79C4BF8E720
:1054C0009C4BF6E74FF6FF7B9B4B4FF00A091968A0
:1054D0009A685945A8BF5946059B21EAE171581CB5
:1054E000059089B283F800903846029203F027F8BD
:1054F000029A09FB02F15945A8BF594621EAE17118
:10550000C7E70A22854BDFF844929A70B9F8001079
:105510001A1D1C7083F801E0DC703846059203F018
:105520000EF8B9F80210B5E77C4A134603F8025B9F
:1055300005935570E1E6099B0A9A9A420FBF2946E6
:105540005A1C099219787D4A384611F099FD0124B8
:10555000A31C40F06883B9F1470F099B0A9A63D1F5
:1055600009A8A2EB030905F084FBB9F1050F044675
:1055700056D909A805F093FB099B0A9983469942DD
:1055800002D009A805F096FB0599069BDFF8C491A7
:105590005B1A103BD9F808105B45A1EB0401CDF86C
:1055A00008B0B8BF1FFA83FB8B4588BF1FFA81FB89
:1055B0003846214602F0AFFF3DB95946384602F061
:1055C000BEFF0599481C05900D705F46D9F808305C
:1055D000E2199A42059988BF1F1B039103F0DAFC78
:1055E0003A460399204603F0B5FB059B0344059317
:1055F000002D3FF469AE0022029B83427FF764AE28
:10560000059B0130591C05911A70F5E7099B0A9A10
:105610009A421DBF5A1C099219782946484A93E7B5
:1056200001254FF0800BAFE7B9F1290FA2EB03047E
:1056300037D0B9F1390F20D0B9F1210F49D15A1C17
:1056400009921A463F4C12F8021B16A80992617083
:105650005A782270DA1C40F8342D9B78A37005F03C
:105660001EFB099B20815A1C09921A4612F8021B44
:10567000617109925B78A37123E05A1C09921A7830
:105680000A2A40F010869A1C099259782E4A117005
:10569000D91C099199785170191D0991DB78937083
:1056A0000FE05A1C16AC44F8342D1B7820460A2B08
:1056B00009D105F0F4FA254D2880204605F0EFFACF
:1056C00068800124AFE205F0EAFA204605F0E7FA27
:1056D000F7E7B9F15F0F00F0538400F28981B9F167
:1056E000350F00F0058300F2B780B9F12B0F00F001
:1056F0000B8546D8B9F1230F00F0E3822CD8B9F11D
:105700000B0F00F070854FF0FF348CE2C1CA010826
:10571000B8CA0108A8CF0108EA2A0020503A0020A0
:1057200074290020E8F7FF1FECF7FF1FF0F7FF1FB9
:105730005C1800206C180020140D0020397001083E
:10574000E56F01087E2900204C0E0020500E00203D
:105750009C1300209C020020B9F1250F00F0A184C9
:10576000B9F1270FCFD109A805F099FAC34C2060F1
:1057700009A805F094FA606009A805F090FAA06005
:105780009FE7B9F12F0F00F0F18457D8B9F12D0F31
:10579000B9D15A1C16AC44F8342D1B78B84D2046AC
:1057A0002B7205F07CFAA883204605F078FA28834E
:1057B000204605F074FA099B68835A1C09921B78ED
:1057C000EB740A9B9B1A032B07DD204605F067FA52
:1057D000A884204605F063FAE884099B0A9AD21A45
:1057E000032A0DDD5A1C09921A4612F8021B2046A4
:1057F000A97709925B7885F8203005F050FA688423
:10580000099B0A9AD21A052A0CDD5A1C09921B78A8
:105810002046EB7205F02DFA099BE8605A1C0992AC
:105820001B782B74099B0A9AD21A002A7FF749AF7A
:105830005A1C09921B7885F8213042E7B9F1310FE3
:1058400000F0AD84B9F1330F7FF45DAF5A1C0992BB
:105850001A788B4B5A7534E7B9F1480F00F01D8464
:105860003DD8B9F13C0F3FF42CAF25D8B9F1370F33
:105870007FF449AF0725B4FBF5F5C5EBC503E41A82
:105880007FF441AF7F4BEDB2E2B2AA423FF419AFD1
:105890004FF00009099A511C099192F9002003EB7D
:1058A000C90797F90210914200F0238509F1010917
:1058B000B9F1040FF3D126E7B9F13E0F00F0D18121
:1058C000B9F1410F7FF41FAF00236D49099A501CB5
:1058D000099012785A540133082BF7D1F1E6B9F147
:1058E000510F00F0B7832AD8B9F14C0F00F01E8495
:1058F000B9F14E0F7FF407AF5A1C09921C78112C96
:105900003FF601AF9A1C16A840F8342D5B785E4D27
:1059100005F8143005F0C3F940F6CA039842A8BF51
:10592000184640F2EE239842B8BF18461923A0F259
:10593000EE2090FBF3F005EB44046070C1E6B9F192
:105940005B0F00F0DF82B9F15D0F7FF4DCAE5A1C13
:1059500016AC44F8342D1B784C4D4D4F20467B71CE
:10596000D5F8009005F09BF9A9F820002046D5F85D
:10597000009005F094F9099A0A9BA9F81E009B1A59
:10598000072B15DD204605F08AF97881204605F0C1
:1059900086F9B8812046D5F8009005F080F9A9F87D
:1059A00022002046D5F8009005F079F9A9F82400E6
:1059B000099A0A9B9B1A032B07DD204605F06FF915
:1059C000F881204605F06BF93882099B0A9AD21AB1
:1059D000002A05DD591C09912A681B7882F82630B7
:1059E00005F01EFA0FF0B4FE28680CF0C5FF68E65B
:1059F000B9F1D40F00F0048200F28580B9F1CA0F2A
:105A000000F0438150D8B9F1B70F00F0D78014D817
:105A1000B9F1610F7FF477AE5A1C09921A461D49FD
:105A200012F8020B0992C87059781B4A5171DA1C9E
:105A300009929A78194BDA7043E6B9F1B90F00F080
:105A40003B83B9F1C80F7FF45EAEC4F34704122C58
:105A50003FF659AE00250DAFA542C0F2E780002306
:105A60000F4A0DA99C4240F0E88000210C4A122BFD
:105A700040F0E98001240B4B1C70D4E0D0090020D9
:105A8000743000205A2B002020220020A415002072
:105A9000B2300020D4110020CA2A0020D8120020E1
:105AA0002421002022210020B9F1CE0F00F0C6826F
:105AB00011D8B9F1CC0F00F03D81B9F1CD0F7FF4D1
:105AC00022AE98F80030D9073FF5FBAD4FF4C8720D
:105AD000BD4B1A80F5E5B9F1D00F00F0A282B9F103
