:020000040800F2
:1000000000500020D9790108757A0108B11D010856
:10001000757A0108757A0108757A010800000000F8
:10002000000000000000000000000000757A0108D8
:10003000757A010800000000757A010833FA00089B
:10004000757A0108757A0108757A0108757A0108D0
:10005000757A0108757A01080D3001080930010828
:10006000757A0108757A0108757A0108757A0108B0
:10007000F5F90008E1F9000875190108757A010819
:10008000CDF90008B9F90008757A0108757A0108F8
:10009000757A0108757A0108757A0108053001083A
:1000A000757A010841170108757A0108511701088E
:1000B000351701082517010815170108DD88000804
:1000C000E1880008D7880008DB880008757A0108F5
:1000D000757A0108691901085D19010851190108AB
:1000E000C5FB0008757A0108757A01080000000058
:1000F0000000000000000000000000000000000000
:0C01000000000000000000005FF808F1A3
:100110002DE9F04F794B7A4CA3B023600023636044
:1001200013F0D4FFA04618B913F0F2FF09F086FFD0
:100130000AF02AF8734A744D1378744E43F00103A1
:10014000137000230A930B930C934FF4E0130D9359
:100150002B68B07B43F480332B60AB6943F0100312
:10016000AB612B6803F400330B930A9B01330A93B2
:100170000B9B1BB90A9BB3F5A06FF2D12B686249A8
:1001800013F4003301D0022315E00A6842F00102A3
:100190000A600A932B6803F002030B930A9B013356
:1001A0000A930B9B1BB90A9BB3F5A06FF2D12B6886
:1001B0009A0739D501230C93554B56491A6842F0DA
:1001C00010021A601A6822F003021A601A6842F0DC
:1001D00002021A606B686B606B686B606B6843F45B
:1001E00080636B604C4B1A68043B22F070425A608B
:1001F0004A4A0A606A6822F47C126A605A6842F0CD
:1002000000425A60DA6822F40042DA609B681B04FC
:1002100049BF434B4FF4E0130B604FF480130D9331
:100220000C9B012B01D117E0FEE7022B18D168B11E
:100230000D9BB3F5801F02D14FF4A01305E00D9B79
:10024000B3F5E01F02D14FF400130D930D9A6B68C4
:10025000134343F4803302E06B6843F460136B6034
:100260002B6843F080732B602A68274B9701FBD5DE
:100270005A6822F003025A605A6842F002025A6039
:100280006B68214803F00C03082BF9D14268254B19
:1002900002F00C02042A03D0082A03D01F4A12E0FD
:1002A0000A6810E042684468C2F38342E40302F142
:1002B000020201D41C4805E0406810F4003F0868C1
:1002C00018BF400842431A606A681848C2F3031214
:1002D000024492F860401A680490E2401A60F27B8F
:1002E000DFF84CC0003218BF012288F808200A68E5
:1002F0000A498A421ED1012220E000BF4B97000824
:10030000D0010020A022002000100240182B002065
:1003100000200240080000200410014000127A0072
:10032000001BB7006001002000093D00D0900108CB
:100330003C370020B6498A4202D102228CF80020C4
:100340000393B44AB44BCDF814C0DA60AA6922AF63
:1003500042F00102AA616A6AB04CC8F80C206A6ACD
:10036000DFF828B342F080726A62AA694FF0000A8F
:1003700042F01C02AA614FF6FF7227F82C2D20468E
:1003800039468DF85EA010F05EF85846394610F0F8
:100390005AF8A348394610F056F84FF010038DF87C
:1003A00042304FF002034FF400720DF1880929F832
:1003B000482D8DF8433020462261494610F043F81D
:1003C00048228DF84220204604224946ADF84020BC
:1003D00010F039F858464FF480624946ADF8402095
:1003E00010F031F88F4938464A6842F000724A608E
:1003F0000BF05BFA8C49179A8C48B2FBF1F28C49EE
:100400000A605146182218F0BCFD039B4FF47A7223
:100410001B688149B3FBF2F3864A013B5360F0232A
:1004200081F823300723C2F808A01360B368DFF80F
:1004300060A2CAF80030804B0FCB87E80F00AB6991
:10044000179843F00803AB61AB6918A943F00803A0
:10045000AB610823CBF810301023CBF810300FF02D
:10046000F2FF19981AA90FF0EEFFDDF814C04FF44F
:1004700080529CF80030ADF85C20022B34BF14236E
:1004800010238DF85E304FF002038DF85F30AB69BA
:1004900038BF4FF0000B43F00403AB6128BF4FF0AF
:1004A000010B204639460FF0CEFF644BBBF1000F25
:1004B00001D0634A00E0634A00201A600FF092FB0B
:1004C000DAF800301B0713D596F89831012B0FD8B6
:1004D000D8F80C205C4B12F0805B93F89A3100F056
:1004E000CA8505E0584B002283F89A210AF00EF8DD
:1004F00064200FF094FAA0225448002118F041FD26
:10050000EB69002243F00703EB61AB6943F400633E
:1005100043F00C03AB614E4B4FF0000B03F11001A5
:1005200002F801B001320E2AF5D14A4DFF229A7726
:10053000DA7783F8202083F82120284659461022B4
:1005400018F01FFD444B454A2B606B60AB60EB60BD
:10055000434B59461A6043483C22DAF800A018F091
:1005600010FD5946CAF3801505203F4BDFF8F4E033
:10057000CA5C0C234B4303F80E2045B91E3A012AEE
:100580009FBFFF2200F1FF3003F80E20C0B20131FF
:100590000529EAD1354B96F805B01870344B35492A
:1005A00083F800B0344B2A4AC8F82430C0330B60BB
:1005B000324B1AF0200F03EBCB035B7818BF0123FB
:1005C0009362002340F2DC512D4A22F813100133CC
:1005D000082BF7D1484600211C2218F0D2FC1AF44F
:1005E00000790AF4006355D01AF4015F09D153B1C0
:1005F000244A96F88C01A2F11801012808BF0A4686
:1006000002E0214A00E01F4A0392169744E000BF2F
:10061000001BB7000005FA0500ED00E000080140EE
:10062000001001400000014040420F00FC17002074
:10063000B416002010E000E0409101081C370020B3
:100640000DF5000821F50008182B00207018002077
:10065000D0010020DC170020D5F400081E2D00205A
:10066000383300204033002086C70108800F002067
:10067000A00900208C1900202C2B0020CCBA0108E6
:10068000340B0020E8900108D0900108000C0140D4
:1006900080330020CDF80C90BBF10E0F04D00BF08E
:1006A000EF0BBBF1080F02D101228DF8522001207F
:1006B00005930AF065FD8DF8450002200AF060FD03
:1006C000CAF340028DF84720059BCAF340328DF8EB
:1006D0004020CAF3C0328DF846008DF849508DF89D
:1006E000432023B196F88C315D1E6B426B418DF82F
:1006F0004430CAF300438DF84A30D8F8283019F155
:10070000000918BF4FF00109003318BF01238DF80D
:100710004C30CAF300538DF84D30B6F84A31B6F874
:1007200048211AF4805FADF85030B6F85631ADF874
:10073000562018BF9F4AADF84E30CAF3804318BF09
:10074000B2F850218DF84830B6F8543118BFADF8E2
:100750005620B3F5FA7FADF8543084BF0023ADF8CE
:10076000563096F8DE310AF00107CAF3C005924808
:100770000021782288F82C308DF841708DF8425095
:100780008DF84B9018F0FDFB9DF85230002B0CBFFC
:100790000023022307B905B10133049A4FF0000A80
:1007A00002EB8303D3F88030A3F1020B1A330493D6
:1007B0004FF6FF723BF8023F934200F0DC819DF858
:1007C0004510DAB21B0ADEB261B17C4800EB0210C0
:1007D0004168A14206D10189042900F0C881082995
:1007E00000F0C5819DF8461079B17448744D00EB56
:1007F00002104168A94208D10189B1F5806F00F06B
:10080000B681B1F5006F00F0B2819DF8491031B1A9
:100810006A48110140586B49884200F0A8819DF850
:100820004AE0BEF1000F06D0644811014058654906
:10083000884200F09C819DF8471049B15F4800EB69
:1008400002104168A14203D10189102900F08F8173
:100850009DF8431049B1594800EB02104168A1428C
:1008600003D10189022900F082819DF8441051B121
:100870005248534D00EB02104168A94203D101894F
:10088000022900F07481169F7FB14C4D396805EB49
:1008900002156868884208D12989B888884200F022
:1008A0006681F888884200F06281022B02D19DF8AF
:1008B000403003E0012B04D19DF84130002B00F0C3
:1008C00056819DF84C103D4B170159B19DF85210BF
:1008D00041B9A2F10801012904D8D9593A48814205
:1008E00008BF04269DF84D10DD1961B19DF8521026
:1008F00049B9BEF1000F02D00C3A012A01E0043AD6
:10090000032A40F21181012E66D1DFF8C880D9197F
:10091000FF2291F80DE0486888F8742088F8752067
:1009200001F1080209894FF00009ADF85C100221BD
:100930008DF85F1088F87C9017A9C8F888508DF85A
:100940005EE00693059288F83090C8F83490C8F8B5
:100950003890C8F83C90C8F8709088F8769088F87D
:10096000779088F878900FF06EFD069B059AD8591D
:1009700091784A4612F096F928464946324610F0D8
:1009800043FF124B08F18C01C8F88C30104B08F172
:100990009002C8F89030C8F89490284610F07CFF78
:1009A000054B20219A7803EBC20251721A79013269
:1009B0001A71D8E0182B0020F40B00202CB6010887
:1009C000000C014000040040002C01408927010870
:1009D00015290108D0010020022E54D15FFA8AF3B4
:1009E0001C2101FB03FCB64B4FF0000803EB0C0984
:1009F000012389F87C300693B24B89F87DA0D91980
:100A000091F80DE001F108024868098989F87E80B3
:100A1000ADF85C1089F8868017A9C9F88850CDF820
:100A20001CC08DF85EE005928DF85F600FF00BFD45
:100A3000A44B059AD8599178424612F033F9069B97
:100A400028461A46414610F0DFFE9D4B9E4ADDF8CF
:100A50001CC0C9F88C2003EB0C019C4A8C31C9F8EE
:100A60009020C9F894800A1D284610F015FF984B75
:100A700040219A780AF1010A03EBC2025172DA7836
:100A80000132DA706FE0032E4CD19DF84830904E61
:100A9000904F8BB14FF6FF7200232846082196F83D
:100AA000018012F055F98C4B47F82800C360B378E9
:100AB000192206EBC30329E0BDF8542096F8018003
:100AC000B2F5FA7FBDF8563010D984492846B1FBFB
:100AD000F2F2082192B212F03BF9814B47F828005C
:100AE000C360B3780D2206EBC3030FE07D492846AF
:100AF000B1FBF2F2012192B212F02AF9764B47F8DB
:100B00002800C360B378092206EBC3035A72B37896
:100B10007278013306F8332006EBC30301325D60BF
:100B2000727020E0042E22D1BDF84E206D4B684E2D
:100B300093FBF2F2012192B2BDF85030284637788B
:100B400012F006F95E4BB27803EB8703013206EB35
:100B5000C201C3F85C010A234B7033784D6006F87C
:100B60003230013333705A4A937801339370049BC7
:100B70009B457FF41DAE564F514B3A785A4E83F841
:100B80007C215A4A002415783470A5F11702022AF4
:100B900098461AD8D8F824300021185903EB0409D4
:100BA00016F0C6FB18B1D8F828306BBB25E0504BC7
:100BB00004EB030E99E80F008EE80F003378103431
:100BC0000133C02C3370E5D1EDE74A4B13F835C043
:100BD00003EBC503D3F8049086F800C0B9F1000F09
:100BE000E1D06445DFDA424A230103EB020E4B44B5
:100BF0000FCB01348EE80F00F3E73F4B1A6898469D
:100C000012F4805F26D11FE03C4B3D4A13F83500BB
:100C100003EBC5035C681070002CEED00023834208
:100C2000EBDAC3EBC3016218D2F80080DFF8DCC056
:100C3000013341F80C8001EB0C0E9188AEF80410E2
:100C400092798EF80620EAE705F0EF03082B2D4B8A
:100C500024D125E03378012BF6D92B4C04EB031378
:100C600003F110061034B442EED054F8100C4FF0DB
:100C70007C5116F0C9F94FF07C5144F8100C54F82F
:100C8000140C16F0C1F94FF07C5144F8140C54F8D0
:100C90000C0C16F0B9F944F80C0CE3E70E2D08D152
:100CA0001A78182D42F010021A7031D10FF002F9A3
:100CB0002EE01A78192D22F010021A70F5E700BF05
:100CC000D00100202CB60108E12C010861270108A1
:100CD000F40B00203C1800205529010800127A006E
:100CE0006529010840420F006C180020A00900206F
:100CF000D8080020CCBA010880330020DC9E01080F
:100D000018190020E8160020E0080020191900201A
:100D10000FF0B4F8FA78B74BB74E9A803A7917AF1C
:100D2000DA80D8F800304FF480595C035EBFB34BD3
:100D300001221A70B24AB34C1378B34D43F0040346
:100D40001370B24B93E80300B36987E8030043F0E4
:100D5000080318A9B36117980FF075FB07F0C1FDE0
:100D60009F238DF83C30322000238DF83D308DF8E4
:100D70003E308DF83F300EF052FE0422C4F814903D
:100D800038460FA912F098FAC4F810909DF85E301A
:100D90009DF85D201B0243EA02439DF85F20134348
:100DA0009B4A934213D032200EF039FEC4F81490BF
:100DB000F52012F071FAFF2012F06EFA7028C4F8D4
:100DC000109004D12B78022B04BF03232B702B78B7
:100DD000032B0CBF1F2002200AF09FF82B78032B57
:100DE00002D012F0B5FA04E002200AF0C9F9002896
:100DF000F7D0D8F8004095F80090864D4FF01008D5
:100E000004F40063424628460021049318F0B9F820
:100E10004FF6FF72ADF83C20022204F4004A4FF076
:100E2000000B14408DF83E208DF83FB00DD07A486D
:100E30000FA9ADF83C800EF0FFFA04232B700124BB
:100E4000072385F801B0AC70EB70BAF1000F0ED03B
:100E5000022371480FA9ADF83C300EF0EDFA0123E2
:100E6000E2182B71AB7107236C71EB71D4B2B9F13D
:100E7000010F0FD9202368480FA9ADF83C300EF0C0
:100E8000DBFA052301222B72AA72631C07226C7203
:100E9000EA72DCB2049B7BB102235A480FA9ADF879
:100EA0003C300EF0C9FA092301222B73AA73631C8C
:100EB00007226C73EA73DCB27368584843F440430A
:100EC00073607369DFF8548143F001037361B369A0
:100ED00043F40073B3610AF05CFD38460AF02EFD5E
:100EE0004F4B012C17934F4B4FF00006189394BFB4
:100EF000334680231C934FF480731D934FF480631B
:100F00001E93202339461F9340464FF400531A94F2
:100F1000209319961B9621960AF01DFDD8F80030F3
:100F2000414A43F00103C8F800305368012C23F410
:100F3000702394BF0021012123F4807343EA01232D
:100F400053609168394B013C0B4043F4602343F0FC
:100F500002039360D36AE4B223F4700343EA0454B7
:100F6000D4620123AA19917800296FD0A85D591C79
:100F70000928C9B2D2782C4F10D9A0F10A04D7F8A9
:100F80000CC004EB44044FF0070E0EFA04FE2CEAEA
:100F90000E0EA2404EEA0202FA600CE03C6900EB41
:100FA000400C4FF0070E0EFA0CFE24EA0E0402FA73
:100FB0000CF222433A61062B1B4C0CD85A1E676B6D
:100FC00002EB82021F23934027EA030700FA02F391
:100FD0003B43636339E00C2B2AD8DA1F276B02EB03
:100FE00082021F23934027EA030700FA02F33B43E0
:100FF00023632AE0880B002000100240E80A00204A
:10100000A0220020000C01403C3700206091010824
:1010100015202000D01100200008014008000240E7
:101020004C240140E011002000240140FDF7F1FFB5
:10103000A3F10D02E76A02EB82021F23934027EA25
:10104000030700FA02F33B43E3620B460436102E1B
:1010500088D1214B9A6842F480729A609A6842F073
:1010600001029A609A6842F008029A6099681A4AE6
:10107000080739D5FAE7013B092B3FF639AA17498A
:10108000174B086810225A61394617901548059287
:1010900003930FF0D8F9082121613C200EF0BFFC2A
:1010A000039B059A1A6196F89A319B45BFF61AAAD6
:1010B0000B4A0823136178200592636103930EF0B5
:1010C000A3FC039B059A7820536123610EF09CFCDE
:1010D0000BF1010BE7E700BF002401406C91010810
:1010E000000C014000080140936843F00403936042
:1010F000B74B9A6812F004020492F9D19A6842F44C
:10110000A0029A60B34BB3F85C01002841F0CC8197
:10111000B3F95E21002A41F0C781B3F96031002B99
:1011200041F0C281AC4B1B68990320D5C8200EF05A
:1011300076FCAE200FF043FA08B10FF04CFAA74C42
:1011400084F87D01C8200EF06AFCA54B0021C4F88C
:101150008031A44C1422204617F013FF0223E370C1
:1011600010F083FE0EF0B7F99F4B0344A3609F4C31
:1011700000212046742217F004FF4FF07E53636075
:10118000A360E360934BB3F85C01B3F85E51B3F82E
:10119000607118B915B9002F00F08880012384F818
:1011A0004C3000B215F0DCFE914915F02DFF91494D
:1011B00015F0DEFF064628B215F0D2FE8C4915F078
:1011C00023FF8C4915F0D4FF054638B215F0C8FE50
:1011D000874915F019FF874915F0CAFF8146304647
:1011E00008F0D0FE8046304608F058FE06462846F5
:1011F00008F0C8FE0746284608F050FE0546484657
:1012000008F0C0FE8246484608F048FE4146814646
:10121000504615F0F9FE41460590484615F0F4FE9B
:1012200051460690304615F0EFFE4946079030468D
:1012300015F0EAFE39468346504615F0E5FE49466C
:10124000206507F1004015F0DFFE29466065A565C1
:10125000079815F0D9FE0146069815F0CDFD2946F0
:10126000E065584615F0D0FE0146059815F0C2FD20
:101270003946206606F1004015F0C6FE2946606634
:10128000059815F0C1FE0146584615F0B3FD2946F4
:10129000A066069815F0B8FE0146079815F0ACFD5B
:1012A0004146E066384615F0AFFE2067494B002105
:1012B00093F8712150480592504A93F8688112685A
:1012C00093F86371B2F8622093F8725106929A898A
:1012D00093F8109007920C225E7C17F052FE0021CA
:1012E0001422474817F04DFE464B3C4C93F800A0A3
:1012F000454B4FF0000B03F11802BAF1010F94BFF8
:101300009A46924659460C2284F884B184F885B1F5
:1013100004F5C47017F035FE2320C4F894A10EF034
:101320007EFB752001210DF1270207F07DFA0028D0
:1013300000F08B80354B5846C4F88C31344B01217A
:10134000C4F890310EAA432384F8883107F06CFA70
:101350009DF8383003F07E038DF8383040B1682BAB
:1013600006D1012384F884311D2384F888316CE090
:101370009DF82730194C03F07E03682B8DF8273039
:101380005ED10223062084F8843117AAD4F88C3168
:10139000014698479DF85F309DF8612003F00103F6
:1013A0005B0002F0010243EA82029DF85D3003F027
:1013B0000103134336D05AB2012A01D1002202E0C0
:1013C000022A27D10122054B83F885213DE000BF89
:1013D00000240140182B002080330020D001002081
:1013E000A82C002084150020404B4C00A029002090
:1013F000DB0F494000003443F83400207C15002006
:101400006C3600203C370020009101082988000834
:10141000BD88000803F00303032BD3D003200EF094
:101420003DFC12E0D4F88C310C2001210FAA984722
:101430009DF83C3013F00F03F0D0042BC2D1BDE770
:10144000702B04BF042384F88431AC49AC4A0023D8
:101450000B7092F88431042B13D1AA4BAA48186060
:10146000AA485860AA48D860AA48186101230B709E
:10147000A94B07211970A94B196841F001001860A8
:1014800003E001200EF00AFC74E13B4640F202202A
:101490000A2F28BF0023012404FA03F7384090B92B
:1014A00040F2FD10384070B19D4B9E4841F0030161
:1014B00018609D4858609D4B08201C70964B5870D2
:1014C000964B196005E0012B4FF00007DDD8974BD4
:1014D0001F70042D00F28780DFE805F0038E030300
:1014E0000300934B9B69002B00F0868092F89831A3
:1014F000002B40F099878F4B1846196803685B1AD8
:101500009BB2132BFAD98C4B7D4C76250027C2F861
:10151000A43182F89C5182F8A07104F5CE70D021DC
:1015200017AA012311F068FE002865D09DF85C30F1
:10153000582B61D13946402204F5D47017F021FDB3
:10154000284611F049FEC4F8AC01002854D07B4A6B
:1015500025461388591C1180A4F8A831882104F568
:10156000DC72182311F048FE40B3D4F8AC01F4212A
:1015700017AA012311F040FE00B3042384F8B03110
:101580006B4B01279D6984F8B171402000971921A8
:101590006B4A04F5D4730DF0A9FCC4F8B40158B338
:1015A000684B84F8987103601923A4F8D431C4F807
:1015B000E45184F8D671477100F036BFD5F8B40114
:1015C00028B10DF046FC4E4B0022C3F8B421D5F8EB
:1015D000AC1189B1886810300DF01AFC484B00221C
:1015E000C3F8AC2108E0012D06D04B4B4B4A9D704F
:1015F000136843F004031360484C23689A0702D52C
:10160000474B1B6898473E4D4F4AB9F1000F0DD02C
:10161000B8F1000F06F1FF36F6B20CBF7D234FF490
:101620007A7385F8E86106FB033302E0079B85F8CF
:10163000E8911360334B40461B689847059F434E23
:101640000023337017B1BA1E032A24D83A4B0D2158
:10165000C5F8A431002385F8A0313D4817AA01231D
:1016600085F89C1111F0C8FD002800F0A2879DF8B4
:101670005C30FF2B40F09D87364B374A1A60374A63
:101680005A6001233370244B0522DA70236843F03B
:101690000803236003E0012F01D91F46CFE7304B39
:1016A00093F858210AB115490A7093F859210AB1E3
:1016B0001E490A7093F85A3103B133702368294DDB
:1016C00013F0080F54D0BDF91870642697FBF6F498
:1016D000204615F045FC804606FB147000B215F05C
:1016E0003FFC214915F090FC0146404615F084FB73
:1016F0001E4915F089FC28603CE000BF74070020FB
:10170000D00100206C360020B18500080984000853
:101710001183000890C1793D58010020F434002065
:10172000F8340020958700087184000843370020B2
:1017300044000020482A0020142A00202C00002009
:101740000DF200080CB70108E41600204237002013
:101750006C030020F433002035010108C9000108A2
:10176000182B0020800800208988883C0000204138
:1017700000232B60254A0A24137843F002031370D8
:10178000234B10225A6108221A61214D1920EB685F
:10179000013C83F01003EB60EB6883F00803EB601F
:1017A0000EF03DF901200EF01DFA19200EF037F968
:1017B00000200EF017FA14F0FF04E6D108232B6185
:1017C00010232B61134B1E68134B1A681D4692F9A8
:1017D0000C2072B9114E33681B0727D50C4C104BE7
:1017E00010251B68656198470E4B012225611A7010
:1017F0001CE02B680C49986821443246243408F0D8
:1018000006F8B4F5907FF4D1E4E700BFA0220020F1
:10181000000C0140E4160020D4080020F43400201D
:10182000F433002020340020C8090020B54BB64C0A
:101830001B68187B15F094FBB44915F0E5FB08F024
:10184000A1FBB34BB1491860B24B186915F0DCFB32
:10185000B14B1860B14B188815F082FB0146B048B7
:1018600015F086FCAF4915F083FCAF4B18600EF005
:1018700063FB2046FF211C2217F083FB20463568BE
:10188000AA4B012215F0020F18BF62701A701FBF19
:1018900003221A700222A2706F0748BF1A784FF015
:1018A0000001217041BF511C19700321A1541A7805
:1018B0001B27511CC9B215F00A0F1970924C87549E
:1018C0000CD004256554911CC9B20525655497496F
:1018D000151D03320D70D2B20621A154944C21681B
:1018E0008D0641BF1A78551C1D70072548BF8554C9
:1018F0000A0608D51A7809258554951C01321D70F1
:10190000D2B20A2585548B4D6F7907F0EF02082A71
:1019100001D00E2F08D11A7802F1010E83F800E0F1
:101920004FF00B0E00F802E01A7811F4803F4FF0F0
:101930000C0C00F802C002F1010E1CBFDFF8ECC174
:1019400002325FFA8EFE83F800E01FBF8CF80020A1
:101950006D4A4FF00E0C02F80EC04A0748BF1A78C5
:101960004FF0120C41BF02F1010E83F800E04FF07E
:10197000100E00F802E01A7811F4806F02F1010EE7
:101980005FFA8EFE83F800E000F802C00ED095F8F2
:1019900030C2BCF1000F09D0DFF890C102328CF8E0
:1019A0000020594A4FF0130C02F80EC08A0541BFBF
:1019B0001A7802F1010E83F800E04FF0150E48BFCF
:1019C00000F802E0182F13D11A784FF0160E00F825
:1019D00002E002F1010E5FFA8EFE4FF0170C00F8E4
:1019E0000EC002F1030E0232D2B283F800E0875437
:1019F0000F0341BF1A78571C1F70192748BF87541F
:101A0000CA0548BF1A784C4F41BF511C19701A21A2
:101A100081541A78511C1970142383540021982280
:101A2000464817F0AEFA11F08CFD4548454980460E
:101A3000454BB5F852211960444B396044491A802E
:101A40000023444AD0F800E00B70B5F8A0111380D1
:101A500093701FFA81FC0EF18502DFF804913E4875
:101A6000D9F80070DFF8FCA007F596774AF82370E4
:101A700020F813C00133122B4F46EED1D4F800905A
:101A80000EF1D50E19F4805F08BFB5F8A6C1A0F815
:101A900006C01378B3B9937892F803C0634511D2A6
:101AA0000BB1013B01E00CF1010303EB830392F85E
:101AB00001C003EB830303F561739BB20CF1040CCB
:101AC00020F81C3004327245E3D119F0080F00F001
:101AD000088195F89801072800F2FD80DFE810F0F2
:101AE00008000B0044006F008800A800A800E10077
:101AF00045F2F05201E042F6F822184B1A8011F03C
:101B0000BAFDE7E0480800205912002035FA8E3C63
:101B1000840800206C36002070080020040000209B
:101B20000AE81C4100401C46D03300205812002017
:101B300080330020182B002014120020802A00205F
:101B40007C150020A82C00205C0D0020600D0020DA
:101B5000AD0C0020241200205C2A0020AC080020DC
:101B600020120020F80C002042F6F822864B0901D2
:101B70001A800A2391FBF3F10023A1F5B061834A97
:101B800042F823100133122BF9D1814A81494020B8
:101B90001160814A137009F021FB002800F09B803E
:101BA00095F899310122002B14BF0723062390F9E1
:101BB000000040218DE80C00784A794B85E042F620
:101BC000F822714B40201A80764A714B1A60724B92
:101BD00010221A7009F002FB00287CD001234FF07C
:101BE000000C90F9000040218DE808106E4A6AE070
:101BF00042F6F822644B40201A806C4A644B1A600B
:101C0000654B08221A7009F0E9FA002863D0012315
:101C10004FF0000E90F9000040218DE80840644A22
:101C20004FF4E13309F0A6F9624BC3F8EC014EE042
:101C300042F6F822544B4FF00C0E1A80564B5E4A77
:101C400083F800E0002313705C495D4A06280B709E
:101C500013700BD05B4B1B221A705B4B052283F871
:101C600000E05A4B4FF4E1391A7009E0554B21223C
:101C70001A70554BDFF87C9183F800E0534B1870D5
:101C8000534A434B40201A6009F0A8FA18B30121C7
:101C9000002390F900004F4A8DE80A0040214B468E
:101CA00013E04D4A3A4B40201A603B4B0A221A700F
:101CB00009F094FA78B10122002390F900008DE830
:101CC0000C00464A40214FF4E13309F053F900304B
:101CD00018BF012028B9082008F07EF9404A2C4B93
:101CE0001A602268530441BF2B4B12211970284BF4
:101CF00044BF3C49196042F201031340ABB144F6C2
:101D00002061214B9004198041BF234B0821197099
:101D1000354944BF1E4B1960D10741BF1E4B0C21F2
:101D20001970324944BF1A4B1960130640F1A08064
:101D30002048DFF8C4B04FF0000ADFF8C0905146E9
:101D4000C0F8F0B1152200F5FA7089F801A0C9F8C1
:101D500004A0C9F808A017F014F9254BABF105024F
:101D600050461A6005930BF039FC3A680220C9F816
:101D70000C2009F033FA059B9E46002840D18020B4
:101D800008F02AF96CE000BFAC08002058100020D1
:101D90003000002035B300083433002009B60008B5
:101DA000A086010021B300085DB5000809B3000852
:101DB00011B50008D00100200D110020E60F002011
:101DC0000C1100200E110020E50F00200F11002043
:101DD0001DB20008E5B3000811B2000899B300086D
:101DE00095B3000865B3000885B3000875B3000813
:101DF0004434002090D003001E2D00202434002005
:101E000090F805C099F80130C74A0C2101FB032165
:101E10004978614504D00133DBB2042BF4D90023A7
:101E200089F80130DEF800304FF00C0E1B7890F985
:101E30000000002B99F8013018BF03210EFB03228C
:101E400008BF01215378002200910192022109F07C
:101E500091F8B64B1860002891D001200BF0BEFB22
:101E6000D8F80000B24B00F5CB721A600FF096F96B
:101E70002368980540F19580DFF82083039B0021BB
:101E8000202208F504704FF00009C8F80C3217F052
:101E900078F8CDF8009020203221A64A08F5047386
:101EA0000DF024F8C8F81C02002861D0A24A4FF0B7
:101EB000100A0260A14A1388591CA8F81832A04BD6
:101EC0001180C8F820329F4B3221C8F810329E4B47
:101ED000C8F814320CF088FFD8F81C329B4A83F8FB
:101EE00004909369D8F80CB243F001039361BBF8F6
:101EF0000030DBF80400ADF838300EA902238DF86D
:101F00003AA08DF83B300EF09EFABBF80830DBF8B3
:101F10000C00ADF838300EA904238DF83A300EF0DD
:101F200092FA9BF8141001200EF078FADBF81030CA
:101F3000874A17A853618DF861A04FF0010A1793E3
:101F40008DF860908DF862A011F080F89BF8153044
:101F50000FA88DF83C3003238DF83D308DF83E906E
:101F60008DF83FA011F054F83B683C3BC8F8303284
:101F70003368C82243F0100333604FF4C873A8F8E5
:101F80003432744B1A80E123734AA8F83632734B0B
:101F90001A6040F27112724B1A80724B4FF0FF328E
:101FA0001A60714B714A724E1360724A803313602B
:101FB00023680027D903377040F1F88040F22A39AE
:101FC000DFF8DCA110F05CFB4FF001085046394609
:101FD0004A46DFF878B186F8008016F0D2FF664AEC
:101FE000664B67489A60DBF818300EA943F004038B
:101FF000CBF818304023ADF8383018238DF83B303B
:1020000003238DF83A300DF017FADBF81C305D4AE7
:1020100043F00203CBF81C305B4B5C4E1B68ABF605
:10202000947BB3FBF2F33288013B22F45C7212041E
:10203000120C32809BB21D22B2853385A6F8148023
:10204000338C23F001031B041B0C3384338CB188C5
:10205000328B23F0020322F0730212041B04120CD1
:102060001B0C89B242F0600243EA0803B18032835C
:10207000B7863384338B23F008031B041B0C43F017
:1020800008033383B6F844306FEA43436FEA53439F
:102090009BB2A6F84430DBF8A83F43EA0803CBF82C
:1020A000A83F584609F075FC17A809F047FC384BC3
:1020B000CDF860A0179380231C934FF480734FF0EA
:1020C000100A1D9358464FF4005317A92093CDF8DA
:1020D00064A0CDF868901B971E971F97219709F071
:1020E0003AFCB3890FA89BB243F40073B381DBF8C9
:1020F000003043F00203CBF800308DF83CA08DF89F
:102100003D808DF83E708DF83F8010F081FF214BAF
:1021100004991A68204B43F821200B460133202BE9
:102120000493F4D13EE000BF30A4010880150020E4
:10213000B40D002041F1000813B701082C00002065
:1021400031D468429529010889290108001002400C
:1021500000040140B43300205E836C3FAC330020A8
:10216000BC330020B0330020582D00207C0F00200D
:1021700078120020780F002091000108DC17002061
:102180000008014000366E0160010020000400409C
:1021900034040040689101087A120020D001002028
:1021A000080400200EF05CF80EF05AF823685A0577
:1021B00056D5DFF8B092A04BD9F864A50420C3F837
:1021C00000A009F00BF80421C9F8680508F0E3FF46
:1021D0009A4B89F86C050820C3F800A008F0FEFFB0
:1021E000974B0821186008F0D6FF964E89F86D05C8
:1021F000002130462C2216F0C4FE8E2373704FF05F
:102200007C08E0237D27F37086F8008086F82B7029
:102210008D4E2C220021304616F0B3FE8A237370B7
:102220002020A023F37086F8008086F82B70C9F870
:1022300070A508F0D3FF2021C9F8740508F0ABFFA2
:1022400089F878051020C9F87CA508F0C7FF10218F
:10225000C9F8800508F09FFF89F8840513F00CF990
:102260007A4B7B4E1B78022B67D17A4A0027138862
:10227000322023F040031B041B0C138013884FF4FF
:10228000805823F038031B041B0C138013889BB267
:1022900043F0400313809F238DF83C308DF83D7050
:1022A0008DF83E708DF83F700DF0B9FB8DF85D70C4
:1022B000694F0422C7F8148017A80FA910F0FCFF7B
:1022C000C7F810809DF85E309DF85D201B0243EA40
:1022D00002429DF85F301343604A934219D00AD8F6
:1022E000A2F51A42033A93420CD002F51A42023286
:1022F000934209D01CE05A4A934205D001329342DE
:1023000007D015E0202300E0802333804FF4807352
:1023100002E04FF4807333807380B38832881B02ED
:10232000B3605343F3604F4B012283F8852504E0EB
:10233000002333807380B360F360F66826B3F60A37
:10234000B0464FF00009B1450BDA09EB06077F10E4
:102350000DF15C0AF802514610220EF0DBF80F284E
:1023600007DC0FF061F93F4B4FEAC822C3F888251C
:102370000AE000235AF82320013258D10133042BFC
:10238000F8D1B8463E46DEE72168374B11F400220B
:1023900018BF01221A706B79052B02BF334B4FF423
:1023A000C8721A80324B4FF47A721A80314BC822AD
:1023B0001A80314A137843F0080313702F4A1378B8
:1023C00023F00203137040F602030B40A3B12C4A22
:1023D0002C4B4FF07E501A602B4B03221A702B4B64
:1023E00001221A702A4A002313802A4A2A4913809C
:1023F0004CF2503207F00BFA23689B0341BF274B86
:1024000004221A71DA7844BF42F00102DA70AB6834
:1024100001222360224B1A70224A137863F07F0353
:10242000137023B0BDE8F08F0425FFF7DEB807F185
:1024300001093746A6E700BF900E0020E00E0020FD
:102440002C0F0020B00E0020E40E00203C370020AE
:102450001800002000380040000C014018BA20008D
:102460001740EF00D0010020900B00206E0D0020DF
:102470003437002090330020E81600203D3700203C
:102480009A2C0020C8110020F03400205C010020AC
:10249000C4360020C6360020EC1100208415002030
:1024A000E80A0020A0220020454B00221A7000B24A
:1024B00014F056FD434914F0A7FD434C0646B4F909
:1024C0005E0114F04DFD3F4914F09EFD0546B4F940
:1024D000600114F045FD3B4914F096FD044630467A
:1024E00007F050FD8046304607F0D8FC06462846E7
:1024F00007F048FD0746284607F0D0FC0546204671
:1025000007F040FD8246204607F0C8FC4146814660
:10251000504614F079FD41468346484614F074FD58
:1025200051460590304614F06FFD494606903046FE
:1025300014F06AFD39460790504614F065FD234CAF
:102540004946206007F1004014F05EFD29466060B6
:10255000A560069814F058FD0146059814F04CFC4F
:102560002946E060079814F04FFD0146584614F0E4
:1025700041FC3946206106F1004014F045FD294632
:102580006061584614F040FD0146079814F032FC93
:102590002946A061059814F037FD0146069814F00D
:1025A0002BFC4146E061384614F02EFD2062FEF718
:1025B000B9BD012F7FF673A800273770FFF746B823
:1025C0000C00002035FA8E3C182B0020A4110020AE
:1025D0002DE9F04FAA4B97B01B7C8589A94E13BB00
:1025E000A94B28461D8014F0B7FCA849814614F079
:1025F0000BFDA74CA74B074618600021606814F03C
:1026000097FEA0B1A44B636011E098470028E7D182
:102610000CF061FFA14B1B68EB1A1844A04B1B6820
:1026200064339842DCD2F368002BEED1F0E73846F1
:10263000616814F0E1FB0146384614F099FDD4F8C6
:10264000008007464146484614F0D4FB0146384610
:1026500014F0DAFC0146404614F0CEFB206014F082
:10266000BFFE904A904B80B21279A081281A588000
:102670001D809A808D487368984748B98C4B8D4E61
:102680001A68059312F0020F40F01E8100F016BE8A
:1026900000237F4D884E05F10E0232F9132046F8D3
:1026A00023200133032BF4D1304631462A7E6B615F
:1026B00009F00EFAD5F81C800021404614F038FECF
:1026C00078B17E4F3B88002B00F0B980D4F8903071
:1026D000DFF8F0811B7808F10C0505934FF0000935
:1026E00072E095F82030A3B96B616569684F022DDF
:1026F0000CDC07F12403242101FB0531684B404623
:102700001A68013507F083F87D61EEE7012387F849
:10271000203094F82030002BD3D05D4B00225A613A
:1027200065695B4F022DCCDC56F8250014F018FCCF
:1027300007F12403242101FB053107F035F815F0DA
:10274000FFFC46F8250001357D61E9E7D5F800C0BA
:1027500009936146CDF81CC0089014F04BFB099B0F
:102760008346184614F0FCFB0146584614F000FD61
:10277000DDF81CC00146604614F03EFB0346089A93
:10278000194668601046079314F034FB014658461A
:1027900014F03AFCA96814F02FFB079BE8602B604B
:1027A000A860DFF81CB1002346F80A304AF80B3065
:1027B000069B012B26D009F10109B9F1030F08F19D
:1027C000040805F1140547D03B8856F82900B3F5F5
:1027D0007A7F069302BF0023C8F800302B61D8F837
:1027E00000304FEA890A0344C8F8003014F0B8FBFF
:1027F0002B690133012B2B61A8D10023686028606D
:10280000AB60CEE72869012807DD013814F0A8FB8A
:102810000146E86814F0ACFC00E0002015F056FE1C
:10282000059A72B10690104614F09AFB069B014679
:10283000184614F0A5FD20B14FF47A733B800023B5
:1028400012E0D8F800304FF47A7203F5FA7393FB74
:10285000F2F34BF80A30AEE73888012801D10DF0C9
:10286000DFF93B88013BE9E7154956F8232051F889
:102870002310521A46F823200133032BF4D1FDE62E
:10288000182B00206C3600203A370020BD378635E3
:102890005C0700208036002083F9223E8833002028
:1028A000E4160020E8340020880B00206A0700208E
:1028B000F4340020E4360020C8160020343700200D
:1028C00038080020F0070020904B1B78002B00F008
:1028D000F5840CF000FED4F8E8308D4DC31A079350
:1028E000D4F8EC30C4F8E8001F7806934FF0000AE3
:1028F0004FEA4A030893002F3AD056F82A0014F002
:102900002FFB8346079814F027FB824914F07CFBC9
:1029100000218146686814F00BFD58B1384614F068
:102920001FFB7D4914F070FB01464FF07E5014F000
:102930001FFC68604846696814F05EFA0146484624
:1029400014F016FCD5F8008081464146584614F034
:1029500051FA0146484614F057FB0146404614F030
:102960004BFA286014F016FD6C4A089BD05204E024
:1029700056F82A10694A22F81A100AF1010ABAF127
:10298000030F05F10C05B3D16449B1F802A0B1F809
:1029900000900FFA8AF252430FFA89F303FB0322E5
:1029A0008B8864210A93BDF9283003FB032301FBC4
:1029B00003F25B4B1B885B4392FBF3F3523B0C939C
:1029C000059B1B68190706D5564A116819B151684D
:1029D00009B192687ABB544A127802F0100101F0F2
:1029E000FF0661B313F0200629D002F0020303F0C2
:1029F000FF0623B34D4B1B78042B1FD94C4B1B8870
:102A0000B3F5967F1AD34B4B0126B3F9040014F0AB
:102A1000A7FA494B0546188814F0A2FA474914F062
:102A2000A7FB0146284614F0E5F9454914F0ECFAF5
:102A30000025804606E00026012501E000263546F7
:102A40004FF00008079814F087FA324914F0DCFAC6
:102A50003C4FD4F814410590386814F081FA2146AF
:102A600014F0D2FA0890786814F07AFA214614F03B
:102A7000CBFA0990B86814F073FA214614F0C4FA3E
:102A8000284A83460898536801460B931768946850
:102A900014F0BAFA0D900998014614F0B5FA0D9A9F
:102AA0000146104614F0A8F959460D90584614F006
:102AB000ABFA0D9A0146104614F09EF915F006FD8A
:102AC0000D90002E44D040461F4914F059FC28B107
:102AD0004046114914F08EF98046F4E740461B4900
:102AE00014F030FC28B140460B4914F085F98046BB
:102AF000F4E74FF07C51404614F086FA07F0CEF927
:102B0000002114F079F9064623E000BF18370020B1
:102B10004C080020BD378635DB0FC9407A0E0020F7
:102B20000400002004340020E81600209C0E002041
:102B3000980E0020C0160020440B00200000204109
:102B400035FA8E3CC8160020DB0F4940DB0F49C028
:102B50000026002D00F0A180384614F001FA074647
:102B60000B9814F0FDF90546204614F0F9F93946A2
:102B70000446384614F048FA29468046284614F0A0
:102B800043FA0146404614F037F921468046204674
:102B900014F03AFA0146404614F02EF9A349804653
:102BA00014F0EEFB002878D0404615F08FFC01466B
:102BB0004FF07E5014F0DCFA80463846414614F05F
:102BC00023FA41460746284614F01EFA41460546B8
:102BD000204614F019FA964C80462168384614F0C5
:102BE00013FA61680B90284614F00EFA0B9B01460D
:102BF000184614F001F9A1680B90404614F004FA4D
:102C00000B9B0146184614F0F7F8E1680B90384624
:102C100014F0FAF921690746284614F0F5F901463F
:102C2000384614F0E9F861690546404614F0ECF9BD
:102C30000146284614F0E0F80B9B05461946184655
:102C400014F0E2F929460746284614F0DDF901465A
:102C5000384614F0D1F815F039FC0146284614F036
:102C6000D3F900F10048A169404614F0CDF90021E4
:102C700014F0C2F8E1690746404614F0C5F9002196
:102C800014F0BAF8216A0546404614F0BDF9014631
:102C9000304614F0B1F8064601E000252F460C9BA3
:102CA000262B00F286800FFA89F014F059F981463C
:102CB0000FFA8AF014F054F90446BDF9280014F014
:102CC0004FF949468046484614F09EF9214682460F
:102CD000204614F099F90146504614F08DF841460B
:102CE0008246404614F090F90146504614F084F8AC
:102CF0004E49824614F044FB00285AD0504615F045
:102D0000E5FB01464FF07E5014F032FA8246484609
:102D1000514614F079F951468146204614F074F971
:102D200051460446404614F06FF9414B82461A6AF8
:102D300020461146D3F81C800B920C9314F064F9D2
:102D400041460A90504614F05FF9DDF828C001466C
:102D5000604614F04FF80146384614F04DF80C9BCD
:102D600007469B69504619460A9314F04DF90B9A91
:102D700082461146484614F047F90146504614F081
:102D800039F80146284614F037F8414605464846CA
:102D900014F03AF90A9B80461946204614F034F99B
:102DA0000146404614F026F80146304614F024F857
:102DB0000646069B4FF00009D3F80480494640467A
:102DC00014F0DEFA1B4C002838D00D981A4914F084
:102DD000B9FA002838D03946404614F015F905995B
:102DE00014F012F90146D4F8180114F005F8294638
:102DF000C4F81801404614F007F9059914F004F9D5
:102E00000146D4F81C0113F0F7FF3146C4F81C0149
:102E1000404614F0F9F8059914F0F6F80146D4F894
:102E2000200113F0E9FFC4F820010DE00AD7233C8C
:102E30009C1900205C070020C2B8B23EC4F818916B
:102E4000C4F81C91C4F82091069B9868064B1B7827
:102E50005A0705D4054B1A6844F61F639A4207D9EE
:102E60004FF07E5105E000BF3D37002020120020CA
:102E7000A64914F0C9F83946804614F0C5F8D4F8CC
:102E8000181113F0B9FF0146089813F0B5FF294651
:102E90008146404614F0B8F8D4F81C1113F0ACFF8A
:102EA0000146099813F0A8FF31460746404614F042
:102EB000ABF8D4F8201113F09FFF0146584613F0E9
:102EC0009BFF4FF07C518246059814F09DF8054613
:102ED0004846294614F098F829460646384614F024
:102EE00093F829468046504614F08EF8884B824667
:102EF000D3F800B0874B3146D3F80090864B09F1E8
:102F000000401F68854B1D6814F07EF8414608900C
:102F1000384614F079F8089B0146184613F06AFF0A
:102F200051460890284614F06FF8089B0146184651
:102F300013F060FF0146584613F05EFF744B3146B4
:102F400018600A90584614F05FF8514608903846C9
:102F500014F05AF8089B0146184613F04DFF4146FD
:102F60000890284614F050F8089B0146184613F0C4
:102F700041FF0146484613F03FFF664B414618604B
:102F80000990584614F040F851460890484614F00D
:102F90003BF8089B0146184613F02CFF3146089079
:102FA000284614F031F8089B0146184613F024FF18
:102FB0000146384613F020FF574A514610600890EA
:102FC000584614F021F841468246484614F01CF851
:102FD0000146504613F010FF31468046384614F043
:102FE00013F80146404613F005FF0146284613F04A
:102FF00003FFDDF828C0494B61461860054660466E
:1030000014F002F8099A06461146104613F0FCFF28
:103010000146304613F0F0FE089B06461946184656
:1030200013F0F2FF0146304613F0E6FE294606464D
:10303000284613F0E9FF0146304613F0DDFE15F097
:1030400045FA01464FF07E5014F092F80546304B99
:103050002946186813F0D8FF2D4B294618602D4BD0
:103060002F4E186813F0D0FF2A4B294618602A4BC0
:10307000186813F0C9FF284B29461860274B294DC3
:10308000186813F0C1FF254B18600CF055FF296A32
:10309000E86906F081FE244913F0B6FF15F050F8F8
:1030A0003080A86900F1004006F039FE01461F4853
:1030B00013F0A0FE1C4913F0A7FF15F041F8296892
:1030C0007080E86806F068FE174900F1004013F0D0
:1030D0009BFFD4F8241113F08FFE15F031F883B262
:1030E00013F4004F16BF00F56160B380B0802C462A
:1030F0002E6A0F4D3046D5F8281114F041F90D4BCA
:103100001A78C8B142F0080218E000BF0000204160
:103110002800002090190020941900209819002000
:10312000C01600209C1900204C3D0F44DB0FC93F06
:103130005C070020E816002022F00802944F1A7065
:10314000B7F9000013F00CFF8146B7F9020013F045
:1031500007FF8046B7F9040013F002FF2168074615
:10316000484613F051FF61688246404613F04CFF19
:103170000146504613F040FEA1688246384613F0DF
:1031800043FF0146504613F037FEA1698246484688
:1031900013F03AFFE1698346404613F035FF0146DC
:1031A000584613F029FE39468346304613F02CFF6B
:1031B0000146584613F020FEE1680646484613F0E3
:1031C00023FF21698146404613F01EFF0146484611
:1031D00013F012FE61698046384613F015FF014670
:1031E000404613F009FE069B00F100475B78012B77
:1031F00018D1684B1B785B070ED4D5F82C014023FF
:1032000090FBF3F3C01A13F0ABFE314613F0F4FD5C
:1032100014F0C0F8C5F82C01D5F82C01402390FB20
:10322000F3F001E05C4B188813F09AFE014630463B
:1032300013F0E0FDD5F834110646059813F0DCFDD7
:103240000146059813F094FFD5F830418046214699
:10325000304613F0CFFD0146404613F0D5FE01463F
:10326000204613F0C9FDC5F830010646504614F05B
:1032700067FFD5F83851494C297806F041FD23689D
:1032800018442060384614F05BFF297806F038FDBA
:10329000636818446060304614F052FF697806F0A5
:1032A0002FFDA3683E4A184407991368A06019448B
:1032B00011603C4A13680133136003E0002333605C
:1032C0007360B360384BB3F90610384BD3F800E0A5
:1032D000BEF80A2091420FDBB1F5FA6F9EF8075055
:1032E000BFBF8B1A6B43A2F5FA6593FBF5F5ACBF34
:1032F000C5F16405643500E064252D4B2D4AB3F813
:10330000A0C193F9623112689BB2059216460693EA
:103310000022254B4FEA420933F91280059CCCEB81
:103320000803002BB8BF5B42B3F5FA7FA8BF4FF488
:10333000FA73022A4FF0640044D094F81D411CB186
:10334000A342CCBF1B1B002393FBF0F71A4C6FF07A
:10335000630B34F817A00BFB073B013734F9174018
:103360000FFA8AF7E41B04FB0BF494FBF0F4134F01
:10337000544427F809400EEB020424796343104CAF
:1033800093FBF4F364339BB26B4393FBF0F046E0A2
:103390007A0E00203D37002004000020C4330020B6
:1033A00020370020C03300205C2A0020E4340020B5
:1033B000182B00207C150020CC170020B816002008
:1033C0000CFEFFFF94F81E411CB1A342CCBF1B1B97
:1033D000002393FBF0F0AD4C6FF0630A0AFB003B57
:1033E00004EB400704EB4000B7F93C71B0F93E0133
:1033F000002BA0EB070000FB0BFB9BFBFAFB0698E6
:10340000C7EB0B0707FB00F7A148B8BF5B428780FB
:103410009EF8060043439F4893FBF0F064307378B6
:103420006427434393FBF7F39B4C022AA354F37A9C
:103430009A4C00FB03F393FBF7F3A354737D944C76
:1034400000FB03F090FBF7F0954B9854954B0DD192
:10345000E0459F700DDB944DB5F8A221914214DB3D
:10346000B1F5FA6FA8BF4FF4FA610FE0E0459D5443
:1034700004DA34F809305B4224F809300132032AB7
:1034800006F101067FF445AFE5E71146891A4FF4CE
:103490007A735943C2F5FA62B1FBF2F1642391FBEE
:1034A000F3F2DFF854E26FF063003EF8127000FBB5
:1034B000021101323EF9122038B2121A514391FB27
:1034C000F3F33B44E380794B714E1B885F063FD595
:1034D000774B0A20B3F9043093FBF0F0754B1B884F
:1034E000C01A00B213F03CFD734913F08DFD07467E
:1034F00006F048FD8046384606F0D0FC0746B6F98F
:10350000020013F02DFD8146B6F9000013F028FDEE
:103510004146824613F078FD39468346484613F00B
:1035200073FD0146584613F065FC13F033FF414626
:103530003080484613F068FD39468046504613F007
:1035400063FD0146404613F057FC13F023FF7080E3
:103550005A4B1A78500703D5594B08225A613CE060
:1035600058490968C9075CBF42F001021A70564AFF
:103570005649127817075EBF1A7822F001021A70B6
:10358000534A126812F0040F02D05248008870B9F2
:103590005148008808B1960709D4504A1288003271
:1035A00018BF01221AB94E480079632806D90222B1
:1035B0000A701A7822F001021A7005E01B78D80709
:1035C00056BF02230A700B700BF085FF454B1B683A
:1035D000C01A002801DB08F0E9FB434B9B680BB1E4
:1035E0004248984795F89E31284F002B00F088807C
:1035F000BB89B7F85001B0FBF3F03D4B461C1B787C
:10360000B6B2A7F852611BB3B7F954A10023DFF893
:103610007CE034F813800EF5AF7C3CF813200EF5F7
:10362000AB79C2EB080B39F913202CF813800AFB95
:1036300002F132B291FBF2F25A4429F8132001331D
:10364000042BE4D12A4B00221A70AEF8540104E096
:10365000B7F85431013BA7F854310C4A0023B2F9B2
:10366000540100284ADDB2F952612249A1F1080251
:1036700032F9132031F81310424392FBF6F28A1A02
:1036800024F813200133042BEFD139E05C0700202C
:10369000B81600200CFEFFFF44360020A6080020CC
:1036A0005C360020D4160020182B00205012002079
:1036B000C0160020AE0D002035FA8E3C3D370020AC
:1036C000000C014054120020E8160020481200208F
:1036D000F4340020903300206E0D00203437002099
:1036E000E83400204C1200206C360020AA0800208C
:1036F000440E0020BA080020B4170020A2F854316C
:10370000A84EA94B3068012201071A7042D5A18842
:10371000DFF8ECE20BB2002BB8BF5B420E2BA34BE1
:10372000B3F9043031DCA24A128852072DD50A229F
:1037300093FBF2F2BEF80030D21A92B293B20FFAB3
:1037400083FE1EF1B30FBCBF02F5B4739BB2DFF86A
:1037500068E21AB2B32A9EF800E0C4BFA3F5B473BE
:103760009BB21EF0080F95F8622113D052B252425C
:103770005343904A1BB21268527A53436FF01D02B2
:1037800093FBF2F30B44A38004E00A2293FBF2F3D1
:10379000AEF8003010F0140FDFF8689271D0844B4F
:1037A0001B8803F40273002B6BD0834B1B7803F050
:1037B000100303F0FF0E43B1804B95F900121A6815
:1037C000638801FB023363805BE0D9F868317C4A8F
:1037D000D9787C489B7829B3B0F90010B2F906007B
:1037E000421A002AB8BF52429A420EDD764A8842F7
:1037F000C2F800E04FF0010289F86C21C8BF5B42BB
:10380000E2889BB21344E3803BE099F86C312BB122
:103810006E4B89F86CE11A686D4B1A60674B1B6838
:103820000B4423E0B0F90000B2F90620121A82EA34
:10383000E27EAEEBE27E9E450ADD022392FBF3F2CE
:10384000644B1A60644A0123137089F86C310AE0F2
:1038500099F86C313BB15D4B89F86C111A685C4B7F
:103860001A605D4B1970554B1B680344D9F87011F1
:103870000A884988934203DB8B42A8BF0B461A464D
:10388000E280564B1B78ABB14D4BB3F90620B5F82F
:10389000A2319A420EDC524B5B79012B01D0192BDD
:1038A00002D195F8F6212AB90E2B03D0082B1CBFA4
:1038B0000023A3803F4B1B6893F824A1BAF1000FAB
:1038C0002FD03B4B1B889B072BD0464B4649D3F848
:1038D0002080404613F040FDF8B9404606F01FFA3C
:1038E000D7F8741113F090FB14F02AFCB0F5617F47
:1038F000A8BF4FF4617013F033FB3C4913F038FC60
:1039000006F0CCFA0746504613F02AFB394613F06E
:103910007BFB14F015FC80B200E00020E388184423
:10392000E08033689F0640F1CE80214B1B8803F076
:103930003003002B00F0C7801F4B1B78DE0740F1DF
:10394000C2801A4BB3F904000A2390FBF3F013F082
:1039500007FB274913F058FB064606F09FFA8046FE
:10396000304606F00FFB234B07461B68224AD978E6
:10397000224E002974D0DFF890B0B2F90200BBF8F3
:1039800002A006910FFA8AF3C01A05920DF0AEFB61
:103990000699059A4B42984238DB8842A8BF0846F0
:1039A00035E000BFF4340020450E0020C016002092
:1039B000501200207C150020E8160020EC33002077
:1039C0005C2A0020460E0020E8330020500F002023
:1039D000E033002024370020F033002002000020D4
:1039E000182B00209C1900208FC2753CEFB6B04404
:1039F00035FA8E3CB40D0020C60D0020363700206D
:103A0000AC0D00205C070020C20D00201846BBF85A
:103A100000C08244B2F900000FFA8CF21FFA8AFA51
:103A2000801A0793CDF814C00691ABF802A00DF0F0
:103A30005DFB079BDDF814C0984204DB0699034642
:103A40008842A8BF0B4663449BB2ABF800300FFA24
:103A50008AF0059313F084FA059B834618B208E0B8
:103A6000B2F90200059213F07BFA059A8346B2F987
:103A7000000013F075FA39468246584613F0C4FA2E
:103A800041460590504613F0BFFA059B0146184683
:103A900013F0B0F99C4913F06BFB13F07BFC41462B
:103AA0003080584613F0B0FA39468046504613F03D
:103AB000ABFA0146404613F09FF9934913F058FBC7
:103AC00013F068FC7080914BB5F874211868904B26
:103AD0000093904B1D68904B196800F16403A84750
:103AE0008E4B8F49DB7805938E4B1E78032E15D9AC
:103AF000D9F878319D88B5F5FA7F0FD2B4F9040072
:103B0000B1F904700028B8BF40426A42131A9F42BC
:103B100003DB2B18BB42A8BF3B468B80824B1B6844
:103B200013F000620BD1D9F87801E3884F88B1F81F
:103B300000800690B1F904A07C4D144669E10B8821
:103B4000002706933D46D9F87831B946B1F802A06E
:103B5000B1F904B0DFF8F4810793B14541D20FFA0F
:103B60008AF013F0FDF9D8F8081013F04DFA089018
:103B7000BDF9180013F0F4F9D8F8041013F044FA62
:103B8000DDF820C00146604613F036F9079B089027
:103B900093F9020040420BFB00F013F0E1F9D8F872
:103BA0000C1013F031FADDF820C00146604613F026
:103BB00023F913F0EFFB0FA980B221F819000FFAD7
:103BC00085FE01B2714504DC0FFA87FE714502DB08
:103BD00028460546384609F1010908F1100807464C
:103BE000BBE7534BED1B1A68ADB212F4805F06932E
:103BF000DFF85CA138D04F4A4F4E127812F0040F14
:103C00004D4A02BFD2F84012098AA2F83C12D2F8FB
:103C100040224A49108A4A4AB1F8068014680FFACD
:103C200088F7E288811A8F4204DCDAF800202788BE
:103C3000148806E00244974206DBDAF80020648824
:103C40005788A6F83C8215E0B6F93C228A42D9BFD3
:103C50002788DAF80020DAF800206488D9BF1488B1
:103C6000B8465788A04605E0DAF80020B4F8068088
:103C700057881488BAB21FFA84F9C9EB0206B6B2A3
:103C80000FFA85FB30B28345264D2E4962DD0122B5
:103C90000A7013F065F90790584613F061F9079A16
:103CA0000146104613F064FA8346002229788A42BE
:103CB00014D20DF13C0C3CF91200CDF820C0079253
:103CC00013F04EF9594613F09FF914F039FA079A98
:103CD000DDF820C02CF812000132E7E7164AD2F8CE
:103CE0007821507813F03CF9174913F041FA014656
:103CF000584613F045FBB8B336B2022496FBF4F4F1
:103D00004C44A4B227462FE0000020417C1500203F
:103D1000A82C002064000020E4340020241200209D
:103D20001C1700206C18002054120020E00800200E
:103D3000803300203D3700205C0700205C2A0020F3
:103D400010190020E91600200000C842D808002001
:103D5000141900200020087002209BFBF0F009EBF2
:103D60000004171AA4B2BFB2069BDAF800601B6801
:103D700095F8009003F480530793A34B0025B3F903
:103D80003CA2D3F840320693A04BD3F800B04D4587
:103D900080F007810FAB33F815200FFA88F00892F6
:103DA00013F0DEF89A4B2901C95813F02DF913F0DE
:103DB000F1FA23B29842089A03DB3BB28342A8BFD0
:103DC000034613440598934A9BB222F815306900C4
:103DD0001BB208B1B08811E0079870B10698BBF823
:103DE00006E0008ACEEB0000824503DC3088BBF899
:103DF00000E005E0BBF8020000E03088B6F802E021
:103E0000834203DB7345A8BF734618465052013501
:103E1000BDE7B44205F11005DFF8F8B13BD218B2A6
:103E2000089313F09DF855F8181C13F0EDF807905F
:103E300038B213F095F855F8101C13F0E5F8079A0E
:103E40000146104612F0D8FF07900FFA88F013F0E1
:103E500087F855F8141C13F0D7F8079A0146104656
:103E600012F0CAFF069B079093F9020040420AFB3A
:103E700000F013F075F855F80C1C13F0C5F8079A0C
:103E80000146104612F0B8FF13F084FA089B2BF895
:103E900014000134BDE7BBF800300121B1421AB271
:103EA00007D23BF9113001319A42B8BF1A4693B29A
:103EB000F4E75949D9F878810968D9F840C24888A7
:103EC0000BEB46098242C8BF181A544B514A1F686F
:103ED000C8BF80B207F480530693514BD8BF00206F
:103EE000B3F90640494B07F010071D684A4558D002
:103EF0001388069E1B1A9BB222F8023B4EB398F819
:103F000000A0BCF810E0BAF1000F08D1B5F806A087
:103F1000CAEB0E0B5C4502DDF244544514DB7445DC
:103F2000CCBFB5F802E0B1F804E01BB2CCBFB1F8E9
:103F300002A0B5F800A0734503DB5345A8BF534664
:103F40009E4622F802ECD1E77445CCBF6B882B88E3
:103F500024E0059EB1F802E04EB132F902AC8B8844
:103F60009A451BDBF2455346A8BF734616E0B1F8ED
:103F700000A01BB2534503DB7345A8BF73469A46A6
:103F800022F802ACBCF812309C42AFDA0FB18B8839
:103F900004E098F80030002BA8D10B8822F8023CEE
:103FA000A4E720490A788B4602F0040202F0FF03DE
:103FB00042B1154890F84432013BDBB2182B00F2B5
:103FC0003D810BE0184A12789342F2D2174931F83A
:103FD0001300104921F813000133F5E701229A403C
:103FE000134B1340002B00F02981124B0C491B8806
:103FF00013F4807F22D0104B1A88ADF83C205A88E9
:104000009B88ADF83E202FE05C07002010190020AF
:10401000D808002024180020141900208033002024
:104020005C2A00203D3700206C1800206415002019
:104030009920980150120020B8160020B44B1A881D
:10404000ADF83C205A889B88ADF83E20B14AADF8C7
:1040500040301268D40409D5D0F84022B1F90640A6
:10406000128A944202DA5B42ADF84030AA4D4FF416
:104070007A72B5F902304FF4616403F5E16353439A
:1040800093FBF4F3A3F5FA73ADF85430B5F90030AF
:1040900003F5E1635A4392FBF4F2A04BA2F5FA72E6
:1040A0001B88ADF85620A3F2DC53ADF84230D0F8AF
:1040B00040320A881B8AD21AADF844204A88D21AA4
:1040C000ADF846208A88D21AADF84820CA88D21A9C
:1040D000ADF84A200A89D21AADF84C204A89D21A82
:1040E000ADF84E208A89D21AADF85020CA89D31A69
:1040F000ADF8523000238A4A002122F81310013310
:10410000082BF8D1874B88491B68884D0593884B4D
:104110001B680693874B1B78C3EBC30301EB0308B3
:10412000414573D00B7833B103F11502012393405D
:10413000059A134066D0069B11F806EC0E2707FB84
:104140000E37B7F90020B7F9023064209B1A11F935
:10415000022C9BB25A4392FBF0F211F805AC4FEAE5
:10416000530911F8034CC9EB02024FEA4A0616A89C
:1041700092B211F801CC064414B936F81C0C0CE0CC
:10418000B5F9000036F91C6CB04208DA04448442E8
:1041900003DBA6423046A8BF2046288008E007DDA2
:1041A000041BB44203DB8442A8BF044626462E808B
:1041B000D7F80A40012000FA0AF02042B5F9006061
:1041C00011F9040C12B200FB06F04FF0640690FBEC
:1041D000F6F014BF4FF0FF34012490420ADB4FFA8F
:1041E0008CF25A4392FBF6F2C9EB020212B28242FF
:1041F000A8BF02464A4B33F81E9002FB049423F8F2
:104200001E4000E02B800235073189E7484B4A4EBB
:104210001F6800250E2303FB057393F9064036F94A
:10422000023FE8B26343642493FBF4F434800BF060
:1042300069FE01352044082D3080EBD1354F384DD3
:104240003B683B4E13F0200F33D000200BF05AFE9A
:104250002880044601200BF055FE324B68801B6815
:10426000190626D5354B2C4AD3F868321B78012B1A
:1042700023D13168B2F9003091F914E04FF0320CDB
:1042800003FB0EF393FBFCF31FFA83FE91F9063058
:10429000B2F902205B4253436FF0310193FBF1F11D
:1042A00093FBFCF30EEB0102A11873442980184420
:1042B0006880D6F800E0002319E0D6F800E0B2F9F3
:1042C00002309EF906105943322391FBF3F1214449
:1042D00029809EF91440B2F9001001FB04F292FB10
:1042E000F3F21044E4E70133082B2A5328D00E21BF
:1042F00001FB03E135F91300B1F900205C009042A5
:10430000B1F90210EFDB0AB28242A8BF0246EAE727
:104310001C17002080330020C01600202418002025
:10432000340B0020541200201F190020A209002085
:10433000CC15002018190020320B00205C0700204B
:10434000A64CD4F878A19AF90C30A3B994F8448219
:1043500008F1FF33182B74D8DFE803F0377373517B
:104360007373734A73737373735B73737373735180
:104370006773735B3700DFF884924FF0000839F9F8
:10438000020F12F0EDFD964B242101FB083105F0E0
:104390000BFA13F0D5FE32680E2303FB082280B21D
:1043A000A9F80000B2F9003000B29842B2F9022038
:1043B00003DB13B28342A8BF034608F10108B8F13A
:1043C000080FA9F80030DAD1C0E79AF8063013B127
:1043D0000020698908E09BF8003003F0040303F033
:1043E000FF00002BF4D101460EF0A6FC012629E0C7
:1043F0000020E9880EF0A0FC0120298905E00020BA
:1044000029890EF099FC698901200EF095FC02269D
:1044100018E00226B01E35F81610C0B201360EF0B4
:104420008BFC082EF6D106260CE00326F01E35F88C
:104430001610C0B201360EF07FFC072EF6D104260E
:1044400000E000263B689A0602D4B8F1050F0AD1B5
:10445000304629880EF070FC701CC0B269880EF0DE
:104460006BFC0236F6B23B68DB0205D494F88C3361
:104470007BB10BF08DFC0CE0DFF884810025701916
:10448000C0B238F8021F0EF057FC0D2DEED00135EA
:10449000F5E7544B1878002840F0C5813B681D03B0
:1044A00040F1C181504D2B78033B052B1FD84F4B5A
:1044B00093F8143833B1012B09D10DF0F3F8C0F1A2
:1044C0007F0004E0D4F8900303689B689847D4F811
:1044D000943394F898231344B3F5807FA8BF4FF426
:1044E00080738342D4BFC4F89433C4F894032B7808
:1044F000023B092B00F28781DFE813F00A00150068
:104500004C0084009A00B300C5003E015B016601C7
:104510000023C4F89433C4F89C33354B1B68C4F8AB
:10452000A03303236EE1324B1A68D4F8A03364330E
:104530009A4240F26881402010F044F8002840F090
:1045400062814FF040082B4BD4F89C23234F985C9A
:104550001E4680B108F0C4F8D7F89433B8F10108CA
:1045600003F1FF33C7F89433D7F89C3303F1010309
:10457000C7F89C33E7D1D4F89C23184BB25C002ACF
:1045800040F04181C3F89C234FF0FF32C3F8A023D1
:10459000042337E126230093174B492003F10C0233
:1045A000019302925021A3F10A02023308F088FC21
:1045B000002840F028813B684FF0FF3213F0800361
:1045C0000FBFC4F89C33C4F89C03C4F8A023052390
:1045D00004BFC4F8A023072314E100BF5C07002038
:1045E000C80900203F370020900B0020182B002026
:1045F00020120020DC91010846920108320B0020B5
:10460000622A00208A4A022300210093019102912C
:10461000482002F1080308F053FC002840F0F38022
:104620004FF0FF33C4F8A033C4F89C030623E9E03D
:10463000804B072603F10C02019302920096A3F12E
:10464000080247200021043308F03AFC002840F01B
:10465000DA804FF0FF33C4F89C03C4F8A0332E7007
:10466000D1E0754A05230021009301910291532066
:1046700002F1080308F024FC002840F0C480C4F8CC
:104680009C030823BEE040200FF09CFF002840F070
:10469000BA80D4F89C330D2B00F2BB80DFE803F026
:1046A000070B0E1219202C31363A3E4C575B6348EB
:1046B00010F0EEF85AE0624862491AE06248634935
:1046C000634A51E0634B644893F8121893F8132837
:1046D0004AE0624B624893E8060008331B6833E007
:1046E0005C4B0C2193F8EC275E4801FB023393F8F6
:1046F000EE1710F0CDF839E0564B5B48B3F8441193
:10470000F7E7544B5948B3F84611F2E7584B59486C
:104710001969EEE7584B59481988EAE7D4F8A433E9
:10472000D80404D54B4B564893F88211E1E7554B1A
:104730000C22C3F89C2319E0464B534893F886118A
:1047400093F8872193F8853110F0A2F80EE04F48D6
:10475000B4F8A813CDE73B68190507D53D4B4C4885
:10476000B3F88A11B3F9882110F092F8D4F89C3389
:104770000133C4F89C3346E0464B1B689A0115D5BB
:10478000B4F8AC333F4E8BB9D6F8B0330E200F934C
:10479000414B0FA91B68109308F08CF84FF480531D
:1047A000A6F8AA330A232B7008F0DCF808F064F8A6
:1047B00029E094F8B433002BF6D0364B1B689B01EC
:1047C000F2D409232B70F1E7344B1A68D4F8A033E4
:1047D000C8339A4204D91F4B93F814688EB904E089
:1047E0000FF036FF0028F6D10DE0D4F8900306F064
:1047F000ADFB94F8B533C4F89063022B01D10EF0F1
:10480000A0FE01232B700FF00DFF60B101232B7070
:1048100009E00FF01DFF0028F5D04FF48053A4F8F5
:10482000AA330A23EEE7002017B0BDE8F08F00BFDF
:10483000049401081C940108689401081BB701083E
:1048400035B701084AB7010852B7010866B7010831
:1048500072B70108182B00207BB70108E8F7FF1F8B
:104860008CB70108A0B70108AAB70108B9B70108B9
:104870006C360020C8B7010804000020D8B7010832
:10488000E2B701085C070020EFB7010808B801088B
:1048900013B8010854120020883300202012002091
:1048A0002DE9F04FA04BAFB01C780193002C00F025
:1048B000E4809E4B1868002802F04B800BF062F8F1
:1048C0009B4C20680BF040FA002802F042802068E0
:1048D0000BF037FA0928974C01D03F2852D1002716
:1048E000B8462568944E2DB1944831682A4614F094
:1048F000A3FB20B93746B8F1000F00D1B046904B6A
:1049000010369E42EFD34646B8F1000F1DD0D8F8BE
:1049100000C0D7F8009023681CF803E019F80300E2
:10492000704512D15A1C854958B92D2B09D8DFF88A
:1049300004E2CEF800204FF0200E01F803E0885486
:1049400003E001F803E02260E5E723680BB1B84516
:104950000FD07C4810F060F9BE4207D856F8100B13
:1049600010F05AF9092010F044F8F5E706F0BCFA07
:10497000002523689D42A3D2704B585D10F039F892
:104980000135F6E72368002B41F06887042841F0E1
:10499000B9876A4809F0E0FC01F0DBBF3068DFF856
:1049A000C4A10BF0D1F9002850D0DAF800000BF0C8
:1049B000C8F9DBF80030024693F84810002978D196
:1049C000242840F0D780012283F84820DBF800300B
:1049D00093F848000628E1D193F84960502E00F082
:1049E000E28700F2A881342E00F0058500F24681AE
:1049F000242E00F07C8600F21381032E00F05F82EB
:104A000040F2EF80052E40F001811A200FF0DCFF0C
:104A100000264D4B985D01360FF093FF0B2EF8D119
:104A200000264A4B985D01360FF08BFF082EF8D117
:104A30000026474B985D01360FF083FF072EF8D113
:104A40000FF08EFF2B68002283F84820414B186836
:104A50000AF098FF404B93F87D3053B158F80400AA
:104A600006F050FA0BF0E6F905F0BEFA3B4A3C4B73
:104A7000DA604C34982C01F06C87DFF8F48054F83D
:104A8000083004EB0802002BF3D0364E0793336056
:104A90000023354D354F8DF82130DFF8B8901423C1
:104AA0008DF8203006AB2A600697C9F80030AB4677
:104AB00074E7012904D14D2814BF0022022283E7A4
:104AC000022904D13C2814BF002203227CE70329D9
:104AD0000CD140284FF0000102D983F8481075E747
:104AE00058711971D971987104226DE7042906D1A2
:104AF000997983F849004A409A71052264E70529AB
:104B00007FF464AF587919798842987906D9504072
:104B10009871481C18710B441A7257E790420CBFE9
:104B20000622002250E700BF3F370020DC3400207F
:104B300030350020C8150020389C01089815002049
:104B4000189E010830B9010866B7010872B701085C
:104B50004AB70108D4340020140B00200400FA05E1
:104B600000ED00E0D8340020D034002055FD0008CE
:104B7000802A0020D8490B7803F0040303F0FF0ECD
:104B8000002B7FF423AF232ADAF800001CD1029215
:104B9000019A01231370D14B03911860D04B186018
:104BA000986010201873CF485F6083F80DE00433DD
:104BB0000360CD4810F030F806F096F90399029A98
:104BC0000B7843F002030B70C84B1B681B789342B1
:104BD00001BFC74AC74B1A60C74A04BFC74BDA6058
:104BE000F4E6012E00F05F81022E40F06887042079
:104BF0000FF0EAFE43200FF0A4FE4C200FF0A1FEC0
:104C000046200FF09EFE4C2000F03EBFC0F0828197
:104C1000222E40F0548750200FF0D6FE0027CBE321
:104C20002C2E00F0928518D8282E00F075852A2E9B
:104C300000F08585262E40F04287B14E06200FF009
:104C4000C3FEB6F85C010FF0C2FEB6F85E010FF0CD
:104C5000BEFEB6F8600100F0D9BE302E00F0178617
:104C6000322E00F0B2852E2E40F02987A44E40202F
:104C70000FF0AAFE06F1400700F0F8BD422E00F04A
:104C8000BA8520D83A2E00F06A820BD8362E00F072
:104C9000D385382E40F0138704200FF095FE984EF0
:104CA00000F02BBD3D2E00F08D82402E00F094854B
:104CB0003B2E40F0048701200FF086FE914B1B68CD
:104CC000187800F0E1BE492E00F088820ED8462EFA
:104CD00000F00386472E00F04186452E40F0EF8617
:104CE00013200FF071FE002600F081BE4D2E00F063
:104CF0004B854F2E00F069864B2E40F0E086804EAB
:104D000008200FF061FE96F8E0010FF01AFE96F809
:104D1000E1010FF016FEB6F8E2010FF058FE96F82A
:104D2000E4010FF00EFEB6F8E6010FF050FE96F823
:104D3000E80100F0A9BE722E00F0EA8352D8692E75
:104D400000F0F0812AD8652E00F0258115D8522E6A
:104D500000F04886642E40F0B28607200FF034FE43
:104D6000E7200FF0EEFD664B58790FF0EAFD0020CA
:104D70000FF0E7FD042000F045BE672E00F05481DF
:104D800000F2C38112200FF01FFE5F4B00261B882C
:104D9000B3F5806F8CBF0827012726E16D2E00F048
:104DA000D48115D86B2E4E4F00F0268440F2068435
:104DB000564E06200FF008FE30880FF008FE70886F
:104DC0000FF005FEB6F904300A2093FBF0F0F3E192
:104DD0006F2E00F00A82C0F0C781702E00F0608252
:104DE00000F06DBE7D2E00F0158629D8762E00F0DD
:104DF000138409D8742E00F0248340F2C2832F203C
:104E00000FF0E2FD424ECFE2782E00F01981C0F0A3
:104E10005D837C2E40F05386394E08200FF0D4FD80
:104E2000B6F84C010FF0D3FDB6F84E010FF0CFFDF0
:104E3000B6F850010FF0CBFDB6F8520100F0E6BD18
:104E4000A42E00F0118417D8962E76D0A02E00F054
:104E500040847E2E40F03386294E03200FF0B4FDAF
:104E600096F858010FF06DFD96F859010FF069FDA5
:104E700096F85A0100F008BEF12E00F02081FE2EB7
:104E800000F01984F02E40F01A861E4E04200FF018
:104E90009BFD3368B3F866000FF099FD3368B3F8F3
:104EA000640000F0B3BD03200FF08EFD00200FF072
:104EB00048FD01200FF045FD102000F0E5BD304613
:104EC0000FF082FD01200FF03CFD0C200FF039FDAA
:104ED000304600F0D9BD00BF3D37002030350020FE
:104EE000140B0020DC34002060B9010838330020A6
:104EF000EFBEADDEF04F00200400FA0500ED00E04B
:104F0000182B00207C15002004000020C016002073
:104F10008F94010806200FF057FD41200FF011FD7E
:104F200046200FF00EFD4E200FF00BFD41200FF03C
:104F300008FDC54B187800F069BD0D200FF044FD49
:104F4000C24B18880FF043FDC14B188880B20FF098
:104F50003EFDC04B1B68C3F3C000C3F3800280005A
:104F600040EA4200C3F340021043C3F3401240EA58
:104F7000C20003F0100318430FF029FD06F03AFFBA
:104F80000FF02EFDB44B93F8EC070FF0DAFCB34BA7
:104F9000187900F03BBD0B200FF016FDAB4B1888C5
:104FA0000FF015FDAA4B188880B20FF010FDA94B29
:104FB0001B68C3F3C000C3F38002800040EA4200D4
:104FC000C3F340021043C3F3401240EAC20003F0AF
:104FD000100318430FF0FBFC06F00CFF0FF000FD70
:104FE0009D4B93F8EC0700F04FBD9D4B33F9160035
:104FF000013690FBF7F080B20FF0E9FC032EF4D1FC
:10500000984E30880FF0E3FCB0880FF0E0FC308958
:10501000954E0FF0DCFC30880FF0D9FCB0880FF013
:10502000D6FC308900F0F2BC10200FF0CDFC002639
:105030008E4B985D01360FF084FC102EF8D1FFE402
:1050400070200FF0C1FC4FF000090E2606FB09F698
:10505000874F09F101093B683344B3F825010FF08C
:10506000B6FC3B683344B3F827010FF0B0FC3B6853
:105070003344B3F829010FF0AAFC3B68334493F89A
:105080002B010FF05EFC3B68334493F82C010FF0CA
:1050900058FC3B68334493F82D010FF052FC3B68F9
:1050A000334493F82E010FF04CFC3B681E44D6F8B5
:1050B0002F010FF095FCB9F1080FC6D1C0E47020A4
:1050C0000FF082FC644E06F1700796F8D4000FF0E2
:1050D00038FC96F8D5000FF034FC96F8D6000FF0A7
:1050E00030FC96F8D7000FF02CFC96F8D8000FF0A3
:1050F00028FC96F8D9000FF024FC073696F8D30068
:105100000FF01FFCBE42E0D19AE410200FF05CFCCF
:105110000026584B33F8160001360FF058FC082EC5
:10512000F7D18DE4544F00263878400000F0FE009F
:105130000FF04AFC3B789E42BFF482AC4F4B33F8F1
:1051400016000FF044FC0136F4E70FF03DFC4C4B29
:1051500018680FF045FC4B4B188800F057BC042032
:105160000FF032FC484BC0E24FF6FF7607200FF0FD
:105170002BFC464B1888FF28A8BFFF20C0B20FF0B9
:10518000E0FB434B1868B042A8BF304620EAE0700D
:1051900080B20FF01CFC3F4B18880FF018FC2E4B10
:1051A00093F88D213C4B18684AB10A235843B0420A
:1051B000A8BF304620EAE07080B200F027BC00F3C0
:1051C0000F00F9E7244E02200FF0FEFB96F8EC01E9
:1051D0000FF0B7FB96F8EB0100F056BC02200FF081
:1051E000F3FB1D4B988900F011BC2C4E0B200FF0E7
:1051F000EBFB3368374618780FF0A3FB33684FF0AA
:10520000000958780FF09DFB3B68244E4B441879F9
:1052100009F101090FF095FBB9F1030FF4D13368DF
:10522000D8790FF08EFB336898780FF08AFB3368DB
:10523000D8780FF086FB336858890FF0C8FB3368C5
:10524000187A00F021BC00BF3C3700203A3700201C
:1052500004350020F4340020182B0020E83400200E
:105260007A0E0020C816002004340020340B0020E1
:105270007C15002024180020343300205C2A0020F4
:10528000500F0020800E0020B033002010120020AC
:10529000CC110020540F0020940E0020E434002094
:1052A000BE4E1E200FF090FB336800271B78022BA8
:1052B00066D1336807F1080253F82200B84911F0AB
:1052C000A3FE12F03DFF80F30800C0B20FF039FBDF
:1052D0003368B44903EB8703D86A11F095FE12F0E6
:1052E0002FFF80F30800C0B20FF02BFB336807F1EB
:1052F0000E0253F82200AC4911F086FE12F020FF96
:1053000080F30800C0B201370FF01BFB032FD0D190
:10531000072F336821D1586CA14911F075FE12F0A6
:105320000FFF80F30800C0B20FF00BFB33689C49FD
:10533000986C11F069FE12F003FF80F30800C0B210
:105340000FF0FFFA336893F84C0011F005FE12F0ED
:10535000F7FE80F30800C0B20BE03B4458780FF032
:10536000F0FA33683B44D87A0FF0EBFA33683B44E9
:10537000587D01370FF0E5FA0A2FC9D1FFF760BB5E
:1053800033683B4458780FF0DCFA33683B44D87AF2
:105390000FF0D7FA33683B44587D01370FF0D1FA4C
:1053A0000A2FEDD1FFF74CBB16F8010F00283FF490
:1053B00047AB0FF0C6FAF7E7784B0C211E687B4B22
:1053C00006EB870696F88520013701FB023393F838
:1053D00038000FF0B6FA96F886000FF0B2FA96F899
:1053E00087000FF0AEFA96F888000FF0AAFA142F93
:1053F000E2D1FFF725BB48200FF0E6FA0027674B04
:105400001E68062303FB076696F8DA000FF099FA88
:1054100096F8D5000FF095FA96F8D6000FF091FAAD
:1054200096F8D7000FF08DFA96F8D8000FF089FAA9
:10543000013796F8D9000FF084FA0C2FDFD1FFF76F
:10544000FFBA00264FF0010A4FF0000B584B1B78B3
:105450009B4531DA574B4FF000091BF803200C2312
:1054600003FB09F3514F07F13001595C914209D117
:105470003B44586B13F0D7FD0146BAF1000F07D13A
:10548000534607E009F10109B9F11D0FE7D110E01A
:1054900006440EE08B420CDA0C2202FB0972526BBE
:1054A0000391D05C02930FF04CFA029B03990133F5
:1054B000F0E70BF1010BC9E7BAF1000F3FF4C0AA06
:1054C000F0B20FF081FA4FF0000ABDE7384F002626
:1054D00038780FF079FA3B789E42BFF4B1AA354B89
:1054E000002116F803E00C2202FB01F32F4800F123
:1054F000300C13F80C20724505D1034493F83800A2
:105500000FF01FFA02E001311D29ECD10136E2E76C
:10551000294E16200FF058FAB6F8A0010FF057FAEE
:10552000B6F844010FF053FAB6F846010FF04FFAFF
:10553000B6F848010FF04BFAB6F8E2010FF047FA5F
:1055400096F801020FF0FDF900200FF0FAF996F835
:1055500002020FF0F6F996F88D010FF0F2F996F8C5
:105560009B010FF0EEF900200FF0EBF90B4B0A2036
:105570001B68B3F9623093FBF0F080B20FF027FAAA
:10558000BBE008200FF020FA0126F0B201360FF040
:10559000D8F9092EF9D1FFF753BA00BF7C150020C6
:1055A000000020410000C84200007A4490940108A5
:1055B0005812002059120020182B002010200FF044
:1055C00003FAD04BD04E187800F002000FF0B9F972
:1055D000CE4B18780FF0B5F930680FF001FA70680B
:1055E0000FF0FEF9CA4B18880FF0F1F9C94B188873
:1055F0000FF0EDF9388E09E205200FF0E5F9C64B02
:1056000018880FF0E4F9C54B18880FF0E0F997F807
:10561000320000F0010037E20FF076F981461220E7
:105620000FF0D2F9B9F1000F01D1BD4B03E0B9F190
:10563000100F03D1BB4B1F685E6801E000263746A0
:1056400048460FF07EF938460FF0CAF930460FF0A1
:10565000C7F9B54B18680FF0C3F900200FF0B7F980
:1056600000200FF0B4F9C0E1B04F002697F83300E6
:10567000B94680000130C0B20FF0A6F997F83300A8
:105680000FF05FF999F833309E42BFF4D9A9A84FC3
:10569000B85D0FF056F907F11003985D0FF051F95E
:1056A00007F12003985D30370FF04BF9B85D0FF02C
:1056B00048F90136E6E708200FF086F900269D4BF1
:1056C00033F8160001360FF082F9042EF7D1FFF7F8
:1056D000B7B90C200FF078F9974B18680FF080F9E4
:1056E000964B18680FF07CF9954B18688AE10420F6
:1056F0000FF06AF9934B986884E196F882010FF0F5
:1057000020F996F886010FF01CF996F885010FF044
:1057100018F996F88701B7E18A4E07200FF054F97F
:10572000B6F888010FF053F9B6F88A010FF04FF977
:1057300096F88C010FF005F9B6F88E0166E10120AC
:105740000FF042F97F4B58799EE17E4E0C200FF00E
:105750003BF996F898010FF0F4F8B6F8A4010FF0B1
:1057600036F9B6F8A0010FF032F9B6F8A2010FF041
:105770002EF996F89A010FF0E4F8B6F8A6010FF0AA
:1057800026F9B6F8A80141E16F4E704F30784FF01E
:10579000000900EB4000C0B20FF016F93378023771
:1057A0009945BFF44DA917F8020C0FF0CAF817F885
:1057B000010C09F1010900EB800000EB800000F210
:1057C000EE2080B20FF003F9E8E701200FF0FCF8BB
:1057D0005C4B93F89B0157E108200FF0F5F8002689
:1057E000584B334493F8900101360FF0AAF8082E75
:1057F000F6D1FFF725B9534E10200FF0E5F8707978
:105800000FF09FF8B0680FF0EBF896F898010FF0E2
:1058100098F8B6F85C010FF0DAF8B6F85E010FF010
:10582000D6F8B6F860010FF0D2F8B6F888010FF09C
:10583000CEF8B6F88A01E9E0454B424E187806F1F9
:105840002807C0EBC000C0B20FF0BEF896F80802FF
:105850000023404AD25C904200F01A810C333C2B6A
:10586000F7D10836BE42F1D1FFF7EAB8B6F8C00268
:105870000FF0ADF896F8C2020FF063F8043696F810
:10588000BF020FF05EF8BE42F0D1FFF7D9B8E020BA
:105890000FF09AF82B4E06F18007B6F84202043654
:1058A00000F03F000FF093F8B6F83E02C0F3861008
:1058B0000FF08DF896F83C0200090FF042F896F8C8
:1058C0003C0200F00F000FF03CF896F83D020FF09C
:1058D00038F8BE42E1D1FFF7B3B80D200FF074F8ED
:1058E0000AF0E3FD1C4E40F00200C0B20FF029F8B0
:1058F00030880FF075F8F0680FF072F80BF0DAFDF1
:1059000080E000BFE8160020A00E00209C0E0020C2
:105910009A0E0020980E0020100F0020120F002079
:10592000580F0020B80D0020E0330020140B002099
:10593000480B0020880B0020E8F7FF1FECF7FF1F43
:10594000F0F7FF1F182B002034330020C22C00205A
:10595000800F002040330020180000200EF0E8FFE8
:10596000074684200FF030F838460FF039F8C54B61
:105970000DF13809DE6807F18003B3428CBFF61BD6
:1059800080260BF051FE3846324649460AF0C2FDE9
:1059900007460026BE42BFF653A819F806000EF0CF
:1059A000D0FF0136F6E7B84E04200FF00DF80120C5
:1059B0000EF0C7FF96F814080EF0C3FF96F8120811
:1059C0000EF0BFFF96F813085EE00B200EF0FCFF10
:1059D00000200EF0B6FF00200EF0B3FF00200EF006
:1059E000B0FF0BE001200EF0EFFF00204CE0A74BD2
:1059F000985D01360EF0A5FF0B2EF8D100200EF0B9
:105A0000EFFF00200EF0ECFFFFF71AB80EF0DFFFFB
:105A1000FFF716B89E4E03200EF0D6FF336893F8BA
:105A20001D010EF08EFF336893F81E010EF089FF02
:105A3000336893F81F0127E040F2FF84F22E00F054
:105A40007D8540F29E85F32E40F0FD860EF05CFFD2
:105A5000FF28904F40F01E86002607F18000314657
:105A6000602287F87E6013F08CFA8DF817609DF83D
:105A7000173097F8E220874E9A4200F2A385012062
:105A80000EF0A2FF96F87E000EF05BFFFEF7D8BF87
:105A90000EF057FFB6F80A020EF099FF96F80C02C6
:105AA0000EF04FFF96F80D020EF04BFF96F80F0226
:105AB0000EF047FF96F80E020EF043FFD1E6512E8E
:105AC00032D1744B93F87C30012B28D80EF01CFF98
:105AD0006D4E86F814080EF017FF86F812080EF0C7
