:020000040800F2
:1000000000500020357F0108D17F0108D956010832
:10001000D17F0108D17F0108D17F010800000000D5
:10002000000000000000000000000000D17F010877
:10003000D17F010800000000D17F0108259200084F
:10004000D17F0108D17F0108D17F0108D17F01084C
:10005000D17F0108D17F0108E1150108DD150108F4
:10006000D9150108D5150108D115010859960008C0
:1000700051960008499600084196000839960008F4
:100080003196000829960008D17F0108D17F010828
:10009000D17F0108D17F0108D17F0108CD1501086A
:1000A000D17F010871D90008D17F010881D90008EA
:1000B00061D9000851D9000841D90008BDE80008FD
:1000C000BFE80008B9E80008BBE80008D17F0108D4
:1000D000D17F010881070108750701086907010838
:1000E000C9150108D17F0108D17F01080000000077
:1000F0000000000000000000000000000000000000
:0C01000000000000000000005FF808F1A3
:100110008E4A8F4B2DE9F04F1A608E4B00241C60E5
:100120008D4A8E4BA7B01A608D4B01225A708D48B4
:100130009A7060211E2214F04DFD40B18A4B8B480D
:100140001C608B4B214680221C6019F060FB894C9F
:1001500000212822204619F05AFB2046864A2546CF
:100160001388591C118020F8083B2821032214F021
:1001700031FD78B14FF47A73636001230093082056
:1001800000217E4A234612F001F9606210B17C4BD7
:10019000036009E0686A20B112F0D2F8754B0022C2
:1001A0005A62784815F027FF774B1B78702B02D1E5
:1001B00013F046FE18B907F055FE07F061FD07F091
:1001C0002FFF724A724D1378724F43F00103137080
:1001D00000230B930C930D934FF4E0130E932B68B5
:1001E000397843F480332B60AB6943F01003AB6183
:1001F0002B6803F400330C930B9B01330B930C9B84
:100200001BB90B9BB3F5A06FF2D12B68604813F4B8
:10021000003301D0022315E0026842F001020260BF
:100220000B932B6803F002030C930B9B01330B938E
:100230000C9B1BB90B9BB3F5A06FF2D12B689C07ED
:100240003BD501230D93544B54481A68814642F024
:1002500010021A601A6822F003021A601A6842F04B
:1002600002021A606B686B606B686B606B6843F4CA
:1002700080636B604A4B1A68043B22F070425A60FC
:10028000484A02606A6822F47C126A605A6842F046
:1002900000425A60DA6822F40042DA609B6813F484
:1002A000004F17BF404B4FF4E01303604FF480132F
:1002B0000E930D9B012B01D117E0FEE7022B18D105
:1002C00069B10E9BB3F5801F02D14FF4A01305E076
:1002D0000E9BB3F5E01F02D14FF400130E930E9A5C
:1002E0006B68134343F4803302E06B6843F460139C
:1002F0006B602B6843F080732B602A68244B90015D
:10030000FBD55A6822F003025A605A6842F0020292
:100310005A606B681E4A03F00C03082BF9D153682E
:10032000224E03F00C03042B03D0082B04D01D4BEA
:1003300048E0D9F8003045E053685168C3F383437F
:10034000C90303F1020335D4194A3AE08B37010897
:100350004C35002048350020478F0008003400202D
:10036000081A0020243400202034002038390020CE
:10037000B8390020101A002084010020211F010834
:1003800024B90108181A002000F0010818390020CB
:1003900000100240B002002000200240880100202E
:1003A0000410014000127A00001BB7003C0200203C
:1003B00000093D00526812F4003FD9F8002018BF30
:1003C0005208534333606B68DFF8B882C3F30313FA
:1003D000434493F848203368DFF8ACC2D34033601D
:1003E0007B78DFF8A8A2003318BF0123BB70904BC5
:1003F00026ACCCF80C30AB69CDF810C043F001034B
:10040000AB616B6ADFF888B2CAF800306B6A002211
:1004100043F080736B62AB69584643F01C03AB61D9
:100420004FF6FF7324F82C3D21468DF86E20039281
:1004300010F0FDFA7F48214610F0F9FA7E48214677
:1004400010F0F5FA10238DF86E304FF4007102238E
:100450008DF86F300293ADF86C105846CBF8101041
:10046000214610F0E4FA48218DF86E100421ADF811
:100470006C105846214610F0DAFA4FF48061ADF85E
:100480006C106C48214610F0D2FA6C48416841F07B
:1004900000714160204616F08DF91B996848DDF81F
:1004A00010C0B1FBF0F16748016031684FF47A7019
:1004B000B1FBF0F1644801394160F0218CF8231060
:1004C000039A6249826007220260D9F80020CDF8C1
:1004D0000C808A425E46029B03D15D4B01221A705A
:1004E00004E05C498A4204BF594A13705A4B5B4A84
:1004F0009B4612685A481A6000215A4B8A0202F140
:10050000804233F811C002F5843200234CFA03FE16
:100510001EF0010F1CBF4FF0010E0EFA03FE03F197
:1005200001031EBF0260A0F804E00830102BEDD1DB
:1005300001310329E1D1F9784B4A02931170AA697C
:10054000002142F00102AA614848402219F05FF9F7
:10055000FF210722464819F05AF9A969029BDFF8E2
:10056000D4900222DFF82C8141F008018DF86F2031
:1005700002928DF86E300493A9610821C8F80090AA
:100580004846A8F80410ADF86C10C9F810102146C0
:1005900010F04DFAA969049B41F00801A961484691
:1005A000C8F80890A8F80C30ADF86C302146C9F8AE
:1005B000103010F03CFA264B029A19788DF86F2013
:1005C000AA6902294FF4805034BF14211021ADF8DC
:1005D0006C0042F0040200F180408DF86E1038BFCC
:1005E0004FF00009AA6128BF4FF0010900F57840DB
:1005F000214610F01CFA1F4AB9F1000F01D01E4924
:1006000000E01E490020116010F056FCDBF80020CD
:1006100013074AD51A4A117A9146012945D8917A89
:10062000DAF8002012F0805200F005863DE000BFAD
:100630000005FA05000C01400010014000000140D7
:1006400040420F00FC19002010E000E000127A0088
:10065000973A0020001BB7007C330020040B0020D9
:100660007C310020F4B5010801140020AC1C0020EE
:10067000EC1C0020783A0020F90D01080D0E01084D
:10068000A43300205C99010800ED00E02433002031
:100690000008014054360020DAF8003013F080538F
:1006A00003D1C04A937207F0ADFE642008F061FDEB
:1006B000A022BD48002119F0AAF8EB69002243F0FE
:1006C0000703EB61AB6943F4006343F00C03AB61D8
:1006D000B64B4FF00009191D02F8019001320E2AA5
:1006E000F6D1FF229A74DA741A755A754946B048E1
:1006F0003C22DBF800A019F08AF84946CAF38015BD
:100700000523AC4ADFF8A8E2885C0C224A4302F8D1
:100710000E0045B91E3801289FBFFF2003F1FF33AB
:1007200002F80E00DBB201310529EAD1A24AA34941
:100730001370A34B9D4ABB61A24B1AF0200F1960A6
:10074000A14B93F80090A14B03EBC9035B7818BF52
:100750000123D361002240F2DC519D4B23F812109B
:100760000132082AF7D114A800211C2219F04FF8F1
:100770001AF4007B0AF4006827D0B8F1000F08D003
:10078000944A927902F1FF3EDEF1000242EB0E0242
:1007900000E042461AF4015F07D18F490B46A1F1F0
:1007A0001400002A18BF034600E08C4B0293029B02
:1007B0005A6810921A88ADF84420DA6812921A89A1
:1007C000ADF84C2010AA1A9201E0CDF808B0B9F1AA
:1007D0000E0F03D009F0EF02082A02D101228DF892
:1007E0006220012008F002FC8DF85500022008F07C
:1007F000FDFBCAF340028DF85720CAF340328DF852
:100800005020CAF3C0328DF856008DF859508DF83B
:100810005320B8F1000F05D06E4B9B79581E434210
:10082000434100E043468DF85430CAF300438DF84D
:100830005A30FB691BF1000B18BF4FF0010B00335E
:1008400018BF01238DF85C30CAF300538DF85D307A
:100850003B8C0AF00109ADF860307B8CCAF3C0050F
:10086000ADF85E30CAF380438DF858305C4B8DF89C
:1008700051901F898DF852508DF85BB0ADF86470BF
:100880000BF0DEFAB7F5FA7F8CBF0023ADF86600F7
:100890004FF0000153484FF0780288BFADF8663042
:1008A00018F0B5FF9DF86230002B0CBF0023022327
:1008B000B9F1000F00D105B10133039A4FF0000BDD
:1008C00002EB8308D8F858309A1E1A330392049327
:1008D000039B33F8022F03934FF6FF739A4200F005
:1008E000E3819DF85510D3B2120AD7B261B13E48E8
:1008F00000EB03104168B14206D10189042900F0E0
:10090000CE81082900F0CB819DF8561079B1364888
:10091000364D00EB03104168A94208D10189B1F5B9
:10092000806F00F0BC81B1F5006F00F0B8819DF8D8
:10093000591031B12C48190140582D49884200F016
:10094000AE819DF85A0030B1274D19016D582849E4
:100950008D4200F0A481DDF868E0BEF1000F1BD0ED
:10096000214DDEF8001005EB0318D8F804C08C45C3
:1009700006D1B8F80880BEF80410884500F08F81D1
:10098000DEF808108C4507D105EB03152D89BEF85C
:100990000C108D4200F08381022A2BD19DF850204B
:1009A0002CE000BFA4330020981D0020B0020020DE
:1009B0003C0B002086BA0108001A00209C09002088
:1009C000C41E0020641D002024090020009C010892
:1009D00088090020380A0020709901085C990108F4
:1009E0006C0A0020F80C002044B80108000C0140FB
:1009F00000040040012A04D19DF85120002A00F093
:100A00004E819DF85C20BF4D4FEA031862B19DF8FE
:100A100062204AB9A3F10802012A05D855F8082036
:100A2000B9498A4208BF04279DF85D20454452B168
:100A30009DF862203AB910B10C3B012B01E0043B58
:100A4000032B40F20881012F57D1AE4ADFF8C8923C
:100A500002EB0801FF2391F80DE0486889F868303F
:100A600089F8693001F1080309894FF0000AADF8EF
:100A70006C1002218DF86F1089F870A01BA9C9F8BD
:100A80007C508DF86EE00692059389F824A0C9F891
:100A900028A0C9F82CA0C9F830A0C9F864A089F82A
:100AA0006AA089F86BA089F86CA00FF0C0FF059BC5
:100AB000069A997852F8080052460FF0C4F9284671
:100AC00051463A460FF04AF8904B09F18001C9F8B7
:100AD00080308F4B09F18402C9F88430C9F888A0AE
:100AE00028460FF081F88B4B20219A7803EBC20245
:100AF00051721A7901321A71CDE0022F56D15FFA84
:100B00008BF31C2101FB03FC834B4FF0000903EB2B
:100B10000C0A01238AF8703006937A4B8AF871B078
:100B200003EB080191F80DE001F10802486809891A
:100B30008AF87290ADF86C108AF87A901BA9CAF8FE
:100B40007C50CDF81CC08DF86EE005928DF86F706A
:100B50000FF06DFF6B4B059A53F8080091784A46E9
:100B60000FF071F9069B28461A4649460EF0F6FF2B
:100B7000694B6A4ADDF81CC0CAF8802003EB0C01FF
:100B8000674A8031CAF88420CAF888900A1D28462E
:100B90000FF02AF85F4B40219A780BF1010B03EB21
:100BA000C2025172DA780132DA7074E0032F50D148
:100BB0009DF85830574F93B14FF6FF7200232846E7
:100BC000082197F801800DF047F9564B192243F898
:100BD0002800554BC360BB7807EBC3032DE0BDF87D
:100BE000642097F80180B2F5FA7F13D94F4B28465D
:100BF000B3FBF2F2082192B2BDF866300DF02CF989
:100C0000484B0D2243F82800494BC360BB7807EBE3
:100C1000C30312E0474B2846B3FBF2F2012192B224
:100C2000BDF866300DF018F93E4B092243F8280054
:100C30003D4BC360BB7807EBC3035A72BB787A782D
:100C4000013307F8332007EBC30301325D607A708C
:100C500021E0042F23D1BDF85E20364B2D4F93FBAE
:100C6000F2F2012192B2BDF86030284697F8008078
:100C70000DF0F2F8284BBA7803EB8803013207EB4A
:100C8000C201C3F850010A234B703B784D6007F84E
:100C9000323001333B701F4A937801339370039BCA
:100CA000049A93427FF414AE1A491B4A0978224BE6
:100CB00082F87011214900250E781D70A6F11701E8
:100CC0000229914698463DD8D9F818300021585944
:100CD00003EB050A16F0C6FD20B1D9F81C30002B35
:100CE0004CD146E0164F9AE80F002F4487E80F00DA
:100CF00098F8003010350133C02D88F80030E3D16A
:100D0000EBE700BF44B80108002C014069F6000879
:100D1000E9F70008F80C0020B002002085FE00086A
:100D20003FF60008681D002029F8000800127A002C
:100D300039F8000840420F00B61B002024090020AB
:100D400004140020924B13F836E003EBC603D3F8EB
:100D500004C088F800E0BCF1000FBED07545BCDAD5
:100D60008C4F2B011F4463440FCB013587E80F00E4
:100D7000F4E7894F3B68D90424D41DE0874B884AA7
:100D800013F8360003EBC6035D681070002DF0D039
:100D900000238342EDDAC3EBC3016A18D2F800C026
:100DA000DFF828E2013341F80EC001EB0E0791880D
:100DB000B9809279BA71ECE706F0EF03082B794B12
:100DC00025D126E098F80030012BF5D9764D05EBBA
:100DD000031303F1100810354545EDD055F8100CFC
:100DE0004FF07C5116F0AAFB4FF07C5145F8100CE7
:100DF00055F8140C16F0A2FB4FF07C5145F8140C7A
:100E000055F80C0C16F09AFB45F80C0CE3E70E2E87
:100E100008D11A78182E42F010021A7008D10AF080
:100E200075FF05E01A78192E22F010021A70F5E706
:100E30000BF032F83B685D4D5A035EBF5C4B0122FC
:100E40001A705C4A5C4E13784FF0030943F00403B8
:100E500013705A4B4FF0040A93E80300AB6984E81F
:100E6000030043F00803AB611B981CA90FF0DFFDE2
:100E7000EB69214643F48043EB612B69304643F430
:100E800080432B6118238DF86E304FF42043ADF86A
:100E90006C308DF86F900FF0CAFD4FF480432146FF
:100EA00030464FF48058ADF86C308DF86EA00FF0DE
:100EB000BEFD2146102330468DF86E30ADF86C80B3
:100EC0000FF0B5FD2B693E4A43F480432B612B693B
:100ED000322023F480432B611388AB4603F4415343
:100EE00043F4457343EA09031380938B23F40063AF
:100EF0001B041B0C93830723138213889BB243F0BC
:100F0000400313809F23C6F810808DF83C300023E7
:100F10008DF83D308DF83E308DF83F3008F029F9DE
:100F200020465246C6F814800FA913F0ABFEC6F84F
:100F300010809DF86E309DF86D201B0243EA02433D
:100F40009DF86F201F4C13431F4A934213D0322049
:100F500008F00FF9C6F81480F52013F0C1FEFF2049
:100F600013F0BEFE7028C6F8108004D12378022B3F
:100F700008BF84F800902378032B0CBF1F200220A9
:100F800008F007F82378032B22D013F04FFE24E05B
:100F9000009C0108041400207C33002024A50108D3
:100FA000F31C0020880A00200C14002000100240CE
:100FB000CC15002018390020000C0140C49901080C
:100FC00000380040973A002015202000F41C002033
:100FD000022008F00BF80028D7D03B68002113F45A
:100FE000004F03F00202C3F3C02343EA0203227856
:100FF00014BF04250025AD4C012A8CBF0822002215
:101000002B4343EA02052046102218F000FC4FF65D
:10101000FF730222ADF83C30002715F001038DF874
:101020003E208DF83F700CD0A1480FA9ADF83C20B0
:1010300015F06AF809232370072201236770A37053
:10104000E2701E46AB070FD510239A480FA9ADF8E2
:101050003C3015F059F8042301222371A271731C4E
:1010600007226671E271DEB26F070ED50223914846
:101070000FA9ADF83C3015F047F80123F2182372A0
:10108000A37207236672E372D6B22D070FD5202311
:1010900088480FA9ADF83C3015F036F80523012239
:1010A0002373A273731C07226673E273DEB2DBF84C
:1010B0000430814843F44043CBF80430DBF814306B
:1010C000002543F00103CBF81430DBF818307A4FD9
:1010D00043F40073CBF8183015F0E1FB1BA815F0B2
:1010E000B3FB764B012E1B93754B1BA91C9394BF2E
:1010F0002B46802320934FF4807321934FF4806319
:1011000022932023239338464FF4005324931D95B4
:101110001E961F95259515F0A4FB3B68694943F081
:1011200001033B604A68012E22F4702294BF002321
:10113000012322F4807242EA03224A608B68624AE9
:101140001A4042F4602242F002028A60CB6A23F421
:101150007002731EDBB242EA0353CB6229460123BD
:1011600062189078002851D0655C581C092DC0B2D7
:10117000D278544F10D9A5F10A06D7F80CC006EB67
:1011800046064FF0070E0EFA06FE2CEA0E0EB2408F
:101190004EEA0202FA600CE03E6905EB450C4FF0A6
:1011A000070E0EFA0CFE26EA0E0602FA0CF2324385
:1011B0003A61062B434E0CD8013B776B03EB83035C
:1011C0001F229A4027EA020205FA03F313437363CE
:1011D0001BE00C2B0CD8DA1F376B02EB82021F23AB
:1011E000934027EA030705FA02F33B4333630CE01D
:1011F000A3F10D02F76A02EB82021F23934027EA54
:10120000030705FA02F33B43F36203460431102956
:10121000A6D12C4B9A6842F480729A609A6842F088
:1012200001029A609A6842F008029A609968254A19
:1012300008074DD5FAE7013909293FF636AAD8F84B
:101240000810B8F80C00029248612049086821464D
:101250001B9018480FF0EBFB082131613C2007F090
:1012600088FFD8F80810B8F80C00029A086199F8BD
:101270000A108A42BFF610AAD8F80010B8F8040085
:1012800004920861082171617820029107F066FFDD
:10129000D8F80000B8F80430029943613161782031
:1012A00007F05CFF049A0132E1E700BFE419002077
:1012B000000C014000080140080002404C2401409D
:1012C000F419002000240140FDF7F1FFCC9901083A
:1012D000936843F004039360AC4B9A6812F00402E5
:1012E0000392F9D19A6842F4A0029A60A84AB2F92E
:1012F000003099B20591002941F00280B2F9021044
:10130000002940F0FD87B2F90420002A40F0F88758
:10131000A04AA14C12782046012A04929EBF9F4AFF
:101320000021917200217422069318F070FA4FF098
:101330007E526260A260E260954A0598B2F902505E
:10134000B2F90470A9B2BAB2069B18B911B9002A51
:1013500000F08880012284F84C2018B216F09AF828
:101360008F4916F0EBF88F4916F09CF9064628B223
:1013700016F090F88A4916F0E1F88A4916F092F9C9
:10138000054638B216F086F8854916F0D7F8854933
:1013900016F088F98146304612F064FC80463046EB
:1013A00012F0ECFB0646284612F05CFC0746284685
:1013B00012F0E4FB0546484612F054FC82464846CB
:1013C00012F0DCFB41468146504616F0B7F8414624
:1013D0000590484616F0B2F851460690304616F091
:1013E000ADF849460790304616F0A8F839460890FF
:1013F000504616F0A3F84946206507F1004016F064
:101400009DF829466065A565079816F097F801468E
:10141000069815F08BFF2946E065089816F08EF8BF
:101420000146059815F080FF3946206606F1004018
:1014300016F084F829466066059816F07FF8014694
:10144000089815F071FF2946A066069816F076F800
:101450000146079815F06AFF4146E066384616F0E7
:101460006DF8206700210C224F4818F0D0F90021B8
:1014700014224E4818F0CBF94D4B049A03F1100793
:10148000012A98BF1F464B4C4B4D002631460C227B
:101490002670667005F5BA7018F0B9F92320C5F802
:1014A000807107F066FE752001210DF12A020EF011
:1014B00075FEB8B1414B3046C5F87831404B01213B
:1014C000C5F87C310DF12B02432385F874310EF001
:1014D00065FE9DF82B3003F07E038DF82B3000283D
:1014E0004BD177E095F8843163BBDBF81830354E8B
:1014F00043F00803CBF8183010238DF86E304FF40A
:101500008057032330461BA98DF86F30ADF86C70FF
:101510000FF08DFA2C4A3761138823F040031B0427
:101520001B0C1380138823F038031B041B0C43F09F
:101530000803138013889BB243F0400313800123F8
:1015400085F884311BAA752001210CF05FFC9DF801
:101550006C30A3F17002012A03D9AF2B01D0122BFA
:101560007ED105232370432385F87431174BC5F8CA
:101570007831174BC5F87C3172E0682B2AD10123F2
:1015800023701D2385F874316AE000BF00240140F8
:10159000080B0020973A0020CC350020741800205A
:1015A000DB0F494000003443580900206018002038
:1015B0008499010856190020B00200209D010108FD
:1015C0001D010108000C0140003800400DDE00083C
:1015D00039DE00089DF82A3003F07E03682B8DF871
:1015E0002A3039D10223062023701BAAD5F878317E
:1015F000014698479DF86F309DF8712003F0010374
:101600005B0002F0010243EA82029DF86D3003F0B4
:101610000103134311D05AB2012A01D1002302E081
:10162000022A02D1012363701AE003F00303032BA3
:10163000F8D0032007F0A7FD12E0A44B0C20D3F84C
:10164000783101210FAA98479DF83C3013F00F0321
:10165000EFD0042BE6D1E1E7702B04BF0423237005
:101660009B4A002313702378022B09D199499A4889
:1016700008609A4848609A48C8600121117023E0C8
:10168000012B0BD1934997481370086093480423AA
:101690004860954888609248C86015E0042B07D1DF
:1016A0008C4B92491960924959609249996006E0C1
:1016B000052B13D1874B8D4919608849596088499A
:1016C000D9600123137007238B4A13708B4A136868
:1016D00043F00103136007F0ABF810B9012007F0E5
:1016E00052FD874A0A26137843F002031370854A95
:1016F0001446936891895961136891881961A268A9
:10170000A189D36819204B40D3602268A188D3688F
:101710007C4F4B40D36007F02CFD01200FF0CCFB39
:10172000192007F026FD00200FF0C6FB731E13F0F2
:10173000FF06E4D13B68BA88734E1A61BB68BA8968
:101740001A616E4B1A68984612F0020F0CBF012303
:101750000723510748BF43F00803316812F00A0F0E
:1017600043F0006318BF43F070038A0648BF43F09C
:1017700080030F06654F48BF43F4C063387800F01C
:10178000EF02082A01D00E2801D143F40063CC03F4
:101790004CBF43F4A04343F480534A0748BF43F48B
:1017A00080334C0543F4802204D5594C24780CB185
:1017B00043F440228C0548BF42F40012182808BFA9
:1017C00042F0E072CB0548BF42F0806242F48014E0
:1017D0004FF000094FF0010A0AFA09FA1AEA040F59
:1017E0005FFA89F004D006F0C3F908B924EA0A04C4
:1017F00009F10109B9F11D0FECD1464B00211C6024
:1018000050224548334C18F002F80021502243483A
:1018100017F0FDFF07F002FE228A414BDFF84891E6
:1018200093FBF2F33F4A9BB2D27ADFF840A15343D5
:10183000D9F80000CAF8003006F040F997F90C30EA
:10184000DAF800A0002B32D1374B1B68187B15F05B
:1018500021FE364915F072FE12F004FA344B33497A
:101860001860E06815F06AFE324B334C1860334B59
:10187000188915F00FFE0146314815F013FF314964
:1018800015F010FF304B18600AF014FB2F490023AD
:1018900061602F492F4AA1602F4913800B702F4997
:1018A0009370098A2E4A1FFA81FC126860E04FF09B
:1018B000000B2C48B968584452460BF11C0B12F02F
:1018C00081FABBF1E00FF4D1BEE700BFB002002007
:1018D000993A002060180020C505010831FF000872
:1018E00090C1793D05000108F9FE00089503010843
:1018F0004D000108C1FF00088C01002038090020BC
:1019000018390020543600207C33002024090020A0
:101910009011002044090020F40700204408002012
:1019200040420F00741800202817002035FA8E3C22
:101930006835002058350020C433002058090020A5
:101940000AE81C4100401C46F832002031EC000837
:101950002DEC0008D823002083120020A43300209F
:10196000640A0020EC140020600A0020743A002071
:10197000DFF840A3A748DAF800E0DFF83CB30EF543
:10198000967E20F813C04BF823E00133122BEFD1E1
:10199000D6F800E01EF4805F04BF9F4BB3F816C07A
:1019A000A0F806C002F1500C1378A3B99378D07850
:1019B000834210D20BB1013B00E0431C03EB8303D5
:1019C000507803EB830303F56173DFF848B29BB2F1
:1019D00004302BF8103004326245E5D11EF0080FB8
:1019E00000F0DB808C4A137A9346072B00F2CF80FD
:1019F000DFE803F0040407314A688CB010F06CFB98
:101A0000C4E00A23090191FBF3F10023A1F5B061C1
:101A1000824A42F823100133122BF9D1237042F687
:101A2000F82363807E4B402063607E4BA36007F009
:101A3000FBFA002800F0AB809BF809300122002B54
:101A400014BF0723062390F9000040218DE80C0005
:101A5000754A764B95E01023237042F6F823638095
:101A6000734B40206360734BA36007F0DDFA0028DE
:101A700000F08D8001234FF0000C90F90000402110
:101A80008DE808106C4A7AE00823237042F6F823A8
:101A900063806A4B40206360694BA36007F0C4FA1F
:101AA000002874D001234FF0000E90F9000040216F
:101AB0008DE80840634A4FF4E13307F068FCC5F84D
:101AC000880160E0604A00251570604A2321157086
:101AD0005F4A102315705F4A237011705E4A4020E0
:101AE000137042F6F82363805C4B63605C4BA36029
:101AF00007F09AFA00284AD0012390F9000040210B
:101B00008DE82800574A4FF4E1331DE042F6F822F1
:101B10006280554A00256260544A0C23A260544AF0
:101B200040201570534A23701570534A1570534A5C
:101B3000137007F079FA50B3012390F90000504A6E
:101B40008DE828004F4B402107F021FC401B18BFB7
:101B500001201BE00A23237042F6F82363804A4BDE
:101B600040206360494BA36007F05EFA78B101231F
:101B7000002590F900008DE82800454A40214FF4E7
:101B8000E13307F004FC003018BF012028B9082019
:101B900009F042F83F4A404B5A603368580408D570
:101BA0001222227044F6206262803C4A62603C4A03
:101BB000A26042F201021A407AB144F62061364A2C
:101BC0005180990403D508211170364904E0DD07DE
:101BD00003D50C211170344951601C0640F19D80E1
:101BE0000025324C29461522314865706560A56094
:101BF00017F00DFE28460BF0C9FBDAF80030022082
:101C0000E36007F011FA002858D1802009F004F8A9
:101C10007FE000BF80330020A43300203023002069
:101C20003DEA00086DEA000865EE0008A0860100A4
:101C3000A1E90008B5E90008B9ED000825E90008A8
:101C400039E900086DED00086817002051180020E0
:101C500050180020691700208D1700205D840008AF
:101C60006D840008B98600087D8500089585000808
:101C7000F217002015180020161800201718002051
:101C80009D87000890D00300058500081585000891
:101C90005187000831EC0008C433002001EC000833
:101CA000EDEB00081DEC00080DEC000828330020C7
:101CB0003C0400206C360020CC120020457963786B
:101CC000C5490C2202FB03125278AA4204D0013308
:101CD000DBB2042BF4D900236370C04B62781B780D
:101CE00090F90000002B4FF00C0303FB021314BF0C
:101CF0000325012500225B7800950192022107F05F
:101D000046FBB74B186000283FF47FAF01200BF073
:101D10003DFBD9F800000BF0E1FB336898057DD559
:101D2000B04C029B0021202204F5D4704FF0000932
:101D3000C4F8A43117F06BFDCDF8009020203221BB
:101D4000A94A04F5D47310F021FB2546C4F8B40168
:101D5000002848D0A54A0260A54A1388591CA4F857
:101D6000B031A44B1180C4F8B831A34B3221C4F870
:101D7000A831A24BC4F8AC3110F068FCD4F8B431EF
:101D8000D4F8A44183F8049023886068ADF86C30DF
:101D90004FF0100902231BA98DF86F308DF86E905B
:101DA0000EF045FE2389E0681BA9ADF86C300423D2
:101DB0008DF86E300EF03BFE607C0FF0DFFB0446CA
:101DC0008F4B05F5E671C5F8CC3180224B46C5F83E
:101DD000C80109F017FF204612F09EFF894B1B68CF
:101DE0003C3BC5F8D031D8F80030C82243F010038E
:101DF000C8F800304FF4C873A5F8D431824B1A806C
:101E0000E123824AA5F8D631814B1A6040F2711263
:101E1000804B1A80804B4FF0FF321A6033687F4C42
:101E20000025D903257040F1AD8040F22A384FF0EB
:101E3000010A11F073F884F800A06A4C294604F5F1
:101E4000EC794246484617F0E2FC754B04F2045127
:101E5000C4F80435C4F80855724C6022724807F083
:101E6000B6FBA369714843F00403A3614023ADF8B6
:101E70003C3018238DF83F300FA903238DF83E30F6
:101E800014F042F9E3696A4A43F00203E361694BE3
:101E9000A4F503341B68B3FBF2F32288013B22F460
:101EA0005C721204120C22809BB21D22A285238533
:101EB000A4F814A0238C23F001031B041B0C23841F
:101EC000238CA188228B23F0020322F073021204D8
:101ED0001B04120C1B0C89B242F0600243EA0A0395
:101EE000A1802283A5862384238BDFF85CA123F0C5
:101EF00008031B041B0C43F008032383B4F844308D
:101F000050466FEA43436FEA53439BB2A4F8443010
:101F100014F0C5FC1BA814F097FC474B50461B93CC
:101F200010231D93802320934FF4807321931BA9CA
:101F30004FF400532493CDF87090CDF878801F951E
:101F400022952395259514F08CFCA3899BB243F42C
:101F50000073A381DAF8003043F00203CAF80030BE
:101F6000364A0398039B002113448152FF229A7042
:101F7000DA7003460433802B0393F1D10CF0C2F8DE
:101F80000CF0C0F833685A0540F1A180042007F036
:101F90004BF8144C0421C4F80C0507F03BF884F806
:101FA0001005082007F040F8254B0821186007F0BD
:101FB00031F8244D84F81105002128462C2217F011
:101FC00026FC8E236B704FF07C09E0234FF07D08D8
:101FD000EB7085F8009039E058B60108800A0020BF
:101FE0008C1E0020B0020020772001082AB90108C9
:101FF0008401002031D468429DD9000891D900089D
:10200000EBD900086C360020DC3200205E836C3F88
:10201000D8320020E4320020340A0020C4390020E5
:10202000B5D900080010024010020020000801404D
:1020300000366E013C02002034040040C639002006
:1020400020120020AC1100206C00024085F82B808B
:10205000954D2C220021284617F0D9FB8A236B705E
:102060002020A023EB7085F8009085F82B8006F0E7
:10207000DBFF2021C4F8140506F0CCFF84F8180516
:10208000102006F0D1FF1021C4F81C0506F0C2FF95
:1020900084F820054FF4807006F0C6FF4FF480717D
:1020A000C4F8240506F0B6FF84F828054FF48060D4
:1020B00006F0BAFF4FF48061C4F82C0506F0AAFFC1
:1020C0007A4B002284F830051A7008F023FF784B11
:1020D000784C1B78022B40F08180774A00251388CA
:1020E000322023F040031B041B0C138013884FF491
:1020F000805823F038031B041B0C138013889BB2F9
:1021000043F0400313809F238DF83C308DF83D5001
:102110008DF83E508DF83F5007F02BF88DF86D503C
:10212000664D0FA90422C5F814801BA812F0AAFD61
:10213000C5F810809DF86E309DF86D201B0243EAB3
:1021400002439DF86F205E4913435E4A934219D0C3
:102150000AD8A2F51A42033A93420CD002F51A4269
:102160000232934209D011E0574A934205D001321E
:10217000934207D00AE0202200E0802222804FF420
:1021800080720DE04FF48072228009E0D1F83405AE
:102190004B4A834212D1B2F83805B2F83A25208072
:1021A000D1F834056280464A70B9C2F834352388C4
:1021B000A2F838356388A2F83A3505E00023238079
:1021C0006380A360E36009E06288A38853432288A8
:1021D000A3605343E360012381F83C35E56825B3F0
:1021E000ED0AA8464FF00009A9450BDA09EB0504F2
:1021F00064100DF16C0AE002514610220CF02CF82C
:102200000F2807DC0BF0B0FA2D4A4FEAC823C2F8BA
:1022100040350AE000235AF82320013240D101332F
:10222000042BF8D12546A046DEE73B78052B02BFFC
:10223000264B4FF4C8721A80254B4FF47A721A80DD
:10224000244BC8221A80244A137843F008031370E1
:10225000224A137823F00203137033689B0711D5C9
:102260004CF250321E484FF07E5111F0ABFD1D4B29
:1022700003221A701C4B01221A701C4A002313807F
:102280001B4A13801B4B01221B6833601A4B1A70C8
:102290001A4A137863F07F03137027B0BDE8F08FFC
:1022A00004F101094446BEE7DD110020551200206B
:1022B000973A00200000002000380040000C014048
:1022C000B002002018BA20001740EF00B20D002025
:1022D00038130020A0320020880A0020983A0020FD
:1022E00004090020270C0020380200204C34002074
:1022F0004E340020040B0020CC150020183900209B
:10230000434A0021117018B2099315F0C3F84149EE
:1023100015F014F9404C0646B4F9020015F0BAF86D
:102320003C4915F00BF90546B4F9040015F0B2F874
:10233000384915F003F90446304611F093FC804605
:10234000304611F01BFC0646284611F08BFC074670
:10235000284611F013FC0546204611F083FC824606
:10236000204611F00BFC41468146504615F0E6F838
:1023700041460490484615F0E1F851460690304633
:1023800015F0DCF849460790304615F0D7F8394685
:102390000890504615F0D2F8204C4946206007F1CD
:1023A000004015F0CBF829466060A560079815F04D
:1023B000C5F80146069814F0B9FF2946E060089870
:1023C00015F0BCF80146049814F0AEFF39462061C0
:1023D00006F1004015F0B2F829466061049815F046
:1023E000ADF80146089814F09FFF2946A0610698B1
:1023F00015F0A4F80146079814F098FF4146E061F3
:10240000384615F09BF8099B2062FEF781BF00BF9C
:102410001C00002035FA8E3C080B0020C01900205B
:102420002DE9F04F374ED7B0751E771C4FF00008DE
:1024300055F8113CA5F11109002B01F0B58455F8B0
:10244000110C07F05BF88246002801F0868455F8ED
:10245000110C07F050F815F8053C0446013B042B1D
:1024600004D8DFE803F0070C1F292D0024284DD1E4
:10247000012344E04D2814BF002302233FE0002342
:102480003C2805F8053C02D03E2805D075E015F83B
:102490000D3C002B71D103E015F80D3C012B6CD1E4
:1024A00003232CE040284FF000039EBF05F8043CB6
:1024B00005F8030C042322E005F8020C05231EE0B6
:1024C00015F8042C15F8033C9A4209D2531C0E4906
:1024D00005F8043C502303FB08131A4410744CE025
:1024E00015F8022C691E5A4013F1FF3303D311F87B
:1024F000010B4240F8E794420CBF0623002305F885
:10250000053C3AE006080020F4070020DFF8E4B0BC
:1025100055F8111C9BF8003013F004022DD1232C28
:1025200020D12B4B012018702A4B2B4883F8B12067
:102530001022C3F8A80083F8B020C3F8AC1003F150
:10254000A8022648C3F8A010C3F8A410C3F8C420FA
:102550000CF038FE08F004F89BF8003043F002035A
:102560008BF800301E4B1B78A34201BF1D4A1E4B47
:102570001A601E4A04BF1E4BDA6015F8053C062B94
:102580007FF45DAF15F80DECBEF1000F41F0E5836F
:1025900015F8030C502101FB08010E4C15F8020C34
:1025A00056AB10311FFA80FC214416AA089301385B
:1025B0006B1E0A930792ADF826E00B91ADF830C080
:1025C000ADF832E0ADF824C0CB1AA34614E000BF4A
:1025D000963A0020F4070020CD95000832B9010892
:1025E000D4330020EFBEADDEF04F00200400FA052A
:1025F00000ED00E0983A0020FD2801F29F83DFE81B
:1026000010F014011D012501300139019D0B9D0BB6
:102610009D0B9D0B9D0B9D0B9D0B9D0B9D0B9D0B7A
:102620009D0B9D0B9D0B9D0B9D0B9D0B9D0B9D0B6A
:102630009D0B9D0B9D0B9D0B9D0B9D0B9D0B9D0B5A
:10264000EA043B0A4F039F07C504E709C904F409DC
:10265000D704270AFE04540A01055B0A8105FE001F
:102660009B05520B5C05C80A7203D4076E05FC0A71
:102670000A01050A8F024B036A07EB025F079D0BF5
:102680006205CF0A9D0B9D0B8A0B7E06D7050B06B4
:1026900066099D0B9D0B1F05800A4005A10A3706A0
:1026A0002E069D0B77069D0B9D0B9D0B9D0B9D0B89
:1026B0002E099D0B9D0B9D0B9D0B9D0B9D0B9D0B4B
:1026C0009D0B9D0B9D0B9D0B47015501CE01F90103
:1026D0005C0267021004330475028502B902F50238
:1026E0002B039D0BCE039D0B9E0347034404BB03AA
:1026F000FD019D0B9D0B9D0B8D069B06B206A7054C
:1027000003015F0645069D0B9D0B9D0B9D0B9D0BCD
:102710009D0B9D0B9D0B9D0B9D0B9D0B9D0B9D0B79
:102720009D0B9D0B9D0B9D0B9D0B9D0B9D0B9D0B69
:102730009D0B9D0B9D0B9D0B9D0B9D0B9D0B9D0B59
:10274000B7049D0B9D0B9D0B79049D0B9D0B9D0B61
:102750009D0B9D0B9D0B9D0B9D0B9D0B9D0B9D0B39
:102760009D0B9D0B9D0B9D0B9D0B9D0B9D0B9D0B29
:102770009D0B9D0B9D0B9D0B9D0B9D0B9D0B9D0B19
:102780009D0B9D0B9D0B9D0B9D0B9D0B9D0B9D0B09
:1027900029076A0974079D0BFF0743094E0945087D
:1027A0003B0999091607220791089D0B85089D0B87
:1027B0009D0BF40805091B0920097B0B9D0B9D0B44
:1027C0009D0B9D0B9D0B9D0B9D0B9D0B9D0B9D0BC9
:1027D0009D0B9D0B9D0B9D0B9D0B9D0B9D0B550705
:1027E000AC043102CF089D0BDB0AC0069D0B9D0B8C
:1027F0009D0B9D0B5B099D0B9D0B9D0BA104DFF8B1
:1028000070B3002401F032BAB4F80831FF2BA8BF2E
:10281000FF2300F054BC94F82C31137094F82D3140
:10282000537094F82E3100F0A6BD00230DF15B012A
:10283000137001230791537019210FE0BA4907A8BB
:10284000042207F098F8012301F07ABA0E2101233F
:1028500051700DF15B01079113700321917001F02C
:102860006FBA07A8B149042207F085F8B04B07A852
:10287000197832E307A8AF490B2207F07CF807A8C4
:10288000AD49082207F077F807A8AC490722D8E736
:10289000E723137094F8303107A853700DF15B03F0
:1028A000079300239370042100F034BDA44B07A8C4
:1028B000198810F085FFB4F8401107A889B210F00C
:1028C0007FFFD4F8443107A8C3F3C001C3F38002EB
:1028D000890041EA4201C3F340021143C3F34012AD
:1028E00041EAC20103F01003194310F069FF00230D
:1028F0001946B4F84801934A12F901E0BEF1FF3FCE
:102900000CD04FF2FF720A41D20707D540FA01F20C
:10291000D20742BF012202FA0EF2134301310C2901
:10292000E9D1D4F84CE10021012287488A401040C7
:1029300018B112EA0E0F18BF134301312029F3D149
:10294000824A00201278864651070146D4F850C1C9
:1029500048BF43F00103012202FA00FB1BEA0C0FFF
:1029600007D01BEA030F1CBF02FA0EF211430EF14F
:10297000010E01301D28EED107A810F00DFF079BB6
:1029800094F85421591C07911A7007A894F85C1107
:1029900010F016FF07A8B4F8601100F0E0BCB4F81E
:1029A0006C310024B3F5806F8CBF4FF0030B4FF0F8
:1029B000000B674B07A853F82410013441FA0BF1C0
:1029C00089B210F0FDFE032CF3D10024614B07A85F
:1029D00033F82410013410F0F3FE032CF6D1002458
:1029E0005D4B07A833F82410013410F0E9FE032CE6
:1029F000F6D128E707A85949102222E700230C2422
:102A00005C43DBF8A4210393115B07A810F0D8FE08
:102A1000DBF8A42107A82244518810F0D1FEDBF88E
:102A2000A42107A82244918810F0CAFEDBF8A42153
:102A300022449179079A501C07901170DBF8A42169
:102A40002244D179079A501C07901170DBF8A42119
:102A500007A81444A16810F09FFE039B0133082BC4
:102A6000CDD1F0E63E4B03F17001079A13F8010C4B
:102A7000541C07941070079A1878541C079410700F
:102A8000079A5878541C07941070079A9878541C29
:102A900007941070079AD878541C07941070079AFE
:102AA0001879541C07941070079A58790733541CEE
:102AB0008B4207941070D8D1C5E60024294B07A893
:102AC00033F81410013410F07BFE082CF6D1BAE66E
:102AD0000024254B1B789C42BFF6B5AE234B07A8BC
:102AE00033F8141010F06CFE0134F2E707A8B4F8C4
:102AF000301210F065FEB4F8321207A810F060FE34
:102B0000B4F934320A2193FBF1F1D6E307A8D4F8E3
:102B1000381210F041FE07A8B4F83C1200F01FBCB8
:102B200007A8D4F84012F5E36AB901086FB90108A3
:102B3000973A002074B9010880B9010889B90108E1
:102B4000903A00203C9A0108C0F11F1A983A0020E0
:102B500064090020700900207C09002088090020F9
:102B60009D0900200C0A0020C4330020803300207F
:102B7000BC0800204FF6FF7B94F84A32B4F84C2290
:102B800004EBC3030DF159010791D3F85412FF2A46
:102B9000A8BFFF225945A8BF594621EAE17107A8FD
:102BA00089B28DF85820039310F00AFEB4F8601231
:102BB00007A810F005FE039B94F86222D3F8501288
:102BC0003AB10A2359435945A8BF594621EAE17150
:102BD00073E301F30F0170E394F865320DF15A01CC
:102BE000137094F86432079153702CE6D4F868326D
:102BF0000DF159001978079011705B780DF15A01A9
:102C0000537007910023DBF86822B7491A44107902
:102C1000079A0133541C032B07941070F3D1D1F899
:102C20006832DA79079B581C07901A70D1F868321D
:102C30009A78079B581C07901A70D1F86832DA7896
:102C4000079B581C07901A70D1F8684207A8618941
:102C500010F0B6FD227A0EE20022DBF86C32995CAD
:102C6000079B581C07901970DBF86C321344997A53
:102C7000079B581C07901970DBF86C321344197DC0
:102C8000079B0132581C0A2A07901970E5D1DAE532
:102C900007A896492F22D4E5D4F86C329B7F0EE228
:102CA0000024DBF8702212F8240002EB8403039363
:102CB00004F05EFF079A4179501C0790039B117046
:102CC000079A5978501C07901170079A9978501CF0
:102CD00007901170DA78079B0134591C142C079166
:102CE0001A70DED1AFE5002106234B43DBF87402F6
:102CF000079CC21892F805E004F1010CCDF81CC045
:102D000084F800E0C05C079B01315C1C07941870DC
:102D1000079B50785C1C07941870079B90785C1C8C
:102D200007941870079BD0785C1C07941870079B59
:102D30001279581C0C2907901A70D5D183E500240C
:102D40000123DBF85021A340134211D0E0B204F07C
:102D50000FFF01680846039116F0ABFD0399024688
:102D600007A806F008FE079B5A1C07923B221A7020
:102D700001341D2CE4D166E500240123DBF8502149
:102D8000A340134207D0E0B204F0F2FE079B427961
:102D9000591C07911A7001341D2CEED153E5544B88
:102DA00007A8198A039310F00BFD07A8B4F878124E
:102DB00010F006FD07A8B4F87A1210F001FD07A87C
:102DC000B4F87C1210F0FCFC07A8B4F8861210F0DE
:102DD000F7FC079A94F88C12501C07901170079911
:102DE000039B4A1C079200220A70079994F88D02EF
:102DF00001F1010ECDF81CE00870079994F8620209
:102E000001F1010ECDF81CE00870D97A079B581C1F
:102E100007901970079B591C07911A70D4F89032CB
:102E2000A3E094F894320DF15A0103F002031370F9
:102E300094F895320791537007A8D4F8981210F0BF
:102E4000ABFC07A8D4F89C1210F0A6FC07A8B4F8B5
:102E5000A01210F0B5FC07A8B4F8A21210F0B0FC54
:102E600007A8B4F8A4127AE207A8B4F8A61210F0E2
:102E7000A7FCB4F8A81207A810F0A2FC94F8AA3294
:102E8000079A03F00103511C1BE115F8013C0A9558
:102E900023B9D4F8AC12D4F8B0B208E0102B19BFA3
:102EA0004FF0000B5946D4F8B412D4F8B8B20DF173
:102EB00059001370079007A810F06EFC07A8594638
:102EC00010F06AFC07A8D4F8BC1210F065FC07A843
:102ED000002110F075FC07A8002110F071FC079B81
:102EE0005A1C07920022C9E0F4070020489A010802
:102EF000A433002094F8C0320DF1590113700791EA
:102F000000239BF8C0229342BFF69DACB34A0799B9
:102F1000985C4C1C0794087002F11001585C0799EA
:102F20004C1C0794087002F12001585C079930325C
:102F30004C1C07940870995C079A0133501C079049
:102F40001170DEE70024A64B07A833F814100134F3
:102F500010F036FC042CF6D175E4D4F80C3307A835
:102F6000598810F02DFCD4F80C3307A81988F6E125
:102F70009C4B07A8196810F00FFC9B4B07A8196819
:102F800010F00AFC994B07A81968C3E107A8D4F808
:102F90001013BFE107A8B4F8141310F011FC07A830
:102FA000B4F8161310F00CFC07A8B4F81813D6E107
:102FB00007A8B4F81A1310F003FC07A8B4F81C1300
:102FC00010F0FEFB07A8B4F81E1310F0F9FB07A8D9
:102FD000B4F82013C3E194F845320DF15B0113708E
:102FE00094F844320791537094F8463207A89370CE
:102FF000B4F8481210F0E4FB94F84A223BE094F84D
:1030000030315CE07A4C0DF15901237A079113704D
:1030100007A8A18A10F0D4FB07A8218A10F0D0FBE2
:1030200007A8618A10F0CCFB079BA27A591C079174
:103030001A7007A8E18A10F0C3FB07A8218B8EE164
:1030400094F884320DF15A01137094F88532079187
:10305000537007A8B4F8861210F0B2FB079B94F8DF
:103060008822591C07911A7007A8B4F8891210F029
:10307000A7FB94F88B22079B591C07911A70FFF746
:10308000E2BB00245B4B1B789C42BFF6DCAB5A4B87
:10309000079A13F81410501C079003EB44031170A7
:1030A000597807A801EB810101EB810101F2EE21C2
:1030B00089B210F085FB0134E4E74D4BDB7A0DF16A
:1030C0005901079118E10023494A995C079A013395
:1030D000501C082B07901170F6D1FFF7B4BB474C7A
:1030E00004F1280B14F8032C00234549C95C8A42DB
:1030F00000F064860C333C2BF7D108345C45F1D1E9
:10310000FFF7A1BB0024DFF80CB107A83BF80410BF
:1031100010F056FBA344079B9BF80220591C079113
:103120001A70079B9BF803200434591C402C07910C
:103130001A70E8D1FFF787BB0024324B07A853F879
:103140002410013410F028FB202CF6D1FFF77BBBB4
:1031500000222D4B062101FB023100230798441C5D
:10316000079402700798441C079403700798CC5C7E
:10317000013300F1010E062BCDF81CE00470EDD1F7
:103180000132062AE5D10023079A511C0791062136
:103190001170079A511C079113701C4A995C079A89
:1031A0000133501C0B2B07901170EDD1FFF74BBB77
:1031B0000BF01EF8079B40F002005A1C144C0792BB
:1031C0001870218807A810F0E7FAE16807A810F046
:1031D000E3FA0AF07BFB014607A89BE0B50A002052
:1031E000F60A0020E8F7FF1FECF7FF1FF0F7FF1FBC
:1031F000A4330020C4330020160B0020D933002054
:103200003C0B0020780B0020F80B00201C0C002049
:1032100000000020BC0800200AA806F08BFB8346B3
:1032200007A8594610F0B8FA0799089CBB4B641AD6
:10323000802CDB68A8BF80240BEB04029A4288BF75
:10324000CBEB030403910AF08FFA58460399224608
:103250000BF002F8079B18440790FFF7F4BA00231D
:1032600017A91370537093700791D370FFF7EBBADF
:1032700000240DF15B0307A821461470547094706C
:10328000079310F089FA07A8214643E094F83334F5
:103290000DF15A01033B18BF01231370B4F84C32EF
:1032A0000791FF2BA8BFFF23537094F84A3204EB19
:1032B000C30BDBF8541281F3100107A889B24EE06A
:1032C0000024DFF878B20A2354F80B1007A85943FA
:1032D00081F3100189B2A34410F072FA083407A8F0
:1032E000DBF8041010F058FA102CEAD1FFF7ABBA53
:1032F0000DF15903079300231370FFF7A4BA07A831
:1033000087490B2206F037FB07A8002110F044FA8A
:1033100007A8002110F040FAFFF795BA07A8B4F803
:10332000341410F04DFA07A8B4F8361410F048FA27
:1033300007A8B4F8381412E0D4F83C340DF1590061
:1033400019780790117059780DF15A000790517053
:1033500099780DF15B009170D988079007A810F05B
:103360002FFAFFF770BA94F84034137094F8413490
:10337000537094F842340DF15B0107919370FFF79D
:1033800062BA68480021C022002416F040FA2346A1
:1033900065489BF80625654994423DDA427AD20792
:1033A00037D5027A01EB4202B2F91822002A30DD49
:1033B000D0F80CC01A0101EB020EDCF80410BCF8C6
:1033C00008C0CEF84414AEF84AC44FF0000E0121F4
:1033D00001FA0EF111EA0C0101D0714604E00EF180
:1033E000010EBEF1100FF2D15A444FF0020E82F8D6
:1033F0004FE44FF0480EA2F84CC482F84EE4A2F815
:10340000481402F24C41D2F84C2401334A60102295
:103410008A7101340830BCE7DBB20DF15902079222
:1034200081F87C358DF85830414A00F075BC414B2D
:103430001B785B073FF507AA15F8010C0A9504F005
:10344000D3FFFFF700BA0AA806F08AFAA4F87E05AF
:10345000FFF7F9B9C3F3470BBBF1120F00F26E840B
:1034600000235B4509D20AA8039306F079FA039B6F
:103470000DAA22F813000133F3E7594600225A45FA
:1034800007DA0DAB33F812002B4B23F81200013290
:10349000F5E7122905D0284B002223F8112001312D
:1034A000F7E7012384F8A43500F04ABC0AA8D4F851
:1034B0000CB306F055FAABF80200D4F80C431FE148
:1034C00015F8013C0A9684F8653216F8013C84F838
:1034D0006432FFF7B8B9D4F86C3215F8010C0A95CC
:1034E000987704F0D9FAFFF7AEB9D4F86C22531EDE
:1034F00002F109000A9A511C0A91114611F8024B77
:1035000003F8014F0A9151788342997202F1030145
:103510000A9192781A75EDD1FFF795B90000002055
:1035200074B90108380C0020F80C0020F4070020C2
:103530003D790008983A0020740D0020440A0020CC
:1035400015F8011C0A95132900F3F883D4F870E2EA
:1035500016F8010C0A960023DFF8ECC4DA000CEB35
:10356000020B9BF841B083451BD1624492F8403076
:103570000EEB81000EF821300A9B5A1C0A921B7830
:1035800043700A9B5A1C0A921B7883700A9B5A1C30
:103590000A921B78C370D4F8700213F0E1F8FFF7B9
:1035A00052B901331D2BD7D1C8E315F8012C0A9568
:1035B0000B2A00F3C38316F8010CD4F87412042804
:1035C0000A9600F3BB8306235A438B185871687818
:1035D0000A9788540A9A511C0A9112785A700A9ACA
:1035E000511C0A9112789A700A9A511C0A91127809
:1035F000DA700A9A511C0A9112781A71FFF723B9EE
:10360000092B40F39B83D4F8684215F8012C0A95E6
:1036100022700A9A04F1030C511C0A9112780021BD
:1036200062700A9A022902F1010ECDF828E01078A2
:103630000CBF4FF0FF0B4FF0640B584528BF5846A6
:10364000013103290CF8010FEBD1911C0A9151783B
:103650000332642928BF64210A92E1719EF8012097
:103660000AA8A2700A9A0393511C0A911278E27078
:1036700006F076F9039B60810A2B3FF4E4A80A9BCD
:103680005A1C0A921B782372FFF7DDB80AA806F0CD
:1036900067F96FF4AF6E00EB0E03DFF8B0B3C62B23
:1036A00098BFABF810000AA806F05AF9A4F87802FF
:1036B0000AA806F055F9A4F87A020AA806F050F90B
:1036C000A4F87C020AA806F04BF90A9BA4F886022B
:1036D0005A1C0A921A4612F8031B0A929A7884F826
:1036E0008C1284F88D221A1D0A92DA78063384F837
:1036F000622213F8022CD4F890428BF80B200A9324
:103700000AA806F02DF92080FFF79DB800240AA82A
:1037100006F026F9C74B23F814000134082CF6D123
:10372000FFF791B80D2B40F0098315F801BC0A95FD
:10373000BBF1070F00F20283D4F8A4310AA8039367
:1037400006F00EF90C2202FB0BFB039B23F80B0087
:10375000D4F8A4310AA8039306F002F9039B5B4452
:103760005880D4F8A4310AA8039306F0F9F8039B13
:10377000D4F8A4215B4498800A9B93441A46591CB0
:103780000A9112F8021B0AA88BF806100A925B78BD
:103790008BF8073006F0CEF8CBF80800FFF753B8E7
:1037A00015F8013C0A950F2B00F3C88216F8012C7E
:1037B000C3EBC3039B448BF8A8216A788BF8A9213B
:1037C000AA788BF8AA21EA788BF8AB212A798BF8B2
:1037D000AC216A798BF8AD21EA1D0A92AA798BF89F
:1037E000AE2108F093FAFFF72EB80AA806F0B8F851
:1037F000A4F834040AA806F0B3F8A4F836040AA81A
:1038000006F0AEF8A4F83804FFF71DB8D4F83C442D
:1038100015F8013C0A9523700A9B0AA85A1C0A92C3
:103820001B7863700A9B5A1C0A921B78A37006F0DF
:1038300097F8E080FFF707B87F4810F063FBFFF7C9
:1038400002B815F8013C0A9784F8403416F8013C98
:1038500084F841346B7884F84234FEF7F4BF0823CF
:10386000079A013B511C079113F0FF034FF0000131
:103870001170F5D1FEF7E7BF704B1B785C073EF582
:10388000E2AF04F0EFFA1CE06C4B1B7858073EF5F2
:10389000DAAF4FF4C873A4F8BE35FEF7D4BF674B58
:1038A0001B7859073EF5CFAF94F8943243F00403E8
:1038B00084F89432FEF7C7BF604B1B785A0700F1BB
:1038C0003D8204F0DDF904F0ABFBFEF7BCBF0AF06B
:1038D00011F8FEF7B8BF15F8013C23B194F8943203
:1038E00043F0020303E094F8943223F0020384F8D7
:1038F000943216F8013C0AA884F895320A9606F02C
:1039000019F8C4F898020AA806F014F8C4F89C0242
:103910000AA806F025F8A4F8A0020AA806F020F8E4
:1039200094F8AA32A4F8A20243F0020384F8AA325F
:10393000FEF789BF15F801CC0AA8CDF814C00A9586
:1039400005F0F8FF04900AA805F0F4FF03900AA818
:1039500005F0F0FF83460AA806F002F80AA805F071
:10396000FFFF0A9BDDF814C001330A93039A049900
:10397000BCF1000F15D11020C4F8AC12C4F8B0226D
:1039800004F006F994F8943243F0010384F8943279
:10399000BBF1000F3EF457AF294BC3F8BCB2FEF7A2
:1039A00052BFBCF1100F7EF44EAFC4F8B412C4F88D
:1039B000B822BBF1000F02D0214BC3F8BCB22148A2
:1039C0000223011D84F8C03509F042FDFEF73BBF1C
:1039D00000230AA8C4F8103305F0ACFFD4F8103364
:1039E0001843C4F81003FEF72EBF0AA805F0B8FF6D
:1039F000A4F814030AA805F0B3FFA4F816030AA854
:103A000005F0AEFFA4F81803FEF71DBF15F8013C42
:103A10000A95002B40F0928116F8013C84F82C3175
:103A20006B7884F82D31EB1C0A93AB7884F82E3137
:103A3000FEF709BF9A0D002040D70108983A0020F0
:103A4000F4070020A80A00203C9A0108A4330020B3
:103A500015F8014C0A95012C00F370810AA805F0B5
:103A60007FFF0BEB840BABF81A030AA805F078FF75
:103A7000ABF81C03FEF7E7BE15F8013C0AA884F872
:103A8000453216F8013C0A9784F844326B7884F882
:103A9000463205F065FF0A9BA4F848025A1C0A92B8
:103AA0001B7884F84A32FEF7CEBE15F8013C0A9521
:103AB00084F83031FEF7C7BE994C15F8013C0AA8CE
:103AC00023720A9505F04CFFA0820AA805F048FF72
:103AD00020820AA805F044FF0A9B60825A1C0A92C1
:103AE0001B78A3720B9B9B1A012B7EF7ACAE0AA826
:103AF00005F036FFE0820AA805F032FF2083FEF7CA
:103B0000A2BE15F8013C0AA884F8843216F8013CDC
:103B10000A9684F8853205F023FF0A9BA4F88602F2
:103B20005A1C0A921B780AA884F8883205F018FFFC
:103B30000A9BA4F889025A1C0A921B7884F88B32DB
:103B4000FEF781BE15F8014C0A95112C00F3F680A2
:103B500016F8012C64000BEB040383F822230AA857
:103B60000A9605F0FDFE40F2ED23984205DD40F691
:103B7000CA039842A8BF184601E040F2EE20A0F226
:103B8000EE20192390FBF3F0A3448BF82303FEF7F8
:103B90005ABE15F8012C624B0A95DA72FEF753BE35
:103BA00000230A9A511C0A9111785D4A99540133F5
:103BB000082BF6D1FEF747BE5A4B1B785B073EF544
:103BC00042AE15F901BC0A95584605F045FA08B110
:103BD000436873B9032300220093019258464FF4BF
:103BE00000614FF4E13305F0D2FBC4F8C40510B90D
:103BF000A4E0C4F8C4354C4A8EE0072293FBF2F2ED
:103C0000C2EBC202934240F099800A9A0B9B9B1A26
:103C1000062B7EF718AE531C0A9312780023434CF0
:103C200004EBC304A1788A4207D1A2700AA805F068
:103C300097FE631DA080093403E00133052BEED10C
:103C40007CE00A9A511C0A91127803F8012FA342D2
:103C5000F7D1DAE722F824000134102C8BF802E0C7
:103C60008BF803300BF1040B3EF4EDAD0B9B0A9A7D
:103C70009B1A032B7EF7E7AD0AA805F071FE0A9B9D
:103C8000B0F5B47F03F101020A921A4612F802EB72
:103C90004FEA84010A925B78254ADBDB0023501847
:103CA000535243804AE0052B0A9515F8014C45D143
:103CB0001F2C43DC0AA805F03DFE0BEB840BCBF870
:103CC00084030FF02BF9FEF7BEBD2046631C0A9358
:103CD00010F802EBE21C0A9063780A92A0780F2891
:103CE0002CD8BEF1050F0DD8052B27D8062202FBD4
:103CF0000EB2134483F804040A9C0B1B022BE4DC71
:103D0000FEF7A1BDBEF1060F18D10A2B16D85B44F1
:103D100083F82804F0E7074A074B1A60FEF793BDC3
:103D2000A4330020983A00202D790008D4330020D5
:103D3000BC080020617C0008703A00204FF0FF337F
:103D4000ADF82630079B4846089307A916AB0793A2
:103D500005F0F8FB002305F8053C264C23681BB151
:103D6000484698470023236015F8053CE3B955F809
:103D7000093CCBB1BAF1000F16D156AA0E924FF6FC
:103D8000FF7216AC0D94ADF83C20ADF83EA00DA826
:103D9000984730B10D9B48460DA90E930D9405F040
:103DA000D1FB002345F8093C503650355037B8F167
:103DB000000F1BD14FF00108FEF73ABB079B07A885
:103DC000591C07911A7034F8011C0FF0F9FC2246B7
:103DD0000023079912F8010F013301F1010E042BA2
:103DE000CDF81CE00870F4D1FFF787B957B0BDE8F3
:103DF000F08F00BF703A00202DE9F04F8BB007F034
:103E000089F8C14B1E78002E41F0C482BF4D2B684B
:103E10005C0541F1BF82BE4BBE4C1B68DFF83883A6
:103E2000DF882378002B00F0F481D8F80020636845
:103E3000D31A7C2B40F2ED81237A62600133237226
:103E400006F12400C0B207F017F8B34B53F8260070
:103E50004FF47A735843B14B01361B8990FBF3F052
:103E600000B206F0F7FF032EEAD1302007F004F885
:103E7000AB4BDFF8A092B3F9000006F0EBFF06F0C1
:103E8000F3FF237A980733D141F28833D9F804201D
:103E90009A421AD9102006F0EFFFD9F80C006426D8
:103EA00090FBF6F000B206F0D5FF212006F0E4FF0B
:103EB000D9F80C0090FBF6F306FB130383EAE370DA
:103EC000A0EBE37000B206F0C5FF142006F0D4FFAB
:103ED000944BB3F904000A2390FBF3F006F0BAFF09
:103EE0001C2006F0C9FF002006F0B4FF06F0BCFF5E
:103EF000237A590740F06881022006F0BDFF854B08
:103F00004FF0050918696423323090FBF3F000B2DA
:103F100006F0A0FF844B0320B3F9066006F0ACFF67
:103F200096FBF9F6814BB6B21B785A070AD538468C
:103F30000EF0BBF820B92B6813F0100F18BF002645
:103F400030B204E07A4B9888B0FBF9F000B206F08A
:103F500081FF2B689B0773D5A37DDFF8B891754F60
:103F600033B3DFF8F8A13A889AF80010642303FB12
:103F700002124B00B2FBF3F3B9F8186006203601C9
:103F8000B6B246EA0326B6B2C3F303231E4306F0D5
:103F900073FF30B206F05EFFB9F818309AF80010DF
:103FA00001339BB293FBF1F201FB1233A9F81830F5
:103FB00094F82630012B05D1392006F05DFFB7F9C2
:103FC00000001BE03E886E235E43152796FBF7F644
:103FD0003A20B7B24FF0640906F04EFFB7FBF9F68E
:103FE00030B209FB167606F035FF3B2006F044FFA1
:103FF000B0B2461D0A2096FBF0F000B24C4F06F01E
:1040000029FF4D4E97F80690282006F035FF56F808
:1040100039300A2093FBF0F000B206F01BFF0420B9
:1040200006F02AFFBB8813B104F064FF05E0BB79FA
:1040300006EBC306706880F3100000B206F00AFFBA
:104040003E4B1B689F0640F1B4803D4F3B789E0776
:104050001FD5DFF80C91112006F00EFFB9F8000013
:104060004FF4F3667043374B90FBF3F000B206F069
:10407000F1FE192006F000FFB9F800004643642065
:1040800096FBF0F696FBF0F300FB136000B206F02F
:10409000E1FE2D4B01201E883B7813F0020F08BF74
:1040A000002606F0E9FE30B206F0D4FE092006F044
:1040B000E3FE002006F0CEFE244B1E78244B1A8827
:1040C000B2F5967F09D9237A03F00F03072B04D8A2
:1040D00042F20F76964228BF1646052006F0CCFE27
:1040E00094F825300BB930B244E0A6F1200013F06B
:1040F000D1F9184913F0D6FA0021064613F0BCFB9B
:1041000080BB4FF07C512FE0963A00207C3300209A
:10411000300C00207C110020640900205809002088
:10412000300A0020240A0020441B0020983A002076
:10413000380A0020400A0020440A002038090020E4
:10414000880A0020A0860100940A0020890A002025
:10415000100000206666E63F6C3600203802002022
:10416000960A00204FF03F41304613F0DFF813F07D
:10417000ABFB00B206F06EFE3B78980704D494F8CF
:104180002830C44E012B04D1012384F82830C248C2
:1041900016E0C249F06913F0D1F913F095FBBF495D
:1041A0000290306A13F0CAF913F08EFB039002A854
:1041B00006E0BB4A02AB92E8030083E8030018461E
:1041C00006F06CFE06F050FE237A282B21D1B14B6D
:1041D0000022D8F800001A724FF47A73B0FBF3F79C
:1041E0004FF03C09172006F047FEB7FBF9F6B6FB87
:1041F000F9F009FB1060000200B206F02BFE182057
:1042000006F03AFE09FB167000B206F023FE06F037
:104210002BFE94F829309F4E002B00F0768104F09D
:1042200092FEF36A9F4AC31A9342074640F2C9803E
:10423000002386F8323086F834309B4B96F86010B5
:104240001B88DAB21B0A86F84E2086F84F3086F8B3
:10425000442086F84530F26DD8F800309A1A4FF4B1
:104260007A734B439A420DD3904B1B68F365904B86
:104270001B78013B012B9FBF102386F832300223AD
:1042800086F834308B4B8C499B790A2051F83320C7
:1042900001EBC3014B6892FBF0F293FBF0F384F85F
:1042A0004C20121284F84D2084F85030834A1B129F
:1042B00084F85130824B12781B789107754E84F840
:1042C0007B3003D42D2386F87C3079E0042B8CBF1F
:1042D0003323322386F87C306F4B7A4AD3F800A020
:1042E00058689AFBF2FB784B4FF0060903FB0BA6CC
:1042F00009FB06F675494FF0640896FBF1FE01FBD9
:104300001E6696FBF8F684F86D60361284F86E60CF
:1043100090FBF2F603FB060309FB03F393FBF1F2B8
:1043200001FB123393FBF8F351B206EB860202EB6A
:10433000820201EB820284F872301B1292B284F87E
:104340007330634B84F87020120A84F871201A8845
:10435000242353434FF47A7293FBF2F384F86830CA
:10436000C3F3072384F869305A4B0BEB8B0B1B8884
:104370004FFA8EFC84F874301B0A84F87530564B63
:104380000BEB8B0B1B880CEB8B0E03F5FA739BB2BC
:1043900084F876301B0A84F87730504B1FFA8EFE73
:1043A0001B884FEADA7A84F86BE0C00F4FEA1E2EC2
:1043B00084F86AA084F86CE084F86F0084F87D309B
:1043C000E76294F88D90334EB9F1000F0FD1D6F813
:1043D000940005F093F8012809D90228DFF800813C
:1043E00000F02D8706F028FD012388F80230D4F86C
:1043F0009860284B002E00F0888093F88D203AB109
:1044000040F6B731D3F8A020BA1A8A4216D87CE019
:10441000012283F88D20D3F8A420D3F894001278D9
:10442000022A04D80430022106F0F0FC02E0022146
:1044300004F0AAFF002384F8A83064E093F89C20DD
:10444000AAB9C3F8982083F88D20D3F8A420D3F814
:1044500094001278022A04D80430012106F0D6FC18
:1044600002E0012104F090FF06F0E6FC4BE0013A87
:10447000D2B283F89C2093F8A81093F8A9008ABBC5
:1044800001304A1C83F8A90083F8A820D3F89400CF
:1044900037E000BF7C1100208C0A00208096184B6A
:1044A0006C9B01083F0D0300400A00206C36002081
:1044B000270C0020380A0020440A0020880A002027
:1044C000890A002080969800806967FF40420F00AB
:1044D000960A00209A0A0020940A00209C0A0020D4
:1044E00010000020324612F801EB01300EEB0106FD
:1044F000714683F8A900D3F8940083F8A860C3F844
:10450000982004F0FEFFC4F8A070BC4E94F8AA20D6
:104510003768BB4B002A00F01882D3F8AC20002A81
:1045200000F0138293F8B030013B012B00F20D82B2
:10453000D4F8AC00DFF8C88204F0E0FFE0B1D8F8AE
:10454000AC0004F0D8FF98F8B13081467E2BD6F845
:1045500000A00ED102231B2888F8B03009D1D8F86A
:10456000AC0004F0CBFF20B90123C8F8B4A088F850
:10457000B83084F8B190DBE7D8F8B42033689B1AE0
:1045800041F6583293421FD9032388F8B030DCE15A
:104590009C4A32F8130010B903464FF4036001330C
:1045A000B0F5C06FDBB200F0C7801ED9B0F5006F68
:1045B00000F0CF8034D9B0F5036F41D184F8B93021
:1045C000914B1B689B064AD494F8B81094F8B93004
:1045D000002900F0B8813268D21B012AD8D984F8AA
:1045E000B930002384F8B830AFE1B0F5047F41D092
:1045F0000AD8B0F5887F00F0DE80B0F5007F7BD070
:10460000B0F5807FE4D186E0B0F5806F00F01481D2
:10461000B0F5826F00F04781B0F5407FD8D132E02D
:10462000B0F5E26F00F0D980B0F5E46F00F0DA8009
:10463000B0F5E06FCCD184F8B930744B1968D5E08F
:1046400004D8B0F5026F00F05881C1E7B0F5046FEF
:1046500000F0BB80B0F5116F00F06081B8E76C4BE3
:104660001B789907B0D56B4B19884FF4F3634B4314
:1046700064215FE184F8B9302B689A07A4D5664BB2
:104680000A211B8848E184F8B9302B68DFF8708173
:104690009B0799D598F81630002B95D05E4BDFF824
:1046A00094911B8899F8002003EB830303EB8303A9
:1046B00002EB830351009BB293FBF1F398F8BA101D
:1046C00002F00F02C3F30B0342EA031301F00F01E0
:1046D00041EA031106F066FB002388F8B83098F829
:1046E000BA3099F800100133DBB2B3FBF1F201FBF1
:1046F000123388F8BA3067E784F8B9302B681905A7
:104700007FF562AF454B9A79454B53F832100A2337
:1047100091FBF3F110E184F8B9303B4BDFF8E08016
:104720001B685A077FF550AFD8F80C1006F03AFB1B
:10473000002388F8B83047E784F8B9302B681B05A8
:104740007FF542AF354B9A79354B03EBC20359687D
:10475000F2E02D4A84F8B930126891067FF534AF43
:104760002B4A127892077FF52FAF13F0010F2D4BD4
:1047700010D05A68192182EAE273A3EBE27303EBCB
:104780005303B3FBF1F3002A43F0004110DA43F086
:1047900040410DE01B68192283EAE371A1EBE3714C
:1047A00001EB5101B1FBF2F1002BB8BF41F08041A8
:1047B0004FF4006090E084F8B930134B1B685B073E
:1047C0007FF502AF184B1968B6E084F8B930174B83
:1047D0000A21B3F9043059437EE084F8B9300B4B19
:1047E000596803E084F8B930084B996864234B4357
:1047F0000F4A118993FBF1F16EE000BF6C36002087
:104800007C11002062BA01083809002064090020E8
:10481000880A0020960A0020400A0020380A00205A
:10482000440A00208C0A0020300A0020240A0020BC
:10483000580900203802002084F8B930904B42F229
:1048400011711A7842F2107312F0010F08BF194665
:10485000900748BF023153078A4B48BF04311B8879
:10486000D80748BF0A319A0748BF143113F4106FB4
:1048700018BF2831580748BF64311A0748BFC831EC
:10488000980548BF01F5C8719A0648BF01F57A71CD
:10489000D80648BF01F5FA615A0648BF01F57A61AA
:1048A0004FF4806018E084F8B930774B1B6813F040
:1048B000200817D0754B1A7812F0020F14BF4FF46E
:1048C0007A71002112F0010F714A14BF4FF4FA639C
:1048D00000230B441178194406F064FA002384F88D
:1048E000B83071E62B681B067FF56EAE414606F0C8
:1048F00059FA684B83F8B88066E684F8B930624BA1
:104900001B6899067FF560AE604B1B789A077FF5B0
:104910005BAE614B64211B8859430DE084F8B930CC
:104920002B689B077FF550AE5C4B5D4A19880A23C4
:104930004B43117893FBF1F106F034FA554B00220A
:1049400083F8B82040E684F8B93094F8BB30DFF83B
:104950004481002B00F00D81D8F8BC30002B00F012
:1049600008813768D8F8C030FB1A632B40F2018108
:10497000DFF838A1412006F0FBF9BAF902004FF048
:104980000A0990FBF9F080B206F0E9F9BAF90000E3
:1049900090FBF9F080B206F0E2F9BAF9040090FB5E
:1049A000F9F080B206F0DBF906F0AAF998F8C480B5
:1049B00018F0010842D0344B1A689B4612F0200FC1
:1049C00000F0AA80314BDFF8C8901B7813F0020F7B
:1049D00008D099F80030052B34BF4FF002084FF093
:1049E000030801E04FF00108DFF8C4A0472006F0FB
:1049F000BFF9DAF8000006F0A1F9DAF8040006F0D1
:104A00009DF9284B4FF0640A1888B0FBFAF0C0B249
:104A100006F082F9DBF8003013F0140F0BBF1E4BC9
:104A2000214B1888186808BF0AFB00F006F086F9C9
:104A300099F8000048EA8000C0B269E0114B1B8879
:104A4000D90539D4DA060FD4980610D4590611D4F2
:104A50001A0712D4D8072DD413F0020F14BF4FF049
:104A600003084FF0010827E04FF00D0824E04FF055
:104A7000090821E04FF004081EE04FF008081BE091
:104A8000983A00203C09002038090020880A0020BC
:104A9000890A00207C110020940A0020400A00208E
:104AA00038020020960A00202C0A0020240A002048
:104AB0008C0A00204FF00208C24B93F80090C24BC2
:104AC000C9F38009DB781BB149F002095FFA89F963
:104AD000532006F04DF9BD4B188800EB800000EB29
:104AE0008000800080B206F03AF9002006F037F925
:104AF000B74B1888FE23584340F2FF3390FBF3F086
:104B0000C0B206F009F9002006F006F949EA88006B
:104B100006F002F906F0F4F894F8C480B8F1000F3A
:104B20001AD1DFF8D8924F2006F022F9D9F8000008
:104B300006F004F9D9F8040006F000F9404606F042
:104B4000FDF8012006F0E8F8A24B187800F001000B
:104B500006F0E2F806F0D4F894F8C4300A210133E4
:104B6000DBB2B3FBF1F201FB1233C4F8C07084F87E
:104B7000C43094F8C530002B00F02B83964B1B6893
:104B8000002B00F0268304F0DEF944F61F62934BFD
:104B90000746D3F8C830C31A934240F21A83022062
:104BA00006F082F8002800F0878048F603418C4B1D
:104BB000D5F800C01A6849F6074312F0080F08BF7D
:104BC0000B46510744BF43F4005343F008039006DB
:104BD00048BF43F48043834848BF43F020031CF0A0
:104BE00002028179054616BF784810460088C3F353
:104BF000090E1FBF00EB800000EB8000800080B238
:104C00001CF4006F16BFDFF8F8C14FF6FF783CF8D0
:104C10003180CAB1744A95F801A092F800C06B4A7D
:104C200011882A780CFB1A19CAEB0202642101FBD5
:104C300009F10CFB02F2B1FBF2F2642AA8BF642274
:104C400022EAE272D2B200E06422029303930023CC
:104C5000ADF81430ADF81A30ADF81C30ADF81E3098
:104C6000ADF82030ADF82230ADF824305F4BCDF8F0
:104C700010E08DF82620ADF81600ADF8188002AAD5
:104C80000DF1200E154603CD7545186059602A4672
:104C900003F10803F6D128681860A988AA799980D9
:104CA0009A71534B01227C211F20DA7110F0BEFA59
:104CB00010F0A4FA10F090FA032005F0F5FF002898
:104CC00063D04C4BD6F800A01B78002B00F0F88284
:104CD000494A012BB2F800E040F2F382022B5588DA
:104CE00000F0F082032BB2F804C000F0ED82042B38
:104CF000D08800F0EA82052BB2F8088000F0E78245
:104D0000062BB2F80A9000F0E482072B918914BFB9
:104D1000D289002240F2FF3B2D4BADF81A201B88B0
:104D20000022C3EB032393FBFBF38DF81D302F4BC5
:104D3000ADF80CE08DF81C20CDF808A0ADF80E50B1
:104D4000ADF810C0ADF81200ADF81480ADF81690B3
:104D5000ADF8181002AA0DF1180E154603CD7545D1
:104D6000186059602A4603F10803F6D12868F42137
:104D70001860AA8816209A801D4B2322DA7110F041
:104D800055FA10F03BFA10F027FA062005F08CFFD8
:104D9000002800F0EB80124B1A689A4612F0200FA0
:104DA00000F0E4800B4BDFF85CB01B7813F0020FCF
:104DB0002AD09BF80030052B34BF4FF002084FF08B
:104DC000030823E0983A0020D8230020400A00205E
:104DD000540A0020880A0020703600207C11002030
:104DE00038090020380A00203802002083370020CC
:104DF0007B370020C433002080330020A00A00202D
:104E0000440A0020890A00204FF0010804F09BF8B2
:104E10009E494FF47A7E0B889D4D0EFB03F206925D
:104E20004FF6FF72029000209BF800B00390ADF89F
:104E30001C202868ADF81E20964A0DF1080E04903B
:104E40008DF8248068688DF825B08946AB46F04619
:104E50001546914B0590B3F800C0904BADF820C0BB
:104E60001B880DF1200C03EB83035B00ADF82230AF
:104E7000734603CB6345106051609E4602F1080201
:104E8000F6D11868182110609B881E209380844BEF
:104E9000D971019310F0CAF910F0B0F910F09CF933
:104EA00004F051F8B9F800E04FF47A7C0CFB0EFEE8
:104EB000DAF800C0019B1CF0140F99461EBF794B15
:104EC0004FF00A0C1B684FF00A0A18BF0CFB03FCDA
:104ED000754B08BFF446B3F90430CDF814E093FBEA
:104EE000FAF3C646DBF80020DBF804100392ADF8B5
:104EF00022300022674BCDF818C002900491ADF823
:104F00001C20ADF81E20ADF820200DF1200C7246BB
:104F100003CA624518605960964603F10803F6D14A
:104F200010686821186021231C2089F8073010F0D0
:104F30007DF910F063F910F04FF95C4B5A681B686B
:104F40000392029300230493434603CBC9F808005D
:104F50001868696031232721A8600C2089F8073080
:104F600010F064F910F04AF910F036F90A2005F053
:104F70009BFE002846D04C4DD6F80090B5F90000B5
:104F800012F088FA4A4912F08DFB4A4912F0D6FA1B
:104F90008046B5F90200404212F07CFA444912F012
:104FA00081FB444912F0CAFA0646B5F9040012F032
:104FB00071FA3F4912F076FB3E4912F0BFFA002326
:104FC000069307930893334B0496CDF80890CDF8D9
:104FD0000C80059002AD08AE2A4603CAB2421860A2
:104FE0005960154603F10803F6D1106827211860AF
:104FF0002B4B1E221C20DA7110F018F910F0FEF86D
:1050000010F0EAF80B2005F04FFE002800F0DF80DA
:10501000294B0025D3F8008018F020090BD01E4B37
:10502000188811F02DFE0022244B11F0B9FF12F068
:1050300027F9064600E02E4618F0140F0AD0194B47
:10504000186811F01DFE00221C4B11F0A9FF12F090
:1050500017F908E0B9F1000F04D00C4B188812F0D2
:1050600015FA00E00020104B0A22B3F9043093FB3C
:10507000F2F2134B92B2B3F90630B3F57A7F21DB2B
:10508000B3F5FA6FA8BF4FF4FA631DE0940A00204D
:105090008C0A002083370020960A0020980A0020FE
:1050A0007B3700202C0A0020240A0020A00A0020C0
:1050B0000000204135FA8E3C38090020000059409C
:1050C000803300204FF47A73ADF81820A3F57A737B
:1050D000642253434FF47A7293FBF2F3ADF81A3023
:1050E000AE4B02AA90469A46039602950490059507
:1050F00006AE154603CDB542186059602A4603F145
:105100000803F6D12868A64E1860142001464A23E9
:10511000F37110F08BF810F071F810F05DF8A14BFE
:10512000B1461D78A04B05F0040505F0FF02002DE7
:105130000CBF4025C0251B78013BDBB2102B97BF6D
:105140009A494FF0000B5B1893F808B0984B1B88F6
:1051500099071ABF002645F01005012613F4027FB7
:1051600018BF022613F0100F18BF062613F0200FE9
:1051700018BF102632B18F4BDB78002B14BF0522ED
:10518000042205E010F08CFA002814BF022203224A
:1051900000238DF80F2003228DF80D308DF810209C
:1051A00002968DF80CB08DF80E50B8E803008AF81E
:1051B0000820CAF80000CAF804100920322189F832
:1051C000073010F033F810F019F810F005F8C4F8B3
:1051D000C87094F8CC30002B00F0DC80D4F8D000FC
:1051E000754D04F08BF9002800F0D480D5F8D0007C
:1051F00004F081F995F8D43006461BB1013B85F8DF
:10520000D430EBE7032205F1D50005F1D60114F007
:10521000E3FA95F8D53095F8D62083F47F4383F0F0
:10522000FF039B1A85F8D8609BB2B6B2B6EB132F7A
:10523000D4D195F8D710DBB28B42CFD14CE098F89F
:1052400002302BB1C6F8907088F80290FFF7CFB803
:10525000D6F89030FB1AB3F57A6FFFF4C8A8012393
:10526000D6F8940088F8023004F045F98046D6F864
:10527000940004F040F918F07F0F7FF4B8A88A2852
:1052800003D08E280ED0FFF7B2B84C4B1B689A069D
:105290007FF5ADA896F88D30002B7FF4A8A806F115
:1052A000610306E096F88D30002B7FF4A0A806F18C
:1052B0003003C6F898302D2386F89C30FFF797B856
:1052C0009E4600254FF0000C00204FF000084FF0E4
:1052D000000900210A461DE595F8D93002F00F00BB
:1052E00013B908B185F8D90094F8D930324D9842F5
:1052F000FFF474AFC31AD9B202293FF66FAF02F0C0
:10530000F002802A09D160F07F0004238DF80900A3
:105310008DF8083002A8022112E0902A13D106224B
:105320008DF80820214A60F06F0013445B7E8DF8F1
:1053300009008DF80A3002238DF80B3002A80421F1
:1053400005F072FC4AE7A02A7FF448AF174A1344DD
:105350005B7E022B19D0032B0AD0012B7FF43EAFCA
:1053600029690A23053191FBF3F101F5C8710AE0BF
:10537000134B19880A23594395F8DA301BB1114BA6
:105380001B7891FBF3F189B201E00F4BD98805F04E
:1053900077FC23E700200BB0BDE8F08F83370020B7
:1053A0007B370020983A0020240900206C9B0108DC
:1053B0003C090020D82300207C110020380900205F
:1053C000400A002038020020441B00209C492DE99F
:1053D000F04F0A689B4F02F59C4320333B609A4B89
:1053E00089B01D788A46ADB1984909688A4240F271
:1053F000FB80013D1D70F7E0072C96BF944A2146C3
:10540000A15C5B6893489847032C0AD907EB4404D6
:10541000A08001358F4BECB21A781946A242EBD826
:105420001EE00028F2D08C4A4FF47A7332F8241030
:1054300002EB8402401A584353885B1A90FBF3F046
:1054400040F6C90300F57A70984205DC40F2EE237D
:105450009842B8BF184601E040F6CA0080B2D5E7CE
:1054600042F201057D4B1B681D40B5FA85F57C4B6A
:105470006D091A6835B997F8293087F82830794BC3
:105480005878187097F828601EB1764B1E7886F011
:1054900001060F2387F82A306D4B91F80090B3F87E
:1054A00016B01B8B0321019397F82B30DFF8C881CE
:1054B000B3FBF1F101EB4101591AC9B20291002489
:1054C0004C4554DADFF8B4E13EB3AEF1700131F887
:1054D0001400584502D30199884222D95EF824006D
:1054E0005849824203D2604931F814001DE0E0B20D
:1054F00004930392059109F0F0FC032C039A049B9A
:1055000013DC05994FF0010C91F82AE00CFA04FC29
:105510002EEA0C0E81F82AE007E0BBF1000FDDD186
:10552000584602F596714EF82410CDB9029928F824
:105530001100444991F8BCE0BEF1000F04D1022BE8
:105540000ED9012081F8BC00B8F80010B8F80200AC
:105550000844B8F80410084480B20321B0FBF1F00D
:10556000414908F1060821F814000134A8E797F82A
:105570002A203B49A2F10F067242724187F8BD20F2
:105580003A4B92B13A4A1268550103D5334A126830
:10559000D4050AD40A689A60DB68D21AC82A1ED9D0
:1055A000324B012283F8212019E02E4A012050704D
:1055B00010700A689968DA605B68521A9A4282BF72
:1055C0002A4B002283F8212000244C4507DAE0B260
:1055D00009F083FC244B23F814000134F5E797F815
:1055E0002B30013387F82B301C4B1A68994612F484
:1055F000805F05D01E4B1B68D80701D410F042F81D
:10560000134BDAF80040D87A0193002838D0164AB4
:105610005B7B013832F810001BB1C0F53B600830ED
:1056200080B200B2A0F57A70B0F57A7FA8BF4FF4CF
:105630007A7020EAE07011F02DFF0E4957E000BFAC
:105640009832002058120020D4230020D0230020BC
:10565000A4330020C4330020FC2300207C3300202E
:105660006C3600201300002080330020D823002057
:105670004009002000007A4484120020CC1200204F
:10568000D9F8003019043BD5D7F8C030A44DE31A3F
:10569000002B35DB04F59C432033C5F8C030A14B0B
:1056A00095F8C4105A7AA04B013133F81230019AA0
:1056B0009BB2127B93FBF2F301F00F0285F8C4203A
:1056C0002A4482F8C5300346984A825C013013446C
:1056D00010289BB2F8D11BB293FBF0F000B2642803
:1056E000A8BF642020EAE07011F0D4FE904911F0C8
:1056F000D9FF904911F022FF12F00CF98E4B18805F
:10570000D9F80030DFF854B213F4807F00F0EB805A
:105710008A4B8B4E9C4203D9B2780AB90122B270EF
:10572000B278002A00F0DF80854A9BF8005092F89A
:105730002140C5F38005621E54425441814A002C29
:105740009046136818BF4FF0000AC3F380630293BA
:1057500008BF4FF0030A96F82020052A00F2BD800A
:10576000DFE802F00346587B8AA6002D34D0764A43
:105770001268D0880CF099FC012808D1734A74494A
:105780001268B1F80510642000FB01223261029B0F
:1057900053B16F4A12793AB102F01AFA032286F82D
:1057A00020204FF47A7233E0002C40F09680674A54
:1057B00031691068624A88420AD9039202F008FAF5
:1057C000039A032182F8201040F6B831D161C2E774
:1057D000012182F82010BEE7029B4FF4806013B1D4
:1057E00002F0E6F901E002F0D3F90022326174E040
:1057F000002C54D1564AD279012A02D002F0E8F99D
:10580000A9E702F0E5F9032286F8202040F6B83235
:10581000F261A0E724B1052286F82020012000E0F3
:10582000204675B1019B4B491A8A494B0A804A8030
:105830008A809A7893F803E04FF0020A42EA0E2237
:10584000CA80424A11687269914201D8002D41D143
:1058500047F23052F261032222E09BF8002042F02E
:1058600002028BF800200FF00DFF384AF169126830
:105870000A44B261042213E0344AA4B11168B26947
:1058800091422AD9344A12781AB9D8F80020D3079D
:1058900023D49BF8002022F002028BF8002005227E
:1058A00086F8202057E71268F1690A44B26114E0D3
:1058B000264A27491268B1F80510642000FB01222E
:1058C0004FF480603261002286F82020F27002F0EE
:1058D0005FF940E700287FF43EAFBAF1000F02D035
:1058E00050460BF009FE184B1B68D8880CF0DDFB06
:1058F000019B064617481B8AB0F9022003F10B01F1
:10590000914202902CDB0B3B934229DCB0F9002042
:10591000914225DB9342CCBF0023012321E000BF4D
:1059200058120020E4190020F41900201D13002053
:105930000000C84200C07F44540A0020404B4C0085
:10594000D823002040090020300C00206C360020B5
:10595000780A00208033002087010020983A002038
:10596000002386B9944A1268150112D5934AD27859
:105970007AB99BF8002054070BD523B1904A1378CD
:1059800043F0200303E08E4A137823F020031370C2
:105990000CE08C4A00238C48136053608B4A002132
:1059A0000360116043605160836091609BF8003038
:1059B000580732D5D9F80030D9062ED5804B1B7840
:1059C000DA062AD4824B1B7883B1824B9B789EB92E
:1059D0006BB1814B1A68D7F8D8309B1A002B06DAC6
:1059E0000FF050FE7D4B83F8DC6016E06EB910209E
:1059F0000BF082FD01230EE03BB1774A4FF47A7140
:105A0000126801FB0323C7F8D83097F8DC3023B1C4
:105A10000BF058FA002387F8DC306E4B00221D781B
:105A20005978019B5C8AB3F814E0134602989B08EE
:105A300030F912000132A042C4BF63F07F03DBB231
:105A40007045B8BF43F04003042AEFD197F8DD203A
:105A500062489A4205D190F8DE20F92A04D8013232
:105A600000E0002280F8DE20594C87F8DD302378F2
:105A7000E3B9514B1B68DB0707D5BEB99BF8003073
:105A8000DE0713D50FF0B0FD10E09BF8003058078B
:105A90000CD5524B93F8283043B1484BDB782BB9E7
:105AA00011B10FF0EFFD01E0002EFAD097F8DE30D3
:105AB0004A4E142B40F0A1802378003518BF0125F1
:105AC0003BB396F8DD305F2B0ED19BF8003003F02E
:105AD000040303F0FF0813B10FF0D4FD04E00B2022
