:020000040800F2
:1000000000500020D960010875610108A93C010871
:100010007561010875610108756101080000000043
:1000200000000000000000000000000075610108F1
:10003000756101080000000075610108BFD9000862
:100040007561010875610108756101087561010834
:100050007561010875610108BD7D0008BB7D000860
:100060007561010875610108756101087561010814
:1000700069B7000859B7000879FB000875610108E5
:1000800049B7000839B700087561010875610108B2
:10009000756101087561010875610108B97D000885
:1000A0007561010845F900087561010855F90008F6
:1000B00039F9000829F9000819F900082D6C000821
:1000C000316C0008256C0008296C00087561010876
:1000D000756101086DFB000861FB000855FB000815
:1000E0004DDB000875610108756101080000000022
:1000F0000000000000000000000000000000000000
:0C01000000000000000000005FF808F1A3
:100110002DE9F04FA54C97B02368A54E9D89A54BBE
:100120001B7C23BB2368A44C9D89A44B28461D80BF
:1001300015F092FAA249814615F0E6FAA14B07465E
:1001400018600021606815F073FCA0B19E4B6360DD
:1001500011E098470028E5D10DF0CAF89B4B1B68C9
:10016000EB1A18449A4B1B6864339842DAD2F3684E
:10017000002BEED1F0E73846616815F0BDF9014675
:10018000384615F075FBD4F80080074641464846CE
:1001900015F0B0F90146384615F0B6FA014640466A
:1001A00015F0AAF9206015F09BFC8A4A8A4B80B2B0
:1001B00012791D802D1AA0815D809A80874873680E
:1001C000984748B9864B874E1A68049312F0020F7D
:1001D00040F0208100F016BE0023774D824E05F1DD
:1001E0000E0232F9132046F823200133032BF4D1F9
:1001F0006B617E4B304631461A7809F0EDFCD5F83C
:1002000018800021404615F013FC78B1784F3B88E8
:10021000002B00F0B680D4F88C30DFF8DC811B783E
:1002200008F10C0504934FF000096FE02B7F9BB998
:100230006B616569604F022D0CDC07F120032421FE
:1002400001FB0531624B40461A68013511F0C3FBD2
:100250007D61EEE701233B77237F002BD6D0564B01
:1002600000225A616569544F022DCFDC56F82500F3
:1002700015F0F6F907F12003242101FB053111F0F7
:1002800077FB18F083FA46F8250001357D61E9E730
:10029000D5F800C008936146CDF818C0079015F056
:1002A00029F9089B8346184615F0DAF901465846A5
:1002B00015F0DEFADDF818C00146604615F01CF9AD
:1002C0000346079A194668601046069315F012F91E
:1002D0000146584615F018FAA96815F00DF9069B65
:1002E000E8602B60A860DFF80CB1002346F80A3004
:1002F0004AF80B30059B012B26D009F10109B9F111
:10030000030F08F1040805F1140547D03B8856F89F
:100310002900B3F57A7F059302BF0023C8F80030A7
:100320002B61D8F800304FEA890A0344C8F800303E
:1003300015F096F92B690133012B2B61A8D100230D
:1003400068602860AB60CEE72869012807DD0138C6
:1003500015F086F90146E86815F08AFA00E00020F9
:1003600018F0DAFB049A72B10590104615F078F98E
:10037000059B0146184615F083FB20B14FF47A73B4
:100380003B8000233AE0D8F800304FF47A7203F54E
:10039000FA7393FBF2F34BF80A30AEE73888012882
:1003A00001D10BF067F93B88013BE9E73C2A0020CB
:1003B00070160020C02D0020F4060020B03600206A
:1003C000BD3786351836002083F9223EF4280020F8
:1003D0002C170020042B0020180B002002070020FF
:1003E0002417002058360020701D00209916002088
:1003F000A8360020CC07002084070020964956F834
:10040000232051F82310521A46F823200133032BDE
:10041000F4D1D7E6914B1B78002B00F0F3840CF05D
:1004200067FFD4F8E4308E4DC31A0693D4F8E83051
:10043000C4F8E4001F7805934FF0000A4FEA4A031E
:100440000793002F3AD056F82A0015F009F9834691
:10045000069815F001F9834915F056F900218146F7
:10046000686815F0E5FA58B1384615F0F9F87E4994
:1004700015F04AF901464FF07E5015F0F9F9686021
:100480004846696815F038F80146484615F0F0F915
:10049000D5F8008081464146584615F02BF80146B4
:1004A000484615F031F90146404615F025F8286018
:1004B00015F0F0FA6D4A079BD05204E056F82A1066
:1004C0006A4A22F81A100AF1010ABAF1030F05F17B
:1004D0000C05B3D16549B1F802A0B1F800900FFA4C
:1004E0008AF252430FFA89F303FB03228B886421BB
:1004F0000993BDF9243003FB032301FB03F25C4B9A
:100500001B885B4392FBF3F3523B0B93049B1B68EA
:10051000180706D5574A116819B1516809B1926890
:100520007ABB554A127802F0100101F0FF0561B361
:1005300013F0200529D002F0020303F0FF0523B3D6
:100540004E4B1B78042B1FD94D4B1B88B3F5967F60
:100550001AD34C4B0026B3F9040015F081F84A4B2E
:100560000546188815F07CF8484915F081F90146D0
:10057000284614F0BFFF464915F0C6F8012580460D
:1005800006E00025012601E000252E464FF0000878
:10059000069815F061F8334915F0B6F83D4FD4F8D8
:1005A00010410490386815F05BF8214615F0ACF85E
:1005B0000790786815F054F8214615F0A5F80890D2
:1005C000B86815F04DF8214615F09EF8294A834683
:1005D0000798536801460A931768946815F094F8D1
:1005E0000C900898014615F08FF80C9A01461046B9
:1005F00014F082FF59460C90584615F085F80C9A75
:100600000146104614F078FF18F086FA0C90002D81
:1006100046D04046204915F033FA28B140461249E9
:1006200014F068FF8046F4E740461C4915F00AFACA
:1006300028B140460C4914F05FFF8046F4E74FF0C4
:100640007C51404615F060F811F00CFD002114F0CB
:1006500053FF054625E000BFCC0700208C36002064
:10066000E0070020BD378635DB0FC9401A0E002099
:1006700004000020642900208C1D00203C0E002076
:10068000380E0020681D0020D40A00200000204100
:1006900035FA8E3C701D0020DB0F4940DB0F49C04E
:1006A0000025002E00F0A180384614F0D9FF07463F
:1006B0000A9814F0D5FF0646204614F0D1FF3946BB
:1006C0000446384615F020F831468046304615F08D
:1006D0001BF80146404614F00FFF21468046204695
:1006E00015F012F80146404614F006FFA349804673
:1006F00015F0C6F9002878D0404618F00DFA0146EA
:100700004FF07E5015F0B4F880463846414614F05C
:10071000FBFF41460A90304614F0F6FF414606467C
:10072000204614F0F1FF964F044639680A9814F0F9
:10073000EBFF79680D90304614F0E6FF0D9B014603
:10074000184614F0D9FEB9680D90204614F0DCFF6D
:100750000D9B0146184614F0CFFEF9680D900A98DB
:1007600014F0D2FF39698046304614F0CDFF0146BF
:10077000404614F0C1FE79690646204614F0C4FFD5
:100780000146304614F0B8FE0D9B04461946184643
:1007900014F0BAFF21460646204614F0B5FF014684
:1007A000304614F0A9FE18F0B7F90146204614F0BF
:1007B000ABFF00F10048B969404614F0A5FF0021E5
:1007C00014F09AFEF9690646404614F09DFF002198
:1007D00014F092FE396A0446404614F095FF014633
:1007E000284614F089FE054601E0002426460B9BAE
:1007F000262B00F286800FFA89F014F031FF814633
:100800000FFA8AF014F02CFF0746BDF9240014F00B
:1008100027FF49468046484614F076FF394682460F
:10082000384614F071FF0146504614F065FE41460B
:100830008246404614F068FF0146504614F05CFEC4
:100840004E49824615F01CF900285AD0504618F03F
:1008500063F901464FF07E5015F00AF8824648468B
:10086000514614F051FF51468146384614F04CFF72
:1008700051460746404614F047FF414B82461A6AEC
:1008800038461146D3F81C800A920B9314F03CFFB3
:1008900041460990504614F037FFDDF824C0014668
:1008A000604614F027FE0146304614F025FE0B9BEF
:1008B00006469B6950461946099314F025FF0A9A8B
:1008C00082461146484614F01FFF0146504614F078
:1008D00011FE0146204614F00FFE414604464846EC
:1008E00014F012FF099B80461946384614F00CFF9D
:1008F0000146404614F0FEFD0146284614F0FCFD7A
:100900000546059B4FF00009D3F804804946404650
:1009100015F0B6F81B4F002838D00C981A4915F07E
:1009200091F8002838D03146404614F0EDFE049985
:1009300014F0EAFE0146D7F8140114F0DDFD21465B
:10094000C7F81401404614F0DFFE049914F0DCFEF1
:100950000146D7F8180114F0CFFD2946C7F8180151
:10096000404614F0D1FE049914F0CEFE0146D7F8AB
:100970001C0114F0C1FDC7F81C010DE00AD7233C8F
:1009800028200020F4060020C2B8B23EC7F8149117
:10099000C7F81891C7F81C91059B9868064B1B78FF
:1009A000590705D4054B1A6844F61F639A4207D9C4
:1009B0004FF07E5105E000BFB6360020201A00201F
:1009C000A34914F0A1FE3146804614F09DFED7F8ED
:1009D000141114F091FD0146079814F08DFD214685
:1009E0000646404614F090FED7F8181114F084FD26
:1009F0000146089814F080FD29468146404614F0CF
:100A000083FED7F81C1114F077FD0146584614F008
:100A100073FD4FF07C510546049814F075FE0446B2
:100A20003046214614F070FE21460646484614F032
:100A30006BFE21468046284614F066FE854B8246B2
:100A4000D3F80090844B31461F68844B09F1004075
:100A50001D6814F059FE41460790384614F054FEC4
:100A6000079B0146184614F045FD5146079028465D
:100A700014F04AFE079B0146184614F03BFD784CE3
:100A80000146D4F800B0584614F036FD31462060D7
:100A90000990584614F038FE51460790384614F035
:100AA00033FE079B0146184614F026FD4146079089
:100AB000284614F029FE079B0146184614F01AFD3B
:100AC0000146484614F018FD624B414618600890F4
:100AD000584614F019FE51460790484614F014FE8B
:100AE000079B0146184614F005FD3146079028463D
:100AF00014F00AFE079B0146184614F0FDFC01465F
:100B0000384614F0F9FC544A514610600790584694
:100B100014F0FAFD41468246484614F0F5FD0146C0
:100B2000504614F0E9FC31468046384614F0ECFD9E
:100B30000146404614F0DEFC0146284614F0DCFC79
:100B4000DDF824C0454B614618600546604614F048
:100B5000DBFD089A06461146104614F0D5FD014605
:100B6000304614F0C9FC079B06461946184614F097
:100B7000CBFD0146304614F0BFFC29460646284608
:100B800014F0C2FD0146304614F0B6FC17F0C4FF65
:100B900001464FF07E5014F06BFE05462068294652
:100BA00014F0B2FD2B4B20602946186814F0ACFD00
:100BB000284B29461860284B2A4C186814F0A4FDCD
:100BC000254B29461860254B274D186814F09CFDCD
:100BD000224B18600DF0ECF8216AE06911F0C0F9C1
:100BE000224914F091FD17F0D1FD2880A06900F191
:100BF000004011F078F901461D4814F07BFC1B49B8
:100C000014F082FD17F0C2FD21686880E06811F0E1
:100C1000A7F9164900F1004014F076FD154B19684C
:100C200014F06AFC17F0B2FD83B21A044ABF00F553
:100C30006160AB80A880266A0F4D3046D5F8201140
:100C400014F01EFF0D4B1A78D0B142F0080219E0E3
:100C5000000020411C200020202000202420002013
:100C60002800002028200020681D00204C3D0F4453
:100C7000DB0FC93F3C170020F40600208C1D00202C
:100C800022F00802944F1A70B7F9000014F0E8FC43
:100C90008146B7F9020014F0E3FC8046B7F904007E
:100CA00014F0DEFC21680746484614F02DFD61680B
:100CB0008246404614F028FD0146504614F01CFCC4
:100CC000A1688246384614F01FFD0146504614F0D4
:100CD00013FCA1698246484614F016FDE16983467B
:100CE000404614F011FD0146584614F005FC394603
:100CF0008346304614F008FD0146584614F0FCFBCC
:100D0000E1680646484614F0FFFC216981464046EA
:100D100014F0FAFC0146484614F0EEFB6169804687
:100D2000384614F0F1FC0146404614F0E5FB059B03
:100D300000F100475B78012B18D1684B1B785B07EB
:100D40000ED4D5F82401402390FBF3F3C01A14F01D
:100D500087FC314614F0D0FB14F09CFEC5F824014A
:100D6000D5F82401402390FBF3F001E05C4B188898
:100D700014F076FC0146304614F0BCFBD5F82C117B
:100D80000646049814F0B8FB0146049814F070FD70
:100D9000D5F8284180462146304614F0ABFB014689
:100DA000404614F0B1FC0146204614F0A5FBC5F8FE
:100DB00028010646504617F0E9FCD5F83051494C59
:100DC000297811F081F8236818442060384617F01C
:100DD000DDFC297811F078F86368184460603046CB
:100DE00017F0D4FC697811F06FF8A3683E4A1844F4
:100DF00006991368A060194411603C4A13680133D6
:100E0000136003E0002333607360B360384BB3F9C1
:100E10000610384BD3F800E0BEF80A2091420FDBF1
:100E2000B1F5FA6F9EF80750BFBF8B1A6B43A2F55E
:100E3000FA6593FBF5F5ACBFC5F16405643500E0D8
:100E400064252D4B2D4AB3F8A0C193F96231126885
:100E50009BB20492164605930022254B4FEA4209A5
:100E600033F91280049CCCEB0803002BB8BF5B4223
:100E7000B3F5FA7FA8BF4FF4FA73022A4FF064006B
:100E800044D094F81D411CB1A342CCBF1B1B0023CE
:100E900093FBF0F71A4C6FF0630B34F817A00BFBC1
:100EA000073B013734F917400FFA8AF7E41B04FBBC
:100EB0000BF494FBF0F4134F544427F809400EEB65
:100EC000020424796343104C93FBF4F364339BB224
:100ED0006B4393FBF0F046E01A0E0020B63600207C
:100EE000040000202429002094360020202900201E
:100EF000042D0020E82A0020C02D00204C1D0020D9
:100F0000A61A0020601D00200CFEFFFF94F81E4171
:100F10001CB1A342CCBF1B1B002393FBF0F0AD4CD4
:100F20006FF0630A0AFB003B04EB400704EB400050
:100F3000B7F93471B0F93601002BA0EB070000FBC4
:100F40000BFB9BFBFAFB0598C7EB0B0707FB00F7B6
:100F5000A148B8BF5B4287809EF8060043439F4884
:100F600093FBF0F0643073786427434393FBF7F30B
:100F70009B4C022AA354F37A9A4C00FB03F393FB95
:100F8000F7F3A354737D944C00FB03F090FBF7F050
:100F9000954B9854954B0DD1E0459F700DDB944DCA
:100FA000B5F8A221914214DBB1F5FA6FA8BF4FF456
:100FB000FA610FE0E0459D5404DA34F809305B42F1
:100FC00024F809300132032A06F101067FF445AF07
:100FD000E5E71146891A4FF47A735943C2F5FA626C
:100FE000B1FBF2F1642391FBF3F2DFF854E26FF00E
:100FF00063003EF8127000FB021101323EF912202C
:1010000038B2121A514391FBF3F33B44E380794B1E
:10101000714E1B885F063FD5774B0A20B3F9043029
:1010200093FBF0F0754B1B88C01A00B214F018FB4C
:10103000734914F069FB074611F088F8804638467A
:1010400011F010F80746B6F9020014F009FB8146CA
:10105000B6F9000014F004FB4146824614F054FB3C
:1010600039468346484614F04FFB0146584614F073
:1010700041FA14F00FFD41463080484614F044FB1D
:1010800039468046504614F03FFB0146404614F076
:1010900033FA14F0FFFC70805A4B1A78500703D5CE
:1010A000594B08225A613CE058490968C9075CBF9E
:1010B00042F001021A70564A5649127817075EBF6D
:1010C0001A7822F001021A70534A126812F0040FC3
:1010D00002D05248008870B95148008808B196077C
:1010E00009D4504A1288003218BF01221AB94E485A
:1010F0000079632806D902220A701A7822F00102C8
:101100001A7005E01B78D80756BF02230A700B70CF
:101110000CF0EEF8454B1B68C01A002801DB08F004
:10112000C9FE434B9B680BB14248984795F89E31E6
:10113000284F002B00F08880BB89B7F84801B0FB2E
:10114000F3F03D4B461C1B78B6B2A7F84A611BB3BF
:10115000B7F94CA10023DFF87CE034F813800EF5DA
:10116000AB7C3CF813200EF5A779C2EB080B39F9DC
:1011700013202CF813800AFB02F132B291FBF2F239
:101180005A4429F813200133042BE4D12A4B0022BE
:101190001A70AEF84C0104E0B7F84C31013BA7F8E7
:1011A0004C310C4A0023B2F94C0100284ADDB2F957
:1011B0004A612249A1F1080232F9132031F81310D3
:1011C000424392FBF6F28A1A24F813200133042BCF
:1011D000EFD139E0F4060020601D00200CFEFFFF77
:1011E000601E002036080020781E00207C1D002094
:1011F000C02D0020501A0020681D00203E0D002048
:1012000035FA8E3CB6360020000C0140541A0020FE
:101210008C1D0020481A002024170020AE36002024
:10122000FE0C0020A8360020042B00204C1A0020C1
:10123000701600203A080020D40D00204A08002033
:101240008E1A0020A2F84C31A84EA94B306801221A
:1012500001071A7042D5A188DFF8ECE20BB2002B2F
:10126000B8BF5B420E2BA34BB3F9043031DCA24A6A
:10127000128852072DD50A2293FBF2F2BEF80030F5
:10128000D21A92B293B20FFA83FE1EF1B30FBCBF13
:1012900002F5B4739BB2DFF868E21AB2B32A9EF883
:1012A00000E0C4BFA3F5B4739BB21EF0080F95F81D
:1012B000622113D052B252425343904A1BB2126879
:1012C000527A53436FF01D0293FBF2F30B44A38059
:1012D00004E00A2293FBF2F3AEF8003010F0140F92
:1012E000DFF8689271D0844B1B8803F40273002BE3
:1012F0006BD0834B1B7803F0100303F0FF0E43B158
:10130000804B95F900121A68638801FB02336380F1
:101310005BE0D9F860317C4AD9787C489B7829B366
:10132000B0F90010B2F90600421A002AB8BF5242C2
:101330009A420EDD764A8842C2F800E04FF0010280
:1013400089F86421C8BF5B42E2889BB21344E38002
:101350003BE099F864312BB16E4B89F864E11A686F
:101360006D4B1A60674B1B680B4423E0B0F900001B
:10137000B2F90620121A82EAE27EAEEBE27E9E45C8
:101380000ADD022392FBF3F2644B1A60644A0123E4
:10139000137089F864310AE099F864313BB15D4B10
:1013A00089F864111A685C4B1A605D4B1970554BD3
:1013B0001B680344D9F868110A884988934203DB03
:1013C0008B42A8BF0B461A46E280564B1B78ABB146
:1013D0004D4BB3F90620B5F8A2319A420EDC524BC0
:1013E0005B79012B01D0192B02D195F8F6212AB98E
:1013F0000E2B03D0082B1CBF0023A3803F4B1B6880
:1014000093F824A1BAF1000F2FD03B4B1B889B0708
:101410002BD0464B4649D3F82080404614F01CFBA5
:10142000F8B9404610F05FFDD7F86C1114F06CF974
:1014300017F0ACF9B0F5617FA8BF4FF4617014F0FC
:101440000FF93C4914F014FA10F00CFE0746504610
:1014500014F006F9394614F057F917F097F980B2ED
:1014600000E00020E3881844E08033689F0640F1E4
:10147000CE80214B1B8803F03003002B00F0C78087
:101480001F4B1B78DE0740F1C2801A4BB3F90400F2
:101490000A2390FBF3F014F0E3F8274914F034F931
:1014A000064610F0DFFD8046304610F04FFE234B1D
:1014B00007461B68224AD978224E002974D0DFF8EB
:1014C00090B0B2F90200BBF802A005910FFA8AF3BE
:1014D000C01A04920DF00CFF0599049A4B429842F1
:1014E00038DB8842A8BF084635E000BF241700203B
:1014F000D50D0020681D0020501A00204C1D002032
:101500008C1D00204C290020042D0020D60D002029
:1015100048290020F00E00204029002098360020A5
:101520005029002002000020C02D0020282000208B
:101530008FC2753CEFB6B04435FA8E3C440D0020A6
:10154000560D0020AA3600203C0D0020F406002095
:10155000520D00201846BBF800C08244B2F90000CA
:101560000FFA8CF21FFA8AFA801A0693CDF810C08F
:101570000591ABF802A00DF0BBFE069BDDF810C094
:10158000984204DB059903468842A8BF0B46634492
:101590009BB2ABF800300FFA8AF0049314F060F8B5
:1015A000049B834618B208E0B2F90200049214F0DA
:1015B00057F8049A8346B2F9000014F051F83946FE
:1015C0008246584614F0A0F841460490504614F064
:1015D0009BF8049B0146184613F08CFF9C4914F0BD
:1015E00047F914F057FA41463080584614F08CF809
:1015F00039468046504614F087F80146404613F0BD
:101600007BFF934914F034F914F044FA7080914B45
:10161000B5F874211868904B0093904B1D68904B5F
:10162000196800F16403A8478E4B8F49DB78049357
:101630008E4B1E78032E15D9D9F870319D88B5F5DB
:10164000FA7F0FD2B4F90400B1F904700028B8BFD2
:1016500040426A42131A9F4203DB2B18BB42A8BFC9
:101660003B468B80824B1B6813F000620BD1D9F88C
:101670007001E3884F88B1F800800590B1F904A0AB
:101680007C4D144669E10B88002705933D46D9F847
:101690007031B946B1F802A0B1F904B0DFF8F481B5
:1016A0000693B14541D20FFA8AF013F0D9FFD8F86A
:1016B000081014F029F80790BDF9140013F0D0FFBA
:1016C000D8F8041014F020F8DDF81CC0014660467C
:1016D00013F012FF069B079093F9020040420BFBA8
:1016E00000F013F0BDFFD8F80C1014F00DF8DDF881
:1016F0001CC00146604613F0FFFE14F0CBF90FA9A1
:1017000080B221F819000FFA85FE01B2714504DCA0
:101710000FFA87FE714502DB28460546384609F177
:10172000010908F110080746BBE7534BED1B1A6887
:10173000ADB212F4805F0593DFF85CA138D04F4A58
:101740004F4E127812F0040F4D4A02BFD2F83812F1
:10175000098AA2F83412D2F838224A49108A4A4A31
:10176000B1F8068014680FFA88F7E288811A8F4270
:1017700004DCDAF800202788148806E00244974247
:1017800006DBDAF8002064885788A6F8348215E072
:10179000B6F934228A42D9BF2788DAF80020DAF86D
:1017A00000206488D9BF1488B8465788A04605E051
:1017B000DAF80020B4F8068057881488BAB21FFA05
:1017C00084F9C9EB0206B6B20FFA85FB30B2834545
:1017D000264D2E4962DD01220A7013F041FF06906A
:1017E000584613F03DFF069A0146104614F040F8A3
:1017F0008346002229788A4214D20DF13C0C3CF930
:101800001200CDF81CC0069213F02AFF594613F0BF
:101810007BFF16F0BBFF069ADDF81CC02CF8120007
:101820000132E7E7164AD2F87021507813F018FF1A
:10183000174914F01DF80146584614F021F9B8B3C1
:1018400036B2022496FBF4F44C44A4B227462FE0AF
:10185000000020414C1D0020502F0020740100206A
:10186000E82A0020241A0020C01D00207B1E002032
:10187000541A002070080020382A0020B6360020B4
:10188000F4060020042D00209C1F00208D1D002048
:101890000000C84268080020A01F00200020087037
:1018A00002209BFBF0F009EB0004171AA4B2BFB2B0
:1018B000059BDAF800601B6895F8009003F48053EC
:1018C0000693A34B0025B3F934A2D3F8383205931D
:1018D000A04BD3F800B04D4580F007810FAB33F833
:1018E00015200FFA88F0079213F0BAFE9A4B2901DF
:1018F000C95813F009FF14F0CDF823B29842079AA3
:1019000003DB3BB28342A8BF034613440498934AC7
:101910009BB222F8153069001BB208B1B08811E003
:10192000069870B10598BBF806E0008ACEEB00007F
:10193000824503DC3088BBF800E005E0BBF802001C
:1019400000E03088B6F802E0834203DB7345A8BFAD
:101950007346184650520135BDE7B44205F11005F3
:10196000DFF8F8B13BD218B2079313F079FE55F8BF
:10197000181C13F0C9FE069038B213F071FE55F82A
:10198000101C13F0C1FE069A0146104613F0B4FD78
:1019900006900FFA88F013F063FE55F8141C13F04C
:1019A000B3FE069A0146104613F0A6FD059B06906D
:1019B00093F9020040420AFB00F013F051FE55F883
:1019C0000C1C13F0A1FE069A0146104613F094FD7C
:1019D00014F060F8079B2BF814000134BDE7BBF846
:1019E00000300121B1421AB207D23BF91130013166
:1019F0009A42B8BF1A4693B2F4E75949D9F87081B0
:101A00000968D9F838C248880BEB46098242C8BF3A
:101A1000181A544B514A1F68C8BF80B207F480534C
:101A20000593514BD8BF0020B3F90640494B07F04E
:101A300010071D684A4558D01388059E1B1A9BB293
:101A400022F8023B4EB398F800A0BCF810E0BAF1BF
:101A5000000F08D1B5F806A0CAEB0E0B5C4502DDFD
:101A6000F244544514DB7445CCBFB5F802E0B1F83C
:101A700004E01BB2CCBFB1F802A0B5F800A07345DA
:101A800003DB5345A8BF53469E4622F802ECD1E73C
:101A90007445CCBF6B882B8824E0049EB1F802E02B
:101AA0004EB132F902AC8B889A451BDBF2455346A6
:101AB000A8BF734616E0B1F800A01BB2534503DB84
:101AC0007345A8BF73469A4622F802ACBCF81230A0
:101AD0009C42AFDA0FB18B8804E098F80030002BFD
:101AE000A8D10B8822F8023CA4E720490A788B464B
:101AF00002F0040202F0FF0342B1154890F83C32B4
:101B0000013BDBB2182B00F23D810BE0184A127842
:101B10009342F2D2174931F81300104921F813000B
:101B20000133F5E701229A40134B1340002B00F0DC
:101B30002981124B0C491B8813F4807F22D0104B53
:101B40001A88ADF83C205A889B88ADF83E202FE0DB
:101B5000F40600209C1F002068080020B41E00200E
:101B6000A01F0020382A0020042D0020B6360020B7
:101B70007B1E0020EC2A002099209801501A00209A
:101B8000601D0020B44B1A88ADF83C205A889B8811
:101B9000ADF83E20B14AADF840301268D40409D502
:101BA000D0F83822B1F90640128A944202DA5B4238
:101BB000ADF84030AA4D4FF47A72B5F902304FF4C7
:101BC000616403F5E163534393FBF4F3A3F5FA7304
:101BD000ADF85430B5F9003003F5E1635A4392FB98
:101BE000F4F2A04BA2F5FA721B88ADF85620A3F2CE
:101BF000DC53ADF84230D0F838320A881B8AD21A4A
:101C0000ADF844204A88D21AADF846208A88D21A04
:101C1000ADF84820CA88D21AADF84A200A89D21AEB
:101C2000ADF84C204A89D21AADF84E208A89D21AD2
:101C3000ADF85020CA89D31AADF8523000238A4A31
:101C4000002122F813100133082BF8D1874B884963
:101C50001B68884D0493884B1B680593874B1B7842
:101C6000C3EBC30301EB0308414573D00B7833B1D9
:101C700003F1150201239340049A134066D0059B9B
:101C800011F806EC0E2707FB0E37B7F90020B7F95D
:101C9000023064209B1A11F9022C9BB25A4392FB2A
:101CA000F0F211F805AC4FEA530911F8034CC9EBF7
:101CB00002024FEA4A0616A892B211F801CC064475
:101CC00014B936F81C0C0CE0B5F9000036F91C6CA0
:101CD000B04208DA0444844203DBA6423046A8BF7F
:101CE0002046288008E007DD041BB44203DB844261
:101CF000A8BF044626462E80D7F80A40012000FAE5
:101D00000AF02042B5F9006011F9040C12B200FB90
:101D100006F04FF0640690FBF6F014BF4FF0FF346E
:101D2000012490420ADB4FFA8CF25A4392FBF6F2FE
:101D3000C9EB020212B28242A8BF02464A4B33F8F4
:101D40001E9002FB049423F81E4000E02B80023515
:101D5000073189E7484B4A4E1F6800250E2303FBD5
:101D6000057393F9064036F9023FE8B263436424F1
:101D700093FBF4F434800CF001F801352044082D75
:101D80003080EBD1354F384D3B683B4E13F0200F80
:101D900033D000200BF0F2FF2880044601200BF026
:101DA000EDFF324B68801B68190626D5354B2C4A4F
:101DB000D3F860321B78012B23D13168B2F900309F
:101DC00091F914E04FF0320C03FB0EF393FBFCF39C
:101DD0001FFA83FE91F90630B2F902205B425343A9
:101DE0006FF0310193FBF1F193FBFCF30EEB010279
:101DF000A1187344298018446880D6F800E00023B5
:101E000019E0D6F800E0B2F902309EF90610594305
:101E1000322391FBF3F1214429809EF91440B2F959
:101E2000001001FB04F292FBF3F21044E4E70133EB
:101E3000082B2A5328D00E2101FB03E135F91300AA
:101E4000B1F900205C009042B1F90210EFDB0AB258
:101E50008242A8BF0246EAE7C01D0020382A0020BF
:101E6000681D0020B41E0020C40A0020541A00205F
:101E7000AB1F002032090020581D0020A41F0020A5
:101E8000C20A0020F4060020A64CD4F870A19AF9EA
:101E90000C30A3B994F83C8208F1FF33182B74D8A6
:101EA000DFE803F0377373517373734A737373739B
:101EB000735B7373737373516773735B3700DFF80E
:101EC00084924FF0000839F9020F13F0C9FB964BCA
:101ED000242101FB08310FF04BFD16F057FC32684E
:101EE0000E2303FB082280B2A9F80000B2F90030EB
:101EF00000B29842B2F9022003DB13B28342A8BFBA
:101F0000034608F10108B8F1080FA9F80030DAD14A
:101F1000C0E79AF8063013B10020698908E09BF801
:101F2000003003F0040303F0FF00002BF4D101465E
:101F300005F036FF012629E00020E98805F030FF92
:101F40000120298905E00020298905F029FF6989F8
:101F5000012005F025FF022618E00226B01E35F804
:101F60001610C0B2013605F01BFF082EF6D106266A
:101F70000CE00326F01E35F81610C0B2013605F04D
:101F80000FFF072EF6D1042600E000263B689A06D4
:101F900002D4B8F1050F0AD13046298805F000FFB8
:101FA000701CC0B2698805F0FBFE0236F6B23B68D1
:101FB000DB0205D494F884337BB10BF025FE0CE0F2
:101FC000DFF8848100257019C0B238F8021F05F0CF
:101FD000E7FE0D2DEED00135F5E7544B18780028BB
:101FE00040F0C5813B681D0340F1C181504D2B7805
:101FF000033B052B1FD84F4B93F8143833B1012BFB
:1020000009D10DF051FCC0F17F0004E0D4F8880341
:1020100003689B689847D4F88C3394F89023134452
:10202000B3F5807FA8BF4FF480738342D4BFC4F858
:102030008C33C4F88C032B78023B092B00F2878188
:10204000DFE813F00A0015004C0084009A00B3008A
:10205000C5003E015B0166010023C4F88C33C4F85F
:102060009433354B1B68C4F8983303236EE1324B2D
:102070001A68D4F8983364339A4240F26881402059
:102080000CF032FF002840F062814FF040082B4BEB
:10209000D4F89423234F985C1E4680B108F008F9C9
:1020A000D7F88C33B8F1010803F1FF33C7F88C334C
:1020B000D7F8943303F10103C7F89433E7D1D4F888
:1020C0009423184BB25C002A40F04181C3F894235A
:1020D0004FF0FF32C3F89823042337E126230093FF
:1020E000174B492003F10C02019302925021A3F1F6
:1020F0000A02023308F0CCFC002840F028813B683B
:102100004FF0FF3213F080030FBFC4F89433C4F8CC
:102110009403C4F89823052304BFC4F89823072325
:1021200014E100BFF406002058090020B736002053
:10213000200B0020C02D0020201A0020F897010855
:1021400062980108C20A00200A2D00208A4A022350
:102150000021009301910291482002F1080308F048
:1021600097FC002840F0F3804FF0FF33C4F8983319
:10217000C4F894030623E9E0804B072603F10C0220
:10218000019302920096A3F1080247200021043334
:1021900008F07EFC002840F0DA804FF0FF33C4F8EE
:1021A0009403C4F898332E70D1E0754A05230021BA
:1021B000009301910291532002F1080308F068FC9A
:1021C000002840F0C480C4F894030823BEE04020F7
:1021D0000CF08AFE002840F0BA80D4F894330D2B1E
:1021E00000F2BB80DFE803F0070B0E1219202C3140
:1021F000363A3E4C575B63480CF0DEFF5AE06248CB
:1022000062491AE062486349634A51E0634B64489B
:1022100093F8121893F813284AE0624B624893E847
:10222000060008331B6833E05C4B0C2193F8EC2765
:102230005E4801FB023393F8EE170CF0BDFF39E066
:10224000564B5B48B3F84411F7E7544B5948B3F881
:102250004611F2E7584B59481969EEE7584B59486F
:102260001988EAE7D4F89C33D80404D54B4B564878
:1022700093F88211E1E7554B0C22C3F8942319E03F
:10228000464B534893F8861193F8872193F885318C
:102290000CF092FF0EE04F48B4F8A013CDE73B6876
:1022A000190507D53D4B4C48B3F88A11B3F988217D
:1022B0000CF082FFD4F894330133C4F8943346E031
:1022C000464B1B689A0115D5B4F8A4333F4E8BB921
:1022D000D6F8A8330E200F93414B0FA91B6810931B
:1022E00008F0D0F84FF48053A6F8A2330A232B70DD
:1022F00008F020F908F0A8F829E094F8AC33002B96
:10230000F6D0364B1B689B01F2D409232B70F1E702
:10231000344B1A68D4F89833C8339A4204D91F4B07
:1023200093F814688EB904E00CF024FE0028F6D16E
:102330000DE0D4F8880308F075FF94F8AD33C4F8C5
:102340008863022B01D111F0ECFD01232B700CF0FE
:10235000FBFD60B101232B7009E00CF00BFE00289F
:10236000F5D04FF48053A4F8A2330A23EEE70020FF
:1023700017B0BDE8F08F00BF209A0108389A010815
:10238000849A0108A6BD0108C0BD0108D5BD010899
:10239000DDBD0108F1BD0108FDBD0108C02D002013
:1023A00006BE0108E8F7FF1F17BE01082BBE010893
:1023B00035BE010844BE01087016002053BE010856
:1023C0000400002063BE01086DBE0108F406002071
:1023D0007ABE010893BE01089EBE0108541A00206F
:1023E000F4280020201A00202DE9F04FA04BAFB0B8
:1023F0001C780193002C00F0E4809E4B18680028A4
:1024000002F04B8009F070F99B4C20680BF0D8FB70
:10241000002802F0428020680BF0CFFB0928974C7F
:1024200001D03F2852D10027B8462568944E2DB1DF
:10243000944831682A4617F025F920B93746B8F193
:10244000000F00D1B046904B10369E42EFD3464667
:10245000B8F1000F1DD0D8F800C0D7F8009023685D
:102460001CF803E019F80300704512D15A1C854985
:1024700058B92D2B09D8DFF804E2CEF800204FF030
:10248000200E01F803E0885403E001F803E0226025
:10249000E5E723680BB1B8450FD07C4810F030F960
:1024A000BE4207D856F8100B10F02AF909200FF099
:1024B000B3FFF5E709F024F9002523689D42A3D274
:1024C000704B585D0FF0A8FF0135F6E72368002B2D
:1024D00041F06887042841F0B9876A480AF0D0F8CB
:1024E00001F0DBBF3068DFF8C4A10BF069FB002806
:1024F00050D0DAF800000BF060FBDBF80030024649
:1025000093F84810002978D1242840F0D780012280
:1025100083F84820DBF8003093F848000628E1D122
:1025200093F84960502E00F0E28700F2A881342E23
:1025300000F0058500F24681242E00F07C8600F232
:102540001381032E00F05F8240F2EF80052E40F0F1
:1025500001811A2007F0F2FD00264D4B985D0136EF
:1025600007F0A3FD0B2EF8D100264A4B985D0136EB
:1025700007F09BFD082EF8D10026474B985D0136E9
:1025800007F093FD072EF8D107F0A0FD2B6800227D
:1025900083F84820414B186809F0A6F8404B93F89F
:1025A0007D3053B158F8040008F018FE0BF07EFBA4
:1025B0000FF0FEFD3B4A3C4BDA604C34982C01F0A6
:1025C0006C87DFF8F48054F8083004EB0802002B25
:1025D000F3D0364E079333600023354D354F8DF8D9
:1025E0002130DFF8B89014238DF8203006AB2A6034
:1025F0000697C9F80030AB4674E7012904D14D288D
:1026000014BF0022022283E7022904D13C2814BF10
:10261000002203227CE703290CD140284FF000015F
:1026200002D983F8481075E758711971D9719871FA
:1026300004226DE7042906D1997983F849004A40BC
:102640009A71052264E705297FF464AF58791979F6
:102650008842987906D950409871481C18710B44EB
:102660001A7257E790420CBF0622002250E700BFC3
:10267000B7360020E02A0020C42A0020481D002090
:10268000B8B60108181D002098B80108BBBF0108A2
:10269000F1BD0108FDBD0108D5BD01087C1A00206F
:1026A000A40A00200400FA0500ED00E0801A0020D2
:1026B000781A0020CDDB0008282D0020D8490B789F
:1026C00003F0040303F0FF0E002B7FF423AF232A53
:1026D000DAF800001CD10292019A01231370D14B49
:1026E00003911860D04B1860986010201873CF4881
:1026F0005F6083F80DE004330360CD4810F000F80C
:1027000008F0FEFF0399029A0B7843F002030B7066
:10271000C84B1B681B78934201BFC74AC74B1A605E
:10272000C74A04BFC74BDA60F4E6012E00F05F81B0
:10273000022E40F06887042007F000FD432007F0D8
:10274000B4FC4C2007F0B1FC462007F0AEFC4C2056
:1027500000F03EBFC0F08281222E40F0548750200E
:1027600007F0ECFC0027CBE32C2E00F0928518D864
:10277000282E00F075852A2E00F08585262E40F043
:102780004287B14E062007F0D9FCB6F85C0107F08D
:10279000D8FCB6F85E0107F0D4FCB6F8600100F092
:1027A000D9BE302E00F01786322E00F0B2852E2EC4
:1027B00040F02987A44E402007F0C0FC06F14007F6
:1027C00000F0F8BD422E00F0BA8520D83A2E00F075
:1027D0006A820BD8362E00F0D385382E40F013874E
:1027E000042007F0ABFC984E00F02BBD3D2E00F00E
:1027F0008D82402E00F094853B2E40F0048701200E
:1028000007F09CFC914B1B68187800F0E1BE492E44
:1028100000F088820ED8462E00F00386472E00F086
:102820004186452E40F0EF86132007F087FC0026F6
:1028300000F081BE4D2E00F04B854F2E00F06986D2
:102840004B2E40F0E086804E082007F077FC96F88B
:10285000E00107F02AFC96F8E10107F026FCB6F843
:10286000E20107F06EFC96F8E40107F01EFCB6F8F2
:10287000E60107F066FC96F8E80100F0A9BE722EAA
:1028800000F0EA8352D8692E00F0F0812AD8652E34
:1028900000F0258115D8522E00F04886642E40F0B5
:1028A000B286072007F04AFCE72007F0FEFB664BE4
:1028B000587907F0FAFB002007F0F7FB042000F03E
:1028C00045BE672E00F0548100F2C381122007F04C
:1028D00035FC5F4B00261B88B3F5806F8CBF082743
:1028E000012726E16D2E00F0D48115D86B2E4E4FB6
:1028F00000F0268440F20684564E062007F01EFCA7
:10290000308807F01EFC708807F01BFCB6F9043015
:102910000A2093FBF0F0F3E16F2E00F00A82C0F082
:10292000C781702E00F0608200F06DBE7D2E00F039
:10293000158629D8762E00F0138409D8742E00F05D
:10294000248340F2C2832F2007F0F8FB424ECFE2EF
:10295000782E00F01981C0F05D837C2E40F0538604
:10296000394E082007F0EAFBB6F84C0107F0E9FB06
:10297000B6F84E0107F0E5FBB6F8500107F0E1FBB1
:10298000B6F8520100F0E6BDA42E00F0118417D86D
:10299000962E76D0A02E00F040847E2E40F0338616
:1029A000294E032007F0CAFB96F8580107F07DFB7B
:1029B00096F8590107F079FB96F85A0100F008BE25
:1029C000F12E00F02081FE2E00F01984F02E40F050
:1029D0001A861E4E042007F0B1FB3368B3F8660078
:1029E00007F0AFFB3368B3F8640000F0B3BD032019
:1029F00007F0A4FB002007F058FB012007F055FB6F
:102A0000102000F0E5BD304607F098FB012007F0EC
:102A10004CFB0C2007F049FB304600F0D9BD00BF4D
:102A2000B6360020C42A0020A40A0020E02A002094
:102A3000EBBF010840170020EFBEADDEF04F0020D5
:102A40000400FA0500ED00E0C02D00204C1D002020
:102A500004000020681D0020AB9A0108062007F042
:102A60006DFB412007F021FB462007F01EFB4E20A6
:102A700007F01BFB412007F018FBC54B187800F04E
:102A800069BD0D2007F05AFBC24B188807F059FBAF
:102A9000C14B188880B207F054FBC04B1B68C3F3CE
:102AA000C000C3F38002800040EA4200C3F340024A
:102AB0001043C3F3401240EAC20003F0100318436E
:102AC00007F03FFB07F01AFA07F044FBB44B93F80A
:102AD000EC0707F0EAFAB34B187900F03BBD0B2086
:102AE00007F02CFBAB4B188807F02BFBAA4B188880
:102AF00080B207F026FBA94B1B68C3F3C000C3F3E9
:102B00008002800040EA4200C3F340021043C3F356
:102B1000401240EAC20003F01003184307F011FB13
:102B200007F0ECF907F016FB9D4B93F8EC0700F06B
:102B30004FBD9D4B33F91600013690FBF7F080B284
:102B400007F0FFFA032EF4D1984E308807F0F9FA17
:102B5000B08807F0F6FA3089954E07F0F2FA30881F
:102B600007F0EFFAB08807F0ECFA308900F0F2BC19
:102B7000102007F0E3FA00268E4B985D013607F02F
:102B800094FA102EF8D1FFE4702007F0D7FA4FF036
:102B900000090E2606FB09F6874F09F101093B687B
:102BA0003344B3F8250107F0CCFA3B683344B3F85B
:102BB000270107F0C6FA3B683344B3F8290107F050
:102BC000C0FA3B68334493F82B0107F06EFA3B6878
:102BD000334493F82C0107F068FA3B68334493F8C8
:102BE0002D0107F062FA3B68334493F82E0107F099
:102BF0005CFA3B681E44D6F82F0107F0ABFAB9F136
:102C0000080FC6D1C0E4702007F098FA644E06F1B0
:102C1000700796F8D40007F048FA96F8D50007F048
:102C200044FA96F8D60007F040FA96F8D70007F075
:102C30003CFA96F8D80007F038FA96F8D90007F071
:102C400034FA073696F8D30007F02FFABE42E0D1E7
:102C50009AE4102007F072FA0026584B33F8160059
:102C6000013607F06EFA082EF7D18DE4544F002696
:102C70003878400000F0FE0007F060FA3B789E4292
:102C8000BFF482AC4F4B33F8160007F05AFA013606
:102C9000F4E707F053FA4C4B186807F05BFA4B4B1C
:102CA000188800F057BC042007F048FA484BC0E2EF
:102CB0004FF6FF76072007F041FA464B1888FF28A9
:102CC000A8BFFF20C0B207F0F0F9434B1868B0422C
:102CD000A8BF304620EAE07080B207F032FA3F4BDE
:102CE000188807F02EFA2E4B93F88D213C4B18686C
:102CF0004AB10A235843B042A8BF304620EAE070E8
:102D000080B200F027BC00F30F00F9E7244E022048
:102D100007F014FA96F8EC0107F0C7F996F8EB0102
:102D200000F056BC022007F009FA1D4B988900F00C
:102D300011BC2C4E0B2007F001FA33683746187887
:102D400007F0B3F933684FF00009587807F0ADF990
:102D50003B68244E4B44187909F1010907F0A5F9A5
:102D6000B9F1030FF4D13368D87907F09EF93368CD
:102D7000987807F09AF93368D87807F096F93368AD
:102D8000588907F0DEF93368187A00F021BC00BFDB
:102D9000B4360020B03600200E2B0020241700206F
:102DA000C02D0020042B00201A0E0020701D0020D2
:102DB00064290020C40A00204C1D0020B41E0020FD
:102DC000DC350020042D0020F00E0020200E002015
:102DD00010290020101A0020CC190020F40E002029
:102DE000340E0020E82A0020BE4E1E2007F0A6F96F
:102DF000336800271B78022B66D1336807F108027D
:102E000053F82200B84912F07FFC15F0BFFC80F3A4
:102E10000800C0B207F049F93368B44903EB8703EF
:102E2000D86A12F071FC15F0B1FC80F30800C0B252
:102E300007F03BF9336807F10E0253F82200AC4962
:102E400012F062FC15F0A2FC80F30800C0B201375A
:102E500007F02BF9032FD0D1072F336821D1586CFD
:102E6000A14912F051FC15F091FC80F30800C0B2AA
:102E700007F01BF933689C49986C12F045FC15F07B
:102E800085FC80F30800C0B207F00FF9336893F8AF
:102E90004C0012F0E1FB15F079FC80F30800C0B2A1
:102EA0000BE03B44587807F000F933683B44D87A8C
:102EB00007F0FBF833683B44587D013707F0F5F81D
:102EC0000A2FC9D1FFF760BB33683B44587807F03D
:102ED000ECF833683B44D87A07F0E7F833683B44B2
:102EE000587D013707F0E1F80A2FEDD1FFF74CBB11
:102EF00016F8010F00283FF447AB07F0D6F8F7E7C4
:102F0000784B0C211E687B4B06EB870696F88520D4
:102F1000013701FB023393F8380007F0C6F896F842
:102F2000860007F0C2F896F8870007F0BEF896F81A
:102F3000880007F0BAF8142FE2D1FFF725BB48202C
:102F400007F0FCF80027674B1E68062303FB0766A3
:102F500096F8DA0007F0A9F896F8D50007F0A5F87A
:102F600096F8D60007F0A1F896F8D70007F09DF87C
:102F700096F8D80007F099F8013796F8D90007F0CD
:102F800094F80C2FDFD1FFF7FFBA00264FF0010AAB
:102F90004FF0000B584B1B789B4531DA574B4FF0E5
:102FA00000091BF803200C2303FB09F3514F07F121
:102FB0003001595C914209D13B44586B16F059FBE2
:102FC0000146BAF1000F07D1534607E009F10109A4
:102FD000B9F11D0FE7D110E006440EE08B420CDA88
:102FE0000C2202FB0972526B0391D05C029307F032
:102FF0005CF8029B03990133F0E70BF1010BC9E781
:10300000BAF1000F3FF4C0AAF0B207F097F84FF002
:10301000000ABDE7384F0026387807F08FF83B7874
:103020009E42BFF4B1AA354B002116F803E00C22F2
:1030300002FB01F32F4800F1300C13F80C2072450D
:1030400005D1034493F8380007F02FF802E001316E
:103050001D29ECD10136E2E7294E162007F06EF863
:10306000B6F8A00107F06DF8B6F8440107F069F86A
:10307000B6F8460107F065F8B6F8480107F061F8C0
:10308000B6F8E20107F05DF896F8010207F00DF8D6
:10309000002007F00AF896F8020207F006F896F802
:1030A0008D0107F002F896F89B0106F0FEFF002064
:1030B00006F0FBFF0B4B0A201B68B3F9623093FB51
:1030C000F0F080B207F03DF8BBE0082007F036F8DA
:1030D0000126F0B2013606F0E8FF092EF9D1FFF71C
:1030E00053BA00BF4C1D0020000020410000C84220
:1030F00000007A44AC9A0108581A0020591A00209E
:10310000C02D0020102007F019F8D04BD04E1878B1
:1031100000F0020006F0C9FFCE4B187806F0C5FF9C
:10312000306807F017F8706807F014F8CA4B188871
:1031300007F007F8C94B188807F003F8388E09E242
:10314000052006F0FBFFC64B188806F0FAFFC54BBA
:10315000188806F0F6FF97F8320000F0010037E219
:1031600006F084FF8146122006F0E8FFB9F1000F57
:1031700001D1BD4B03E0B9F1100F03D1BB4B1F6868
:103180005E6801E000263746484606F08EFF384666
:1031900006F0E0FF304606F0DDFFB54B186806F09C
:1031A000D9FF002006F0CDFF002006F0CAFFC0E1E5
:1031B000B04F002697F83300B94680000130C0B206
:1031C00006F0BCFF97F8330006F06FFF99F8333034
:1031D0009E42BFF4D9A9A84FB85D06F066FF07F17B
:1031E0001003985D06F061FF07F12003985D30370A
:1031F00006F05BFFB85D06F058FF0136E6E70820F1
:1032000006F09CFF00269D4B33F81600013606F0B1
:1032100098FF042EF7D1FFF7B7B90C2006F08EFF08
:10322000974B186806F096FF964B186806F092FFC9
:10323000954B18688AE1042006F080FF934B98684C
:1032400084E196F8820106F030FF96F8860106F0D8
:103250002CFF96F8850106F028FF96F88701B7E164
:103260008A4E072006F06AFFB6F8880106F069FF6B
:10327000B6F88A0106F065FF96F88C0106F015FF96
:10328000B6F88E0166E1012006F058FF7F4B5879B1
:103290009EE17E4E0C2006F051FF96F8980106F054
:1032A00004FFB6F8A40106F04CFFB6F8A00106F042
:1032B00048FFB6F8A20106F044FF96F89A0106F01E
:1032C000F4FEB6F8A60106F03CFFB6F8A80141E10D
:1032D0006F4E704F30784FF0000900EB4000C0B2E5
:1032E00006F02CFF337802379945BFF44DA917F843
:1032F000020C06F0DAFE17F8010C09F1010900EBE7
:10330000800000EB800000F2EE2080B206F019FF92
:10331000E8E7012006F012FF5C4B93F89B0157E1B0
:10332000082006F00BFF0026584B334493F8900119
:10333000013606F0BAFE082EF6D1FFF725B9534E36
:10334000102006F0FBFE707906F0AFFEB06806F0C4
:1033500001FF96F8980106F0A8FEB6F85C0106F0A9
:10336000F0FEB6F85E0106F0ECFEB6F8600106F07D
:10337000E8FEB6F8880106F0E4FEB6F88A01E9E056
:10338000454B424E187806F12807C0EBC000C0B28A
:1033900006F0D4FE96F808020023404AD25C904220
:1033A00000F01A810C333C2BF7D10836BE42F1D124
:1033B000FFF7EAB8B6F8C00206F0C3FE96F8C202FC
:1033C00006F073FE043696F8BF0206F06EFEBE42AB
:1033D000F0D1FFF7D9B8E02006F0B0FE2B4E06F191
:1033E0008007B6F84202043600F03F0006F0A9FE5E
:1033F000B6F83E02C0F3861006F0A3FE96F83C0233
:10340000000906F052FE96F83C0200F00F0006F0AC
:103410004CFE96F83D0206F048FEBE42E1D1FFF7B1
:10342000B3B80D2006F08AFE0FF07CFD1C4E40F074
:103430000200C0B206F039FE308806F08BFEF0685C
:1034400006F088FE0CF038F980E000BF8C1D0020EB
:10345000400E00203C0E00203A0E0020380E0020C6
:10346000B00E0020B20E0020F80E0020480D002003
:1034700040290020A40A0020D80A0020180B0020B0
:10348000E8F7FF1FECF7FF1FF0F7FF1FC02D00202C
:10349000DC3500206A2F00208C1A002048170020FD
:1034A0001800002006F0F8FD0746842006F046FECE
:1034B000384606F04FFEC54B0DF13809DE6807F1BE
:1034C0008003B3428CBFF61B80260CF0AFF9384660
:1034D000324649460FF05AFD07460026BE42BFF667
:1034E00053A819F8060006F0E0FD0136F6E7B84EDD
:1034F000042006F023FE012006F0D7FD96F81408FC
:1035000006F0D3FD96F8120806F0CFFD96F81308E2
:103510005EE00B2006F012FE002006F0C6FD002043
:1035200006F0C3FD002006F0C0FD0BE0012006F010
:1035300005FE00204CE0A74B985D013606F0B5FD76
:103540000B2EF8D1002006F005FE002006F002FE4A
:10355000FFF71AB806F0F5FDFFF716B89E4E0320E8
:1035600006F0ECFD336893F81D0106F09EFD33680C
:1035700093F81E0106F099FD336893F81F0127E0C8
:1035800040F2FF84F22E00F07D8540F29E85F32EFE
:1035900040F0FD8606F06AFDFF28904F40F01E8641
:1035A000002607F180003146602287F87E6016F021
:1035B0000EF88DF817609DF8173097F8E220874EC7
:1035C0009A4200F2A385012006F0B8FD96F87E002D
:1035D00006F06BFDFEF7D8BF06F067FDB6F80A02ED
:1035E00006F0AFFD96F80C0206F05FFD96F80D02AE
:1035F00006F05BFD96F80F0206F057FD96F80E02F6
:1036000006F053FDD1E6512E32D1744B93F87C3045
:10361000012B28D806F02AFD6D4E86F8140806F016
:1036200025FD86F8120806F021FD86F813081AE039
:1036300000F23884CD2E00F0438240F24B82D02E2F
:1036400000F07B8340F28583D12E00F0CD83D22E13
:1036500040F0A486624B1B7803F0040303F0FF06DE
:10366000002B00F0FB83002006F068FDFEF78CBF06
:1036700000F21E82372E2ED15B790726B3FBF6F6B9
:10368000C6EBC6029B1A13F0FF0F02D00DF042F8F2
:10369000E9E7F6B2013EF6B2FF2EE4D006F0E6FC12
:1036A0005FFA80F94FFA89F007F020FE07460028FC
:1036B000ECD080F8009006F0E5FC788006F0D6FCAF
:1036C000387106F0D3FC787106F0D0FCF87106F082
:1036D000CDFCB871DEE700F230812B2E04D106F06C
:1036E000C5FC3B4B5871BEE700F28680252E08D101
:1036F000374E0023B36006F0CFFCB3681843B060C8
:10370000B1E73ED8232E40F0498606F0AFFC1328DF
:103710000646BBD8304FD7F8009006F0A7FC002132
:103720000C2202FB01F3DFF8CCE00EEB030292F86F
:103730003820824221D1734493F8303009EB860659
:1037400086F8853006F092FC86F8860006F08EFC3E
:1037500086F8870006F08AFC224A234B86F8880008
:103760001A603868214B00211860853007F02EFF61
:103770001F4B80F00100187075E701311D29CFD172
:1037800084E7272E0DD106F07DFC114EA6F85C01D2
:1037900006F078FCA6F85E0106F074FCA6F860015D
:1037A00061E7292E40F0FA8506F06CFC084EA6F879
:1037B000880106F067FCA6F88A0106F057FC86F837
:1037C0008C0106F05FFCA6F88E014CE71800002083
:1037D000C02D0020F1BD01084C1D0020A40A0020CE
:1037E000B6360020042F0020380D0020342A002097
:1037F00002000020AC9A0108312E30D106F036FCD0
:103800001F2806463FF642AF2B685B79082B7FF4F2
:103810003DAF06F037FCDFF86493903609EB86077E
:1038200000F03F00788006F02DFC7B88800100F4DA
:10383000FE501843788006F019FC000109F82600B4
:1038400006F014FC19F8263000F00F00184309F8B0
:10385000260006F00BFC78700DF07AFF03E73AD8EB
:103860002D2E22D106F002FCC44E86F8980106F0F7
:1038700009FCA6F8A40106F005FCA6F8A00106F0D4
:1038800001FCA6F8A20106F0F1FB2B6886F89A016C
:103890005B79082B7FF6E7AE06F0F4FBA6F8A601ED
:1038A00006F0F0FBA6F8A801DDE62F2E40F07685A5
:1038B000B24E06F1400706F0E5FBA6F8C00206F09E
:1038C000D5FB86F8C20206F0D1FB043686F8BF02AB
:1038D000BE42F0D1C7E6332E05D106F0C7FBA74B99
:1038E00083F89B01BFE6352E40F0588506F0BEFBFD
:1038F0000B2807463FF6CAAEA14B1E6806F0B6FB82
:1039000003283FF6C3AE062303FB076686F8DA00FA
:1039100006F0ACFB86F8D50006F0A8FB86F8D600CA
:1039200006F0A4FB86F8D70006F0A0FB86F8D800C6
:1039300006F09CFB86F8D90095E6432E23D106F0CD
:1039400095FB8E4E0023B360707106F0A5FBB36843
:103950001843B06006F08AFB86F8980106F092FBE7
:10396000A6F85C0106F08EFBA6F85E0106F08AFB65
:10397000A6F8600106F086FBA6F8880106F082FB37
:10398000A6F88A016FE63BD83C2E09D17C4E3768F9
:1039900006F06CFB3870336818780AF0A3FA62E618
:1039A00014D8392E40F0FA8406F060FB734E86F886
:1039B000820106F05BFB86F8860106F057FB86F86D
:1039C000850106F053FB86F887014CE63E2E09D1AF
:1039D00006F04CFB694E86F8EC0106F047FB86F8D2
:1039E000EB0140E6412E40F0D984002606F03EFB74
:1039F000624B33440136082E83F89001F6D132E64B
:103A00004A2E04D106F03EFB5C4B98812BE60CD885
:103A1000442E04D15B4B012283F87D2023E6482EFF
:103A200040F0BC840BF050FF1DE64C2E19D106F07F
:103A30001DFB524E86F8E00106F018FB86F8E10106
:103A400006F020FBA6F8E20106F010FB86F8E40180
:103A500006F018FBA6F8E60106F008FB86F8E80178
:103A600001E64E2E40F09A8406F000FB112807462E
:103A70003FF60CAE06F0FAFA404ED43706EB470399
:103A8000987006F0FFFA40F2ED23984205DD40F60B
:103A9000CA039842A8BF184601E040F2EE20A0F207
:103AA000EE20192390FBF3F006EB4706F070DAE501
:103AB000D32E7FF4BDAD06F0E5FA334B1880D2E586
:103AC000324B1B785B073FF5CEAD314B4FF4C872DC
:103AD0001A80C8E5C92E25D106F0C8FA2D4B1A78F0
:103AE00010B142F0020201E022F002021A7006F068
:103AF000BDFA294B294E187006F0CEFA306006F058
:103B0000CBFA706006F0BEFA254B188006F0BAFAC0
:103B1000244B1C4A188092F8323043F0020382F89A
:103B20003230A0E544D8C82E40F038845E7976085B
:103B3000122E3FF6ABAD0027B74206D206F0A2FA2E
:103B40000EAB23F817000137F6E732460023B342E5
:103B500007DA0EA931F81300134921F813000133D5
:103B6000F5E7122A05D0104B002123F8121001327C
:103B7000F7E70E4B01221A7075E500BFC02D00203B
:103B80004C1D0020A40A00203C0D0020B636002069
:103B9000FE0C00208C1D00203C0E0020400E00205A
:103BA0003A0E0020380E0020A01800200E0C002035
:103BB000CA2E40F08180AF4E002733681B78022B5D
:103BC00061D1D6F8009006F051FA11F045FDAA49EE
:103BD00011F04EFE07F1080A49F82A00D6F80090C5
:103BE00006F044FA07F10A0309EB830911F034FDEA
:103BF000A24911F03DFEC9F80400D6F8009006F085
:103C000035FA11F029FD9E4911F032FE07F10E0A36
:103C10000137032F49F82A00D3D1072FD6F8009097
:103C20001AD106F023FA11F017FD934911F020FE86
:103C3000C9F84400D6F8009006F018FA11F00CFD0F
:103C40008D4911F015FEC9F84800D6F8009006F02D
:103C50000DFA89F84C0012E006F008FAB94489F828
:103C60000100D6F8009006F001FAB94489F80B007B
:103C7000D6F8009006F0FAF9B94489F81500013732
:103C80000A2FCAD1EFE4D6F8009006F0EFF9B94454
:103C900089F80100D6F8009006F0E8F9B94489F8EF
:103CA0000B00D6F8009006F0E1F9B94401370A2F6D
:103CB00089F81500E7D1D6E4CC2E40F06F835B790C
:103CC000092B7FF6E3AC6F4E376806F0CFF93870FA
:103CD000376806F0CBF9787006F0C8F933686428C5
:103CE000A8BF6420187106F0C1F933686428A8BF22
:103CF0006420587106F0BAF93368FF28A8BFFF2086
:103D0000987106F0B3F937686428A8BF6420F87189
:103D100006F0ACF9B870376806F0A8F9F8703768A3
:103D200006F0B0F92B6878815B790A2B7FF69BACA3
:103D3000366806F09BF9307295E4534B1B785A07AE
:103D40003FF591AC0AF076FE0EF05CFA0AF0B0FC9A
:103D500089E4CE2E0AD14C4B1B785F073FF583AC2C
:103D60004A4A137843F0040313707CE4CF2E40F0EA
:103D7000158306F087F96FF4AF6143189BB2444E88
:103D8000C62B98BFA6F8A00106F07CF9A6F844015E
:103D900006F078F9A6F8460106F074F9A6F848018D
:103DA00006F070F9A6F8E20106F060F986F8010263
:103DB00006F05CF906F05AF986F8020206F056F9A8
:103DC00086F88D0106F052F986F89B0106F04EF94F
:103DD000284B1F6806F056F900EB80004000A7F85A
:103DE000620006F043F9E2E506F040F9824606F08B
:103DF00053F9814606F050F9074606F04DF906469C
:103E000006F040F906F03EF906F030F9BAF1000F7D
:103E100011D1204B1020C3F800905F600EF0A0F984
:103E20001A4A137843F001031370002E3FF41BACC1
:103E3000194B1E6017E4BAF1100F7FF414AC174B46
:103E4000C3F800905F600EB1134B1E601348144B13
:103E50000222011D1A700BF05DFA04E406F006F967
:103E60000B4B022883F8EC077FF66EAF83F8EC6704
:103E70006AE700BF4C1D0020000020410000C8423E
:103E800000007A44E82A0020B63600208C1D00206D
:103E9000C02D0020F80E002040290020480D0020F1
:103EA000400D0020DB2E7FF46BABC04B1E211B6846
:103EB0002827D9721973322119710F2159712221C2
:103EC00099710E211974352199761921D971212101
:103ED000012617224FF02D0E5F709F7059745F728C
:103EE000532178271E705A759A7583F80DE0552274
:103EF000D9769F72142183F814E09E774FF4FA77F5
:103F000083F85460DFF8D0E2A94E0A20DA70197203
:103F100000226421A3F84E700027DA759A731A768E
:103F2000DA735A761F6598741977C3F820E0DE6259
:103F30001E635E639F4EA04F1E64A04E9F635E642F
:103F40009F4EDF6383F85B209E4F4FF4E1729E64C7
:103F5000A3F85C204B261022C3F824E09F6283F86C
:103F60004C6083F8550083F8560083F8570083F8B7
:103F7000581083F8591083F85A1083F85E20FFF721
:103F800072BBD62E0AD1002606F07CF88E4B23F8A1
:103F900016000136082EF7D1FFF765BB48D8D42E9E
:103FA00040F0FC815B790F2B7FF470AB06F05EF87C
:103FB000072806463FF66AAB7C4FD7F8009006F01C
:103FC00061F80E235E43B144A9F82501D7F80090AB
:103FD00006F058F8B144A9F82701D7F8009006F088
:103FE00051F8B144A9F82901D7F8009006F03EF83D
:103FF000B14489F82B01D7F8009006F037F8B144A6
:1040000089F82C01D7F8009006F030F8B14489F80F
:104010002D01D7F8009006F029F8B14489F82E0157
:104020003F6806F039F83E44C6F82F01FFF71BBB86
:10403000D92E12D106F026F8644EA6F84C0106F0EF
:1040400021F8A6F84E0106F01DF8A6F8500106F07A
:1040500019F8A6F85201FFF706BBDA2E40F09E8150
:10406000524E376806F002F887F81D01376805F0F0
:10407000FDFF87F81E01366805F0F8FF86F81F017E
:10408000FFF7F1BA05F0F2FF0F2806463FF6FEAA49
:1040900005F0ECFF4E4BC6EBC6061E44307105F032
:1040A000E5FF707105F0E2FFB07105F0DFFFF07120
:1040B00005F0DCFF307205F0D9FF707205F0D6FF15
:1040C000B07209F033FEFFF7CEBADC2E0ED105F048
:1040D000CDFF3E4E86F8580105F0C8FF86F859011D
:1040E00005F0C4FF86F85A01FFF7BDBAEF2E40F085
:1040F00055812E4E376805F0C5FFA7F86600366873
:1041000005F0C0FFA6F86400FFF7ADBA9DF81730C0
:1041100006EBC30393F8E930D8073FD59DF8173075
:1041200006EBC30393F8E8202A4B33F91230002B37
:1041300034DD9DF8173096F87E9006EBC303D3F874
:10414000EC304FEAC90158689DF8173006EB010EB4
:1041500006EBC306D6F8EC30CEF880001A890026AC
:10416000AEF8862092B20123B340134003D101364A
:10417000102EF8D100E033463944A1F884304823AA
:104180008DF83A300EA9012309F10109ADF8382064
:104190008DF83B3003F011FF87F87E909DF81730C3
:1041A0000133DBB28DF81730FFF705BA4C1D002044
:1041B000CDCCCC3E0AD7233C8FC2F53C0000A040BA
:1041C0000000404000006040EC2A0020C02D00208C
:1041D000902E0020B41E00203333B33F97F87E208A
:1041E000B04E9042BFF452AA0290002005F0A6FF04
:1041F00005F06CFFD9F8000007F076FA2A6810681D
:1042000006F0ECFFA84A106805F010FF07F01EFA50
:1042100072B6A64F4FF480624FF4007A7A614FF085
:10422000010BC7F814A03846ADF838200EA9482273
:104230008DF83A208DF83BB003F0BFFE10223846CF
:104240000EA98DF83A208DF83BB0ADF838A003F0F8
:10425000B4FE029B4FEAC30906EB0901B1F88430B2
:10426000D1F880C0D8080CEB8002C6F858215CF861
:10427000202003F00703C6F85C219B00C6F86021EC
:104280000F229A40D243D6F860E10BFA03FB02EA10
:104290000E0EC6F860E1D6F85CE102EA0E02C6F83E
:1042A0005C21D6F860214FF0080E0EFA03FE4EEAAC
:1042B0000202C6F86021D6F85C214BEA0202C6F879
:1042C0005C21D6F85C31B1F886204CF82030D1F86A
:1042D00080301A61C7F810A0BB685905FCD4714B37
:1042E0000826D3F85C11D3F858219A46116003EBE5
:1042F0000902D2F88000B2F886104FF400724161D2
:104300007A616B4A16611026566140F60556BB6805
:104310005A0503D4002EFAD0013EF8E74823016184
:10432000ADF838108DF83A300EA901238DF83B30E6
:1043300003F043FE5E4B10221A61B6B1BB685B48C6
:104340005B05CCD50AEB0902D2F88030B2F88620A2
:104350009B684FF400711A42554B4FF0080215BF8D
:10436000016141611A615A61E8E7504A4FF40071F6
:10437000116108221A6162B60A2009F016FB0FF0DB
:10438000D0FD2B68F32283F84920FFF76CB9FA2E91
:1043900004D1484B1B785E077FF5D6AC0CF0BAF918
:1043A000FEF7F2B80C2803D143480EF0A9F949E012
:1043B0000A2801D00D2864D1404D41480EF0A0F9E3
:1043C0002846232115F047F908B1401B20602368D7
:1043D0007BB35A1EA95C202901D11346F8E7374A5E
:1043E00000212360D154374B374DD3F80080D5F8E6
:1043F0000090324F484615F03CF906464946324691
:10440000384615F03FF9314A20B9BB5D43445B782B
:10441000580703D010359542E9D306E0954204D2FF
:10442000701CEB683844984702E029480EF068F9A0
:104430000023224800213022236015F0C8F8019B98
:104440001B7853B307F05CF9FDF7DEBF0C28ABD047
:104450007F2804D1FDF7D8BF2F2B3DF6D5AFA0F1B3
:104460002002D2B25E2A3DF6CFAF13B920283DF428
:10447000CBAF5A1C2260114AD0540DF0CDFFFDF78E
:10448000C3BF7F28E8D10D4A013B002111482360BA
:10449000D1540EF035F9FDF7B7BF00202FB0BDE8BD
:1044A000F08F00BFA40A0020801A002000080140FD
:1044B000000C0140B6360020C0BF0108181D0020C6
:1044C0005ECB010880010020B8B6010898B8010849
:1044D000CBBF0108E7BF01082DE9F04FA84BA94A5F
:1044E00019788BB014680592049341B1A64A1368F9
:1044F000E31A002BA1BFA24900230B70137142F2F3
:104500000103A24A156803922B400BB99E4A5371CE
:104510002F0740F19D819E4B1B681B7A072B00F2F1
:104520008581DFE813F0080008003200C8000001B0
:10453000240124016101974B1A78002A00F076814A
:1045400000221A70944B02221E78944B1B681F782D
:10455000934B93F800E0934802F1010C835C3341E4
:1045600003F00F03BB420CD20B2B9FBF815C10F8F2
:104570000C0001EA0E0100EB01219CBF8A4840F8C3
:1045800023100232102AE6D1F7E0884B1A78002A6D
:1045900000F04C8100221A70854B864A9F78DE78A5
:1045A000597807F0070041EA002106F03F0040017A
:1045B00040EAD700116019795060587989009F79D5
:1045C00041EA961100F0010641EA86219160DE7908
:1045D00007F00F01C90141EA500106F07F00D160E8
:1045E0000001197A40EA17105F7A4900106141EA28
:1045F000D61107F003009E7A41EA40215161D97A31
:1046000006F01F008001C90040EA970041EA5611F8
:104610005F7B9E7BD161197B906107F0070041EAC7
:10462000002106F03F00400140EAD7001162D97B2B
:104630005062187C89005F7C41EA961100F0010607
:1046400041EA862191629E7C07F00F01C90141EA8F
:10465000500106F07F00000140EA1710D162D97CBA
:1046600010631F7D490041EAD61107F0030041EABB
:1046700040215163997D5E7DDB7DC90041EA561181
:1046800006F01F00DE07D16348BF40F214714FEA05
:10469000801040EA970058BFAD21906398071164DD
:1046A0004CBF40F21471AD2113F0080F516414BFD8
:1046B00003230123BBE0404A1378002B00F0B680AF
:1046C000002313703D4A3E4E10783E4906EB4007EA
:1046D000B1F800E097F803C0397941EA0C218E4522
:1046E00040F0A4807178012904D0812940F09F8096
:1046F000032300E00B46102884BF102111703249BB
:1047000016780022D0B2B04201F1020180F08F8011
:1047100011F8027C11F8010C40EA07202B4F27F812
:1047200012000132EEE72A4B1A78002A7ED0294F78
:1047300000221A703B78A82B78D1FE7C002E75D110
:1047400007EB4603D8781B7903EB002010F084FFB9
:10475000214911F08DF8214910F0CCFE11F0C0F97B
:104760001F4B43F826000136082EE9D105E01D4B0A
:104770001A78002A5AD000221A70012357E000BF8D
:1047800058160020F4280020080C0020382A0020A9
:10479000141A002025190020DD350020D83500200E
:1047A000DE35002015190020E8170020961900209A
:1047B0007D190020581800204D19002050190020A4
:1047C000511900204E1900205419002038180020DB
:1047D0004619002031190020CDCCCC400080BB43CD
:1047E00018180020E6170020A84A1378F3B1002318
:1047F00013704FF6FF72A649585C0133121A1E2B34
:1048000092B2F8D1C87F8B7F03EB00239BB29A4210
:104810000CD10023C8188278C07802EB00229D4892
:1048200040F813200233142BF4D1A6E70023D90754
:104830000ED5994A012151719849C3F340030B7079
:10484000049983F001030B7004F5C333A0331360A4
:104850006A0412D5904B9A790AB1002199715A7164
:104860005AB1049A012313708C4B00221A7004F57C
:104870004333894A03F5A0731360EB070ED5864BCB
:10488000D9791A7A8A4209D001221A71834A002002
:10489000507004F5C332A0321A601972AF0409D502
:1048A00000237F4A32F81320002A41F0FA800133B6
:1048B0000C2BF6D1784F7B7923B9FB68E31A002BD8
:1048C000C1F27F8104F59C432033FB60754B1D785A
:1048D000C5B1754A1268944240F21B81013D1D70BA
:1048E00017E1D9F80030072C98BF195D6F4B88BFCE
:1048F00021461B686E489847032C0CD907EB4404EB
:10490000208201356A4BECB21A78DFF8C491A242DA
:104910001A46E6D81EE0D9F8002004F10E0302EB97
:104920008303D9881A890028E8D0401A4FF47A7393
:104930004343501A93FBF0F040F2EE2300F57A70F7
:104940009842B8BF184640F6CA039842A8BF184616
:1049500080B2D3E742F20106039B1B681E40B6FA01
:1049600086F6544B7609D3F800A02EB93B7904990A
:104970000B704A4B59781970049B1D781DB1474B39
:104980001D7885F00105D9F800B097F835904FF003
:10499000030CB9FBFCFC0F230CEB4C0C87F83430F8
:1049A000CCEB090C92F80080434F5FFA8CFC00249A
:1049B00044454BDA1DB1414B33F8140000E0284662
:1049C000BBF816303E4A834203D8BBF81830834206
:1049D0001CD252F82420304B924503D2394B33F885
:1049E000140017E0E0B2CDF818C0079305F008FAFC
:1049F000032CDDF818C00DDC079B012193F834204F
:104A0000A14022EA010283F8342003E00AF59673FC
:104A100042F82430A6B9204B27F81C0093F8C82090
:104A20002AB9B9F1020F0BD9012283F8C8203B88BB
:104A300078881844BB88184480B20323B0FBF3F095
:104A4000204B063723F814000134B1E7124D194901
:104A500095F834201C4BA2F10F067242724185F882
:104A6000C920002A36D0194A1268540103D5039A86
:104A70001268D0052ED40A689A60DB68D21AC82A58
:104A800042D9114B012283F821203DE00119002079
:104A9000E118002084170020080C002000000020EE
:104AA000C41800201C1A0020181A002044000020FE
:104AB000DC350020201A00203E0C0020180C0020BD
:104AC000880C0020042D0020241A0020541A0020F5
:104AD000141A0020A54A0120507010700A689968C5
:104AE000DA605B68521A9A4282BFA14B002283F8B7
:104AF00021200024444507DAE0B205F081F99D4BFE
:104B000023F814000134F5E795F83530013385F8C2
:104B10003530039B1B68DA0405D5974B1B68DB0710
:104B200001D40FF08DF8059B1C68944B1A68D07A5D
:104B3000B8B19049537B013831F810001BB1C0F572
:104B40003B60083080B200B2A0F57A70B0F57A7F91
:104B5000A8BF4FF47A7020EAE07010F081FD884918
:104B600037E0039B1B681F043CD5864DD5F8CC303D
:104B7000E31A002B36DB04F59C432033C5F8CC3018
:104B8000814B127B5979814B33F8113095F8D01055
:104B90009BB293FBF2F3013101F00F0285F8D020B4
:104BA0002A4482F8D1300346794A825C01301344AA
:104BB00010289BB2F8D11BB293FBF0F000B2002892
:104BC00003DB6428A8BF642000E0002010F048FD4B
:104BD000704910F04DFE704910F096FD10F080FF06
:104BE0006E4B1880039B6E4D1B6813F4807F00F0A2
:104BF00019816C4BDFF878A19C4205D99AF80230F4
:104C000013B901238AF802309AF80230002B00F021
:104C10000981574B93F82140574B661E98467442C2
:104C200074411F682E78002CC6F38006C7F3806796
:104C300014BF4FF000094FF003099AF82030052BFC
:104C400000F2EA80DFE803F0034A5E82B4D1002E6E
:104C500038D04C4BD3F8E400B3F8E81006F0C7FCAA
:104C6000012809D1504A514B12681B68D28864212F
:104C700001FB0233CAF810305FB14B4B1B681B7944
:104C80003BB10FF073FE03238AF820304FF47A73A0
:104C900035E0002C40F0C080444BDFF8D4B01A68F7
:104CA000DAF810309A4209D90FF060FE03238BF82E
:104CB000203040F6B833CBF81C30BEE701238BF828
:104CC0002030BAE74FF4806017B10DF059FA01E0D7
:104CD0000DF046FA0023CAF810309DE0002C79D17F
:104CE000314B1B681B7A012B02D00FF03FFEA4E76B
:104CF0000FF03CFE03238AF8203040F6B833CAF8A0
:104D00001C309AE724B105238AF82030012100E005
:104D100021466EB11B4B4FF00209D3F8E4301A8ADA
:104D2000144B1A805A809A801F4A12685288DA807F
:104D30001E4B1A68DAF814309A4201D8002E68D156
:104D400047F23053CAF81C30032344E02B7843F079
:104D500002032B700EF074FF144BDAF81C201B6852
:104D60001344CAF81830042335E000BF00000020C7
:104D7000241A0020042D0020541A0020141A0020A8
:104D800000007A44080C0020D0190020E01900200F
:104D9000D90C00200000C84200C07F44F40E00205F
:104DA000B6360020404B4C0054360020201A00201C
:104DB0009C4B9CB11A68DAF818309A422CD99A4B5D
:104DC0009B781BB9D8F80030D80725D42B7823F06E
:104DD00002032B7005238AF820302EE71B68DAF8CF
:104DE0001C201344CAF8183016E0904A8D4B126804
:104DF0001B68D288642101FB02334FF48060CAF83B
:104E0000103000238AF820308AF803300DF0A8F91A
:104E100013E700297FF411AFB9F1000F02D0484623
:104E200006F028FC824E834FB6F8521106F5C87082
:104E300006F0DDFBB6F8A031B7F9022003F10B0153
:104E4000914281460BDB0B3B934208DCB7F9002013
:104E5000914204DB9342CCBF0023012300E00023F6
:104E6000B9F1000F0FD1744A1268110111D5734ABC
:104E7000D27872B92A7852070BD523B1704A1378C9
:104E800043F0200303E06E4A137823F020031370ED
:104E90000BE00FF05DFD6B496B4B002000220860BA
:104EA0001A6048605A6088609A602B785C0736D533
:104EB000039B1B68D80632D5614B1B78D9062ED4CC
:104EC000594B624C9B788BB196F8EC31B9F1000FDD
:104ED00014D173B1534B1A68D4F8EC309B1A002BE1
:104EE00007DA0EF0ADFE84F8F09018E0B9F1000F8B
:104EF0000DD1102006F0BEFB01230EE03BB1494A64
:104F00004FF47A71126801FB0323C4F8EC3094F873
:104F1000F03023B106F09AFB002384F8F030002231
:104F2000134696F8EAB196F8EB11B6F8A241B6F836
:104F3000A4E137F912009B08A042C4BF63F07F03CD
:104F4000DBB201327045B8BF43F04003042AF0D110
:104F50003E4C94F8F1209A4205D194F8F220F92AB7
:104F600004D8013200E0002284F8F22084F8F13005
:104F70002D4BDFF8C4809A789A46E2B9D8F8003011
:104F8000DA0708D5B9F1000F15D12B78DB0712D558
:104F90000EF08AFC0FE02B7858070CD5049B1B7889
:104FA0004BB1264BDB7833B911B10EF049FE02E06C
:104FB000B9F1000FF9D094F8F230244A142BDFF83D
:104FC000909040F0A4809AF802301BF1000B18BFBB
:104FD0004FF0010B002B45D092F8F1305F2B11D12F
:104FE0002B7803F0040303F0FF0113B10EF028FE49
:104FF00008E00B200691059206F03CFB059A069905
:1050000082F8F210BBF1000F2CD094F8F1307D2B18
:1050100028D12B7803F0040303F0FF02D3B10EF084
:105020000FFE1FE0201A0020000000205436002050
:10503000C02D0020042D0020541A0020241A002026
:105040008C1D0020801D00200C360020080C002044
:105050004C1D00200B20059206F00CFBAD4B059A71
:1050600083F8F2202B7803F0040303F0FF01002BF8
:105070004DD194F8F130A74A572B11D1A64B4FF4DC
:105080007A721A80039B1B681A0601D50AF0D8F9B8
:10509000A24B1B685B073AD5A14B0A221A8036E067
:1050A00003980068400717D55A2B15D192F8F330B2
:1050B0002BB1012382F8F31082F8F43027E092F844
:1050C000F53083F0010382F8F5300BB10C2000E0DD
:1050D0000D2006F0CFFA1AE05D2B00F0EE845B2B7A
:1050E00000F0ED845E2B02D1032000F0E9BC562BCA
:1050F00001D10DF02DF99AF80230002B00F0F58463
:1051000094F8F1306F2B40F0EA840EF0CDFB039B56
:105110001B685B0737D594F8F5307E4A93B12B783E
:1051200058070FD5B7F90610B6F8A231994209DD34
:10513000D8F8003013F0010302BF3221A2F8F810B2
:1051400082F8F530D8F80030D9030DD594F8FA205C
:10515000704B2AB993F8F32012B93222A3F8F82041
:10516000012384F8FA300EE094F8F330694A53B121
:105170002B7803F0040303F0FF0123B9012382F825
:10518000F31082F8F430D9F800A00023C8F80030FA
:105190000AF187090AF1D70B99F8002099F8013034
:1051A00019F8010C9A420DD2494606F0EBF948B1C4
:1051B00019F8022C012303FA02F2D8F80030134345
:1051C000C8F8003009F10409D945E5D1554B1B78E1
:1051D00053B1554EDFF844913368DFF8608113F026
:1051E000020F40F0BF82B6E20AF1D5080AF21D1A9A
:1051F00098F8012098F8023098F800009A422DD2D1
:1052000008F1010106F0BEF940B398F805100C2230
:1052100002FB0142D2F8043143451FD0C2F8048199
:1052200098F8040002F1FC0382F8FC0000205860AA
:1052300098F803205A7098F803200C2A4FF00102C6
:1052400004BF9A700322DA7094F82C2118BF98706A
:1052500001238B4022EA030384F82C3108F106086D
:10526000D045C5D1314B324CD3F80080314B4FF093
:10527000000A1B680593049B1B78049394F8009024
:10528000B9F1000F00F05E82D4F80330059AD31A0A
:10529000002B0DDB1F4902F5FA73C4F8033091F8B7
:1052A0002C21012303FA0AF322EA030381F82C31AB
:1052B000049B002B00F0468214F8012C6378043222
:1052C000D2B2002B40F0FD811B4B37F91220B3F80E
:1052D000A03103F1C8018A4202DD94F802B02FE048
:1052E000C83B9A4204DA94F802C0CCF1000B27E0E4
:1052F000084A012392F82C2103FA0AF322EA030355
:10530000044A82F82C31059B03F5FA73C4F8033084
:1053100018E200BF080C0020A83600202417002047
:10532000AE360020B7360020541A0020E82A0020AC
:10533000050D0020201A0020C02D0020501A00204A
:10534000A74B93F82C3143FA0AF3DA0700F1FA81FC
:10535000BBF1000FCCBF0220012006F0ADF909F12E
:10536000FF33252B00F2E581DFE813F026002E0045
:105370003D004F00670070008A00A600C200CC000C
:10538000D700E3014F005E0070008A00A600800095
:105390009B00B700070111011B018A0194019E01C6
:1053A000800125012F0144014E01580162016C0169
:1053B0007601E200ED00F80000230093FA23019348
:1053C00040460021012207E000230093642301935B
:1053D00008F10100002102225B460BF055F940461E
:1053E00006F0B6F8A5E1002300936423019308F1C9
:1053F00003005B46002103220BF046F9784B404640
:10540000D3F8301106F05CF893E100230093642395
:10541000019308F1050000210D225B460BF034F9E1
:10542000B9F10D0F00F085810023009364230193EF
:1054300008F1040000210E223FE100230093FF2326
:10544000019308F106000021052236E1654B0F2289
:105450001968654B881C0093C823019324315B466F
:105460000BF012F9B9F10F0F00F063815D4B1222BE
:1054700019685D4B481C0093C823019320311CE13F
:10548000584B10221968594B01F10C000093C823A6
:10549000019330315B460BF0F7F8B9F1100F00F0D3
:1054A0004881504B13221968504B01F10B000093B7
:1054B000C82301932C3100E14A4B112219684C4B4F
:1054C00001F116000093C82301933C315B460BF0B9
:1054D000DBF8B9F1110F00F02C81424B142219684E
:1054E000434B01F115000093C82301933831E4E0E8
:1054F0003C4B092219683C4BC81C0093C8230193FC
:105500002831DAE0374B0A221968384B01F10D00D7
:105510000093C82301933431CFE0324B0B2219683A
:10552000334B01F117000093C82301934031C4E0CD
:105530002C4B242219682C4B01F108000093C8233E
:1055400001934431B9E0274B25221968264B01F11C
:1055500012000093C82301934831AEE0214B002292
:105560001868002103780092022B4FF0C8030193C2
:105570000CBF4C301C3026229FE01A4B00211868CB
:1055800000230093C82301930430152295E0154BA6
:105590000021186800230093C82301930E301622BF
:1055A0008BE0104B0021186800230093C82301935F
:1055B0001830172281E00B4B00211868002300935C
:1055C000C823019305301C2277E0064B00211868A0
:1055D00000230093C82301930F301D226DE000BF0C
:1055E000080C0020342A0020000020410000C8429E
:1055F00000007A44A54B0021186800230093C823BB
:10560000019306301E2258E0A04B002118680023A9
:105610000093C823019310301F224EE09B4B0021C2
:10562000186800230093C82301931A30202244E015
:10563000964B0021186800230093C823019307307C
:1056400021223AE0914B0021186800230093C823DF
:1056500001931130222230E08C4B00211868002386
:105660000093C82301931B30232226E0874B00219F
:10567000186800230093C823019309301B221CE003
:10568000824B0021186800230093C82301930A303D
:10569000182212E07D4B0021186800230093C823D4
:1056A00001931430192208E0784B00211868002378
:1056B0000093C82301931E301A225B460AF0E4FFD0
:1056C00037E0012B35D137F91230A078B3F5617F7F
:1056D00005DB40F633029342A8BF134601E04FF4C6
:1056E0006173B9F10C0F24D14FF4966292FBF0F084
:1056F000A3F5617393FBF0F3654A5FFA83FB1378BC
:105700005B4516D0BBF1040F34BF5B460223137018
:1057100009FB03635F4A03F2EE73136008F083FF33
:105720004846594605F07EFF0BF10100C0B205F076
:10573000C3FF5949012391F82C2103FA0AF31343BB
:1057400081F82C310AF1010ABAF1040F04F10C04BA
:105750007FF494AD3DE5039B1B68DB0511D54F4BF2
:10576000DB7873B1D9F800309C070AD5B8F800305F
:1057700013F001040AD10FF0EBF801200CF000FD4A
:1057800004E001200CF0ECFC012300E0002332686F
:1057900050070DD563B101200CF0E2FCB8F80030E1
:1057A000990708D40FF0D4F802200CF0E9FC02E0CD
:1057B00002200CF0D5FCB8F80030394A13F0030F82
:1057C0004FF0100114BF51611161D9F8002012F09F
:1057D0000A0F2FD03268D2060ED55B070FD40420F3
:1057E0000CF0CEFC2F4B0A22B3F9043093FBF2F3FA
:1057F000294AA2F8343102E004200CF0B1FC3368ED
:105800009C0607D5B8F80030580606D440200CF0A6
:10581000B7FC02E040200CF0A3FC3368590641BFFE
:10582000204B0A22B3F9043093FBF2F344BF1A4A27
:10583000A2F83631D9F800309A0608D433681B052F
:1058400040F1B2804FF480700CF09AFCB0E0164B3F
:105850001B789C076AD5154B1B78042B66D93368D7
:10586000DFF834A013F4007B24D0B8F80030D80659
:1058700050D410200CF084FC20200CF071FC0C485B
:10588000011D09F047FD022340E000BF342A00203B
:10589000E42A0020E82A0020080C0020241A002016
:1058A000000C0140681D00208C1D00203C0E0020D3
:1058B000F80E0020B8F8004004F01004A4B22CB197
:1058C00010200CF04DFC01248AF838B133685905DA
:1058D00014D5DAF83C31BD495A89B1F90030DFF806
:1058E000F0B2002BB8BF5B42934207DAB1F9023045
:1058F000002BB8BF5B429342C0F24A81B8F8003037
:105900009A0608D520200CF02BFC00238AF83831A9
:10591000012400E000249AF84831C3B90E2005F0B4
:10592000A9FEAB4B012283F8482110E0B8F8003003
:1059300003F03003002B81D010200CF011FC20204C
:105940000CF00EFCA24B002283F8382102E0002C60
:105950003FF474AF002214469E4B002023F814003D
:105960009D4B191D03F10A0E21F81400002142F885
:105970000E109644CEF80400CEF8081023F8140058
:1059800003F1320E5A3342F80E10D15096441344AC
:10599000CEF80400CEF80810586099601432002C3C
:1059A0007FF44CAF0124D7E74FF480700CF0D8FBA4
:1059B0008A4B5A791C46082A01D00E2A02D140206F
:1059C0000CF0CEFB864B1B685B0518D594F8303283
:1059D0001BB92B7813F0040F02E0336813F4002F87
:1059E00009D0804B00221A703C2003F031FD30B109
:1059F00004F01CFBF8E70DF07FFE0EF092FA744BFA
:105A0000012283F8CC2193F8CD211D46F2B1D9F8BB
:105A100000305C071AD53368180703D408200CF04F
:105A20009FFB13E0B8F8004004F00804A4B26CB97E
:105A300008200CF0A5FB6C4B1A686C4B1A60FB88B5
:105A4000A5F8CE316A4B1C606A4B1C6095F8CD31CD
:105A5000002B00F0B680D9F80030D90640F1B180B3
:105A600033689A0204D44FF400700CF079FBA8E07C
:105A7000B8F8004004F40074A4B2002C40F0A180F7
:105A80004FF400700CF07CFB574B1A68574B1A60B0
:105A90004F4BFA88A3F8CE21554B1C60554B1C6028
:105AA0008FE04B4A01231371534B0021597004F5C9
:105AB000C333A0331360FEF7FDBE012000E00220D7
:105AC0005FFA80FA0AF1FF3386F8EC370CF09AFBA4
:105AD00008F0EEFD504605F0EFFDFFF718BBBBF1F7
