:020000040800F2
:1000000000500020F19C01088D9D010859FC00085A
:100010008D9D01088D9D01088D9D01080000000047
:100020000000000000000000000000008D9D01089D
:100030008D9D0108000000008D9D0108C7AE0008DD
:100040008D9D01088D9D01088D9D01088D9D0108E4
:100050008D9D01088D9D010817B2000821B200088E
:100060001FB200081DB200081BB200082DE80008EE
:100070001DE800080DE80008FDE70008EDE70008AE
:10008000D9E70008C5E700088D9D01088D9D01088E
:100090008D9D01088D9D01088D9D010819B20008F4
:1000A0008D9D0108DD0501088D9D0108CD05010824
:1000B000BD050108AD0501089D05010875FB000897
:1000C00079FB00086DFB000871FB00088D9D01089D
:1000D0008D9D010805AF0008F9AE00088D9D01084F
:1000E00015B200088D9D01088D9D010800000000DB
:1000F0000000000000000000000000000000000000
:0C01000000000000000000005FF808F1A3
:100110002DE9F04F0B4B0C4D0C4AC5F8B8340023B9
:1001200010680B49A1B08842C5F8BC3416D11360E1
:1001300062B6084B186814F08DFB074B1B68984794
:10014000FEE700BFF17F0008EC040020F04F002024
:10015000EFBEADDE00F0FF1F04F0FF1F0A930B930C
:100160000C934FF4E013BB4C0D93236843F480339E
:100170002360A36943F01003A361236803F40033F1
:100180000B930A9B01330A930B9B1BB90A9BB3F594
:10019000A06FF2D1236813F4003300F09A82022397
:1001A0000C93AD4BAD4F1A6842F010021A601A68FA
:1001B00022F003021A601A6842F002021A606368B1
:1001C000636063686360636843F480636360A44B47
:1001D0001A68043B22F070425A60A24A3A60626890
:1001E00022F47C1262605A6842F000425A60DA6877
:1001F00022F40042DA609B681E0449BF9A4B4FF418
:10020000E0133B604FF480130D930C9B012B00F027
:100210007882022B05D10D9B6268134343F480332F
:100220006360236843F08073236023689801FCD5E2
:10023000636823F003036360636843F00203636051
:10024000636803F00C03082BFAD16368DFF86C8253
:1002500003F00C03042B00F05882082B00F05782A7
:10026000804BC8F800306368DFF85492C3F303137F
:1002700019F80320D8F80030DFF848B2D340C8F8A6
:1002800000307A4B4FF6FF72CBF80C30A3690DF1BA
:10029000800A43F00103A361636A636A744E43F00A
:1002A00080736362A369304643F01C03A36100239B
:1002B00015932AF82C2D514613F05AFB51466D48E0
:1002C00013F056FB51466C4813F052FB02214FF4D9
:1002D00000728DF846101021ADF844208DF84710BB
:1002E0003046326111A913F043FB644950464A6815
:1002F00042F000724A6014F099F9159B604A30464A
:10030000B3FBF2F34FF47A72C5F8C034D8F800307A
:100310004FF0010CB3FBF2F35A4A013B5360F02358
:100320008BF82330002393600723DFF89CE11360F0
:10033000554A09F10E01002331F8026F46FA03F81D
:1003400018F0010F18BF0CFA03F803F101031EBFE8
:100350001060A2F804800832102BEFD100F5806005
:100360007045E8D13B683F4A934240F0E281012367
:1003700085F8C43407F0CCFF18B90FF0D7FF0FF0A1
:10038000B9FC0FF0F5FD05224049414817F0A8FFE0
:1003900018B10FF0CBFF0FF0ADFC95F8C5343D4F11
:1003A00043F0010385F8C5343B4B07F1050A9A7801
:1003B0003A4B1A703A4B3B4A1B689046136095F8CB
:1003C000CA3485F8C6340023D85D4FEA830B5E1C1F
:1003D000002800F0B48103930AF018FE039B4AF84A
:1003E000230010B10523C671837112215AF80B0046
:1003F0000AF032FE032E3346E6D1002108460AF009
:100400009FFE002101200AF09BFE002102200AF03D
:1004100097FE012102200AF093FEA369002143F018
:100420000103A3614022204817F0C8FD4FF0FF33BD
:100430001E4AC5F818356420C2F803300AF039FDA9
:10044000A02200211A4817F0B9FD0024194D1A4EB8
:100450003CE000BF00100240002002405801002094
:100460000410014000127A00001BB7000005FA05D5
:1004700000080140000C0140001001400000014054
:1004800040420F0010E000E0F417002058C10108BE
:1004900095170020B309002090170020581700205E
:1004A000241A0020B0290020C4090020040A0020DA
:1004B000CC39002044BF0108B8A101083400002055
:1004C000A0A1010800ED00E00014014000236059E4
:1004D00056F83310DA00884240F0348109EB020309
:1004E000187F103412F054FFE02CEFD1AB4AAC4C23
:1004F0000021A4469146AB4E00250B5D01F10F0093
:10050000204406EB030A10F801EFBEF1000F05D0FE
:100510009AF80C70774508BF82F8587090F803E09D
:10052000BEF1000F04D0F75C774508BF82F8597020
:100530000135032DE7D1B2F8580040B10CEB0100B2
:1005400009EB83035065C3F8202502F517721C31AF
:100550003829D1D10424914F202200219248D8F883
:10056000005087F82C4517F029FD00208D4B0246DE
:1005700093F80BE093F80AC04FF0FF092346039766
:1005800089498A4F05F04006D4571E2C8C7140F0E3
:10059000DF80002E00F0E480BCF1000F00F0E0806E
:1005A0000132042A01F10801EED110B1039A82F858
:1005B0002C357F4B15F4805F93F800A07D4BDFF85E
:1005C000449283F800A07C4F7C4C7D4E00F0CE809E
:1005D000B88818F03FFF7B4BC9F800002360708A91
:1005E00018F038FF784B794C1860788818F032FF93
:1005F000774B00251860388818F02CFF754B186071
:10060000608BC0F5FA6018F029FF734B248B1860DB
:10061000FB88724AE01A1C44714BA4B280B210806D
:100620001C80A0F57A7018F019FF6E4B1860C4F5A5
:10063000FA6018F013FF6C4B6C4C1860AAF11703AA
:10064000022B257000F2E2804FF0000BDFF8B8A11A
:1006500005EB0A03594655F80A00049319F0E6F829
:10066000049B002800F08C80D8F8003013F4805AE6
:1006700040F0ED800023D9F800105D4A42F82310C5
:100680000133082BFAD1B6F81480BAF1000F01D06B
:10069000B7F80480B378042B05D14FF4805007F0ED
:1006A0002FFE4FF000082378C02200215148069306
:1006B00017F084FC3779B378003718BF0127042B73
:1006C00000F2EA80DFE813F02606E8002806F400CE
:1006D0001F06226842F0010222600A93236803F099
:1006E00002030B930A9B01330A930B9B1BB90A9BD2
:1006F000B3F5A06FF2D123689F0701D501234FE521
:10070000FEE7636843F460138AE53B68A9E5636824
:100710006268C3F38343D10303F1020302D4364A70
:1007200053439EE5626812F4003F3A6818BF5208CE
:10073000F6E7324A93427FF41DAE022318E64AF8E8
:10074000230057E60133042B7FF4C2AE0020C8E635
:100750001F2C7FF425AF1EB1BEF1000F7FF420AF38
:10076000013B81F80690DBB2012019E7B08A18F04E
:1007700071FEC9F80000308A18F06CFE20602EE788
:100780001F4A05EB020E0FCB8EE80F0023781035C1
:100790000133802D23707FF45BAF65E7EC0400200C
:1007A000D8A10108D0200020A82C002010A2010808
:1007B00060170020283500202C3B0020C4150020A5
:1007C000AC15002000007A44E80F002084290020A6
:1007D00094100020741000209C1000206E10002047
:1007E000901000208C100020981000202815002068
:1007F000642400208C24002000093D00001BB70069
:10080000A0100020D425002020190020244B13F82C
:100810003A2003EBCA0A082A227088BF0822DAF8B5
:1008200004C088BF2270BCF1000F3FF41DAF00254B
:10083000DFF878A023789D42BFF616AF2B0103EBBB
:100840000A0E63440FCB01358EE80F00F2E72378E0
:10085000012B7FF60FAF4FF07C58124D05EB0313C1
:1008600003F1100B1035AB453FF404AF414655F88A
:100870000C0C18F047FE414645F80C0C55F8100CCE
:1008800018F040FE414645F8100C55F8080C18F0D9
:1008900039FE45F8080CE5E7034CA1460BE000BF24
:1008A0008CA80108A41000206F120339A0100020AA
:1008B000B94CDFF83893B94AB94B21461A60B94AA6
:1008C000B94B4846002F18BF1346B84A002513609D
:1008D00018F010FD01464FF07A5018F0C7FEB449E9
:1008E0000590204618F00EFEB24CDFF804B30790D6
:1008F000069BAB4240F3708505EB0B035E7900214C
:1009000030460FF031FE0490002840F00885AA4AD6
:10091000A34B1A60A34AA54B1A60A84CA84A94F8A6
:10092000C534079243F0040384F8C534136813F008
:10093000010600F074850025FF2294F82D75A14B67
:100940002946384683F840501D605D609D60DD6338
:1009500083F8412083F8422083F8435083F84450C1
:1009600083F845500FF000FE064690B303689149A6
:100970006A18507C18B15268934200F045851835CA
:10098000C02DF5D10025C4F83C6584F830553846B3
:100990000AF03CFB10B10223C571837100252A21A6
:1009A0000AF05AFB884A002130460AF087F9874B43
:1009B000874AC4F84035874B111F3046C4F8443588
:1009C000C4F848550AF0CEF92A467179306810F01B
:1009D00055FAB4F81E7694F81A66A4F820763046D4
:1009E000002F40F06A850AF011FB94F81B26C4F82A
:1009F0002406003218BF012284F8282650B125228F
:100A000094F81C368271002BC7710CBF122116217D
:100A10000AF022FB00200AF067FB4FF000096E4B42
:100A20000020C4F848360DF0AFFE01200DF0ACFEFA
:100A30006A4B6B4803F1200853F8056C6EB313F949
:100A4000092CA11891F84C7691F84EE691F850C611
:100A500000EB0215991E11F801AFBA4591F802A0FA
:100A600008BF2F71F24591F804A008BF85F805E092
:100A7000E24508BF85F806C08B42ECD1120181180F
:100A80000D7955B14D7945B18D7935B186505A7989
:100A900081F80C90CA719A790A7210339845CBD1BB
:100AA0004F4D12F025FD12F023FD287E12F070FC50
:100AB00001232A7E02F01F015209022A03FA01F3E0
:100AC00000F02885032A00F02B85287D0AF09EFA85
:100AD000064618B1122383710223C371687D0AF0A0
:100AE00095FA18B1132383710223C371A87D0AF00C
:100AF0008DFA18B1142383710223C3711B21304670
:100B00000AF0AAFA687D0AF081FA07210AF0A4FA2D
:100B1000A87D0AF07BFA1B210AF09EFA2A69314B64
:100B20009A4240F0038503F56043D96841F480514F
:100B3000D960D96821F48051D9602B7F002B00F057
:100B4000128500231846118801F4415141F4457182
:100B50000B4303431380938B23F400631B041B0C90
:100B600093830723138213889BB243F040031380BF
:100B700094F8C434032B40D11F2008F064FA0023FA
:100B8000194A02EBC30191F90210022901F0FD8319
:100B90000133042BF5D12DE0ACC5A737FD65010865
:100BA000102700207D650108296601081427002010
:100BB0006F12833A8C2400207F650108EC0400202A
:100BC000B02900208439002040420F001164010840
:100BD000300A00204D650108D02000201DA2010828
:100BE000C013002000300140822C0020ACC5A73685
:100BF000AC150020022008F026FA07F02DFA01209B
:100C00000EF0B0FD2C200AF001FA039BC3F8540645
:100C10009F238DF84430002332208DF845308DF825
:100C200046308DF847300AF044F9039BD3F8540658
:100C30000AF034FA15AA042311A9BC480AF012FBE1
:100C4000039BD3F854060AF02EFA9DF856309DF80F
:100C500055201B0243EA02439DF857201343B44A30
:100C6000934223D032200AF024F9039BD3F8540690
:100C70000AF014FAF521AD4807F0D2F9FF21AB488C
:100C800007F0CEF9039B8DF85400D3F854060AF010
:100C90000AFA9DF85430702B08D1039B93F8C434A2
:100CA000022B03D10323039A82F8C434A14B5F794A
:100CB0009E797D1E6A4206F1FF3E6A41DEF1000325
:100CC00043EB0E0384F85C36079B84F858261D68B6
:100CD0002B0400F14C8415F0007505D0964BDD7A9D
:100CE000A5F108004542454114220021934884F8AB
:100CF0005A5617F063F9012F04BF94F8593684F857
:100D000060361DB194F85B3684F86F3694F85E3621
:100D10001BB194F85F3684F86A36012E08BF94F848
:100D20005D36864D08BF84F8653600232E464FF0A9
:100D3000070B1F469946DFF8248208F1940A3078A1
:100D4000E8B10AF063F918B180F806B080F80790AE
:100D500000210AF081F9002331781AF813005A00B3
:100D6000884240F0078408EB020393F895307370D3
:100D70000723337101237A1CB770F370D7B20BF1DC
:100D8000010B5FFA8BFBBBF10B0F06F10506D6D109
:100D9000002B00F0BB806A4E4920736843F4404347
:100DA000736012F0F5FA674A674900234FF01C0E92
:100DB000104688460EFB032CDCF804C08C4540F03E
:100DC000E083DBB21C2101FB0303726919694FF058
:100DD00000090A437261062283F819901A765A486C
:100DE00013F099FC15A813F06BFC584B022F1593C8
:100DF00034BF4B4680231A934FF480731B934FF4F8
:100E000080631C9320231D934FF40053504E15A96B
:100E10004D4818971E931696CDF85C90CDF86490C7
:100E2000CDF87C9013F059FC012F94BF00220122D1
:100E3000D8F80030474943F00103C8F800304B6848
:100E40004FF0070E23F4702323F4807343EA022348
:100E50004B608A68404B134043F4602343F0020325
:100E60008B60CA6A7B1E22F47002DBB242EA035333
:100E7000CB621F270123EA784AB395F80180581CFA
:100E8000B8F1090FC0B295F804C040F28083A8F110
:100E90000A02D1F80C9002EB42020EFA02FA29EA99
:100EA0000A090CFA02F242EA0902CA60062B00F2B1
:100EB0007B8303F1FF3C4A6B0CEB8C0C07FA0CF3C1
:100EC00022EA030308FA0CF21A434A630346053583
:100ED000AE42D0D11F4B9A6842F480729A609A68F1
:100EE00042F001029A609A6842F008029A609A6899
:100EF0001107FCD49A6842F004029A60154B9A6874
:100F00005207FCD49A6842F4A0029A60D4F87C0696
:100F1000002841F04582D4F88036002B41F0408211
:100F2000D4F88436002B41F03B8219E000380040B1
:100F3000152020000A2F0020842900204C0B0020BF
:100F40000010024038000020080002404C240140FC
:100F5000600B002000240140FDF7F1FFA0A1010873
:100F600008F068FC30B9012002210AF027F90120BD
:100F700009F0A2FD94F8C53443F0020384F8C534A7
:100F80000EF064FFB24B186814F036FDB14B1A88AE
:100F9000B14B1A80B14B5A6B99460AB109F0C4F8AB
:100FA000AF4BB0491B78B04CD80001444A78AF49E8
:100FB0002260079A1268114009B1012222600021C3
:100FC00040F2DC55AA4A22F8115001310829FAD121
:100FD0002268002A40F0058303F0EF02082AA54AA0
:100FE00040F044831178182B41F01001117001D1A9
:100FF00014F0DAFC2368A04D002B40F04083AB894D
:10100000002B40F07683012108460AF099F8002170
:1010100008460AF095F8002102200AF091F80A2407
:10102000964D012009F0E4FF002009F0E1FF1920AE
:1010300009F03FFF2B68DF0302D401200AF054F8C7
:10104000192009F036FF00200AF04EF8013CE8D1E3
:10105000214620460AF074F8214601200AF070F873
:10106000874B884D587A18F0F9F9874918F04AFAF1
:10107000864918F03FF907F0B5FC854B15AF1860AD
:10108000B9F8140018F0EAF90146824818F0EEFAAF
:10109000C5F8880611F015FD0123159310237E4A2B
:1010A00016931368904613F4800F04BF7B4A159281
:1010B000DE005EBF159A42F010021592784A116860
:1010C000880748BF159A774844BF42F0C602159278
:1010D0004A0748BF159A039044BF42F00802159290
:1010E000159A42F000611591017801F0EF06082E83
:1010F00001D00E2904D142F0006242F480521592D0
:10110000159ADE0354BF42F4005242F42042159275
:10111000159AD80443BF42F064421592502242F01F
:1011200044424CBF169215929A0642BF159A42F459
:10113000807215925E0742BF159A42F400321592F2
:10114000159A42F400201590580505D5564B1B7989
:1011500013B142F4C01215924FF00109182902BFD1
:10116000159B43F06073159321463846E6B20CF0A8
:101170005CFD70B1304615F02CFC50B9620957F88F
:10118000223006F01F0609FA06F623EA060647F89B
:1011900022600134272CE7D1DFF82CA197E8030067
:1011A0004FF419728AE8030000210AF1080016F0D2
:1011B00005FF08F067F90022DFF810E13B4BF44629
:1011C0001A809A703A493B4B3B4E3C4C3C48196064
:1011D000DFF8FC90338BDFF8FCB0C4F80490A0601B
:1011E00085F8F82819B204900AF51C7ADBF800009B
:1011F0002EF8121000F596704AF822000132122AD9
:10120000F4D1D8F80000C20458BFB6F92410ACF8E5
:1012100006102C49DFF8B4C001F1500E0A78002AFC
:101220005AD18A7891F803A0524555D2002A00F08D
:101230007082013A02EB820202EB820202F56172D5
:1012400091F801A092B20AF1040A2CF81A2043E0A6
:10125000541700204013002052130020D8140020FF
:10126000283500208CA80108201100202000100043
:10127000841500203D130020C2350020341A0020C0
:1012800040270020EC04002035FA8E3CDB0FC93FDC
:1012900058270020A889803AB029002001000010BA
:1012A0005C170020601700207C3000201C2F0020DD
:1012B000A0860100E4220020842900207429002057
:1012C00019150108401A0020780B0020D82E0020A4
:1012D0001D150108C030002004318E459ED1010744
:1012E00040F13282307A0A2800F22782DFE810F0DB
:1012F000220222029B04DC04050528052805B50509
:101300002502F80522020024A14601274FF000081B
:10131000FFF7D1BAC24CF7E7C24CFFF7BEBA30466E
:1013200009F074FE6B1C6061DBB210B10322C37163
:1013300082711A2109F090FE002F52D0BBF80000F4
:1013400018F08CF818F0E0FAB74B4FF6FF7A1E68E9
:10135000B6FBF0F353441B0CB6FBF3F60FB1B6FB30
:10136000F0FA9BF80230042B3FD1504618F072F887
:10137000AB4918F0C7F8A0600990304618F06AF839
:10138000494618F0BFF8099B0890A849184618F07C
:10139000B9F8089A0146104617F0AAFF9BF80330E7
:1013A000E0603246019304991FFA8AF3CDF8008079
:1013B000204615F083F9002318229D49AB4219D12C
:1013C000002383F00103237401231D44082D63745B
:1013D00004F118047FF48CAA0122964B1A70FFF7CF
:1013E0009CBA059815F074FCACE7304618F032F85A
:1013F0000799BEE702FB031046686068864201D089
:101400000133DBE70123DCE71B8D874A9BB21268BF
:101410000133B2FBF3F3884A1370FFF7B3BA9A04AF
:101420007FF5D7AA94F81826844B04F5A8651A709E
:1014300004F5C26816F80890002148460FF094F8A9
:10144000074698B300224FF0010A5FFA86FB05F8C1
:101450000FBC45F8040C05F80E2C05F80D2C05F80A
:1014600010AC484609F0D2FDD3445FFA8BFB18B1AB
:1014700080F806A080F807B04FF0000B2A2109F091
:10148000EBFD6F4A0021384609F018FC6D4B2A1D10
:101490002B606D4B294638466B60C5F808B009F0E3
:1014A00061FC5A46797938680FF0E8FC0136082E5D
:1014B00005F11C05BED1FFF78CBA09F0A7FD40214C
:1014C000C4F84006054630460FF04EF80646CDB14A
:1014D000C0B12523AB7101231A21EB71284609F015
:1014E000BBFD0021A4F8447601915849544A91FB70
:1014F000F7F192FBF7F389B200919BB23146544861
:1015000015F0DCF80023D4F82C26138084F83D363F
:10151000FFF783BA4F4AD1680B43D360FFF7D5BAC0
:101520004C4A11690B431361FFF7CFBA4A4B9A42F9
:101530000BD103F5EC33196941F480411961196944
:1015400021F480411961FFF7F8BA444B9A427FF4C5
:10155000F4AA03F5EA33196941F4004119611969E4
:1015600021F40041EEE701230220FFF7ECBA012548
:10157000FFF7BABB01330A2B7FF4EFAB0023FFF771
:10158000F6BB0133072B7FF415AC00231AE40A697C
:1015900008EB480A0EFA0AF922EA09090CFA0AF2DB
:1015A00042EA09020A6181E40C2B0DD8DA1FD1F856
:1015B00030C002EB820207FA02F32CEA030308FAB6
:1015C00002F21A430A6381E40D3BCA6A03EB830308
:1015D00007FA03FC22EA0C0208FA03F31343CB6276
:1015E00074E41F4A1F4912F833E00244556881F839
:1015F00000E0002D3FF4F0AC00221B4E7245BFF618
:10160000EBACC2EBC2002918D1F800C0871940F832
:1016100006C088880132B8808979B971EEE700BFC9
:101620006F12833A282930383400002000007A44B1
:101630008C240020241100207C040020F4200020B1
:1016400040420F00A1650108E963010820A10700DD
:10165000180B00200010024000380040003C004001
:10166000A8A70108C0350020503500200E2B3FF4FC
:10167000B9AC1178192B21F010011170B7E40024D6
:101680004FF0040B274EDFF8A0A005F1030818F86F
:10169000017F002F3FF4B3AC384609F0B7FC0134AA
:1016A00003467061E4B210B180F806B0C471002145
:1016B000384603930EF058FF0746039B1A2118463D
:1016C00009F0CAFC002F3FF49AAC00226B8801920B
:1016D0009AFBF3F32A889BB200923046124A3946AD
:1016E00014F0ECFF0123082C737406F11806CED118
:1016F00085E400240D4F0E4EA88917F0ABFE3A6822
:1017000001463019243407F085FAB4F5907FF3D1FF
:1017100079E40AF1010A0AEB8A0A0AEB8A0A0AF555
:1017200061728DE56C3A002040420F003C170020AA
:10173000D435002011F0EBFE30B9082006F0E0FDB2
:10174000049BC4F80490A360D8F8002053040BD580
:101750001223237044F620636380C24BC249636046
:10176000C24BA360C24B196042F201031A4209D076
:1017700044F620639004638040F1D98308232370EA
:10178000BC4B636096F82830217804338B42A8BFA5
:101790000B464FF0000AB84C85F84439D30384F85F
:1017A00000A040F1528113F0B7FA01232370B34B2C
:1017B00040F22A3293F8F1B05146B14816F0FEFBE0
:1017C000BBF1000F00F03481514658460EF0CCFEBC
:1017D000AC4B026804461A6082689946002A00F001
:1017E0002781584609F012FCC5F8480918B1292389
:1017F00080F807A083711B2109F02EFC0023A24A68
:10180000D9F8001002F1180E5EF833004FEAC30C4D
:10181000814240F093836244107F11F0B9FDD9F802
:1018200000009A4A03884FF0000A23F001031B04CA
:101830001B0C0380964BDFF87CE21B68ADF83EA0E2
:10184000934281BF03F1B772924902F55852B2FB3D
:10185000F1F292BF002202F1FF3292B2511CB3FBAF
:10186000F1F38D49ADF83AA0B3FBF1F303219BB23C
:10187000B3FBF1F14FEA410CAEF800C0DFF838E2FB
:101880008DF840A0AEF8001020A921F8482DADF841
:101890003C3011F0E6FD6023ADF846A0ADF848A05D
:1018A000ADF84AA0ADF84CA0ADF850A0ADF84EA0F0
:1018B000ADF852A0ADF84430E3794FF0000B580773
:1018C00057BF0122042303F00203ADF846204EBFA8
:1018D000ADF848304FF48072ADF84C304FF0000353
:1018E00058BFADF85020ADF84A3011AA6179D9F847
:1018F00000000EF045FD6179D9F8000011F084FD7B
:10190000D9F800206548B2F84430DFF8B0A16FEA9A
:1019100043436FEA53439BB2A2F8443013889BB20F
:1019200043F080031380E379617913F0040F14BF4F
:10193000042301238B40118C9BB289B221EA03015D
:101940001184118C89B20B43138413889BB243F02A
:10195000010313801C22217B514B02FB013143699F
:101960000A6913434361292381F819B00B7643694F
:101970001A4342614B4AC1F814B08A604A7B15A8E9
:101980008DF8542001228DF856B08DF855208DF831
:10199000572011F01BFDA068CAF8000012F0BBFE32
:1019A000DAF80000026822F001021204120C026050
:1019B00012F0B1FE15A812F083FED9F8002061796B
:1019C00034320A44159240F22A32189280221A9236
:1019D0002B4A15A91692102217924FF400721B92EF
:1019E0004FF40052DAF80000CDF864B0CDF870B0D2
:1019F0001E92CDF87CB0CDF874B012F06EFE627914
:101A0000D9F800100C2A8EBF5B461F4B03EB420B2C
:101A10008A8998BFBBF8A83092B21343DAF8002045
:101A20008B81136843F00203136001221E4B1A706E
:101A30000023FF211C461D481A181C520433802B1A
:101A40009170D170F8D113F0D7F9D8F8003059055A
:101A50006ED5042007F0F4FC154B0421186007F044
:101A6000E5FC2DE095150108400D03007D150108EA
:101A7000E42200206D150108B72E0020302D002033
:101A8000F430002024340020A0A10108FF6BDC0208
:101A900034000020006CDC0200350C000010024015
:101AA0003800002033E100081E340020242E0020DE
:101AB000AC300020F2300020F03000202034002034
:101AC000BE4B1870082007F0BBFCBD4B0821186006
:101AD00007F0ACFCBB4B2C2218700021BA4816F062
:101AE0006DFA7C2385F84C398E2385F84D39E02337
:101AF00085F84F397D23202085F8773907F0A0FC41
:101B0000B24B2021186007F091FCB14B18704FF4D4
:101B1000805007F095FCAF4B4FF48051186007F0F0
:101B200085FC0022AC4B1870AC4B1A7012F0B6FF5B
:101B3000AB4C2288002A40F03682AA4B95F88809DF
:101B4000C5F87839022385F87C3995F88939013B45
:101B50005BB2012BDEBFA44A1B01D258C5F8802915
:101B6000002800F0208209F051FAC5F8840918B164
:101B70001A2383710023C371132109F06DFAD5F87C
:101B80007839986809F08FFA00BFD5F878390221C2
:101B9000586809F046FB4FF000089F2332208DF86B
:101BA00044308DF845808DF846808DF8478009F0E7
:101BB00080F98DF8558000BFD5F87839986809F01C
:101BC0006DFAD5F878093A4611A90423406809F05E
:101BD00049FBD5F87839986809F065FA00BF9DF897
:101BE00056309DF855201B0243EA02439DF85720CA
:101BF00013437E4A934200F0338300F31C83A2F523
:101C00002102A2F5CC42934200F02A8300F3BE8168
:101C1000A2F51A42023A934240F0C0812023238069
:101C20004FF480737DE30A221B0193FBF2F3002241
:101C30006F49A3F5B06341F822300132122AFAD17C
:101C400042F6F82363806B4B402063606A4B22703E
:101C5000A36007F0F5FB824600283FF46EAD12F05A
:101C600005FF737AB17A00280CBF01220322002BF2
:101C700014BF0623072300290CBF002108219AF96D
:101C800002E082460B438DE80C005C4B5C4A40212D
:101C9000704607F021FABAF1000F01D0594B1860D5
:101CA000003018BF012047E51023237042F6F823C7
:101CB0006380554B40206360544BA36007F0C0FB2A
:101CC000824600283FF439AD12F0D0FEB37A0028E6
:101CD0000CBF01220322002B0CBF00230823717AC2
:101CE0009AF902E0002918BF43F0010382468DE80B
:101CF0000C004FF4E133464AC9E70823237042F64B
:101D0000F8236380434B40206360434BA36007F09C
:101D100097FB824600283FF410AD12F0A7FE737ABD
:101D200000280CBF01220322003318BF01239AF9B7
:101D300002E08DE80C0082464FF4E133374AA6E713
:101D400000234FF00C0E364A36491370364A0628E7
:101D500084F800E00B70137074D01B22334B4FF4E7
:101D6000E13B1A700522324B83F800E0314B1A70C8
:101D700042F6F8236380304B402063602F4BA36012
:101D800007F05EFB824600283FF4D7AC12F06EFEEF
:101D9000B37A00280CBF01220322002B0CBF0023C2
:101DA0000823717A9AF902E0002918BF43F0010371
:101DB00082468DE80C005B46214A68E7B03000207F
:101DC000A0300020B1300020380E0020B8300020B4
:101DD000B3300020C8300020C4300020C5300020BF
:101DE00068040020680E0020C01300201720C200E5
:101DF000F4210020B1100108CD100108A0860100D7
:101E00008D180108BC290020E90F0108FD0F010809
:101E1000D5160108610F0108790F01088D16010818
:101E20006D230020341300206C2300201C2100208F
:101E3000402100206E2300200D9700082197000804
:101E4000B51501082122404BDFF83CB11A703F4B19
:101E500083F800E03E4B18708AE74FF0000B3D4BD3
:101E6000402083F800B00E23237044F62063638083
:101E7000394B6360394BA36007F0E2FA00283FF466
:101E80005CACB0F800A0364B0AF4825A83F800B07C
:101E9000737ABAF5825FB27A14BF01210321B3EBE2
:101EA0000B0390F9020018BF0123BAB9BAF5825F9B
:101EB00014BF5A46082213438DE80A00294A4FF4FA
:101EC000E133402107F008F9BAF5825F7FF4E8AE0C
:101ED0000022254B1860254B1A70E1E60822EAE73C
:101EE0000A221B0193FBF2F300222149A3F5B06300
:101EF00041F822300132102AFAD141F60B236380D7
:101F00001C4B402063601C4B2270A36007F098FAC2
:101F100000283FF412AC0322002390F90200402174
:101F20008DE80C00154B164A07F0D6F8B8E6D10735
:101F30007FF528AC0C232370124B22E40133042BD1
:101F40007FF462AC002068E41C21002040210020C6
:101F50006E230020B7230020A51501081D1A0108D3
:101F6000B523002045190108683000207430002096
:101F7000582200204D120108D1120108A068060065
:101F8000E11801085D15010890D00300B54A93429D
:101F900000F0C481B44A934200F0608100232380A2
:101FA000A3816360A360A568B5B14FF00008ED0A96
:101FB0000DF15409A8450ADA08EB05046410102253
:101FC0003946E0020BF0ECFE0F2800F3BF810CF065
:101FD00007F8A64BED021D600023A54AA54D13602E
:101FE000A54AA64C1380A64A1380A64A1380A64A87
:101FF00013602A681F2A40F0B3814FF48063A34A1C
:1020000023801188A248002940F0B3810180927892
:10201000A04B02B101221A70B4F900309E4A1B0293
:102020001360039B9D481B789D4C052B02BF4FF40A
:10203000C8729C4B1A8007F0D3FFC8229A4B00212C
:102040001A809A4AA4F88E191378A4F8901943F0CC
:10205000080313700423964A84F88C391370954A48
:10206000954B1170642219705A705960934B198006
:102070005980934B5A799846012A0BD1282204F6AD
:10208000941015F09BFF4CF250328E4904F69810D4
:1020900006F0C0FD00218C4B84F8BC191960596012
:1020A000996098F80630012B09D11022874815F065
:1020B00085FF4CF250328649864806F0ABFD864BD0
:1020C000864F1B68864A3B60864B4FF001091B68B0
:1020D00080209B1A18BF0123834A137008F0ECFC80
:1020E00000214022814884F8F49915F067FF00230D
:1020F0007F4A8048C4F8F839136006F00FFF49465C
:10210000052006F043FF98F805A007201AF100010A
:1021100018BF012106F03AFF98F80690082019F13F
:10212000000118BF012106F031FF98F80A30002B9A
:1021300040F0C18198F80B30002B40F0BC81396829
:10214000C1F38041BAF1000F03D1B9F1000F00D102
:102150004946092006F01AFF674BDFF898811A6894
:10216000994612F0010F09D02B680121642BB8BFEA
:1021700064230846C8F8443006F008FFD9F8003058
:102180009A070AD50121022006F000FF5B4B5B6B2A
:10219000642BB8BF6423C8F87830D9F80010032046
:1021A000C1F3400106F0F2FE554B01211A8C554B4C
:1021B000042093FBF2F3642BB8BF6423C8F81431F6
:1021C00006F0E4FE504B0620197806F0DFFE0121F0
:1021D0000A2006F0DBFED9F800100B20C1F38001C5
:1021E00006F0D4FED9F800300C2013F0140F14BF01
:1021F0000121002106F0CAFE39680D20C1F38021BB
:1022000006F0C4FE39684B0507D5337A083B012B2D
:102210009CBF4FF4FA63C8F8B432C1F300410E20FA
:1022200006F0B4FE94F8C53463F07F0384F8C53437
:1022300021B0BDE8F08F354A934211D004DC344A16
:10224000934208D0334AE6E4334A934266D00132DF
:1022500093427FF4A3AE4FF40073E0E44023DEE446
:102260008023DCE418BA20001620C2003C34002091
:102270009C150020702C0020A01500209415002033
:10228000A2150020A4150020981500202C34002051
:1022900096150020A61500207C170020982A002003
:1022A000EC040020001C0020FE1B00203D13002039
:1022B000052F00208A300020280F002076300020D3
:1022C0000A2F0020CDCCCC3D4C150020AC0E0020B8
:1022D000CDCCCC3EBC0E0020241A0020B02900201A
:1022E0007F6501081027002024110020A01700207E
:1022F0009C1700205C0100205C170020D8140020EF
:10230000822C002040420F00C12900201740EF001E
:102310001920C2001540EF001840EF004FF4807301
:102320002380A381638822881B0263605343B3F137
:10233000807FA360614D05D90123B72085F88A39D4
:102340000BF072FD012385F88B392CE6002359F838
:102350002320013220D10133042BF8D1254629E670
:102360003F2A16BF4FF4FA434FF40073B3FBF2F366
:1023700045E6B4F90030994204DD1F2B02DD01234C
:10238000038044E693FBF1F3FAE732F83330002B95
:102390007EF438ACFEF72EBC04F101082C46DDE7D4
:1023A0000022474B00B21A7017F058F8454917F051
:1023B000A9F80746B4F9800617F050F8414917F01C
:1023C000A1F80646B4F9840617F048F83D4917F01D
:1023D00099F83D490546384616F08CFF06F002FB99
:1023E0008146384606F0FEFA37490746304616F071
:1023F00081FF06F0F7FA8046304606F0F3FA3249DC
:102400000646284616F076FF06F0ECFA8346284684
:1024100006F0E8FA49468246584617F073F84946EE
:102420000390504617F06EF859460490384617F05E
:1024300069F851460590384617F064F84146069011
:10244000584617F05FF8214D5146286008F10040CA
:1024500017F058F805996860AE60304617F052F8EA
:10246000049916F047FF0699E860304617F04AF8DD
:102470000146039816F03CFF4146286107F10040F1
:1024800017F040F803996861304617F03BF80146B1
:10249000069816F02DFF0499A861304617F032F81F
:1024A000059916F027FF4946E861404617F02AF8DB
:1024B0002862FEF755BD012144E600BFEC04002070
:1024C0003000002035FA8E3CDB0FC93F101400208D
:1024D0002DE9F04FB04B9BB01B780590012B07D135
:1024E000AE49AF4A0968C9691180AE49098851806F
:1024F000AD4C2278002A00F09986072B40F08A83A1
:1025000008F084FC0B90A94F3B68079713F4806F89
:1025100005D0A748836813B100F15C019847A54A2C
:10252000A5481268B0F9068051890890884580F264
:1025300074834FF07E52626094F90C204FF0000BD0
:10254000002A14BF01234FF0FF339C4994F809A0DF
:102550000D8B94F808909A4E06930991089B33F9D5
:102560001B70781B0028B8BF4042B0F5FA7FA8BFA7
:102570004FF4FA70BBF1020F00F063834845CCBF03
:10258000A0EB0900002016F069FFAF4246F82B00CF
:10259000C0F265830BF1010BBBF1030FDED1079B8A
:1025A0001F6817F4805700F06183B8F5FA6F43464F
:1025B000A8BF4FF4FA63B3F57A7FB8BF4FF47A73CC
:1025C000A3F57A73227C22B1627C5343642293FB8D
:1025D000F2F34FF0640E93FBFEF27A4802F1010C25
:1025E00030F9121030F91C006FF0630C0CFB023351
:1025F000401A584390FBFEF0084400B216F02EFF3C
:102600006F4B8146D8609846002F40D01D2014F0B3
:1026100049F9C8B16C4BDB78B3B96C49484616F040
:1026200067FE17F04BF94FF47A7300B2000390FB8A
:10263000F3F3C5F5FA6000B2584340F30F30284475
:1026400016F00CFFC8F80C00262014F0F1F8F0B1D9
:102650005D4BDB78DBB9262014F024F95B490028B8
:1026600000F01983F06816F043FE17F027F94FF4D5
:102670007A7300B2000390FBF3F3C5F57A7000B2F1
:10268000584340F30F30284416F0E8FEF060504BFA
:102690001B885E0640F1B2819D0718BF0023D8F861
:1026A000002008BFD8F80830A261D8F804202362BF
:1026B000E261484A5368D2F800A00693464BD2F82C
:1026C0000880596806980791D1689A681F68D3F8FE
:1026D0000C900992089116F00DFE0999044607988E
:1026E00016F008FE0146204616F00CFF08990A90E5
:1026F000069816F0FDFD09990446079816F0F8FDB6
:102700000146204616F0FEFE41468346504616F02E
:10271000F1FD49460446384616F0EAFD01462046DA
:1027200016F0F0FE41460646504616F0E1FD4946D9
:102730000446384616F0DEFD0146204616F0E2FE5D
:1027400005460146304616F0D5FD0A9916F0D0FD33
:10275000594616F0CDFD4FF07C5116F0D3FE4146A0
:102760000D90089816F0C4FD49460C90099816F093
:10277000BFFD0C9A0146104616F0C4FE0D9B0146A3
:10278000184616F0B7FD154C06992060504616F015
:10279000B1FD079924E000BF58170020E430002065
:1027A00020150020F0170020180F0020B02900206D
:1027B000D8290020343B0020D82E00208429002076
:1027C0008C300020383B00201C2F002000007A4471
:1027D000022F0020000000203401002044010020CE
:1027E0000C90384616F086FD0C9B0146184616F0F4
:1027F00089FE31460C90584616F07CFD0A9916F079
:1028000079FD294616F076FD4FF07C5116F07AFEE0
:102810000C9B0146184616F06BFD594660600A98FD
:1028200016F066FD06998346504616F061FD49464E
:102830008246099816F05EFD0146504616F062FE8B
:1028400029468146584616F053FD314616F052FD92
:102850004FF07C5116F056FE0146484616F04AFDF0
:102860004146A060089816F045FD07998046384615
:1028700016F03EFD0146404616F044FE314607463E
:10288000584616F035FD294616F034FD4FF07C51C0
:1028900016F038FE0146384616F02CFD10A9E0600F
:1028A000204610F0CFF8139A179B0792169A0693BA
:1028B0000892AB4B129A9D6909921A6ADC6911461B
:1028C00010460D930C9216F015FD214681462046C8
:1028D00016F010FDDDF854A080460799504616F01A
:1028E00009FD0146404616F00DFE099980460898FC
:1028F00016F0FEFC494616F005FE0146404616F06D
:10290000F9FC109E149FDDF864B0804639463046CD
:1029100016F0F0FC069916F0EBFC594616F0E8FCB0
:10292000294616F0EFFD0146404616F0E3FC394615
:102930000A90304616F0DCFC07990646504616F021
:10294000D7FC294682462846189FDDF8448016F0B9
:10295000D1FC0146504616F0D5FD41468246384628
:1029600016F0C8FC494616F0CDFD0146504616F05B
:10297000C1FC59468146304616F0BAFC069916F05D
:10298000B9FC214616F0BEFD0146484616F0B2FCE1
:1029900009998146089816F0ADFC294616F0B2FD5B
:1029A00041460546384616F0A3FC214616F0AAFD1E
:1029B0000146284616F09EFC014616F09BFC06993F
:1029C0000446304616F094FC594616F093FC0C9AD7
:1029D000114616F097FD0146204616F08BFC0D9B24
:1029E0000A9AC3F81C909A6118625E4B1A605E4A9C
:1029F000C3F804901288940708BF98605B4B584C4A
:102A00001B6813F0140F1AD0574B1B8803F4027382
:102A1000ABB1574B534D1A7812F0100200F04981B8
:102A200094F82430A06A002B0CBF01234FF0FF3331
:102A3000584316F013FD696816F05CFC68604D4D54
:102A40004D4F2B7CB3B14D4BB3F906207B8B9A4293
:102A500010DC4B4B1B78012B01D0192B02D1494ABA
:102A6000927B3AB90E2B05D0082B1FBF00233D4A9D
:102A70002365936094F85680B8F1000F32D03A4B3A
:102A80001B8899072ED0404B40491E6A304616F0ED
:102A9000E1FE002840F05C81304605F0E8FEA16DC3
:102AA00016F030FD14F062F9B0F5617FA8BF4FF465
:102AB000617016F0D3FC364916F024FD05F092FF44
:102AC0000646404616F0CAFC314616F01BFD14F0CF
:102AD0004DF900B216F0C2FC224E0146F06816F025
:102AE00009FCF06094F85C90B9F1000F00F085806B
:102AF000284B0420D3F8EC6044F620639E42A8BF24
:102B00001E46B6F57A7FB8BF4FF47A76B6B2A4F80F
:102B10005E6013F0C7FE204B10B91A68D2006CD566
:102B20004FF47A72B6FBF2F6642292FBF6F6142E9C
:102B3000A8BF1426DFF864B01B680A48216EDBF8D2
:102B4000002013F4805FD0F80CA014BFB2F83280DC
:102B5000B2F9328001F1010204EB410322661FE069
:102B6000180F00208C300020022F00205C1700205E
:102B70003D1300200000002084290020D82E0020D2
:102B800060170020C2350020182700208FC2753C36
:102B9000D06D393A5C010020B02900205417002084
:102BA000504618BF4FEA58080792069316F086FE63
:102BB000079A069B9642DCBF00222266226EA3F88B
:102BC000640004EB4202B2F9640016F047FC0146CF
:102BD000504616F08DFB16F071FE00B20028B8BF0B
:102BE0004042404540F3B680DBF80030988E16F046
:102BF00035FC5A4916F086FC6861BD7F002D00F057
:102C0000DC81022D00F0B280032D00F0AF81544B27
:102C10005888B0E000230B9375E4B8F5FA6F107A8A
:102C2000BFBFA8EB01025043C1F5FA6190FBF1F080
:102C3000C0F1640016F012FC4A4916F063FC6060B3
:102C40007AE45045D8BF0020069BC8BFA0EB0A001D
:102C5000584316F003FCAF42B060BFF6A0AC56F884
:102C60002B1001F1004146F82B1093E4099B5A8B7D
:102C700090450EDBB8F5FA6F4346A8BF4FF4FA63F0
:102C80004FF47A719B1A4B43C2F5FA62B3FBF2F32D
:102C900098E41346F4E7F06816F02AFB16F00EFEEF
:102CA0004FF47A7300B2000390FBF3F3C5F5FA60BA
:102CB000E5E4E17A2C4EB4F92C30A07A61B3B6F990
:102CC0000660F11A0029B8BF494281420EDD226335
:102CD00001229E4284F83420C8BF404216F0BEFB59
:102CE0000146E86816F006FBE860A8E694F83410A0
:102CF00019B1E16BA16384F83420A06A1844B0F5DF
:102D0000FA6FA8BF4FF4FA60B0F57A7FB8BF4FF4FE
:102D10007A7016F0A3FBE7E7B6F90620D21A82EA2A
:102D2000E276A6EBE276864207DD022192FBF1F223
:102D30002264012284F84420DDE794F83420002A3C
:102D4000DBD0E26B84F84410A26384F83410D4E73B
:102D50000020BEE64FF07E536B614EE76F12833A60
:102D6000742900200AD7233CD82E0020B4F85E0036
:102D700000F57A7080B2FD7F0235EDB2B9F1000F37
:102D800000F00981002800F00681904B00261B68A6
:102D90008F4FB0FBF3F000B2A4F88C0016F05EFB8E
:102DA00001464FF07E5016F061FC8046DFF8289215
:102DB00007F1100AAE42C0F2E180864B1B78092B66
:102DC00011D1854B854E186813F0D0FF844B3080AD
:102DD000D3F8EC004FF47A7390FBF3F016F03EFB5F
:102DE00016F06CFD7080B4F98C30002B40F3E88055
:102DF00000267C4FDFF8E091A7F11008F3B29D4266
:102E000000F2CF8094F85C300793002B40F0DA801A
:102E1000002D00F08B80022DA8BF0225089500250B
:102E20004FF07E59704BDFF8F0811F68694B1B78BB
:102E300009937B1D0A93089B9D4240F3EF80099BF9
:102E4000092B08D1694B654DB3F88C20986CAA808A
:102E500016F034FDE880664B93F82150002D5FD0CA
:102E60001E2013F01FFD00285AD0624B1B88580605
:102E700056D45E4F604E97F8C830AB4213D087F8F7
:102E8000C850284616F0EAFA5C4916F03BFB5C494C
:102E9000054616F02FFA05F0A5FDB061284605F0AD
:102EA000A1FDC7F8CC00D6F81880A56C414628468D
:102EB00016F028FB276DD4F8CC60814631463846A1
:102EC00016F020FB0146484616F012FA4D4981469D
:102ED00016F0C0FC08B9DFF82C914B49484616F0B3
:102EE000C3FC08B9DFF8209141463846C4F8489041
:102EF00016F008FB31460746284616F003FB01464C
:102F0000384616F0F7F93F49054616F0A3FC00B91C
:102F10003C4D3D49284616F0A7FC00B93A4D2565C1
:102F2000079B1BB10022314B83F85C20374B1B7889
:102F3000002B40F06E81364EB278002A00F0698195
:102F4000344C2378013B0D2B00F25181DFE813F064
:102F500006011A01400139024F014F01530280025C
:102F6000C105DE05EF050E061906220697F82000BA
:102F7000C0EB401300EB8300C000FBE65AF82610BC
:102F800059F8260016F0B4F9414616F0BBFA47F896
:102F9000260001360EE7B4F88C30013BA4F88C30E3
:102FA00021E757F8260058F8261016F0A3F947F83D
:102FB000260049F82600013620E7A4F88C5021E7C6
:102FC00000251FE70223089329E700BF3C170020D4
:102FD000A80F0020581700208C300020201500205A
:102FE0005C010020B80F0020343B0020180F0020A7
:102FF00084290020022F00200000002035FA8E3C9A
:10300000DB0FC93F00C0F94400C0F9C4D02500203F
:103010002C340020A61500200AD7233C022D15BF12
:103020003878787897F802B097F809B016F016FA61
:10303000414616F067FA4FF08041064616F01EFC36
:1030400060B14FF08041304616F052F9524916F007
:1030500059FA0146304616F04DF90646AB00069384
:103060004E4B4F4953F8250016F04CFA20F0004320
:103070004C4A0693069B42F825000C32824642F8E1
:103080002530BBF1000F1FD0584616F0E7F9414636
:1030900016F038FA83465146504616F033FA069930
:1030A00016F030FA594616F02DFA59460C9048465B
:1030B00016F01EF90C9A0146104616F01BF901464F
:1030C000504616F01FFA82463749304616F01AFA73
:1030D000514616F017FA0A9B064613F8010B0A939D
:1030E000F0B116F0BBF9414616F00CFA069916F04D
:1030F00009FA2E49824616F0C1FB58BB0021504602
:1031000016F09EFB40BB5146484616F0F1F80146CA
:10311000484616F0ABFA0146304616F0F3F906467B
:10312000099B0C2B05D1304616F0C8FB204B23F829
:1031300015002049304616F08DFB00B91D4E1E4982
:10314000304616F091FB00B91B4E1C4BAA00D6501E
:10315000013570E64146DBE74946D9E7184B1B7855
:10316000D90707D5802010F0A1FB08B105F09CFF1E
:1031700016F00EFE1F2013F095FB002837D00C230D
:10318000237034E000220F4B1A600F4B1A600F4A75
:1031900012685A600323F3E7D7A368418C300020FC
:1031A0006F12033BC80F002000004843A4707D3F0E
:1031B0002015002000C0F94400C0F9C4600F0020B1
:1031C000B02E00202834002030170020C03000200E
:1031D00011F04CFF924D934B1A686B686433934225
:1031E00005D2402011F01AFF002800F0C68011F02F
:1031F00065FF002800F0D58423780C3B022B08D90A
:1032000001232370884B93F8032112B1002283F825
:103210000321864B1B78072B05D107F0F7FD0B9B8D
:10322000C01A834B988000227F4B1A707F4E3378F0
:10323000072B40F0048507F0E9FD0890DFF8F8A1BE
:10324000DAF80430504698475546002876D00022D8
:10325000BAF8C0408AF86120002C40F09585DAF871
:103260002420BAF93C30DFF8C0B19B1ACAF83030DC
:10327000DAF82820BAF93E300AF130009B1ACAF871
:103280003430DAF82C20BAF940309AF862109B1AE0
:10329000CAF8383006F0B4FE059BDBF80801CBF81D
:1032A0000831181ADBF80C310344CBF80C31614BB0
:1032B00093F80080B8F1000F40F0088516F0CEF8C2
:1032C0004FF07C5116F01EF981460AF12C070AF5E1
:1032D000A2760BF58E74C2460BF5887857F8040F6A
:1032E00016F0BCF8296A16F00DF9D5F84031014600
:1032F00030469847D5F8B031014606F1700098473E
:10330000D5F8C4300146D7F80401984754F82A107C
:103310003862834615F0EEFF494616F0F3F858F888
:103320002A1015F0E7FF44F82AB048F82A000AF1FD
:10333000010ABAF1030F06F12406CFD13E4A3F4BF2
:10334000116D3A4C5960516D926D9960DA60227836
:10335000072A05D107F05AFD089BC01A344B188084
:10336000314A92F829311546002B00F0E385013BE4
:1033700082F829311BB0BDE8F08FDFF8CC80402700
:10338000C246DFF8C8902B6818F8030068B111F046
:1033900013FFD9F80030013F03F1FF33C9F80030C3
:1033A0002B6803F101032B60EDD12B681AF8033071
:1033B000002B7FF41CAF2B604FF0FF336B600423B6
:1033C000DEE611F053FE1E4A5021A2F10C030193D8
:1033D0002623029200934920A2F10A03163A0AF02A
:1033E00027F800287FF403AF4FF0FF320C4B186032
:1033F0005A600723C4E611F039FE0523002100932B
:10340000104B02910191A3F1080253200AF010F829
:1034100000287FF4ECAE024B18600823B0E600BF32
:1034200030170020C0300020180F0020581700204F
:10343000201500203F130020D8290020702C0020E8
:10344000CAA2010884A4010864A20108283400204B
:1034500011F00CFE914B924D186813F087FC8046DA
:10346000D5F8D00013F082FC8146402011F0D6FD43
:10347000294600287FF4BBAE8A4D8B4F2B687878A5
:103480004C2B01F2F583DFE813F04D00530061008F
:1034900068006C0070007600840088008D00920047
:1034A00097009E00A300AF00B900BE00C900CE0087
:1034B000D300D800E000E800F000F8000001790136
:1034C0008101890196019F01A801B101BA01C301DF
:1034D000CC01D501DE01E401ED01F401FA010002A5
:1034E00006020C0213021A02210227022D023402E4
:1034F0003B02410247024D02530257025B02600247
:1035000065026A02700276028302E302E802ED02BB
:10351000F202F702FD02020307030C031103160374
:103520001B031F03614A6249624809F077FC09E006
:10353000614B5E4A0193614B614900936148624B64
:1035400009F06CFC2B6801332B6050E65F4B604A3E
:103550006049614809F062FCF4E7604A54496048F8
:10356000E3E7604A52496048DFE7604B6049B3F9DE
:1035700000206048D9E709F07DFC32885B4942436E
:10358000B1F90010034692FBF1F25B48D2B25B49FD
:10359000E0E7328856495A48C7E75A4B54491A8AD5
:1035A0005948C2E7574B52495A8A5848BDE74FF02D
:1035B0007E5257495748B8E71FFA89F31FFA88F235
:1035C00055495648C6E7564B56499A8A5648ACE77D
:1035D000564B1B68DA0404D591F8D420544851495D
:1035E000A3E70F232B60ADE7524953488B784A7805
:1035F00009780091514909F011FCA3E7504B494962
:103600001A88504891E74B4B9B79012B9AD1B1F91D
:10361000D830B1F9DA204C483F499BE74B4B34494D
:103620001A684B4881E74B4B31499A784A487CE706
:103630004A4B2F491A784A4877E70C2303FB0011BD
:10364000484891F8DC202A496FE70C2303FB00115E
:10365000454891F8DE20264967E70C2303FB00115B
:10366000424891F8DD2022495FE70C2303FB00115B
:103670003F4891F8E5201E4957E70C2303FB001152
:103680003C4891F8DF201A494FE70C2303FB001157
:10369000394891F8E020164947E700BFC4150020DB
:1036A000180F002030170020901700205DC101087E
:1036B000C7D2010869C101089DC1010892C601086D
:1036C0007DC101088BC1010877C10108A2C10108B1
:1036D000ABC101088ECA0108B7C101081C00002057
:1036E000C5C101089F1B0020D8C101089415002006
:1036F000B5C70108E3C10108F4C10108EEC1010822
:10370000FFC10108AC15002007C2010813C201085F
:10371000ABCC01081FC20108F6C201082AC2010889
:10372000D81400207DCA010836C20108A81500205F
:103730003DC201080A2F002051C2010848C20108F9
:10374000C215002061C2010869C20108702C002066
:1037500077C20108C229002080C201086437002016
:1037600090C20108A2C20108AAC20108B2C201089F
:10377000BEC20108CAC20108D2C201080C2303FB61
:103780000011864891F8E4208549CEE60C2303FB1E
:1037900000118448B1F8E6208149C6E60C2303FBFA
:1037A000001191F8E23091F8E12091F8E3107E48A1
:1037B00000917E491FE77E4B7E4819684B780A7856
:1037C00089780091794916E7794B7B4819680B791C
:1037D000CA784979009175490DE7754B77481968A2
:1037E000CB798A79097A0091704904E7704B744863
:1037F00019688B7A4A7AC97A00916C49FBE66C4B5E
:10380000704819684B7B0A7B897B00916749F2E617
:10381000674B6D4819680B7CCA7B497C00916349F2
:10382000E9E6634B69481968CB7C8A7C097D009185
:103830005E49E0E65E4B664819688B7D4A7DC97D2E
:1038400000915A49D7E65A4B55491B6861481A7E80
:103850006BE6574B604819680B7FCA7E497F009121
:103860005249C8E6524B4E491B685C4893F82620E3
:103870005BE64F4B4A491B6859481A8C55E64C4B3E
:1038800047491B685748DA8B4FE6494B44491B6848
:1038900055485A8C49E6464B41491B6853489A8C17
:1038A00043E6434B3E491B68514893F827203CE6CA
:1038B0003F4B3B491B684F4893F82C2035E63C4B67
:1038C00037491B684C4893F82D202EE6384B344975
:1038D0001B684A485A8E28E6354B31491B684848D0
:1038E0009A8E22E6324B2E491B68464893F83620C2
:1038F0001BE62F4B2A491B68434893F8372014E6F0
:103900002B4B27491B6841481A8F0EE6284B244948
:103910001B683F485A8F08E6254B21491B683D48E4
:103920001A8D02E6224B1E491B683B485A8DFCE566
:103930000A7A3A481A49F8E54A7A39481849F4E5C2
:10394000384B1749DA783848EFE5364B14491A797D
:103950003648EAE5334B12495A793548E5E5314AAC
:103960003449D38934485289F4E52E4A3149138ABF
:1039700032489289EEE5324B188815F06FFD3149D7
:1039800015F0C0FD15F09AFF054902462E48CCE51A
:103990002B4B0349DA782D48C7E500BFDBC201088D
:1039A000B5C70108E4C20108FCC20108F3C201085E
:1039B0005417002002C301080AC3010813C30108F9
:1039C0001AC3010821C3010828C3010830C3010834
:1039D00038C3010841C301083AC3010848C30108BC
:1039E0005AC3010867C3010872C3010881C30108F3
:1039F00094C30108A1C30108AFC30108C0C30108F3
:103A0000D7C30108E9C3010803C4010819C40108A8
:103A100027C4010831C401083EC401088EDC010836
:103A20004FC40108C22900205CC4010865C4010814
:103A300077C40108F6C2010887C4010895C40108CB
:103A4000401300200000C842A7C40108B2C4010806
:103A50007D4B7E495A797E4867E57E4B7B49DA7813
:103A60007D4862E591F800217C4878495DE57C4B12
:103A700076499A7F7B4858E5794B744993F8202022
:103A8000794852E5764B71495A8C78484DE5744B2C
:103A90006E491A7A764848E5764B6C491A79764829
:103AA00043E5744B69499A7874483EE5714B674920
:103AB0001A88734839E56F4B6449DA89714834E5EF
:103AC000BA786249704830E5704B60491A687048AE
:103AD0002BE51A2012F0E6FEA0B16E4B1B888BB9C5
:103AE0006D4B10A91B680E201093059B119309F0D4
:103AF00003FA6A4B1A686A4B1A600A232370059806
:103B000009F048FA09F0C8F9FFF771BB654B1B785B
:103B1000002BF4D01A2012F0C5FE0028EFD1624B22
:103B200093F80331002BEAD109232370EAE75F4BB6
:103B30001A685F4B5B68C833934211D2B378032B8A
:103B40000BD15C4D286805F099FA00232B605A4B85
:103B50001B78022B01D105F095FC0123FFF710BB68
:103B600016F00CFB0028E9D1FFF741BB012A01D177
:103B70000AF074FA0D231320237005F0FBFCFFF705
:103B800036BB012A04D10AF0D3F800283FF42FAB4A
:103B90000E23F0E71F2012F085FE00287FF427ABEC
:103BA000DBE7F378002B3FF434AB444B1D7815F082
:103BB000010508D1424BDFF810911F78414BD3F833
:103BC0000080BD421ADB394B374D1B68D5F8042104
:103BD0009A4224D92378012B7FF41BAB324C94F802
:103BE0000321002A7FF415ABB378032B10D016F015
:103BF000CFF8012384F80331FFF70BBB414659F896
:103C0000250015F013FE002801F03E800135D8E7AD
:103C100080200FF04BFE00287FF4FBAAE7E7237813
:103C2000012B3FF4F6AA95F80331002B3FF4F1AADB
:103C300009F0B6FC002385F80331FFF7EABA002348
:103C40000893FFF7FBBA00BF56300020B5C7010844
:103C5000BFC4010844140020CDC40108DAC401081F
:103C600084290020F0C4010801C501081BC5010812
:103C700035C50108AC15002047C5010858C5010825
:103C80006BC501087AC501088BC50108241A0020FC
:103C900096C50108A01500209C1500207C17002067
:103CA0009815002062170020180F0020C030002057
:103CB000301700203434002039170020B02E0020A7
:103CC00028150020D42500206424002015F0C6FB10
:103CD0004FF07C5115F016FC8E4F0AF12C090AF5B5
:103CE000A2782546069054460BF5887A0BF58E7B14
:103CF000337859F8040F172B04BF6219928F07937A
:103D000008BF3A8015F0AAFB216A15F0FBFB079B60
:103D10000146082B04D1079013F028F80799388042
:103D2000D4F8403140469847D4F8B031014608F104
:103D30007000984733780146032B04D1079013F0A5
:103D400015F807993880D4F8C430D9F80401984799
:103D50005BF81510C9F82000079015F0CBFA06990A
:103D600015F0D0FB5AF8151015F0C4FA079B4AF865
:103D700015004BF815300235062D08F1240807F11F
:103D80000207B5D1FFF7DABA634B55465B780AF103
:103D900024070993614B079219684FF47A73B3FBB8
:103DA000F1F3C3EB431103EB8103DB009BB20693FA
:103DB000337816460A93574BB3F90690069B5B0877
:103DC0000B93069B9C4201BF00237B65C5F8943092
:103DD0003B60534BF318B3F93C007B6D03447B65A8
:103DE00015F03CFBD5F8942002F10108B8F1010F61
:103DF000C5F894800AD10023012CC5F88800C5F8C5
:103E00008400C5F88C305CD1002034E0D5F884A063
:103E10000D9251460C9015F06BFA8346404615F012
:103E20001DFB0146584615F021FC514615F062FA7B
:103E30000C9B01468246C5F88800184615F058FAD2
:103E4000594615F05FFBD5F88C1015F053FA012C8C
:103E50008346C5F89000C5F884A0C5F88C000D9A7B
:103E60002FD1B8F1010FCFDD104615F0F7FA01465A
:103E7000584615F0FBFB13F0A9F90A9B8046032B6B
:103E800005D112F073FF01230FFA80F90793099B04
:103E900083B1184615F0E2FA414615F0D1FC48B15D
:103EA000079B13B11B4BA3F806901E4806F098F829
:103EB000FFF744BA0B9A7B6D1344069A93FBF2F317
:103EC0003B600236062E07F1040705F114057FF466
:103ED00078AF079B13B10F4BA3F80690012C11D1BB
:103EE0000022114B1B689A621A63DA620F4B93F837
:103EF000283123B10E4B1B8823F4806313B90120B2
:103F000005F038FB064AB2F8C030013BA2F8C030D9
:103F1000FFF714BA20150020C2290020702C0020C1
:103F2000D8290020982A0020E4300020180F002013
:103F3000402F0020AC4B5B79002B00F03984AB4B59
:103F40001B78013BDBB285F829312378072B40F041
:103F5000328406F05BFF0B90A54B4FF07E501B6840
:103F600007936B680E93D5F82C3119460A9315F018
:103F7000BFF9A04B196815F0C5FA4FF07E510C90AF
:103F800015F068FC10B94FF07E530C934FF0000A07
:103F90004FF0000B984B994D0693994B0893994B12
:103FA000DFF8B88253F82A70594638464FEA8A0437
:103FB00058F82A6015F03AFCE0B908F1E80858F81A
:103FC0002A803046414615F093F9814620F00041A1
:103FD000384615F035FC58B15946484615F04EFCA8
:103FE000002800F0EC834146384615F083F9064678
:103FF000854BE650854B1B8809939B073AD0BAF155
:10400000020F37D0079B93F82E80404615F026FA12
:104010007F4BE15815F076FA8146C8F1000015F0A3
:104020001DFA07460146484615F00AFC40B94046CD
:1040300015F010FA4946074615F00CFC00B94F463A
:10404000744B33F91A00089BB3F90030C01A15F00D
:1040500005FA714915F056FA0146384615F048F947
:10406000099B0D90DF0740F1D7836C4B196815F061
:1040700049FA06466A4B304623445B681946099361
:1040800015F036F995F83C310746002B77D0059AA4
:10409000D5F84031D31A634A126893426FDD079B0B
:1040A00093F84830022B02D1012007F01DF8BAF135
:1040B000020F40F065845C4B3846D3F8008008F16D
:1040C0000049494615F0BCFB002840F07884414681
:1040D000384615F0BFFB00B94746069B059AC3F862
:1040E00000B0D5F84031D31A504A1268934223DC0D
:1040F0004FF07E510A9815F0A3FB00283FD04C4B9F
:10410000DFF81C91D3F80080D9F80400414620F074
:10411000004015F095FB90B3D9F80810404621F007
:10412000004115F0ABFB50B3D9F80C10404621F01C
:10413000004115F0A3FB10B33E4B186810F00200CD
:1041400019D03D4B33483D491A68B1F90CE0B0F93C
:104150000030A3EB0E03002BB8BF5B4293420EDA94
:10416000B0F90230B1F90E105B1A002BB8BF5B42F8
:104170009A4204DD002085F83C0106F0B5FF304B83
:104180000E98E15815F0BEF9394615F0BBF9DFF885
:10419000D080BAF1020F014644F8080006D1294A3E
:1041A000294B10681B689847C8F80800069B1B68D5
:1041B0000D93264B5969264B186815F0A3F90C99F5
:1041C00015F0A0F9234BE15815F09CF9394615F08C
:1041D00099F90D9915F08EF81F4B0F90D3F80090B8
:1041E00009F1004841463DE0C22900206437002023
:1041F0005417002028260020C0140020180F00208B
:104200004C1300201C26002048100020022F002004
:10421000C80F00202A350020CDCCCC3D042600203C
:10422000702C002030260020482600202C2600205C
:10423000382600205C170020342600204013002080
:10424000D8250020FC260020582600200000002051
:1042500068370020E42500204C260020600F002055
:10426000B414002015F0ECFA38B90F9A49461046FC
:10427000904615F0EFFA00B9C846BAF1020F40F0C7
:10428000A183A94B1B78012B02D0192B40F09A83F4
:104290004FF00103A54938460F9315F0EFFA0F9B35
:1042A00000B90346DBB23BB10D9B28F0004023F080
:1042B000004115F0C5FA10B1069BC3F80080BAF1B1
:1042C000020F00F099809A4A9A4B09991B68A058EE
:1042D0009847994A994B01461B68A0589847079BF5
:1042E000804693F83730002B00F07683944B1B8880
:1042F000002B40F07183934BE158934B186815F0F5
:1043000001F94FF07E51814615F0A4FA08B94FF03B
:104310007E598E4B4846196815F0F4F80146304630
:1043200015F0F0F8414614F0E3FF894B8046E15860
:1043300014F0DEFF874B196815F098F9844B064698
:1043400044F80380079B93F84830002B4AD0824BF7
:104350001B78DA0740F142834FF07E510A9815F03E
:1043600083FAF8B195F83C31E3B97C4B26F0004074
:10437000196815F083FAA8B1794B27F00040196845
:1043800015F07CFA70B1774BE058774B20F0004085
:10439000196815F055FA28B1012385F83C31059BC1
:1043A000C5F8403195F83C31E3B1059AD5F8403174
:1043B000D31A6E4A1268934214DA694B27F0004010
:1043C000196815F03DFA40B9664BE058664B20F08D
:1043D0000040196815F052FA20B1002085F83C0120
:1043E00006F082FE624B0E98E15815F08BF83146CC
:1043F00015F088F85F4B185195F84C315E4F3BB97A
:10440000069B47F804B0C3F800B05A4B44F803B019
:10441000069B0AF1010A04330693089BBAF1030FC5
:1044200003F1020308937FF4BAAD544C2278072AB3
:1044300005D106F0EBFC0B9BC01A514B588023783A
:10444000012B40F0D18206F0E1FC4E49D5F8503105
:104450004B4A0968C31A93805B1A0590D380C5F84C
:104460005001494B494CD3F80090494B99F82C80A6
:104470001B6813F4805F00F01983374BB5F8566161
:104480001B783046DB0758BF424BE4685CBF1B8B90
:10449000A5F8543114F0E2FF82460146204615F09B
:1044A000D9F9002800F0A9823B4BD5F85C111868B7
:1044B000C5F86011C5F86411C5F8580114F018FF6B
:1044C000FF23C5F8680185F86C31204615F01CFA09
:1044D0002146A5F85401504614F00AFFC5F87001B2
:1044E000D5F874412146D5F8700115F0BFF84FF0AA
:1044F0007E51044615F0AEF908B94FF07E54002104
:10450000204615F0B1F900B90024244EC5F87041D9
:104510003168386814F0EEFE164B196814F0EAFEA4
:10452000B9F828B03CE000BF2835002000009642D2
:104530005C26002050260020AC26002054260020B7
:10454000022F0020D40F002000260020FC25002090
:104550005C10002068370020B02E0020402600208C
:104560003C260020600F002044260020302600203A
:10457000F0250020CC140020B4140020581700208F
:10458000201500203C170020541700208C300020FC
:10459000B029002084290020C4150020C014002068
:1045A0008246CBF1000014F059FF0546584614F03E
:1045B00051FF29468346504615F042F9002840F045
:1045C00093825946504615F045F900B9DA467E49BE
:1045D000504614F097FF71680690786814F08AFED0
:1045E0007A4B596814F086FE82460146284615F03B
:1045F00045F930B9514658465D4615F02BF900B9DA
:1046000055467149284614F07DFFB1680790B86897
:1046100014F070FEB9F82A700646784214F01EFFB6
:1046200005460146304615F00BF940B9384614F0FE
:1046300011FF3146054615F00DF900B935466249BE
:10464000284614F05FFF624B06465B780BB900F119
:104650000046B8F1000F25D05E4B5A7912B35E4A7E
:104660001578FDB1187814F0F5FE0746284614F0C9
:10467000F5FE0146384614F045FF584B05461888AC
:1046800014F0E8FE0146284614F0F0FF54490546B0
:1046900015F0E0F800B9524D4FF07E51284615F064
:1046A000E3F808B94FF07E554FF000084FF0000ACC
:1046B000C1464C4B4C4F93F800B0DA45C0F23482FF
:1046C0004146484614F014FE484D4FF07E51C5F85F
:1046D0002C01064615F0D2F8002800F05F82314622
:1046E0004FF07E5014F0C2FF0024074610AEA345E1
:1046F00000F34B8212F0DCF818B14FF07C53C5F890
:10470000703195F96C0114F0A9FED5F8703182462C
:104710000693D5F86831D5F858010793D5F8643178
:104720000893334BDB780B9315F0C8F88046D5F827
:10473000600115F0C3F82F4B81461E6800253046F6
:1047400015F0BCF807462C4B1B6803F0100203F46D
:1047500080530D93294B0C92B3F90630284A0993E4
:10476000284B14785B8B04F001040A935D45C0F07C
:10477000398224B9244B254AA34500F373821B4C8C
:10478000D4F808320BB110F031FE94F80C320BB1B2
:104790000EF03CF91E4B1B78072B05D106F036FBBB
:1047A000059BC01A1B4BD88001232370FEF7E2BD86
:1047B0000123FFF7C8BB00230B93FFF7CDBB39469E
:1047C000404614F095FD12E46F12833ACC14002099
:1047D000601700200A2F00208A3000207630002049
:1047E000713DAA3F28150020A0100020180F0020BE
:1047F0001C2F0020D4250020B0290020D82E002016
:10480000B02E0020842900202C15002064240020D4
:104810005817002020150020D5F8BC80D5F8C070AE
:104820004146384615F020F800B94746AF4BB3F97A
:104830000000B3F902300028B8BF4042002BB8BFD7
:104840005B429842B8BF184614F008FEA84914F01D
:1048500059FEA84B81461B78002B55D0A64B5946D4
:104860001B681846099315F009F8002800F08680A7
:10487000A24B5946D3F80080404614F0FFFF0028B1
:104880007CD007F100409E4914F03CFE099914F0D9
:10489000EDFE4FF07E5114F02DFD4946074640468F
:1048A00014F026FD414614F0E1FE4FF07E518046A3
:1048B00014F0D0FF08B94FF07E585946404614F026
:1048C000D3FF00B9D8463946404614F01BFE4FF0DE
:1048D0007E51074614F0BEFF08B94FF07E57594687
:1048E000384614F0C1FF00B95F46864B0D98196831
:1048F00014F008FE0146384614F004FE0146304626
:1049000014F0F8FCFFF7B5BB7F4B8049D3F800806B
:10491000404614F095FF68B341464FF07E5014F0C6
:10492000E7FC7B4914F0EEFD49460990794814F004
:10493000DFFC099B0146184614F0E4FD414614F0E3
:10494000D9FC6D4B196814F0DDFD80465946404690
:1049500014F080FF90B94146694814F087FE07F1D2
:1049600000470146384614F0CDFD4FF07E5114F05B
:10497000C1FCACE7604BD3F80080E7E75846A6E7F8
:10498000654B1B6899077FF5A8AB089BB3F900003E
:10499000564B33F91A30C01A14F060FD5F4B0646CF
:1049A0005349186814F0AEFD0146304614F0AAFDD4
:1049B0000999064614F09CFC0746FFF78EBB4F464C
:1049C000FFF78BBB4FF001034FF07E51D5F82C0160
:1049D0000F9314F049FF62E45946A0E495F83C3186
:1049E000002B3FF4FFACF8E4072B03D106F00EFADE
:1049F000059036E50023059333E5B5F8780114F00A
:104A00002DFD82460146204614F02EFFF0B1D5F868
:104A10007C11D5F8D000C5F85811C5F86411C5F857
:104A2000600114F065FC0123C5F8680185F86C315C
:104A3000204614F069FF5146A5F85401204614F0B1
:104A400057FCC5F87001D5F880414BE5B5F85431F5
:104A5000B34217D8262011F0EBFE98B9304BD5F8A9
:104A60005C111868C5F86011C5F85801C5F86411E3
:104A700014F03EFCFF23C5F8680185F86C31C5F8D9
:104A800070B12DE5D5F87C11D5F8D000C5F85811D6
:104A9000C5F86001C5F8641114F02AFC0123C5F8BB
:104AA000680185F86C31C5F870B1CCE71D4B588BA7
:104AB00014F0D4FC0146E06814F01AFC184BC5F859
:104AC00070011968D5F8D000C5F85811C5F8600113
:104AD000C5F8641114F00CFC0123D5F88441C5F825
:104AE000680185F86C31FDE4AA4670E52A3500209E
:104AF000CDCCCC3D102600200C2600201426002012
:104B00000000C8420826002018260020AE47813F3A
:104B1000610BB63B000034435C17002004260020E4
:104B2000C4150020842900207968069814F0EAFC56
:104B3000B9680890079814F0E5FC089A01461046F9
:104B400014F0D8FBF9680890304614F0DBFC089AA2
:104B50000146104614F0CEFB294614F0D3FC49461A
:104B6000089014F08BFE089A68B91146404614F07C
:104B700071FE089A00B9904610AB43F82A2010370E
:104B80000AF1010A99E59146F6E756F824003946FC
:104B900014F0B8FC46F824000134A8E511F088FEB2
:104BA00038B94FF07C51204614F068FE00283FF4DD
:104BB000A8AD4FF07C51304614F0A4FC06460146E7
:104BC000204614F03DFE50B931464FF07E5014F0AF
:104BD0008FFB2146064614F03DFE00B92646C5F877
:104BE00070618EE52D4A2B019958069814F08AFCC5
:104BF00010AB53F825100E90504614F083FC0E9B1A
:104C00000146184614F076FB079914F07BFC0899CE
:104C100014F070FB0B9BFBB114F050FEB84203DBA9
:104C20004845A8BF484600E0384614F017FC0C9AE7
:104C3000034662B15CB10D9A4AB90E9011F038FE8C
:104C40000E9B20B9099A0A998A42B8BF3346144A82
:104C500042F82530013589E514F030FE4045DFDAB1
:104C60004046E2E752F8241043F82410013483E56B
:104C700015F084FA00283EF4BAAA0A4B1A680A4BC7
:104C80001A600A23FEF77CBA084B094A1B6803F531
:104C90009C530833C2F80431FEF79CBFA0100020DB
:104CA0002C1500207C17002098150020C030002013
:104CB000180F00202DE9F04FB64A97B013780192F3
:104CC000002B00F0B780B44B186800286DD003F0BB
:104CD0004CFADFF8F8A2B14DDAF8000006F063F9FB
:104CE000002862D0DAF8000006F05AF90928AC4C26
:104CF00001D03F2850D14FF00008C14646462768F2
:104D0000DFF8ACB208EB0B0347B13A4658F80B108A
:104D10002846009313F0E4FA009B08B976B399464D
:104D200008F10808B8F58C7FECD196B1D6F800E010
:104D3000D9F800C023681EF803001CF80310814254
:104D400007D15A1CE9B97D2B1BD820202260E854DA
:104D5000A95423680BB14E4508D0924811F033FD99
:104D60004E4511D9904811F02EFD002723689F422F
:104D7000B2D2E85D06F0F6FD0137F7E71E46994628
:104D8000CEE7E8542260D5E756F8080B11F01BFD7A
:104D9000092006F0E7FDE3E72368002B41F09B8242
:104DA000042805D17D480DF0DCF917B0BDE8F08F7F
:104DB0000C2841F0B3827D4811F005FD7A4811F0CE
:104DC00002FD89E701220B4601F097BA591E685C83
:104DD0002028F7D002B123600026754FEE54F15918
:104DE000284606EB07080DF0EDFB38B90836B6F596
:104DF0008C7FF4D16F4811F0E6FC05E06E4B9845CE
:104E0000F8D2D8F804309847002301F07ABA7F2B03
:104E10003FF662AFA0F12002D2B25E2A3FF65CAF4D
:104E200013B920283FF458AF5A1C2260E85406F00A
:104E300099FD51E79846614F614D3A7802F00102C1
:104E4000009255F80A3C002B41F0CA8108F1010894
:104E5000B8F1030F05F1CC05F3D1A6E7012B05D17D
:104E60004D280CBF0223002301F0D0B9022B57D1EB
:104E700000233C2805F8023C4DD03E284AD015F8C6
:104E800002ECBEF1060F41F0AC8115F8014C002C8C
:104E900041F085814FF001094A4B05AE0FCB86E802
:104EA0000F0015F8053C15F803AC2B440A93BAF132
:104EB000440F0FFA8AF30995ADF82C30ADF82E4067
:104EC0008DF83090ADF81C3001F0598100F211815D
:104ED000BAF1050F00F0538200F2C980BAF1020F57
:104EE00000F0938100F2AB80CA4500F08381314627
:104EF000504601F029FA0446002840F07981BAF1C1
:104F0000740F00F0C882BAF1770F00F055836FF08C
:104F10000109CEE2012305F8013C032301F076B933
:104F2000032B0BD10023C0289FBF05F8063C05F8D2
:104F3000050C05F8040C042301F068B9042B09D111
:104F400015F8043C05F8030C5E4005F8046C0523D5
:104F500001F05CB9052B92D115F8061C15F8053C3B
:104F600015F8042C8B420CD94B1C05F8063CCC23BD
:104F7000424005F8042C144A03FB08230B449872A2
:104F80007DE7824202D1062301F040B9002301F0FF
:104F90003DB900BFD0250020842400204C250020EE
:104FA000CC2500205EC6010863C6010868C601085A
:104FB00068BD010873C6010880BE0108B02E00203C
:104FC0008A0B0020A4A40108800B00208824002064
:104FD000009B002B41F00581232824D10123019956
:104FE00055F80A2C0B708C4B8C491A608C4B8D48F1
:104FF0001A609A609DF8002059605A7340221A7313
:10500000894A04331360894B894ADB78003318BF1F
:105010000123137011F006FC864811F0D4FB4FF405
:10502000006005F049FD844B93F82230B3427FF4D1
:1050300026AF824B824A1A60824BDC601FE7BAF1CE
:10504000030F00F01B81BAF1040F7FF450AF00246E
:1050500004227D49304603F0CBFA7C4B3046197868
:1050600003F0E4FA059B5A1C05921C70CAE0BAF1E1
:10507000240F00F0C2811FD8BAF1200F7FF437AFA0
:10508000DFF8E0A1724B9AF80120D91C1A709AF847
:10509000002005915A709AF80220BAF808109A7008
:1050A000304603F0C3FA059B9AF80520591C059178
:1050B0001A709AF8062083E0BAF1280F00F0CF8129
:1050C000BAF1380F7FF413AF0522614B4FF001099D
:1050D0005A700A2200249A705E4A83F80090117870
:1050E000DC701971517892785971D91D05919A71B6
:1050F000CBE0BAF1810F00F0848130D8BAF1540FBF
:1051000000F0C28108D8BAF1520F7FF4F0AE504BD4
:105110005A1C05921C70B8E0BAF16E0F00F03C8189
:10512000BAF1800F7FF4E3AE00210A264A4B4B4CC4
:105130001B780B3BDBB299425ADA22880598FF2A8A
:10514000A8BFFF2200F1010ECDF814E0067005980B
:10515000013100F1010ECDF814E00270EBE7BAF175
:10516000A00F00F03A8130D8BAF1820F7FF4BFAEC1
:105170003B4B30461A78364BDFF8F8A0591C1A70B2
:10518000384B0591198903F051FA374B059A1B8862
:10519000511CFF2BA8BFFF2305911370DAF80810EC
:1051A000304681F3100189B203F040FADAF80010BA
:1051B000304601F30F0189B203F038FA2B4B1A780D
:1051C000059B591C05911A705FE0BAF1B80F00F009
:1051D0001681BAF1FE0F7FF48AAE0024DFF89890B2
:1051E00039F814103046013403F020FA042CF7D1BA
:1051F000002407E0164BDA1C059225221C7083F868
:1052000001A09A704FF001093FE00422184930468E
:1052100003F0EEF939E000BF88240020EFAF00086A
:105220006011002093C601088424002090170020FC
:10523000E00E002063C60108822C0020F04F002001
:10524000EFBEADDE00ED00E095170020B0090020B4
:10525000583B0020EC0F002028150020800E002075
:105260008A3000200A2F002076300020052F0020F1
:1052700099C601084C150020201500200222BD4BC4
:105280001A705A70DA1C05929C70ADF81E90B9F134
:10529000000F66D0059B55F80A0C0693B54B059395
:1052A00003681B6A03B19847059B069EF61A002304
:1052B0000E9324238DF834304D238DF83530BDF90D
:1052C0001E30FF2E3246A8BFFF22013300F05A875E
:1052D0009DF82030002B14BF3C233E23FE2ECCBF74
:1052E0004FF007094FF005098DF83630BDF81C3036
:1052F0008DF837208DF838304A46C8BF33120DA9D3
:1053000055F80A0CC4BF8DF83A308DF8396005F0B5
:1053100050FE0DAB994400230DF13702914540F04A
:105320003487002E8DF813300EDD3246059955F87E
:105330000A0C05F03EFE059B9DF813201E449E427C
:1053400040F028878DF8132055F80A0C01220DF142
:10535000130105F02EFE55F80A0C03685B6A03B1D1
:105360009847002305F8023C002C3FF46FAD55F838
:105370000A0C03F05DFE55F80A0CA04766E50B2207
:105380007D49304603F034F908227C49304603F069
:105390002FF907227A493AE77A4B764A1B88DFF8D9
:1053A0000CA2FF2BA8BFFF23511C0591DAF80810AF
:1053B000137081F3100189B2304603F037F9724B54
:1053C0003046198803F032F9DAF8001001F30F01C2
:1053D00089B2304603F02AF957E76C4B304619681A
:1053E00003F010F96A4B3046196803F00BF9694B6A
:1053F0001968304603F006F947E7674BF8E7674B53
:10540000F6E74FF00A0A4FF6FF7B654B654A1B78BB
:105410000B3B5FFA83F94C45BFF6EAAE116893681F
:105420005945A8BF59460598029321EAE171431CEA
:10543000059389B280F800A03046039203F0F6F895
:10544000029B30460AFB03F15945A8BF594621EAA1
:10545000E17189B203F0EAF80134039ADBE70A222A
:10546000444BDFF84CA19A70BAF800101A1D83F86B
:10547000009083F801E083F803903046059203F032
:10548000D5F8BAF80210A4E73A4A134603F8024BDB
:1054900005935470F9E6099B0A9A9A420FBF214678
:1054A0005A1C09921978404A304611F0A5FA4FF07B
:1054B000010919F1020F40F06A83BAF1470F099B05
:1054C0000A9A40F0878009A8A2EB030A03F06AF861
:1054D000BAF1050F814679D909A803F079F8099B3B
:1054E0000A9A83469A4202D009A803F07CF8059AEA
:1054F000069BDFF8C0A09B1A103BDAF808205B453A
:10550000CDF808B0A2EB0902B8BF1FFA83FB9345A0
:105510004946304688BF1FFA82FB03F073F83CB956
:105520005946304603F082F8059A511C05911470D3
:10553000DAF8083009EB0B029A42059E88BFA3EB0C
:10554000090B08F04DFD5A463146484608F028FC44
:10555000059B03440593002C3FF44AAE0022029BB6
:1055600083427FF745AE059B0130591C05911A70A7
:10557000F5E700BF583B0020ABC10108A2C10108FC
:1055800092C6010876300020002F0020E8F7FF1FA8
:10559000ECF7FF1FF0F7FF1F241A0020341A002039
:1055A00028150020AC0E0020B16901084C15002020
:1055B000F00F002068040020099B0A9A9A421DBF40
:1055C0005A1C099219782146B54A6DE701244FF01B
:1055D000800B8CE7BAF1290FA2EB030437D0BAF1A4
:1055E000390F20D0BAF1210F4AD15A1C09921A461C
:1055F000AC4C12F8021B16A8099261705A782270FE
:10560000DA1C40F8342D9B78A37002F0E1FF099B6F
:1056100020815A1C09921A4612F8021B61710992E4
:105620005B78A37123E05A1C09921A780A2A40F089
:10563000F1859A1C099259789B4A1170D91C0991DD
:1056400099785170191D0991DB7893700FE05A1CFD
:1056500016AC44F8342D1B7820460A2B0AD102F0F0
:10566000B7FF924E3080204602F0B2FF70804FF0BC
:1056700001098CE202F0ACFF204602F0A9FFF6E738
:10568000BAF15F0F00F0568400F27981BAF1350F5C
:1056900000F0048300F29080BAF12B0F00F0EB844D
:1056A00020D8BAF1230F00F0E18206D8BAF10B0F2F
:1056B00000F050854FF0FF3969E2BAF1250F00F094
:1056C000C884BAF1270FF5D109A802F081FF784C00
:1056D000206009A802F07CFF606009A802F078FF52
:1056E000A060C4E7BAF12F0F00F0F78457D8BAF1E1
:1056F0002D0FDFD15A1C16AC44F8342D1B786D4E9B
:105700002046337202F064FFB083204602F060FF4F
:105710003083204602F05CFF099B70835A1C09927B
:105720001B78F3740A9B9B1A032B07DD204602F0BB
:105730004FFFB084204602F04BFFF084099B0A9A89
:10574000D21A032A0DDD5A1C09921A4612F8021BBE
:105750002046B17709925B7886F8203002F038FF56
:105760007084099B0A9AD21A052A0CDD5A1C0992E8
:105770001B782046F37202F015FF099BF0605A1C5B
:1057800009921B783374099B0A9AD21A002A7FF770
:105790006EAF5A1C09921B7886F8213067E7BAF180
:1057A000310F00F0B384BAF1330F83D15A1C099240
:1057B0001A78404B5A755AE7BAF1480F00F0458401
:1057C0003ED8BAF13C0F3FF452AF26D8BAF1370FAA
:1057D0007FF470AF0726B4FBF6F6C6EBC603E41AF7
:1057E0007FF468AFDFF8D4B0F6B2E3B2B3423FF46F
:1057F0003EAF4FF0000A099B5A1C099293F9003002
:105800000BEBCA0999F902209A4200F044850AF18B
:10581000010ABAF1040FF3D14CE7BAF13E0F00F0E0
:10582000D481BAF1410F7FF445AF00232149099A91
:10583000501C099012785A540133082BF7D116E7FF
:10584000BAF1510F00F0DE833AD8BAF14C0F00F0F4
:105850002484BAF14E0F7FF42DAF5A1C09921C78A4
:10586000112C3FF627AF9A1C16A840F8342D5B7810
:10587000114E06F8143002F0ABFE40F6CA0398420F
:10588000A8BF184640F2EE239842B8BF1846192325
:10589000A0F2EE2090FBF3F006EB44046070E6E625
:1058A000A56901080A2F0020EC0F0020F00F00204E
:1058B000680B002084290020F2230020822C002085
:1058C000BAF15B0F00F0DC82BAF15D0F7FF4F2AE4B
:1058D0005A1C16AC44F8342D1B78C64EDFF84C9396
:1058E000204689F80530D6F800A002F071FEAAF82B
:1058F00020002046D6F800A002F06AFE099A0A9B12
:10590000AAF81E009B1A072B17DD204602F060FE46
:10591000A9F80A00204602F05BFEA9F80C00204618
:10592000D6F800A002F054FEAAF822002046D6F8CD
:1059300000A002F04DFEAAF82400099A0A9B9B1AC7
:10594000032B09DD204602F043FEA9F80E00204695
:1059500002F03EFEA9F81000099B0A9AD21A002A0A
:1059600005DD591C099132681B7882F826300AF04F
:105970006DFA0DF04DFE30680CF060FF77E6BAF17D
:10598000D40F00F0F9816FD8BAF1CA0F00F052813C
:105990003DD8BAF1B70F00F0C28014D8BAF1610F48
:1059A0007FF488AE5A1C09921A46934912F8020BEA
:1059B0000992C8705978914A5171DA1C09929A7803
:1059C0008F4BDA7053E6BAF1B90F00F04D83BAF19C
:1059D000C80F7FF46FAEC4F34704122C3FF66AAED3
:1059E00000260DF13409A642C0F2D4800023854A76
:1059F0000DA99C4240F0D5800021824A122B40F034
:105A0000D6804FF00109804B83F80090BFE0BAF1D7
:105A1000CE0F00F0EC8210D8BAF1CC0F00F060810C
:105A2000BAF1CD0F7FF446AE3B78D9073FF51FAEF4
:105A30004FF4C872754B1A8019E6BAF1D00F00F016
:105A4000CA82BAF1D20F7FF435AE5A1C0992187887
:105A500006065CD43B78DC073FF509AE032828BF77
:105A600000200AF031F902E6BAF1DC0F00F0F6810D
:105A700026D8BAF1D90F00F0CE8114D8BAF1D60FDA
:105A80007FF418AE0024624EDFF8A49133789C4274
:105A9000BFF6EDAD09A802F09BFD13F0DBFC49F861
:105AA00024000134F2E7BAF1DA0F00F0C281BAF152
:105AB000DB0F7FF4FFAD4F4B4E22564918684AE08A
:105AC000BAF1EF0F77D015D8BAF1DD0F00F03183BE
:105AD000BAF1DE0F7FF4EEAD09A802F079FD4E4C6D
