:020000040800F2
:1000000000500020F15B01088D5C010801440108EB
:100010008D5C01088D5C01088D5C0108000000000A
:100020000000000000000000000000008D5C0108DE
:100030008D5C0108000000008D5C01085D0801086E
:100040008D5C01088D5C01088D5C01088D5C0108E8
:100050008D5C01088D5C0108C1F40008BDF4000846
:10006000B9F40008B5F40008B1F40008A9B3000819
:10007000A1B3000899B3000891B3000889B3000840
:100080007FB30008610C01088D5C01088D5C0108DC
:100090008D5C01088D5C01088D5C0108ADF40008E1
:1000A0008D5C010811A400088D5C010821A40008E2
:1000B00001A40008F1A30008E1A3000899CF0008FB
:1000C0009BCF000895CF000897CF00088D5C0108F2
:1000D0008D5C010895340108893401087D340108DC
:1000E000A9F400088D5C01088D5C01080000000087
:1000F0000000000000000000000000000000000000
:0C01000000000000000000005FF808F1A3
:100110002DE9F04F374ED7B0751E771C4FF0000811
:1001200055F8113CA5F11109002B01F0B58455F8E3
:10013000110C10F0FFFC8246002801F0868455F86F
:10014000110C10F0F4FC15F8053C0446013B042B9F
:1001500004D8DFE803F0070C1F292D0024284DD117
:10016000012344E04D2814BF002302233FE0002375
:100170003C2805F8053C02D03E2805D075E015F86E
:100180000D3C002B71D103E015F80D3C012B6CD117
:1001900003232CE040284FF000039EBF05F8043CE9
:1001A00005F8030C042322E005F8020C05231EE0E9
:1001B00015F8042C15F8033C9A4209D2531C0E4939
:1001C00005F8043C502303FB08131A4410744CE058
:1001D00015F8022C691E5A4013F1FF3303D311F8AE
:1001E000010B4240F8E794420CBF0623002305F8B8
:1001F000053C3AE0CE070020BC070020DFF8E4B061
:1002000055F8111C9BF8003013F004022DD1232C5B
:1002100020D12B4B012018702A4B2B4883F8B1209A
:100220001022C3F8A80083F8B020C3F8AC1003F183
:10023000A8022648C3F8A010C3F8A410C3F8C4202D
:1002400013F0ACFA0DF0A4FF9BF8003043F002036A
:100250008BF800301E4B1B78A34201BF1D4A1E4B7A
:100260001A601E4A04BF1E4BDA6015F8053C062BC7
:100270007FF45DAF15F80DECBEF1000F41F0E583A2
:1002800015F8030C502101FB08010E4C15F8020C67
:1002900056AB10311FFA80FC214416AA089301388E
:1002A0006B1E0A930792ADF826E00B91ADF830C0B3
:1002B000ADF832E0ADF824C0CB1AA34614E000BF7D
:1002C000F8390020BC070020050C01084AB50108D8
:1002D00018360020EFBEADDEF04F00200400FA0516
:1002E00000ED00E0FA390020FD2801F29F83DFE8ED
:1002F00010F014011D012501300139019D0B9D0BEA
:100300009D0B9D0B9D0B9D0B9D0B9D0B9D0B9D0BAD
:100310009D0B9D0B9D0B9D0B9D0B9D0B9D0B9D0B9D
:100320009D0B9D0B9D0B9D0B9D0B9D0B9D0B9D0B8D
:10033000EA043B0A4F039F07C504E709C904F4090F
:10034000D704270AFE04540A01055B0A8105FE0052
:100350009B05520B5C05C80A7203D4076E05FC0AA4
:100360000A01050A8F024B036A07EB025F079D0B28
:100370006205CF0A9D0B9D0B8A0B7E06D7050B06E7
:1003800066099D0B9D0B1F05800A4005A10A3706D3
:100390002E069D0B77069D0B9D0B9D0B9D0B9D0BBC
:1003A0002E099D0B9D0B9D0B9D0B9D0B9D0B9D0B7E
:1003B0009D0B9D0B9D0B9D0B47015501CE01F90136
:1003C0005C0267021004330475028502B902F5026B
:1003D0002B039D0BCE039D0B9E0347034404BB03DD
:1003E000FD019D0B9D0B9D0B8D069B06B206A7057F
:1003F00003015F0645069D0B9D0B9D0B9D0B9D0B01
:100400009D0B9D0B9D0B9D0B9D0B9D0B9D0B9D0BAC
:100410009D0B9D0B9D0B9D0B9D0B9D0B9D0B9D0B9C
:100420009D0B9D0B9D0B9D0B9D0B9D0B9D0B9D0B8C
:10043000B7049D0B9D0B9D0B79049D0B9D0B9D0B94
:100440009D0B9D0B9D0B9D0B9D0B9D0B9D0B9D0B6C
:100450009D0B9D0B9D0B9D0B9D0B9D0B9D0B9D0B5C
:100460009D0B9D0B9D0B9D0B9D0B9D0B9D0B9D0B4C
:100470009D0B9D0B9D0B9D0B9D0B9D0B9D0B9D0B3C
:1004800029076A0974079D0BFF0743094E094508B0
:100490003B0999091607220791089D0B85089D0BBA
:1004A0009D0BF40805091B0920097B0B9D0B9D0B77
:1004B0009D0B9D0B9D0B9D0B9D0B9D0B9D0B9D0BFC
:1004C0009D0B9D0B9D0B9D0B9D0B9D0B9D0B550738
:1004D000AC043102CF089D0BDB0AC0069D0B9D0BBF
:1004E0009D0B9D0B5B099D0B9D0B9D0BA104DFF8E4
:1004F00070B3002401F032BAB4F80831FF2BA8BF62
:10050000FF2300F054BC94F82C31137094F82D3173
:10051000537094F82E3100F0A6BD00230DF15B015D
:10052000137001230791537019210FE0BA4907A8EE
:1005300004220BF07AF8012301F07ABA0E2101238C
:1005400051700DF15B01079113700321917001F05F
:100550006FBA07A8B14904220BF067F8B04B07A89F
:10056000197832E307A8AF490B220BF05EF807A811
:10057000AD4908220BF059F807A8AC490722D8E783
:10058000E723137094F8303107A853700DF15B0323
:10059000079300239370042100F034BDA44B07A8F7
:1005A00019880BF060F8B4F8401107A889B20BF075
:1005B0005AF8D4F8443107A8C3F3C001C3F380024A
:1005C000890041EA4201C3F340021143C3F34012E0
:1005D00041EAC20103F0100319430BF044F8002371
:1005E0001946B4F84801934A12F901E0BEF1FF3F01
:1005F0000CD04FF2FF720A41D20707D540FA01F240
:10060000D20742BF012202FA0EF2134301310C2934
:10061000E9D1D4F84CE10021012287488A401040FA
:1006200018B112EA0E0F18BF134301312029F3D17C
:10063000824A00201278864651070146D4F850C1FC
:1006400048BF43F00103012202FA00FB1BEA0C0F32
:1006500007D01BEA030F1CBF02FA0EF211430EF182
:10066000010E01301D28EED107A80AF0E8FF079B14
:1006700094F85421591C07911A7007A894F85C113A
:100680000AF0F1FF07A8B4F8601100F0E0BCB4F87C
:100690006C310024B3F5806F8CBF4FF0030B4FF02B
:1006A000000B674B07A853F82410013441FA0BF1F3
:1006B00089B20AF0D8FF032CF3D10024614B07A8BC
:1006C00033F8241001340AF0CEFF032CF6D10024B5
:1006D0005D4B07A833F8241001340AF0C4FF032C43
:1006E000F6D128E707A85949102222E700230C2455
:1006F0005C43DBF8A4210393115B07A80AF0B3FF66
:10070000DBF8A42107A8224451880AF0ACFFDBF8EB
:10071000A42107A8224491880AF0A5FFDBF8A421B0
:1007200022449179079A501C07901170DBF8A4219C
:100730002244D179079A501C07901170DBF8A4214C
:1007400007A81444A1680AF07AFF039B0133082B21
:10075000CDD1F0E63E4B03F17001079A13F8010C7E
:10076000541C07941070079A1878541C0794107042
:10077000079A5878541C07941070079A9878541C5C
:1007800007941070079AD878541C07941070079A31
:100790001879541C07941070079A58790733541C21
:1007A0008B4207941070D8D1C5E60024294B07A8C6
:1007B00033F8141001340AF056FF082CF6D1BAE6CB
:1007C0000024254B1B789C42BFF6B5AE234B07A8EF
:1007D00033F814100AF047FF0134F2E707A8B4F821
:1007E00030120AF040FFB4F8321207A80AF03BFFBB
:1007F000B4F934320A2193FBF1F1D6E307A8D4F817
:1008000038120AF01CFF07A8B4F83C1200F01FBC15
:1008100007A8D4F84012F5E382B5010887B50108AE
:10082000F93900208CB5010898B50108A1B5010877
:10083000F039002024960108C0F11F1AFA3900206F
:100840002C0900203809002044090020500900200C
:1008500065090020D409002008360020C435002096
:10086000840800204FF6FF7B94F84A32B4F84C22FB
:1008700004EBC3030DF159010791D3F85412FF2A79
:10088000A8BFFF225945A8BF594621EAE17107A830
:1008900089B28DF8582003930AF0E5FEB4F860128F
:1008A00007A80AF0E0FE039B94F86222D3F85012E6
:1008B0003AB10A2359435945A8BF594621EAE17183
:1008C00073E301F30F0170E394F865320DF15A01FF
:1008D000137094F86432079153702CE6D4F86832A0
:1008E0000DF159001978079011705B780DF15A01DC
:1008F000537007910023DBF86822B7491A44107936
:10090000079A0133541C032B07941070F3D1D1F8CC
:100910006832DA79079B581C07901A70D1F8683250
:100920009A78079B581C07901A70D1F86832DA78C9
:10093000079B581C07901A70D1F8684207A8618974
:100940000AF091FE227A0EE20022DBF86C32995C0A
:10095000079B581C07901970DBF86C321344997A86
:10096000079B581C07901970DBF86C321344197DF3
:10097000079B0132581C0A2A07901970E5D1DAE565
:1009800007A896492F22D4E5D4F86C329B7F0EE25B
:100990000024DBF8702212F8240002EB8403039396
:1009A00010F056FC079A4179501C0790039B117078
:1009B000079A5978501C07901170079A9978501C23
:1009C00007901170DA78079B0134591C142C079199
:1009D0001A70DED1AFE5002106234B43DBF8740229
:1009E000079CC21892F805E004F1010CCDF81CC078
:1009F00084F800E0C05C079B01315C1C0794187010
:100A0000079B50785C1C07941870079B90785C1CBF
:100A100007941870079BD0785C1C07941870079B8C
:100A20001279581C0C2907901A70D5D183E500243F
:100A30000123DBF85021A340134211D0E0B210F0A3
:100A400007FC01680846039118F037FD0399024638
:100A500007A80AF0EAFD079B5A1C07923B221A706E
:100A600001341D2CE4D166E500240123DBF850217C
:100A7000A340134207D0E0B210F0EAFB079B427993
:100A8000591C07911A7001341D2CEED153E5544BBB
:100A900007A8198A03930AF0E6FD07A8B4F87812AC
:100AA0000AF0E1FD07A8B4F87A120AF0DCFD07A805
:100AB000B4F87C120AF0D7FD07A8B4F886120AF041
:100AC000D2FD079A94F88C12501C07901170079968
:100AD000039B4A1C079200220A70079994F88D0222
:100AE00001F1010ECDF81CE00870079994F862023C
:100AF00001F1010ECDF81CE00870D97A079B581C53
:100B000007901970079B591C07911A70D4F89032FE
:100B1000A3E094F894320DF15A0103F0020313702C
:100B200094F895320791537007A8D4F898120AF0F8
:100B300086FD07A8D4F89C120AF081FD07A8B4F836
:100B4000A0120AF090FD07A8B4F8A2120AF08BFDDB
:100B500007A8B4F8A4127AE207A8B4F8A6120AF01B
:100B600082FDB4F8A81207A80AF07DFD94F8AA3215
:100B7000079A03F00103511C1BE115F8013C0A958B
:100B800023B9D4F8AC12D4F8B0B208E0102B19BFD6
:100B90004FF0000B5946D4F8B412D4F8B8B20DF1A6
:100BA00059001370079007A80AF049FD07A8594695
:100BB0000AF045FD07A8D4F8BC120AF040FD07A8CA
:100BC00000210AF050FD07A800210AF04CFD079B08
:100BD0005A1C07920022C9E0BC0700203096010889
:100BE000E835002094F8C0320DF1590113700791D7
:100BF00000239BF8C0229342BFF69DACB34A0799ED
:100C0000985C4C1C0794087002F11001585C07991D
:100C10004C1C0794087002F12001585C079930328F
:100C20004C1C07940870995C079A0133501C07907C
:100C30001170DEE70024A64B07A833F81410013426
:100C40000AF011FD042CF6D175E4D4F80C3307A892
:100C500059880AF008FDD4F80C3307A81988F6E182
:100C60009C4B07A819680AF0EAFC9B4B07A8196877
:100C70000AF0E5FC994B07A81968C3E107A8D4F866
:100C80001013BFE107A8B4F814130AF0ECFC07A88E
:100C9000B4F816130AF0E7FC07A8B4F81813D6E165
:100CA00007A8B4F81A130AF0DEFC07A8B4F81C135E
:100CB0000AF0D9FC07A8B4F81E130AF0D4FC07A860
:100CC000B4F82013C3E194F845320DF15B011370C1
:100CD00094F844320791537094F8463207A8937001
:100CE000B4F848120AF0BFFC94F84A223BE094F8AA
:100CF00030315CE07A4C0DF15901237A0791137081
:100D000007A8A18A0AF0AFFC07A8218A0AF0ABFC69
:100D100007A8618A0AF0A7FC079BA27A591C0791D1
:100D20001A7007A8E18A0AF09EFC07A8218B8EE1C1
:100D300094F884320DF15A01137094F885320791BA
:100D4000537007A8B4F886120AF08DFC079B94F83C
:100D50008822591C07911A7007A8B4F889120AF062
:100D600082FC94F88B22079B591C07911A70FFF79D
:100D7000E2BB00245B4B1B789C42BFF6DCAB5A4BBA
:100D8000079A13F81410501C079003EB44031170DA
:100D9000597807A801EB810101EB810101F2EE21F5
:100DA00089B20AF060FC0134E4E74D4BDB7A0DF1C7
:100DB0005901079118E10023494A995C079A0133C8
:100DC000501C082B07901170F6D1FFF7B4BB474CAD
:100DD00004F1280B14F8032C00234549C95C8A420E
:100DE00000F064860C333C2BF7D108345C45F1D11C
:100DF000FFF7A1BB0024DFF80CB107A83BF80410F3
:100E00000AF031FCA344079B9BF80220591C079170
:100E10001A70079B9BF803200434591C402C07913F
:100E20001A70E8D1FFF787BB0024324B07A853F8AC
:100E3000241001340AF003FC202CF6D1FFF77BBB11
:100E400000222D4B062101FB023100230798441C90
:100E5000079402700798441C079403700798CC5CB1
:100E6000013300F1010E062BCDF81CE00470EDD12A
:100E70000132062AE5D10023079A511C0791062169
:100E80001170079A511C079113701C4A995C079ABC
:100E90000133501C0B2B07901170EDD1FFF74BBBAA
:100EA00005F09CFA079B40F002005A1C144C079274
:100EB0001870218807A80AF0C2FBE16807A80AF0A9
:100EC000BEFB09F053FA014607A89BE07D0A00200B
:100ED000BE0A0020E8F7FF1FECF7FF1FF0F7FF1F27
:100EE000E835002008360020DE0A00201D360020EC
:100EF000040B0020400B0020C00B0020E40B00205E
:100F000000000020840800200AA80AF06DFB834638
:100F100007A859460AF093FB0799089CBB4B641A33
:100F2000802CDB68A8BF80240BEB04029A4288BFA8
:100F3000CBEB0304039109F067F958460399224665
:100F400005F080FA079B18440790FFF7F4BA0023D6
:100F500017A91370537093700791D370FFF7EBBA12
:100F600000240DF15B0307A821461470547094709F
:100F700007930AF064FB07A8214643E094F8333452
:100F80000DF15A01033B18BF01231370B4F84C3222
:100F90000791FF2BA8BFFF23537094F84A3204EB4C
:100FA000C30BDBF8541281F3100107A889B24EE09D
:100FB0000024DFF878B20A2354F80B1007A859432D
:100FC00081F3100189B2A3440AF04DFB083407A84D
:100FD000DBF804100AF033FB102CEAD1FFF7ABBAB0
:100FE0000DF15903079300231370FFF7A4BA07A864
:100FF00087490B220AF019FB07A800210AF01FFB02
:1010000007A800210AF01BFBFFF795BA07A8B4F860
:1010100034140AF028FB07A8B4F836140AF023FBAE
:1010200007A8B4F8381412E0D4F83C340DF1590094
:1010300019780790117059780DF15A000790517086
:1010400099780DF15B009170D988079007A80AF094
:101050000AFBFFF770BA94F84034137094F84134E7
:10106000537094F842340DF15B0107919370FFF7D0
:1010700062BA68480021C022002418F0CCF9234647
:1010800065489BF80625654994423DDA427AD207C5
:1010900037D5027A01EB4202B2F91822002A30DD7C
:1010A000D0F80CC01A0101EB020EDCF80410BCF8F9
:1010B00008C0CEF84414AEF84AC44FF0000E012127
:1010C00001FA0EF111EA0C0101D0714604E00EF1B3
:1010D000010EBEF1100FF2D15A444FF0020E82F809
:1010E0004FE44FF0480EA2F84CC482F84EE4A2F848
:1010F000481402F24C41D2F84C2401334A601022C9
:101100008A7101340830BCE7DBB20DF15902079255
:1011100081F87C358DF85830414A00F075BC414B60
:101120001B785B073FF507AA15F8010C0A9510F02C
:1011300009FAFFF700BA0AA80AF06CFAA4F87E05CB
:10114000FFF7F9B9C3F3470BBBF1120F00F26E843E
:1011500000235B4509D20AA803930AF05BFA039BBC
:101160000DAA22F813000133F3E7594600225A452D
:1011700007DA0DAB33F812002B4B23F812000132C3
:10118000F5E7122905D0284B002223F81120013160
:10119000F7E7012384F8A43500F04ABC0AA8D4F884
:1011A0000CB30AF037FAABF80200D4F80C431FE195
:1011B00015F8013C0A9684F8653216F8013C84F86B
:1011C0006432FFF7B8B9D4F86C3215F8010C0A95FF
:1011D00098770FF0DBFDFFF7AEB9D4F86C22531E01
:1011E00002F109000A9A511C0A91114611F8024BAA
:1011F00003F8014F0A9151788342997202F1030179
:101200000A9192781A75EDD1FFF795B90000002088
:101210008CB50108000C0020C00C0020BC07002089
:101220007D0C0108FA3900203C0D00200C0A00203A
:1012300015F8011C0A95132900F3F883D4F870E21D
:1012400016F8010C0A960023DFF8ECC4DA000CEB68
:10125000020B9BF841B083451BD1624492F84030A9
:101260000EEB81000EF821300A9B5A1C0A921B7863
:1012700043700A9B5A1C0A921B7883700A9B5A1C63
:101280000A921B78C370D4F870020DF029FBFFF7A7
:1012900052B901331D2BD7D1C8E315F8012C0A959B
:1012A0000B2A00F3C38316F8010CD4F87412042837
:1012B0000A9600F3BB8306235A438B18587168784B
:1012C0000A9788540A9A511C0A9112785A700A9AFD
:1012D000511C0A9112789A700A9A511C0A9112783C
:1012E000DA700A9A511C0A9112781A71FFF723B921
:1012F000092B40F39B83D4F8684215F8012C0A951A
:1013000022700A9A04F1030C511C0A9112780021F0
:1013100062700A9A022902F1010ECDF828E01078D5
:101320000CBF4FF0FF0B4FF0640B584528BF5846D9
:10133000013103290CF8010FEBD1911C0A9151786E
:101340000332642928BF64210A92E1719EF80120CA
:101350000AA8A2700A9A0393511C0A911278E270AB
:101360000AF058F9039B60810A2B3FF4E4A80A9B1A
:101370005A1C0A921B782372FFF7DDB80AA80AF0FC
:1013800049F96FF4AF6E00EB0E03DFF8B0B3C62B74
:1013900098BFABF810000AA80AF03CF9A4F878024C
:1013A0000AA80AF037F9A4F87A020AA80AF032F972
:1013B000A4F87C020AA80AF02DF90A9BA4F8860278
:1013C0005A1C0A921A4612F8031B0A929A7884F859
:1013D0008C1284F88D221A1D0A92DA78063384F86A
:1013E000622213F8022CD4F890428BF80B200A9357
:1013F0000AA80AF00FF92080FFF79DB800240AA878
:101400000AF008F9C74B23F814000134082CF6D170
:10141000FFF791B80D2B40F0098315F801BC0A9530
:10142000BBF1070F00F20283D4F8A4310AA803939A
:101430000AF0F0F80C2202FB0BFB039B23F80B00D5
:10144000D4F8A4310AA803930AF0E4F8039B5B44A0
:101450005880D4F8A4310AA803930AF0DBF8039B60
:10146000D4F8A4215B4498800A9B93441A46591CE3
:101470000A9112F8021B0AA88BF806100A925B78F0
:101480008BF807300AF0B0F8CBF80800FFF753B834
:1014900015F8013C0A950F2B00F3C88216F8012CB1
:1014A000C3EBC3039B448BF8A8216A788BF8A9216E
:1014B000AA788BF8AA21EA788BF8AB212A798BF8E5
:1014C000AC216A798BF8AD21EA1D0A92AA798BF8D2
:1014D000AE210EF0DBFEFFF72EB80AA80AF09AF84C
:1014E000A4F834040AA80AF095F8A4F836040AA867
:1014F0000AF090F8A4F83804FFF71DB8D4F83C447B
:1015000015F8013C0A9523700A9B0AA85A1C0A92F6
:101510001B7863700A9B5A1C0A921B78A3700AF00E
:1015200079F8E080FFF707B87F480AF03FFCFFF743
:1015300002B815F8013C0A9784F8403416F8013CCB
:1015400084F841346B7884F84234FEF7F4BF082302
:10155000079A013B511C079113F0FF034FF0000164
:101560001170F5D1FEF7E7BF704B1B785C073EF5B5
:10157000E2AF0DF0B1F81CE06C4B1B7858073EF55C
:10158000DAAF4FF4C873A4F8BE35FEF7D4BF674B8B
:101590001B7859073EF5CFAF94F8943243F004031B
:1015A00084F89432FEF7C7BF604B1B785A0700F1EE
:1015B0003D820FF0D5FE0DF0A9F9FEF7BCBF08F093
:1015C000E9FEFEF7B8BF15F8013C23B194F8943258
:1015D00043F0020303E094F8943223F0020384F80A
:1015E000943216F8013C0AA884F895320A9609F05C
:1015F000FBFFC4F898020AA809F0F6FFC4F89C02A1
:101600000AA80AF007F8A4F8A0020AA80AF002F84B
:1016100094F8AA32A4F8A20243F0020384F8AA3292
:10162000FEF789BF15F801CC0AA8CDF814C00A95B9
:1016300009F0DAFF04900AA809F0D6FF03900AA87F
:1016400009F0D2FF83460AA809F0E4FF0AA809F0CE
:10165000E1FF0A9BDDF814C001330A93039A049951
:10166000BCF1000F15D11020C4F8AC12C4F8B022A0
:101670000FF0FEFD94F8943243F0010384F89432A5
:10168000BBF1000F3EF457AF294BC3F8BCB2FEF7D5
:1016900052BFBCF1100F7EF44EAFC4F8B412C4F8C0
:1016A000B822BBF1000F02D0214BC3F8BCB22148D5
:1016B0000223011D84F8C03508F01AFCFEF73BBF79
:1016C00000230AA8C4F8103309F08EFFD4F81033B1
:1016D0001843C4F81003FEF72EBF0AA809F09AFFBA
:1016E000A4F814030AA809F095FFA4F816030AA8A1
:1016F00009F090FFA4F81803FEF71DBF15F8013C90
:101700000A95002B40F0928116F8013C84F82C31A8
:101710006B7884F82D31EB1C0A93AB7884F82E316A
:10172000FEF709BF620D002048D30108FA390020F6
:10173000BC070020700A002024960108E83500202C
:1017400015F8014C0A95012C00F370810AA809F0E4
:1017500061FF0BEB840BABF81A030AA809F05AFFE0
:10176000ABF81C03FEF7E7BE15F8013C0AA884F8A5
:10177000453216F8013C0A9784F844326B7884F8B5
:10178000463209F047FF0A9BA4F848025A1C0A9205
:101790001B7884F84A32FEF7CEBE15F8013C0A9554
:1017A00084F83031FEF7C7BE994C15F8013C0AA801
:1017B00023720A9509F02EFFA0820AA809F02AFFD9
:1017C00020820AA809F026FF0A9B60825A1C0A920E
:1017D0001B78A3720B9B9B1A012B7EF7ACAE0AA859
:1017E00009F018FFE0820AA809F014FF2083FEF731
:1017F000A2BE15F8013C0AA884F8843216F8013C10
:101800000A9684F8853209F005FF0A9BA4F886023F
:101810005A1C0A921B780AA884F8883209F0FAFE4A
:101820000A9BA4F889025A1C0A921B7884F88B320E
:10183000FEF781BE15F8014C0A95112C00F3F680D5
:1018400016F8012C64000BEB040383F822230AA88A
:101850000A9609F0DFFE40F2ED23984205DD40F6DE
:10186000CA039842A8BF184601E040F2EE20A0F259
:10187000EE20192390FBF3F0A3448BF82303FEF72B
:101880005ABE15F8012C624B0A95DA72FEF753BE68
:1018900000230A9A511C0A9111785D4A9954013328
:1018A000082BF6D1FEF747BE5A4B1B785B073EF577
:1018B00042AE15F901BC0A9558460EF0D3FE08B1A8
:1018C000436873B9032300220093019258464FF4F2
:1018D00000614FF4E1330FF076F8C4F8C40510B995
:1018E000A4E0C4F8C4354C4A8EE0072293FBF2F220
:1018F000C2EBC202934240F099800A9A0B9B9B1A5A
:10190000062B7EF718AE531C0A9312780023434C23
:1019100004EBC304A1788A4207D1A2700AA809F097
:1019200079FE631DA080093403E00133052BEED15D
:101930007CE00A9A511C0A91127803F8012FA34205
:10194000F7D1DAE722F824000134102C8BF802E0FA
:101950008BF803300BF1040B3EF4EDAD0B9B0A9AB0
:101960009B1A032B7EF7E7AD0AA809F053FE0A9BEA
:10197000B0F5B47F03F101020A921A4612F802EBA5
:101980004FEA84010A925B78254ADBDB002350187A
:10199000535243804AE0052B0A9515F8014C45D176
:1019A0001F2C43DC0AA809F01FFE0BEB840BCBF8BD
:1019B000840310F043FEFEF7BEBD2046631C0A936D
:1019C00010F802EBE21C0A9063780A92A0780F28C4
:1019D0002CD8BEF1050F0DD8052B27D8062202FB07
:1019E0000EB2134483F804040A9C0B1B022BE4DCA4
:1019F000FEF7A1BDBEF1060F18D10A2B16D85B4425
:101A000083F82804F0E7074A074B1A60FEF793BDF6
:101A1000E8350020FA3900206D0C01081836002046
:101A20008408002041130108D03900204FF0FF3313
:101A3000ADF82630079B4846089307A916AB0793D5
:101A40000FF09CF8002305F8053C264C23681BB1D9
:101A5000484698470023236015F8053CE3B955F83C
:101A6000093CCBB1BAF1000F16D156AA0E924FF62F
:101A7000FF7216AC0D94ADF83C20ADF83EA00DA859
:101A8000984730B10D9B48460DA90E930D940FF069
:101A900075F8002345F8093C503650355037B8F1F9
:101AA000000F1BD14FF00108FEF73ABB079B07A8B8
:101AB000591C07911A7034F8011C09F0D4FD224614
:101AC0000023079912F8010F013301F1010E042BD5
:101AD000CDF81CE00870F4D1FFF787B957B0BDE826
:101AE000F08F00BFD03900202DE9F04F8BB007F008
:101AF00027FDC14B1E78002E41F0C482BF4D2B68DC
:101B00005C0541F1BF82BE4BBE4C1B68DFF83883D9
:101B1000DF882378002B00F0F481D8F80020636878
:101B2000D31A7C2B40F2ED81237A62600133237259
:101B300006F12400C0B207F0B7FCB34B53F82600FF
:101B40004FF47A735843B14B01361B8990FBF3F085
:101B500000B207F097FC032EEAD1302007F0A4FC76
:101B6000AB4BDFF8A092B3F9000007F08BFC07F055
:101B700093FC237A980733D141F28833D9F80420B3
:101B80009A421AD9102007F08FFCD9F80C0064266D
:101B900090FBF6F000B207F075FC212007F084FC02
:101BA000D9F80C0090FBF6F306FB130383EAE3700D
:101BB000A0EBE37000B207F065FC142007F074FCA2
:101BC000944BB3F904000A2390FBF3F007F05AFC9E
:101BD0001C2007F069FC002007F054FC07F05CFCB7
:101BE000237A590740F06881022007F05DFC854B9D
:101BF0004FF0050918696423323090FBF3F000B20E
:101C000007F040FC844B0320B3F9066007F04CFC5E
:101C100096FBF9F6814BB6B21B785A070AD53846BF
:101C20000FF0BAFE20B92B6813F0100F18BF002672
:101C300030B204E07A4B9888B0FBF9F000B207F0BC
:101C400021FC2B689B0773D5A37DDFF8B891754FF6
:101C500033B3DFF8F8A13A889AF80010642303FB45
:101C600002124B00B2FBF3F3B9F8186006203601FC
:101C7000B6B246EA0326B6B2C3F303231E4307F007
:101C800013FC30B207F0FEFBB9F818309AF80010D8
:101C900001339BB293FBF1F201FB1233A9F8183028
:101CA00094F82630012B05D1392007F0FDFBB7F958
:101CB00000001BE03E886E235E43152796FBF7F677
:101CC0003A20B7B24FF0640907F0EEFBB7FBF9F624
:101CD00030B209FB167607F0D5FB3B2007F0E4FB9A
:101CE000B0B2461D0A2096FBF0F000B24C4F07F050
:101CF000C9FB4D4E97F80690282007F0D5FB56F803
:101D000039300A2093FBF0F000B207F0BBFB04204F
:101D100007F0CAFBBB8813B109F0EAF905E0BB790B
:101D200006EBC306706880F3100000B207F0AAFB50
:101D30003E4B1B689F0640F1B4803D4F3B789E07A9
:101D40001FD5DFF80C91112007F0AEFBB9F80000A9
:101D50004FF4F3667043374B90FBF3F000B207F09B
:101D600091FB192007F0A0FBB9F80000464364205E
:101D700096FBF0F696FBF0F300FB136000B207F061
:101D800081FB2D4B01201E883B7813F0020F08BF0A
:101D9000002607F089FB30B207F074FB092007F03A
:101DA00083FB002007F06EFB244B1E78244B1A881F
:101DB000B2F5967F09D9237A03F00F03072B04D8D5
:101DC00042F20F76964228BF1646052007F06CFBBC
:101DD00094F825300BB930B244E0A6F1200013F09E
:101DE000B7F9184913F0BCFA0021064613F0A2FB1C
:101DF00080BB4FF07C512FE0F8390020C035002027
:101E0000F80B0020441100202C090020200900209C
:101E1000F8090020EC09002024300020FA390020C5
:101E2000000A0020080A00200C0A002000090020F7
:101E3000500A0020A08601005C0A0020510A002000
:101E4000100000206666E63F70330020A8010020E5
:101E50005E0A00204FF03F41304613F0C5F813F002
:101E600091FB00B207F00EFB3B78980704D494F87E
:101E70002830C44E012B04D1012384F82830C248F5
:101E800016E0C249F06913F0B7F913F07BFBBF49C4
:101E90000290306A13F0B0F913F074FB039002A8BB
:101EA00006E0BB4A02AB92E8030083E80300184651
:101EB00007F00AFB07F0F0FA237A282B21D1B14B67
:101EC0000022D8F800001A724FF47A73B0FBF3F7CF
:101ED0004FF03C09172007F0E7FAB7FBF9F6B6FB1D
:101EE000F9F009FB1060000200B207F0CBFA1820ED
:101EF00007F0DAFA09FB167000B207F0C3FA07F030
:101F0000CBFA94F829309F4E002B00F076810EF02A
:101F10002CFBF36A9F4AC31A9342074640F2C980DA
:101F2000002386F8323086F834309B4B96F86010E8
:101F30001B88DAB21B0A86F84E2086F84F3086F8E6
:101F4000442086F84530F26DD8F800309A1A4FF4E4
:101F50007A734B439A420DD3904B1B68F365904BB9
:101F60001B78013B012B9FBF102386F832300223E0
:101F700086F834308B4B8C499B790A2051F83320FA
:101F800001EBC3014B6892FBF0F293FBF0F384F892
:101F90004C20121284F84D2084F85030834A1B12D2
:101FA00084F85130824B12781B789107754E84F873
:101FB0007B3003D42D2386F87C3079E0042B8CBF52
:101FC0003323322386F87C306F4B7A4AD3F800A053
:101FD00058689AFBF2FB784B4FF0060903FB0BA6FF
:101FE00009FB06F675494FF0640896FBF1FE01FB0C
:101FF0001E6696FBF8F684F86D60361284F86E6003
:1020000090FBF2F603FB060309FB03F393FBF1F2EB
:1020100001FB123393FBF8F351B206EB860202EB9D
:10202000820201EB820284F872301B1292B284F8B1
:102030007330634B84F87020120A84F871201A8878
:10204000242353434FF47A7293FBF2F384F86830FD
:10205000C3F3072384F869305A4B0BEB8B0B1B88B7
:102060004FFA8EFC84F874301B0A84F87530564B96
:102070000BEB8B0B1B880CEB8B0E03F5FA739BB2EF
:1020800084F876301B0A84F87730504B1FFA8EFEA6
:102090001B884FEADA7A84F86BE0C00F4FEA1E2EF5
:1020A00084F86AA084F86CE084F86F0084F87D30CE
:1020B000E76294F88D90334EB9F1000F0FD1D6F846
:1020C00094000EF037FD012809D90228DFF80081BD
:1020D00000F02D8707F0C8F9012388F80230D4F802
:1020E0009860284B002E00F0888093F88D203AB13C
:1020F00040F6B731D3F8A020BA1A8A4216D87CE04D
:10210000012283F88D20D3F8A420D3F8940012780C
:10211000022A04D80430022107F090F902E00221DB
:102120000EF04EFC002384F8A83064E093F89C2065
:10213000AAB9C3F8982083F88D20D3F8A420D3F847
:1021400094001278022A04D80430012107F076F9AD
:1021500002E001210EF034FC07F086F94BE0013A71
:10216000D2B283F89C2093F8A81093F8A9008ABBF8
:1021700001304A1C83F8A90083F8A820D3F8940002
:1021800037E000BF44110020540A00208096184B0D
:10219000549701083F0D0300080A00207033002007
:1021A000EF0B0020000A00200C0A0020500A00203B
:1021B000510A002080969800806967FF40420F0016
:1021C0005E0A0020620A00205C0A0020640A0020E7
:1021D00010000020324612F801EB01300EEB010630
:1021E000714683F8A900D3F8940083F8A860C3F877
:1021F00098200EF0A2FCC4F8A070BC4E94F8AA205F
:102200003768BB4B002A00F01882D3F8AC20002AB4
:1022100000F0138293F8B030013B012B00F20D82E5
:10222000D4F8AC00DFF8C8820EF084FCE0B1D8F836
:10223000AC000EF07CFC98F8B13081467E2BD6F8CD
:1022400000A00ED102231B2888F8B03009D1D8F89D
:10225000AC000EF06FFC20B90123C8F8B4A088F8D8
:10226000B83084F8B190DBE7D8F8B42033689B1A13
:1022700041F6583293421FD9032388F8B030DCE18D
:102280009C4A32F8130010B903464FF4036001333F
:10229000B0F5C06FDBB200F0C7801ED9B0F5006F9B
:1022A00000F0CF8034D9B0F5036F41D184F8B93054
:1022B000914B1B689B064AD494F8B81094F8B93037
:1022C000002900F0B8813268D21B012AD8D984F8DD
:1022D000B930002384F8B830AFE1B0F5047F41D0C5
:1022E0000AD8B0F5887F00F0DE80B0F5007F7BD0A3
:1022F000B0F5807FE4D186E0B0F5806F00F0148106
:10230000B0F5826F00F04781B0F5407FD8D132E060
:10231000B0F5E26F00F0D980B0F5E46F00F0DA803C
:10232000B0F5E06FCCD184F8B930744B1968D5E0C2
:1023300004D8B0F5026F00F05881C1E7B0F5046F22
:1023400000F0BB80B0F5116F00F06081B8E76C4B16
:102350001B789907B0D56B4B19884FF4F3634B4347
:1023600064215FE184F8B9302B689A07A4D5664BE5
:102370000A211B8848E184F8B9302B68DFF87081A6
:102380009B0799D598F81630002B95D05E4BDFF857
:1023900094911B8899F8002003EB830303EB8303DC
:1023A00002EB830351009BB293FBF1F398F8BA1050
:1023B00002F00F02C3F30B0342EA031301F00F0113
:1023C00041EA031107F006F8002388F8B83098F8BE
:1023D000BA3099F800100133DBB2B3FBF1F201FB24
:1023E000123388F8BA3067E784F8B9302B681905DA
:1023F0007FF562AF454B9A79454B53F832100A236B
:1024000091FBF3F110E184F8B9303B4BDFF8E08049
:102410001B685A077FF550AFD8F80C1006F0DAFFAA
:10242000002388F8B83047E784F8B9302B681B05DB
:102430007FF542AF354B9A79354B03EBC2035968B0
:10244000F2E02D4A84F8B930126891067FF534AF76
:102450002B4A127892077FF52FAF13F0010F2D4B07
:1024600010D05A68192182EAE273A3EBE27303EBFE
:102470005303B3FBF1F3002A43F0004110DA43F0B9
:1024800040410DE01B68192283EAE371A1EBE3717F
:1024900001EB5101B1FBF2F1002BB8BF41F08041DB
:1024A0004FF4006090E084F8B930134B1B685B0771
:1024B0007FF502AF184B1968B6E084F8B930174BB6
:1024C0000A21B3F9043059437EE084F8B9300B4B4C
:1024D000596803E084F8B930084B996864234B438A
:1024E0000F4A118993FBF1F16EE000BF70330020B9
:1024F000441100207AB60108000900202C090020B0
:10250000500A00205E0A0020080A0020000A00206D
:102510000C0A0020540A0020F8090020EC090020D1
:1025200020090020A801002084F8B930904B42F225
:1025300011711A7842F2107312F0010F08BF194698
:10254000900748BF023153078A4B48BF04311B88AC
:10255000D80748BF0A319A0748BF143113F4106FE7
:1025600018BF2831580748BF64311A0748BFC8311F
:10257000980548BF01F5C8719A0648BF01F57A7100
:10258000D80648BF01F5FA615A0648BF01F57A61DD
:102590004FF4806018E084F8B930774B1B6813F073
:1025A000200817D0754B1A7812F0020F14BF4FF4A1
:1025B0007A71002112F0010F714A14BF4FF4FA63CF
:1025C00000230B441178194406F004FF002384F81B
:1025D000B83071E62B681B067FF56EAE414606F0FB
:1025E000F9FE684B83F8B88066E684F8B930624B30
:1025F0001B6899067FF560AE604B1B789A077FF5E4
:102600005BAE614B64211B8859430DE084F8B930FF
:102610002B689B077FF550AE5C4B5D4A19880A23F7
:102620004B43117893FBF1F106F0D4FE554B002299
:1026300083F8B82040E684F8B93094F8BB30DFF86E
:102640004481002B00F00D81D8F8BC30002B00F045
:1026500008813768D8F8C030FB1A632B40F201813B
:10266000DFF838A1412006F09DFEBAF902004FF0D4
:102670000A0990FBF9F080B206F08BFEBAF900006F
:1026800090FBF9F080B206F084FEBAF9040090FBEA
:10269000F9F080B206F07DFE06F050FE98F8C48096
:1026A00018F0010842D0344B1A689B4612F0200FF4
:1026B00000F0AA80314BDFF8C8901B7813F0020FAE
:1026C00008D099F80030052B34BF4FF002084FF0C6
:1026D000030801E04FF00108DFF8C4A0472006F02E
:1026E00061FEDAF8000006F043FEDAF8040006F0B6
:1026F0003FFE284B4FF0640A1888B0FBFAF0C0B2D6
:1027000006F026FEDBF8003013F0140F0BBF1E4B53
:10271000214B1888186808BF0AFB00F006F028FE55
:1027200099F8000048EA8000C0B269E0114B1B88AC
:10273000D90539D4DA060FD4980610D4590611D425
:102740001A0712D4D8072DD413F0020F14BF4FF07C
:1027500003084FF0010827E04FF00D0824E04FF088
:10276000090821E04FF004081EE04FF008081BE0C4
:10277000FA3900200409002000090020500A002036
:10278000510A0020441100205C0A0020080A0020A1
:10279000A80100205E0A0020F4090020EC090020B6
:1027A000540A00204FF00208C24B93F80090C24B2D
:1027B000C9F38009DB781BB149F002095FFA89F996
:1027C000532006F0EFFDBD4B188800EB800000EBB6
:1027D0008000800080B206F0DCFD002006F0D9FD0C
:1027E000B74B1888FE23584340F2FF3390FBF3F0B9
:1027F000C0B206F0ADFD002006F0AAFD49EA88004F
:1028000006F0A6FD06F09AFD94F8C480B8F1000F1A
:102810001AD1DFF8D8924F2006F0C4FDD9F8000095
:1028200006F0A6FDD9F8040006F0A2FD404606F029
:102830009FFD012006F08CFDA24B187800F00100EE
:1028400006F086FD06F07AFD94F8C4300A210133C3
:10285000DBB2B3FBF1F201FB1233C4F8C07084F8B1
:10286000C43094F8C530002B00F02B83964B1B68C6
:10287000002B00F026830DF078FE44F61F62934B88
:102880000746D3F8C830C31A934240F21A83022095
:1028900006F02AFD002800F0878048F603418C4BA3
:1028A000D5F800C01A6849F6074312F0080F08BFB0
:1028B0000B46510744BF43F4005343F0080390060E
:1028C00048BF43F48043834848BF43F020031CF0D3
:1028D00002028179054616BF784810460088C3F386
:1028E000090E1FBF00EB800000EB8000800080B26B
:1028F0001CF4006F16BFDFF8F8C14FF6FF783CF804
:102900003180CAB1744A95F801A092F800C06B4AB0
:1029100011882A780CFB1A19CAEB0202642101FB08
:1029200009F10CFB02F2B1FBF2F2642AA8BF6422A7
:1029300022EAE272D2B200E06422029303930023FF
:10294000ADF81430ADF81A30ADF81C30ADF81E30CB
:10295000ADF82030ADF82230ADF824305F4BCDF823
:1029600010E08DF82620ADF81600ADF8188002AA08
:102970000DF1200E154603CD7545186059602A46A5
:1029800003F10803F6D128681860A988AA7999800C
:102990009A71534B01227C211F20DA710EF0A4FFA3
:1029A0000EF08AFF0EF076FF032006F09DFC002853
:1029B00063D04C4BD6F800A01B78002B00F0F882B7
:1029C000494A012BB2F800E040F2F382022B55880D
:1029D00000F0F082032BB2F804C000F0ED82042B6B
:1029E000D08800F0EA82052BB2F8088000F0E78278
:1029F000062BB2F80A9000F0E482072B918914BFED
:102A0000D289002240F2FF3B2D4BADF81A201B88E3
:102A10000022C3EB032393FBFBF38DF81D302F4BF8
:102A2000ADF80CE08DF81C20CDF808A0ADF80E50E4
:102A3000ADF810C0ADF81200ADF81480ADF81690E6
:102A4000ADF8181002AA0DF1180E154603CD754504
:102A5000186059602A4603F10803F6D12868F4216A
:102A60001860AA8816209A801D4B2322DA710EF076
:102A70003BFF0EF021FF0EF00DFF062006F034FCA8
:102A8000002800F0EB80124B1A689A4612F0200FD3
:102A900000F0E4800B4BDFF85CB01B7813F0020F02
:102AA0002AD09BF80030052B34BF4FF002084FF0BE
:102AB000030823E0FA390020DC1E0020080A002069
:102AC0001C0A0020500A002074330020441100200A
:102AD00000090020000A0020A801002087340020FF
:102AE0007F34002008360020C4350020680A00200A
:102AF0000C0A0020510A00204FF001080DF035FDAE
:102B00009E494FF47A7E0B889D4D0EFB03F2069290
:102B10004FF6FF72029000209BF800B00390ADF8D2
:102B20001C202868ADF81E20964A0DF1080E04906E
:102B30008DF8248068688DF825B08946AB46F0464C
:102B40001546914B0590B3F800C0904BADF820C0EE
:102B50001B880DF1200C03EB83035B00ADF82230E2
:102B6000734603CB6345106051609E4602F1080234
:102B7000F6D11868182110609B881E209380844B22
:102B8000D97101930EF0B0FE0EF096FE0EF082FEAB
:102B90000DF0EBFCB9F800E04FF47A7C0CFB0EFE74
:102BA000DAF800C0019B1CF0140F99461EBF794B48
:102BB0004FF00A0C1B684FF00A0A18BF0CFB03FC0D
:102BC000754B08BFF446B3F90430CDF814E093FB1D
:102BD000FAF3C646DBF80020DBF804100392ADF8E8
:102BE00022300022674BCDF818C002900491ADF856
:102BF0001C20ADF81E20ADF820200DF1200C7246EF
:102C000003CA624518605960964603F10803F6D17D
:102C100010686821186021231C2089F807300EF005
:102C200063FE0EF049FE0EF035FE5C4B5A681B68E1
:102C30000392029300230493434603CBC9F8080090
:102C40001868696031232721A8600C2089F80730B3
:102C50000EF04AFE0EF030FE0EF01CFE0A2006F0CA
:102C600043FB002846D04C4DD6F80090B5F9000043
:102C700012F06EFA4A4912F073FB4A4912F0BCFA9C
:102C80008046B5F90200404212F062FA444912F05F
:102C900067FB444912F0B0FA0646B5F9040012F099
:102CA00057FA3F4912F05CFB3E4912F0A5FA0023A7
:102CB000069307930893334B0496CDF80890CDF80C
:102CC0000C80059002AD08AE2A4603CAB2421860D5
:102CD0005960154603F10803F6D1106827211860E2
:102CE0002B4B1E221C20DA710EF0FEFD0EF0E4FDCF
:102CF0000EF0D0FD0B2006F0F7FA002800F0DF8080
:102D0000294B0025D3F8008018F020090BD01E4B6A
:102D1000188811F013FE0022244B11F09FFF12F0CF
:102D20000DF9064600E02E4618F0140F0AD0194B94
:102D3000186811F003FE00221C4B11F08FFF12F0F7
:102D4000FDF808E0B9F1000F04D00C4B188812F020
:102D5000FBF900E00020104B0A22B3F9043093FB8A
:102D6000F2F2134B92B2B3F90630B3F57A7F21DB5E
:102D7000B3F5FA6FA8BF4FF4FA631DE05C0A0020B8
:102D8000540A0020873400205E0A0020600A0020D8
:102D90007F340020F4090020EC090020680A00209C
:102DA0000000204135FA8E3C000900200000594007
:102DB000C43500204FF47A73ADF81820A3F57A7368
:102DC000642253434FF47A7293FBF2F3ADF81A3056
:102DD000AE4B02AA90469A4603960295049005953A
:102DE00006AE154603CDB542186059602A4603F178
:102DF0000803F6D12868A64E1860142001464A231D
:102E0000F3710EF071FD0EF057FD0EF043FDA14B76
:102E1000B1461D78A04B05F0040505F0FF02002D1A
:102E20000CBF4025C0251B78013BDBB2102B97BFA0
:102E30009A494FF0000B5B1893F808B0984B1B8829
:102E400099071ABF002645F01005012613F4027FEA
:102E500018BF022613F0100F18BF062613F0200F1C
:102E600018BF102632B18F4BDB78002B14BF052220
:102E7000042205E011F0A8FA002814BF0222032260
:102E800000238DF80F2003228DF80D308DF81020CF
:102E900002968DF80CB08DF80E50B8E803008AF851
:102EA0000820CAF80000CAF804100920322189F865
:102EB00007300EF019FD0EF0FFFC0EF0EBFCC4F82D
:102EC000C87094F8CC30002B00F0DC80D4F8D0002F
:102ED000754D0DF02FFE002800F0D480D5F8D000FD
:102EE0000DF025FE95F8D43006461BB1013B85F860
:102EF000D430EBE7032205F1D50005F1D60116F039
:102F00006FFA95F8D53095F8D62083F47F4383F097
:102F1000FF039B1A85F8D8609BB2B6B2B6EB132FAD
:102F2000D4D195F8D710DBB28B42CFD14CE098F8D2
:102F300002302BB1C6F8907088F80290FFF7CFB836
:102F4000D6F89030FB1AB3F57A6FFFF4C8A80123C6
:102F5000D6F8940088F802300DF0E9FD8046D6F8E6
:102F600094000DF0E4FD18F07F0F7FF4B8A88A28D4
:102F700003D08E280ED0FFF7B2B84C4B1B689A06D0
:102F80007FF5ADA896F88D30002B7FF4A8A806F148
:102F9000610306E096F88D30002B7FF4A0A806F1BF
:102FA0003003C6F898302D2386F89C30FFF797B889
:102FB0009E4600254FF0000C00204FF000084FF017
:102FC000000900210A461DE595F8D93002F00F00EE
:102FD00013B908B185F8D90094F8D930324D984228
:102FE000FFF474AFC31AD9B202293FF66FAF02F0F3
:102FF000F002802A09D160F07F0004238DF80900D7
:103000008DF8083002A8022112E0902A13D106227E
:103010008DF80820214A60F06F0013445B7E8DF824
:1030200009008DF80A3002238DF80B3002A8042124
:1030300006F01AF94AE7A02A7FF448AF174A13446A
:103040005B7E022B19D0032B0AD0012B7FF43EAFFD
:1030500029690A23053191FBF3F101F5C8710AE0F2
:10306000134B19880A23594395F8DA301BB1114BD9
:103070001B7891FBF3F189B201E00F4BD98806F080
:103080001FF923E700200BB0BDE8F08F8734002044
:103090007F340020FA390020EC0800205497010802
:1030A00004090020DC1E002044110020000900203B
:1030B000080A0020A8010020243000202DE9F04F4C
:1030C000A24CA34B227889B01E68994632B163683E
:1030D000F31A002BA2BF00232370237242F20103D4
:1030E0009C4D2A68134003B9637213072ED59A4B7F
:1030F0001B7A072B1AD8DFE803F00404070A0D1027
:10310000131607F0DFFA12E007F0BAFB0FE007F042
:103110005BFB0CE007F01AFB09E007F0B3F906E0EF
:1031200007F044FA03E007F001FA00E00020C707C7
:103130000CD501236372894BC0F34000187006F56B
:10314000C33380F00100A033207063602B68580403
:103150000ED507F055FCC1070AD5012363727F4ADB
:10316000237006F54333002103F5A07311706360EB
:103170002968CA070ED5A07AE27A744B824209D038
:1031800001221A72754A0027577006F5C332A03221
:103190005A60D8728B0409D50023714A32F8132083
:1031A000002A41F0D18001330C2BF6D1627AD9F894
:1031B00000302AB9654AD2689A1A002AC1F23081D1
:1031C00003F59C422032E260664A1778AFB1664947
:1031D00009688B4240F21581013F177011E1072EFB
:1031E00096BF5D4A3146B15C5B6860489847032EE4
:1031F0000AD904EB4606308201375C4BFEB21A78DE
:103200001946B242EBD81EE00028F2D0584A4FF4DB
:103210007A7332F8261002EB8602401A584353881C
:103220005B1A90FBF3F040F6C90300F57A70984200
:1032300005DC40F2EE239842B8BF184601E040F6A4
:10324000CA0080B2D5E742F201062B681E40B6FAEA
:1032500086F6484B76091A6826B9237A23703F4BC5
:103260005878187027781FB13C4B1F7887F00107FA
:103270000F2384F83430384B91F800A0B3F816B01F
:103280001B8B0321019394F83530DFF8F080B3FBFA
:10329000F1F101EB4101591AC9B2029100255545DE
:1032A00070DADFF8DCE03FB3AEF1700131F8150001
:1032B000584502D30199884222D95EF82500234956
:1032C000824203D22C4931F815001DE0E8B2049384
:1032D0000392059107F034FF032D039A049B13DC3E
:1032E00005994FF0010C91F834E00CFA05FC2EEA38
:1032F0000C0E81F834E007E0BBF1000FDDD1584639
:1033000002F596714EF82510CEB9029928F81100F1
:103310000E4991F8C8E0BEF1000F04D1022B0ED97E
:10332000012081F8C800B8F80010B8F8020008447D
:10333000B8F80410084480B20321B0FBF1F00E4944
:1033400008F1060821F815000135A8E72012002031
:1033500004200020C0350020E835002013000020A4
:10336000661E0020D81E0020D41E00200836002033
:10337000001F002070330020C435002056120020AA
:10338000A012002094F834209E49A2F10F0EDEF125
:10339000000242EB0E0284F8C9209B4B92B19B4A7B
:1033A0001268570103D59A4A1268D6050AD40A68EA
:1033B0009A60DB68D21AC82A1ED9934B012283F87F
:1033C000212019E0934A0120507010700A68996812
:1033D000DA605B68521A9A4282BF8B4B002283F8F4
:1033E00021200025554507DAE8B207F0A9FE8A4BEF
:1033F00023F815000135F5E794F83530013384F8EA
:103400003530834E3368DD0405D5804B1B68D80703
:1034100001D410F0CBFF814BD9F80070D87A9B46CD
:10342000B8B17D4A5B7B013832F810001BB1C0F5A2
:103430003B60083080B200B2A0F57A70B0F57A7FB8
:10344000A8BF4FF47A7020EAE07011F081FE744951
:1034500035E0336819043BD5D4F8CC30714DFB1AF4
:10346000002B35DB07F59C432033C5F8CC306E4B81
:1034700095F8D0105A7A6D4B013133F812309BF821
:103480000C209BB293FBF2F301F00F0285F8D020E1
:103490002A4482F8D1300346654A825C01301344E5
:1034A00010289BB2F8D11BB293FBF0F000B2642855
:1034B000A8BF642020EAE07011F04AFE5D4911F0D7
:1034C0004FFF5D4911F098FE12F082F85B4B1880B7
:1034D00033685B4D13F4807F00F02581594BDFF892
:1034E00028A19F4205D99AF8022012B901228AF830
:1034F00002209AF80220002A00F01581424A95F82D
:10350000008092F82170C8F380087A1E5742574114
:103510003E4A002F11680292C1F38063019314BFE9
:103520004FF000094FF003099AF82020052A00F215
:10353000F480DFE812F006004D006100AF00BE002D
:10354000DB00B8F1000F36D03F4A1268D0880EF089
:1035500023FA012809D12B4A3C491268B1F8051019
:10356000642000FB0122CAF81020019B53B1374AA6
:1035700012793AB10DF09CFE03228AF820204FF414
:103580007A7236E0002F40F0C8801E4ADAF8101038
:1035900010681D4A88420AD903920DF089FE039AE9
:1035A000032182F8201040F6B831D161BCE7012137
:1035B00082F82010B8E7019B4FF4806013B10DF042
:1035C00067FE01E00DF054FE0022CAF81020A4E0CE
:1035D000002F40F080801D4AD279012A02D00DF0E0
:1035E00067FEA1E70DF064FE03228AF8202040F672
:1035F000B832CAF81C2097E757B305228AF8202072
:10360000012026E070330020DC1E00200809002085
:10361000C035002013000020C4350020E83500200C
:1036200000007A4420120020B91E0020CA1E00208B
:10363000F11200200000C84200C07F441C0A002094
:10364000FA390020404B4C00F80B0020400A0020C3
:103650003846B8F1000F0ED0BBF81020A249A34B9A
:103660000A804A808A809A7893F803E04FF0020932
:1036700042EA0E22CA809E4A1168DAF8142091426A
:1036800002D8B8F1000F45D147F23052CAF81C20D9
:10369000032221E02A7842F002022A7010F086FE0E
:1036A000934ADAF81C1012680A44CAF81820042257
:1036B00012E08F4A9FB11168DAF8182091422CD994
:1036C0008C4A12781AB9029B1A68D30725D42A7833
:1036D00022F002022A7005228AF8202024E71268CC
:1036E000DAF81C100A44CAF8182016E0804A7F490C
:1036F0001268B1F80510642000FB01224FF48060CD
:10370000CAF8102000228AF820208AF803200DF041
:10371000AFFD09E700287FF407AFB9F1000F02D031
:1037200048460BF059FE744B1B68D8880EF034F9EC
:1037300081466D48BBF81030B0F9022003F10B014F
:10374000914201900BDB0B3B934208DCB0F9002067
:10375000914204DB9342CCBF0023012300E000230D
:10376000B9F1000F0FD1654A1268100111D5644AF2
:10377000D27872B92A7851070BD523B1614A1378F0
:1037800043F0200303E05F4A137823F02003137013
:103790000CE05D4A00235D48136053605C4A0021E1
:1037A0000360116043605160836091602B785A0719
:1037B00035D53368DB0632D5524B1B78DF062ED465
:1037C0004C4B1B7893B1534B9B78B9F1000F15D13B
:1037D0007BB1474B1A68D4F8E4309B1A002B08DA07
:1037E00010F0E4FD4C4B83F8E89018E0B9F1000FBD
:1037F0000DD110200BF0F0FD01230EE03BB13C4A4F
:103800004FF47A71126801FB0323C4F8E43094F892
:10381000E83023B10BF0C6FA002384F8E8303D4BC2
:10382000002293F8008059781346BBF81270BBF859
:1038300014E001989B0830F912000132B842C4BF6D
:1038400063F07F03DBB27045B8BF43F04003042A46
:10385000EFD194F8E92030489A4205D190F8EA2057
:10386000F92A04D8013200E0002280F8EA20214F32
:1038700084F8E9303B78E3B9204B1B68D80708D5BA
:10388000B9F1000F15D12B78D90712D510F040FDF2
:103890000FE02B785A070CD51F4B1B784BB1184BF8
:1038A000DB7833B911B110F081FD02E0B9F1000FFE
:1038B000F9D094F8EA30142B40F0A5803B7818F149
:1038C000000818BF4FF00108002B43D0124B93F8AB
:1038D000E9305F2B28D12B7803F0040303F0FF09B4
:1038E000E3B110F063FD1FE0C4350020400A002062
:1038F0007033002031000020F80B00200809002060
:10390000DC1E0020500A0020483000202C3000200F
:10391000243300201F0A0020201200200B200BF06F
:103920005BFDB14B83F8EA90B8F1000F12D094F828
:10393000E9307D2B0ED12B7803F0040303F0FF094F
:1039400013B110F033FD05E00B200BF045FDA64B45
:1039500083F8EA902B7803F0040303F0FF01002BB7
:1039600051D194F8E930A04A572B0FD14FF47A7314
:10397000A2F8EC3033681B0601D506F04FFB9B4BD9
:103980001B685F073FD50A22994B33E03068400738
:1039900017D55A2B15D192F8EE302BB1012382F8AE
:1039A000EE1082F8EF302EE092F8F03083F0010351
:1039B00082F8F0300BB10C2000E00D200BF00CFD74
:1039C00021E05D2B00F0CB845B2B00F0CA845E2BE2
:1039D00002D1032000F0C6BC562B01D10DF0C0FD72
:1039E0003B784BB994F8E930972B40F0CE84814B6B
:1039F0004FF4C8721A8006E094F8E9306F2B40F05B
:103A0000BB8410F085FC33685F0737D594F8F0303D
:103A10007549794A93B12B7858070FD5019BB3F9B3
:103A20000600BBF81230984208DD136813F001035A
:103A300002BF3220A1F8F20081F8F0301368D903F8
:103A40000DD594F8F420684B2AB993F8EE2012B9FA
:103A50003222A3F8F220012384F8F4300EE094F827
:103A6000EE30614A53B12B7803F0040303F0FF01F9
:103A700023B9012382F8EE1082F8EF305F4B4FF04C
:103A800000091B689F1C03F152083A787B7817F8ED
:103A9000010C9A4209D239460AF0FEFE28B117F805
:103AA000022C0123934049EA030904374745ECD12E
:103AB000514BC3F80090524B1B784BB14E4CDFF882
:103AC0002C9123684F4F13F0020F40F0D481CCE1CA
:103AD0004D4B1F6807F148087A78BB7838789A42CE
:103AE00029D2791C0AF0D8FE28B378790C214143F9
:103AF000DFF820E10EEB01039A68BA421BD09F6009
:103B00003A790EF8012000215960FA785A70FA7853
:103B10000C2A4FF0010204BF9A700322DA70324A75
:103B200018BF997092F8F5200123834022EA03031D
:103B30002D4A82F8F53006374745CDD1334BDFF8B3
:103B4000D880D3F800A0324B4FF000091B680293D5
:103B50002378039398F80070002F00F07D81D8F847
:103B60000330029AD31A002B0DDB1F4902F5FA73BA
:103B7000C8F8033091F8F520012303FA09F322EA8B
:103B8000030381F8F530039B002B00F0658118F8E2
:103B9000013C98F801200433DBB2002A40F01E817A
:103BA000019A32F91310BBF8103003F1C8029142A8
:103BB0000D4A02DD98F8024030E0C83B994203DA32
:103BC00098F80240644229E092F8F510012303FAC4
:103BD00009F321EA030382F8F530029B03F5FA7337
:103BE000C8F8033038E100BF20120020000900208F
:103BF000F23900207A0D0020080900202C0A00204C
:103C0000F839002004090020300A0020240A00208E
:103C100070330020002800200128002092F8F530A1
:103C200043FA09F3DA0700F11781002CCCBF022018
:103C300001200BF0F7FB7B1E132B60D8DFE803F0AD
:103C40000A0E17202E33404E5F5F5F5F20293340FE
:103C50004E3D4A5850462146FA2203E021460AF1D9
:103C6000010064220DF06AFF0AF0F8FDEBE00AF1B2
:103C70000300214664220DF061FF0AF08BFDE2E0B3
:103C80000AF10500214664220DF058FF0D2F00F0C7
:103C9000DA800AF10400214664222EE00AF10600CF
:103CA0002146FF2297E09C4B21461868C82201302C
:103CB0000DF044FF0F2F00F0C680974B18681AE0F4
:103CC000954B21461868C8220B300DF037FF102F96
:103CD00000F0B980904B18680A300CE08E4B2146FA
:103CE0001868C82215300DF029FF112F00F0AB80A5
:103CF000894B186814302146C8220DF01FFF093F78
:103D00001D2F00F2A080DFE807F00F13179E9E9E84
:103D10009E9E9E9E9E9E272B2F575B5F5333373B65
:103D20003F43474B4F1B1F237B4B186802304EE02D
:103D3000794B18680C304AE0774B1868163046E02B
:103D4000754B1868073042E0734B186811303EE03D
:103D5000714B18681B303AE06F4B1868033036E03F
:103D60006D4B18680D3032E06B4B186817302EE041
:103D7000694B186804302AE0674B18680E3026E05B
:103D8000654B1868053022E0634B18680F301EE061
:103D9000614B186819301AE05F4B1868063016E05E
:103DA0005D4B1868103012E05B4B18681A300EE05B
:103DB000594B186808300AE0574B1868093006E07C
:103DC000554B1868133002E0534B18681D3000281B
:103DD00039D02146C8220DF0B1FE34E0012A32D19B
:103DE000019A98F8020032F91340B4F5617F05DBBF
:103DF00040F633039C42A8BF1C4601E04FF46174B7
:103E00000C2F20D14FF4966393FBF0F0A4F561746E
:103E100094FBF0F4414AE4B21378A34213D0032C8C
:103E200034BF2346002313703D4A07FB03273D4B55
:103E30001F600AF013FD0AF0F7FC0AF0ABFC601CEF
:103E4000C0B20BF0EFFA3849012391F8F52003FADC
:103E500009F3134381F8F53009F10109B9F1040FB1
:103E600008F10C087FF476AE28E63368DB0514D53C
:103E70002E4BDB788BB1D9F8003098070DD5B7F809
:103E8000008018F001080DD1294B0120C3F80080F3
:103E9000C3F804800DF0FCF904E001200DF0E8F90E
:103EA000012300E00023226851070FD573B10120E0
:103EB0000DF0DEF93B8803F002039BB24BB91C4ABC
:103EC0000220136053600DF0E3F902E002200DF0D0
:103ED000CFF9DFF868803B88D8F80820B8F80C10D4
:103EE00013F0030F14BF51611161D9F8002012F0D3
:103EF0000A0F42D02268D20622D55B0723D40420C1
:103F00000DF0C6F90B4B0A22B3F9043093FBF2F320
:103F1000094A138017E000BF280A00201C3900203E
:103F200024390020240A002020120020DC1E00205A
:103F300048300020EC0900203A0D002058330020C2
:103F400004200DF095F92368980606D53B8859069C
:103F500006D440200DF09CF902E040200DF088F9D5
:103F600023685A0641BFA74B0A22B3F9043093FBDA
:103F7000F2F344BFA44AA2F8F630D9F800309B0609
:103F800008D42368180540F1A1804FF480700DF02B
:103F90007FF99FE09D4B1B78990759D59C4B1B7867
:103FA000042B55D92368DFF860A213F400720ED0F9
:103FB0003B88DA063FD410200DF06AF920200DF07E
:103FC00057F99448011D05F093FF02222EE0B7F83F
:103FD00000B00BF0100B1FFA8BF34BB110200292C4
:103FE0000DF046F98C4B029A4FF0010B1A7000E06D
:103FF0009B4623685B0512D5DAF8F83087495A8961
:10400000B1F90030002BB8BF5B42934207DAB1F937
:104010000230002BB8BF5B429342C0F2EB813B8879
:1040200098060AD520200DF023F900227A4B4FF094
:10403000010B1A7001E04FF0000B9AF8FC30B3B995
:104040000E200BF0C9F9704B012283F8FC200EE022
:104050003B8803F03003002B93D010200DF008F9BB
:1040600020200DF005F96C4B00221A7002E0BBF124
:10407000000F86D000229646694B002023F81E00D0
:10408000684B191D03F10A0C21F81E00002142F8AB
:104090000C109444CCF80400CCF8081023F81E004F
:1040A00003F1320C5A3342F80C10D15094441344AB
:1040B000CCF80400CCF80810586099601432BEF1B6
:1040C000000F7FF45EAF4FF0010ED5E74FF4807024
:1040D0000DF0CEF8544B1B78082B01D00E2B02D1DB
:1040E00040200DF0C5F83368590530D54F4B1B788B
:1040F0001BB92B7813F0040F02E0236813F4002F90
:1041000020D04B4B00221A700DF0F6FC0646F0B1A1
:10411000DFF844A1DAF80030834206D10CF058FAF7
:1041200050460021502215F076F9DAF85030B342AB
:10413000EAD130460CF04CFA002150223D4815F0EF
:104140006AF9E1E705F0FCF908B10CF083FC2E4AAE
:10415000012382F880312B785A0705D5D8F8003032
:10416000B8F804205A61A1E0D4F800B01BF0010FA8
:1041700002BF314A43F001031370304BD87810F07E
:10418000E7FF2F4911F038F807F0C0FC06462D4B29
:104190003146D3F820A0504611F0EAF918B92B782F
:1041A00023F001032B7010F00FF918B9264B1B797F
:1041B000642B03D92B7823F001032B7010F004F942
:1041C000B8B91BF0806F17D1204B93F82030032B28
:1041D00012D05046314611F0CBF980B11C4B1B7800
:1041E000002B3BD1184B1B4D1B79642B98BF00252E
:1041F00036E048F2551533E040F6150530E042F25E
:1042000055052DE0EC09002020120020500A002066
:10421000510A0020680A00207C0D00202430002074
:10422000F43900201E130020EC0800205811002053
:10423000173600200C080020FA3900201F0A002041
:1042400035FA8E3C0C32002014090020DC1E0020C0
:10425000F839002055050200BC07002040F2052572
:10426000714EC6F884510CF080F9D6F88831C31A23
:10427000002B1BDD6D4B1A68012A9EBF00221D60BA
:10428000C6F884211A685AB1D8F80010B8F804505A
:1042900012F0010F4FEA520214BF4D610D611A6016
:1042A00000F5433000F5A070C6F88801D9F8003059
:1042B0005D071FD52368180703D408200CF0D8FF2A
:1042C00018E03D8805F00805ADB29DB908200CF056
:1042D000DFFF574B1A68574B1A60019B524ADB8825
:1042E000A2F88C31544BDB88A2F88E31534B1D6001
:1042F000534B1D60D9F80030D90640F191802368F6
:104300009A0204D44FF400700CF0B2FF88E03C88AD
:1043100004F40074A4B2002C40F082804FF40070CA
:104320000CF0B6FF424B1A68424B1A60019B3E4AA2
:10433000DB88A2F88C31404BDB88A2F88E313F4BF2
:104340001C603F4B1C606BE0012323723D4B00223D
:104350005A7006F5C333A0336360FEF727BF012010
:1043600000E00220C7B2781EC0B20DF0EBF838466C
:104370000BF058F8FFF747BBB8F1000F3FF432AB32
:104380007E2B7FF42FABFFF73CBBA72B06D12E4A29
:10439000137843F004031370FFF735BB0022BB2BE7
:1043A000079201D1022303E0B72B04D14FF6FE732D
:1043B000ADF81E300AE0BE2B01D1022304E0BD2B74
:1043C0007FF421AB4FF6FE73ADF81C301F4BBDF8E8
:1043D0001C101B681A880A441A80BDF81E105A88DF
:1043E0000A445A800DF0BCF80F4A002382F8EA30E4
:1043F000FFF709BB3B889B063FF51FAE20200CF062
:1044000047FF134B13481A685B68011D4360026045
:1044100005F06EFD104B4FF0010B83F800B00CE679
:10442000002009B0BDE8F08F20120020E028002015
:10443000F4090020780A00202430002064200020A5
:104440006820002013000020500A0020C80A002025
:10445000540A0020700A00207C0D00202DE9F04F46
:10446000964F00237978964A3B70838904291380FC
:10447000164608BF934A97B008BF13800CF075F832
:10448000914B924D1A88924B0095D3F800C0914BF6
:1044900004461868904BA8461968904B1B68E04783
:1044A0007B78042B04D10CF060F8864B001B9880BD
:1044B0008B4B1B6898477B780490012B06D1894968
:1044C0003388804A096893805B1AD380864B87497A
:1044D000DB78874A0393874B1C78032C14D98E888A
:1044E000B6F5FA7F10D2844BB2F904E0B3F9045068
:1044F0007042002DB8BF6D42431B9E4503DB73190C
:104500007345A8BF734693807C4B1D6815F000650A
:104510000DD191F90270784B7942B2F90470DB88C1
:10452000B2F80290B2F800A04F43754E71E1002638
:104530003546B34691F902905388C9F10001B2F9AA
:104540000490B2F800A009FB01F9DFF8D081A3457F
:1045500039D218B2069310F0FBFDD8F8081010F00D
:104560004BFE05900FFA8AF010F0F2FDD8F8041017
:1045700010F042FE059A0146104610F035FD0590F8
:10458000484610F0E5FDD8F80C1010F035FE059AFD
:104590000146104610F028FD10F0F4FF0FAA80B27B
:1045A00022F81B0029B202B28A42069B03DC31B218
:1045B0008A4202DB2846054630460BF1010B08F122
:1045C00010080646C3E74F4BC6EB050A1A681FFAE8
:1045D0008AFA12F4805F9946DFF844812FD04A4B63
:1045E0001B7813F0040F394B08BF1A8A188A474BFF
:1045F00008BFA7F8C4201B68454AD688DA8834B2B9
:10460000811A8C42434B03DC1D88B8F8004005E05A
:104610000244944205DBB8F802505C88A7F8C460F5
:1046200013E0B7F9C4208A42D7BF1D885C88B8F868
:1046300000402E46C4BFB8F80250264605E02E4B77
:10464000B8F80040DE88B8F80250ADB21FFA84FB1B
:10465000CBEB05040FFA8AFA24B2A2452E4B61DD9A
:1046600001221A70204610F073FD0546504610F0E6
:104670006FFD0146284610F073FE05464FF0000A14
:104680001C4B1B789A4510D20FAB33F91A000593D7
:1046900010F05EFD294610F0AFFD13F0D1FD059B33
:1046A00023F81A000AF1010AEAE7022094FBF0F06D
:1046B0000BEB0004A4B225463FE000BFD41300205A
:1046C000F0390020BE0A0020AC280020E835002088
:1046D00094010020280A0020240A0020C80A002093
:1046E00044360020E0390020DC1E0020EC080020C9
:1046F000903000209630002024300020080900204F
:10470000E4130020C0350020FA390020F80B002007
:10471000C4350020F00B002038300020D8130020D2
:10472000340A002000221A7002239AFBF3FA0BEBE2
:104730000A04CAEB0505A4B2ADB2D9F80030B8F846
:10474000042003F480530993B7F9C430A74F0593AD
:10475000A74BB8F802B01B8AB8F800900693A54B97
:104760004FF000081B680793A34B19885B880891DA
:10477000A24991F800A04FEA4A0AD04500F01B81F7
:104780000FA938F801C030B20C920B93CDF828C0B5
:1047900010F0DEFC9A4951F8381010F02DFD10F0A1
:1047A000F1FE21B28842DDF828C00B9B0C9A03DB96
:1047B00029B28142A8BF01468C4403991FFA8CFCA0
:1047C00027F802CF0FFA8CFC19B1944517DA9446FA
:1047D0001AE0099989B107990698C988411A05987C
:1047E000884206DCCC450EDB08998C45A8BF8C4678
:1047F0000AE09C4503DA9C4606E0CC4503DBDC4539
:10480000A8BFDC4600E0CC46A7F800C008F10208CB
:10481000B3E7A542DFF8FCB137D218B2069310F027
:1048200097FC56F80C1C10F0E7FC05900FFA89F085
:1048300010F08EFC56F8041C10F0DEFC059A0146C0
:10484000104610F0D1FB05900FFA8AF010F080FCB2
:1048500056F8081C10F0D0FC059A0146104610F0DE
:10486000C3FB0590384610F073FC56F8101B10F08F
:10487000C3FC059A0146104610F0B6FB10F082FE0C
:10488000069B2BF815000135C3E7BBF80010012289
:10489000A2420BB207D23BF9121001328B42B8BFD1
:1048A0000B4699B2F4E7574AB8F810705088834223
:1048B000554BC8BF091A1B68C8BF89B203F48052A0
:1048C0000B92524A03F0100392F80190504A0C9355
:1048D000B2F90650474AD8BF002112680592464AED
:1048E000B2F800A0B2F802E01FFA8AF20792454A35
:1048F0001FFA8EF6B2F800C006969688B8F8122015
:104900001FFA8CF30892434A0A93B3B2099302EB5D
:1049100044030D930D9B9A424DD013880B9C5B1A58
:104920009BB222F8023B04B3B9F1000F09D1059CF8
:10493000B4F80680C8EB070B5D4502DDB844454579
:104940000CDBBD421BB203DD734514DA73462FE066
:10495000B34214DB5345A8BF534629E0BD42CCBF48
:10496000BDF81830BDF81C3022E0039C4CB132F980
:10497000023CB34203DB8342A8BF034618E0334640
:1049800016E01BB2634503DB8342A8BF034600E089
:10499000634622F8023C089B9D42BBDA0C9B13B194
:1049A000BDF8243004E0B9F1000FB3D1BDF82830D0
:1049B00022F8023CAEE7184B1A7802F0040202F02B
:1049C000FF033AB1114B1B78013BDBB2182B00F20D
:1049D000388125E0094A12789342F3D20F4931F821
:1049E00013000C4921F813000133F5E7D209002028
:1049F000E8350020F80B0020F00B00209630002056
:104A0000D8130020340A0020C0350020EC08002014
:104A1000C4350020D4090020FA390020620D00209E
:104A200001229A40BC4B1340002B00F00A81BB4B83
:104A3000BB481B88BB4913F4807F08D0BA4B1A8847
:104A4000ADF83C205A889B88ADF83E2013E0B74B68
:104A50001A88ADF83C205A889B88ADF83E20B44AAD
:104A6000ADF840301268D20407D5B1F90640028A89
:104A7000944202DA5B42ADF84030AE4D4FF47A72A8
:104A8000B5F902304FF4616403F5E163534393FBDE
:104A9000F4F3A3F5FA73ADF85430B5F9003003F52B
:104AA000E1635A4392FBF4F2A34BA2F5FA721B881E
:104AB000ADF85620A3F2DC53ADF842300A88038AE1
:104AC000D21AADF844204A88D21AADF846208A8816
:104AD000D21AADF84820CA88D21AADF84A200A89FD
:104AE000D21AADF84C204A89D21AADF84E208A89E4
:104AF000D21AADF85020CA89D31AADF8523000232B
:104B00008E4A002122F813100133082BF8D18C4B68
:104B10008C491B688C4D03938C4BD3F800B08C4BA5
:104B20001B78C3EBC30301EB0308414571D00B783D
:104B300033B11533DAB201239340039A134064D0A2
:104B400011F806EC0C2707FB0EB7B7F90020B7F9F0
:104B5000023064209B1A11F9022C9BB25A4392FB3B
:104B6000F0F211F805AC4FEA530911F8034CC9EB08
:104B700002024FEA4A0616A892B211F801CC064486
:104B800014B936F81C0C0CE0B5F9000036F91C6CB1
:104B9000B04208DA0444844203DBA6423046A8BF90
:104BA0002046288008E007DD041BB44203DB844272
:104BB000A8BF044626462E80BC68012000FA0AF0F1
:104BC0002042B5F9006011F9040C12B200FB06F0A6
:104BD0004FF0640690FBF6F014BF4FF0FF34012451
:104BE00090420ADB4FFA8CF25A4392FBF6F2C9EB81
:104BF000020212B28242A8BF0246504B33F81E9006
:104C000002FB049423F81E4000E02B80023507319C
:104C10008BE74E4B4F4E1F6800250C2303FB05739B
:104C200093F9064036F9023FE8B26343642493FBEC
:104C3000F4F434800BF052FB01352044082D308011
:104C4000EBD13B4E3D4C3368404D13F0200F33D039
:104C500000200BF043FB2080074601200BF03EFBB9
:104C6000374B60801B681B0626D53B4B314AD3F877
:104C7000E8301B78012B23D12968B2F9003091F973
:104C800012E04FF0320C03FB0EF393FBFCF31FFA20
:104C900083FE91F90630B2F902205B4253436FF074
:104CA000310193FBF1F193FBFCF30EEB0102B91818
:104CB0007344218018446080D5F800E0002319E097
:104CC000D5F800E0B2F902309EF9061059433223BC
:104CD00091FBF3F1394421809EF91270B2F9001072
:104CE00001FB07F292FBF3F21044E4E70133082BD7
:104CF000E25333D00C2101FB03E134F91300B1F985
:104D000000205F009042B1F90210EFDB0AB282424C
:104D1000A8BF0246EAE700BF9920980104090020D5
:104D2000E8350020C43500202430002090300020D9
:104D3000C0350020EC090020D409002050090020D3
:104D400008090020C23000209A140020DC1900203D
:104D5000BB3000204E090020D4130020A64F97F945
:104D60000C3093B93B78013B182B75D8DFE803F082
:104D7000397474527474744B74747474745C747491
:104D8000747474526874745C3900DFF8A8924FF040
:104D900000089A4A1C2339F9020F03FB082A10F075
:104DA000D7F90146504606F0AAFA13F049FA2B68E3
:104DB0000C2202FB083280B2A9F80000B2F90030E0
:104DC00000B29842B2F9022003DB13B28342A8BFBB
:104DD000034608F10108B8F1080FA9F80030D8D14E
:104DE000C0E7BB7913B10020618908E0844B1B78D0
:104DF00003F0040303F0FF00002BF4D1014608F098
:104E00008DFD012529E00020E18808F087FD0120C3
:104E1000218905E00020218908F080FD61890120B9
:104E200008F07CFD022518E00225A81E34F81510B4
:104E3000C0B2013508F072FD082DF6D106250CE050
:104E40000325E81E34F81510C0B2013508F066FDE0
:104E5000072DF6D1042500E000253368990602D419
:104E60003B78052B0AD12846218808F057FD681C9D
:104E7000C0B2618808F052FD0235EDB23368DA0243
:104E800006D4604D95F8CC3173B10BF041FA0BE0CC
:104E90005D4E00242819C0B236F8021F08F03EFD0E
:104EA0000D2CEED00134F5E76B78042B05D10BF017
:104EB0005CFB049BC01A554BD8800BF056FB544B3F
:104EC00004909B680BB153489847534B534C1B6855
:104ED000534E13F4801F6DD0378807F40067BFB2BC
:104EE000002F54D1464B1B785B0750D54FF4006020
:104EF0000CF0CEF92068D5F8D421837F1189022BDC
:104F000004BF012385F8D0314FF47A7303FB01F31A
:104F1000444918BF85F8D071098893FBF1F34249E1
:104F20005B429BB291F800C0A5F8D831002192F8FD
:104F300003E01778BEF1000F01D0774504D8BCF12B
:104F4000030F05D8022903D14FF0000E82F803E0C9
:104F500090F800E00132BE4538BF077010F801EB51
:104F6000284F4FEA8E1E07F5ED7828F811E007F577
:104F7000F07E4FF000082EF8118007F5F37E2EF832
:104F8000113001310329D2D1012387F8EC31338864
:104F900018051AD41A4B1B7803F0040303F0FF061C
:104FA0009BB995F8EC3183B10CF0DAFA154B83F824
:104FB000EC610AE03388190507D5114B1B785A07B5
:104FC00003D54FF400600CF053F9184A184B1768DA
:104FD000B3F906307A8993422EDBB3F5FA6FF8798C
:104FE000BFBF9B1A4343A2F5FA6093FBF0F0ACBF3E
:104FF000C0F16400643020E0EC080020C014002000
:10500000FA390020D4130020CA350020BE0A00203F
:10501000F0160020A215002008090020280A002010
:1050200004090020F039002096300020240A0020D6
:10503000C43500204E0900206420BA4B0022B3F88A
:1050400010E0B94BD3F800C023681D460393B74B5B
:105050004FEA420833F91290CEEB0903002B05DD2D
:10506000B3F5FA7FA8BF4FF4FA7306E0C9EB0E035D
:10507000B3F5FA7FA8BF4FF4FA73022A4FF0640425
:105080002BD09CF8001019B18B42CCBF5B1A0023C7
:1050900093FBF4F6A6496FF0630B31F816A00BFBF7
:1050A000063B013631F916100FFA8AF6891B01FB0F
:1050B0000BF191FBF4F19F4E514426F80810B918FA
:1050C00009794B439C4993FBF1F364339BB243430F
:1050D0009A4993FBF4F388542EE09CF8011019B11F
:1050E0008B42CCBF5B1A002393FBF4F694496FF01C
:1050F000630A31F816B00AFB063A013631F9161088
:105100000FFA8BF6891B01FB0AF191FBF4F18B443A
:105110009CF90410002BC1F100010BFB01FB854938
:10512000B8BF5B42A1F804B0B9794B43824993FB05
:10513000F1F3824964338C7029786424594391FBDC
:10514000F4F1804EF145B154A97A7F4E03FB01F191
:1051500091FBF4F1B154297D05F1010503FB01F345
:1051600093FBF4F379498B54724B02F10102BEBFF9
:1051700033F80810494223F80810032A7FF467AF78
:105180006A4AB2F90650674A568AB54206DBB5F557
:10519000FA6F2946A8BF4FF4FA6100E031464FF498
:1051A0007A72891B5143C6F5FA62B1FBF2F16424AD
:1051B00091FBF4F0664A6FF0630E32F810700EFB4C
:1051C000001E013032F9100039B2411A01FB0EF114
:1051D00091FBF4F2D419A4B2DC805E4B554FB3F8C6
:1051E00000B01BF0400F41D05B4B0A20B3F90430F4
:1051F00093FBF0F0594B1B88C01A00B20FF0A8FFC8
:1052000057490FF0F9FF804606F080FC8146404682
:1052100006F008FC8046B7F902000FF099FF8246BD
:10522000B7F900000FF094FF494606900FF0E4FF35
:105230004146059050460FF0DFFF059A01461046A3
:105240000FF0D0FE10F09EF94946388050460FF01E
:10525000D3FF069B8146414618460FF0CDFF01461D
:1052600048460FF0C1FE10F08DF978803D4B3E4F5F
:105270001968984611F0140F00F0A4801BF4027F07
:1052800000F0A080394B2B481B7803F0100303F08B
:10529000FF0C43B1364B97F9F0211C68438804FB9F
:1052A000023343808EE0204B1A68324B92F803E0C1
:1052B0009278BEF1000F21D0B3F900E0CEEB0503E8
:1052C000002BB8BF5B4293420DDD2B4B7545C3F8F5
:1052D00000C04FF0010387F8F131C8BF5242154BAF
:1052E0001444DC806EE097F8F131002B5AD0234B48
:1052F00087F8F1C11A68224B1A6053E0B3F9003005
:10530000EB1A83EAE374A4EBE37494423EDD0222D9
:1053100093FBF2F31B4A13601B4A0123137087F8B7
:10532000F1313FE0E8350020F80B0020C4350020C3
:10533000EE270020243000200CFEFFFF97300020D5
:10534000E027002050300020C11500208C300020C4
:10535000C827002004090020EC09002016130020B3
:1053600035FA8E3C00090020D4130020500A00209A
:1053700068200020AC13002064200020F4090020E5
:10538000780A0020D83900206C20002097F8F131ED
:1053900043B1A14B87F8F1E11A68A04B1A60A04B0A
:1053A00083F800E09F4BA04CB3F900209F4B1B6893
:1053B000134422886488934203DBA342A8BF234698
:1053C0001A46C2800B0738D599499A4C88880A2218
:1053D00000F10E039BB21C2B974BB3F9043029D874
:1053E0001BF0040F26D093FBF2F22388D21A92B25C
:1053F00093B21CB2B334BCBF02F5B4739BB21AB201
:105400008E4CB32A8E4A2478C8BFA3F5B4731268B1
:10541000C8BF9BB2240712790FD552B252425343F0
:10542000039A1BB2127A53431E2293FBF2F3C31A60
:105430008B8002E093FBF2F32380824B1B7883B1D5
:10544000B5420EDC804A1378012B01D0192B01D113
:10545000927932B90E2B04D0082B1EBF744B002258
:105460009A807A4B1B689D7875B31BF0030F2BD085
:10547000774B78491C6A204610F066F8F8B9204648
:1054800006F011FA744B19680FF0B6FE12F0D8FE50
:10549000B0F5617FA8BF4FF461700FF059FE6F49FE
:1054A0000FF05EFF06F0BEFA044628460FF050FEED
:1054B00021460FF0A1FE12F0C3FE80B200E00020F2
:1054C0005B4AD3881844D080654B9B7B002B61D00E
:1054D000644B1B78002B3BD0634B1B6E9A89B2F553
:1054E0007A7F05DB44F620639342A8BF134601E0B0
:1054F0004FF47A735D4A03F57A7312689BB2B3FB7B
:10550000F2F3581C80B2B7F9F4C1A7F8F2010022F7
:10551000574C474904F5FF7531F8126035F8121001
:1055200004F5FB7EC1EB06093EF9121025F8126066
:105530000CFB01F191FBF0F149442EF812100132FD
:10554000042AE5D1474A00211170A4F8F43104E09F
:10555000B7F8F431013BA7F8F431B7F9F401444A44
:1055600000284FF0000313DDB2F9F2414149A1F1E7
:10557000080232F9132031F81310424392FBF4F27F
:105580008A1A2B4921F813200133042BEED101E0B4
:10559000A2F8F431D8F800309A0640F1CC80364BAE
:1055A0001B8803F03003002B00F0C580234B1B78D1
:1055B000DB0740F1C080204B304DB3F904000A23D3
:1055C00090FBF3F00FF0C4FD2D490FF015FE0446DB
:1055D00006F028FA8046204606F098FA294B06463F
:1055E0001B68DA78284B002A73D0284CB3F90200E4
:1055F000B4F8029005920FFA89F1401A039304F06F
:1056000065FC059AA246C2F1000B5845039B3FDB9F
:105610009042A8BF10463CE0F4090020780A002020
:105620006C200020AE130020340A002068200020E7
:10563000243000203A0D0020EC090020500A002000
:10564000F80B002031000020EC080020B4280020D6
:105650000C3200208FC2753CC4280020EFB6B04445
:10566000E8350020A013002054000020E03900207D
:10567000D4130020D215002004090020F4390020A2
:1056800035FA8E3C18130020221300201E13002030
:1056900058464844BAF800401FFA80F9B3F90000B0
:1056A00023B2C01A0392AAF8029004F00FFC5845E6
:1056B00004DB039A9042A8BF104683465C44A4B220
:1056C0000FFA89F0AAF800400FF042FD814620B29F
:1056D00008E0B3F9020003930FF03AFD039B814603
:1056E000B3F900000FF034FD3146044648460FF090
:1056F00083FD4146824620460FF07EFD014650461E
:105700000FF070FC17490FF02BFE0FF03BFF4146E6
:10571000288048460FF070FD3146804620460FF045
:105720006BFD014640460FF05FFC0E490FF018FE7E
:105730000FF028FF68807B78042B06D10AF015FF54
:10574000049BC01A084B588008E0052B06D1074A75
:10575000054B12889A80DA880132DA80002017B06F
:10576000BDE8F08F00002041BE0A0020F039002083
:1057700030B50268047B1168022303FA04F40C427A
:105780000DD0074900240C704FF6FE71446825685F
:1057900029402160007B516883400B43536030BD3A
:1057A000FC39002070472DE9F04F87B06C4C029116
:1057B0006C4922880E680546C2EB26135B435200F3
:1057C000C2EBE602B4F902601B135643B4F904209D
:1057D000B4F90A0053439B1303EBE62606EB86035A
:1057E00080331B12B6F5FA384FEAE67704934B681C
:1057F00047F1FF39A8FB08AB039308FB09F3B4F9A1
:1058000008200BEB430BE389A6610593D31708FB34
:1058100003F102FB0911A8FB02230B44C1171F036C
:105820000AFB01F300FB0B33AAFB0001160319442A
:1058300047EA1257020A42EA016292194FEA21230B
:10584000E6887B410032A2FB060143F5004306FBDC
:1058500003114B100093CB170193DDE90023134391
:10586000B4F810E0B4F80CC06DD00FFA8EF0C11788
:105870000AFB01F1AAFB002300FB0B11BDF9146028
:105880000B44F71708FB07F106FB0911A8FB066795
:105890000F4479047004801841EAD6315941039BC2
:1058A0000FFA8CF8C3F5801E7246D3170022121827
:1058B0004FEACE764FEAC3774FEAC8034B4147EA37
:1058C0005E07B61A67EB030740F63543A6FB0301F4
:1058D00003FB0711DDE900230FF09AFEB4F916204F
:1058E0004E1302FB06FE470B47EAC147D31707FBDF
:1058F00003EEA2FB07235643734407FB0366A2FB98
:1059000007233344560E46EAC3168219B4F91460CD
:105910004FEA636741EB07037143F71700FB071773
:10592000A6FB00013944C60C46EA413692194FEAFB
:10593000E1474FEA1221B4F912207B4141EA0361A9
:1059400013010B4400E000230DB11B0A2B60029BE6
:1059500013B11A46049B136007B0BDE8F08F00BF77
:105960009418002004160020704770476B4B6C4A57
:105970002DE9F04F5E8994684FEA062AB4EB0A0AD3
:105980009C884FF000054FEA04481C894FF0000B3B
:10599000A4FB0A6765EB0B0B04FB0B77F40944EAE5
:1059A000476418EB04065C884FF000094FEAE715DE
:1059B0004FEAC438DC8849EB050787B0CDE90467B6
:1059C000A4FB0A6704FB0B77340A44EA076418EB6C
:1059D00004064FEA27259C894FF0000949EB05078B
:1059E000CDE90067AAFB046704FB0B77F40D44EADA
:1059F000472414F5FA664FEAE75545F10007B6F576
:105A0000FA6F77F10003CDE90267964666DADDE9C1
:105A10000489A4FB046704FB05F34FF0050C07EBB6
:105A20004307A6FB0C230CFB07335F104FEA32063B
:105A3000B8EB06084FEA920646EA837669EB070957
:105A40009F10DDE90023921B63EB0703CDE90023E0
:105A5000DDE90267334A4FF0FF33964277EB0303E9
:105A6000CDE9048927DA40F6AC520023A4185D4141
:105A700004FB05F3A4FB04456FF0060205EB4305A8
:105A8000664202FB0566A4FB0223334418EB0206C0
:105A900049EB0307CDE904670B26A4FB062306FBAD
:105AA0000533DDE900455B104FEA3202A41A65EBCD
:105AB0000305CDE90045DDE902450AFB0BF3AAFB2E
:105AC0000AAB0BEB430B4FEADA7242EA4B02A41A21
:105AD0004FEAEB7365EB0305CDE90245DEF80C40B8
