:020000040800F2
:1000000000500020E15801087D5901081D410108F8
:100010007D5901087D5901087D5901080000000043
:100020000000000000000000000000007D590108F1
:100030007D590108000000007D590108590201089E
:100040007D5901087D5901087D5901087D59010834
:100050007D5901087D590108E5EE0008E1EE000830
:10006000DDEE0008D9EE0008D5EE000819AE000854
:1000700011AE000809AE000801AE0008F9AD000895
:10008000EFAD0008990601087D5901087D59010866
:100090007D5901087D5901087D590108D1EE0008FC
:1000A0007D590108CD9300087D590108DD930008B2
:1000B000BD930008AD9300089D930008BDC90008DA
:1000C000BFC90008B9C90008BBC900087D590108AB
:1000D0007D5901082D310108213101081531010830
:1000E000CDEE00087D5901087D590108000000008F
:1000F0000000000000000000000000000000000000
:0C01000000000000000000005FF808F1A3
:100110002DE9F04F374ED7B0751E771C4FF0000811
:1001200055F8113CA5F11109002B01F0B58455F8E3
:10013000110C10F01BFA8246002801F0868455F855
:10014000110C10F010FA15F8053C0446013B042B85
:1001500004D8DFE803F0070C1F292D0024284DD117
:10016000012344E04D2814BF002302233FE0002375
:100170003C2805F8053C02D03E2805D075E015F86E
:100180000D3C002B71D103E015F80D3C012B6CD117
:1001900003232CE040284FF000039EBF05F8043CE9
:1001A00005F8030C042322E005F8020C05231EE0E9
:1001B00015F8042C15F8033C9A4209D2531C0E4939
:1001C00005F8043C502303FB08131A4410744CE058
:1001D00015F8022C691E5A4013F1FF3303D311F8AE
:1001E000010B4240F8E794420CBF0623002305F8B8
:1001F000053C3AE0C6090020B4090020DFF8E4B06D
:1002000055F8111C9BF8003013F004022DD1232C5B
:1002100020D12B4B012018702A4B2B4883F8B1209A
:100220001022C3F8A80083F8B020C3F8AC1003F183
:10023000A8022648C3F8A010C3F8A410C3F8C4202D
:1002400013F0F8F80DF0B6FC9BF8003043F0020311
:100250008BF800301E4B1B78A34201BF1D4A1E4B7A
:100260001A601E4A04BF1E4BDA6015F8053C062BC7
:100270007FF45DAF15F80DECBEF1000F41F0E583A2
:1002800015F8030C502101FB08010E4C15F8020C67
:1002900056AB10311FFA80FC214416AA089301388E
:1002A0006B1E0A930792ADF826E00B91ADF830C0B3
:1002B000ADF832E0ADF824C0CB1AA34614E000BF7D
:1002C000283C0020B40900203D060108FAB10108CD
:1002D000F8250020EFBEADDEF04F00200400FA0547
:1002E00000ED00E02A3C0020FD2801F29F83DFE8BA
:1002F00010F014011D012501300139019D0B9D0BEA
:100300009D0B9D0B9D0B9D0B9D0B9D0B9D0B9D0BAD
:100310009D0B9D0B9D0B9D0B9D0B9D0B9D0B9D0B9D
:100320009D0B9D0B9D0B9D0B9D0B9D0B9D0B9D0B8D
:10033000EA043B0A4F039F07C504E709C904F4090F
:10034000D704270AFE04540A01055B0A8105FE0052
:100350009B05520B5C05C80A7203D4076E05FC0AA4
:100360000A01050A8F024B036A07EB025F079D0B28
:100370006205CF0A9D0B9D0B8A0B7E06D7050B06E7
:1003800066099D0B9D0B1F05800A4005A10A3706D3
:100390002E069D0B77069D0B9D0B9D0B9D0B9D0BBC
:1003A0002E099D0B9D0B9D0B9D0B9D0B9D0B9D0B7E
:1003B0009D0B9D0B9D0B9D0B47015501CE01F90136
:1003C0005C0267021004330475028502B902F5026B
:1003D0002B039D0BCE039D0B9E0347034404BB03DD
:1003E000FD019D0B9D0B9D0B8D069B06B206A7057F
:1003F00003015F0645069D0B9D0B9D0B9D0B9D0B01
:100400009D0B9D0B9D0B9D0B9D0B9D0B9D0B9D0BAC
:100410009D0B9D0B9D0B9D0B9D0B9D0B9D0B9D0B9C
:100420009D0B9D0B9D0B9D0B9D0B9D0B9D0B9D0B8C
:10043000B7049D0B9D0B9D0B79049D0B9D0B9D0B94
:100440009D0B9D0B9D0B9D0B9D0B9D0B9D0B9D0B6C
:100450009D0B9D0B9D0B9D0B9D0B9D0B9D0B9D0B5C
:100460009D0B9D0B9D0B9D0B9D0B9D0B9D0B9D0B4C
:100470009D0B9D0B9D0B9D0B9D0B9D0B9D0B9D0B3C
:1004800029076A0974079D0BFF0743094E094508B0
:100490003B0999091607220791089D0B85089D0BBA
:1004A0009D0BF40805091B0920097B0B9D0B9D0B77
:1004B0009D0B9D0B9D0B9D0B9D0B9D0B9D0B9D0BFC
:1004C0009D0B9D0B9D0B9D0B9D0B9D0B9D0B550738
:1004D000AC043102CF089D0BDB0AC0069D0B9D0BBF
:1004E0009D0B9D0B5B099D0B9D0B9D0BA104DFF8E4
:1004F00070B3002401F032BAB4F80831FF2BA8BF62
:10050000FF2300F054BC94F82C31137094F82D3173
:10051000537094F82E3100F0A6BD00230DF15B015D
:10052000137001230791537019210FE0BA4907A8EE
:1005300004220AF0B2FD012301F07ABA0E21012350
:1005400051700DF15B01079113700321917001F05F
:100550006FBA07A8B14904220AF09FFDB04B07A863
:10056000197832E307A8AF490B220AF096FD07A8D5
:10057000AD4908220AF091FD07A8AC490722D8E747
:10058000E723137094F8303107A853700DF15B0323
:10059000079300239370042100F034BDA44B07A8F7
:1005A00019880AF098FDB4F8401107A889B20AF03A
:1005B00092FDD4F8443107A8C3F3C001C3F380020D
:1005C000890041EA4201C3F340021143C3F34012E0
:1005D00041EAC20103F0100319430AF07CFD002335
:1005E0001946B4F84801934A12F901E0BEF1FF3F01
:1005F0000CD04FF2FF720A41D20707D540FA01F240
:10060000D20742BF012202FA0EF2134301310C2934
:10061000E9D1D4F84CE10021012287488A401040FA
:1006200018B112EA0E0F18BF134301312029F3D17C
:10063000824A00201278864651070146D4F850C1FC
:1006400048BF43F00103012202FA00FB1BEA0C0F32
:1006500007D01BEA030F1CBF02FA0EF211430EF182
:10066000010E01301D28EED107A80AF020FD079BDE
:1006700094F85421591C07911A7007A8B4F8561120
:100680000AF029FD07A8B4F8581100F0E0BCB4F84E
:1006900064310024B3F5806F8CBF4FF0030B4FF033
:1006A000000B674B07A853F82410013441FA0BF1F3
:1006B00089B20AF010FD032CF3D10024614B07A886
:1006C00033F8241001340AF006FD032CF6D100247F
:1006D0005D4B07A833F8241001340AF0FCFC032C0E
:1006E000F6D128E707A85949102222E700230C2455
:1006F0005C43DBF89C210393115B07A80AF0EBFC39
:10070000DBF89C2107A8224451880AF0E4FCDBF8BE
:100710009C2107A8224491880AF0DDFCDBF89C218B
:1007200022449179079A501C07901170DBF89C21A4
:100730002244D179079A501C07901170DBF89C2154
:1007400007A81444A1680AF0B2FC039B0133082BEC
:10075000CDD1F0E63E4B03F17001079A13F8010C7E
:10076000541C07941070079A1878541C0794107042
:10077000079A5878541C07941070079A9878541C5C
:1007800007941070079AD878541C07941070079A31
:100790001879541C07941070079A58790733541C21
:1007A0008B4207941070D8D1C5E60024294B07A8C6
:1007B00033F8141001340AF08EFC082CF6D1BAE696
:1007C0000024254B1B789C42BFF6B5AE234B07A8EF
:1007D00033F814100AF07FFC0134F2E707A8B4F8EC
:1007E00028120AF078FCB4F82A1207A80AF073FC61
:1007F000B4F92C320A2193FBF1F1D6E307A8D4F81F
:1008000030120AF054FC07A8B4F8341200F01FBCF0
:1008100007A8D4F83812F5E332B2010837B201085C
:10082000293C00203CB2010848B2010851B201083D
:10083000203C0020D4920108C0F11F1A2A3C00205D
:100840001C0B0020280B0020340B0020400B002044
:10085000550B0020C40B0020E8250020A425002013
:100860007C0A00204FF6FF7B94F84232B4F8442211
:1008700004EBC3030DF159010791D3F84C12FF2A81
:10088000A8BFFF225945A8BF594621EAE17107A830
:1008900089B28DF8582003930AF01DFCB4F8581261
:1008A00007A80AF018FC039B94F85A22D3F84812C0
:1008B0003AB10A2359435945A8BF594621EAE17183
:1008C00073E301F30F0170E394F85D320DF15A0107
:1008D000137094F85C32079153702CE6D4F86032B0
:1008E0000DF159001978079011705B780DF15A01DC
:1008F000537007910023DBF86022B7491A4410793E
:10090000079A0133541C032B07941070F3D1D1F8CC
:100910006032DA79079B581C07901A70D1F8603260
:100920009A78079B581C07901A70D1F86032DA78D1
:10093000079B581C07901A70D1F8604207A861897C
:100940000AF0C9FB227A0EE20022DBF86432995CDD
:10095000079B581C07901970DBF864321344997A8E
:10096000079B581C07901970DBF864321344197DFB
:10097000079B0132581C0A2A07901970E5D1DAE565
:1009800007A896492F22D4E5D4F864329B7F0EE263
:100990000024DBF8682212F8240002EB840303939E
:1009A00010F072F9079A4179501C0790039B11705F
:1009B000079A5978501C07901170079A9978501C23
:1009C00007901170DA78079B0134591C142C079199
:1009D0001A70DED1AFE5002106234B43DBF86C0231
:1009E000079CC21892F805E004F1010CCDF81CC078
:1009F00084F800E0C05C079B01315C1C0794187010
:100A0000079B50785C1C07941870079B90785C1CBF
:100A100007941870079BD0785C1C07941870079B8C
:100A20001279581C0C2907901A70D5D183E500243F
:100A30000123DBF85021A340134211D0E0B210F0A3
:100A400023F901680846039118F08FFB03990246C9
:100A500007A80AF022FB079B5A1C07923B221A7038
:100A600001341D2CE4D166E500240123DBF850217C
:100A7000A340134207D0E0B210F006F9079B427979
:100A8000591C07911A7001341D2CEED153E5544BBB
:100A900007A8198A03930AF01EFB07A8B4F870127E
:100AA0000AF019FB07A8B4F872120AF014FB07A8A1
:100AB000B4F874120AF00FFB07A8B4F87E120AF01B
:100AC0000AFB079A94F88412501C0790117007993A
:100AD000039B4A1C079200220A70079994F885022A
:100AE00001F1010ECDF81CE00870079994F85A0244
:100AF00001F1010ECDF81CE00870D97A079B581C53
:100B000007901970079B591C07911A70D4F8883206
:100B1000A3E094F88C320DF15A0103F00203137034
:100B200094F88D320791537007A8D4F890120AF008
:100B3000BEFA07A8D4F894120AF0B9FA07A8B4F8D4
:100B400098120AF0C8FA07A8B4F89A120AF0C3FA81
:100B500007A8B4F89C127AE207A8B4F89E120AF02B
:100B6000BAFAB4F8A01207A80AF0B5FA94F8A232BB
:100B7000079A03F00103511C1BE115F8013C0A958B
:100B800023B9D4F8A412D4F8A8B208E0102B19BFE6
:100B90004FF0000B5946D4F8AC12D4F8B0B20DF1B6
:100BA00059001370079007A80AF081FA07A8594660
:100BB0000AF07DFA07A8D4F8B4120AF078FA07A868
:100BC00000210AF088FA07A800210AF084FA079B9E
:100BD0005A1C07920022C9E0B4090020E0920108E3
:100BE000C825002094F8B8320DF15901137007910F
:100BF00000239BF8B8229342BFF69DACB34A0799F5
:100C0000985C4C1C0794087002F11001585C07991D
:100C10004C1C0794087002F12001585C079930328F
:100C20004C1C07940870995C079A0133501C07907C
:100C30001170DEE70024A64B07A833F81410013426
:100C40000AF049FA042CF6D175E4D4F8043307A865
:100C500059880AF040FAD4F8043307A81988F6E155
:100C60009C4B07A819680AF022FA9B4B07A8196841
:100C70000AF01DFA994B07A81968C3E107A8D4F830
:100C80000813BFE107A8B4F80C130AF024FA07A868
:100C9000B4F80E130AF01FFA07A8B4F81013D6E13F
:100CA00007A8B4F812130AF016FA07A8B4F8141338
:100CB0000AF011FA07A8B4F816130AF00CFA07A8FC
:100CC000B4F81813C3E194F83D320DF15B011370D1
:100CD00094F83C320791537094F83E3207A8937011
:100CE000B4F840120AF0F7F994F842223BE094F885
:100CF00030315CE07A4C0DF15901237A0791137081
:100D000007A8A18A0AF0E7F907A8218A0AF0E3F9FF
:100D100007A8618A0AF0DFF9079BA27A591C07919C
:100D20001A7007A8E18A0AF0D6F907A8218B8EE18C
:100D300094F87C320DF15A01137094F87D320791CA
:100D4000537007A8B4F87E120AF0C5F9079B94F80F
:100D50008022591C07911A7007A8B4F881120AF072
:100D6000BAF994F88322079B591C07911A70FFF770
:100D7000E2BB00245B4B1B789C42BFF6DCAB5A4BBA
:100D8000079A13F81410501C079003EB44031170DA
:100D9000597807A801EB810101EB810101F2EE21F5
:100DA00089B20AF098F90134E4E74D4BDB7A0DF192
:100DB0005901079118E10023494A995C079A0133C8
:100DC000501C082B07901170F6D1FFF7B4BB474CAD
:100DD00004F1280B14F8032C00234549C95C8A420E
:100DE00000F064860C333C2BF7D108345C45F1D11C
:100DF000FFF7A1BB0024DFF80CB107A83BF80410F3
:100E00000AF069F9A344079B9BF80220591C07913B
:100E10001A70079B9BF803200434591C402C07913F
:100E20001A70E8D1FFF787BB0024324B07A853F8AC
:100E3000241001340AF03BF9202CF6D1FFF77BBBDC
:100E400000222D4B062101FB023100230798441C90
:100E5000079402700798441C079403700798CC5CB1
:100E6000013300F1010E062BCDF81CE00470EDD12A
:100E70000132062AE5D10023079A511C0791062169
:100E80001170079A511C079113701C4A995C079ABC
:100E90000133501C0B2B07901170EDD1FFF74BBBAA
:100EA00005F0F6F9079B40F002005A1C144C07921B
:100EB0001870218807A80AF0FAF8E16807A80AF074
:100EC000F6F808F031FA014607A89BE06D0C002007
:100ED000AE0C0020E8F7FF1FECF7FF1FF0F7FF1F35
:100EE000C8250020E8250020CE0C0020FD2500208C
:100EF000F40C0020300D0020B00D0020D40D002097
:100F0000040000207C0A00200AA80AF0A5F8834605
:100F100007A859460AF0CBF80799089CBB4B641AFE
:100F2000802CDB68A8BF80240BEB04029A4288BFA8
:100F3000CBEB0304039108F045F958460399224688
:100F400005F0DAF9079B18440790FFF7F4BA00237D
:100F500017A91370537093700791D370FFF7EBBA12
:100F600000240DF15B0307A821461470547094709F
:100F700007930AF09CF807A8214643E094F82B3425
:100F80000DF15A01033B18BF01231370B4F844322A
:100F90000791FF2BA8BFFF23537094F8423204EB54
:100FA000C30BDBF84C1281F3100107A889B24EE0A5
:100FB0000024DFF878B20A2354F80B1007A859432D
:100FC00081F3100189B2A3440AF085F8083407A818
:100FD000DBF804100AF06BF8102CEAD1FFF7ABBA7B
:100FE0000DF15903079300231370FFF7A4BA07A864
:100FF00087490B220AF051F807A800210AF057F898
:1010000007A800210AF053F8FFF795BA07A8B4F82B
:101010002C140AF060F807A8B4F82E140AF05BF854
:1010200007A8B4F8301412E0D4F834340DF15900A4
:1010300019780790117059780DF15A000790517086
:1010400099780DF15B009170D988079007A80AF094
:1010500042F8FFF770BA94F83834137094F83934C2
:10106000537094F83A340DF15B0107919370FFF7D8
:1010700062BA68480021C022002418F024F82346F0
:1010800065489BF8FE24654994423DDA427AD207CE
:1010900037D5027A01EB4202B2F91022002A30DD84
:1010A000D0F80CC01A0101EB020EDCF80410BCF8F9
:1010B00008C0CEF83C14AEF842C44FF0000E012137
:1010C00001FA0EF111EA0C0101D0714604E00EF1B3
:1010D000010EBEF1100FF2D15A444FF0020E82F809
:1010E00047E44FF0480EA2F844C482F846E4A2F860
:1010F000401402F24441D2F8442401334A601022E1
:101100008A7101340830BCE7DBB20DF15902079255
:1011100081F874358DF85830414A00F075BC414B68
:101120001B785B073FF507AA15F8010C0A950FF02D
:1011300025FFFFF700BA0AA809F0A4FFA4F8760576
:10114000FFF7F9B9C3F3470BBBF1120F00F26E843E
:1011500000235B4509D20AA8039309F093FF039B80
:101160000DAA22F813000133F3E7594600225A452D
:1011700007DA0DAB33F812002B4B23F812000132C3
:10118000F5E7122905D0284B002223F81120013160
:10119000F7E7012384F89C3500F04ABC0AA8D4F88C
:1011A00004B309F06FFFABF80200D4F804431FE169
:1011B00015F8013C0A9684F85D3216F8013C84F873
:1011C0005C32FFF7B8B9D4F8643215F8010C0A950F
:1011D00098770FF0F7FAFFF7AEB9D4F86422531EF0
:1011E00002F109000A9A511C0A91114611F8024BAA
:1011F00003F8014F0A9151788342997202F1030179
:101200000A9192781A75EDD1FFF795B90400002084
:101210003CB20108F00D0020B00E0020B4090020FF
:10122000B50601082A3C00202C0F0020FC0B0020F2
:1012300015F8011C0A95132900F3F883D4F868E225
:1012400016F8010C0A960023DFF8ECC4DA000CEB68
:10125000020B9BF841B083451BD1624492F84030A9
:101260000EEB81000EF821300A9B5A1C0A921B7863
:1012700043700A9B5A1C0A921B7883700A9B5A1C63
:101280000A921B78C370D4F868020DF03BF8FFF7A0
:1012900052B901331D2BD7D1C8E315F8012C0A959B
:1012A0000B2A00F3C38316F8010CD4F86C1204283F
:1012B0000A9600F3BB8306235A438B18587168784B
:1012C0000A9788540A9A511C0A9112785A700A9AFD
:1012D000511C0A9112789A700A9A511C0A9112783C
:1012E000DA700A9A511C0A9112781A71FFF723B921
:1012F000092B40F39B83D4F8604215F8012C0A9522
:1013000022700A9A04F1030C511C0A9112780021F0
:1013100062700A9A022902F1010ECDF828E01078D5
:101320000CBF4FF0FF0B4FF0640B584528BF5846D9
:10133000013103290CF8010FEBD1911C0A9151786E
:101340000332642928BF64210A92E1719EF80120CA
:101350000AA8A2700A9A0393511C0A911278E270AB
:1013600009F090FE039B60810A2B3FF4E4A80A9BDE
:101370005A1C0A921B782372FFF7DDB80AA809F0FD
:1013800081FE6FF4AF6E00EB0E03DFF8B0B3C62B37
:1013900098BFABF810000AA809F074FEA4F8700218
:1013A0000AA809F06FFEA4F872020AA809F06AFE02
:1013B000A4F874020AA809F065FE0A9BA4F87E024C
:1013C0005A1C0A921A4612F8031B0A929A7884F859
:1013D000841284F885221A1D0A92DA78063384F87A
:1013E0005A2213F8022CD4F888428BF80B200A9367
:1013F0000AA809F047FE2080FFF79DB800240AA83C
:1014000009F040FEC74B23F814000134082CF6D134
:10141000FFF791B80D2B40F0098315F801BC0A9530
:10142000BBF1070F00F20283D4F89C310AA80393A2
:1014300009F028FE0C2202FB0BFB039B23F80B0098
:10144000D4F89C310AA8039309F01CFE039B5B446B
:101450005880D4F89C310AA8039309F013FE039B2B
:10146000D4F89C215B4498800A9B93441A46591CEB
:101470000A9112F8021B0AA88BF806100A925B78F0
:101480008BF8073009F0E8FDCBF80800FFF753B8F8
:1014900015F8013C0A950F2B00F3C88216F8012CB1
:1014A000C3EBC3039B448BF8A0216A788BF8A1217E
:1014B000AA788BF8A221EA788BF8A3212A798BF8F5
:1014C000A4216A798BF8A521EA1D0A92AA798BF8E2
:1014D000A6210EF0EDFBFFF72EB80AA809F0D2FD09
:1014E000A4F82C040AA809F0CDFDA4F82E040AA83B
:1014F00009F0C8FDA4F83004FFF71DB8D4F834444F
:1015000015F8013C0A9523700A9B0AA85A1C0A92F6
:101510001B7863700A9B5A1C0A921B78A37009F00F
:10152000B1FDE080FFF707B87F480AF077F9FFF7D1
:1015300002B815F8013C0A9784F8383416F8013CD3
:1015400084F839346B7884F83A34FEF7F4BF082312
:10155000079A013B511C079113F0FF034FF0000164
:101560001170F5D1FEF7E7BF704B1B785C073EF5B5
:10157000E2AF0CF0C3FD1CE06C4B1B7858073EF546
:10158000DAAF4FF4C873A4F8B635FEF7D4BF674B93
:101590001B7859073EF5CFAF94F88C3243F0040323
:1015A00084F88C32FEF7C7BF604B1B785A0700F1F6
:1015B0003D820FF0F1FB0CF0BBFEFEF7BCBF07F065
:1015C000C7FEFEF7B8BF15F8013C23B194F88C3282
:1015D00043F0020303E094F88C3223F0020384F812
:1015E0008C3216F8013C0AA884F88D320A9609F06C
:1015F00033FDC4F890020AA809F02EFDC4F8940245
:101600000AA809F03FFDA4F898020AA809F03AFDDB
:1016100094F8A232A4F89A0243F0020384F8A232AA
:10162000FEF789BF15F801CC0AA8CDF814C00A95B9
:1016300009F012FD04900AA809F00EFD03900AA813
:1016400009F00AFD83460AA809F01CFD0AA809F062
:1016500019FD0A9BDDF814C001330A93039A04991B
:10166000BCF1000F15D11020C4F8A412C4F8A822B0
:101670000FF01AFB94F88C3243F0010384F88C329B
:10168000BBF1000F3EF457AF294BC3F8B4B2FEF7DD
:1016900052BFBCF1100F7EF44EAFC4F8AC12C4F8C8
:1016A000B022BBF1000F02D0214BC3F8B4B22148E5
:1016B0000223011D84F8B83507F0F8FBFEF73BBFA5
:1016C00000230AA8C4F8083309F0C6FCD4F808338C
:1016D0001843C4F80803FEF72EBF0AA809F0D2FC8D
:1016E000A4F80C030AA809F0CDFCA4F80E030AA87C
:1016F00009F0C8FCA4F81003FEF71DBF15F8013C63
:101700000A95002B40F0928116F8013C84F82C31A8
:101710006B7884F82D31EB1C0A93AB7884F82E316A
:10172000FEF709BF520F002010D001082A3C00200C
:10173000B4090020600C0020D4920108C8250020C4
:1017400015F8014C0A95012C00F370810AA809F0E4
:1017500099FC0BEB840BABF812030AA809F092FC7E
:10176000ABF81403FEF7E7BE15F8013C0AA884F8AD
:101770003D3216F8013C0A9784F83C326B7884F8C5
:101780003E3209F07FFC0A9BA4F840025A1C0A92E0
:101790001B7884F84232FEF7CEBE15F8013C0A955C
:1017A00084F83031FEF7C7BE994C15F8013C0AA801
:1017B00023720A9509F066FCA0820AA809F062FC6F
:1017C00020820AA809F05EFC0A9B60825A1C0A92D9
:1017D0001B78A3720B9B9B1A012B7EF7ACAE0AA859
:1017E00009F050FCE0820AA809F04CFC2083FEF7C7
:1017F000A2BE15F8013C0AA884F87C3216F8013C18
:101800000A9684F87D3209F03DFC0A9BA4F87E021A
:101810005A1C0A921B780AA884F8803209F032FC1C
:101820000A9BA4F881025A1C0A921B7884F883321E
:10183000FEF781BE15F8014C0A95112C00F3F680D5
:1018400016F8012C64000BEB040383F81A230AA892
:101850000A9609F017FC40F2ED23984205DD40F6A8
:10186000CA039842A8BF184601E040F2EE20A0F259
:10187000EE20192390FBF3F0A3448BF81B03FEF733
:101880005ABE15F8012C624B0A95DA72FEF753BE68
:1018900000230A9A511C0A9111785D4A9954013328
:1018A000082BF6D1FEF747BE5A4B1B785B073EF577
:1018B00042AE15F901BC0A9558460EF0FDFB08B181
:1018C000436873B9032300220093019258464FF4F2
:1018D00000614FF4E1330EF092FDC4F8BC0510B97D
:1018E000A4E0C4F8BC354C4A8EE0072293FBF2F228
:1018F000C2EBC202934240F099800A9A0B9B9B1A5A
:10190000062B7EF718AE531C0A9312780023434C23
:1019100004EBC304A1788A4207D1A2700AA809F097
:10192000B1FB631DA080093403E00133052BEED128
:101930007CE00A9A511C0A91127803F8012FA34205
:10194000F7D1DAE722F824000134102C8BF802E0FA
:101950008BF803300BF1040B3EF4EDAD0B9B0A9AB0
:101960009B1A032B7EF7E7AD0AA809F08BFB0A9BB5
:10197000B0F5B47F03F101020A921A4612F802EBA5
:101980004FEA84010A925B78254ADBDB002350187A
:10199000535243804AE0052B0A9515F8014C45D176
:1019A0001F2C43DC0AA809F057FB0BEB840BCBF888
:1019B0007C0310F093FCFEF7BEBD2046631C0A9327
:1019C00010F802EBE21C0A9063780A92A0780F28C4
:1019D0002CD8BEF1050F0DD8052B27D8062202FB07
:1019E0000EB2134483F8FC030A9C0B1B022BE4DCAD
:1019F000FEF7A1BDBEF1060F18D10A2B16D85B4425
:101A000083F82004F0E7074A074B1A60FEF793BDFE
:101A1000C82500202A3C0020A5060108F825002042
:101A20007C0A0020790D0108FC3B00204FF0FF33B9
:101A3000ADF82630079B4846089307A916AB0793D5
:101A40000EF0B8FD002305F8053C264C23681BB1B9
:101A5000484698470023236015F8053CE3B955F83C
:101A6000093CCBB1BAF1000F16D156AA0E924FF62F
:101A7000FF7216AC0D94ADF83C20ADF83EA00DA859
:101A8000984730B10D9B48460DA90E930D940EF06A
:101A900091FD002345F8093C503650355037B8F1D8
:101AA000000F1BD14FF00108FEF73ABB079B07A8B8
:101AB000591C07911A7034F8011C09F00CFB2246DE
:101AC0000023079912F8010F013301F1010E042BD5
:101AD000CDF81CE00870F4D1FFF787B957B0BDE826
:101AE000F08F00BFFC3B00202DE9F04F8BB006F0DB
:101AF00003FDC14B1E78002E41F0C482BF4D2B6800
:101B00005C0541F1BF82BE4BBE4C1B68DFF83883D9
:101B1000DF882378002B00F0F481D8F80020636878
:101B2000D31A7C2B40F2ED81237A62600133237259
:101B300006F12400C0B206F093FCB34B53F8260024
:101B40004FF47A735843B14B01361B8990FBF3F085
:101B500000B206F073FC032EEAD1302006F080FCC0
:101B6000AB4BDFF8A092B3F9000006F067FC06F07B
:101B70006FFC237A980733D141F28833D9F80420D7
:101B80009A421AD9102006F06BFCD9F80C00642692
:101B900090FBF6F000B206F051FC212006F060FC4C
:101BA000D9F80C0090FBF6F306FB130383EAE3700D
:101BB000A0EBE37000B206F041FC142006F050FCEC
:101BC000944BB3F904000A2390FBF3F006F036FCC3
:101BD0001C2006F045FC002006F030FC06F038FC26
:101BE000237A590740F06881022006F039FC854BC2
:101BF0004FF0050918696423323090FBF3F000B20E
:101C000006F01CFC844B0320B3F9066006F028FCA8
:101C100096FBF9F6814BB6B21B785A070AD53846BF
:101C20000AF008F920B92B6813F0100F18BF00262E
:101C300030B204E07A4B9888B0FBF9F000B206F0BD
:101C4000FDFB2B689B0773D5A37DDFF8B891754F1B
:101C500033B3DFF8F8A13A889AF80010642303FB45
:101C600002124B00B2FBF3F3B9F8186006203601FC
:101C7000B6B246EA0326B6B2C3F303231E4306F008
:101C8000EFFB30B206F0DAFBB9F818309AF8001022
:101C900001339BB293FBF1F201FB1233A9F8183028
:101CA00094F82630012B05D1392006F0D9FBB7F97D
:101CB00000001BE03E886E235E43152796FBF7F677
:101CC0003A20B7B24FF0640906F0CAFBB7FBF9F649
:101CD00030B209FB167606F0B1FB3B2006F0C0FBE4
:101CE000B0B2461D0A2096FBF0F000B24C4F06F051
:101CF000A5FB4D4E97F80690282006F0B1FB56F84C
:101D000039300A2093FBF0F000B206F097FB042074
:101D100006F0A6FBBB8813B108F0C6F905E0BB7955
:101D200006EBC306706880F3100000B206F086FB75
:101D30003E4B1B689F0640F1B4803D4F3B789E07A9
:101D40001FD5DFF80C91112006F08AFBB9F80000CE
:101D50004FF4F3667043374B90FBF3F000B206F09C
:101D60006DFB192006F07CFBB9F8000046436420A7
:101D700096FBF0F696FBF0F300FB136000B206F062
:101D80005DFB2D4B01201E883B7813F0020F08BF2E
:101D9000002606F065FB30B206F050FB092006F085
:101DA0005FFB002006F04AFB244B1E78244B1A8868
:101DB000B2F5967F09D9237A03F00F03072B04D8D5
:101DC00042F20F76964228BF1646052006F048FBE1
:101DD00094F825300BB930B244E0A6F1200013F09E
:101DE0002FF8184913F034F90021064613F01AFAB7
:101DF00080BB4FF07C512FE0283C0020A025002024
:101E0000E80D0020341300201C0B0020100B0020D4
:101E1000E80B0020DC0B0020603500202A3C00206D
:101E2000F00B0020F80B0020FC0B0020F80A00202B
:101E3000400C0020A08601004C0C0020410C00202A
:101E4000140000206666E63F502300209C0300201B
:101E50004E0C00204FF03F41304612F03DFF13F092
:101E600009FA00B206F0EAFA3B78980704D494F82D
:101E70002830C44E012B04D1012384F82830C248F5
:101E800016E0C249F06913F02FF813F0F3F9BF49D7
:101E90000290306A13F028F813F0ECF9039002A8CE
:101EA00006E0BB4A02AB92E8030083E80300184651
:101EB00006F0E6FA06F0CCFA237A282B21D1B14BB2
:101EC0000022D8F800001A724FF47A73B0FBF3F7CF
:101ED0004FF03C09172006F0C3FAB7FBF9F6B6FB42
:101EE000F9F009FB1060000200B206F0A7FA182012
:101EF00006F0B6FA09FB167000B206F09FFA06F07B
:101F0000A7FA94F829309F4E002B00F076810EF04E
:101F100055F8F36A9F4AC31A9342074640F2C980B4
:101F2000002386F8323086F834309B4B96F86010E8
:101F30001B88DAB21B0A86F84E2086F84F3086F8E6
:101F4000442086F84530F26DD8F800309A1A4FF4E4
:101F50007A734B439A420DD3904B1B68F365904BB9
:101F60001B78013B012B9FBF102386F832300223E0
:101F700086F834308B4B8C499B790A2051F83320FA
:101F800001EBC3014B6892FBF0F293FBF0F384F892
:101F90004C20121284F84D2084F85030834A1B12D2
:101FA00084F85130824B12781B789107754E84F873
:101FB0007B3003D42D2386F87C3079E0042B8CBF52
:101FC0003323322386F87C306F4B7A4AD3F800A053
:101FD00058689AFBF2FB784B4FF0060903FB0BA6FF
:101FE00009FB06F675494FF0640896FBF1FE01FB0C
:101FF0001E6696FBF8F684F86D60361284F86E6003
:1020000090FBF2F603FB060309FB03F393FBF1F2EB
:1020100001FB123393FBF8F351B206EB860202EB9D
:10202000820201EB820284F872301B1292B284F8B1
:102030007330634B84F87020120A84F871201A8878
:10204000242353434FF47A7293FBF2F384F86830FD
:10205000C3F3072384F869305A4B0BEB8B0B1B88B7
:102060004FFA8EFC84F874301B0A84F87530564B96
:102070000BEB8B0B1B880CEB8B0E03F5FA739BB2EF
:1020800084F876301B0A84F87730504B1FFA8EFEA6
:102090001B884FEADA7A84F86BE0C00F4FEA1E2EF5
:1020A00084F86AA084F86CE084F86F0084F87D30CE
:1020B000E76294F88D90334EB9F1000F0FD1D6F846
:1020C00094000EF053FA012809D90228DFF80081A4
:1020D00000F02D8706F0A4F9012388F80230D4F827
:1020E0009860284B002E00F0888093F88D203AB13C
:1020F00040F6B731D3F8A020BA1A8A4216D87CE04D
:10210000012283F88D20D3F8A420D3F8940012780C
:10211000022A04D80430022106F06CF902E0022100
:102120000EF06AF9002384F8A83064E093F89C204C
:10213000AAB9C3F8982083F88D20D3F8A420D3F847
:1021400094001278022A04D80430012106F052F9D2
:1021500002E001210EF050F906F062F94BE0013A7D
:10216000D2B283F89C2093F8A81093F8A9008ABBF8
:1021700001304A1C83F8A90083F8A820D3F8940002
:1021800037E000BF34130020440C00208096184B29
:10219000049401083F0D0300F80B00205023002099
:1021A000DF0D0020F00B0020FC0B0020400C002075
:1021B000410C002080969800806967FF40420F0024
:1021C0004E0C0020520C00204C0C0020540C00201F
:1021D00014000020324612F801EB01300EEB01062C
:1021E000714683F8A900D3F8940083F8A860C3F877
:1021F00098200EF0BEF9C4F8A070BC4E94F8AA2046
:102200003768BB4B002A00F01882D3F8AC20002AB4
:1022100000F0138293F8B030013B012B00F20D82E5
:10222000D4F8AC00DFF8C8820EF0A0F9E0B1D8F81D
:10223000AC000EF098F998F8B13081467E2BD6F8B4
:1022400000A00ED102231B2888F8B03009D1D8F89D
:10225000AC000EF08BF920B90123C8F8B4A088F8BF
:10226000B83084F8B190DBE7D8F8B42033689B1A13
:1022700041F6583293421FD9032388F8B030DCE18D
:102280009C4A32F8130010B903464FF4036001333F
:10229000B0F5C06FDBB200F0C7801ED9B0F5006F9B
:1022A00000F0CF8034D9B0F5036F41D184F8B93054
:1022B000914B1B689B064AD494F8B81094F8B93037
:1022C000002900F0B8813268D21B012AD8D984F8DD
:1022D000B930002384F8B830AFE1B0F5047F41D0C5
:1022E0000AD8B0F5887F00F0DE80B0F5007F7BD0A3
:1022F000B0F5807FE4D186E0B0F5806F00F0148106
:10230000B0F5826F00F04781B0F5407FD8D132E060
:10231000B0F5E26F00F0D980B0F5E46F00F0DA803C
:10232000B0F5E06FCCD184F8B930744B1968D5E0C2
:1023300004D8B0F5026F00F05881C1E7B0F5046F22
:1023400000F0BB80B0F5116F00F06081B8E76C4B16
:102350001B789907B0D56B4B19884FF4F3634B4347
:1023600064215FE184F8B9302B689A07A4D5664BE5
:102370000A211B8848E184F8B9302B68DFF87081A6
:102380009B0799D598F81630002B95D05E4BDFF857
:1023900094911B8899F8002003EB830303EB8303DC
:1023A00002EB830351009BB293FBF1F398F8BA1050
:1023B00002F00F02C3F30B0342EA031301F00F0113
:1023C00041EA031105F0E2FF002388F8B83098F8DD
:1023D000BA3099F800100133DBB2B3FBF1F201FB24
:1023E000123388F8BA3067E784F8B9302B681905DA
:1023F0007FF562AF454B9A79454B53F832100A236B
:1024000091FBF3F110E184F8B9303B4BDFF8E08049
:102410001B685A077FF550AFD8F80C1005F0B6FFCF
:10242000002388F8B83047E784F8B9302B681B05DB
:102430007FF542AF354B9A79354B03EBC2035968B0
:10244000F2E02D4A84F8B930126891067FF534AF76
:102450002B4A127892077FF52FAF13F0010F2D4B07
:1024600010D05A68192182EAE273A3EBE27303EBFE
:102470005303B3FBF1F3002A43F0004110DA43F0B9
:1024800040410DE01B68192283EAE371A1EBE3717F
:1024900001EB5101B1FBF2F1002BB8BF41F08041DB
:1024A0004FF4006090E084F8B930134B1B685B0771
:1024B0007FF502AF184B1968B6E084F8B930174BB6
:1024C0000A21B3F9043059437EE084F8B9300B4B4C
:1024D000596803E084F8B930084B996864234B438A
:1024E0000F4A118993FBF1F16EE000BF50230020E9
:1024F000341300202AB30108F80A00201C0B002026
:10250000400C00204E0C0020F80B0020F00B0020A7
:10251000FC0B0020440C0020E80B0020DC0B00200A
:10252000100B00209C03002084F8B930904B42F23D
:1025300011711A7842F2107312F0010F08BF194698
:10254000900748BF023153078A4B48BF04311B88AC
:10255000D80748BF0A319A0748BF143113F4106FE7
:1025600018BF2831580748BF64311A0748BFC8311F
:10257000980548BF01F5C8719A0648BF01F57A7100
:10258000D80648BF01F5FA615A0648BF01F57A61DD
:102590004FF4806018E084F8B930774B1B6813F073
:1025A000200817D0754B1A7812F0020F14BF4FF4A1
:1025B0007A71002112F0010F714A14BF4FF4FA63CF
:1025C00000230B441178194405F0E0FE002384F841
:1025D000B83071E62B681B067FF56EAE414605F0FC
:1025E000D5FE684B83F8B88066E684F8B930624B54
:1025F0001B6899067FF560AE604B1B789A077FF5E4
:102600005BAE614B64211B8859430DE084F8B930FF
:102610002B689B077FF550AE5C4B5D4A19880A23F7
:102620004B43117893FBF1F105F0B0FE554B0022BE
:1026300083F8B82040E684F8B93094F8BB30DFF86E
:102640004481002B00F00D81D8F8BC30002B00F045
:1026500008813768D8F8C030FB1A632B40F201813B
:10266000DFF838A1412005F079FEBAF902004FF0F9
:102670000A0990FBF9F080B205F067FEBAF9000094
:1026800090FBF9F080B205F060FEBAF9040090FB0F
:10269000F9F080B205F059FE05F02CFE98F8C480E0
:1026A00018F0010842D0344B1A689B4612F0200FF4
:1026B00000F0AA80314BDFF8C8901B7813F0020FAE
:1026C00008D099F80030052B34BF4FF002084FF0C6
:1026D000030801E04FF00108DFF8C4A0472005F02F
:1026E0003DFEDAF8000005F01FFEDAF8040005F000
:1026F0001BFE284B4FF0640A1888B0FBFAF0C0B2FA
:1027000005F002FEDBF8003013F0140F0BBF1E4B78
:10271000214B1888186808BF0AFB00F005F004FE7A
:1027200099F8000048EA8000C0B269E0114B1B88AC
:10273000D90539D4DA060FD4980610D4590611D425
:102740001A0712D4D8072DD413F0020F14BF4FF07C
:1027500003084FF0010827E04FF00D0824E04FF088
:10276000090821E04FF004081EE04FF008081BE0C4
:102770002A3C0020FC0A0020F80A0020400C00201F
:10278000410C0020341300204C0C0020F80B0020DA
:102790009C0300204E0C0020E40B0020DC0B0020EA
:1027A000440C00204FF00208C24B93F80090C24B3B
:1027B000C9F38009DB781BB149F002095FFA89F996
:1027C000532005F0CBFDBD4B188800EB800000EBDB
:1027D0008000800080B205F0B8FD002005F0B5FD56
:1027E000B74B1888FE23584340F2FF3390FBF3F0B9
:1027F000C0B205F089FD002005F086FD49EA880099
:1028000005F082FD05F076FD94F8C480B8F1000F64
:102810001AD1DFF8D8924F2005F0A0FDD9F80000BA
:1028200005F082FDD9F8040005F07EFD404605F074
:102830007BFD012005F068FDA24B187800F0010037
:1028400005F062FD05F056FD94F8C4300A2101330D
:10285000DBB2B3FBF1F201FB1233C4F8C07084F8B1
:10286000C43094F8C530002B00F02B83964B1B68C6
:10287000002B00F026830DF0A1FB44F61F62934B62
:102880000746D3F8C830C31A934240F21A83022095
:1028900005F006FD002800F0878048F603418C4BC8
:1028A000D5F800C01A6849F6074312F0080F08BFB0
:1028B0000B46510744BF43F4005343F0080390060E
:1028C00048BF43F48043834848BF43F020031CF0D3
:1028D00002028179054616BF784810460088C3F386
:1028E000090E1FBF00EB800000EB8000800080B26B
:1028F0001CF4006F16BFDFF8F8C14FF6FF783CF804
:102900003180CAB1744A95F801A092F800C06B4AB0
:1029100011882A780CFB1A19CAEB0202642101FB08
:1029200009F10CFB02F2B1FBF2F2642AA8BF6422A7
:1029300022EAE272D2B200E06422029303930023FF
:10294000ADF81430ADF81A30ADF81C30ADF81E30CB
:10295000ADF82030ADF82230ADF824305F4BCDF823
:1029600010E08DF82620ADF81600ADF8188002AA08
:102970000DF1200E154603CD7545186059602A46A5
:1029800003F10803F6D128681860A988AA7999800C
:102990009A71534B01227C211F20DA7109F0F2F960
:1029A00009F0D8F909F0C4F9032005F079FC0028F2
:1029B00063D04C4BD6F800A01B78002B00F0F882B7
:1029C000494A012BB2F800E040F2F382022B55880D
:1029D00000F0F082032BB2F804C000F0ED82042B6B
:1029E000D08800F0EA82052BB2F8088000F0E78278
:1029F000062BB2F80A9000F0E482072B918914BFED
:102A0000D289002240F2FF3B2D4BADF81A201B88E3
:102A10000022C3EB032393FBFBF38DF81D302F4BF8
:102A2000ADF80CE08DF81C20CDF808A0ADF80E50E4
:102A3000ADF810C0ADF81200ADF81480ADF81690E6
:102A4000ADF8181002AA0DF1180E154603CD754504
:102A5000186059602A4603F10803F6D12868F4216A
:102A60001860AA8816209A801D4B2322DA7109F07B
:102A700089F909F06FF909F05BF9062005F010FCFF
:102A8000002800F0EB80124B1A689A4612F0200FD3
:102A900000F0E4800B4BDFF85CB01B7813F0020F02
:102AA0002AD09BF80030052B34BF4FF002084FF0BE
:102AB000030823E02A3C002098200020F80B002087
:102AC0000C0C0020400C0020542300203413002064
:102AD000F80A0020F00B00209C030020672400204F
:102AE0005F240020E8250020A4250020580C0020A9
:102AF000FC0B0020410C00204FF001080DF05EFAA5
:102B00009E494FF47A7E0B889D4D0EFB03F2069290
:102B10004FF6FF72029000209BF800B00390ADF8D2
:102B20001C202868ADF81E20964A0DF1080E04906E
:102B30008DF8248068688DF825B08946AB46F0464C
:102B40001546914B0590B3F800C0904BADF820C0EE
:102B50001B880DF1200C03EB83035B00ADF82230E2
:102B6000734603CB6345106051609E4602F1080234
:102B7000F6D11868182110609B881E209380844B22
:102B8000D971019309F0FEF809F0E4F809F0D0F8E2
:102B90000DF014FAB9F800E04FF47A7C0CFB0EFE4D
:102BA000DAF800C0019B1CF0140F99461EBF794B48
:102BB0004FF00A0C1B684FF00A0A18BF0CFB03FC0D
:102BC000754B08BFF446B3F90430CDF814E093FB1D
:102BD000FAF3C646DBF80020DBF804100392ADF8E8
:102BE00022300022674BCDF818C002900491ADF856
:102BF0001C20ADF81E20ADF820200DF1200C7246EF
:102C000003CA624518605960964603F10803F6D17D
:102C100010686821186021231C2089F8073009F00A
:102C2000B1F809F097F809F083F85C4B5A681B6813
:102C30000392029300230493434603CBC9F8080090
:102C40001868696031232721A8600C2089F80730B3
:102C500009F098F809F07EF809F06AF80A2005F002
:102C60001FFB002846D04C4DD6F80090B5F9000067
:102C700012F0E6F84A4912F0EBF94A4912F034F939
:102C80008046B5F90200404212F0DAF8444912F0E9
:102C9000DFF9444912F028F90646B5F9040012F0AC
:102CA000CFF83F4912F0D4F93E4912F01DF9002344
:102CB000069307930893334B0496CDF80890CDF80C
:102CC0000C80059002AD08AE2A4603CAB2421860D5
:102CD0005960154603F10803F6D1106827211860E2
:102CE0002B4B1E221C20DA7109F04CF809F032F847
:102CF00009F01EF80B2005F0D3FA002800F0DF8061
:102D0000294B0025D3F8008018F020090BD01E4B6A
:102D1000188811F08BFC0022244B11F017FE11F0E3
:102D200085FF064600E02E4618F0140F0AD0194B16
:102D3000186811F07BFC00221C4B11F007FE11F00B
:102D400075FF08E0B9F1000F04D00C4B188812F0A1
:102D500073F800E00020104B0A22B3F9043093FB13
:102D6000F2F2134B92B2B3F90630B3F57A7F21DB5E
:102D7000B3F5FA6FA8BF4FF4FA631DE04C0C0020C6
:102D8000440C0020672400204E0C0020500C002032
:102D90005F240020E40B0020DC0B0020580C0020F6
:102DA0000000204135FA8E3CF80A0020000059400E
:102DB000A42500204FF47A73ADF81820A3F57A7398
:102DC000642253434FF47A7293FBF2F3ADF81A3056
:102DD000AE4B02AA90469A4603960295049005953A
:102DE00006AE154603CDB542186059602A4603F178
:102DF0000803F6D12868A64E1860142001464A231D
:102E0000F37108F0BFFF08F0A5FF08F091FFA14B98
:102E1000B1461D78A04B05F0040505F0FF02002D1A
:102E20000CBF4025C0251B78013BDBB2102B97BFA0
:102E30009A494FF0000B5B1893F808B0984B1B8829
:102E400099071ABF002645F01005012613F4027FEA
:102E500018BF022613F0100F18BF062613F0200F1C
:102E600018BF102632B18F4BDB78002B14BF052220
:102E7000042205E011F036F9002814BF02220322D3
:102E800000238DF80F2003228DF80D308DF81020CF
:102E900002968DF80CB08DF80E50B8E803008AF851
:102EA0000820CAF80000CAF804100920322189F865
:102EB000073008F067FF08F04DFF08F039FFC4F84D
:102EC000C87094F8CC30002B00F0DC80D4F8D0002F
:102ED000754D0DF04BFB002800F0D480D5F8D000E4
:102EE0000DF041FB95F8D43006461BB1013B85F847
:102EF000D430EBE7032205F1D50005F1D60116F039
:102F0000C7F895F8D53095F8D62083F47F4383F041
:102F1000FF039B1A85F8D8609BB2B6B2B6EB132FAD
:102F2000D4D195F8D710DBB28B42CFD14CE098F8D2
:102F300002302BB1C6F8907088F80290FFF7CFB836
:102F4000D6F89030FB1AB3F57A6FFFF4C8A80123C6
:102F5000D6F8940088F802300DF005FB8046D6F8CC
:102F600094000DF000FB18F07F0F7FF4B8A88A28BA
:102F700003D08E280ED0FFF7B2B84C4B1B689A06D0
:102F80007FF5ADA896F88D30002B7FF4A8A806F148
:102F9000610306E096F88D30002B7FF4A0A806F1BF
:102FA0003003C6F898302D2386F89C30FFF797B889
:102FB0009E4600254FF0000C00204FF000084FF017
:102FC000000900210A461DE595F8D93002F00F00EE
:102FD00013B908B185F8D90094F8D930324D984228
:102FE000FFF474AFC31AD9B202293FF66FAF02F0F3
:102FF000F002802A09D160F07F0004238DF80900D7
:103000008DF8083002A8022112E0902A13D106227E
:103010008DF80820214A60F06F0013445B7E8DF824
:1030200009008DF80A3002238DF80B3002A8042124
:1030300005F0F6F84AE7A02A7FF448AF174A134490
:103040005B7E022B19D0032B0AD0012B7FF43EAFFD
:1030500029690A23053191FBF3F101F5C8710AE0F2
:10306000134B19880A23594395F8DA301BB1114BD9
:103070001B7891FBF3F189B201E00F4BD98805F081
:10308000FBF823E70BB0BDE8F08F00BF67240020FA
:103090005F2400202A3C0020E40A00200494010858
:1030A000FC0A00209820002034130020F80A002099
:1030B000F80B00209C030020603500209C492DE97E
:1030C000F04F0A689B4F02F59C4320333B609A4BBC
:1030D00089B01D788A46ADB1984909688A4240F2A4
:1030E000FB80013D1D70F7E0072C96BF944A2146F6
:1030F000A15C5B6893489847032C0AD907EB44040A
:10310000A08001358F4BECB21A781946A242EBD859
:103110001EE00028F2D08C4A4FF47A7332F8241063
:1031200002EB8402401A584353885B1A90FBF3F079
:1031300040F6C90300F57A70984205DC40F2EE23B0
:103140009842B8BF184601E040F6CA0080B2D5E701
:1031500042F201057D4B1B681D40B5FA85F57C4B9D
:103160006D091A6835B997F8293087F82830794BF6
:103170005878187097F828601EB1764B1E7886F044
:1031800001060F2387F82A306D4B91F80090B3F8B1
:1031900016B01B8B0321019397F82B30DFF8C88101
:1031A000B3FBF1F101EB4101591AC9B202910024BC
:1031B0004C4554DADFF8B4E13EB3AEF1700131F8BA
:1031C0001400584502D30199884222D95EF82400A0
:1031D0005849824203D2604931F814001DE0E0B240
:1031E00004930392059106F087FF032C039A049B36
:1031F00013DC05994FF0010C91F82AE00CFA04FC5D
:103200002EEA0C0E81F82AE007E0BBF1000FDDD1B9
:10321000584602F596714EF82410CDB9029928F857
:103220001100444991F8BCE0BEF1000F04D1022B1B
:103230000ED9012081F8BC00B8F80010B8F80200DF
:103240000844B8F80410084480B20321B0FBF1F040
:10325000414908F1060821F814000134A8E797F85D
:103260002A203B49A2F10F067242724187F8BD2025
:103270003A4B92B13A4A1268550103D5334A126863
:10328000D4050AD40A689A60DB68D21AC82A1ED903
:10329000324B012283F8212019E02E4A0120507080
:1032A00010700A689968DA605B68521A9A4282BFA5
:1032B0002A4B002283F8212000244C4507DAE0B293
:1032C00006F01AFF244B23F814000134F5E797F8B1
:1032D0002B30013387F82B301C4B1A68994612F4B7
:1032E000805F05D01E4B1B68D80701D410F0ECFEA0
:1032F000134BDAF80040D87A0193002838D0164AE8
:103300005B7B013832F810001BB1C0F53B60083020
:1033100080B200B2A0F57A70B0F57A7FA8BF4FF402
:103320007A7020EAE07011F08BFD0E4957E000BF83
:10333000003C002010140020942000209020002049
:10334000C8250020E8250020BC200020A025002062
:103350005023002017000020A425002098200020E2
:10336000000B002000007A443C140020841400204C
:10337000D9F8003019043BD5D7F8C030A44DE31A72
:10338000002B35DB04F59C432033C5F8C030A14B3E
:1033900095F8C4105A7AA04B013133F81230019AD3
:1033A0009BB2127B93FBF2F301F00F0285F8C4206D
:1033B0002A4482F8C5300346984A825C013013449F
:1033C00010289BB2F8D11BB293FBF0F000B2642836
:1033D000A8BF642020EAE07011F032FD904911F09E
:1033E00037FE904911F080FD11F06AFF8E4B188076
:1033F000D9F80030DFF854B213F4807F00F0EB808E
:103400008A4B8B4E9C4203D9B2780AB90122B27022
:10341000B278002A00F0DF80854A9BF8005092F8CD
:103420002140C5F38005621E54425441814A002C5C
:103430009046136818BF4FF0000AC3F380630293ED
:1034400008BF4FF0030A96F82020052A00F2BD803D
:10345000DFE802F00346587B8AA6002D34D0764A76
:103460001268D08808F0E6FC012808D1734A744934
:103470001268B1F80510642000FB01223261029B42
:1034800053B16F4A12793AB10DF02EFC032286F83F
:1034900020204FF47A7233E0002C40F09680674A87
:1034A00031691068624A88420AD903920DF01CFC07
:1034B000039A032182F8201040F6B831D161C2E7A7
:1034C000012182F82010BEE7029B4FF4806013B107
:1034D0000DF0FAFB01E00DF0E7FB0022326174E031
:1034E000002C54D1564AD279012A02D00DF0FCFBAF
:1034F000A9E70DF0F9FB032286F8202040F6B83248
:10350000F261A0E724B1052286F82020012000E026
:10351000204675B1019B4B491A8A494B0A804A8063
:103520008A809A7893F803E04FF0020A42EA0E226A
:10353000CA80424A11687269914201D8002D41D176
:1035400047F23052F261032222E09BF8002042F061
:1035500002028BF8002010F0B7FD384AF1691268BA
:103560000A44B261042213E0344AA4B11168B2697A
:1035700091422AD9344A12781AB9D8F80020D307D0
:1035800023D49BF8002022F002028BF800200522B1
:1035900086F8202057E71268F1690A44B26114E006
:1035A000264A27491268B1F80510642000FB012261
:1035B0004FF480603261002286F82020F2700DF016
:1035C00073FB40E700287FF43EAFBAF1000F02D052
:1035D00050460BF013FC184B1B68D88808F02AFCE7
:1035E000019B064617481B8AB0F9022003F10B0124
:1035F000914202902CDB0B3B934229DCB0F9002076
:10360000914225DB9342CCBF0023012321E000BF80
:10361000101400207820002088200020D5140020DD
:103620000000C84200C07F440C0C0020404B4C00FE
:1036300098200020000B0020E80D002050230020DF
:10364000300C0020A4250020350000202A3C00205A
:10365000002386B9944A1268150112D5934AD2788C
:103660007AB99BF8002054070BD523B1904A137800
:1036700043F0200303E08E4A137823F020031370F5
:103680000CE08C4A00238C48136053608B4A002165
:103690000360116043605160836091609BF800306B
:1036A000580732D5D9F80030D9062ED5804B1B7873
:1036B000DA062AD4824B1B7883B1824B9B789EB961
:1036C0006BB1814B1A68D7F8D8309B1A002B06DAF9
:1036D00010F0FAFC7D4B83F8DC6016E06EB9102028
:1036E0000BF08CFB01230EE03BB1774A4FF47A716B
:1036F000126801FB0323C7F8D83097F8DC3023B1F8
:103700000BF062F8002387F8DC306E4B00221D7846
:103710005978019B5C8AB3F814E0134602989B0821
:1037200030F912000132A042C4BF63F07F03DBB264
:103730007045B8BF43F04003042AEFD197F8DD206D
:1037400062489A4205D190F8DE20F92A04D8013265
:1037500000E0002280F8DE20594C87F8DD30237825
:10376000E3B9514B1B68DB0707D5BEB99BF80030A6
:10377000DE0713D510F05AFC10E09BF80030580714
:103780000CD5524B93F8283043B1484BDB782BB91A
:1037900011B110F099FC01E0002EFAD097F8DE305C
:1037A0004A4E142B40F0A1802378003518BF012524
:1037B0003BB396F8DD305F2B0ED19BF8003003F061
:1037C000040303F0FF0813B110F07EFC04E00B20AB
:1037D0000BF014FB86F8DE809DB197F8DD307D2B71
:1037E0000FD19BF8003003F0040303F0FF0613B180
:1037F00010F06AFC05E00B200BF000FB334B83F864
:10380000DE609BF8003003F0040303F0FF01002B9F
:103810006BD197F8DD302D4A572B10D14FF47A73C6
:10382000A2F8E030D9F800301A0601D505F0D4FB33
:10383000274B1B685B0758D50A22264B32E0D9F884
:103840000000460717D55A2B15D192F8E2302BB15C
:10385000012382F8E21082F8E33046E092F8E43087
:1038600083F0010382F8E4300BB10C2000E00D205E
:103870000BF0C4FA39E05D2B00F0F4845B2B00F010
:10388000F3845E2B00F0F284562B01D10DF084FB03
:1038900023781BBB97F8DD30972B40F0C1840E4B8B
:1038A0004FF4C8721A8020E0000B002098200020FE
:1038B000400C00208435002068350020C4380020EA
:1038C000350000200F0C0020502300201014002091
:1038D000F80A0020223C00206A0F002097F8DD3013
:1038E0006F2B40F0958410F0A1FBD9F800305C07F5
:1038F00039D597F8E4309F499F4A9BB19BF8003037
:1039000058070FD5029BB3F90600019B5B8A9842CA
:1039100008DD136813F0010302BF3220A1F8E600AE
:1039200081F8E4301368DA030DD597F8E820914B5D
:103930002AB993F8E22012B93222A3F8E620012333
:1039400087F8E8300FE097F8E2308A4A5BB19BF8DD
:10395000003003F0040303F0FF0123B9012382F8D0
:10396000E21082F8E330854B00261B689C1C03F1B3
:1039700052052278637814F8010C9A4208D2214645
:103980000AF09CFC20B114F8022C012393401E4342
:103990000434AC42EDD1784B1E60794B1B784BB1AF
:1039A000754CDFF800822368764D13F0020F40F06B
:1039B000C781BEE1744B1C6804F148056278A378A6
:1039C00020789A4224D2611C0AF078FC00B3607916
:1039D0000C2242436D4EB3189968A14218D09C60E6
:1039E0002179B15400215960E2785A70E2780C2AAA
:1039F0004FF0010204BF9A700322DA7097F8E920B1
:103A000018BF99700123834022EA030387F8E93045
:103A10000634AC42D2D15E4B5E4ED3F800A05E4B72
:103A20004FF000081B68039397F82830049335780B
:103A3000002D00F07581D6F80330039AD31A002BBD
:103A40000CDB02F5FA73C6F8033097F8E92001237E
:103A500003FA08F322EA030387F8E930049B002BFA
:103A600000F05E8116F8013C72780433DBB2002A64
:103A700040F01A81494A32F91320019B1B8A03F155
:103A8000C8018A4201DDB47814E0C83B9A4202DAE8
:103A9000B47864420EE097F8E920012303FA08F3B2
:103AA00022EA030387F8E930039B03F5FA73C6F8AB
:103AB000033035E197F8E93043FA08F3DB0700F10A
:103AC0002F81002CCCBF022001200BF0BDF96B1E12
:103AD000132B7AD8DFE803F00A0E17202E33406844
:103AE0007979797920293340683D4A7250462146D8
:103AF000FA2203E021460AF10100642208F040FAAC
:103B00000AF0BEFB04E10AF103002146642208F03A
:103B100037FA0AF051FBFBE00AF105002146642266
:103B200008F02EFA0D2D00F0F3800AF10400214672
:103B3000642248E00AF106002146FF22B1E0184B5A
:103B400021461868C822013008F01AFA0F2D00F03B
:103B5000DF80134B186834E0114B21461868C822E7
:103B60000B3008F00DFA102D00F0D2800C4B1868C5
:103B70000A3026E010140020000B00201C0C00204E
:103B8000283C0020FC0A0020200C00203C2D0020B6
:103B9000140C00203D2D002050230020A4250020DF
:103BA000180C0020F80A0020914B21461868C82202
:103BB000153008F0E5F9112D00F0AA808C4B18683B
:103BC00014302146C82208F0DBF9093D1D2D00F212
:103BD0009F80DFE805F00F13179D9D9D9D9D9D9D86
:103BE0009D9D272B2F575B5F5333373B3F43474BFD
:103BF0004F1B1F237E4B186802304EE07C4B186829
:103C00000C304AE07A4B1868163046E0784B18685A
:103C1000073042E0764B186811303EE0744B18686C
:103C20001B303AE0724B1868033036E0704B18686E
:103C30000D3032E06E4B186817302EE06C4B186870
:103C400004302AE06A4B18680E3026E0684B18688A
:103C5000053022E0664B18680F301EE0644B186890
:103C600019301AE0624B1868063016E0604B18688D
:103C7000103012E05E4B18681A300EE05C4B18688A
:103C800008300AE05A4B1868093006E0584B1868AB
:103C9000133002E0564B18681D30002838D02146FA
:103CA000C82208F06DF933E0012A31D1514AB078C9
:103CB00032F91340B4F5617F05DB40F633039C42D3
:103CC000A8BF1C4601E04FF461740C2D20D14FF4C5
:103CD000966393FBF0F0A4F5617494FBF0F4464A0C
:103CE000E4B21378A34213D0032C34BF234600233D
:103CF0001370424A05FB0325414B1D600AF0C0FAD0
:103D00000AF0A4FA0AF058FA601CC0B20BF09CF852
:103D100097F8E920012303FA08F3134387F8E93001
:103D200008F10108B8F1040F06F10C067FF47FAE2C
:103D300036E6D9F80030DE0511D5324BDB7873B1A9
:103D4000D8F8003098070AD52E8816F001060BD156
:103D50002D4B01201E605E600CF0B6FF05E00120D7
:103D60000CF0A2FF012600E00026236859070FD5BA
:103D700076B101200CF098FF2B8803F002039BB270
:103D80004BB9214A0220136053600CF09DFF02E002
:103D900002200CF089FF1D4E2B88B268B18913F008
:103DA000030F14BF51611161D8F8002012F00A0FFF
:103DB00041D02268D2060DD55B070ED404200CF04A
:103DC00083FF134B0A22B3F9043093FBF2F3114A39
:103DD000138002E004200CF067FF236898061BD5CF
:103DE0002B8859061BD440200CF06EFF17E000BF53
:103DF000180C0020A4250020683B0020703B002008
:103E0000140C002098200020843500203823002046
:103E1000DC0B00202A0F002040200CF045FF236817
:103E20005A0641BFAA4B0A22B3F9043093FBF2F3BE
:103E300048BFA7F8EA30D8F800309B0608D42368BA
:103E4000180540F19F804FF480700CF03DFF9DE01D
:103E5000A04B1B78990757D59F4B1B78042B53D940
:103E6000236813F400720ED02B88DA063FD410209A
:103E70000CF02AFF20200CF017FF9848011D05F0D8
:103E800015F802222EE0B5F800A00AF0100A1FFA79
:103E90008AF34BB1102001920CF006FF904B019A6F
:103EA0004FF0010A1A7000E09A4623685B0512D5AC
:103EB000D7F8EC308B495A89B1F90030002BB8BFE4
:103EC0005B42934207DAB1F90230002BB8BF5B4284
:103ED0009342C0F2E9812B8898060AD520200CF085
:103EE000E3FE00227E4B4FF0010A1A7001E04FF012
:103EF000000A97F8F030B3B90E200AF07FFF7A4B32
:103F0000012283F8F0200EE02B8803F03003002B11
:103F100095D010200CF0C8FE20200CF0C5FE704B90
:103F200000221A7002E0BAF1000F88D000229646F3
:103F30006E4B002023F81E006D4B191D03F10A0C77
:103F400021F81E00002142F80C109444CCF8040023
:103F5000CCF8081023F81E0003F1320C5A3342F853
:103F60000C10D15094441344CCF80400CCF8081041
:103F7000586099601432BEF1000F7FF460AF4FF0CB
:103F8000010ED5E74FF480700CF08EFE594B1B7874
:103F9000082B01D00E2B02D140200CF085FED9F861
:103FA0000030590534D5544B1B7823B99BF80030A9
:103FB00013F0040F02E0236813F4002F23D04F4BBB
:103FC00000221A7007F0BAFF814608B3DFF854A147
:103FD000DAF80030834209D1CDF804A00CF022F8C1
:103FE000019B00211846502215F06DF8DAF8503088
:103FF0004B45E7D148460CF015F8002150224048C7
:1040000015F061F8DEE704F077FA08B10CF03EFA3B
:10401000012387F874319BF80030334F13F0040FFD
:1040200003D03368B2885A61A5E022680192D207B2
:104030005EBF344A43F001031370334BD87810F05D
:10404000FFFE324910F050FF07F098FA8146304BDE
:104050004946D3F820A0504611F002F928B99BF840
:10406000003023F001038BF8003010F03BF818B952
:10407000284B1B88642B05D99BF8003023F00103E3
:104080008BF8003010F02EF8C8B9019B5B0119D4F1
:10409000214B93F82030032B14D05046494611F0A1
:1040A000DFF890B11D4B1B78002B3DD1194B1B88BD
:1040B000642B1B4B94BF4FF00009994636E048F241
:1040C000551933E040F6150930E042F255092DE06C
:1040D000DC0B0020400C0020410C0020580C00207C
:1040E0006C0F00206035002010140020243C0020BC
:1040F00002150020E40A002048130020F7250020C4
:10410000040A00202A3C00200F0C002035FA8E3CC7
:10411000483700200A0B002098200020283C00206F
:1041200055050200B409002040F20529C7F878912E
:104130000BF044FFD7F87C31C31A002B1BDD674B13
:104140001A68012A9FBF664AC3F800900021C2F88E
:1041500078111A684AB13168B68812F0010F4FEA37
:10416000520214BF4E610E611A6000F5433000F533
:10417000A070C7F87C01D8F800305E071ED5236810
:10418000180703D408200CF08FFD17E02E8806F0E6
:104190000806B6B296B908200CF096FD514B1A6885
:1041A000514B1A60029BDB88A7F880314F4BDB88AC
:1041B000A7F882314E4B1E604E4B1E60D8F800307F
:1041C000D90640F1878023689A0206D44FF4007024
:1041D00009B0BDE8F04F0CF067BD2C8804F4007402
:1041E000A4B2002C76D14FF400700CF06DFD3D4B65
:1041F0001A683D4B1A60029BDB88A7F880313B4B65
:10420000DB88A7F882313A4B1C603A4B1C6061E0B6
:10421000002D3FF43FAB7E2B7FF43CABFFF763BB3D
:10422000A72B06D1344A137843F004031370FFF729
:104230005CBB0022BB2B079201D1022303E0B72B0A
:1042400004D14FF6FE73ADF81E301AE0BE2B01D13B
:10425000022304E0BD2B7FF448AB4FF6FE73ADF8AC
:104260001C300EE0012002E0022000E00320C4B276
:10427000601EC0B20CF082FE20460AF0E5FDFFF79A
:1042800034BB1E4BBDF81C101B681A880A441A80E8
:10429000BDF81E105A880A445A800CF07DFE002397
:1042A00087F8DE30FFF721BB2B889B063FF521AE58
:1042B00020200CF009FD124B12481A685B68011DA2
:1042C0004360026004F0F2FD0F4B4FF0010A83F8E7
:1042D00000A00EE609B0BDE8F08F00BF1C2E002044
:1042E00010140020E40B0020680C00206035002032
:1042F0001422002018220020400C0020B80C0020BE
:10430000440C0020600C00206C0F00202DE9F04FC1
:10431000974F00233B70974B97491A687B687A60E8
:10432000D31A3A7A9BB2042A08BF944A97B008BFBE
:1043300013800B800BF042FE914B924E1A88924BE9
:1043400000961D68914B04461868914BB046196859
:10435000904B1B68A8473D7A042D04D10BF02EFE2C
:10436000864B001B98800BF029FE012D039008D18D
:104370008949FB68814A0968C31A93805B1AD38014
:10438000F860864B8649DB78864A0493864B1C7816
:10439000032C14D98E88B6F5FA7F10D2834BB2F96C
:1043A00004E0B3F904507042002DB8BF6D42431BC6
:1043B0009E4503DB73197345A8BF734693807C4BFE
:1043C0001D6815F000650DD191F90270774B7942A7
:1043D000B2F90470DB88B2F80290B2F800A04F4343
:1043E000744E70E100263546B34691F90290538829
:1043F000C9F10001B2F90490B2F800A009FB01F97B
:10440000DFF8CC81A34539D218B2069310F018FD1D
:10441000D8F8081010F068FD05900FFA8AF010F037
:104420000FFDD8F8041010F05FFD059A0146104604
:1044300010F052FC0590484610F002FDD8F80C1020
:1044400010F052FD059A0146104610F045FC10F0A0
:1044500011FF0FAA80B222F81B0029B202B28A42D1
:10446000069B03DC31B28A4202DB28460546304611
:104470000BF1010B08F110080646C3E74E4BC6EBE3
:10448000050A1A681FFA8AFA12F4805F9946DFF863
:1044900044812FD0494B1B7813F0040F394B08BFD0
:1044A0001A8A1C8A464B08BFA7F8D0201B68454AC9
:1044B000D688DA8830B2A11A8842434B03DC1D88C3
:1044C000B8F8004005E02244904205DBB8F80250FD
:1044D0005C88A7F8D06013E0B7F9D0208A42D7BF34
:1044E0001D885C88B8F800402E46C4BFB8F802505A
:1044F000264605E02D4BB8F80040DE88B8F802509B
:10450000ADB21FFA84FBCBEB05040FFA8AFA24B292
:10451000A2452E4B60DD01221A70204610F090FC5F
:104520000546504610F08CFC0146284610F090FDE0
:1045300005464FF0000A1C4B1B789A4510D20FAB72
:1045400033F91A00059310F07BFC294610F0CCFCDF
:1045500013F0CEFC059B23F81A000AF1010AEAE7E2
:10456000022094FBF0F00BEB0004A4B225463EE0E1
:10457000B8150020003C0020203C0020AE0C00209C
:10458000E82D0020C82500208C030020180C0020F6
:10459000140C0020B80C0020103C002098200020B3
:1045A000E40A0020CC350020D23500206035002000
:1045B000000B0020D4150020A02500202A3C00205C
:1045C000E80D0020A4250020E00D00207435002017
:1045D000C8150020240C002000221A7002239AFB28
:1045E000F3FA0BEB0A04CAEB0505A4B2ADB2D9F895
:1045F0000030B8F8042003F480530993B7F9D030A1
:10460000A74F0593A74BB8F802B01B8AB8F80090E3
:104610000693A54B4FF000081B680793A34B19881E
:104620005B880891A24991F800A04FEA4A0AD04558
:1046300000F01B810FA938F801C030B20C920B9327
:10464000CDF828C010F0FCFB9A4951F8381010F052
:104650004BFC10F00FFE21B28842DDF828C00B9B06
:104660000C9A03DB29B28142A8BF01468C4404990D
:104670001FFA8CFC27F802CF0FFA8CFC19B1944575
:1046800017DA94461AE0099989B107990698C988FA
:10469000411A0598884206DCCC450EDB08998C450A
:1046A000A8BF8C460AE09C4503DA9C4606E0CC4550
:1046B00003DBDC45A8BFDC4600E0CC46A7F800C021
:1046C00008F10208B3E7A542DFF8FCB137D218B20F
:1046D000069310F0B5FB56F80C1C10F005FC059085
:1046E0000FFA89F010F0ACFB56F8041C10F0FCFB3C
:1046F000059A0146104610F0EFFA05900FFA8AF07D
:1047000010F09EFB56F8081C10F0EEFB059A0146CF
:10471000104610F0E1FA0590384610F091FB56F87B
:10472000101B10F0E1FB059A0146104610F0D4FA78
:1047300010F0A0FD069B2BF815000135C3E7BBF870
:1047400000100122A2420BB207D23BF91210013233
:104750008B42B8BF0B4699B2F4E7574AB8F81070CD
:1047600050888342554BC8BF091A1B68C8BF89B21D
:1047700003F480520B92524A03F0100392F8019016
:10478000504A0C93B2F90650474AD8BF002112682C
:104790000592464AB2F800A0B2F802E01FFA8AF287
:1047A0000792454A1FFA8EF6B2F800C00696968820
:1047B000B8F812201FFA8CF30892434A0A93B3B256
:1047C000099302EB44030D930D9B9A424DD013883D
:1047D0000B9C5B1A9BB222F8023B04B3B9F1000FA9
:1047E00009D1059CB4F80680C8EB070B5D4502DDD6
:1047F000B84445450CDBBD421BB203DD734514DAFA
:1048000073462FE0B34214DB5345A8BF534629E05B
:10481000BD42CCBFBDF81830BDF81C3022E0049C6E
:104820004CB132F9023CB34203DB8342A8BF0346DA
:1048300018E0334616E01BB2634503DB8342A8BF92
:10484000034600E0634622F8023C089B9D42BBDA27
:104850000C9B13B1BDF8243004E0B9F1000FB3D1C3
:10486000BDF8283022F8023CAEE7184B1A7802F067
:10487000040202F0FF033AB1114B1B78013BDBB29B
:10488000182B00F2388125E0094A12789342F3D2BE
:104890000F4931F813000C4921F813000133F5E7F3
:1048A000C20B0020C8250020E80D0020E00D0020EC
:1048B000D2350020C8150020240C0020A02500209F
:1048C000E40A0020A4250020C40B00202A3C00207C
:1048D000520F002001229A40BC4B1340002B00F0E5
:1048E0000A81BB4BBB481B88BB4913F4807F08D0AF
:1048F000BA4B1A88ADF83C205A889B88ADF83E2008
:1049000013E0B74B1A88ADF83C205A889B88ADF865
:104910003E20B44AADF840301268D20407D5B1F950
:104920000640028A944202DA5B42ADF84030AE4D56
:104930004FF47A72B5F902304FF4616403F5E16324
:10494000534393FBF4F3A3F5FA73ADF85430B5F980
:10495000003003F5E1635A4392FBF4F2A34BA2F556
:10496000FA721B88ADF85620A3F2DC53ADF8423042
:104970000A88038AD21AADF844204A88D21AADF8C0
:1049800046208A88D21AADF84820CA88D21AADF8D3
:104990004A200A89D21AADF84C204A89D21AADF8B9
:1049A0004E208A89D21AADF85020CA89D31AADF8A0
:1049B000523000238E4A002122F813100133082BB5
:1049C000F8D18C4B8C491B688C4D04938C4BD3F8DD
:1049D00000B08C4B1B78C3EBC30301EB03084145CC
:1049E00071D00B7833B11533DAB201239340049AB6
:1049F000134064D011F806EC0C2707FB0EB7B7F98B
:104A00000020B7F9023064209B1A11F9022C9BB2E6
:104A10005A4392FBF0F211F805AC4FEA530911F832
:104A2000034CC9EB02024FEA4A0616A892B211F8EB
:104A300001CC064414B936F81C0C0CE0B5F90000A2
:104A400036F91C6CB04208DA0444844203DBA64207
:104A50003046A8BF2046288008E007DD041BB4428A
:104A600003DB8442A8BF044626462E80BC68012092
:104A700000FA0AF02042B5F9006011F9040C12B2F4
:104A800000FB06F04FF0640690FBF6F014BF4FF009
:104A9000FF34012490420ADB4FFA8CF25A4392FB16
:104AA000F6F2C9EB020212B28242A8BF0246504B94
:104AB00033F81E9002FB049423F81E4000E02B8084
:104AC000023507318BE74E4B4F4E1F6800250C23F4
:104AD00003FB057393F9064036F9023FE8B26343DE
:104AE000642493FBF4F434800BF00AF9013520447C
:104AF000082D3080EBD13B4E3D4C3368404D13F0D8
:104B0000200F33D000200BF0FBF820800746012057
:104B10000BF0F6F8374B60801B681B0626D53B4B25
:104B2000314AD3F8F4301B78012B23D12968B2F92C
:104B3000003091F912E04FF0320C03FB0EF393FBBF
:104B4000FCF31FFA83FE91F90630B2F902205B42B2
:104B500053436FF0310193FBF1F193FBFCF30EEB48
:104B60000102B9187344218018446080D5F800E030
:104B7000002319E0D5F800E0B2F902309EF90610E2
:104B80005943322391FBF3F1394421809EF912708D
:104B9000B2F9001001FB07F292FBF3F21044E4E7D4
:104BA0000133082BE25333D00C2101FB03E134F92C
:104BB0001300B1F900205F009042B1F90210EFDB61
:104BC0000AB28242A8BF0246EAE700BF99209801D4
:104BD000FC0A0020C8250020A42500206035002004
:104BE000CC350020A0250020DC0B0020C40B0020C9
:104BF000400B0020000B0020FE3500208A1600200C
:104C0000CC1B0020F73500203E0B0020B8150020FB
:104C1000A64F97F90C3093B93B78013B182B75D808
:104C2000DFE803F0397474527474744B74747474E0
:104C3000745C7474747474526874745C3900DFF852
:104C4000A8924FF000089A4A1C2339F9020F03FB7F
:104C5000082A10F0F5F80146504606F088F813F0DF
:104C600047F92B680C2202FB083280B2A9F8000039
:104C7000B2F9003000B29842B2F9022003DB13B25D
:104C80008342A8BF034608F10108B8F1080FA9F84C
:104C90000030D8D1C0E7BB7913B10020618908E0AA
:104CA000844B1B7803F0040303F0FF00002BF4D1C6
:104CB000014608F045FB012529E00020E18808F0C5
:104CC0003FFB0120218905E00020218908F038FB05
:104CD0006189012008F034FB022518E00225A81E96
:104CE00034F81510C0B2013508F02AFB082DF6D1B2
:104CF00006250CE00325E81E34F81510C0B2013576
:104D000008F01EFB072DF6D1042500E000253368CE
:104D1000990602D43B78052B0AD12846218808F051
:104D20000FFB681CC0B2618808F00AFB0235EDB2C7
:104D30003368DA0206D4604D95F8D83173B10AF0C1
:104D4000F9FF0BE05D4E00242819C0B236F8021FAF
:104D500008F0F6FA0D2CEED00134F5E72B7A042B8F
:104D600005D10BF02BF9039BC01A554BD8800BF0E3
:104D700025F9544B04909B680BB153489847534B0B
:104D8000534C1B68534F13F4801F6DD03E8806F4BC
:104D90000066B6B2002E54D1464B1B785B0750D547
:104DA0004FF400600BF090FF2268D5F8E001937F8C
:104DB0000189022B04BF012385F8DC314FF47A739B
:104DC00003FB01F3444918BF85F8DC61098893FBB4
:104DD000F1F35B4299B2414BA5F8E41193F800C09E
:104DE000002390F803E00678BEF1000F01D076456D
:104DF00004D8BCF1030F05D8022B03D14FF0000EED
:104E000080F803E092F800E00130B64538BF167034
:104E100012F801EB284E4FEA8E1E06F5F37828F8BB
:104E200013E006F5F67E4FF000082EF8138006F525
:104E3000F97E2EF813100133032BD2D1012386F80B
:104E4000F8313B8818051AD41A4B1B7803F0040379
:104E500003F0FF069BB995F8F83183B10CF09CF88C
:104E6000154B83F8F8610AE03B88190507D5114B0B
:104E70001B785A0703D54FF400600BF015FF184A52
:104E8000184B1768B3F906307A8993422EDBB3F5D5
:104E9000FA6FF879BFBF9B1A4343A2F5FA6093FB00
:104EA000F0F0ACBFC0F16400643020E0E40A002000
:104EB000B01600202A3C0020B8150020AA250020AA
:104EC000AE0C0020E018002092170020000B0020FC
:104ED000180C0020FC0A0020203C0020D2350020C5
:104EE000140C0020A42500203E0B00206420BA4BA7
:104EF0000022B3F810E0B94BD3F800C023681D4678
:104F00000393B74B4FEA420833F91290CEEB0903F3
:104F1000002B05DDB3F5FA7FA8BF4FF4FA7306E066
:104F2000C9EB0E03B3F5FA7FA8BF4FF4FA73022A58
:104F30004FF064042BD09CF8001019B18B42CCBF09
:104F40005B1A002393FBF4F6A6496FF0630B31F86C
:104F500016A00BFB063B013631F916100FFA8AF644
:104F6000891B01FB0BF191FBF4F19F4E514426F894
:104F70000810B91809794B439C4993FBF1F364334A
:104F80009BB243439A4993FBF4F388542EE09CF878
:104F9000011019B18B42CCBF5B1A002393FBF4F6CE
:104FA00094496FF0630A31F816B00AFB063A0136ED
:104FB00031F916100FFA8BF6891B01FB0AF191FBF0
:104FC000F4F18B449CF90410002BC1F100010BFBA0
:104FD00001FB8549B8BF5B42A1F804B0B9794B43E6
:104FE000824993FBF1F3824964338C7029786424FD
:104FF000594391FBF4F1804EF145B154A97A7F4EAB
:1050000003FB01F191FBF4F1B154297D05F1010598
:1050100003FB01F393FBF4F379498B54724B02F1D8
:105020000102BEBF33F80810494223F80810032AD2
:105030007FF467AF6A4AB2F90650674A568AB542AA
:1050400006DBB5F5FA6F2946A8BF4FF4FA6100E018
:1050500031464FF47A72891B5143C6F5FA62B1FBAF
:10506000F2F1642491FBF4F0664A6FF0630E32F8BB
:1050700010700EFB001E013032F9100039B2411AD7
:1050800001FB0EF191FBF4F2D419A4B2DC805E4B6B
:10509000554FB3F800B01BF0400F41D05B4B0A20D6
:1050A000B3F9043093FBF0F0594B1B88C01A00B2DF
:1050B0000FF0C6FE57490FF017FF804606F05EFA64
:1050C0008146404606F0E6F98046B7F902000FF047
:1050D000B7FE8246B7F900000FF0B2FE49460690CF
:1050E0000FF002FF4146059050460FF0FDFE059A75
:1050F000014610460FF0EEFD10F0BCF8494638802E
:1051000050460FF0F1FE069B8146414618460FF0CF
:10511000EBFE014648460FF0DFFD10F0ABF878805B
:105120003D4B3E4F1968984611F0140F00F0A480D3
:105130001BF4027F00F0A080394B2B481B7803F052
:10514000100303F0FF0C43B1364B97F9FC211C68A8
:10515000438804FB023343808EE0204B1A68324BB5
:1051600092F803E09278BEF1000F21D0B3F900E08D
:10517000CEEB0503002BB8BF5B4293420DDD2B4BFA
:105180007545C3F800C04FF0010387F8FD31C8BF73
:105190005242154B1444DC806EE097F8FD31002B31
:1051A0005AD0234B87F8FDC11A68224B1A6053E08E
:1051B000B3F90030EB1A83EAE374A4EBE37494428E
:1051C0003EDD022293FBF2F31B4A13601B4A0123CC
:1051D000137087F8FD313FE0C8250020E80D00205E
:1051E000A42500202A2D0020603500200CFEFFFFA2
:1051F000D33500201C2D00208C350020B117002055
:10520000C8350020042D0020FC0A0020DC0B002003
:10521000FA14002035FA8E3CF80A0020B815002058
:10522000400C00201822002090150020142200209D
:10523000E40B0020680C0020083C00201C22002009
:1052400097F8FD3143B1B24B87F8FDE11A68B14BD5
:105250001A60B14B83F800E0B04BB14CB3F90020B9
:10526000B04B1B68134422886488934203DBA3423B
:10527000A8BF23461A46C2800B0738D5AA49AB4CB3
:1052800088880A2200F10E039BB21C2BA84BB3F9AD
:10529000043029D81BF0040F26D093FBF2F22388A8
:1052A000D21A92B293B21CB2B334BCBF02F5B4733B
:1052B0009BB21AB29F4CB32A9F4A2478C8BFA3F569
:1052C000B4731268C8BF9BB2240712790FD552B2CB
:1052D00052425343039A1BB2127A53431E2293FB4A
:1052E000F2F3C31A8B8002E093FBF2F32380934B1B
:1052F0001B7883B1B5420EDC914A1378012B01D0A3
:10530000192B01D1927932B90E2B04D0082B1EBF74
:10531000854B00229A808B4B1B689D7875B31BF0E0
:10532000030F2BD0884B89491C6A20460FF084FF5D
:10533000F8B9204605F0EFFF854B19680FF0D4FD52
:1053400012F0D6FDB0F5617FA8BF4FF461700FF089
:1053500077FD80490FF07CFE06F09CF80446284655
:105360000FF06EFD21460FF0BFFD12F0C1FD80B2BF
:1053700000E000206C4AD3881844D080764B9B7B99
:10538000002B61D0754B1B78002B3BD0744BD3F8AE
:105390001421B2F57A7F05DB44F620639342A8BF5F
:1053A000134601E04FF47A736E4A03F57A7312687C
:1053B0009BB2B3FBF2F3581C80B2B7F900C2A7F856
:1053C000FE010022684C584904F20A2531F81260A7
:1053D00035F8121004F2022EC1EB06093EF9121044
:1053E00025F812600CFB01F191FBF0F149442EF815
:1053F00012100132042AE5D1584A00211170A4F894
:10540000003204E0B7F80032013BA7F80032B7F9E8
:105410000002554A00284FF0000313DDB2F9FE41A7
:105420005249A1F1080232F9132031F81310424316
:1054300092FBF4F28A1A3C4921F813200133042B21
:10544000EED101E0A2F80032D8F800309A0640F11F
:10545000CD80474B1B8803F03003002B00F0C68043
:10546000344B1B78DB0740F1C180314B414DB3F920
:1054700004000A2390FBF3F00FF0E2FC3E490FF02A
:1054800033FD044606F006F88046204606F076F81E
:105490003A4B06461B68DA78394B002A74D0394CEF
:1054A000B3F90200B4F8029005920FFA89F1401A9C
:1054B000039303F0E9FC059AA246C2F1000B58459C
:1054C000039B03DB9042A8BF104600E058464844C7
:1054D000BAF800401FFA80F9B3F9000023B2C01AED
:1054E0000392AAF8029003F0CFFC584504DB039A1C
:1054F0009042A8BF104683465C44A4B20FFA89F0DC
:10550000AAF800400FF09CFC814620B245E000BFA5
:10551000E40B0020680C00201C22002092150020C3
:10552000240C002018220020603500202A0F0020C3
:10553000DC0B0020400C0020E80D0020350000208E
:10554000E40A0020F02D0020483700208FC2753C6F
:10555000002E0020EFB6B044C8250020841500209E
:105560005C000020103C0020B8150020C21700206D
:10557000FC0A0020243C002035FA8E3CFC1400205C
:105580000615002002150020B3F9020003930FF066
:1055900057FC039B8146B3F900000FF051FC3146E4
:1055A000044648460FF0A0FC4146824620460FF0D4
:1055B0009BFC014650460FF08DFB17490FF048FD4C
:1055C0000FF058FE4146288048460FF08DFC3146CA
:1055D000804620460FF088FC014640460FF07CFBD9
:1055E0000D490FF035FD0FF045FE68803B7A042B26
:1055F00006D10AF0E3FC049BC01A084B588008E06F
:10560000052B06D1064A054B12889A80DA880132AA
:10561000DA8017B0BDE8F08F00002041AE0C00200A
:10562000203C002030B50268047B1168022303FA95
:1056300004F40C420DD0074900240C704FF6FE71A3
:105640004468256829402160007B516883400B43F2
:10565000536030BD2C3C002070472DE9F04F87B0DF
:105660006C4C02916C4922880E680546C2EB2613E9
:105670005B435200C2EBE602B4F902601B135643CF
:10568000B4F90420B4F90A0053439B1303EBE62654
:1056900006EB860380331B12B6F5FA384FEAE6773D
:1056A00004934B6847F1FF39A8FB08AB039308FB51
:1056B00009F3B4F908200BEB430BE389A6610593CA
:1056C000D31708FB03F102FB0911A8FB02230B44CB
:1056D000C1171F030AFB01F300FB0B33AAFB0001F8
:1056E0001603194447EA1257020A42EA0162921964
:1056F0004FEA2123E6887B410032A2FB060143F5F5
:10570000004306FB03114B100093CB170193DDE917
:1057100000231343B4F810E0B4F80CC06DD00FFAB6
:105720008EF0C1170AFB01F1AAFB002300FB0B114D
:10573000BDF914600B44F71708FB07F106FB0911CC
:10574000A8FB06670F4479047004801841EAD6313B
:105750005941039B0FFA8CF8C3F5801E7246D3178C
:10576000002212184FEACE764FEAC3774FEAC803F9
:105770004B4147EA5E07B61A67EB030740F635432D
:10578000A6FB030103FB0711DDE900230FF0B8FDC1
:10579000B4F916204E1302FB06FE470B47EAC14739
:1057A000D31707FB03EEA2FB07235643734407FB03
:1057B0000366A2FB07233344560E46EAC31682193A
:1057C000B4F914604FEA636741EB07037143F717BD
:1057D00000FB0717A6FB00013944C60C46EA413618
:1057E00092194FEAE1474FEA1221B4F912207B41A6
:1057F00041EA036113010B4400E000230DB11B0AD1
:105800002B60029B13B11A46049B136007B0BDE8DE
:10581000F08F00BF841A0020F417002070477047F3
:105820006B4B6C4A2DE9F04F5E8994684FEA062A6B
:10583000B4EB0A0A9C884FF000054FEA04481C8923
:105840004FF0000BA4FB0A6765EB0B0B04FB0B7717
:10585000F40944EA476418EB04065C884FF0000939
:105860004FEAE7154FEAC438DC8849EB050787B0F3
:10587000CDE90467A4FB0A6704FB0B77340A44EA0A
:10588000076418EB04064FEA27259C894FF00009AE
:1058900049EB0507CDE90067AAFB046704FB0B771A
:1058A000F40D44EA472414F5FA664FEAE75545F14A
:1058B0000007B6F5FA6F77F10003CDE90267964667
:1058C00066DADDE90489A4FB046704FB05F34FF005
:1058D000050C07EB4307A6FB0C230CFB07335F10FB
:1058E0004FEA3206B8EB06084FEA920646EA83769C
:1058F00069EB07099F10DDE90023921B63EB0703A7
:10590000CDE90023DDE90267334A4FF0FF339642C9
:1059100077EB0303CDE9048927DA40F6AC52002384
:10592000A4185D4104FB05F3A4FB04456FF00602D7
:1059300005EB4305664202FB0566A4FB02233344E4
:1059400018EB020649EB0307CDE904670B26A4FB1D
:10595000062306FB0533DDE900455B104FEA320202
:10596000A41A65EB0305CDE90045DDE902450AFB14
:105970000BF3AAFB0AAB0BEB430B4FEADA7242EADA
:105980004B02A41A4FEAEB7365EB0305CDE9024520
:10599000DEF80C40009B019DA4FB032304FB0533B0
:1059A0004FEA525848EAC3284FEA6359DDE9042315
:1059B000B8EB020269EB03039946D30B43EA494370
:1059C00000B1036009B1029B0B6007B0BDE8F08F26
:1059D000701A0020F417002024FAFFFF2DE9F0418F
:1059E000324C334D62892B8AB4F904809A1A238988
:1059F000B4F902E05A43B4F91230D613B4F91420C2
:105A0000DB02324493FBF2F232440A26E26156434F
:105A1000A2F57A6202FB02F3B4F90EC002FB0EFE9D
:105A200002FB08F2B4F90C801B130CFB03FC03FB14
:105A300008F31B1403EB62320232E388921002F582
:105A4000004253434CF25032B4F920704FEAEE2E2C
:105A5000B4F900400EEBEC2C0CEB8404BC406D69F7
:105A60000234A5EBA4043A4162434FEAD3384EBF57
:105A7000B2FBF8F35400B4FBF8F340F6DE3448BF51
:105A80005B001A12524362430A4C08365C432414EA
:105A900004EB224202F6CF62361103EB221300B16F
:105AA000036001B10E60BDE8F08100BFF419002071
:105AB000F417002043E3FFFF0A4B10B51B680A4CA4
:105AC000DA681B8992681A4203D00AF077FAA0615B
:105AD00010BD0AF073FAA369984282BFC01A034B43
