:020000040800F2
:1000000000500020257A0108C17A0108C5140108B2
:10001000C17A0108C17A0108C17A01080000000014
:10002000000000000000000000000000C17A01088C
:10003000C17A010800000000C17A01081BBF000856
:10004000C17A0108C17A0108C17A0108C17A0108A0
:10005000C17A0108C17A01081D3601081936010864
:10006000C17A0108C17A0108C17A0108C17A010880
:10007000DDBE0008C9BE000889100108C17A010868
:10008000B5BE0008A1BE0008C17A0108C17A010806
:10009000C17A0108C17A0108C17A01081536010840
:1000A000C17A0108550E0108C17A0108650E0108E0
:1000B000490E0108390E0108290E01085D8B000860
:1000C000618B0008578B00085B8B0008C17A010820
:1000D000C17A01087D10010871100108651001083E
:1000E000ADC00008C17A0108C17A01080000000013
:1000F0000000000000000000000000000000000000
:0C01000000000000000000005FF808F1A3
:100110002DE9F04F794B7A4CA3B023600023636044
:100120000FF02CFDA04618B90FF00CFF13F076FF6E
:100130000FF046FD734A744C1378744E43F001037C
:10014000137000230A930B930C934FF4E0130D9359
:100150002368B07B43F480332360A36943F010032A
:10016000A361236803F400330B930A9B01330A93C2
:100170000B9B1BB90A9BB3F5A06FF2D123686249B0
:1001800013F4003301D0022315E00A6842F00102A3
:100190000A600A93236803F002030B930A9B01335E
:1001A0000A930B9B1BB90A9BB3F5A06FF2D123688E
:1001B0009A0739D501230C93554B56491A6842F0DA
:1001C00010021A601A6822F003021A601A6842F0DC
:1001D00002021A606368636063686360636843F483
:1001E000806363604C4B1A68043B22F070425A6093
:1001F0004A4A0A60626822F47C1262605A6842F0DD
:1002000000425A60DA6822F40042DA609B681B04FC
:1002100049BF434B4FF4E0130B604FF480130D9331
:100220000C9B012B01D117E0FEE7022B18D168B11E
:100230000D9BB3F5801F02D14FF4A01305E00D9B79
:10024000B3F5E01F02D14FF400130D930D9A6368CC
:10025000134343F4803302E0636843F46013636044
:10026000236843F0807323602268274B9701FBD5F6
:100270005A6822F003025A605A6842F002025A6039
:100280006368214803F00C03082BF9D14268254B21
:1002900002F00C02042A03D0082A03D01F4A12E0FD
:1002A0000A6810E042684568C2F38342ED0302F138
:1002B000020201D41C4805E0406810F4003F0868C1
:1002C00018BF400842431A6062681848C2F303121C
:1002D000024492F860501A680490EA401A60F27B77
:1002E000DFF84CB0003218BF012288F808200A68F5
:1002F0000A498A421ED1012220E000BF1B370108B3
:10030000D00100202423002000100240AC24002053
:1003100000200240080000200410014000127A0072
:10032000001BB7006001002000093D001C9101087E
:100330000836002083498A4202D102228BF800202D
:100340000693814A814B22ADDA60A269804F42F068
:100350000102A261626ADFF84092C8F80C20626A6A
:100360004FF0000A42F080726262A269384642F0A1
:100370001C02A2614FF6FF7225F82C2D29468DF83C
:100380005EA012F080FB4846294612F07CFB7148C3
:10039000294612F078FB4FF010034FF400728DF8ED
:1003A000423022AB23F8482D4FF0020C03938DF816
:1003B00043C0CDF814C038463A61039912F063FB8C
:1003C00048228DF84220384604220399ADF8402097
:1003D00012F059FB48464FF480620399ADF8402073
:1003E00012F051FB5C4928464A6842F000724A60AC
:1003F0000AF0E7FB5949179A5948B2FBF1F25949FB
:100400000A605146182218F0E2FD069B4FF47A72FA
:100410001B684E49B3FBF2F3534A013B5360F02390
:1004200081F823300723C2F808A01360B368DFF80F
:100430006CA1CAF800304D4B0FCB85E80F00A369C3
:10044000179843F00803A361A36918A943F00803B0
:10045000A3610823C9F810301023C9F8103012F036
:1004600012FB19981AA912F00EFB9BF80030DDF868
:1004700014C0022B34BF142310238DF85E30A369FF
:100480004FF4805243F00403ADF85C208DF85FC058
:1004900038BF4FF00009A36128BF4FF0010938466B
:1004A000294612F0F0FA324BB9F1000F01D0314A6F
:1004B00000E0314A1A60D3F800C0DFF8E490BCF1E4
:1004C000000F03D12D4B01221A7022E000212022BF
:1004D00048464FF0000BCDF814C018F078FDCDF869
:1004E00000B040200121264A4B460CF025FFC9F8F8
:1004F0000C0070B1234B244A03601388DDF814C04C
:10050000591C58461180A9F80830C9F81CC00BF0D6
:10051000DDFD1E4BC9F800301D4BC9F80430DAF878
:1005200000301B0744D596F89831012B40D8D8F8F5
:100530000C20184B12F0805993F89A3100F05D8628
:1005400036E000BF001BB7000005FA0500ED00E033
:1005500000080140001001400000014040420F002F
:100560007C1400201013002010E000E08C910108A2
:10057000E8350020F5B8000809B900080C3600205D
:10058000E114010858B701082C0000201DB900082B
:10059000B1B80008AC240020000C0140142D00204C
:1005A000141300204A4B002283F89A2113F0DCFD3B
:1005B00064200BF0A8FCA0224648002118F007FD9B
:1005C000E369002243F00703E361A36943F4006396
:1005D00043F00C03A361404B4FF0000B03F11001FB
:1005E00002F801B001320E2AF5D13C4CFF229A7775
:1005F000DA7783F8202083F82120204659461022FC
:1006000018F0E5FC364B374A23606360A360E36073
:10061000354B59461A6035483C22DAF8009018F0FC
:10062000D6FC5946C9F380140520314BDFF8BCE0F5
:10063000CA5C0C234B4303F80E2044B91E3A012A2E
:100640009FBFFF2200F1FF3003F80E20C0B201313E
:100650000529EAD1274B96F805A01870264B2749A3
:1006600083F800A0264B1C4AC8F82430C0330B6026
:10067000244B19F0200F03EBCA035B7818BF01234A
:100680009362002340F2DC511F4A22F81310013319
:10069000082BF7D1039800211C2218F098FC19F4BC
:1006A000007B09F4006335D019F4015F09D153B11F
:1006B000164A96F88C01A2F11801012808BF0A46D3
:1006C00002E0134A00E0114A0392169524E000BFAD
:1006D000AC240020E0140020D00100205C14002095
:1006E000BDB80008B2260020CC2C0020D42C00205D
:1006F0006CC60108740F0020A8090020FC1500201A
:10070000C0240020F8BA01083C0B002034910108F5
:100710001C910108CDF80CB0BAF10E0F04D00AF00C
:10072000EF0ABAF1080F02D101228DF85220012000
:10073000059309F0B1FE8DF84500022009F0ACFEEA
:10074000C9F340028DF84720059BC9F340328DF86C
:100750004020C9F3C0328DF846008DF849408DF82D
:1007600043203BB196F88C3103F1FF3EDEF10003EC
:1007700043EB0E038DF84430C9F300438DF84A3043
:10078000D8F828301BF1000B18BF4FF0010B0033D5
:1007900018BF01238DF84C30C9F300538DF84D304C
:1007A000B6F84A31B6F8482119F4805FADF85030F8
:1007B000B6F85631ADF8562018BFB64AADF84E30EF
:1007C000C9F3804318BFB2F850218DF84830B6F80D
:1007D000543118BFADF85620B3F5FA7FADF8543058
:1007E00084BF0023ADF8563096F8DE3109F0010AD7
:1007F000C9F3C004A8480021782288F82C308DF86D
:1008000041A08DF842408DF84BB018F0E0FB9DF808
:100810005230002B0CBF00230223BAF1000F00D18D
:1008200004B10133049A4FF0000A02EB8303D3F8BA
:1008300080309A1E1A3304920593049B33F8024FBA
:1008400004934FF6FF739C4200F013829DF845100D
:10085000E2B2240AE3B261B1904800EB02104168B1
:10086000B94206D10189042900F0FE81082900F06F
:10087000FB819DF8461079B18848894E00EB021043
:100880004168B14208D10189B1F5806F00F0EC8177
:10089000B1F5006F00F0E8819DF8491031B17F4853
:1008A000110140587F49884200F0DE819DF84AE0FE
:1008B000BEF1000F06D079481101405879498842AD
:1008C00000F0D2819DF8471049B1744800EB021046
:1008D0004168B94203D10189102900F0C5819DF812
:1008E000431049B16D4800EB02104168B94203D191
:1008F0000189022900F0B8819DF8441051B1674880
:10090000674E00EB02104168B14203D10189022910
:1009100000F0AA81169E8EB1604901EB021CDCF842
:1009200004003168884209D1BCF80810B0888842B8
:1009300000F09A81F088884200F09681022C02D162
:100940009DF8401003E0012C04D19DF841100029CE
:1009500000F08A819DF84C10DFF84091160161B1DA
:100960009DF8521049B9A2F10801012905D859F89A
:1009700006104D48814208BF04239DF84D1009EB35
:10098000060461B19DF8521049B9BEF1000F02D0C2
:100990000C3A012A01E0043A032A40F24181012B7A
:1009A00040F09480DFF820B1002154220BF1300098
:1009B00018F00DFB02200C2118F0DEFACBF88000B5
:1009C00018B93A4B03221A7028E0394A1388591C87
:1009D000ABF83030FF238BF850300C238BF87B3092
:1009E00040F68C23118040F2EE22ABF87E309BF86B
:1009F000523043F001038BF85230BBF8523062F3AF
:100A00004F03ABF8523040F6CA03ABF85430294BD1
:100A1000294A5B6FCBF84820CBF84C3009EB060233
:100A200002F10803517B506812894FF00008ADF8BD
:100A30005C208DF85E10022217A98BF88480CBF819
:100A4000904006938DF85F2012F01DF8069B59F830
:100A500006009978424612F02DFC204641460122BC
:100A600010F05CFA154B1649CBF89430154B0A1D63
:100A7000CBF89830CBF89C80204610F097FA064BC4
:100A800020219A7803EBC20251721A7901321A714D
:100A9000E6E000BFAC240020FC0B002078B6010883
:100AA000000C014000040040002C01400C360020E6
:100AB0002C000020680000206B2F0108692E01081F
:100AC00064020020692F0108D0010020022B52D1BE
:100AD0005FFA8AF21C2101FB02FCB74A4FF00008C2
:100AE00002EB0C09B54A4FF0010B911991F80DE09A
:100AF00001F108024868098989F885A0ADF85C1001
:100B000089F8868017A989F88E8089F884B0C9F899
:100B10009040CDF81CC08DF85EE006928DF85F30F5
:100B200011F0B1FFA54B069A98599178424612F000
:100B3000C1FB204641465A4610F0F0F99E4BA04AB0
:100B4000DDF81CC0C9F8942003EB0C019D4A9431D8
:100B5000C9F89820C9F89C800A1D204610F026FA92
:100B6000994B40219A78DA4403EBC2025172DA7849
:100B70005A44DA7074E0032B50D19DF84830924EFD
:100B800093B14FF6FF7200232046082196F80180AA
:100B900012F0E6FB8D4B192243F828008C4BC36002
:100BA000B37806EBC3032DE0BDF8542096F801801E
:100BB000B2F5FA7F13D9874B2046B3FBF2F2082136
:100BC00092B2BDF8563012F0CBFB804B0D2243F8A9
:100BD0002800814BC360B37806EBC30312E07F4B60
:100BE0002046B3FBF2F2012192B2BDF8563012F06A
:100BF000B7FB764B092243F82800754BC360B378E6
:100C000006EBC3035A72B3787278013306F83320C7
:100C100006EBC30301325C60727021E0042B23D128
:100C2000BDF84E206D4B684E93FBF2F2012192B25B
:100C3000BDF85030204696F8008012F091FB5E4BD4
:100C4000B27803EB8803013206EBC201C3F86401FA
:100C50000A234B7033784C6006F83230013333701E
:100C6000594A937801339370049B059A93427FF419
:100C7000E4AD554A50491078594B81F884015948E0
:100C8000002406781C70A6F1170002288A469146B7
:100C900098461BD8DAF824300021185903EB040BCE
:100CA00016F06CFB18B1DAF828305BBB25E04E4F2C
:100CB0009BE80F00274487E80F0098F800301034B5
:100CC0000133C02C88F80030E4D1ECE7474B13F82F
:100CD00036E003EBC603D3F804C088F800E0BCF1AB
:100CE000000FE0D07445DEDA3F4F23011F44634418
:100CF0000FCB013487E80F00F4E73D4F3B68DC047D
:100D000024D41DE03B4B3C4A13F8360003EBC603EA
:100D10005C681070002CF0D000238342EDDAC3EB46
:100D2000C3016218D2F800C0DFF8D8E0013341F8FF
:100D30000EC001EB0E079188B9809279BA71ECE789
:100D400006F0EF03082B2D4B25D126E098F8003054
:100D5000012BF5D92A4C04EB031303F110081034CE
:100D60004445EDD054F8100C4FF07C5116F072F958
:100D70004FF07C5144F8100C54F8140C16F06AF93A
:100D80004FF07C5144F8140C54F80C0C16F062F936
:100D900044F80C0CE3E70E2E08D11A78182E42F016
:100DA00010021A7030D10BF0A3FA2DE01A78192E28
:100DB00022F010021A70F5E7D001002078B6010881
:100DC000F1320108412E0108FC0B0020AC14002078
:100DD000952F010800127A00A52F010840420F004C
:100DE000DC140020A8090020E0080020F8BA01085F
:100DF000142D00205C9F0108881500206813002036
:100E0000E8080020891500200BF056FA99F8032015
:100E1000C24BC34C9A8099F80420C24EDA803B68DA
:100E20004FF0030958035EBFBF4B01221A70BF4A3F
:100E30004FF0040A13784FF4805843F00403137002
:100E4000BB4B93E80300A36985E8030043F0080364
:100E5000A361179818A911F016FEE369294643F417
:100E60008043E3612369304643F4804323611823C0
:100E70008DF85E304FF42043ADF85C308DF85F9014
:100E800011F001FE4FF4804329463046ADF85C3046
:100E90008DF85EA011F0F7FD2946102330468DF83D
:100EA0005E30ADF85C8011F0EEFD0CF069FDA14AFA
:100EB0003220138803F4415343F4457343EA090392
:100EC0001380938B23F400631B041B0C9383072371
:100ED000138213889BB243F0400313809F23C6F80C
:100EE00010808DF83C3000238DF83D308DF83E3079
:100EF0008DF83F300BF007F852462846C6F81480AC
:100F00000FA910F08FFCC6F810809DF85E309DF898
:100F10005D201B0243EA02439DF85F20A246134373
:100F2000854A864D934213D032200AF0ECFFC6F872
:100F30001480F52010F066FCFF2010F063FC702890
:100F4000C6F8108004D12B78022B08BF85F80090DA
:100F50002B78032B0CBF1F20022009F06AF92B7895
:100F6000032B02D010F0AAFC04E0022009F094FA4E
:100F70000028F7D095F80080714D4FF0100B2846EF
:100F800000215A463C6818F022F84FF6FF73ADF87E
:100F90003C30022304F4004704F400664FF00009DB
:100FA0001C408DF83E308DF83F900DD065480FA95C
:100FB000ADF83CB00CF096FC04232B700124072301
:100FC00085F80190AC70EB7077B102235D480FA9F2
:100FD000ADF83C300CF086FC0123E2182B71AB71AC
:100FE00007236C71EB71D4B2B8F1010F0FD9202334
:100FF00054480FA9ADF83C300CF074FC05230122D5
:101000002B72AA72631C07226C72EA72DCB27EB188
:10101000022344480FA9ADF83C300CF063FC0923CF
:1010200001222B73AA73631C07226C73EA73DCB270
:10103000DAF80430444843F44043CAF80430DAF89C
:101040001430002643F00103CAF81430DAF81830DF
:101050003D4F43F40073CAF8183009F026FE17A874
:1010600009F0F8FD394B012C1793394B17A9189348
:1010700094BF334680231C934FF480731D934FF429
:1010800080631E9320231F9338464FF400531A9415
:10109000209319961B96219609F0E9FD3B682D4A8D
:1010A00043F001033B605368012C23F4702394BF89
:1010B0000021012123F4807343EA012353609168E6
:1010C000254B013C0B40314643F4602343F00203BF
:1010D0009360D36AE4B223F4700343EA0454D46205
:1010E00001236A189078002872D06C5C581C092C77
:1010F000C0B2D278174F31D9A4F10A06D7F80CC084
:1011000006EB46064FF0070E0EFA06FE2CEA0E0E10
:10111000B2404EEA0202FA602DE000BF900B0020C0
:1011200000100240000C0140F00A0020242300209F
:10113000AC9101080038004015202000083600203E
:10114000C411002000080140080002404C24014066
:10115000D411002000240140FDF7F1FF3E6904EBAB
:10116000440C4FF0070E0EFA0CFE26EA0E0602FAA9
:101170000CF232433A61062B3A4E0CD85A1E776B6A
:1011800002EB82021F23934027EA030704FA02F3CB
:101190003B4373631BE00C2B0CD8DA1F376B02EB5D
:1011A00082021F23934027EA030704FA02F33B431A
:1011B00033630CE0A3F10D02F76A02EB82021F23F6
:1011C000934027EA030704FA02F33B43F362034622
:1011D0000431102985D1234B9A6842F480729A60B9
:1011E0009A6842F001029A609A6842F008029A6096
:1011F00099681C4A09073DD5FAE7013B092B3FF6E0
:10120000D7A9194ADFF868B010681023CBF814305A
:10121000294617901548059311F035FC08223A61CC
:101220003C200AF070FE059BCBF8103096F89A31FE
:101230009945BFF6B7A90E4B4FF0080BC3F810B095
:1012400078200593C7F814B00AF052FE059B782069
:10125000C3F814B0C7F810B00AF04AFE09F101094A
:10126000E4E700BF00240140B891010800080140F4
:10127000000C0140936843F004039360B74B9A68F5
:1012800012F004020492F9D19A6842F4A0029A6022
:10129000B34BB3F85C01002841F02581B3F95E211E
:1012A000002A41F02081B3F96031002B41F01B810D
:1012B000AC4B1B689B0320D5C8200AF024FEAE204F
:1012C00011F011FD08B111F01AFDA74C84F8850149
:1012D000C8200AF018FEA54B0021C4F88831A44CA0
:1012E0001422204617F073FE0223E37010F085FDF0
:1012F0000AF0E5FA9F4B0344A3609F4C002120466F
:10130000742217F064FE4FF07E536360A360E360C5
:10131000934BB3F85C01B3F85E51B3F8607118B940
:1013200015B9002F00F08880012384F84C3000B2FA
:1013300015F03CFE914915F08DFE914915F03EFFE8
:10134000064628B215F032FE8C4915F083FE8C4912
:1013500015F034FF054638B215F028FE874915F020
:1013600079FE874915F02AFF8146304612F0F2FDDA
:101370008046304612F07AFD0646284612F0EAFD15
:101380000746284612F072FD0546484612F0E2FD77
:101390008246484612F06AFD41468146504615F0A5
:1013A00059FE41460590484615F054FE51460690B8
:1013B000304615F04FFE49460790304615F04AFE7C
:1013C00039468346504615F045FE4946206507F1EB
:1013D000004015F03FFE29466065A565079815F0A9
:1013E00039FE0146069815F02DFD2946E065584660
:1013F00015F030FE0146059815F022FD39462066AD
:1014000006F1004015F026FE29466066059815F0A5
:1014100021FE0146584615F013FD2946A0660698A0
:1014200015F018FE0146079815F00CFD4146E066E0
:10143000384615F00FFE2067494B002193F87121C3
:1014400050480592504A93F86881126893F8637186
:10145000B2F862A09A8993F8725106920C2293F81E
:1014600010905E7C17F0B3FD00211422474817F05E
:10147000AEFD474B3C4C93F800B0464B04F5C870AA
:1014800003F11802BBF1010F88BF13464FF0000BA8
:1014900059460C2284F88CB184F88DB1079317F06B
:1014A00096FD079B2320C4F89C310AF02CFD752083
:1014B00001210DF1270207F0F9FA002800F08B80D6
:1014C000354A5846C4F89421344A0121C4F8982179
:1014D000432284F890210EAA07F0E8FA9DF83830EC
:1014E00003F07E038DF8383040B1682B06D101231C
:1014F00084F88C311D2384F890316CE09DF82730FE
:10150000194C03F07E03682B8DF827305ED102233F
:10151000062084F88C3117AAD4F8943101469847F4
:101520009DF85F309DF8612003F001035B0002F03D
:10153000010243EA82029DF85D3003F00103134388
:1015400036D05AB2012A01D1002202E0022A27D164
:101550000122054B83F88D213DE000BF00240140AE
:10156000AC240020142D0020D00100203C260020B7
:1015700068190020404B4C0034230020DB0F494009
:1015800000003443C8330020601900203C3500209F
:10159000083600204C910108AD8A00083D8B0008F8
:1015A00003F00303032BD3D003200AF095FD12E0D0
:1015B000D4F894310C2001210FAA98479DF83C30B3
:1015C00013F00F03F0D0042BC2D1BDE7702B04BF82
:1015D000042384F88C31AB4AAB4C0023137094F88D
:1015E0008C31042B15D1A94BA949DFF8DCB2196065
:1015F000A84901205960A8491070D960A74919610C
:1016000007238BF8003012F0AFFC94F88C415A4657
:1016100003E001200AF060FD70E13B4640F2022148
:101620000A2F28BF0023012000FA03F7394091B99F
:1016300040F2FD11394071B1042C0CD1984B9949FD
:10164000196099495960994B18700823022053700A
:1016500012F08AFC05E0012B4FF00007DDD8934B18
:101660001F70042D00F28780DFE805F0038C030370
:1016700003008F4B9B69002B00F08480824A92F814
:10168000A0310BB1042578E08A4B1846196803682D
:101690005B1A9BB2132BFAD97B4C874B762500271C
:1016A000C2F8AC3182F8A45182F8A87104F5D27066
:1016B000D02117AA0BF0E6FF002863D09DF85C301C
:1016C000582B5FD13946402204F5D87017F07FFCC3
:1016D000284610F037F8C4F8B401002852D0774AF1
:1016E00025461388591C1180A4F8B031882104F5CF
:1016F000E072182310F036F8D0B1D4F8B401F42118
:1017000017AA0BF0BFFF98B1042384F8B831684BD7
:1017100001279D6984F8B971402000971921684A12
:1017200004F5D8730BF008FEC4F8BC01A8B929E091
:10173000D5F8BC0128B10BF0B2FD534B0022C3F821
:10174000BC21D5F8B411E9B1886810300BF086FDE2
:101750004D4B0022C3F8B42114E05A4B0360192307
:10176000A4F8DC31C4F8EC5184F8DE7107F0F9F923
:10177000002887D106E0012D04D0534B04209D7032
:1017800012F0F2FB514C23689F0702D5444B1B68B3
:1017900098473D4D4E4AB9F1000F0DD0B8F1000FFA
:1017A00006F1FF36F6B20CBF7D234FF47A7385F84D
:1017B000F06106FB033302E0069B85F8F0911360AD
:1017C000324B40461B689847059E424F00233B70B2
:1017D00016B1B21E032A23D8374B0D21C5F8AC3100
:1017E000002385F8A8313C4817AA012385F8A411E5
:1017F0000FF0B8FF002800F0FB869DF85C30FF2B4F
:1018000040F0F686354B364A08201A60354A5A6051
:1018100001233B702C4B0522DA7012F0A5FB03E08C
:10182000012E01D91E46D0E72F4B93F858210AB15B
:1018300014490A7093F859210AB11C490A7093F8A7
:101840005A3103B13B702368284D13F0080F53D071
:101850000FFA8AF7642697FBF6F4204615F0A6FBEC
:10186000804606FB147000B215F0A0FB204915F06D
:10187000F1FB0146404615F0E5FA1E4915F0EAFB7A
:1018800028603BE07C070020D00100203C35002090
:101890007D850008D58300089583000890C1793DB7
:1018A000C83300205D8700083D8400080F36002003
:1018B00044000020DC230020A82300202C0000206E
:1018C000E7D600085FB7010858010020C4330020A4
:1018D000641300200E3600207403002048330020DB
:1018E0007527010809270108AC240020880800207A
:1018F0008988883C0000204100232B60264A0A2466
:10190000137843F002031370244B10225A6108220B
:101910001A61224D1920EB68013C83F01003EB6043
:10192000EB6883F00803EB600AF0EDFA01200AF09F
:10193000CDFB19200AF0E7FA00200AF0C7FB14F0EB
:10194000FF04E6D108232B6110232B61144B1E6882
:10195000144B1A681D4692F90C2082B9124B1A6872
:101960001E4612F0080F27D00C4C104B10251B6898
:10197000656198470E4B012225611A701CE02B68A7
:101980000C49986821443246243411F028FFB4F5FC
:10199000907FF4D1E2E700BF24230020000C014037
:1019A00064130020DC080020C433002048330020EA
:1019B00074330020D0090020AE4BAF4C1B68187B5D
:1019C00015F0F4FAAD4915F045FB12F0C3FAAC4B33
:1019D000AA491860AB4B186915F03CFBAA4B18607C
:1019E000AA4B188815F0E2FA0146A94815F0E6FB63
:1019F000A84915F0E3FBA84B18600AF0BBFC204691
:101A0000FF211C2217F0E3FA20463568A34B012280
:101A100015F0020F18BF62701A701FBF03221A70F0
:101A20000222A2706E0748BF1A784FF000012170A1
:101A300041BF511C19700321A1541A781B26511C57
:101A4000C9B215F00A0F19708B4C86540CD00425BE
:101A50006554911CC9B2052565549049151D033282
:101A60000D70D2B20621A1548D4D29688C0641BF5C
:101A70001A78541C1C70072448BF84540A0608D5E1
:101A80001A7809248454941C01321C70D2B20A249E
:101A90008454844E747904F0EF02082A01D00E2C8D
:101AA00004D11A78571C1F700B2787541A7811F429
:101AB000803F4FF00C0E00F802E002F101071CBF5E
:101AC000DFF8D8E10232FFB21F701FBF8EF800208E
:101AD000694A4FF00E0E02F807E04A0748BF1A782D
:101AE0004FF0120E41BF571C1F70102787541A78F1
:101AF00011F4806F02F10107FFB21F7000F802E0DD
:101B00000ED096F830E2BEF1000F09D0DFF88CE17C
:101B100002328EF80020584A4FF0130E02F807E008
:101B20008F0541BF1A78571C1F70152748BF87546F
:101B3000182C0DD11A7816278754571CFFB24FF076
:101B4000170E00F807E0D71C0232D2B21F7084547F
:101B50000C0341BF1A78541C1C70192448BF8454CC
:101B6000CA0548BF1A78504C41BF511C19701A2140
:101B700081541A78511C197014238354002198221F
:101B80004A4817F024FA0FF092FF4949494B4A4856
:101B90001960B6F85221494B016049491A80002367
:101BA000484AD4F800E00B70B6F8A0111380937087
:101BB0001FFA81F80EF18502434FDFF814C138682F
:101BC000DFF8109100F5967049F823002CF8138087
:101BD0000133122B6046EFD1D5F800C00EF1D50EBF
:101BE0001CF4805F08BFB6F8A681A0F806801378C1
:101BF000F3B992F80280D378984519D2B8F1000F62
:101C000008D008F1FF3808EB880808EB880808F5C9
:101C1000617306E0013303EB830303EB830303F5F6
:101C2000617392F801809BB208F1040820F8183023
:101C300004327245DBD11CF0080F00F00D8196F8DC
:101C400098E1BEF1070F00F20181DFE81EF0080005
:101C50000B00450070008900A900A900E50045F2CD
:101C6000F05201E042F6F822184B1A800FF0B9FF4B
:101C7000EBE000BF500800204D12002035FA8E3CEA
:101C80008C0800203C35002078080020040000204B
:101C90000AE81C4100401C46243300204C1200205E
:101CA000142D0020AC2400206019002014240020F2
:101CB0003C260020600D002008120020640D00204A
:101CC000B10C00201812002014120020B4080020CB
:101CD000F0230020FC0C002042F6F822904B090172
:101CE0001A800A2391FBF3F10023A1F5B0618D4A1C
:101CF00042F823100133122BF9D18B4A8B49402033
:101D000011608B4A137008F0F5FB002800F09E80EC
:101D100096F899310122002B14BF0723062390F96E
:101D2000000040218DE80C00824A834B88E042F697
:101D3000F8227B4B40201A80804A7B4B1A607C4BF8
:101D400010221A7008F0D6FB00287FD001234FF034
:101D5000000C90F9000040218DE80810784A6DE0F1
:101D600042F6F8226E4B40201A80764A6E4B1A607B
:101D70006F4B08221A7008F0BDFB002866D00123C3
:101D80004FF0000E90F9000040218DE808406E4AA7
:101D90004FF4E13308F07AFA6C4BC3F8F40151E0E8
:101DA00042F6F8225E4B4FF00C0C1A80604B6848EC
:101DB0006849694A83F800C0BEF1060F4FF000037E
:101DC00003700B7013700BD0644B1B221A70644BA2
:101DD000052283F800C0634B4FF4E1381A700AE023
:101DE0005E4B21221A705E4BDFF8A08183F800C0A1
:101DF0005C4B83F800E05C4A4B4B40201A6008F0D3
:101E000079FB18B30121002390F90000574A8DE8AF
:101E10000A004021434613E0554A434B40201A60D4
:101E2000434B0A221A7008F065FB78B101220023A7
:101E300090F900008DE80C004E4A40214FF4E13348
:101E400008F024FA003018BF012028B9082012F049
:101E5000B3F8494A344B1A602A68530441BF344BE3
:101E600012211970304B44BF4449196042F20103FA
:101E70001340ABB144F62061294B9004198041BF57
:101E80002B4B082119703E4944BF274B1960D107DD
:101E900041BF274B0C2119703A4944BF224B1960AE
:101EA000130640F1A2802948DFF8E4A04FF00009B2
:101EB000DFF8E080C0F8F8A14946152200F5FE7071
:101EC000DFF8D4B088F80190C8F80490C8F80890FA
:101ED00017F07DF8AAF105034846CBF800300CF066
:101EE0003BF83B680220C8F80C3008F003FB18B937
:101EF000802012F061F871E090F805E098F8011088
:101F0000214B0C2202FB01325278724546D001313E
:101F1000C9B20429F4D9002288F8012040E000BFAA
:101F2000B40800204C100020300000204DA600080E
:101F3000C82C002021A90008A086010039A60008AD
:101F400075A8000821A6000829A80008D0010020D3
:101F5000DA0F0020011100200011002002110020E2
:101F6000D90F00200311002035A50008FDA60008A8
:101F700029A50008B1A60008ADA600087DA60008A6
:101F80009DA600088DA6000840A5010890D003007A
:101F9000B2260020783300209833002088F8011002
:101FA000DBF800204FF00C0E127890F90000002AA8
:101FB00098F8012018BF03210EFB023308BF01214E
:101FC00000225B7800910192022108F05FF9CA4B70
:101FD000186000288CD001200BF0BEFF2068C74B92
:101FE00000F5CB721A600EF063FC2B68980540F187
:101FF0009380C34C039B0021202204F506704FF010
:102000000008C4F8143216F0E2FFCDF8008020205A
:102010003221BC4A04F506730BF08EF9C4F8240291
:10202000002861D0B84A4FF010090260B74A1388FF
:10203000591CA4F82032B64B1180C4F82832B54B95
:102040003221C4F81832B44BC4F81C320BF0F2F849
:10205000D4F82432B14A83F804809369D4F814A2E6
:1020600043F001039361BAF80030DAF80400ADF8E8
:1020700038300EA902238DF83A908DF83B3010F0DD
:1020800002FDBAF80830DAF80C00ADF838300EA9C5
:1020900004238DF83A3010F0F6FC9AF81410012061
:1020A00010F0DCFCDAF810309D4A17A853618DF867
:1020B00061904FF0010917938DF860808DF8629060
:1020C0000FF07AFA9AF815300FA88DF83C300323F8
:1020D0008DF83D308DF83E808DF83F900FF04EFA30
:1020E0003B683C3BC4F83832102011F03DFF4FF400
:1020F000C873A4F83C328B4BC8221A80E1238A4A69
:10210000A4F83E32894B1A6040F27112884B1A8053
:10211000884B4FF0FF321A60874B884A884C136017
:10212000884A803313602B680027D903277040F159
:10213000B88040F22A39DFF844A210F069FA4FF073
:102140000108504639464A46DFF8D0B184F800808D
:1021500016F03DFF7C4A7D4B7D489A60DBF81830D5
:102160000EA943F00403CBF818304023ADF8383003
:1021700018238DF83B3003238DF83A300BF0B2FB77
:10218000DBF81C30734A43F00203CBF81C30724B6F
:10219000724C1B68ABF6947BB3FBF2F32288013BD5
:1021A00022F45C721204120C22809BB21D22A285C2
:1021B0002385A4F81480238C23F001031B041B0C3B
:1021C0002384238CA188228B23F0020322F0730244
:1021D00012041B04120C1B0C89B242F0600243EA89
:1021E0000803A1802283A7862384238B23F008037E
:1021F0001B041B0C43F008032383B4F844306FEA3C
:1022000043436FEA53439BB2A4F84430DBF8A83F42
:1022100043EA0803CBF8A83F584608F046FD17A844
:1022200008F018FD4E4BCDF860A0179380231C9347
:102230004FF480734FF0100A1D9358464FF400532B
:1022400017A92093CDF864A0CDF868901B971E972E
:102250001F97219708F00BFDA3890FA89BB243F4A9
:102260000073A381DBF8003043F00203CBF80030A9
:102270008DF83CA08DF83D808DF83E708DF83F8044
:102280000FF07CF9374B04991A68374B43F821203B
:102290000B460133202B0493F4D110F001FB10F016
:1022A000FFFA2B685A0540F19C80DFF854902F4BC1
:1022B000D9F86CA50420C3F800A008F01BF904218C
:1022C000C9F8700508F0F3F8294B89F8740508205F
:1022D000C3F800A008F00EF9264B0821186008F09A
:1022E000E6F8254C89F87505002120462C2216F0C9
:1022F0006EFE8E23637043E064190020B80D002049
:10230000D00100208DD5000866B701082C00002000
:1023100031D46842D52F0108C92F010800100240AE
:1023200000040140083300205E836C3F003300202E
:102330001033002004330020EC260020700F002012
:102340006C1200206C0F0020D12601085C140020C4
:102350000008014000366E016001002000040040CA
:1023600034040040B49101086E1200209C0E00203D
:10237000EC0E0020380F0020BC0E002010040020BE
:102380004FF07C08E0237D27E37084F8008084F818
:102390002B709B4C2C220021204616F018FE8A231D
:1023A00063702020A023E37084F8008084F82B70F1
:1023B000C9F878A508F09EF82021C9F87C0508F036
:1023C00076F889F880051020C9F884A508F092F8FD
:1023D0001021C9F8880508F06AF889F88C0513F00F
:1023E000CFF8884B1B78022B01D110F07EFB864B77
:1023F000DC6824B3E40AA0464FF00009A1450BDADB
:1024000009EB04077F100DF15C0AF8025146102217
:1024100010F014FC0F2807DC0EF090FC7B4B4FEA09
:10242000C822C3F890250AE000235AF8232001327D
:1024300055D10133042BF8D1B8463C46DEE7296874
:10244000734B11F4002218BF01221A707379052B07
:1024500002BF704B4FF4C8721A806F4B4FF47A7200
:102460001A806E4BC8221A806D4A137843F0080315
:1024700013706C4A137823F00203137040F60203C2
:102480000B40A3B1684A694B4FF07E501A60684B0D
:1024900003221A70674B01221A70674A00231380C7
:1024A000664A674913804CF2503211F098F92B6854
:1024B0009B0341BF634B04221A71DA7844BF42F098
:1024C0000102DA70B36801222B605F4B1A705F4A19
:1024D000137863F07F03137023B0BDE8F08F07F12A
:1024E00001092746A9E75A4B00221A7000B214F0DE
:1024F0005DFD584914F0AEFD574C0646B4F95E0137
:1025000014F054FD534914F0A5FD0546B4F96001DB
:1025100014F04CFD4F4914F09DFD0446304611F077
:1025200019FD8046304611F0A1FC0646284611F000
:1025300011FD0746284611F099FC0546204611F08A
:1025400009FD8246204611F091FC414681465046E5
:1025500014F080FD41468346484614F07BFD514609
:102560000590304614F076FD49460690304614F04A
:1025700071FD39460790504614F06CFD374C4946C2
:10258000206007F1004014F065FD29466060A560F9
:10259000069814F05FFD0146059814F053FC294697
:1025A000E060079814F056FD0146584614F048FCC8
:1025B0003946206106F1004014F04CFD2946606167
:1025C000584614F047FD0146079814F039FC294697
:1025D000A061059814F03EFD0146069814F032FC07
:1025E0004146E061384614F035FD2062FEF760BEDA
:1025F000012E7FF619A900263E70FFF7EDB800BF47
:10260000F00E0020083600201C000020D001002021
:10261000980B0020720D002000360020E4320020CC
:1026200068130020093600202E260020BC1100204F
:10263000C03300205C010020943500209635002036
:10264000E011002068190020F00A00202423002057
:102650000C00002035FA8E3CAC240020981100209C
:102660002DE9F04FAA4B97B01B7C8589A94E13BB6F
:10267000A94B28461D8014F095FCA849814614F00A
:10268000E9FCA74CA74B074618600021606814F0CE
:1026900075FEA0B1A44B636011E098470028E7D114
:1026A00009F00DF9A14B1B68EB1A1844A04B1B68ED
:1026B00064339842DCD2F368002BEED1F0E7384661
:1026C000616814F0BFFB0146384614F077FDD4F87A
:1026D000008007464146484614F0B2FB01463846A2
:1026E00014F0B8FC0146404614F0ACFB206014F036
:1026F0009DFE904A904B80B21279A081281A588092
:102700001D809A808D487368984748B98C4B8D4ED0
:102710001A68059312F0020F40F01E8100F016BEF9
:1027200000237F4D884E05F10E0232F9132046F842
:1027300023200133032BF4D1304631462A7E6B61CE
:1027400008F052FBD5F81C800021404614F016FE1C
:1027500078B17E4F3B88002B00F0B980D4F89030E0
:10276000DFF8F0811B7808F10C0505934FF00009A4
:1027700072E095F82030A3B96B616569684F022D4E
:102780000CDC07F12403242101FB0531684B404692
:102790001A68013511F023F87D61EEE7012387F80F
:1027A000203094F82030002BD3D05D4B00225A61AA
:1027B00065695B4F022DCCDC56F8250014F0F6FB62
:1027C00007F12403242101FB053110F0D5FF15F09A
:1027D000DDFC46F8250001357D61E9E7D5F800C04C
:1027E00009936146CDF81CC0089014F029FB099BA1
:1027F0008346184614F0DAFB0146584614F0DEFC16
:10280000DDF81CC00146604614F01CFB0346089A24
:10281000194668601046079314F012FB01465846AB
:1028200014F018FCA96814F00DFB079BE8602B60FE
:10283000A860DFF81CB1002346F80A304AF80B30D4
:10284000069B012B26D009F10109B9F1030F08F10C
:10285000040805F1140547D03B8856F82900B3F564
:102860007A7F069302BF0023C8F800302B61D8F8A6
:1028700000304FEA890A0344C8F8003014F096FB90
:102880002B690133012B2B61A8D1002368602860DC
:10289000AB60CEE72869012807DD013814F086FB1C
:1028A0000146E86814F08AFC00E0002015F034FED0
:1028B000059A72B10690104614F078FB069B01460B
:1028C000184614F083FD20B14FF47A733B80002347
:1028D00012E0D8F800304FF47A7203F5FA7393FBE4
:1028E000F2F34BF80A30AEE73888012801D109F03D
:1028F00073FA3B88013BE9E7154956F8232051F864
:102900002310521A46F823200133032BF4D1FDE69D
:10291000AC2400203C35002006360020BD3786352B
:10292000640700205035002083F9223EDC3200206D
:1029300064130020B8330020900B002072070020A1
:10294000C4330020B035002048130020003600209A
:1029500040080020F8070020904B1B78002B00F067
:10296000F58408F0ACFFD4F8E8308D4DC31A079316
:10297000D4F8EC30C4F8E8001F7806934FF0000A52
:102980004FEA4A030893002F3AD056F82A0014F071
:102990000DFB8346079814F005FB824914F05AFB9F
:1029A00000218146686814F0E9FC58B1384614F0FB
:1029B000FDFA7D4914F04EFB01464FF07E5014F0B5
:1029C000FDFB68604846696814F03CFA01464846D9
:1029D00014F0F4FBD5F8008081464146584614F0C7
:1029E0002FFA0146484614F035FB0146404614F0E4
:1029F00029FA286014F0F4FC6C4A089BD05204E0D9
:102A000056F82A10694A22F81A100AF1010ABAF196
:102A1000030F05F10C05B3D16449B1F802A0B1F878
:102A200000900FFA8AF252430FFA89F303FB032254
:102A30008B8864210A93BDF9283003FB032301FB33
:102A400003F25B4B1B885B4392FBF3F3523B0C930B
:102A5000059B1B68190706D5564A116819B15168BC
:102A600009B192687ABB544A127802F0100101F061
:102A7000FF0661B313F0200629D002F0020303F031
:102A8000FF0623B34D4B1B78042B1FD94C4B1B88DF
:102A9000B3F5967F1AD34B4B0126B3F9040014F01B
:102AA00085FA494B0546188814F080FA474914F016
:102AB00085FB0146284614F0C3F9454914F0CAFACB
:102AC0000025804606E00026012501E00026354667
:102AD0004FF00008079814F065FA324914F0BAFA7A
:102AE0003C4FD4F814410590386814F05FFA214641
:102AF00014F0B0FA0890786814F058FA214614F0EF
:102B0000A9FA0990B86814F051FA214614F0A2FA13
:102B1000284A83460898536801460B9317689468BF
:102B200014F098FA0D900998014614F093FA0D9A52
:102B30000146104614F086F959460D90584614F097
:102B400089FA0D9A0146104614F07CF915F0E4FC60
:102B50000D90002E44D040461F4914F037FC28B198
:102B60004046114914F06CF98046F4E740461B4991
:102B700014F00EFC28B140460B4914F063F980466E
:102B8000F4E74FF07C51404614F064FA11F06EF90E
:102B9000002114F057F9064623E000BFE435002079
:102BA00054080020BD378635DB0FC940860E002053
:102BB000040000205833002068130020A80E0020D5
:102BC000A40E0020401300204C0B002000002041E8
:102BD00035FA8E3C48130020DB0F4940DB0F49C01B
:102BE0000026002D00F0A180384614F0DFF90746DA
:102BF0000B9814F0DBF90546204614F0D7F9394656
:102C00000446384614F026FA29468046284614F031
:102C100021FA0146404614F015F921468046204627
:102C200014F018FA0146404614F00CF9A349804606
:102C300014F0CCFB002878D0404615F06DFC01461E
:102C40004FF07E5014F0BAFA80463846414614F0F0
:102C500001FA41460746284614F0FCF9414605466C
:102C6000204614F0F7F9964C80462168384614F057
:102C7000F1F961680B90284614F0ECF90B9B0146C2
:102C8000184614F0DFF8A1680B90404614F0E2F902
:102C90000B9B0146184614F0D5F8E1680B903846B6
:102CA00014F0D8F921690746284614F0D3F90146F3
:102CB000384614F0C7F861690546404614F0CAF971
:102CC0000146284614F0BEF80B9B054619461846E7
:102CD00014F0C0F929460746284614F0BBF901460E
:102CE000384614F0AFF815F017FC0146284614F0EA
:102CF000B1F900F10048A169404614F0ABF9002198
:102D000014F0A0F8E1690746404614F0A3F9002149
:102D100014F098F8216A0546404614F09BF90146E4
:102D2000304614F08FF8064601E000252F460C9B34
:102D3000262B00F286800FFA89F014F037F98146CD
:102D40000FFA8AF014F032F90446BDF9280014F0A5
:102D50002DF949468046484614F07CF921468246C2
:102D6000204614F077F90146504614F06BF84146BE
:102D70008246404614F06EF90146504614F062F85F
:102D80004E49824614F022FB00285AD0504615F0D6
:102D9000C3FB01464FF07E5014F010FA82464846BD
:102DA000514614F057F951468146204614F052F925
:102DB00051460446404614F04DF9414B82461A6A8A
:102DC00020461146D3F81C800B920C9314F042F964
:102DD00041460A90504614F03DF9DDF828C00146FE
:102DE000604614F02DF80146384614F02BF80C9B81
:102DF00007469B69504619460A9314F02BF90B9A23
:102E000082461146484614F025F90146504614F012
:102E100017F80146284614F015F84146054648467D
:102E200014F018F90A9B80461946204614F012F94E
:102E30000146404614F004F80146304614F002F80A
:102E40000646069B4FF00009D3F8048049464046E9
:102E500014F0BCFA1B4C002838D00D981A4914F015
:102E600097FA002838D03946404614F0F3F805990F
:102E700014F0F0F80146D4F8180113F0E3FF2946E6
:102E8000C4F81801404614F0E5F8059914F0E2F88A
:102E90000146D4F81C0113F0D5FF3146C4F81C01DB
:102EA000404614F0D7F8059914F0D4F80146D4F848
:102EB000200113F0C7FFC4F820010DE00AD7233C1E
:102EC0000C16002064070020C2B8B23EC4F8189166
:102ED000C4F81C91C4F82091069B9868064B1B7897
:102EE0005A0705D4054B1A6844F61F639A4207D95E
:102EF0004FF07E5105E000BF09360020141200207B
:102F0000A64914F0A7F83946804614F0A3F8D4F87F
:102F1000181113F097FF0146089813F093FF294604
:102F20008146404614F096F8D4F81C1113F08AFF3D
:102F30000146099813F086FF31460746404614F0D3
:102F400089F8D4F8201113F07DFF0146584613F09C
:102F500079FF4FF07C518246059814F07BF80546C6
:102F60004846294614F076F829460646384614F0B5
:102F700071F829468046504614F06CF8884B82461A
:102F8000D3F800B0874B3146D3F80090864B09F157
:102F900000401F68854B1D6814F05CF8414608909E
:102FA000384614F057F8089B0146184613F048FFBE
:102FB00051460890284614F04DF8089B01461846E3
:102FC00013F03EFF0146584613F03CFF744B314668
:102FD00018600A90584614F03DF85146089038465B
:102FE00014F038F8089B0146184613F02BFF4146B1
:102FF0000890284614F02EF8089B0146184613F056
:103000001FFF0146484613F01DFF664B41461860FE
:103010000990584614F01EF851460890484614F09E
:1030200019F8089B0146184613F00AFF314608902C
:10303000284614F00FF8089B0146184613F002FFCB
:103040000146384613F0FEFE574A5146106008907C
:10305000584613F0FFFF41468246484613F0FAFFF8
:103060000146504613F0EEFE31468046384613F0D6
:10307000F1FF0146404613F0E3FE0146284613F0F7
:10308000E1FEDDF828C0494B614618600546604600
:1030900013F0E0FF099A06461146104613F0DAFFD6
:1030A0000146304613F0CEFE089B064619461846E8
:1030B00013F0D0FF0146304613F0C4FE2946064601
:1030C000284613F0C7FF0146304613F0BBFE15F04B
:1030D00023FA01464FF07E5014F070F80546304B4D
:1030E0002946186813F0B6FF2D4B294618602D4B62
:1030F0002F4E186813F0AEFF2A4B294618602A4B52
:10310000186813F0A7FF284B29461860274B294D54
:10311000186813F09FFF254B186009F02BF9296AF6
:10312000E86910F021FE244913F094FF15F02EF801
:103130003080A86900F1004010F0D9FD01461F4819
:1031400013F07EFE1C4913F085FF15F01FF8296867
:103150007080E86810F008FE174900F1004013F095
:1031600079FFD4F8241113F06DFE15F00FF883B237
:1031700013F4004F16BF00F56160B380B0802C4699
:103180002E6A0F4D3046D5F8281114F01FF90D4B5B
:103190001A78C8B142F0080218E000BF00002041D0
:1031A0001000002000160020041600200816002041
:1031B000401300200C1600204C3D0F44DB0FC93F8C
:1031C000640700206813002022F00802944F1A7050
:1031D000B7F9000013F0EAFE8146B7F9020013F0D8
:1031E000E5FE8046B7F9040013F0E0FE21680746CB
:1031F000484613F02FFF61688246404613F02AFFCD
:103200000146504613F01EFEA1688246384613F070
:1032100021FF0146504613F015FEA169824648463B
:1032200013F018FFE1698346404613F013FF01468F
:10323000584613F007FE39468346304613F00AFF1E
:103240000146584613F0FEFDE1680646484613F075
:1032500001FF21698146404613F0FCFE01464846C5
:1032600013F0F0FD61698046384613F0F3FE014625
:10327000404613F0E7FD069B00F100475B78012B09
:1032800018D1684B1B785B070ED4D5F82C0140236E
:1032900090FBF3F3C01A13F089FE314613F0D2FD10
:1032A00014F09EF8C5F82C01D5F82C01402390FBB2
:1032B000F3F001E05C4B188813F078FE01463046CD
:1032C00013F0BEFDD5F834110646059813F0BAFD8B
:1032D0000146059813F072FFD5F83041804621462B
:1032E000304613F0ADFD0146404613F0B3FE0146F3
:1032F000204613F0A7FDC5F830010646504614F0ED
:1033000045FFD5F83851494C297810F0E1FC236885
:1033100018442060384614F039FF297810F0D8FCA2
:10332000636818446060304614F030FF697810F02C
:10333000CFFCA3683E4A184407991368A06019445B
:1033400011603C4A13680133136003E000233360CB
:103350007360B360384BB3F90610384BD3F800E014
:10336000BEF80A2091420FDBB1F5FA6F9EF80750C4
:10337000BFBF8B1A6B43A2F5FA6593FBF5F5ACBFA3
:10338000C5F16405643500E064252D4B2D4AB3F882
:10339000A0C193F9623112689BB20592164606935A
:1033A0000022254B4FEA420933F91280059CCCEBF1
:1033B0000803002BB8BF5B42B3F5FA7FA8BF4FF4F8
:1033C000FA73022A4FF0640044D094F81D411CB1F6
:1033D000A342CCBF1B1B002393FBF0F71A4C6FF0EA
:1033E000630B34F817A00BFB073B013734F9174088
:1033F0000FFA8AF7E41B04FB0BF494FBF0F4134F71
:10340000544427F809400EEB020424796343104C1E
:1034100093FBF4F364339BB26B4393FBF0F046E011
:10342000860E0020093600200400002018330020FA
:10343000EC35002014330020F0230020B4330020AA
:10344000AC240020601900204C1400203813002008
:103450000CFEFFFF94F81E411CB1A342CCBF1B1B06
:10346000002393FBF0F0AD4C6FF0630A0AFB003BC6
:1034700004EB400704EB4000B7F93C71B0F93E01A2
:10348000002BA0EB070000FB0BFB9BFBFAFB069855
:10349000C7EB0B0707FB00F7A148B8BF5B4287806B
:1034A0009EF8060043439F4893FBF0F06430737826
:1034B0006427434393FBF7F39B4C022AA354F37A0C
:1034C0009A4C00FB03F393FBF7F3A354737D944CE6
:1034D00000FB03F090FBF7F0954B9854954B0DD102
:1034E000E0459F700DDB944DB5F8A221914214DBAD
:1034F000B1F5FA6FA8BF4FF4FA610FE0E0459D54B3
:1035000004DA34F809305B4224F809300132032A26
:1035100006F101067FF445AFE5E71146891A4FF43D
:103520007A735943C2F5FA62B1FBF2F1642391FB5D
:10353000F3F2DFF854E26FF063003EF8127000FB24
:10354000021101323EF9122038B2121A514391FB96
:10355000F3F33B44E380794B714E1B885F063FD504
:10356000774B0A20B3F9043093FBF0F0754B1B88BE
:10357000C01A00B213F01AFD734913F06BFD074631
:1035800010F0E8FC8046384610F070FC0746B6F9AB
:10359000020013F00BFD8146B6F9000013F006FDA2
:1035A0004146824613F056FD39468346484613F09D
:1035B00051FD0146584613F043FC13F011FF4146FC
:1035C0003080484613F046FD39468046504613F099
:1035D00041FD0146404613F035FC13F001FF7080B9
:1035E0005A4B1A78500703D5594B08225A613CE0D0
:1035F00058490968C9075CBF42F001021A70564A6F
:103600005649127817075EBF1A7822F001021A7025
:10361000534A126812F0040F02D05248008870B961
:103620005148008808B1960709D4504A12880032E0
:1036300018BF01221AB94E480079632806D9022220
:103640000A701A7822F001021A7005E01B78D80778
:1036500056BF02230A700B7008F031F9454B1B6806
:10366000C01A002801DB07F02DFD434B9B680BB10E
:103670004248984795F89E31284F002B00F08880EB
:10368000BB89B7F85001B0FBF3F03D4B461C1B78EB
:10369000B6B2A7F852611BB3B7F954A10023DFF803
:1036A0007CE034F813800EF5AF7C3CF813200EF567
:1036B000AB79C2EB080B39F913202CF813800AFB05
:1036C00002F132B291FBF2F25A4429F8132001338D
:1036D000042BE4D12A4B00221A70AEF8540104E006
:1036E000B7F85431013BA7F854310C4A0023B2F922
:1036F000540100284ADDB2F952612249A1F10802C1
:1037000032F9132031F81310424392FBF6F28A1A71
:1037100024F813200133042BEFD139E06407002093
:10372000381300200CFEFFFF14350020AE080020E7
:103730002C35002054130020AC240020441200201B
:1037400040130020B20D002035FA8E3C09360020CF
:10375000000C014048120020681300203C12002099
:10376000C4330020E4320020720D00200036002017
:10377000B8330020401200203C350020B208002061
:10378000480E0020C208002034140020A2F8543152
:10379000A84EA94B3068012201071A7042D5A188B2
:1037A000DFF8ECE20BB2002BB8BF5B420E2BA34B51
:1037B000B3F9043031DCA24A128852072DD50A220F
:1037C00093FBF2F2BEF80030D21A92B293B20FFA23
:1037D00083FE1EF1B30FBCBF02F5B4739BB2DFF8DA
:1037E00068E21AB2B32A9EF800E0C4BFA3F5B4732E
:1037F0009BB21EF0080F95F8622113D052B25242CC
:103800005343904A1BB21268527A53436FF01D0221
:1038100093FBF2F30B44A38004E00A2293FBF2F340
:10382000AEF8003010F0140FDFF8689271D0844BBE
:103830001B8803F40273002B6BD0834B1B7803F0BF
:10384000100303F0FF0E43B1804B95F900121A6884
:10385000638801FB023363805BE0D9F868317C4AFE
:10386000D9787C489B7829B3B0F90010B2F90600EA
:10387000421A002AB8BF52429A420EDD764A884266
:10388000C2F800E04FF0010289F86C21C8BF5B422A
:10389000E2889BB21344E3803BE099F86C312BB192
:1038A0006E4B89F86CE11A686D4B1A60674B1B68A8
:1038B0000B4423E0B0F90000B2F90620121A82EAA4
:1038C000E27EAEEBE27E9E450ADD022392FBF3F23E
:1038D000644B1A60644A0123137089F86C310AE062
:1038E00099F86C313BB15D4B89F86C111A685C4BEF
:1038F0001A605D4B1970554B1B680344D9F8701161
:103900000A884988934203DB8B42A8BF0B461A46BC
:10391000E280564B1B78ABB14D4BB3F90620B5F89E
:10392000A2319A420EDC524B5B79012B01D0192B4C
:1039300002D195F8F6212AB90E2B03D0082B1CBF13
:103940000023A3803F4B1B6893F824A1BAF1000F1A
:103950002FD03B4B1B889B072BD0464B4649D3F8B7
:103960002080404613F01EFDF8B9404610F0BFF924
:10397000D7F8741113F06EFB14F008FCB0F5617FFA
:10398000A8BF4FF4617013F011FB3C4913F016FC13
:1039900010F06CFA0746504613F008FB394613F056
:1039A00059FB14F0F3FB80B200E00020E3881844D8
:1039B000E08033689F0640F1CE80214B1B8803F0E6
:1039C0003003002B00F0C7801F4B1B78DE0740F14F
:1039D000C2801A4BB3F904000A2390FBF3F013F0F2
:1039E000E5FA274913F036FB064610F03FFA804609
:1039F000304610F0AFFA234B07461B68224AD978AD
:103A0000224E002974D0DFF890B0B2F90200BBF862
:103A100002A006910FFA8AF3C01A05920CF0F0FE8C
:103A20000699059A4B42984238DB8842A8BF08465F
:103A300035E000BFC4330020490E002040130020B1
:103A40004412002060190020681300204033002039
:103A5000F02300204A0E00203C3300205C0F0020A1
:103A600034330020F03500204433002002000020D1
:103A7000AC2400200C1600208FC2753CEFB6B04479
:103A800035FA8E3CB80D0020CA0D00200236002009
:103A9000B00D002064070020C60D00201846BBF8BA
:103AA00000C08244B2F900000FFA8CF21FFA8AFAC1
:103AB000801A0793CDF814C00691ABF802A00CF061
:103AC0009FFE079BDDF814C0984204DB069903466D
:103AD0008842A8BF0B4663449BB2ABF800300FFA94
:103AE0008AF0059313F062FA059B834618B208E04A
:103AF000B2F90200059213F059FA059A8346B2F919
:103B0000000013F053FA39468246584613F0A2FAE1
:103B100041460590504613F09DFA059B0146184614
:103B200013F08EF99C4913F049FB13F059FC414600
:103B30003080584613F08EFA39468046504613F0CE
:103B400089FA0146404613F07DF9934913F036FB9C
:103B500013F046FC7080914BB5F874211868904BB7
:103B60000093904B1D68904B196800F16403A847BF
:103B70008E4B8F49DB7805938E4B1E78032E15D91B
:103B8000D9F878319D88B5F5FA7F0FD2B4F90400E1
:103B9000B1F904700028B8BF40426A42131A9F422C
:103BA00003DB2B18BB42A8BF3B468B80824B1B68B4
:103BB00013F000620BD1D9F87801E3884F88B1F88F
:103BC00000800690B1F904A07C4D144669E10B8891
:103BD000002706933D46D9F87831B946B1F802A0DE
:103BE000B1F904B0DFF8F4810793B14541D20FFA7F
:103BF0008AF013F0DBF9D8F8081013F02BFA0890CC
:103C0000BDF9180013F0D2F9D8F8041013F022FA15
:103C1000DDF820C00146604613F014F9079B0890B8
:103C200093F9020040420BFB00F013F0BFF9D8F803
:103C30000C1013F00FFADDF820C00146604613F0B7
:103C400001F913F0CDFB0FA980B221F819000FFA8A
:103C500085FE01B2714504DC0FFA87FE714502DB77
:103C600028460546384609F1010908F110080746BB
:103C7000BBE7534BED1B1A68ADB212F4805F06939D
:103C8000DFF85CA138D04F4A4F4E127812F0040F83
:103C90004D4A02BFD2F84012098AA2F83C12D2F86B
:103CA00040224A49108A4A4AB1F8068014680FFA3D
:103CB00088F7E288811A8F4204DCDAF8002027882E
:103CC000148806E00244974206DBDAF80020648894
:103CD0005788A6F83C8215E0B6F93C228A42D9BF43
:103CE0002788DAF80020DAF800206488D9BF148821
:103CF000B8465788A04605E0DAF80020B4F80680F8
:103D000057881488BAB21FFA84F9C9EB0206B6B212
:103D10000FFA85FB30B28345264D2E4962DD012224
:103D20000A7013F043F90790584613F03FF9079AC9
:103D30000146104613F042FA8346002229788A424F
:103D400014D20DF13C0C3CF91200CDF820C00792C2
:103D500013F02CF9594613F07DF914F017FA079A6D
:103D6000DDF820C02CF812000132E7E7164AD2F83D
:103D70007821507813F01AF9174913F01FFA014609
:103D8000584613F023FBB8B336B2022496FBF4F482
:103D90004C44A4B227462FE00000204160190020C7
:103DA0003C26002064000020B433002018120020BC
:103DB0009C130020DC14002048120020E80800209A
:103DC000142D00200936002064070020F023002075
:103DD00080150020691300200000C842E008002080
:103DE000841500200020087002209BFBF0F009EBF6
:103DF0000004171AA4B2BFB2069BDAF800601B6871
:103E000095F8009003F480530793A34B0025B3F972
:103E10003CA2D3F840320693A04BD3F800B04D45F6
:103E200080F007810FAB33F815200FFA88F0089265
:103E300013F0BCF89A4B2901C95813F00BF913F091
:103E4000CFFA23B29842089A03DB3BB28342A8BF61
:103E5000034613440598934A9BB222F81530690033
:103E60001BB208B1B08811E0079870B10698BBF892
:103E700006E0008ACEEB0000824503DC3088BBF808
:103E800000E005E0BBF8020000E03088B6F802E090
:103E9000834203DB7345A8BF734618465052013571
:103EA000BDE7B44205F11005DFF8F8B13BD218B216
:103EB000089313F07BF855F8181C13F0CBF8079013
:103EC00038B213F073F855F8101C13F0C3F8079AC2
:103ED0000146104612F0B6FF07900FFA88F013F073
:103EE00065F855F8141C13F0B5F8079A014610460A
:103EF00012F0A8FF069B079093F9020040420AFBCC
:103F000000F013F053F855F80C1C13F0A3F8079ABF
:103F10000146104612F096FF13F062FA089B2BF848
:103F200014000134BDE7BBF800300121B1421AB2E0
:103F300007D23BF9113001319A42B8BF1A4693B209
:103F4000F4E75949D9F878810968D9F840C2488816
:103F50000BEB46098242C8BF181A544B514A1F68DE
:103F6000C8BF80B207F480530693514BD8BF0020DE
:103F7000B3F90640494B07F010071D684A4558D071
:103F80001388069E1B1A9BB222F8023B4EB398F888
:103F900000A0BCF810E0BAF1000F08D1B5F806A0F7
:103FA000CAEB0E0B5C4502DDF244544514DB74454C
:103FB000CCBFB5F802E0B1F804E01BB2CCBFB1F859
:103FC00002A0B5F800A0734503DB5345A8BF5346D4
:103FD0009E4622F802ECD1E77445CCBF6B882B8853
:103FE00024E0059EB1F802E04EB132F902AC8B88B4
:103FF0009A451BDBF2455346A8BF734616E0B1F85D
:1040000000A01BB2534503DB7345A8BF73469A4615
:1040100022F802ACBCF812309C42AFDA0FB18B88A8
:1040200004E098F80030002BA8D10B8822F8023C5D
:10403000A4E720490A788B4602F0040202F0FF034D
:1040400042B1154890F84432013BDBB2182B00F224
:104050003D810BE0184A12789342F2D2174931F8A9
:104060001300104921F813000133F5E701229A40AB
:10407000134B1340002B00F02981124B0C491B8875
:1040800013F4807F22D0104B1A88ADF83C205A8858
:104090009B88ADF83E202FE06407002080150020AB
:1040A000E00800209414002084150020142D002026
:1040B000F023002009360020DC14002048190020DD
:1040C000992098014412002038130020B44B1A881C
:1040D000ADF83C205A889B88ADF83E20B14AADF837
:1040E00040301268D40409D5D0F84022B1F9064016
:1040F000128A944202DA5B42ADF84030AA4D4FF486
:104100007A72B5F902304FF4616403F5E163534309
:1041100093FBF4F3A3F5FA73ADF85430B5F900301E
:1041200003F5E1635A4392FBF4F2A04BA2F5FA7255
:104130001B88ADF85620A3F2DC53ADF84230D0F81E
:1041400040320A881B8AD21AADF844204A88D21A13
:10415000ADF846208A88D21AADF84820CA88D21A0B
:10416000ADF84A200A89D21AADF84C204A89D21AF1
:10417000ADF84E208A89D21AADF85020CA89D31AD8
:10418000ADF8523000238A4A002122F8131001337F
:10419000082BF8D1874B88491B68884D0593884BBD
:1041A0001B680693874B1B78C3EBC30301EB030823
:1041B000414573D00B7833B103F1150201239340CD
:1041C000059A134066D0069B11F806EC0E2707FBF4
:1041D0000E37B7F90020B7F9023064209B1A11F9A5
:1041E000022C9BB25A4392FBF0F211F805AC4FEA55
:1041F000530911F8034CC9EB02024FEA4A0616A80C
:1042000092B211F801CC064414B936F81C0C0CE03B
:10421000B5F9000036F91C6CB04208DA0444844257
:1042200003DBA6423046A8BF2046288008E007DD11
:10423000041BB44203DB8442A8BF044626462E80FA
:10424000D7F80A40012000FA0AF02042B5F90060D0
:1042500011F9040C12B200FB06F04FF0640690FB5B
:10426000F6F014BF4FF0FF34012490420ADB4FFAFE
:104270008CF25A4392FBF6F2C9EB020212B282426E
:10428000A8BF02464A4B33F81E9002FB049423F861
:104290001E4000E02B800235073189E7484B4A4E2B
:1042A0001F6800250E2303FB057393F9064036F9BA
:1042B000023FE8B26343642493FBF4F4348008F0D3
:1042C0003FF801352044082D3080EBD1354F384D73
:1042D0003B683B4E13F0200F33D0002008F030F83D
:1042E00028800446012008F02BF8324B68801B68B8
:1042F000190626D5354B2C4AD3F868321B78012B8A
:1043000023D13168B2F9003091F914E04FF0320C4A
:1043100003FB0EF393FBFCF31FFA83FE91F90630C7
:10432000B2F902205B4253436FF0310193FBF1F18C
:1043300093FBFCF30EEB0102A1187344298018448F
:104340006880D6F800E0002319E0D6F800E0B2F962
:1043500002309EF906105943322391FBF3F12144B8
:1043600029809EF91440B2F9001001FB04F292FB7F
:10437000F3F21044E4E70133082B2A5328D00E212E
:1043800001FB03E135F91300B1F900205C00904214
:10439000B1F90210EFDB0AB28242A8BF0246EAE797
:1043A0009C130020142D00204013002094140020A2
:1043B0003C0B0020481200208F150020AA09002085
:1043C000B0190020881500203A0B00206407002057
:1043D000A64CD4F878A19AF90C30A3B994F8448289
:1043E00008F1FF33182B74D8DFE803F037737351EB
:1043F0007373734A73737373735B737373737351F0
:104400006773735B3700DFF884924FF0000839F967
:10441000020F12F0CBFD964B242101FB08310FF067
:10442000ABF913F0B3FE32680E2303FB082280B20F
:10443000A9F80000B2F9003000B29842B2F90220A7
:1044400003DB13B28342A8BF034608F10108B8F1A9
:10445000080FA9F80030DAD1C0E79AF8063013B196
:104460000020698908E09BF8003003F0040303F0A2
:10447000FF00002BF4D101460EF066FF012629E073
:104480000020E9880EF060FF0120298905E0002066
:1044900029890EF059FF698901200EF055FF022687
:1044A00018E00226B01E35F81610C0B201360EF024
:1044B0004BFF082EF6D106260CE00326F01E35F839
:1044C0001610C0B201360EF03FFF072EF6D10426BB
:1044D00000E000263B689A0602D4B8F1050F0AD125
:1044E000304629880EF030FF701CC0B269880EF08B
:1044F0002BFF0236F6B23B68DB0205D494F88C330E
:104500007BB107F063FE0CE0DFF8848100257019B1
:10451000C0B238F8021F0EF017FF0D2DEED0013596
:10452000F5E7544B1878002840F0C5813B681D031F
:1045300040F1C181504D2B78033B052B1FD84F4BC9
:1045400093F8143833B1012B09D10CF035FCC0F1CC
:104550007F0004E0D4F8900303689B689847D4F880
:10456000943394F898231344B3F5807FA8BF4FF495
:1045700080738342D4BFC4F89433C4F894032B7877
:10458000023B092B00F28781DFE813F00A001500D7
:104590004C0084009A00B300C5003E015B01660137
:1045A0000023C4F89433C4F89C33354B1B68C4F81B
:1045B000A03303236EE1324B1A68D4F8A03364337E
:1045C0009A4240F2688140200BF016FF002840F02C
:1045D00062814FF040082B4BD4F89C23234F985C0A
:1045E0001E4680B108F016F8D7F89433B8F10108E8
:1045F00003F1FF33C7F89433D7F89C3303F1010379
:10460000C7F89C33E7D1D4F89C23184BB25C002A3E
:1046100040F04181C3F89C234FF0FF32C3F8A02340
:10462000042337E126230093174B492003F10C02A2
:10463000019302925021A3F10A02023308F0DAFB3F
:10464000002840F028813B684FF0FF3213F08003D0
:104650000FBFC4F89C33C4F89C03C4F8A0230523FF
:1046600004BFC4F8A023072314E100BF640700209F
:10467000D00900200B360020980B0020AC2400202D
:104680001412002028920108929201083A0B00208F
:10469000F62300208A4A022300210093019102910F
:1046A000482002F1080308F0A5FB002840F0F38041
:1046B0004FF0FF33C4F8A033C4F89C030623E9E0AD
:1046C000804B072603F10C02019302920096A3F19E
:1046D000080247200021043308F08CFB002840F03A
:1046E000DA804FF0FF33C4F89C03C4F8A0332E7077
:1046F000D1E0754A052300210093019102915320D6
:1047000002F1080308F076FB002840F0C480C4F8EA
:104710009C030823BEE040200BF06EFE002840F012
:10472000BA80D4F89C330D2B00F2BB80DFE803F095
:10473000070B0E1219202C31363A3E4C575B63485A
:104740000BF0C2FF5AE0624862491AE062486349CE
:10475000634A51E0634B644893F8121893F81328A6
:104760004AE0624B624893E8060008331B6833E076
:104770005C4B0C2193F8EC275E4801FB023393F865
:10478000EE170BF0A1FF39E0564B5B48B3F844112C
:10479000F7E7544B5948B3F84611F2E7584B5948DC
:1047A0001969EEE7584B59481988EAE7D4F8A43359
:1047B000D80404D54B4B564893F88211E1E7554B8A
:1047C0000C22C3F89C2319E0464B534893F88611FA
:1047D00093F8872193F885310BF076FF0EE04F4870
:1047E000B4F8A813CDE73B68190507D53D4B4C48F5
:1047F000B3F88A11B3F988210BF066FFD4F89C3323
:104800000133C4F89C3346E0464B1B689A0115D52A
:10481000B4F8AC333F4E8BB9D6F8B0330E200F93BB
:10482000414B0FA91B68109307F0DEFF4FF4805334
:10483000A6F8AA330A232B7008F02EF807F0B6FF6B
:1048400029E094F8B433002BF6D0364B1B689B015B
:10485000F2D409232B70F1E7344B1A68D4F8A03353
:10486000C8339A4204D91F4B93F814688EB904E0F8
:104870000BF008FE0028F6D10DE0D4F8900305F007
:10488000F1FC94F8B533C4F89063022B01D10DF01C
:104890000EF901232B700BF0DFFD60B101232B70AB
:1048A00009E00BF0EFFD0028F5D04FF48053A4F899
:1048B000AA330A23EEE7002017B0BDE8F08F00BF4F
:1048C0005094010868940108B49401086EB7010877
:1048D00088B701089DB70108A5B70108B9B7010855
:1048E000C5B70108AC240020CEB70108E8F7FF1FC8
:1048F000DFB70108F3B70108FDB701080CB80108DC
:104900003C3500201BB80108040000202BB801082A
:1049100035B801086407002042B801085BB80108F7
:1049200066B8010848120020DC3200201412002072
:104930002DE9F04FA04BAFB01C780193002C00F094
:10494000E4809E4B1868002802F04B8007F08EFA36
:104950009B4C206807F016FC002802F0428020687B
:1049600007F00DFC0928974C01D03F2852D10027B1
:10497000B8462568944E2DB1944831682A4614F003
:1049800081FB20B93746B8F1000F00D1B046904BFB
:1049900010369E42EFD34646B8F1000F1DD0D8F82E
:1049A00000C0D7F8009023681CF803E019F8030052
:1049B000704512D15A1C854958B92D2B09D8DFF8FA
:1049C00004E2CEF800204FF0200E01F803E08854F6
:1049D00003E001F803E02260E5E723680BB1B84586
:1049E0000FD07C4810F09CF9BE4207D856F8100B47
:1049F00010F096F9092010F080F8F5E705F000FCBA
:104A0000002523689D42A3D2704B585D10F075F8C5
:104A10000135F6E72368002B41F06887042841F050
:104A2000B9876A480AF052F901F0DBBF3068DFF855
:104A3000C4A107F0A7FB002850D0DAF8000007F067
:104A40009EFBDBF80030024693F84810002978D12D
:104A5000242840F0D780012283F84820DBF800307A
:104A600093F848000628E1D193F84960502E00F0F1
:104A7000E28700F2A881342E00F0058500F246811D
:104A8000242E00F07C8600F21381032E00F05F825A
:104A900040F2EF80052E40F001811A2010F018F846
:104AA00000264D4B985D01360FF0CFFF0B2EF8D14D
:104AB00000264A4B985D01360FF0C7FF082EF8D14B
:104AC0000026474B985D01360FF0BFFF072EF8D147
:104AD0000FF0CAFF2B68002283F84820414B18686A
:104AE00007F0C4F9404B93F87D3053B158F80400F7
:104AF00005F094FB07F0BCFB0FF066FA3B4A3C4B19
:104B0000DA604C34982C01F06C87DFF8F48054F8AC
:104B1000083004EB0802002BF3D0364E07933360C5
:104B20000023354D354F8DF82130DFF8B890142330
:104B30008DF8203006AB2A600697C9F80030AB46E6
:104B400074E7012904D14D2814BF0022022283E713
:104B5000022904D13C2814BF002203227CE7032948
:104B60000CD140284FF0000102D983F8481075E7B6
:104B700058711971D971987104226DE7042906D111
:104B8000997983F849004A409A71052264E705291A
:104B90007FF464AF587919798842987906D95040E2
:104BA0009871481C18710B441A7257E790420CBF59
:104BB0000622002250E700BF0B360020AC33002055
:104BC00000340020AC190020B89C01087C1900209A
:104BD000989E010883B90108B9B70108C5B7010853
:104BE0009DB70108A43300201C0B00200400FA0527
:104BF00000ED00E0A8330020A033002091C10008A0
:104C000014240020D8490B7803F0040303F0FF0EAE
:104C1000002B7FF423AF232ADAF800001CD1029284
:104C2000019A01231370D14B03911860D04B186087
:104C3000986010201873CF485F6083F80DE004334C
:104C40000360CD4810F06CF805F0DAFA0399029A87
:104C50000B7843F002030B70C84B1B681B78934220
:104C600001BFC74AC74B1A60C74A04BFC74BDA60C7
:104C7000F4E6012E00F05F81022E40F068870420E8
:104C80000FF026FF43200FF0E0FE4C200FF0DDFE7A
:104C900046200FF0DAFE4C2000F03EBFC0F08281CB
:104CA000222E40F0548750200FF012FF0027CBE354
:104CB0002C2E00F0928518D8282E00F075852A2E0B
:104CC00000F08585262E40F04287B14E06200FF079
:104CD000FFFEB6F85C010FF0FEFEB6F85E010FF0C5
:104CE000FAFEB6F8600100F0D9BE302E00F017864B
:104CF000322E00F0B2852E2E40F02987A44E40209F
:104D00000FF0E6FE06F1400700F0F8BD422E00F07D
:104D1000BA8520D83A2E00F06A820BD8362E00F0E1
:104D2000D385382E40F0138704200FF0D1FE984E23
:104D300000F02BBD3D2E00F08D82402E00F09485BA
:104D40003B2E40F0048701200FF0C2FE914B1B6800
:104D5000187800F0E1BE492E00F088820ED8462E69
:104D600000F00386472E00F04186452E40F0EF8686
:104D700013200FF0ADFE002600F081BE4D2E00F096
:104D80004B854F2E00F069864B2E40F0E086804E1A
:104D900008200FF09DFE96F8E0010FF056FE96F801
:104DA000E1010FF052FEB6F8E2010FF094FE96F822
:104DB000E4010FF04AFEB6F8E6010FF08CFE96F81B
:104DC000E80100F0A9BE722E00F0EA8352D8692EE5
:104DD00000F0F0812AD8652E00F0258115D8522EDA
:104DE00000F04886642E40F0B28607200FF070FE77
:104DF000E7200FF02AFE664B58790FF026FE0020C0
:104E00000FF023FE042000F045BE672E00F0548111
:104E100000F2C38112200FF05BFE5F4B00261B885F
:104E2000B3F5806F8CBF0827012726E16D2E00F0B7
:104E3000D48115D86B2E4E4F00F0268440F20684A4
:104E4000564E06200FF044FE30880FF044FE708866
:104E50000FF041FEB6F904300A2093FBF0F0F3E1C5
:104E60006F2E00F00A82C0F0C781702E00F06082C1
:104E700000F06DBE7D2E00F0158629D8762E00F04C
:104E8000138409D8742E00F0248340F2C2832F20AB
:104E90000FF01EFE424ECFE2782E00F01981C0F0D6
:104EA0005D837C2E40F05386394E08200FF010FEB3
:104EB000B6F84C010FF00FFEB6F84E010FF00BFEE6
:104EC000B6F850010FF007FEB6F8520100F0E6BD4B
:104ED000A42E00F0118417D8962E76D0A02E00F0C4
:104EE00040847E2E40F03386294E03200FF0F0FDE3
:104EF00096F858010FF0A9FD96F859010FF0A5FD9D
:104F000096F85A0100F008BEF12E00F02081FE2E26
:104F100000F01984F02E40F01A861E4E04200FF087
:104F2000D7FD3368B3F866000FF0D5FD3368B3F8EA
:104F3000640000F0B3BD03200FF0CAFD00200FF0A5
:104F400084FD01200FF081FD102000F0E5BD30460A
:104F50000FF0BEFD01200FF078FD0C200FF075FD65
:104F6000304600F0D9BD00BF0936002000340020D3
:104F70001C0B0020AC330020B3B90108CC2C00205E
:104F8000EFBEADDEF04F00200400FA0500ED00E0BA
:104F9000AC240020601900200400002040130020F1
:104FA000DB94010806200FF093FD41200FF04DFD2A
:104FB00046200FF04AFD4E200FF047FD41200FF034
:104FC00044FDC54B187800F069BD0D200FF080FD41
:104FD000C24B18880FF07FFDC14B188880B20FF0CC
:104FE0007AFDC04B1B68C3F3C000C3F3800280008E
:104FF00040EA4200C3F340021043C3F3401240EAC8
:10500000C20003F0100318430FF065FD06F07EF8B0
:105010000FF06AFDB44B93F8EC070FF016FDB34B9D
:10502000187900F03BBD0B200FF052FDAB4B1888F8
:105030000FF051FDAA4B188880B20FF04CFDA94B20
:105040001B68C3F3C000C3F38002800040EA420043
:10505000C3F340021043C3F3401240EAC20003F01E
:10506000100318430FF037FD06F050F80FF03CFD29
:105070009D4B93F8EC0700F04FBD9D4B33F91600A4
:10508000013690FBF7F080B20FF025FD032EF4D12E
:10509000984E30880FF01FFDB0880FF01CFD30894E
:1050A000954E0FF018FD30880FF015FDB0880FF009
:1050B00012FD308900F0F2BC10200FF009FD00262F
:1050C0008E4B985D01360FF0C0FC102EF8D1FFE436
:1050D00070200FF0FDFC4FF000090E2606FB09F6CC
:1050E000874F09F101093B683344B3F825010FF0FC
:1050F000F2FC3B683344B3F827010FF0ECFC3B684B
:105100003344B3F829010FF0E6FC3B68334493F8CD
:105110002B010FF09AFC3B68334493F82C010FF0FD
:1051200094FC3B68334493F82D010FF08EFC3B68F0
:10513000334493F82E010FF088FC3B681E44D6F8E8
:105140002F010FF0D1FCB9F1080FC6D1C0E47020D7
:105150000FF0BEFC644E06F1700796F8D4000FF015
:1051600074FC96F8D5000FF070FC96F8D6000FF09E
:105170006CFC96F8D7000FF068FC96F8D8000FF09A
:1051800064FC96F8D9000FF060FC073696F8D3005F
:105190000FF05BFCBE42E0D19AE410200FF098FCC7
:1051A0000026584B33F8160001360FF094FC082EF9
:1051B000F7D18DE4544F00263878400000F0FE000F
:1051C0000FF086FC3B789E42BFF482AC4F4B33F825
:1051D00016000FF080FC0136F4E70FF079FC4C4B21
:1051E00018680FF081FC4B4B188800F057BC042066
:1051F0000FF06EFC484BC0E24FF6FF7607200FF031
:1052000067FC464B1888FF28A8BFFF20C0B20FF0EC
:105210001CFC434B1868B042A8BF304620EAE0703F
:1052200080B20FF058FC3F4B18880FF054FC2E4B07
:1052300093F88D213C4B18684AB10A235843B04279
:10524000A8BF304620EAE07080B200F027BC00F32F
:105250000F00F9E7244E02200FF03AFC96F8EC011B
:105260000FF0F3FB96F8EB0100F056BC02200FF0B4
:105270002FFC1D4B988900F011BC2C4E0B200FF019
:1052800027FC3368374618780FF0DFFB33684FF0A0
:10529000000958780FF0D9FB3B68244E4B4418792D
:1052A00009F101090FF0D1FBB9F1030FF4D1336813
:1052B000D8790FF0CAFB336898780FF0C6FB3368D3
:1052C000D8780FF0C2FB336858890FF004FC3368BC
:1052D000187A00F021BC00BF0836002006360020F6
:1052E000D4330020C4330020AC240020B833002085
:1052F000860E002048130020583300203C0B00206D
:105300006019002094140020C82C0020F0230020F5
:105310005C0F00208C0E00200433002004120020BB
:10532000C0110020600F0020A00E0020B433002028
:10533000BE4E1E200FF0CCFB336800271B78022BDB
:1053400066D1336807F1080253F82200B84911F01A
:1053500081FE12F01BFF80F30800C0B20FF075FB56
:105360003368B44903EB8703D86A11F073FE12F077
:105370000DFF80F30800C0B20FF067FB336807F140
:105380000E0253F82200AC4911F064FE12F0FEFE4A
:1053900080F30800C0B201370FF057FB032FD0D1C4
:1053A000072F336821D1586CA14911F053FE12F038
:1053B000EDFE80F30800C0B20FF047FB33689C4954
:1053C000986C11F047FE12F0E1FE80F30800C0B2C5
:1053D0000FF03BFB336893F84C0011F0E3FD12F043
:1053E000D5FE80F30800C0B20BE03B4458780FF0C4
:1053F0002CFB33683B44D87A0FF027FB33683B44DF
:10540000587D01370FF021FB0A2FC9D1FFF760BB90
:1054100033683B4458780FF018FB33683B44D87A24
:105420000FF013FB33683B44587D01370FF00DFB41
:105430000A2FEDD1FFF74CBB16F8010F00283FF4FF
:1054400047AB0FF002FBF7E7784B0C211E687B4B54
:1054500006EB870696F88520013701FB023393F8A7
:1054600038000FF0F2FA96F886000FF0EEFA96F890
:1054700087000FF0EAFA96F888000FF0E6FA142F8A
:10548000E2D1FFF725BB48200FF022FB0027674B36
:105490001E68062303FB076696F8DA000FF0D5FABC
:1054A00096F8D5000FF0D1FA96F8D6000FF0CDFAA5
:1054B00096F8D7000FF0C9FA96F8D8000FF0C5FAA1
:1054C000013796F8D9000FF0C0FA0C2FDFD1FFF7A3
:1054D000FFBA00264FF0010A4FF0000B584B1B7823
:1054E0009B4531DA574B4FF000091BF803200C2382
:1054F00003FB09F3514F07F13001595C914209D187
:105500003B44586B13F0B5FD0146BAF1000F07D1CB
:10551000534607E009F10109B9F11D0FE7D110E089
:1055200006440EE08B420CDA0C2202FB0972526B2D
:105530000391D05C02930FF088FA029B0399013328
:10554000F0E70BF1010BC9E7BAF1000F3FF4C0AA75
:10555000F0B20FF0BDFA4FF0000ABDE7384F002659
:1055600038780FF0B5FA3B789E42BFF4B1AA354BBC
:10557000002116F803E00C2202FB01F32F4800F192
:10558000300C13F80C20724505D1034493F8380011
:105590000FF05BFA02E001311D29ECD10136E2E7A0
:1055A000294E16200FF094FAB6F8A0010FF093FAE6
:1055B000B6F844010FF08FFAB6F846010FF08BFAF7
:1055C000B6F848010FF087FAB6F8E2010FF083FA57
:1055D00096F801020FF039FA00200FF036FA96F82B
:1055E00002020FF032FA96F88D010FF02EFA96F8BB
:1055F0009B010FF02AFA00200FF027FA0B4B0A202C
:105600001B68B3F9623093FBF0F080B20FF063FADD
:10561000BBE008200FF05CFA0126F0B201360FF073
:1056200014FA092EF9D1FFF753BA00BF6019002010
:10563000000020410000C84200007A44DC940108C8
:105640004C1200204D120020AC24002010200FF03E
:105650003FFAD04BD04E187800F002000FF0F5F969
:10566000CE4B18780FF0F1F930680FF03DFA706802
:105670000FF03AFACA4B18880FF02DFAC94B188868
:105680000FF029FA388E09E205200FF021FAC64BF7
:1056900018880FF020FAC54B18880FF01CFA97F8FD
:1056A000320000F0010037E20FF0B2F9814612201B
:1056B0000FF00EFAB9F1000F01D1BD4B03E0B9F1C3
:1056C000100F03D1BB4B1F685E6801E00026374610
:1056D00048460FF0BAF938460FF006FA30460FF098
:1056E00003FAB54B18680FF0FFF900200FF0F3F93B
:1056F00000200FF0F0F9C0E1B04F002697F833001A
:10570000B94680000130C0B20FF0E2F997F83300DB
:105710000FF09BF999F833309E42BFF4D9A9A84FF6
:10572000B85D0FF092F907F11003985D0FF08DF955
:1057300007F12003985D30370FF087F9B85D0FF05F
:1057400084F90136E6E708200FF0C2F900269D4BE8
:1057500033F8160001360FF0BEF9042EF7D1FFF72B
:10576000B7B90C200FF0B4F9974B18680FF0BCF9DB
:10577000964B18680FF0B8F9954B18688AE1042029
:105780000FF0A6F9934B986884E196F882010FF028
:105790005CF996F886010FF058F996F885010FF03C
:1057A00054F996F88701B7E18A4E07200FF090F977
:1057B000B6F888010FF08FF9B6F88A010FF08BF96F
:1057C00096F88C010FF041F9B6F88E0166E10120E0
:1057D0000FF07EF97F4B58799EE17E4E0C200FF042
:1057E00077F996F898010FF030F9B6F8A4010FF0A8
:1057F00072F9B6F8A0010FF06EF9B6F8A2010FF039
:105800006AF996F89A010FF020F9B6F8A6010FF0A0
:1058100062F9B6F8A80141E16F4E704F30784FF051
:10582000000900EB4000C0B20FF052F933780237A4
:105830009945BFF44DA917F8020C0FF006F917F8B7
:10584000010C09F1010900EB800000EB800000F27F
:10585000EE2080B20FF03FF9E8E701200FF038F9B1
:105860005C4B93F89B0157E108200FF031F90026BB
:10587000584B334493F8900101360FF0E6F8082EA8
:10588000F6D1FFF725B9534E10200FF021F97079AA
:105890000FF0DBF8B0680FF027F996F898010FF0D9
:1058A000D4F8B6F85C010FF016F9B6F85E010FF007
:1058B00012F9B6F860010FF00EF9B6F888010FF092
:1058C0000AF9B6F88A01E9E0454B424E187806F12C
:1058D0002807C0EBC000C0B20FF0FAF896F8080233
:1058E0000023404AD25C904200F01A810C333C2BDA
:1058F000F7D10836BE42F1D1FFF7EAB8B6F8C002D8
:105900000FF0E9F896F8C2020FF09FF8043696F807
:10591000BF020FF09AF8BE42F0D1FFF7D9B8E020ED
:105920000FF0D6F82B4E06F18007B6F84202043687
:1059300000F03F000FF0CFF8B6F83E02C0F386103B
:105940000FF0C9F896F83C0200090FF07EF896F8BF
:105950003C0200F00F000FF078F896F83D020FF0CF
:1059600074F8BE42E1D1FFF7B3B80D200FF0B0F8E4
:105970000DF030F91C4E40F00200C0B20FF065F897
:1059800030880FF0B1F8F0680FF0AEF80BF01CF9AA
:1059900080E000BF68130020AC0E0020A80E00209D
:1059A000A60E0020A40E00201C0F00201E0F0020B9
:1059B000640F0020BC0D0020343300201C0B00209D
:1059C000500B0020900B0020E8F7FF1FECF7FF1FA3
:1059D000F0F7FF1FAC240020C82C00205626002022
:1059E000740F0020D42C00201C0000200FF024F89D
:1059F000074684200FF06CF838460FF075F8C54B59
:105A00000DF13809DE6807F18003B3428CBFF61B45
:105A100080260BF093F93846324649460DF00EF9D0
:105A200007460026BE42BFF653A819F806000FF03D
:105A30000CF80136F6E7B84E04200FF049F80120C3
:105A40000FF003F896F814080EF0FFFF96F812080E
:105A50000EF0FBFF96F813085EE00B200FF038F80D
:105A600000200EF0F2FF00200EF0EFFF00200EF0FD
:105A7000ECFF0BE001200FF02BF800204CE0A74BCF
:105A8000985D01360EF0E1FF0B2EF8D100200FF0EB
:105A90002BF800200FF028F8FFF71AB80FF01BF8CA
:105AA000FFF716B89E4E03200FF012F8336893F8F4
:105AB0001D010EF0CAFF336893F81E010EF0C5FFFA
:105AC000336893F81F0127E040F2FF84F22E00F0C4
:105AD0007D8540F29E85F32E40F0FD860EF098FF06
