:020000040800F2
:10000000005000202D7F0108C97F01089554010888
:10001000C97F0108C97F0108C97F010800000000ED
:10002000000000000000000000000000C97F01087F
:10003000C97F010800000000C97F010875A20008FF
:10004000C97F0108C97F0108C97F0108C97F01086C
:10005000C97F0108C97F0108292601082526010852
:10006000212601081D26010819260108A9A6000855
:10007000A1A6000899A6000891A6000889A6000874
:1000800081A6000879A60008C97F0108C97F010878
:10009000C97F0108C97F0108C97F01081526010829
:1000A000C97F0108C1E90008C97F0108D1E900083A
:1000B000B1E90008A1E9000891E900080DF900087C
:1000C0000FF9000809F900080BF90008C97F0108B9
:1000D000C97F0108C9170108BD170108B117010838
:1000E00011260108C97F0108C97F0108000000002E
:1000F0000000000000000000000000000000000000
:0C01000000000000000000005FF808F1A3
:100110008E4A8F4B2DE9F04F1A608E4B00241C60E5
:100120008D4A8E4BA7B01A608D4B01225A708D48B4
:100130009A7060211E2214F02BFC40B18A4B8B4830
:100140001C608B4B214680221C6019F058FB894CA7
:1001500000212822204619F052FB2046864A2546D7
:100160001388591C118020F8083B2821032214F021
:100170000FFC78B14FF47A73636001230093082079
:1001800000217E4A234613F025F9606210B17C4BB2
:10019000036009E0686A20B113F0F6F8754B00229D
:1001A0005A62784815F00BFE774B1B78702B02D102
:1001B00014F0F2FA18B907F0FFFE07F00BFE07F093
:1001C000D9FF724A724D1378724F43F001031370D6
:1001D00000230B930C930D934FF4E0130E932B68B5
:1001E000397843F480332B60AB6943F01003AB6183
:1001F0002B6803F400330C930B9B01330B930C9B84
:100200001BB90B9BB3F5A06FF2D12B68604813F4B8
:10021000003301D0022315E0026842F001020260BF
:100220000B932B6803F002030C930B9B01330B938E
:100230000C9B1BB90B9BB3F5A06FF2D12B689C07ED
:100240003BD501230D93544B54481A68814642F024
:1002500010021A601A6822F003021A601A6842F04B
:1002600002021A606B686B606B686B606B6843F4CA
:1002700080636B604A4B1A68043B22F070425A60FC
:10028000484A02606A6822F47C126A605A6842F046
:1002900000425A60DA6822F40042DA609B6813F484
:1002A000004F17BF404B4FF4E01303604FF480132F
:1002B0000E930D9B012B01D117E0FEE7022B18D105
:1002C00069B10E9BB3F5801F02D14FF4A01305E076
:1002D0000E9BB3F5E01F02D14FF400130E930E9A5C
:1002E0006B68134343F4803302E06B6843F460139C
:1002F0006B602B6843F080732B602A68244B90015D
:10030000FBD55A6822F003025A605A6842F0020292
:100310005A606B681E4A03F00C03082BF9D153682E
:10032000224E03F00C03042B03D0082B04D01D4BEA
:1003300048E0D9F8003045E053685168C3F383437F
:10034000C90303F1020335D4194A3AE0E340010836
:100350005C35002058350020979F00084434002069
:100360004C1A00206834002064340020003900203A
:1003700080390020541A002070010020692F0108E4
:1003800014B901085C1A002000F00108E0380020D0
:10039000001002409802002000200240740100205A
:1003A0000410014000127A00001BB7002802002050
:1003B00000093D00526812F4003FD9F8002018BF30
:1003C0005208534333606B68DFF8B882C3F30313FA
:1003D000434493F848203368DFF8ACC2D34033601D
:1003E0007B78DFF8A8A2003318BF0123BB70904BC5
:1003F00026ACCCF80C30AB69CDF810C043F001034B
:10040000AB616B6ADFF888B2CAF800306B6A002211
:1004100043F080736B62AB69584643F01C03AB61D9
:100420004FF6FF7324F82C3D21468DF86E20039281
:1004300011F021FB7F48214611F01DFB7E4821462B
:1004400011F019FB10238DF86E304FF40071022368
:100450008DF86F300293ADF86C105846CBF8101041
:10046000214611F008FB48218DF86E100421ADF8EB
:100470006C105846214611F0FEFA4FF48061ADF839
:100480006C106C48214611F0F6FA6C48416841F056
:1004900000714160204616F071F81B996848DDF83C
:1004A00010C0B1FBF0F16748016031684FF47A7019
:1004B000B1FBF0F1644801394160F0218CF8231060
:1004C000039A6249826007220260D9F80020CDF8C1
:1004D0000C808A425E46029B03D15D4B01221A705A
:1004E00004E05C498A4204BF594A13705A4B5B4A84
:1004F0009B4612685A481A6000215A4B8A0202F140
:10050000804233F811C002F5843200234CFA03FE16
:100510001EF0010F1CBF4FF0010E0EFA03FE03F197
:1005200001031EBF0260A0F804E00830102BEDD1DB
:1005300001310329E1D1F9784B4A02931170AA697C
:10054000002142F00102AA614848402219F057F9FF
:10055000FF210722464819F052F9A969029BDFF8EA
:10056000D4900222DFF82C8141F008018DF86F2031
:1005700002928DF86E300493A9610821C8F80090AA
:100580004846A8F80410ADF86C10C9F810102146C0
:1005900011F071FAA969049B41F00801A96148466C
:1005A000C8F80890A8F80C30ADF86C302146C9F8AE
:1005B000103011F060FA264B029A19788DF86F20EE
:1005C000AA6902294FF4805034BF14211021ADF8DC
:1005D0006C0042F0040200F180408DF86E1038BFCC
:1005E0004FF00009AA6128BF4FF0010900F57840DB
:1005F000214611F040FA1F4AB9F1000F01D01E49FF
:1006000000E01E490020116011F07AFCDBF80020A8
:1006100013074AD51A4A117A9146012945D8917A89
:10062000DAF8002012F0805200F005863DE000BFAD
:100630000005FA05000C01400010014000000140D7
:1006400040420F00401A002010E000E000127A0043
:10065000833A0020001BB700C0330020EC0A0020C2
:10066000C0310020E4B50108F5130020F01C002083
:10067000301D0020643A0020411E0108551E01086B
:10068000E83300204C99010800ED00E068330020B9
:10069000000801401C360020DAF8003013F08053C7
:1006A00003D1C04A937207F057FF642009F089FD17
:1006B000A022BD48002119F0A2F8EB69002243F006
:1006C0000703EB61AB6943F4006343F00C03AB61D8
:1006D000B64B4FF00009191D02F8019001320E2AA5
:1006E000F6D1FF229A74DA741A755A754946B048E1
:1006F0003C22DBF800A019F082F84946CAF38015C5
:100700000523AC4ADFF8A8E2885C0C224A4302F8D1
:100710000E0045B91E3801289FBFFF2003F1FF33AB
:1007200002F80E00DBB201310529EAD1A24AA34941
:100730001370A34B9D4ABB61A24B1AF0200F1960A6
:10074000A14B93F80090A14B03EBC9035B7818BF52
:100750000123D361002240F2DC519D4B23F812109B
:100760000132082AF7D114A800211C2219F047F8F9
:100770001AF4007B0AF4006827D0B8F1000F08D003
:10078000944A927902F1FF3EDEF1000242EB0E0242
:1007900000E042461AF4015F07D18F490B46A1F1F0
:1007A0001400002A18BF034600E08C4B0293029B02
:1007B0005A6810921A88ADF84420DA6812921A89A1
:1007C000ADF84C2010AA1A9201E0CDF808B0B9F1AA
:1007D0000E0F03D009F0EF02082A02D101228DF892
:1007E0006220012009F02AFC8DF85500022009F052
:1007F00025FCCAF340028DF85720CAF340328DF829
:100800005020CAF3C0328DF856008DF859508DF83B
:100810005320B8F1000F05D06E4B9B79581E434210
:10082000434100E043468DF85430CAF300438DF84D
:100830005A30FB691BF1000B18BF4FF0010B00335E
:1008400018BF01238DF85C30CAF300538DF85D307A
:100850003B8C0AF00109ADF860307B8CCAF3C0050F
:10086000ADF85E30CAF380438DF858305C4B8DF89C
:1008700051901F898DF852508DF85BB0ADF86470BF
:100880000CF006FBB7F5FA7F8CBF0023ADF86600CD
:100890004FF0000153484FF0780288BFADF8663042
:1008A00018F0ADFF9DF86230002B0CBF002302232F
:1008B000B9F1000F00D105B10133039A4FF0000BDD
:1008C00002EB8308D8F858309A1E1A330392049327
:1008D000039B33F8022F03934FF6FF739A4200F005
:1008E000E3819DF85510D3B2120AD7B261B13E48E8
:1008F00000EB03104168B14206D10189042900F0E0
:10090000CE81082900F0CB819DF8561079B1364888
:10091000364D00EB03104168A94208D10189B1F5B9
:10092000806F00F0BC81B1F5006F00F0B8819DF8D8
:10093000591031B12C48190140582D49884200F016
:10094000AE819DF85A0030B1274D19016D582849E4
:100950008D4200F0A481DDF868E0BEF1000F1BD0ED
:10096000214DDEF8001005EB0318D8F804C08C45C3
:1009700006D1B8F80880BEF80410884500F08F81D1
:10098000DEF808108C4507D105EB03152D89BEF85C
:100990000C108D4200F08381022A2BD19DF850204B
:1009A0002CE000BFE8330020DC1D0020980200206E
:1009B000240B002076BA0108441A00208409002084
:1009C000081F0020A81D00200C090020F09B010832
:1009D00070090020200A0020609901084C99010844
:1009E000540A0020E00C002034B80108000C01403B
:1009F00000040040012A04D19DF85120002A00F093
:100A00004E819DF85C20BF4D4FEA031862B19DF8FE
:100A100062204AB9A3F10802012A05D855F8082036
:100A2000B9498A4208BF04279DF85D20454452B168
:100A30009DF862203AB910B10C3B012B01E0043B58
:100A4000032B40F20881012F57D1AE4ADFF8C8923C
:100A500002EB0801FF2391F80DE0486889F868303F
:100A600089F8693001F1080309894FF0000AADF8EF
:100A70006C1002218DF86F1089F870A01BA9C9F8BD
:100A80007C508DF86EE00692059389F824A0C9F891
:100A900028A0C9F82CA0C9F830A0C9F864A089F82A
:100AA0006AA089F86BA089F86CA010F0E4FF059BA0
:100AB000069A997852F80800524610F0E8F928464C
:100AC00051463A4610F06EF8904B09F18001C9F892
:100AD00080308F4B09F18402C9F88430C9F888A0AE
:100AE000284610F0A5F88B4B20219A7803EBC20220
:100AF00051721A7901321A71CDE0022F56D15FFA84
:100B00008BF31C2101FB03FC834B4FF0000903EB2B
:100B10000C0A01238AF8703006937A4B8AF871B078
:100B200003EB080191F80DE001F10802486809891A
:100B30008AF87290ADF86C108AF87A901BA9CAF8FE
:100B40007C50CDF81CC08DF86EE005928DF86F706A
:100B500010F091FF6B4B059A53F8080091784A46C4
:100B600010F095F9069B28461A46494610F01AF8E7
:100B7000694B6A4ADDF81CC0CAF8802003EB0C01FF
:100B8000674A8031CAF88420CAF888900A1D28462E
:100B900010F04EF85F4B40219A780BF1010B03EBFC
:100BA000C2025172DA780132DA7074E0032F50D148
:100BB0009DF85830574F93B14FF6FF7200232846E7
:100BC000082197F801800EF06FF9564B192243F86F
:100BD0002800554BC360BB7807EBC3032DE0BDF87D
:100BE000642097F80180B2F5FA7F13D94F4B28465D
:100BF000B3FBF2F2082192B2BDF866300EF054F960
:100C0000484B0D2243F82800494BC360BB7807EBE3
:100C1000C30312E0474B2846B3FBF2F2012192B224
:100C2000BDF866300EF040F93E4B092243F828002B
:100C30003D4BC360BB7807EBC3035A72BB787A782D
:100C4000013307F8332007EBC30301325D607A708C
:100C500021E0042F23D1BDF85E20364B2D4F93FBAE
:100C6000F2F2012192B2BDF86030284697F8008078
:100C70000EF01AF9284BBA7803EB8803013207EB20
:100C8000C201C3F850010A234B703B784D6007F84E
:100C9000323001333B701F4A937801339370039BCA
:100CA000049A93427FF414AE1A491B4A0978224BE6
:100CB00082F87011214900250E781D70A6F11701E8
:100CC0000229914698463DD8D9F818300021585944
:100CD00003EB050A16F0C2FD20B1D9F81C30002B39
:100CE0004CD146E0164F9AE80F002F4487E80F00DA
:100CF00098F8003010350133C02D88F80030E3D16A
:100D0000EBE700BF34B80108002C0140B106010830
:100D100031080108E00C002098020020CD0E0108E7
:100D200087060108AC1D00207108010800127A0036
:100D30008108010840420F00FA1B00200C09002026
:100D4000F8130020924B13F836E003EBC603D3F8F8
:100D500004C088F800E0BCF1000FBED07545BCDAD5
:100D60008C4F2B011F4463440FCB013587E80F00E4
:100D7000F4E7894F3B68D90424D41DE0874B884AA7
:100D800013F8360003EBC6035D681070002DF0D039
:100D900000238342EDDAC3EBC3016A18D2F800C026
:100DA000DFF828E2013341F80EC001EB0E0791880D
:100DB000B9809279BA71ECE706F0EF03082B794B12
:100DC00025D126E098F80030012BF5D9764D05EBBA
:100DD000031303F1100810354545EDD055F8100CFC
:100DE0004FF07C5116F0A6FB4FF07C5145F8100CEB
:100DF00055F8140C16F09EFB4FF07C5145F8140C7E
:100E000055F80C0C16F096FB45F80C0CE3E70E2E8B
:100E100008D11A78182E42F010021A7008D10BF07F
:100E20009DFF05E01A78192E22F010021A70F5E7DE
:100E30000CF05AF83B685D4D5A035EBF5C4B0122D3
:100E40001A705C4A5C4E13784FF0030943F00403B8
:100E500013705A4B4FF0040A93E80300AB6984E81F
:100E6000030043F00803AB611B981CA910F003FEBC
:100E7000EB69214643F48043EB612B69304643F430
:100E800080432B6118238DF86E304FF42043ADF86A
:100E90006C308DF86F9010F0EEFD4FF480432146DA
:100EA00030464FF48058ADF86C308DF86EA010F0DD
:100EB000E2FD2146102330468DF86E30ADF86C808F
:100EC00010F0D9FD2B693E4A43F480432B612B6916
:100ED000322023F480432B611388AB4603F4415343
:100EE00043F4457343EA09031380938B23F40063AF
:100EF0001B041B0C93830723138213889BB243F0BC
:100F0000400313809F23C6F810808DF83C300023E7
:100F10008DF83D308DF83E308DF83F3009F051F9B5
:100F200020465246C6F814800FA913F089FDC6F872
:100F300010809DF86E309DF86D201B0243EA02433D
:100F40009DF86F201F4C13431F4A934213D0322049
:100F500009F037F9C6F81480F52013F09FFDFF2043
:100F600013F09CFD7028C6F8108004D12378022B62
:100F700008BF84F800902378032B0CBF1F200220A9
:100F800009F02FF82378032B22D013F02DFD24E055
:100F9000F09B0108F8130020C033002014A50108BD
:100FA000371D0020700A00200014002000100240AD
:100FB000C0150020E0380020000C0140B499010861
:100FC00000380040833A002015202000381D002002
:100FD000022009F033F80028D7D03B68002113F431
:100FE000004F03F00202C3F3C02343EA0203227856
:100FF00014BF04250025AD4C012A8CBF0822002215
:101000002B4343EA02052046102218F0F8FB4FF666
:10101000FF730222ADF83C30002715F001038DF874
:101020003E208DF83F700CD0A1480FA9ADF83C20B0
:1010300014F04EFF09232370072201236770A37069
:10104000E2701E46AB070FD510239A480FA9ADF8E2
:101050003C3014F03DFF042301222371A271731C64
:1010600007226671E271DEB26F070ED50223914846
:101070000FA9ADF83C3014F02BFF0123F2182372B6
:10108000A37207236672E372D6B22D070FD5202311
:1010900088480FA9ADF83C3014F01AFF052301224F
:1010A0002373A273731C07226673E273DEB2DBF84C
:1010B0000430814843F44043CBF80430DBF814306B
:1010C000002543F00103CBF81430DBF818307A4FD9
:1010D00043F40073CBF8183015F0C5FA1BA815F0CF
:1010E00097FA764B012E1B93754B1BA91C9394BF4B
:1010F0002B46802320934FF4807321934FF4806319
:1011000022932023239338464FF4005324931D95B4
:101110001E961F95259515F088FA3B68694943F09E
:1011200001033B604A68012E22F4702294BF002321
:10113000012322F4807242EA03224A608B68624AE9
:101140001A4042F4602242F002028A60CB6A23F421
:101150007002731EDBB242EA0353CB6229460123BD
:1011600062189078002851D0655C581C092DC0B2D7
:10117000D278544F10D9A5F10A06D7F80CC006EB67
:1011800046064FF0070E0EFA06FE2CEA0E0EB2408F
:101190004EEA0202FA600CE03E6905EB450C4FF0A6
:1011A000070E0EFA0CFE26EA0E0602FA0CF2324385
:1011B0003A61062B434E0CD8013B776B03EB83035C
:1011C0001F229A4027EA020205FA03F313437363CE
:1011D0001BE00C2B0CD8DA1F376B02EB82021F23AB
:1011E000934027EA030705FA02F33B4333630CE01D
:1011F000A3F10D02F76A02EB82021F23934027EA54
:10120000030705FA02F33B43F36203460431102956
:10121000A6D12C4B9A6842F480729A609A6842F088
:1012200001029A609A6842F008029A609968254A19
:1012300008074DD5FAE7013909293FF636AAD8F84B
:101240000810B8F80C00029248612049086821464D
:101250001B90184810F00FFC082131613C2008F069
:10126000B0FFD8F80810B8F80C00029A086199F895
:101270000A108A42BFF610AAD8F80010B8F8040085
:1012800004920861082171617820029108F08EFFB4
:10129000D8F80000B8F80430029943613161782031
:1012A00008F084FF049A0132E1E700BFD81900205A
:1012B000000C014000080140080002404C2401409D
:1012C000E819002000240140FDF7F1FFBC99010856
:1012D000936843F004039360AC4B9A6812F00402E5
:1012E0000392F9D19A6842F4A0029A60A84AB2F92E
:1012F000003099B20591002941F00280B2F9021044
:10130000002940F0FD87B2F90420002A40F0F88758
:10131000A04AA14C12782046012A04929EBF9F4AFF
:101320000021917200217422069318F068FA4FF0A0
:101330007E526260A260E260954A0598B2F902505E
:10134000B2F90470A9B2BAB2069B18B911B9002A51
:1013500000F08880012284F84C2018B216F096F82C
:101360008F4916F0E7F88F4916F098F9064628B22B
:1013700016F08CF88A4916F0DDF88A4916F08EF9D5
:10138000054638B216F082F8854916F0D3F885493B
:1013900016F084F98146304613F010F98046304645
:1013A00013F098F80646284613F008F90746284631
:1013B00013F090F80546484613F000F98246484677
:1013C00013F088F841468146504616F0B3F841467E
:1013D0000590484616F0AEF851460690304616F095
:1013E000A9F849460790304616F0A4F83946089007
:1013F000504616F09FF84946206507F1004016F068
:1014000099F829466065A565079816F093F8014696
:10141000069815F087FF2946E065089816F08AF8C7
:101420000146059815F07CFF3946206606F100401C
:1014300016F080F829466066059816F07BF801469C
:10144000089815F06DFF2946A066069816F072F808
:101450000146079815F066FF4146E066384616F0EB
:1014600069F8206700210C224F4818F0C8F90021C4
:1014700014224E4818F0C3F94D4B049A03F110079B
:10148000012A98BF1F464B4C4B4D002631460C227B
:101490002670667005F5BA7018F0B1F92320C5F80A
:1014A000807108F08EFE752001210DF12A020FF0E7
:1014B00099FEB8B1414B3046C5F87831404B012117
:1014C000C5F87C310DF12B02432385F874310FF000
:1014D00089FE9DF82B3003F07E038DF82B30002819
:1014E0004BD177E095F8843163BBDBF81830354E8B
:1014F00043F00803CBF8183010238DF86E304FF40A
:101500008057032330461BA98DF86F30ADF86C70FF
:1015100010F0B1FA2C4A3761138823F040031B0402
:101520001B0C1380138823F038031B041B0C43F09F
:101530000803138013889BB243F0400313800123F8
:1015400085F884311BAA752001210DF087FC9DF8D8
:101550006C30A3F17002012A03D9AF2B01D0122BFA
:101560007ED105232370432385F87431174BC5F8CA
:101570007831174BC5F87C3172E0682B2AD10123F2
:1015800023701D2385F874316AE000BF00240140F8
:10159000F00A0020833A00209435002068180020CB
:1015A000DB0F49400000344340090020541800205C
:1015B000749901084A19002098020020E5110108D9
:1015C00065110108000C0140003800405DEE000884
:1015D00089EE00089DF82A3003F07E03682B8DF811
:1015E0002A3039D10223062023701BAAD5F878317E
:1015F000014698479DF86F309DF8712003F0010374
:101600005B0002F0010243EA82029DF86D3003F0B4
:101610000103134311D05AB2012A01D1002302E081
:10162000022A02D1012363701AE003F00303032BA3
:10163000F8D0032008F0CFFD12E0A44B0C20D3F823
:10164000783101210FAA98479DF83C3013F00F0321
:10165000EFD0042BE6D1E1E7702B04BF0423237005
:101660009B4A002313702378022B09D199499A4889
:1016700008609A4848609A48C8600121117023E0C8
:10168000012B0BD1934997481370086093480423AA
:101690004860954888609248C86015E0042B07D1DF
:1016A0008C4B92491960924959609249996006E0C1
:1016B000052B13D1874B8D4919608849596088499A
:1016C000D9600123137007238B4A13708B4A136868
:1016D00043F00103136007F055F910B9012008F039
:1016E0007AFD874A0A26137843F002031370854A6D
:1016F0001446936891895961136891881961A268A9
:10170000A189D36819204B40D3602268A188D3688F
:101710007C4F4B40D36008F054FD012010F0F0FBEB
:10172000192008F04EFD002010F0EAFB731E13F0A4
:10173000FF06E4D13B68BA88734E1A61BB68BA8968
:101740001A616E4B1A68984612F0020F0CBF012303
:101750000723510748BF43F00803316812F00A0F0E
:1017600043F0006318BF43F070038A0648BF43F09C
:1017700080030F06654F48BF43F4C063387800F01C
:10178000EF02082A01D00E2801D143F40063CC03F4
:101790004CBF43F4A04343F480534A0748BF43F48B
:1017A00080334C0543F4802204D5594C24780CB185
:1017B00043F440228C0548BF42F40012182808BFA9
:1017C00042F0E072CB0548BF42F0806242F48014E0
:1017D0004FF000094FF0010A0AFA09FA1AEA040F59
:1017E0005FFA89F004D006F06DFA08B924EA0A0419
:1017F00009F10109B9F11D0FECD1464B00211C6024
:1018000050224548334C17F0FAFF0021502243483C
:1018100017F0F5FF08F02AFE228A414BDFF84891C5
:1018200093FBF2F33F4A9BB2D27ADFF840A15343D5
:10183000D9F80000CAF8003006F0EAF997F90C3040
:10184000DAF800A0002B32D1374B1B68187B15F05B
:101850001DFE364915F06EFE12F0B0FE344B3349D2
:101860001860E06815F066FE324B334C1860334B5D
:10187000188915F00BFE0146314815F00FFF31496C
:1018800015F00CFF304B18600BF03CFB2F49002388
:1018900061602F492F4AA1602F4913800B702F4997
:1018A0009370098A2E4A1FFA81FC126860E04FF09B
:1018B000000B2C48B968584452460BF11C0B12F02F
:1018C0002DFFBBF1E00FF4D1BEE700BF980200206E
:1018D000853A0020541800200D160108790F0108E0
:1018E00090C1793D4D100108410F0108DD13010839
:1018F0009510010809100108780100202009002036
:10190000E03800201C360020C03300200C090020E5
:10191000781100202C090020DC0700202C08002072
:1019200040420F00681800201C17002035FA8E3C3A
:10193000341A0020241A0020083400204009002016
:101940000AE81C4100401C463C33002081FC000892
:101950007DFC00081C24002075120020E8330020C4
:101960004C0A0020E0140020480A0020603A0020C1
:10197000DFF840A3A748DAF800E0DFF83CB30EF543
:10198000967E20F813C04BF823E00133122BEFD1E1
:10199000D6F800E01EF4805F04BF9F4BB3F816C07A
:1019A000A0F806C002F1500C1378A3B99378D07850
:1019B000834210D20BB1013B00E0431C03EB8303D5
:1019C000507803EB830303F56173DFF848B29BB2F1
:1019D00004302BF8103004326245E5D11EF0080FB8
:1019E00000F0DB808C4A137A9346072B00F2CF80FD
:1019F000DFE803F0040407314A688CB011F090FB73
:101A0000C4E00A23090191FBF3F10023A1F5B061C1
:101A1000824A42F823100133122BF9D1237042F687
:101A2000F82363807E4B402063607E4BA36008F008
:101A300023FB002800F0AB809BF809300122002B2B
:101A400014BF0723062390F9000040218DE80C0005
:101A5000754A764B95E01023237042F6F823638095
:101A6000734B40206360734BA36008F005FB0028B4
:101A700000F08D8001234FF0000C90F90000402110
:101A80008DE808106C4A7AE00823237042F6F823A8
:101A900063806A4B40206360694BA36008F0ECFAF6
:101AA000002874D001234FF0000E90F9000040216F
:101AB0008DE80840634A4FF4E13308F090FCC5F824
:101AC000880160E0604A00251570604A2321157086
:101AD0005F4A102315705F4A237011705E4A4020E0
:101AE000137042F6F82363805C4B63605C4BA36029
:101AF00008F0C2FA00284AD0012390F900004021E2
:101B00008DE82800574A4FF4E1331DE042F6F822F1
:101B10006280554A00256260544A0C23A260544AF0
:101B200040201570534A23701570534A1570534A5C
:101B3000137008F0A1FA50B3012390F90000504A45
:101B40008DE828004F4B402108F049FC401B18BF8E
:101B500001201BE00A23237042F6F82363804A4BDE
:101B600040206360494BA36008F086FA78B10123F6
:101B7000002590F900008DE82800454A40214FF4E7
:101B8000E13308F02CFC003018BF012028B90820F0
:101B90000AF06AF83F4A404B5A603368580408D547
:101BA0001222227044F6206262803C4A62603C4A03
:101BB000A26042F201021A407AB144F62061364A2C
:101BC0005180990403D508211170364904E0DD07DE
:101BD00003D50C211170344951601C0640F19D80E1
:101BE0000025324C29461522314865706560A56094
:101BF00017F005FE28460CF0F1FBDAF80030022061
:101C0000E36008F039FA002858D180200AF02CF857
:101C10007FE000BFC4330020E8330020742300209D
:101C20008DFA0008BDFA0008B5FE0008A086010084
:101C3000F1F9000805FA000809FE000875F9000826
:101C400089F90008BDFD00085C1700204518002038
:101C5000441800205D17002081170020B18500087E
:101C6000C18500080D880008D1860008E9860008B3
:101C7000E6170020091800200A1800200B18002081
:101C8000F188000890D00300598600086986000892
:101C9000A588000881FC00080834002051FC0008D9
:101CA0003DFC00086DFC00085DFC00086C33002062
:101CB0002404002034360020C012002045796378C7
:101CC000C5490C2202FB03125278AA4204D0013308
:101CD000DBB2042BF4D900236370C04B62781B780D
:101CE00090F90000002B4FF00C0303FB021314BF0C
:101CF0000325012500225B7800950192022108F05E
:101D00006EFBB74B186000283FF47FAF01200CF04A
:101D100065FBD9F800000CF009FC336898057DD507
:101D2000B04C029B0021202204F5D4704FF0000932
:101D3000C4F8A43117F063FDCDF8009020203221C3
:101D4000A94A04F5D47311F045FB2546C4F8B40143
:101D5000002848D0A54A0260A54A1388591CA4F857
:101D6000B031A44B1180C4F8B831A34B3221C4F870
:101D7000A831A24BC4F8AC3111F08CFCD4F8B431CA
:101D8000D4F8A44183F8049023886068ADF86C30DF
:101D90004FF0100902231BA98DF86F308DF86E905B
:101DA0000FF069FE2389E0681BA9ADF86C300423AD
:101DB0008DF86E300FF05FFE607C10F003FC04467F
:101DC0008F4B05F5E671C5F8CC3180224B46C5F83E
:101DD000C8010AF03FFF204612F07CFE894B1B68C9
:101DE0003C3BC5F8D031D8F80030C82243F010038E
:101DF000C8F800304FF4C873A5F8D431824B1A806C
:101E0000E123824AA5F8D631814B1A6040F2711263
:101E1000804B1A80804B4FF0FF321A6033687F4C42
:101E20000025D903257040F1AD8040F22A384FF0EB
:101E3000010A11F01FFD84F800A06A4C294604F540
:101E4000EC794246484617F0DAFC754B04F204512F
:101E5000C4F80435C4F80855724C6022724808F082
:101E6000DEFBA369714843F00403A3614023ADF88E
:101E70003C3018238DF83F300FA903238DF83E30F6
:101E800014F026F8E3696A4A43F00203E361694B00
:101E9000A4F503341B68B3FBF2F32288013B22F460
:101EA0005C721204120C22809BB21D22A285238533
:101EB000A4F814A0238C23F001031B041B0C23841F
:101EC000238CA188228B23F0020322F073021204D8
:101ED0001B04120C1B0C89B242F0600243EA0A0395
:101EE000A1802283A5862384238BDFF85CA123F0C5
:101EF00008031B041B0C43F008032383B4F844308D
:101F000050466FEA43436FEA53439BB2A4F8443010
:101F100014F0A9FB1BA814F07BFB474B50461B9306
:101F200010231D93802320934FF4807321931BA9CA
:101F30004FF400532493CDF87090CDF878801F951E
:101F400022952395259514F070FBA3899BB243F449
:101F50000073A381DAF8003043F00203CAF80030BE
:101F6000364A0398039B002113448152FF229A7042
:101F7000DA7003460433802B0393F1D10DF0EAF8B5
:101F80000DF0E8F833685A0540F1A180042008F00C
:101F900073F8144C0421C4F80C0508F063F884F8B5
:101FA0001005082008F068F8254B0821186008F093
:101FB00059F8244D84F81105002128462C2217F0E9
:101FC0001EFC8E236B704FF07C09E0234FF07D08E0
:101FD000EB7085F8009039E048B60108680A0020E7
:101FE000D01E002098020020BF3001081AB9010855
:101FF0007001002031D46842EDE90008E1E90008F1
:102000003BEA000834360020203300205E836C3F1A
:102010001C330020283300201C0A00208C390020AB
:1020200005EA000800100240FC0100200008014001
:1020300000366E0128020020340400408E39002052
:1020400008120020941100206C00024085F82B80BB
:10205000954D2C220021284617F0D1FB8A236B7066
:102060002020A023EB7085F8009085F82B8008F0E5
:1020700003F82021C4F8140507F0F4FF84F81805CC
:10208000102007F0F9FF1021C4F81C0507F0EAFF43
:1020900084F820054FF4807007F0EEFF4FF4807154
:1020A000C4F8240507F0DEFF84F828054FF48060AB
:1020B00007F0E2FF4FF48061C4F82C0507F0D2FF6F
:1020C0007A4B002284F830051A7009F04BFF784BE8
:1020D000784C1B78022B40F08180774A00251388CA
:1020E000322023F040031B041B0C138013884FF491
:1020F000805823F038031B041B0C138013889BB2F9
:1021000043F0400313809F238DF83C308DF83D5001
:102110008DF83E508DF83F5008F053F88DF86D5013
:10212000664D0FA90422C5F814801BA812F088FC84
:10213000C5F810809DF86E309DF86D201B0243EAB3
:1021400002439DF86F205E4913435E4A934219D0C3
:102150000AD8A2F51A42033A93420CD002F51A4269
:102160000232934209D011E0574A934205D001321E
:10217000934207D00AE0202200E0802222804FF420
:1021800080720DE04FF48072228009E0D1F83405AE
:102190004B4A834212D1B2F83805B2F83A25208072
:1021A000D1F834056280464A70B9C2F834352388C4
:1021B000A2F838356388A2F83A3505E00023238079
:1021C0006380A360E36009E06288A38853432288A8
:1021D000A3605343E360012381F83C35E56825B3F0
:1021E000ED0AA8464FF00009A9450BDA09EB0504F2
:1021F00064100DF16C0AE002514610220DF054F803
:102200000F2807DC0CF0D8FA2D4A4FEAC823C2F891
:1022100040350AE000235AF82320013240D101332F
:10222000042BF8D12546A046DEE73B78052B02BFFC
:10223000264B4FF4C8721A80254B4FF47A721A80DD
:10224000244BC8221A80244A137843F008031370E1
:10225000224A137823F00203137033689B0711D5C9
:102260004CF250321E484FF07E5112F057FA1D4B7F
:1022700003221A701C4B01221A701C4A002313807F
:102280001B4A13801B4B01221B6833601A4B1A70C8
:102290001A4A137863F07F03137027B0BDE8F08FFC
:1022A00004F101094446BEE7C51100203D1200209B
:1022B000833A00200000002000380040000C01405C
:1022C0009802002018BA20001740EF009A0D002055
:1022D0002C130020E4320020700A0020843A0020F1
:1022E000EC0800200F0C002024020020F41900202C
:1022F000F6190020EC0A0020C0150020E03800206C
:10230000434A0021117018B2099315F0BFF84149F2
:1023100015F010F9404C0646B4F9020015F0B6F875
:102320003C4915F007F90546B4F9040015F0AEF87C
:10233000384915F0FFF80446304612F03FF9804660
:10234000304612F0C7F80646284612F037F907461D
:10235000284612F0BFF80546204612F02FF98246B3
:10236000204612F0B7F841468146504615F0E2F893
:1023700041460490484615F0DDF851460690304637
:1023800015F0D8F849460790304615F0D3F839468D
:102390000890504615F0CEF8204C4946206007F1D1
:1023A000004015F0C7F829466060A560079815F051
:1023B000C1F80146069814F0B5FF2946E060089878
:1023C00015F0B8F80146049814F0AAFF39462061C8
:1023D00006F1004015F0AEF829466061049815F04A
:1023E000A9F80146089814F09BFF2946A0610698B9
:1023F00015F0A0F80146079814F094FF4146E061FB
:10240000384615F097F8099B2062FEF781BF00BFA0
:102410001C00002035FA8E3CF00A0020B419002080
:102420002DE9F04F374ED7B0751E771C4FF00008DE
:1024300055F8113CA5F11109002B01F0B58455F8B0
:10244000110C08F083F88246002801F0868455F8C4
:10245000110C08F078F815F8053C0446013B042BF4
:1024600004D8DFE803F0070C1F292D0024284DD1E4
:10247000012344E04D2814BF002302233FE0002342
:102480003C2805F8053C02D03E2805D075E015F83B
:102490000D3C002B71D103E015F80D3C012B6CD1E4
:1024A00003232CE040284FF000039EBF05F8043CB6
:1024B00005F8030C042322E005F8020C05231EE0B6
:1024C00015F8042C15F8033C9A4209D2531C0E4906
:1024D00005F8043C502303FB08131A4410744CE025
:1024E00015F8022C691E5A4013F1FF3303D311F87B
:1024F000010B4240F8E794420CBF0623002305F885
:10250000053C3AE0EE070020DC070020DFF8E4B0ED
:1025100055F8111C9BF8003013F004022DD1232C28
:1025200020D12B4B012018702A4B2B4883F8B12067
:102530001022C3F8A80083F8B020C3F8AC1003F150
:10254000A8022648C3F8A010C3F8A410C3F8C420FA
:102550000DF05CFE09F02CF89BF8003043F002030C
:102560008BF800301E4B1B78A34201BF1D4A1E4B47
:102570001A601E4A04BF1E4BDA6015F8053C062B94
:102580007FF45DAF15F80DECBEF1000F41F0E5836F
:1025900015F8030C502101FB08010E4C15F8020C34
:1025A00056AB10311FFA80FC214416AA089301385B
:1025B0006B1E0A930792ADF826E00B91ADF830C080
:1025C000ADF832E0ADF824C0CB1AA34614E000BF4A
:1025D000823A0020DC0700201DA6000822B901086D
:1025E00018340020EFBEADDEF04F00200400FA05E5
:1025F00000ED00E0843A0020FD2801F29F83DFE82F
:1026000010F014011D012501300139019D0B9D0BB6
:102610009D0B9D0B9D0B9D0B9D0B9D0B9D0B9D0B7A
:102620009D0B9D0B9D0B9D0B9D0B9D0B9D0B9D0B6A
:102630009D0B9D0B9D0B9D0B9D0B9D0B9D0B9D0B5A
:10264000EA043B0A4F039F07C504E709C904F409DC
:10265000D704270AFE04540A01055B0A8105FE001F
:102660009B05520B5C05C80A7203D4076E05FC0A71
:102670000A01050A8F024B036A07EB025F079D0BF5
:102680006205CF0A9D0B9D0B8A0B7E06D7050B06B4
:1026900066099D0B9D0B1F05800A4005A10A3706A0
:1026A0002E069D0B77069D0B9D0B9D0B9D0B9D0B89
:1026B0002E099D0B9D0B9D0B9D0B9D0B9D0B9D0B4B
:1026C0009D0B9D0B9D0B9D0B47015501CE01F90103
:1026D0005C0267021004330475028502B902F50238
:1026E0002B039D0BCE039D0B9E0347034404BB03AA
:1026F000FD019D0B9D0B9D0B8D069B06B206A7054C
:1027000003015F0645069D0B9D0B9D0B9D0B9D0BCD
:102710009D0B9D0B9D0B9D0B9D0B9D0B9D0B9D0B79
:102720009D0B9D0B9D0B9D0B9D0B9D0B9D0B9D0B69
:102730009D0B9D0B9D0B9D0B9D0B9D0B9D0B9D0B59
:10274000B7049D0B9D0B9D0B79049D0B9D0B9D0B61
:102750009D0B9D0B9D0B9D0B9D0B9D0B9D0B9D0B39
:102760009D0B9D0B9D0B9D0B9D0B9D0B9D0B9D0B29
:102770009D0B9D0B9D0B9D0B9D0B9D0B9D0B9D0B19
:102780009D0B9D0B9D0B9D0B9D0B9D0B9D0B9D0B09
:1027900029076A0974079D0BFF0743094E0945087D
:1027A0003B0999091607220791089D0B85089D0B87
:1027B0009D0BF40805091B0920097B0B9D0B9D0B44
:1027C0009D0B9D0B9D0B9D0B9D0B9D0B9D0B9D0BC9
:1027D0009D0B9D0B9D0B9D0B9D0B9D0B9D0B550705
:1027E000AC043102CF089D0BDB0AC0069D0B9D0B8C
:1027F0009D0B9D0B5B099D0B9D0B9D0BA104DFF8B1
:1028000070B3002401F032BAB4F80831FF2BA8BF2E
:10281000FF2300F054BC94F82C31137094F82D3140
:10282000537094F82E3100F0A6BD00230DF15B012A
:10283000137001230791537019210FE0BA4907A8BB
:10284000042208F0C0F8012301F07ABA0E21012316
:1028500051700DF15B01079113700321917001F02C
:102860006FBA07A8B149042208F0ADF8B04B07A829
:10287000197832E307A8AF490B2208F0A4F807A89B
:10288000AD49082208F09FF807A8AC490722D8E70D
:10289000E723137094F8303107A853700DF15B03F0
:1028A000079300239370042100F034BDA44B07A8C4
:1028B000198811F031FCB4F8401107A889B211F061
:1028C0002BFCD4F8443107A8C3F3C001C3F3800242
:1028D000890041EA4201C3F340021143C3F34012AD
:1028E00041EAC20103F01003194311F015FC002363
:1028F0001946B4F84801934A12F901E0BEF1FF3FCE
:102900000CD04FF2FF720A41D20707D540FA01F20C
:10291000D20742BF012202FA0EF2134301310C2901
:10292000E9D1D4F84CE10021012287488A401040C7
:1029300018B112EA0E0F18BF134301312029F3D149
:10294000824A00201278864651070146D4F850C1C9
:1029500048BF43F00103012202FA00FB1BEA0C0FFF
:1029600007D01BEA030F1CBF02FA0EF211430EF14F
:10297000010E01301D28EED107A811F0B9FB079B0D
:1029800094F85421591C07911A7007A894F85C1107
:1029900011F0C2FB07A8B4F8601100F0E0BCB4F875
:1029A0006C310024B3F5806F8CBF4FF0030B4FF0F8
:1029B000000B674B07A853F82410013441FA0BF1C0
:1029C00089B211F0A9FB032CF3D10024614B07A8B5
:1029D00033F82410013411F09FFB032CF6D10024AE
:1029E0005D4B07A833F82410013411F095FB032C3C
:1029F000F6D128E707A85949102222E700230C2422
:102A00005C43DBF8A4210393115B07A811F084FB5E
:102A1000DBF8A42107A82244518811F07DFBDBF8E4
:102A2000A42107A82244918811F076FBDBF8A421A9
:102A300022449179079A501C07901170DBF8A42169
:102A40002244D179079A501C07901170DBF8A42119
:102A500007A81444A16811F04BFB039B0133082B1A
:102A6000CDD1F0E63E4B03F17001079A13F8010C4B
:102A7000541C07941070079A1878541C079410700F
:102A8000079A5878541C07941070079A9878541C29
:102A900007941070079AD878541C07941070079AFE
:102AA0001879541C07941070079A58790733541CEE
:102AB0008B4207941070D8D1C5E60024294B07A893
:102AC00033F81410013411F027FB082CF6D1BAE6C4
:102AD0000024254B1B789C42BFF6B5AE234B07A8BC
:102AE00033F8141011F018FB0134F2E707A8B4F81A
:102AF000301211F011FBB4F8321207A811F00CFBE0
:102B0000B4F934320A2193FBF1F1D6E307A8D4F8E3
:102B1000381211F0EDFA07A8B4F83C1200F01FBC0F
:102B200007A8D4F84012F5E35AB901085FB90108C3
:102B3000833A002064B9010870B9010879B9010825
:102B40007C3A00202C9A0108C0F11F1A843A002018
:102B50004C09002058090020640900207009002059
:102B600085090020F409002008340020C433002027
:102B7000A40800204FF6FF7B94F84A32B4F84C22A8
:102B800004EBC3030DF159010791D3F85412FF2A46
:102B9000A8BFFF225945A8BF594621EAE17107A8FD
:102BA00089B28DF85820039311F0B6FAB4F8601288
:102BB00007A811F0B1FA039B94F86222D3F85012DF
:102BC0003AB10A2359435945A8BF594621EAE17150
:102BD00073E301F30F0170E394F865320DF15A01CC
:102BE000137094F86432079153702CE6D4F868326D
:102BF0000DF159001978079011705B780DF15A01A9
:102C0000537007910023DBF86822B7491A44107902
:102C1000079A0133541C032B07941070F3D1D1F899
:102C20006832DA79079B581C07901A70D1F868321D
:102C30009A78079B581C07901A70D1F86832DA7896
:102C4000079B581C07901A70D1F8684207A8618941
:102C500011F062FA227A0EE20022DBF86C32995C03
:102C6000079B581C07901970DBF86C321344997A53
:102C7000079B581C07901970DBF86C321344197DC0
:102C8000079B0132581C0A2A07901970E5D1DAE532
:102C900007A896492F22D4E5D4F86C329B7F0EE228
:102CA0000024DBF8702212F8240002EB8403039363
:102CB00005F008F8079A4179501C0790039B1170A2
:102CC000079A5978501C07901170079A9978501CF0
:102CD00007901170DA78079B0134591C142C079166
:102CE0001A70DED1AFE5002106234B43DBF87402F6
:102CF000079CC21892F805E004F1010CCDF81CC045
:102D000084F800E0C05C079B01315C1C07941870DC
:102D1000079B50785C1C07941870079B90785C1C8C
:102D200007941870079BD0785C1C07941870079B59
:102D30001279581C0C2907901A70D5D183E500240C
:102D40000123DBF85021A340134211D0E0B204F07C
:102D5000B9FF01680846039116F0A3FD03990246E6
:102D600007A807F030FE079B5A1C07923B221A70F7
:102D700001341D2CE4D166E500240123DBF8502149
:102D8000A340134207D0E0B204F09CFF079B4279B6
:102D9000591C07911A7001341D2CEED153E5544B88
:102DA00007A8198A039311F0B7F907A8B4F87812A5
:102DB00011F0B2F907A8B4F87A1211F0ADF907A82A
:102DC000B4F87C1211F0A8F907A8B4F8861211F033
:102DD000A3F9079A94F88C12501C07901170079968
:102DE000039B4A1C079200220A70079994F88D02EF
:102DF00001F1010ECDF81CE00870079994F8620209
:102E000001F1010ECDF81CE00870D97A079B581C1F
:102E100007901970079B591C07911A70D4F89032CB
:102E2000A3E094F894320DF15A0103F002031370F9
:102E300094F895320791537007A8D4F8981211F0BE
:102E400057F907A8D4F89C1211F052F907A8B4F862
:102E5000A01211F061F907A8B4F8A21211F05CF900
:102E600007A8B4F8A4127AE207A8B4F8A61211F0E1
:102E700053F9B4F8A81207A811F04EF994F8AA3241
:102E8000079A03F00103511C1BE115F8013C0A9558
:102E900023B9D4F8AC12D4F8B0B208E0102B19BFA3
:102EA0004FF0000B5946D4F8B412D4F8B8B20DF173
:102EB00059001370079007A811F01AF907A859468E
:102EC00011F016F907A8D4F8BC1211F011F907A8EF
:102ED000002111F021F907A8002111F01DF9079B2D
:102EE0005A1C07920022C9E0DC070020389A01082A
:102EF000E833002094F8C0320DF1590113700791A6
:102F000000239BF8C0229342BFF69DACB34A0799B9
:102F1000985C4C1C0794087002F11001585C0799EA
:102F20004C1C0794087002F12001585C079930325C
:102F30004C1C07940870995C079A0133501C079049
:102F40001170DEE70024A64B07A833F814100134F3
:102F500011F0E2F8042CF6D175E4D4F80C3307A88C
:102F6000598811F0D9F8D4F80C3307A81988F6E17C
:102F70009C4B07A8196811F0BBF89B4B07A8196870
:102F800011F0B6F8994B07A81968C3E107A8D4F85F
:102F90001013BFE107A8B4F8141311F0BDF807A887
:102FA000B4F8161311F0B8F807A8B4F81813D6E15E
:102FB00007A8B4F81A1311F0AFF807A8B4F81C1357
:102FC00011F0AAF807A8B4F81E1311F0A5F807A885
:102FD000B4F82013C3E194F845320DF15B0113708E
:102FE00094F844320791537094F8463207A89370CE
:102FF000B4F8481211F090F894F84A223BE094F8A3
:1030000030315CE07A4C0DF15901237A079113704D
:1030100007A8A18A11F080F807A8218A11F07CF88E
:1030200007A8618A11F078F8079BA27A591C0791CA
:103030001A7007A8E18A11F06FF807A8218B8EE1BA
:1030400094F884320DF15A01137094F88532079187
:10305000537007A8B4F8861211F05EF8079B94F835
:103060008822591C07911A7007A8B4F8891211F028
:1030700053F894F88B22079B591C07911A70FFF79D
:10308000E2BB00245B4B1B789C42BFF6DCAB5A4B87
:10309000079A13F81410501C079003EB44031170A7
:1030A000597807A801EB810101EB810101F2EE21C2
:1030B00089B211F031F80134E4E74D4BDB7A0DF1C0
:1030C0005901079118E10023494A995C079A013395
:1030D000501C082B07901170F6D1FFF7B4BB474C7A
:1030E00004F1280B14F8032C00234549C95C8A42DB
:1030F00000F064860C333C2BF7D108345C45F1D1E9
:10310000FFF7A1BB0024DFF80CB107A83BF80410BF
:1031100011F002F8A344079B9BF80220591C079169
:103120001A70079B9BF803200434591C402C07910C
:103130001A70E8D1FFF787BB0024324B07A853F879
:103140002410013410F0D4FF202CF6D1FFF77BBB04
:1031500000222D4B062101FB023100230798441C5D
:10316000079402700798441C079403700798CC5C7E
:10317000013300F1010E062BCDF81CE00470EDD1F7
:103180000132062AE5D10023079A511C0791062136
:103190001170079A511C079113701C4A995C079A89
:1031A0000133501C0B2B07901170EDD1FFF74BBB77
:1031B0000CF046F8079B40F002005A1C144C079292
:1031C0001870218807A810F093FFE16807A810F095
:1031D0008FFF0BF0A3FB014607A89BE09D0A002090
:1031E000DE0A0020E8F7FF1FECF7FF1FF0F7FF1FD4
:1031F000E833002008340020FE0A00201D3400209F
:10320000240B0020600B0020E00B0020040C0020A9
:1032100000000020A40800200AA807F0B3FB8346A2
:1032200007A8594610F064FF0799089CBB4B641A25
:10323000802CDB68A8BF80240BEB04029A4288BF75
:10324000CBEB030403910BF0B7FA584603992246DF
:103250000CF02AF8079B18440790FFF7F4BA0023F4
:1032600017A91370537093700791D370FFF7EBBADF
:1032700000240DF15B0307A821461470547094706C
:10328000079310F035FF07A8214643E094F8333444
:103290000DF15A01033B18BF01231370B4F84C32EF
:1032A0000791FF2BA8BFFF23537094F84A3204EB19
:1032B000C30BDBF8541281F3100107A889B24EE06A
:1032C0000024DFF878B20A2354F80B1007A85943FA
:1032D00081F3100189B2A34410F01EFF083407A83F
:1032E000DBF8041010F004FF102CEAD1FFF7ABBAA2
:1032F0000DF15903079300231370FFF7A4BA07A831
:1033000087490B2207F05FFB07A8002110F0F0FEB1
:1033100007A8002110F0ECFEFFF795BA07A8B4F853
:10332000341410F0F9FE07A8B4F8361410F0F4FEC7
:1033300007A8B4F8381412E0D4F83C340DF1590061
:1033400019780790117059780DF15A000790517053
:1033500099780DF15B009170D988079007A810F05B
:10336000DBFEFFF770BA94F84034137094F84134E0
:10337000537094F842340DF15B0107919370FFF79D
:1033800062BA68480021C022002416F038FA2346A9
:1033900065489BF80625654994423DDA427AD20792
:1033A00037D5027A01EB4202B2F91822002A30DD49
:1033B000D0F80CC01A0101EB020EDCF80410BCF8C6
:1033C00008C0CEF84414AEF84AC44FF0000E0121F4
:1033D00001FA0EF111EA0C0101D0714604E00EF180
:1033E000010EBEF1100FF2D15A444FF0020E82F8D6
:1033F0004FE44FF0480EA2F84CC482F84EE4A2F815
:10340000481402F24C41D2F84C2401334A60102295
:103410008A7101340830BCE7DBB20DF15902079222
:1034200081F87C358DF85830414A00F075BC414B2D
:103430001B785B073FF507AA15F8010C0A9505F004
:103440007DF8FFF700BA0AA807F0B2FAA4F87E05E3
:10345000FFF7F9B9C3F3470BBBF1120F00F26E840B
:1034600000235B4509D20AA8039307F0A1FA039B46
:103470000DAA22F813000133F3E7594600225A45FA
:1034800007DA0DAB33F812002B4B23F81200013290
:10349000F5E7122905D0284B002223F8112001312D
:1034A000F7E7012384F8A43500F04ABC0AA8D4F851
:1034B0000CB307F07DFAABF80200D4F80C431FE11F
:1034C00015F8013C0A9684F8653216F8013C84F838
:1034D0006432FFF7B8B9D4F86C3215F8010C0A95CC
:1034E000987704F083FBFFF7AEB9D4F86C22531E33
:1034F00002F109000A9A511C0A91114611F8024B77
:1035000003F8014F0A9151788342997202F1030145
:103510000A9192781A75EDD1FFF795B90000002055
:1035200064B90108200C0020E00C0020DC0700201A
:10353000917A0008843A00205C0D00202C0A0020BB
:1035400015F8011C0A95132900F3F883D4F870E2EA
:1035500016F8010C0A960023DFF8ECC4DA000CEB35
:10356000020B9BF841B083451BD1624492F8403076
:103570000EEB81000EF821300A9B5A1C0A921B7830
:1035800043700A9B5A1C0A921B7883700A9B5A1C30
:103590000A921B78C370D4F8700212F0C5FFFFF7CF
:1035A00052B901331D2BD7D1C8E315F8012C0A9568
:1035B0000B2A00F3C38316F8010CD4F87412042804
:1035C0000A9600F3BB8306235A438B185871687818
:1035D0000A9788540A9A511C0A9112785A700A9ACA
:1035E000511C0A9112789A700A9A511C0A91127809
:1035F000DA700A9A511C0A9112781A71FFF723B9EE
:10360000092B40F39B83D4F8684215F8012C0A95E6
:1036100022700A9A04F1030C511C0A9112780021BD
:1036200062700A9A022902F1010ECDF828E01078A2
:103630000CBF4FF0FF0B4FF0640B584528BF5846A6
:10364000013103290CF8010FEBD1911C0A9151783B
:103650000332642928BF64210A92E1719EF8012097
:103660000AA8A2700A9A0393511C0A911278E27078
:1036700007F09EF9039B60810A2B3FF4E4A80A9BA4
:103680005A1C0A921B782372FFF7DDB80AA807F0CC
:103690008FF96FF4AF6E00EB0E03DFF8B0B3C62BFB
:1036A00098BFABF810000AA807F082F9A4F87802D6
:1036B0000AA807F07DF9A4F87A020AA807F078F9B9
:1036C000A4F87C020AA807F073F90A9BA4F8860202
:1036D0005A1C0A921A4612F8031B0A929A7884F826
:1036E0008C1284F88D221A1D0A92DA78063384F837
:1036F000622213F8022CD4F890428BF80B200A9324
:103700000AA807F055F92080FFF79DB800240AA801
:1037100007F04EF9C74B23F814000134082CF6D1FA
:10372000FFF791B80D2B40F0098315F801BC0A95FD
:10373000BBF1070F00F20283D4F8A4310AA8039367
:1037400007F036F90C2202FB0BFB039B23F80B005E
:10375000D4F8A4310AA8039307F02AF9039B5B4429
:103760005880D4F8A4310AA8039307F021F9039BE9
:10377000D4F8A4215B4498800A9B93441A46591CB0
:103780000A9112F8021B0AA88BF806100A925B78BD
:103790008BF8073007F0F6F8CBF80800FFF753B8BE
:1037A00015F8013C0A950F2B00F3C88216F8012C7E
:1037B000C3EBC3039B448BF8A8216A788BF8A9213B
:1037C000AA788BF8AA21EA788BF8AB212A798BF8B2
:1037D000AC216A798BF8AD21EA1D0A92AA798BF89F
:1037E000AE2109F0BBFAFFF72EB80AA807F0E0F8FF
:1037F000A4F834040AA807F0DBF8A4F836040AA8F1
:1038000007F0D6F8A4F83804FFF71DB8D4F83C4404
:1038100015F8013C0A9523700A9B0AA85A1C0A92C3
:103820001B7863700A9B5A1C0A921B78A37007F0DE
:10383000BFF8E080FFF707B87F4811F00FF8FFF7F7
:1038400002B815F8013C0A9784F8403416F8013C98
:1038500084F841346B7884F84234FEF7F4BF0823CF
:10386000079A013B511C079113F0FF034FF0000131
:103870001170F5D1FEF7E7BF704B1B785C073EF582
:10388000E2AF04F099FB1CE06C4B1B7858073EF547
:10389000DAAF4FF4C873A4F8BE35FEF7D4BF674B58
:1038A0001B7859073EF5CFAF94F8943243F00403E8
:1038B00084F89432FEF7C7BF604B1B785A0700F1BB
:1038C0003D8204F087FA04F055FCFEF7BCBF0BF014
:1038D00039F8FEF7B8BF15F8013C23B194F89432DB
:1038E00043F0020303E094F8943223F0020384F8D7
:1038F000943216F8013C0AA884F895320A9607F02B
:1039000041F8C4F898020AA807F03CF8C4F89C02F1
:103910000AA807F04DF8A4F8A0020AA807F048F892
:1039200094F8AA32A4F8A20243F0020384F8AA325F
:10393000FEF789BF15F801CC0AA8CDF814C00A9586
:1039400007F020F804900AA807F01CF803900AA8D2
:1039500007F018F883460AA807F02AF80AA807F023
:1039600027F80A9BDDF814C001330A93039A0499DF
:10397000BCF1000F15D11020C4F8AC12C4F8B0226D
:1039800004F0B0F994F8943243F0010384F89432CF
:10399000BBF1000F3EF457AF294BC3F8BCB2FEF7A2
:1039A00052BFBCF1100F7EF44EAFC4F8B412C4F88D
:1039B000B822BBF1000F02D0214BC3F8BCB22148A2
:1039C0000223011D84F8C0350AF06AFDFEF73BBFF3
:1039D00000230AA8C4F8103306F0D4FFD4F810333B
:1039E0001843C4F81003FEF72EBF0AA806F0E0FF44
:1039F000A4F814030AA806F0DBFFA4F816030AA82B
:103A000006F0D6FFA4F81803FEF71DBF15F8013C19
:103A10000A95002B40F0928116F8013C84F82C3175
:103A20006B7884F82D31EB1C0A93AB7884F82E3137
:103A3000FEF709BF820D002028D70108843A002034
:103A4000DC070020900A00202C9A0108E8330020AF
:103A500015F8014C0A95012C00F370810AA806F0B4
:103A6000A7FF0BEB840BABF81A030AA806F0A0FF24
:103A7000ABF81C03FEF7E7BE15F8013C0AA884F872
:103A8000453216F8013C0A9784F844326B7884F882
:103A9000463206F08DFF0A9BA4F848025A1C0A928F
:103AA0001B7884F84A32FEF7CEBE15F8013C0A9521
:103AB00084F83031FEF7C7BE994C15F8013C0AA8CE
:103AC00023720A9506F074FFA0820AA806F070FF20
:103AD00020820AA806F06CFF0A9B60825A1C0A9298
:103AE0001B78A3720B9B9B1A012B7EF7ACAE0AA826
:103AF00006F05EFFE0820AA806F05AFF2083FEF778
:103B0000A2BE15F8013C0AA884F8843216F8013CDC
:103B10000A9684F8853206F04BFF0A9BA4F88602C9
:103B20005A1C0A921B780AA884F8883206F040FFD3
:103B30000A9BA4F889025A1C0A921B7884F88B32DB
:103B4000FEF781BE15F8014C0A95112C00F3F680A2
:103B500016F8012C64000BEB040383F822230AA857
:103B60000A9606F025FF40F2ED23984205DD40F667
:103B7000CA039842A8BF184601E040F2EE20A0F226
:103B8000EE20192390FBF3F0A3448BF82303FEF7F8
:103B90005ABE15F8012C624B0A95DA72FEF753BE35
:103BA00000230A9A511C0A9111785D4A99540133F5
:103BB000082BF6D1FEF747BE5A4B1B785B073EF544
:103BC00042AE15F901BC0A95584606F06DFA08B1E7
:103BD000436873B9032300220093019258464FF4BF
:103BE00000614FF4E13306F0FAFBC4F8C40510B9E4
:103BF000A4E0C4F8C4354C4A8EE0072293FBF2F2ED
:103C0000C2EBC202934240F099800A9A0B9B9B1A26
:103C1000062B7EF718AE531C0A9312780023434CF0
:103C200004EBC304A1788A4207D1A2700AA806F067
:103C3000BFFE631DA080093403E00133052BEED1E4
:103C40007CE00A9A511C0A91127803F8012FA342D2
:103C5000F7D1DAE722F824000134102C8BF802E0C7
:103C60008BF803300BF1040B3EF4EDAD0B9B0A9A7D
:103C70009B1A032B7EF7E7AD0AA806F099FE0A9B74
:103C8000B0F5B47F03F101020A921A4612F802EB72
:103C90004FEA84010A925B78254ADBDB0023501847
:103CA000535243804AE0052B0A9515F8014C45D143
:103CB0001F2C43DC0AA806F065FE0BEB840BCBF847
:103CC00084030FF0D7FDFEF7BEBD2046631C0A93A8
:103CD00010F802EBE21C0A9063780A92A0780F2891
:103CE0002CD8BEF1050F0DD8052B27D8062202FBD4
:103CF0000EB2134483F804040A9C0B1B022BE4DC71
:103D0000FEF7A1BDBEF1060F18D10A2B16D85B44F1
:103D100083F82804F0E7074A074B1A60FEF793BDC3
:103D2000E8330020843A0020817A0008183400200B
:103D3000A4080020B57D00085C3A00204FF0FF3356
:103D4000ADF82630079B4846089307A916AB0793A2
:103D500006F020FC002305F8053C264C23681BB127
:103D6000484698470023236015F8053CE3B955F809
:103D7000093CCBB1BAF1000F16D156AA0E924FF6FC
:103D8000FF7216AC0D94ADF83C20ADF83EA00DA826
:103D9000984730B10D9B48460DA90E930D9406F03F
:103DA000F9FB002345F8093C503650355037B8F13F
:103DB000000F1BD14FF00108FEF73ABB079B07A885
:103DC000591C07911A7034F8011C10F0A5F922460D
:103DD0000023079912F8010F013301F1010E042BA2
:103DE000CDF81CE00870F4D1FFF787B957B0BDE8F3
:103DF000F08F00BF5C3A00202DE9F04F8BB008F047
:103E0000B1F8C14B1E78002E41F0C482BF4D2B6823
:103E10005C0541F1BF82BE4BBE4C1B68DFF83883A6
:103E2000DF882378002B00F0F481D8F80020636845
:103E3000D31A7C2B40F2ED81237A62600133237226
:103E400006F12400C0B208F03FF8B34B53F8260047
:103E50004FF47A735843B14B01361B8990FBF3F052
:103E600000B208F01FF8032EEAD1302008F02CF839
:103E7000AB4BDFF8A092B3F9000008F013F808F09C
:103E80001BF8237A980733D141F28833D9F80420FC
:103E90009A421AD9102008F017F8D9F80C006426B5
:103EA00090FBF6F000B207F0FDFF212008F00CF8BF
:103EB000D9F80C0090FBF6F306FB130383EAE370DA
:103EC000A0EBE37000B207F0EDFF142007F0FCFF59
:103ED000944BB3F904000A2390FBF3F007F0E2FFE0
:103EE0001C2007F0F1FF002007F0DCFF07F0E4FFE3
:103EF000237A590740F06881022007F0E5FF854BDF
:103F00004FF0050918696423323090FBF3F000B2DA
:103F100007F0C8FF844B0320B3F9066007F0D4FF15
:103F200096FBF9F6814BB6B21B785A070AD538468C
:103F30000FF0DFF820B92B6813F0100F18BF002620
:103F400030B204E07A4B9888B0FBF9F000B207F089
:103F5000A9FF2B689B0773D5A37DDFF8B891754F38
:103F600033B3DFF8F8A13A889AF80010642303FB12
:103F700002124B00B2FBF3F3B9F8186006203601C9
:103F8000B6B246EA0326B6B2C3F303231E4307F0D4
:103F90009BFF30B207F086FFB9F818309AF800108E
:103FA00001339BB293FBF1F201FB1233A9F81830F5
:103FB00094F82630012B05D1392007F085FFB7F999
:103FC00000001BE03E886E235E43152796FBF7F644
:103FD0003A20B7B24FF0640907F076FFB7FBF9F665
:103FE00030B209FB167607F05DFF3B2007F06CFF4F
:103FF000B0B2461D0A2096FBF0F000B24C4F07F01D
:1040000051FF4D4E97F80690282007F05DFF56F8B7
:1040100039300A2093FBF0F000B207F043FF042090
:1040200007F052FFBB8813B105F00EF805E0BB792D
:1040300006EBC306706880F3100000B207F032FF91
:104040003E4B1B689F0640F1B4803D4F3B789E0776
:104050001FD5DFF80C91112007F036FFB9F80000EA
:104060004FF4F3667043374B90FBF3F000B207F068
:1040700019FF192007F028FFB9F800004643642013
:1040800096FBF0F696FBF0F300FB136000B207F02E
:1040900009FF2D4B01201E883B7813F0020F08BF4B
:1040A000002607F011FF30B207F0FCFE092007F0F0
:1040B0000BFF002007F0F6FE244B1E78244B1A88D5
:1040C000B2F5967F09D9237A03F00F03072B04D8A2
:1040D00042F20F76964228BF1646052007F0F4FEFE
:1040E00094F825300BB930B244E0A6F1200013F06B
:1040F000CDF9184913F0D2FA0021064613F0B8FBA7
:1041000080BB4FF07C512FE0823A0020C03300206A
:10411000180C0020641100204C09002040090020E8
:10412000180A00200C0A0020881B0020843A002076
:10413000200A0020280A00202C0A00202009002044
:10414000700A0020A08601007C0A0020710A00206D
:10415000100000206666E63F34360020240200206E
:104160007E0A00204FF03F41304613F0DBF813F099
:10417000A7FB00B207F096FE3B78980704D494F8AA
:104180002830C44E012B04D1012384F82830C248C2
:1041900016E0C249F06913F0CDF913F091FBBF4965
:1041A0000290306A13F0C6F913F08AFB039002A85C
:1041B00006E0BB4A02AB92E8030083E8030018461E
:1041C00007F094FE07F078FE237A282B21D1B14B1B
:1041D0000022D8F800001A724FF47A73B0FBF3F79C
:1041E0004FF03C09172007F06FFEB7FBF9F6B6FB5E
:1041F000F9F009FB1060000200B207F053FE18202E
:1042000007F062FE09FB167000B207F04BFE07F0E4
:1042100053FE94F829309F4E002B00F0768105F074
:10422000BAFEF36A9F4AC31A9342074640F2C98016
:10423000002386F8323086F834309B4B96F86010B5
:104240001B88DAB21B0A86F84E2086F84F3086F8B3
:10425000442086F84530F26DD8F800309A1A4FF4B1
:104260007A734B439A420DD3904B1B68F365904B86
:104270001B78013B012B9FBF102386F832300223AD
:1042800086F834308B4B8C499B790A2051F83320C7
:1042900001EBC3014B6892FBF0F293FBF0F384F85F
:1042A0004C20121284F84D2084F85030834A1B129F
:1042B00084F85130824B12781B789107754E84F840
:1042C0007B3003D42D2386F87C3079E0042B8CBF1F
:1042D0003323322386F87C306F4B7A4AD3F800A020
:1042E00058689AFBF2FB784B4FF0060903FB0BA6CC
:1042F00009FB06F675494FF0640896FBF1FE01FBD9
:104300001E6696FBF8F684F86D60361284F86E60CF
:1043100090FBF2F603FB060309FB03F393FBF1F2B8
:1043200001FB123393FBF8F351B206EB860202EB6A
:10433000820201EB820284F872301B1292B284F87E
:104340007330634B84F87020120A84F871201A8845
:10435000242353434FF47A7293FBF2F384F86830CA
:10436000C3F3072384F869305A4B0BEB8B0B1B8884
:104370004FFA8EFC84F874301B0A84F87530564B63
:104380000BEB8B0B1B880CEB8B0E03F5FA739BB2BC
:1043900084F876301B0A84F87730504B1FFA8EFE73
:1043A0001B884FEADA7A84F86BE0C00F4FEA1E2EC2
:1043B00084F86AA084F86CE084F86F0084F87D309B
:1043C000E76294F88D90334EB9F1000F0FD1D6F813
:1043D000940006F0BBF8012809D90228DFF8008113
:1043E00000F02D8707F050FD012388F80230D4F843
:1043F0009860284B002E00F0888093F88D203AB109
:1044000040F6B731D3F8A020BA1A8A4216D87CE019
:10441000012283F88D20D3F8A420D3F894001278D9
:10442000022A04D80430022107F018FD02E002211C
:1044300005F0D2FF002384F8A83064E093F89C20B4
:10444000AAB9C3F8982083F88D20D3F8A420D3F814
:1044500094001278022A04D80430012107F0FEFCEF
:1044600002E0012105F0B8FF07F00EFD4BE0013A34
:10447000D2B283F89C2093F8A81093F8A9008ABBC5
:1044800001304A1C83F8A90083F8A820D3F89400CF
:1044900037E000BF64110020740A00208096184B9A
:1044A0005C9B01083F0D0300280A002034360020E1
:1044B0000F0C0020200A00202C0A0020700A002087
:1044C000710A002080969800806967FF40420F00C3
:1044D0007E0A0020820A00207C0A0020840A002034
:1044E00010000020324612F801EB01300EEB0106FD
:1044F000714683F8A900D3F8940083F8A860C3F844
:10450000982006F026F8C4F8A070BC4E94F8AA20B3
:104510003768BB4B002A00F01882D3F8AC20002A81
:1045200000F0138293F8B030013B012B00F20D82B2
:10453000D4F8AC00DFF8C88206F008F8E0B1D8F88B
:10454000AC0006F000F898F8B13081467E2BD6F822
:1045500000A00ED102231B2888F8B03009D1D8F86A
:10456000AC0005F0F3FF20B90123C8F8B4A088F827
:10457000B83084F8B190DBE7D8F8B42033689B1AE0
:1045800041F6583293421FD9032388F8B030DCE15A
:104590009C4A32F8130010B903464FF4036001330C
:1045A000B0F5C06FDBB200F0C7801ED9B0F5006F68
:1045B00000F0CF8034D9B0F5036F41D184F8B93021
:1045C000914B1B689B064AD494F8B81094F8B93004
:1045D000002900F0B8813268D21B012AD8D984F8AA
:1045E000B930002384F8B830AFE1B0F5047F41D092
:1045F0000AD8B0F5887F00F0DE80B0F5007F7BD070
:10460000B0F5807FE4D186E0B0F5806F00F01481D2
:10461000B0F5826F00F04781B0F5407FD8D132E02D
:10462000B0F5E26F00F0D980B0F5E46F00F0DA8009
:10463000B0F5E06FCCD184F8B930744B1968D5E08F
:1046400004D8B0F5026F00F05881C1E7B0F5046FEF
:1046500000F0BB80B0F5116F00F06081B8E76C4BE3
:104660001B789907B0D56B4B19884FF4F3634B4314
:1046700064215FE184F8B9302B689A07A4D5664BB2
:104680000A211B8848E184F8B9302B68DFF8708173
:104690009B0799D598F81630002B95D05E4BDFF824
:1046A00094911B8899F8002003EB830303EB8303A9
:1046B00002EB830351009BB293FBF1F398F8BA101D
:1046C00002F00F02C3F30B0342EA031301F00F01E0
:1046D00041EA031107F08EFB002388F8B83098F800
:1046E000BA3099F800100133DBB2B3FBF1F201FBF1
:1046F000123388F8BA3067E784F8B9302B681905A7
:104700007FF562AF454B9A79454B53F832100A2337
:1047100091FBF3F110E184F8B9303B4BDFF8E08016
:104720001B685A077FF550AFD8F80C1007F062FBF2
:10473000002388F8B83047E784F8B9302B681B05A8
:104740007FF542AF354B9A79354B03EBC20359687D
:10475000F2E02D4A84F8B930126891067FF534AF43
:104760002B4A127892077FF52FAF13F0010F2D4BD4
:1047700010D05A68192182EAE273A3EBE27303EBCB
:104780005303B3FBF1F3002A43F0004110DA43F086
:1047900040410DE01B68192283EAE371A1EBE3714C
:1047A00001EB5101B1FBF2F1002BB8BF41F08041A8
:1047B0004FF4006090E084F8B930134B1B685B073E
:1047C0007FF502AF184B1968B6E084F8B930174B83
:1047D0000A21B3F9043059437EE084F8B9300B4B19
:1047E000596803E084F8B930084B996864234B4357
:1047F0000F4A118993FBF1F16EE000BF34360020BF
:104800006411002052BA0108200900204C09002040
:10481000700A00207E0A0020280A0020200A0020BA
:104820002C0A0020740A0020180A00200C0A00201C
:10483000400900202402002084F8B930904B42F255
:1048400011711A7842F2107312F0010F08BF194665
:10485000900748BF023153078A4B48BF04311B8879
:10486000D80748BF0A319A0748BF143113F4106FB4
:1048700018BF2831580748BF64311A0748BFC831EC
:10488000980548BF01F5C8719A0648BF01F57A71CD
:10489000D80648BF01F5FA615A0648BF01F57A61AA
:1048A0004FF4806018E084F8B930774B1B6813F040
:1048B000200817D0754B1A7812F0020F14BF4FF46E
:1048C0007A71002112F0010F714A14BF4FF4FA639C
:1048D00000230B441178194407F08CFA002384F864
:1048E000B83071E62B681B067FF56EAE414607F0C7
:1048F00081FA684B83F8B88066E684F8B930624B79
:104900001B6899067FF560AE604B1B789A077FF5B0
:104910005BAE614B64211B8859430DE084F8B930CC
:104920002B689B077FF550AE5C4B5D4A19880A23C4
:104930004B43117893FBF1F107F05CFA554B0022E1
:1049400083F8B82040E684F8B93094F8BB30DFF83B
:104950004481002B00F00D81D8F8BC30002B00F012
:1049600008813768D8F8C030FB1A632B40F2018108
:10497000DFF838A1412007F023FABAF902004FF01E
:104980000A0990FBF9F080B207F011FABAF90000B9
:1049900090FBF9F080B207F00AFABAF9040090FB34
:1049A000F9F080B207F003FA07F0D2F998F8C48062
:1049B00018F0010842D0344B1A689B4612F0200FC1
:1049C00000F0AA80314BDFF8C8901B7813F0020F7B
:1049D00008D099F80030052B34BF4FF002084FF093
:1049E000030801E04FF00108DFF8C4A0472007F0FA
:1049F000E7F9DAF8000007F0C9F9DAF8040007F07F
:104A0000C5F9284B4FF0640A1888B0FBFAF0C0B221
:104A100007F0AAF9DBF8003013F0140F0BBF1E4BA0
:104A2000214B1888186808BF0AFB00F007F0AEF9A0
:104A300099F8000048EA8000C0B269E0114B1B8879
:104A4000D90539D4DA060FD4980610D4590611D4F2
:104A50001A0712D4D8072DD413F0020F14BF4FF049
:104A600003084FF0010827E04FF00D0824E04FF055
:104A7000090821E04FF004081EE04FF008081BE091
:104A8000843A00202409002020090020700A002018
:104A9000710A0020641100207C0A0020280A0020EE
:104AA000240200207E0A0020140A00200C0A0020A4
:104AB000740A00204FF00208C24B93F80090C24BDA
:104AC000C9F38009DB781BB149F002095FFA89F963
:104AD000532007F075F9BD4B188800EB800000EB00
:104AE0008000800080B207F062F9002007F05FF9D3
:104AF000B74B1888FE23584340F2FF3390FBF3F086
:104B0000C0B207F031F9002007F02EF949EA880019
:104B100007F02AF907F01CF994F8C480B8F1000FE7
:104B20001AD1DFF8D8924F2007F04AF9D9F80000DF
:104B300007F02CF9D9F8040007F028F9404607F0EF
:104B400025F9012007F010F9A24B187800F00100B8
:104B500007F00AF907F0FCF894F8C4300A21013391
:104B6000DBB2B3FBF1F201FB1233C4F8C07084F87E
:104B7000C43094F8C530002B00F02B83964B1B6893
:104B8000002B00F0268305F006FA44F61F62934BD3
:104B90000746D3F8C830C31A934240F21A83022062
:104BA00007F0AAF8002800F0878048F603418C4BF4
:104BB000D5F800C01A6849F6074312F0080F08BF7D
:104BC0000B46510744BF43F4005343F008039006DB
:104BD00048BF43F48043834848BF43F020031CF0A0
:104BE00002028179054616BF784810460088C3F353
:104BF000090E1FBF00EB800000EB8000800080B238
:104C00001CF4006F16BFDFF8F8C14FF6FF783CF8D0
:104C10003180CAB1744A95F801A092F800C06B4A7D
:104C200011882A780CFB1A19CAEB0202642101FBD5
:104C300009F10CFB02F2B1FBF2F2642AA8BF642274
:104C400022EAE272D2B200E06422029303930023CC
:104C5000ADF81430ADF81A30ADF81C30ADF81E3098
:104C6000ADF82030ADF82230ADF824305F4BCDF8F0
:104C700010E08DF82620ADF81600ADF8188002AAD5
:104C80000DF1200E154603CD7545186059602A4672
:104C900003F10803F6D128681860A988AA799980D9
:104CA0009A71534B01227C211F20DA7110F09CF97C
:104CB00010F082F910F06EF9032007F01DF80028BB
:104CC00063D04C4BD6F800A01B78002B00F0F88284
:104CD000494A012BB2F800E040F2F382022B5588DA
:104CE00000F0F082032BB2F804C000F0ED82042B38
:104CF000D08800F0EA82052BB2F8088000F0E78245
:104D0000062BB2F80A9000F0E482072B918914BFB9
:104D1000D289002240F2FF3B2D4BADF81A201B88B0
:104D20000022C3EB032393FBFBF38DF81D302F4BC5
:104D3000ADF80CE08DF81C20CDF808A0ADF80E50B1
:104D4000ADF810C0ADF81200ADF81480ADF81690B3
:104D5000ADF8181002AA0DF1180E154603CD7545D1
:104D6000186059602A4603F10803F6D12868F42137
:104D70001860AA8816209A801D4B2322DA7110F041
:104D800033F910F019F910F005F9062006F0B4FF18
:104D9000002800F0EB80124B1A689A4612F0200FA0
:104DA00000F0E4800B4BDFF85CB01B7813F0020FCF
:104DB0002AD09BF80030052B34BF4FF002084FF08B
:104DC000030823E0843A00201C240020280A002045
:104DD0003C0A0020700A00203836002064110020B0
:104DE00020090020200A0020240200204B37002048
:104DF0004337002008340020C4330020880A0020F4
:104E00002C0A0020710A00204FF0010805F0C3F8B9
:104E10009E494FF47A7E0B889D4D0EFB03F206925D
:104E20004FF6FF72029000209BF800B00390ADF89F
:104E30001C202868ADF81E20964A0DF1080E04903B
:104E40008DF8248068688DF825B08946AB46F04619
:104E50001546914B0590B3F800C0904BADF820C0BB
:104E60001B880DF1200C03EB83035B00ADF82230AF
:104E7000734603CB6345106051609E4602F1080201
:104E8000F6D11868182110609B881E209380844BEF
:104E9000D971019310F0A8F810F08EF810F07AF89C
:104EA00005F079F8B9F800E04FF47A7C0CFB0EFEBF
:104EB000DAF800C0019B1CF0140F99461EBF794B15
:104EC0004FF00A0C1B684FF00A0A18BF0CFB03FCDA
:104ED000754B08BFF446B3F90430CDF814E093FBEA
:104EE000FAF3C646DBF80020DBF804100392ADF8B5
:104EF00022300022674BCDF818C002900491ADF823
:104F00001C20ADF81E20ADF820200DF1200C7246BB
:104F100003CA624518605960964603F10803F6D14A
:104F200010686821186021231C2089F8073010F0D0
:104F30005BF810F041F810F02DF85C4B5A681B68D4
:104F40000392029300230493434603CBC9F808005D
:104F50001868696031232721A8600C2089F8073080
:104F600010F042F810F028F810F014F80A2006F0BB
:104F7000C3FE002846D04C4DD6F80090B5F900008D
:104F800012F084FA4A4912F089FB4A4912F0D2FA27
:104F90008046B5F90200404212F078FA444912F016
:104FA0007DFB444912F0C6FA0646B5F9040012F03A
:104FB0006DFA3F4912F072FB3E4912F0BBFA002332
:104FC000069307930893334B0496CDF80890CDF8D9
:104FD0000C80059002AD08AE2A4603CAB2421860A2
:104FE0005960154603F10803F6D1106827211860AF
:104FF0002B4B1E221C20DA710FF0F6FF0FF0DCFFA6
:105000000FF0C8FF0B2006F077FE002800F0DF80CD
:10501000294B0025D3F8008018F020090BD01E4B37
:10502000188811F029FE0022244B11F0B5FF12F070
:1050300023F9064600E02E4618F0140F0AD0194B4B
:10504000186811F019FE00221C4B11F0A5FF12F098
:1050500013F908E0B9F1000F04D00C4B188812F0D6
:1050600011FA00E00020104B0A22B3F9043093FB40
:10507000F2F2134B92B2B3F90630B3F57A7F21DB2B
:10508000B3F5FA6FA8BF4FF4FA631DE07C0A002065
:10509000740A00204B3700207E0A0020800A00207E
:1050A00043370020140A00200C0A0020880A002040
:1050B0000000204135FA8E3C2009002000005940B4
:1050C000C43300204FF47A73ADF81820A3F57A7337
:1050D000642253434FF47A7293FBF2F3ADF81A3023
:1050E000AE4B02AA90469A46039602950490059507
:1050F00006AE154603CDB542186059602A4603F145
:105100000803F6D12868A64E1860142001464A23E9
:10511000F3710FF069FF0FF04FFF0FF03BFFA14B52
:10512000B1461D78A04B05F0040505F0FF02002DE7
:105130000CBF4025C0251B78013BDBB2102B97BF6D
:105140009A494FF0000B5B1893F808B0984B1B88F6
:1051500099071ABF002645F01005012613F4027FB7
:1051600018BF022613F0100F18BF062613F0200FE9
:1051700018BF102632B18F4BDB78002B14BF0522ED
:10518000042205E010F06AF9002814BF022203226D
:1051900000238DF80F2003228DF80D308DF810209C
:1051A00002968DF80CB08DF80E50B8E803008AF81E
:1051B0000820CAF80000CAF804100920322189F832
:1051C00007300FF011FF0FF0F7FE0FF0E3FEC4F809
:1051D000C87094F8CC30002B00F0DC80D4F8D000FC
:1051E000754D05F0B3F9002800F0D480D5F8D00053
:1051F00005F0A9F995F8D43006461BB1013B85F8B6
:10520000D430EBE7032205F1D50005F1D60114F007
:10521000DBFA95F8D53095F8D62083F47F4383F0F8
:10522000FF039B1A85F8D8609BB2B6B2B6EB132F7A
:10523000D4D195F8D710DBB28B42CFD14CE098F89F
:1052400002302BB1C6F8907088F80290FFF7CFB803
:10525000D6F89030FB1AB3F57A6FFFF4C8A8012393
:10526000D6F8940088F8023005F06DF98046D6F83B
:10527000940005F068F918F07F0F7FF4B8A88A2829
:1052800003D08E280ED0FFF7B2B84C4B1B689A069D
:105290007FF5ADA896F88D30002B7FF4A8A806F115
:1052A000610306E096F88D30002B7FF4A0A806F18C
:1052B0003003C6F898302D2386F89C30FFF797B856
:1052C0009E4600254FF0000C00204FF000084FF0E4
:1052D000000900210A461DE595F8D93002F00F00BB
:1052E00013B908B185F8D90094F8D930324D9842F5
:1052F000FFF474AFC31AD9B202293FF66FAF02F0C0
:10530000F002802A09D160F07F0004238DF80900A3
:105310008DF8083002A8022112E0902A13D106224B
:105320008DF80820214A60F06F0013445B7E8DF8F1
:1053300009008DF80A3002238DF80B3002A80421F1
:1053400006F09AFC4AE7A02A7FF448AF174A1344B4
:105350005B7E022B19D0032B0AD0012B7FF43EAFCA
:1053600029690A23053191FBF3F101F5C8710AE0BF
:10537000134B19880A23594395F8DA301BB1114BA6
:105380001B7891FBF3F189B201E00F4BD98806F04D
:105390009FFC23E700200BB0BDE8F08F4B370020C7
:1053A00043370020843A00200C0900205C9B010850
:1053B000240900201C240020641100202009002062
:1053C000280A002024020020881B00202DE9F04F2D
:1053D000A24CA34B227889B01E68994632B163680B
:1053E000F31A002BA2BF00232370237242F20103A1
:1053F0009C4D2A68134003B9637213072ED59A4B4C
:105400001B7A072B1AD8DFE803F00404070A0D10F3
:1054100013160AF07DFA12E00AF050FB0FE00AF0D2
:10542000F1FA0CE00AF0B0FA09E003F0C9F806E07E
:1054300003F05AF903E003F017F900E00020C70772
:105440000CD501236372894BC0F34000187006F538
:10545000C33380F00100A033207063602B685804D0
:105460000ED50AF0EBFBC1070AD5012363727F4A10
:10547000237006F54333002103F5A07311706360B8
:105480002968CA070ED5A07AE27A744B824209D005
:1054900001221A72754A0027577006F5C332A032EE
:1054A0005A60D8728B0409D50023714A32F8132050
:1054B000002A41F0D18001330C2BF6D1627AD9F861
:1054C00000302AB9654AD2689A1A002AC1F230819E
:1054D00003F59C422032E260664A1778AFB1664914
:1054E00009688B4240F21581013F177011E1072EC8
:1054F00096BF5D4A3146B15C5B6860489847032EB1
:105500000AD904EB4606308201375C4BFEB21A78AA
:105510001946B242EBD81EE00028F2D0584A4FF4A8
:105520007A7332F8261002EB8602401A58435388E9
:105530005B1A90FBF3F040F6C90300F57A709842CD
:1055400005DC40F2EE239842B8BF184601E040F671
:10555000CA0080B2D5E742F201062B681E40B6FAB7
:1055600086F6484B76091A6826B9237A23703F4B92
:105570005878187027781FB13C4B1F7887F00107C7
:105580000F2384F83430384B91F800A0B3F816B0EC
:105590001B8B0321019394F83530DFF8F080B3FBC7
:1055A000F1F101EB4101591AC9B2029100255545AB
:1055B00070DADFF8DCE03FB3AEF1700131F81500CE
:1055C000584502D30199884222D95EF82500234923
:1055D000824203D22C4931F815001DE0E8B2049351
:1055E000039205910AF0A1FC032D039A049B13DC9E
:1055F00005994FF0010C91F834E00CFA05FC2EEA05
:105600000C0E81F834E007E0BBF1000FDDD1584605
:1056100002F596714EF82510CEB9029928F81100BE
:105620000E4991F8C8E0BEF1000F04D1022B0ED94B
:10563000012081F8C800B8F80010B8F8020008444A
:10564000B8F80410084480B20321B0FBF1F00E4911
:1056500008F1060821F815000135A8E740120020DE
:10566000DC320020C0330020E8330020130000208B
:10567000D623002018240020142400200834002001
:105680004024002034360020C4330020761200204D
:10569000C012002094F834209E49A2F10F0EDEF1D2
:1056A000000242EB0E0284F8C9209B4B92B19B4A48
:1056B0001268570103D59A4A1268D6050AD40A68B7
:1056C0009A60DB68D21AC82A1ED9934B012283F84C
:1056D000212019E0934A0120507010700A689968DF
:1056E000DA605B68521A9A4282BF8B4B002283F8C1
:1056F00021200025554507DAE8B20AF016FC8A4B4E
:1057000023F815000135F5E794F83530013384F8B6
:105710003530834E3368DD0405D5804B1B68D807D0
:1057200001D40FF08DFE814BD9F80070D87A9B46DA
:10573000B8B17D4A5B7B013832F810001BB1C0F56F
:105740003B60083080B200B2A0F57A70B0F57A7F85
:10575000A8BF4FF47A7020EAE07011F097FE744908
:1057600035E0336819043BD5D4F8CC30714DFB1AC1
:10577000002B35DB07F59C432033C5F8CC306E4B4E
:1057800095F8D0105A7A6D4B013133F812309BF8EE
:105790000C209BB293FBF2F301F00F0285F8D020AE
:1057A0002A4482F8D1300346654A825C01301344B2
:1057B00010289BB2F8D11BB293FBF0F000B2642822
:1057C000A8BF642020EAE07011F060FE5D4911F08E
:1057D00065FF5D4911F0AEFE12F098F85B4B188042
:1057E00033685B4D13F4807F00F02581594BDFF85F
:1057F00028A19F4205D99AF8022012B901228AF8FD
:1058000002209AF80220002A00F01581424A95F8F9
:10581000008092F82170C8F380087A1E57425741E1
:105820003E4A002F11680292C1F38063019314BFB6
:105830004FF000094FF003099AF82020052A00F2E2
:10584000F480DFE812F006004D006100AF00BE00FA
:10585000DB00B8F1000F36D03F4A1268D0880DF057
:1058600048FC012809D12B4A3C491268B1F80510BF
:10587000642000FB0122CAF81020019B53B1374A73
:1058800012793AB102F04EFA03228AF820204FF43E
:105890007A7236E0002F40F0C8801E4ADAF8101005
:1058A00010681D4A88420AD9039202F03BFA039A13
:1058B000032182F8201040F6B831D161BCE7012104
:1058C00082F82010B8E7019B4FF4806013B102F01A
:1058D00019FA01E002F006FA0022CAF81020A4E04A
:1058E000002F40F080801D4AD279012A02D002F0B8
:1058F00019FAA1E702F016FA03228AF8202040F6EE
:10590000B832CAF81C2097E757B305228AF820203E
:10591000012026E0343600201C2400202809002025
:10592000C033002013000020C4330020E8330020DF
:1059300000007A4440120020D8190020E819002005
:10594000111300200000C84200C07F443C0A002020
:10595000843A0020404B4C00180C0020600A0020C4
:105960003846B8F1000F0ED0BBF81020A249A34B67
:105970000A804A808A809A7893F803E04FF00209FF
:1059800042EA0E22CA809E4A1168DAF81420914237
:1059900002D8B8F1000F45D147F23052CAF81C20A6
:1059A000032221E02A7842F002022A700FF048FD1B
:1059B000934ADAF81C1012680A44CAF81820042224
:1059C00012E08F4A9FB11168DAF8182091422CD961
:1059D0008C4A12781AB9029B1A68D30725D42A7800
:1059E00022F002022A7005228AF8202024E7126899
:1059F000DAF81C100A44CAF8182016E0804A7F49D9
:105A00001268B1F80510642000FB01224FF4806099
:105A1000CAF8102000228AF820208AF8032002F019
:105A200061F909E700287FF407AFB9F1000F02D050
:105A300048460CF085FD744B1B68D8880DF059FB67
:105A400081466D48BBF81030B0F9022003F10B011C
:105A5000914201900BDB0B3B934208DCB0F9002034
:105A6000914204DB9342CCBF0023012300E00023DA
:105A7000B9F1000F0FD1654A1268100111D5644ABF
:105A8000D27872B92A7851070BD523B1614A1378BD
:105A900043F0200303E05F4A137823F020031370E0
:105AA0000CE05D4A00235D48136053605C4A0021AE
:105AB0000360116043605160836091602B785A07E6
:105AC00035D53368DB0632D5524B1B78DF062ED432
:105AD0004C4B1B7893B1534B9B78B9F1000F15D108
