:020000040800F2
:1000000000500020D9820108758301088D1A01086B
:1000100075830108758301087583010800000000DD
:1000200000000000000000000000000075830108CF
:100030007583010800000000758301083BA90008D2
:1000400075830108758301087583010875830108AC
:10005000758301087583010871B200086FB200084A
:10006000758301087583010875830108758301088C
:1000700001A90008F1A80008F5230108758301080B
:10008000E1A80008D1A8000875830108758301085C
:100090007583010875830108758301086DB2000836
:1000A00075830108C121010875830108D121010868
:1000B000B5210108A521010895210108592E010843
:1000C0005D2E0108512E0108552E01087583010887
:1000D00075830108E9230108DD230108D123010804
:1000E000BDAA00087583010875830108000000009F
:1000F0000000000000000000000000000000000000
:0C01000000000000000000005FF808F1A3
:100110002DE9F04F794B7A4CA5B023600023636042
:1001200008F08EFEA04618B908F0ACFE0CF000FEF8
:100130000CF0A4FE734A744D1378744F43F001031E
:10014000137000230A930B930C934FF4E0130D9359
:100150002B68B87B43F480332B60AB6943F010030A
:10016000AB612B6803F400330B930A9B01330A93B2
:100170000B9B1BB90A9BB3F5A06FF2D12B686249A8
:1001800013F4003301D0022315E00A6842F00102A3
:100190000A600A932B6803F002030B930A9B013356
:1001A0000A930B9B1BB90A9BB3F5A06FF2D12B6886
:1001B0009A0739D501230C93554B56491A6842F0DA
:1001C00010021A601A6822F003021A601A6842F0DC
:1001D00002021A606B686B606B686B606B6843F45B
:1001E00080636B604C4B1A68043B22F070425A608B
:1001F0004A4A0A606A6822F47C126A605A6842F0CD
:1002000000425A60DA6822F40042DA609B681B04FC
:1002100049BF434B4FF4E0130B604FF480130D9331
:100220000C9B012B01D117E0FEE7022B18D168B11E
:100230000D9BB3F5801F02D14FF4A01305E00D9B79
:10024000B3F5E01F02D14FF400130D930D9A6B68C4
:10025000134343F4803302E06B6843F460136B6034
:100260002B6843F080732B602A68274B9601FBD5DF
:100270005A6822F003025A605A6842F002025A6039
:100280006B68214803F00C03082BF9D14268254B19
:1002900002F00C02042A03D0082A03D01F4A12E0FD
:1002A0000A6810E042684468C2F38342E40302F142
:1002B000020201D41C4805E0406810F4003F0868C1
:1002C00018BF400842431A606A681848C2F3031214
:1002D000024492F830411A680490E2401A60FA7BB6
:1002E000DFF84CC0003218BF012288F808200A68E5
:1002F0000A498A421ED1012220E000BF8FC40008B3
:1003000010020020002B002000100240E415002005
:1003100000200240280000200410014000127A0052
:10032000001BB7009C01002000093D00189A01083D
:100330008A330020B7498A4202D102228CF8002079
:100340000393B54AB54BCDF814C0DA60AA6924AC62
:1003500042F00102AA616A6AB14EC8F80C206A6ACA
:10036000DFF82CB342F080726A62AA694FF0000A8B
:1003700042F01C02AA614FF6FF7224F82C2D304681
:1003800021468DF866A00AF089FF584621460AF0FA
:1003900085FFA44821460AF081FF4FF010038DF835
:1003A0004A304FF002034FF400720DF1900929F822
:1003B000482D8DF84B303046326149460AF06EFFC9
:1003C00048228DF84A20304604224946ADF848209C
:1003D0000AF064FF58464FF480624946ADF8482061
:1003E0000AF05CFF904920464A6842F000724A6079
:1003F0000FF0CAFC8D49199A8D48B2FBF1F28D4974
:100400000A605146182219F058FA039B4FF47A7289
:100410001B688249B3FBF2F3874A013B5360F02328
:1004200081F823300723C2F808A01360BB68DFF807
:1004300064A2CAF80030814B0FCB84E80F00AB698F
:10044000199843F00803AB61AB691AA943F008039C
:10045000AB610823CBF810301023CBF810300AF032
:100460001DFF1B981CA90AF019FFDDF814C04FF4FA
:1004700080529CF80030ADF86420022B34BF142366
:1004800010238DF866304FF002038DF86730AB69AA
:1004900038BF4FF0000B43F00403AB6128BF4FF0AF
:1004A000010B304621460AF0F9FE654BBBF1000F07
:1004B00001D0644A00E0644A00201A600AF00EFB92
:1004C000DAF800301B0713D597F89831012B0FD8B5
:1004D000D8F80C205D4B12F0805B93F89A3100F055
:1004E0002C8605E0594B002283F89A210CF076FE09
:1004F00064200AF018FAA0225548002119F0DDF90D
:10050000EB69002243F00703EB61AB6943F400633E
:1005100043F00C03AB614F4B4FF0000B03F11001A4
:1005200002F801B001320E2AF5D14B4DFF229A7725
:10053000DA7783F8202083F82120284659461022B4
:1005400019F0BBF9454B464A2B606B60AB60EB6022
:10055000444BDAF800A01A60434859463C2219F08F
:10056000ACF9CAF380150523404A3F481BF8021036
:100570000C2202FB0BF211543DB91E3901299FBF19
:10058000FF2103F1FF331154DBB20BF1010BBBF17F
:10059000050FE9D1364A97F805B01370354B364947
:1005A00083F800B0354B2B4AC8F82430C0330B60B9
:1005B000334B1AF0200F03EBCB035B7818BF0123FA
:1005C0009362002340F2DC512E4A22F813100133CB
:1005D000082BF7D1484600211C2219F06EF91AF4B5
:1005E00000730AF4006957D01AF4015F0BD1B9F116
:1005F000000F0AD0244A97F88C01A2F118010128B3
:1006000008BF0A4602E0214A00E01F4A03921894FC
:1006100043E000BF001BB7000005FA0500ED00E055
:1006200000080140001001400000014040420F005E
:10063000080D0020BC0C002010E000E0589B0108D1
:100640006C330020E1A10008F5A10008E4150020AA
:10065000F82E002010020020E80C0020A9A10008BC
:10066000EA170020741D00207C1D002078C40108BA
:10067000C00C00205406002014300020F815002083
:1006800030C50108E8070020309A0108189A0108CF
:10069000000C0140BC1D00200393BBF10E0F04D0E1
:1006A0000BF0EF0BBBF1080F02D101228DF85A209D
:1006B0000120059309F0EAFF8DF84D00022009F0B2
:1006C000E5FFCAF340028DF84F20CAF340328DF89F
:1006D0004820CAF3C0328DF84E008DF851508DF885
:1006E0004B20059BB9F1000F07D097F88C9109F1C9
:1006F000FF3EDEF1000949EB0E09003318BF01236C
:100700008DF85330D8F82830CAF30042003318BFB0
:1007100001238DF85430CAF300538DF85530B7F8E3
:100720004A318DF85220B7F848211AF4805FADF8AD
:100730005830B7F85631ADF85E2018BFA54AADF86D
:100740005630CAF3804318BFB2F850218DF85030AC
:10075000B7F8543118BFADF85E20B3F5FA7FADF8A5
:100760005C3084BF0023ADF85E3097F8DE318DF841
:100770004C90CAF3C0050AF001099748002178227D
:1007800088F82C308DF849908DF84A5019F095F87A
:100790009DF85A30002B0CBF00230223B9F1000F43
:1007A00000D105B10133049A02EB8303D3F8503131
:1007B0009A1E1A330693002305920493059B33F87F
:1007C000025F05934FF6FF739D4200F0EF819DF8A5
:1007D0004D20EBB22D0AEFB262B1804901EB03115B
:1007E0004A68B24206D10A89042A00F0DA81082A4E
:1007F00000F0D7819DF84E207AB17849784801EB16
:1008000003114A68824208D10A89B2F5806F00F06C
:10081000C881B2F5006F00F0C4819DF8512032B15B
:100820006E491A0189586F4A914200F0BA819DF8C9
:10083000520030B169491A0189586A4A914200F060
:10084000B0819DF84F204AB1644901EB03114A6819
:10085000B24203D10A89102A00F0A3819DF84B20EF
:100860004AB15E4901EB03114A68B24203D10A89D9
:10087000022A00F096819DF84C205AB15749DFF8C2
:1008800060E101EB03114A68724503D10A89022A2B
:1008900000F08781DDF860E0BEF1000F14D04F4A10
:1008A00002EB031CDCF80410DEF8002091420BD1AF
:1008B000BCF80820BEF80410914200F07281BEF826
:1008C0000610914200F06D81022D02D19DF8482062
:1008D00003E0012D04D19DF84920002A00F0618138
:1008E0009DF854203D4D4FEA031862B19DF85A20FF
:1008F0004AB9A3F10802012A05D855F808203A4957
:100900008A4208BF04279DF85520454452B19DF8FE
:100910005A203AB910B10C3B012B01E0043B032BE8
:1009200040F21B81012F67D1DFF8C890FF2389F8BF
:10093000743089F87530294B4FF0000A03EB080238
:10094000517B506802F1080B12898DF86610ADF8E2
:10095000642019A9022289F87CA0C9F8885007935D
:100960008DF8672089F830A0C9F834A0C9F838A0FC
:10097000C9F83CA0C9F870A089F876A089F877A0DA
:1009800089F878A00AF08AFC079B9BF8021053F8BC
:10099000080052460AF015FC284651463A4611F026
:1009A00073FC124B09F18C01C9F88C30104B09F122
:1009B0009002C9F89030C9F894A0284611F0ACFC18
:1009C000054B20219A7803EBC20251721A79013249
:1009D0001A71E2E0E4150020A808002000BF010819
:1009E000000C014000040040002C014061AD0008F3
:1009F000FDAE000810020020022F59D19DF81030E2
:100A00001C2101FB03FCBB4BBB4A9DF8101003EB00
:100A10000C0A8AF87D1002EB080191F80DE001F153
:100A20000803486809894FF000094FF0010BADF841
:100A300064108AF87E9019A98AF886908AF87CB0AA
:100A4000CAF88850CDF824C08DF866E00892079364
:100A50008DF867700AF022FC079B089A997852F883
:100A600008004A460AF0ADFB284649465A4611F0AE
:100A70000BFCA04BA14ADDF824C0CAF88C209C4492
:100A80009F4A0CF18C01CAF89020CAF894900A1D74
:100A9000284611F041FC9B4B40219A7803EBC2029F
:100AA0005172DA785A44DA70049B5B44049374E020
:100AB000032F50D19DF85030924F93B14FF6FF72F3
:100AC00000232846082197F801800AF0E5FC8E4BA8
:100AD000192243F828008D4BC360BB7807EBC30392
:100AE0002DE0BDF85C2097F80180B2F5FA7F13D9AC
:100AF000874B2846B3FBF2F2082192B2BDF85E3074
:100B00000AF0CAFC804B0D2243F82800814BC360D9
:100B1000BB7807EBC30312E07F4B2846B3FBF2F22E
:100B2000012192B2BDF85E300AF0B6FC764B092284
:100B300043F82800754BC360BB7807EBC3035A72B8
:100B4000BB787A78013307F8332007EBC30301320F
:100B50005D607A7021E0042F23D1BDF856206E4BE2
:100B6000684F93FBF2F2012192B2BDF8583028464B
:100B700097F800800AF090FC5E4BBA7803EB88038C
:100B8000013207EBC201C3F85C010A234B703B78CA
:100B90004D6007F8323001333B705A4A9378013385
:100BA0009370059B069A93427FF408AE554A5149CB
:100BB00010785A4B81F87C015948002506781D7041
:100BC000A6F1170002288A46914698461BD8DAF803
:100BD00024300021585903EB050B17F029F818B100
:100BE000DAF828305BBB25E04E4F9BE80F002F441E
:100BF00087E80F0098F8003010350133C02D88F8D1
:100C00000030E4D1ECE7484B13F836E003EBC603C1
:100C1000D3F804C088F800E0BCF1000FE0D07545BF
:100C2000DEDA404F2B011F4463440FCB013587E8C8
:100C30000F00F4E73D4F3B68DD0424D41DE03C4B3E
:100C40003C4A13F8360003EBC6035D681070002DB4
:100C5000F0D000238342EDDAC3EBC3016A18D2F867
:100C600000C0DFF8DCE0013341F80EC001EB0E07F5
:100C70009188B9809279BA71ECE706F0EF03082BFE
:100C80002D4B25D126E098F80030012BF5D92B4DBE
:100C900005EB031303F1100810354545EDD055F869
:100CA000100C4FF07C5116F02FFE4FF07C5145F8A0
:100CB000100C55F8140C16F027FE4FF07C5145F837
:100CC000140C55F80C0C16F01FFE45F80C0CE3E75D
:100CD0000E2E08D11A78182E42F010021A7031D157
:100CE00012F0A2FE2EE01A78192E22F010021A70CD
:100CF000F5E700BF1002002000BF0108FDB10008A9
:100D000039AD0008A8080020C82E00203DAF00081B
:100D100000127A004DAF000840420F00AF2E0020B5
:100D2000540600208C05002030C50108BC1D0020A1
:100D300038A10108A02F0020802D0020940500205C
:100D4000A12F002012F054FE99F80320C34BC44D8C
:100D50009A8099F80420C34EDA803B684FF003096B
:100D600058035EBFC04B01221A70C04A4FF0040AFC
:100D700013784FF4805843F004031370BC4B93E88E
:100D80000300AB6984E8030043F00803AB611998E2
:100D90001AA90AF083FAEB69304643F48043EB6109
:100DA0002B69214643F480432B6118238DF866306C
:100DB0004FF42043ADF864308DF867900AF06EFA76
:100DC0004FF4804330462146ADF864308DF866A07C
:100DD0000AF064FA1023214630468DF86630ADF8EB
:100DE00064800AF05BFA2B69A24A43F480432B61CA
:100DF0002B69322023F480432B61138803F4415381
:100E000043F4457343EA09031380938B23F400638F
:100E10001B041B0C93830723138213889BB243F09C
:100E2000400313809F23C6F810808DF840300023C4
:100E30008DF841308DF842308DF8433009F073FD64
:100E40005246C6F81480204610A90AF0F7FCC6F8EE
:100E500010809DF866309DF865201B0243EA02432E
:100E60009DF86720AA461343834A844D934213D0CA
:100E7000322009F058FDC6F81480F5200AF0FEFC77
:100E8000FF200AF0FBFC7028C6F8108004D12B78F4
:100E9000022B08BF85F800902B78032B0CBF1F2076
:100EA000022009F011FB2B78032B02D00AF0E6FF99
:100EB00004E0022009F0EAFB0028F7D095F8008052
:100EC0006F4D4FF0100B284600215A463C6818F031
:100ED000F4FC4FF6FF73ADF84030022304F40047F2
:100EE00004F400664FF000091C408DF842308DF884
:100EF00043900DD0634810A9ADF840B00BF076F8E0
:100F000004232B700124072385F80190AC70EB704B
:100F100077B102235B4810A9ADF840300BF066F8BA
:100F20000123E2182B71AB7107236C71EB71D4B202
:100F3000B8F1010F0FD92023524810A9ADF8403065
:100F40000BF054F8052301222B72AA72631C0722AE
:100F50006C72EA72DCB27EB10223424810A9ADF88D
:100F600040300BF043F8092301222B73AA73631C52
:100F700007226C73EA73DCB2DAF80430424843F4B7
:100F80004043CAF80430DAF81430002643F0010375
:100F9000CAF81430DAF818303B4F43F40073CAF83B
:100FA00018300EF059FF394B012C1993384B19A901
:100FB0001A9394BF334680231E934FF480731F937C
:100FC0004FF4806320932023219338464FF400533D
:100FD0001C9422931B961D9623960EF01FFF3B68D0
:100FE0002C4A43F001033B605368012C23F4702327
:100FF00094BF0021012123F4807343EA012353604D
:101000009168254B013C0B40314643F4602343F08B
:1010100002039360D36AE4B223F4700343EA0454F6
:10102000D46201236A189078002871D06C5C581C37
:10103000092CC0B2D278174F30D9A4F10A06D7F8DC
:101040000CC006EB46064FF0070E0EFA06FE2CEA21
:101050000E0EB2404EEA0202FA602CE03C0800207C
:1010600000100240000C01409C070020002B0020D3
:10107000789B010800380040152020008A330020AA
:10108000AC22002000080140080002404C2401402E
:10109000BC22002000240140FDF7F1FF3E6904EB73
:1010A000440C4FF0070E0EFA0CFE26EA0E0602FA6A
:1010B0000CF232433A61062B9A4E0CD85A1E776BCB
:1010C00002EB82021F23934027EA030704FA02F38C
:1010D0003B4373631BE00C2B0CD8DA1F376B02EB1E
:1010E00082021F23934027EA030704FA02F33B43DB
:1010F00033630CE0A3F10D02F76A02EB82021F23B7
:10110000934027EA030704FA02F33B43F3620346E2
:101110000431102986D1834B9A6842F480729A6018
:101120009A6842F001029A609A6842F008029A6056
:1011300099687C4A090730D5FAE7013B092B3FF64D
:10114000D7A97949794B086810225A61214619902C
:101150007748059203930AF0A1F8082131613C20F9
:1011600009F0E1FB039B059A1A6197F89A319B45B8
:10117000BFF6B8A96D4A0823136178200592736100
:10118000039309F0C5FB039B059A782053613361F3
:1011900009F0BEFB0BF1010BE7E7936843F0040392
:1011A0009360604B9A6812F004020492F9D19A6835
:1011B00042F4A0029A605F4BB3F85C01002841F052
:1011C000B980B3F95E21002A41F0B480B3F96031EF
:1011D000002B41F0AF80584B584D1B6813F4003F73
:1011E0001FD0C82009F09FFBAE2014F026F808B1EC
:1011F00014F028F8524C85F87D01C82009F093FBC3
:10120000504B002114222046C5F8803118F055FBC0
:101210000223E37014F0E9FB08F0C7FF4A4B0344D4
:10122000A3604A4C002685F88461201D6670314613
:101230000C2218F042FB464B23201978454BA4F5AD
:10124000C27403F11802012988BF1346C5F894310E
:1012500009F069FB752101220EAB682014F012FB26
:101260003D4B6820C5F88C313C4B3146C5F8903178
:10127000432385F8883101220FAB14F003FB9DF85E
:101280003C3003F07E03682B8DF83C3006D10123FF
:1012900084F884311D2384F8883166E09DF8383065
:1012A00003F07E03682B8DF8383059D102230620D5
:1012B00084F8843119AAD4F88C31014698479DF8F6
:1012C00067309DF8692003F001035B0002F0010222
:1012D00043EA82029DF8653003F00103134312D004
:1012E0005AB2012A01D1002302E0022A03D10123CC
:1012F00085F8853139E003F00303032BF7D0032091
:1013000009F042FC31E0D4F88C310C20012110AA04
:1013100098479DF8403013F00F03F0D0042BE6D12E
:10132000E1E700BF00240140909B0108000C014050
:1013300000080140E4150020BC1D00201002002020
:101340005030002074170020404B4C0094030020C4
:101350008A330020489A01085D0A0108CD09010876
:10136000702B04BF032384F88431A44C00214FF474
:101370008872204618F0A1FA4FF4807304F1080037
:1013800000217822A4F8B23018F097FA9C4BB3F8F9
:101390005C01B3F85E51B3F8607118B915B9002F4C
:1013A00000F08880012384F8583000B216F058FA13
:1013B000944916F0A9FA944916F05AFB064628B249
:1013C00016F04EFA8F4916F09FFA8F4916F050FB2F
:1013D000054638B216F044FA8A4916F095FA8A4959
:1013E00016F046FB814630460BF046FC8046304600
:1013F0000BF0CEFB064628460BF03EFC074628467F
:101400000BF0C6FB054648460BF036FC82464846C4
:101410000BF0BEFB41468146504616F075FA414638
:101420000590484616F070FA51460690304616F080
:101430006BFA49460790304616F066FA39468346FD
:10144000504616F061FA4946E06507F1004016F093
:101450005BFA294620666566079816F055FA01463C
:10146000069816F049F92946A066584616F04CFA37
:101470000146059816F03EF93946E06606F100404F
:1014800016F042FA29462067059816F03DFA014603
:10149000584616F02FF929466067069816F034FA78
:1014A0000146079816F028F94146A067384616F01D
:1014B0002BFAE067524D2B7C13B1544A526A00E07C
:1014C0001A464E4C8DF841306B7CC4F88020504A4F
:1014D0008DF842304F4FAB89C4F8C82095F8682189
:1014E00011933B688DF8402095F863B195F87191A0
:1014F00095F872A1B3F86280474EB36843B1F068C3
:10150000984718B1337984F8883001E01036F4E751
:10151000D4F88430002B00F01A81404E002233684A
:10152000BBF1010F43F001033360344B83F8A42077
:1015300010DD3B4B9A686AB11968594508DBD868D9
:1015400005939047059B18B11B7984F8A43001E0FE
:101550001033EFE7D4F8A03083B9DFF8C4B0DBF87C
:1015600008305BB1DBF80C00984720B19BF80430E1
:1015700084F8A43002E00BF1100BF0E7D4F8A030AF
:101580001BB1336843F002033360DFF898B00BF10E
:10159000080B5BF8103C1BB15BF80C0C9847F6E7A6
:1015A000BAF1010F03DCD4F8CC30E3B923E0DFF863
:1015B00078B05BF8083C002BF5D05BF8102C524556
:1015C00004DB5BF8040C98470028ECD10BF1100BFE
:1015D000EFE7DAF80C00984728B90AF1100ADAF8B0
:1015E0000830002BF5D1D4F8CC300BB3336843F07E
:1015F000040333601CE0DFF834A0F0E7E8130020B8
:10160000E4150020DB0F494000003443580000205F
:1016100039D3000858200020B0BE010894300020C3
:10162000789A0108889B0108F89A0108E89A01084D
:1016300033689B0703D5D4F8A830002098479DF85D
:1016400041307148714993B19DF84030002B9DF8AD
:10165000423008BF7D2203F1FF33DBB218BF4FF4E5
:101660007A7203FB022280F898310A6003E080F866
:101670009831119B0B60D4F88C3010A89847002348
:10168000B9F1010F84F8B83014DDDFF8A4A1DAF85D
:1016900008307BB1DAF800204A4508DBDAF80C00A4
:1016A000984720B19AF8043084F8B83002E00AF183
:1016B000100AECE7D4F8B43083B9DFF87491D9F8A4
:1016C00008305BB1D9F80C00984720B199F8043084
:1016D00084F8B83002E009F11009F0E7D4F8B4302A
:1016E0001BB1336843F00803336095F858310BB1F0
:1016F00084F8883095F859310BB184F8A43095F806
:101700005A310BB184F8B830336818071BD50FFA7B
:1017100088F84FF0640998FBF9F6304616F0A0F807
:10172000824609FB168000B216F09AF8384916F086
:10173000EBF80146504615F0DFFF364916F0E4F8A5
:10174000C4F8C40006E00023C4F8C43002E001205D
:1017500009F01AFA304A0A26137843F0020313708C
:101760002E4B10225A6108221A61DFF8B08019202E
:10177000D8F80C30013E83F01003C8F80C30D8F8CC
:101780000C3083F00803C8F80C3009F0CCF80120C5
:1017900009F0A4F9192009F0C6F8002009F09EF913
:1017A00016F0FF06E1D10823C8F810301023C8F85E
:1017B0001030164BD3F80080194B1A68994692F9ED
:1017C0000C209AB9174E3368190733D5DFF84C80CF
:1017D0004FF01009D4F8BC30C8F814900020984796
:1017E000114B0122C8F810901A7023E0D9F800308C
:1017F0000E4998683144424624360AF098FEB6F500
:10180000907FF3D1DEE700BF100200207C2D002086
:101810008988883C00002041002B0020000C0140FA
:101820008805002094300020803100207C060020B4
:10183000289B0108BE4BDFF81C831B68187B16F041
:101840000FF8BC4916F060F80BF016FABA4BB9491C
:101850001860D4F89C0016F057F8B84B1860B4F82C
:10186000B20015F0FDFF0146B54816F001F9B54983
:1018700016F0FEF8B44B186012F018F94046FF213C
:101880001C2218F01AF84046D6F800C0AF4B0122CF
:101890001CF0020F18BF88F801201A701FBF032226
:1018A0001A70022288F802201CF0040F18BF1A7860
:1018B0004FF0000188F800101FBF511C1970032160
:1018C00008F802101A784FF01B08511CC9B21CF01E
:1018D0000A0F1970DFF87CE200F8028013D04FF095
:1018E000040C0EF801C0911CC9B24FF0050C0EF8A3
:1018F00001C0964902F1040C033281F800C0D2B253
:1019000006210EF80210924A11688A0641BF1A7821
:1019100002F1010E83F800E04FF0070E48BF00F817
:1019200002E00A060ED51A784FF0090E00F802E020
:1019300002F1020E013283F800E0D2B24FF00A0E3B
:1019400000F802E095F805E00EF0EF02082A02D058
:10195000BEF10E0F08D11A7802F1010C83F800C015
:101960004FF00B0C00F802C01A784FF0120802F189
:10197000010C5FFA8CFC83F800C00C2383544B07E6
:1019800041BF724B02321A70724B44BF102203F8EF
:101990000C206E4B11F4806F1A7802F1010C5FFA83
:1019A0008CFC83F800C000F802800BD095F83082E0
:1019B000B8F1000F06D002321A70664A4FF01308D1
:1019C00002F80C808A0541BF1A7802F1010C83F8F5
:1019D00000C04FF0150C48BF00F802C0BEF1180F50
:1019E00014D11A784FF0160C00F802C002F1010C65
:1019F0005FFA8CFC4FF0170800F80C8002F1030C22
:101A00000232D2B283F800C000F802E00A0341BFFC
:101A10001A7802F1010E83F800E04FF0190E48BF6A
:101A200000F802E0CA0541BF1A78511C19701A214A
:101A300048BF81541A78511C197014238354002113
:101A40009822454817F039FF0AF03DF94349444BC5
:101A500044481960B5F85221434B016043491A804C
:101A60000023434A0B70D7F800E0B5F8A0111380AB
:101A700093700EF1850A8BB20498DFF8FCC0DFF892
:101A8000FC802CF81030D8F80000049ADFF8F090B1
:101A900000F5967049F822000132122A049260463D
:101AA000EAD15246DFF8A8900EF1D50ED9F800C061
:101AB0001CF4805F08BFB5F8A631C3801378B3B9B2
:101AC000937892F803A0534511D20BB1013B01E08A
:101AD0000AF1010303EB830392F801A003EB8303F4
:101AE00003F561739BB20AF1040A20F81A3004323C
:101AF0007245E3D11CF0080F00F0078195F898318A
:101B0000072B00F2FC80DFE813F008000B003D001B
:101B100069008300A300A300E00045F2F05201E059
:101B200042F6F822134B1A800AF067F9E6E000BF8C
:101B3000FC04002035FA8E3C3405002024050020EA
:101B40000AE81C4100401C463831002034230020A4
:101B5000BC1D0020352300204C15002074170020E8
:101B6000040A0020F0220020080A00205709002063
:101B7000002300206005002022150020FC22002008
:101B8000A009002042F6F822AB4B09011A800A2373
:101B900091FBF3F10023A1F5B061A84A42F82310AC
:101BA0000133122BF9D1A64AA64940201160A64A5A
:101BB000137008F099FD002800F0A180A34B0122CA
:101BC00093F8993190F90000002B14BF07230623E6
:101BD0008DE80C0040219E4A9E4B8AE042F6F82296
:101BE000954B40201A809C4A954B1A60964B1022C8
:101BF0001A7008F079FD002800F0818001234FF071
:101C0000000A90F9000040218DE80804934A6EE034
:101C100042F6F822884B40201A80914A884B1A607D
:101C2000894B08221A7008F05FFD002867D0012355
:101C30004FF0000C90F9000040218DE80810894A0F
:101C40004FF4E13309F001F8874BC3F89C0152E0EF
:101C500042F6F821784A062B11807B494FF00C029E
:101C6000DFF860E2814D82480A700FD000232B70AC
:101C70008EF8003003707F4B1B2119707E4B4FF4A0
:101C8000E1351A707D4B05221A700CE00021297095
:101C900001708EF800107749212008707649784D40
:101CA0000A70764A1370774A654B40201A6008F034
:101CB0001BFD20B301234FF0000E90F900004021DE
:101CC0008DE80840704A2B4613E0704A5C4B402078
:101CD0001A605D4B0A221A7008F006FD78B10123E4
:101CE000002590F900008DE82800694A40214FF452
:101CF000E13308F0AAFF003018BF012028B90820FE
:101D00000AF0E4FF634A4E4B1A60D9F800305904D8
:101D100041BF4D4A12211170494A44BF5E491160CA
:101D200042F201021A40AAB144F62061424A1180EF
:101D30009A0441BF444A08211170584944BF404A9F
:101D40001160DD0741BF404A0C211170544944BF66
:101D50003B4A116018065DD5524B43484FF0000ACC
:101D6000514DC0F8A0315146152200F5D2700493B0
:101D700085F801A0C5F804A0C5F808A017F09DFDDE
:101D8000049BDFF844B1053B5046CBF800300CF023
:101D9000ABFAD8F800300220EB6008F0A5FC18B9C7
:101DA00080200AF093FF2EE090F805E06B783F4921
:101DB0000C2202FB03125278724504D00133DBB2CD
:101DC000042BF4D900236B70DBF800306A781B78A1
:101DD00090F90000002B4FF00C0303FB021314BF1B
:101DE0004FF0030E4FF0010E00225B78CDF800E0BB
:101DF0000192022108F029FF2D4B18600028CFD056
:101E000001200CF071FA38682A4B00F5CB721A6089
:101E10000FF004FFD9F80030990540F11581264BE9
:101E2000264DB3F8D030A4F8F430254B1B68002BB6
:101E30004CD1092272E000BF60050020342100204F
:101E40000800002071F90008401D0020E415002062
:101E500045FC0008A08601005DF9000899FB000818
:101E600045F900084DFB000810020020E921002080
:101E7000E8210020EA210020C1200020EB210020E1
:101E800090D0030059F8000821FA00084DF8000826
:101E9000D5F90008D1F90008A1F90008C1F9000836
:101EA000B1F90008EA170020843100204CBA01087B
:101EB0004C300020600A002058000020E813002069
:101EC00048150020C2200020A4310020BE4C002173
:101ED000202204F5DE7017F0F0FC002300930220AE
:101EE0003221BA4A04F5DE7307F046FB2746C4F8F0
:101EF000C80100287ED0B64A1388591CA4F8C43102
:101F0000B44B1180C4F8CC31B34BB5F8F410C4F81D
:101F1000BC31B24BC4F8C03119B90122B04B1A70B0
:101F200068E08379023BDBB2062B07D8012202FA74
:101F300003F313F0430F01D0018102E0A84B092203
:101F40001A70A84B00241B680470C5F8F830039B76
:101F5000A54AC7F8DC314FF4C873A5F8FC304FF43C
:101F60009673A5F8FE304FF4E173A5F8003193693C
:101F7000C5F8040143F001039361039B10271B88FC
:101F80000EA9ADF8383002238DF83B30039B8DF855
:101F90003A70586809F082F9039B0EA91B89ADF8C5
:101FA000383004238DF83A30039BD86809F076F96D
:101FB000039B0120197D09F05CF9039B8B4A1B6987
:101FC00019A853618DF86970012719938DF868403D
:101FD0008DF86A700AF058F8039B0FA85B7D8DF8A6
:101FE0003E408DF83C3003238DF83D308DF83F7036
:101FF00009F006FC33687E4A43F010033360B5F9FC
:10200000FC60022396FBF3F1B5F90001118090FB0F
:10201000F3F015F025FC774915F02AFD764915F007
:1020200073FC0AF029FE0446744B1860304615F024
:1020300017FC214615F068FC15F02CFE704B4FF094
:10204000FF3218806F4B1A60D9F800305A0553D50B
:102050005D4C6D4BD4F8E06104201E6008F044FB39
:102060000421C4F8E40108F01CFB684B84F8E80183
:1020700008201E6008F038FB654B0821186008F046
:1020800010FB644D84F8E901002128462C2217F04A
:1020900014FC8E236B704FF07C08E0237D27EB70DF
:1020A00085F8008085F82B705B4D2C220021284696
:1020B00017F003FC8A236B702020A023EB7085F8B7
:1020C000008085F82B70C4F8EC6108F00DFB20212E
:1020D000C4F8F00108F0E5FA84F8F4011020C4F81F
:1020E000F86108F001FB1021C4F8FC0108F0D9FAEE
:1020F00084F8000214F016FA484B494C1B78022B66
:1021000040F09D80474A00251388322023F0400389
:102110001B041B0C138013884FF4805623F03803E4
:102120001B041B0C138013889BB243F040031380E5
:102130009F238DF83C308DF83D508DF83E508DF842
:102140003F5008F0F0FB8DF86550374D04226E616A
:1021500019A80FA909F072FB2E619DF866309DF851
:1021600065201B0243EA02429DF8673013432F4A61
:10217000934219D00AD8A2F51A42033A93420CD0DE
:1021800002F51A420232934209D053E0284A9342A0
:1021900005D00132934207D04CE0202300E0802399
:1021A00023804FF4807302E04FF4807323806380B8
:1021B000A38822881B02A3605343E360024B0122E1
:1021C00083F801223BE000BF10020020318A0008A2
:1021D0000C00002031D46842E1AF000871AF000864
:1021E0008B3300205000002000100240000401400A
:1021F0001C3100200000204135FA8E3C14310020B3
:1022000024310020183100200C0B00205C0B002032
:10221000A80B00202C0B0020600B00208A3300202C
:102220001800002000380040000C014018BA2000BF
:102230001740EF00002323806380A360E360E4681D
:102240000CB3E40A26460027A7420ADA3D196D10AE
:102250000DF16408E8024146102209F0ABFA0F289C
:1022600006DC0FF021FF764BF602C3F804620AE0A9
:10227000002358F82320013259D10133042BF8D11F
:102280002E462C46E0E7D9F800106E4B11F40022E0
:102290006D4C18BF01221A706379052B02BF6B4B7E
:1022A0004FF4C8721A806A4B4FF47A721A80694BE5
:1022B000C8221A80684A137843F008031370674AEB
:1022C000137823F00203137040F602030B40A3B10E
:1022D000634A644B4FF07E501A60634B03221A70BE
:1022E000624B01221A70624A00231380614A6249DC
:1022F00013804CF250320AF01AF9D9F800309B03DF
:1023000041BF5E4B04221A71DA7844BF42F00102E9
:10231000DA70A3680122C9F80030594B1A70594A83
:10232000137863F07F03137025B0BDE8F08F6F1C46
:102330002546A6E7544B00221A7000B215F090FA19
:10234000524915F0E1FA404C0646B4F95E0115F029
:1023500087FA4E4915F0D8FA0546B4F9600115F030
:102360007FFA4A4915F0D0FA044630460AF084FC58
:10237000804630460AF00CFC064628460AF07CFCF3
:10238000074628460AF004FC054620460AF074FC7D
:10239000824620460AF0FCFB41468146504615F035
:1023A000B3FA41468346484615F0AEFA51460590C9
:1023B000304615F0A9FA49460690304615F0A4FAC1
:1023C00039460790504615F09FFA314C4946206037
:1023D00007F1004015F098FA29466060A56006985C
:1023E00015F092FA0146059815F086F92946E06045
:1023F000079815F089FA0146584615F07BF93946D9
:10240000206106F1004015F07FFA294660615846C8
:1024100015F07AFA0146079815F06CF92946A06183
:10242000059815F071FA0146069815F065F94146D0
:10243000E061384615F068FA2062FEF7CCBE00BFB6
:102440001002002044080020E41500201A0A002091
:10245000140A0020F8300020802D00208D33002049
:1024600066170020A4220020903000209801002050
:10247000FC320020FE320020C82200205030002014
:102480009C070020002B00202C00002035FA8E3CF9
:10249000802200202DE9F04F97B009F0DBFB954B2F
:1024A00085B21D808046284615F0D6F992498246AD
:1024B00015F02AFA914C924B06461860002160688C
:1024C00015F0B6FB08B18F4B63606168304615F0BC
:1024D00013F90146304615F0CBFAD4F800900646C1
:1024E0004946504615F006F90146304615F00CFAFB
:1024F0000146484615F000F9206015F0F1FB824BCB
:1025000080B22D1A5D80814DA081A3F800808048A3
:10251000D5F890309847794F079548B97D4F7E4E52
:102520003B68049713F0020F40F0008100F0F1BD0A
:10253000D7F810800021404615F07AFB70B1774E35
:102540003388002B00F0B480D4F88830744F1B78A7
:1025500007F10C0504934FF0000871E03B7D9BB937
:10256000BB61A569654E022D0CDC06F11C0324211C
:1025700001FB05316B4B40461A68013509F0D7FF66
:10258000B561EEE701233375237D002BD7D05B4B7C
:1025900000229A61A569594E022DD0DC5C4F57F894
:1025A000250015F05DF906F11C03242101FB05311E
:1025B00009F08AFF16F060FA47F825000135B56189
:1025C000E8E7D5F800C008936146CDF814C006903E
:1025D00015F090F8089B8346184615F041F901461E
:1025E000584615F045FADDF814C00146604615F06E
:1025F00083F80346069A194668601046059315F05D
:1026000079F80146584615F07FF9A96815F074F875
:10261000059BE8602B60A8603D4ADFF80CB1002301
:10262000BAF1010F49F8023049F80B3024D008F113
:102630000108B8F1030F07F1040705F1140543D0B1
:10264000B6F800A04FEA8809BAF57A7F02BF0023E6
:102650003B602B612E4B53F828003B6803443B60E2
:1026600015F0FEF82B690133012B2B61A9D1002352
:1026700068602860AB60CFE72869012807DD013872
:1026800015F0EEF80146E86815F0F2F900E00020D8
:1026900016F0B8FB049B824663B1184615F0E0F8CB
:1026A0000146504615F0ECFA20B14FF47A733380AE
:1026B000002311E03B684FF47A7203F5FA7393FB41
:1026C000F2F34BF80930B2E73088012801D108F065
:1026D00021FA3388013BEAE70D49134851F82320DA
:1026E00050F82300121A41F823200133032BF3D1B1
:1026F00014E700BF88330020BD378635180400205A
:10270000582E002083F9223E3C080020E8130020C8
:10271000602D0020943000201C330020140A00207B
:10272000A40400207C2D0020EC0400208E4B1B789C
:10273000002B00F0EE8407F038FDD4F8E0308B4D2C
:10274000C31A0693D4F8E430C4F8E00093F800808C
:1027500005930027B8F1000F3AD056F8270015F07E
:102760007FF88346069815F077F8814915F0CCF884
:1027700000218246686815F05BFA58B1404615F0B2
:102780006FF87C4915F0C0F801464FF07E5015F007
:102790006FF968605046696814F0AEFF0146504614
:1027A00015F066F9D5F8009082464946584614F06F
:1027B000A1FF0146504615F0A7F80146484614F01F
:1027C0009BFF286015F066FA6B4A22F8170004E0B8
:1027D00056F82710684A22F817100137032F05F121
:1027E0000C05B7D16449B1F802A0B1F800900FFA16
:1027F0008AF252430FFA89F303FB03228B88642188
:102800000993BDF9243003FB032301FB03F2079B6B
:10281000B3F8B2305B4392FBF3F3523B0B93049B50
:102820001B68180706D5554A116819B1516809B1D6
:1028300092687ABB524A127802F0100101F0FF054B
:1028400061B313F0200529D002F0020303F0FF0565
:1028500023B34C4B1B78042B1FD94B4B1B88B3F570
:10286000967F1AD3494B0026B3F9040014F0F8FF01
:10287000474B0546188814F0F3FF464915F0F8F861
:102880000146284614F036FF434915F03DF801256E
:10289000804606E00025012601E000252E464FF087
:1028A0000008069814F0D8FF314915F02DF83B4F79
:1028B000D4F80C410490386814F0D2FF214615F08A
:1028C00023F80790786814F0CBFF214615F01CF828
:1028D0000890B86814F0C4FF214615F015F8274A8F
:1028E00083460798536801460A931768946815F061
:1028F0000BF80C900898014615F006F80C9A014662
:10290000104614F0F9FE59460C90584614F0FCFF9E
:102910000C9A0146104614F0EFFE16F073FA0C9074
:10292000002D41D040461E4915F0AAF928B1404675
:10293000104914F0DFFE8046F4E74046194915F0CF
:1029400081F928B140460B4914F0D6FE8046F4E7E1
:102950004FF07C51404614F0D7FF0AF019F90021DE
:1029600014F0CAFE054620E0503300200005002088
:10297000BD378635DB0FC940FE0A002064310020D8
:10298000802D0020180B0020140B0020582D002053
:10299000F80700200000204135FA8E3C602D002011
:1029A000DB0F4940DB0F49C00025002E00F0A1805D
:1029B000384614F055FF07460A9814F051FF0646B2
:1029C000204614F04DFF39460446384614F09CFF6B
:1029D00031468046304614F097FF0146404614F0D9
:1029E0008BFE21468046204614F08EFF014640466D
:1029F00014F082FEA349804615F042F9002878D0F1
:102A0000404616F0FFF901464FF07E5015F030F8C1
:102A100080463846414614F077FF41460A903046DA
:102A200014F072FF41460646204614F06DFF964FA3
:102A3000044639680A9814F067FF79680D903046AB
:102A400014F062FF0D9B0146184614F055FEB9685C
:102A50000D90204614F058FF0D9B0146184614F0C7
:102A60004BFEF9680D900A9814F04EFF39698046C4
:102A7000304614F049FF0146404614F03DFE7969A6
:102A80000646204614F040FF0146304614F034FE5E
:102A90000D9B04461946184614F036FF214606469B
:102AA000204614F031FF0146304614F025FE16F0A2
:102AB000A9F90146204614F027FF00F10048B96942
:102AC000404614F021FF002114F016FEF969064675
:102AD000404614F019FF002114F00EFE396A044636
:102AE000404614F011FF0146284614F005FE054645
:102AF00001E0002426460B9B262B00F286800FFA6D
:102B000089F014F0ADFE81460FFA8AF014F0A8FEA9
:102B10000746BDF9240014F0A3FE49468046484606
:102B200014F0F2FE39468246384614F0EDFE0146B6
:102B3000504614F0E1FD41468246404614F0E4FE62
:102B40000146504614F0D8FD4E49824615F098F8DB
:102B500000285AD0504616F055F901464FF07E50E5
:102B600014F086FF82464846514614F0CDFE514689
:102B70008146384614F0C8FE51460746404614F0D8
:102B8000C3FE414B82461A6A38461146D3F81C8070
:102B90000A920B9314F0B8FE41460990504614F087
:102BA000B3FEDDF824C00146604614F0A3FD0146E3
:102BB000304614F0A1FD0B9B06469B695046194612
:102BC000099314F0A1FE0A9A82461146484614F071
:102BD0009BFE0146504614F08DFD0146204614F040
:102BE0008BFD41460446484614F08EFE099B804604
:102BF0001946384614F088FE0146404614F07AFD26
:102C00000146284614F078FD0546059B4FF0000963
:102C1000D3F804804946404615F032F81B4F00288F
:102C200038D00C981A4915F00DF8002838D03146E4
:102C3000404614F069FE049914F066FE0146D7F888
:102C4000100114F059FD2146C7F81001404614F058
:102C50005BFE049914F058FE0146D7F8140114F0F5
:102C60004BFD2946C7F81401404614F04DFE049967
:102C700014F04AFE0146D7F8180114F03DFDC7F8DC
:102C800018010DE00AD7233C24300020180400204E
:102C9000C2B8B23EC7F81091C7F81491C7F818919E
:102CA000059B9868064B1B78590705D4054B1A6895
:102CB00044F61F639A4207D94FF07E5105E000BFEA
:102CC0008D330020FC220020A44914F01DFE314663
:102CD000804614F019FED7F8101114F00DFD0146CE
:102CE000079814F009FD21460646404614F00CFEF4
:102CF000D7F8141114F000FD0146089814F0FCFCFC
:102D000029468146404614F0FFFDD7F8181114F00B
:102D1000F3FC0146584614F0EFFC4FF07C51054699
:102D2000049814F0F1FD04463046214614F0ECFD01
:102D300021460646484614F0E7FD214680462846CF
:102D400014F0E2FD864B8246D3F80090854B314665
:102D50001F68854B09F100401D6814F0D5FD414600
:102D60000790384614F0D0FD079B0146184614F032
:102D7000C1FC51460790284614F0C6FD079B01464A
:102D8000184614F0B7FC794C0146D4F800B0584608
:102D900014F0B2FC314620600990584614F0B4FD9E
:102DA00051460790384614F0AFFD079B0146184680
:102DB00014F0A2FC41460790284614F0A5FD079B9D
:102DC0000146184614F096FC0146484614F094FC5F
:102DD000634B414618600890584614F095FD5146E3
:102DE0000790484614F090FD079B0146184614F0E2
:102DF00081FC31460790284614F086FD079B01466A
:102E0000184614F079FC0146384614F075FC554A12
:102E1000514610600790584614F076FD41468246B0
:102E2000484614F071FD0146504614F065FC3146E9
:102E30008046384614F068FD0146404614F05AFCBE
:102E40000146284614F058FCDDF824C0464B614684
:102E500018600546604614F057FD089A064611466C
:102E6000104614F051FD0146304614F045FC079B16
:102E700006461946184614F047FD0146304614F040
:102E80003BFC29460646284614F03EFD01463046E6
:102E900014F032FC15F0B6FF01464FF07E5014F0EE
:102EA000E7FD05462068294614F02EFD2C4B2060D6
:102EB0002946186814F028FD294B29461860294B2B
:102EC0002B4C186814F020FD264B29461860264B21
:102ED000284E186814F018FD234B274D186010F089
:102EE000E5FD216AE06909F0D1FD244914F00CFDEB
:102EF00015F0C2FD3080A06900F1004009F08AFDA4
:102F000001461F4814F0F6FB1C4914F0FDFC15F0B7
:102F1000B3FD21687080E06809F0B8FD174900F141
:102F2000004014F0F1FCD5F8C41014F0E5FB15F0E6
:102F3000A3FD83B21A044ABF00F56160B380B0807C
:102F4000104B266AD3F81C11304614F099FE0E4B34
:102F50001A78D8B142F008021AE000BF0000204100
:102F6000183000201C3000202030002030000020CD
:102F700024300020582D0020E81300204C3D0F4441
:102F8000DB0FC93F18040020802D002022F008022A
:102F9000974F1A70B7F9000014F062FC8146B7F938
:102FA000020014F05DFC8046B7F9040014F058FCF0
:102FB00021680746484614F0A7FC616882464046EF
:102FC00014F0A2FC0146504614F096FBA16882461C
:102FD000384614F099FC0146504614F08DFBA16967
:102FE0008246484614F090FCE1698346404614F05E
:102FF0008BFC0146584614F07FFB39468346304629
:1030000014F082FC0146584614F076FBE16806464F
:10301000484614F079FC21698146404614F074FC5E
:103020000146484614F068FB61698046384614F052
:103030006BFC0146404614F05FFB059B00F1004726
:103040005B786C4C012B18D16B4B1B785B070ED453
:10305000D4F82001402390FBF3F3C01A14F000FCD5
:10306000314614F049FB14F015FEC4F82001D4F8E1
:103070002001402390FBF3F001E0B5F8B20014F01A
:10308000EFFB0146304614F035FBD4F82811064614
:10309000049814F031FB0146049814F0E9FCD4F8CC
:1030A000245180462946304614F024FB0146404610
:1030B00014F02AFC0146284614F01EFBC4F8240133
:1030C0000646504615F0D8FCD4F82C514B4C2978C4
:1030D00009F091FC236818442060384615F0CCFCB8
:1030E000297809F088FC636818446060304615F060
:1030F000C3FC697809F07FFCA368414A184406992B
:103100001368A060194411603E4A136801331360CC
:1031100003E0002333607360B3603B4BB3F90610E8
:103120003A4BD3F800E0BEF80A2091420FDBB1F52C
:10313000FA6F9EF80750BFBF8B1A6B43A2F5FA6572
:1031400093FBF5F5ACBFC5F16405643500E064257B
:103150002F4B304AB3F8A0C193F9623112689BB289
:10316000049216460593002240F2E630264B4FEAC1
:10317000420933F91280CCEB080303F2F3148442C2
:1031800003D8002BB8BF5B4201E04FF4FA73022A68
:10319000049C4FF0640045D094F81D411CB1A3423B
:1031A000CCBF1B1B002393FBF0F71B4C6FF0630B92
:1031B00034F817A00BFB073B013734F917400FFA1F
:1031C0008AF7E41B04FB0BF494FBF0F4134F544414
:1031D00027F809400EEB020424796343104C93FB5B
:1031E000F4F364339BB26B4393FBF0F047E000BF12
:1031F000FE0A0020180400208D3300202C3100200E
:103200007033002028310020221500206C3000206F
:10321000E415002058200020DA0C0020502D00205A
:103220000CFEFFFF94F81E411CB1A342CCBF1B1B38
:10323000002393FBF0F0AE4C6FF0630A0AFB003BF7
:1032400004EB400704EB4000B7F93071B0F93201EC
:10325000002BA0EB070000FB0BFB9BFBFAFB059888
:10326000C7EB0B0707FB00F7A248B8BF5B4287809C
:103270009EF806004343A04893FBF0F06430737857
:103280006427434393FBF7F39C4C022AA354F37A3D
:103290009B4C00FB03F393FBF7F3A354737D954C16
:1032A00000FB03F090FBF7F0964B9854964B0DD132
:1032B000E0459F700DDB954DB5F8A221914214DBDE
:1032C000B1F5FA6FA8BF4FF4FA610FE0E0459D54E5
:1032D00004DA34F809305B4224F809300132032A59
:1032E00006F101067FF440AFE5E71146891A4FF475
:1032F0007A735943C2F5FA62B1FBF2F1642391FB90
:10330000F3F2DFF858E26FF063003EF8127000FB52
:10331000021101323EF9122038B2121A514391FBC8
:10332000F3F33B44E3807A4B724E1B885F063FD534
:10333000784B0A20B3F9043093FBF0F0764B1B88EE
:10334000C01A00B214F08CFA744914F0DDFA074682
:1033500009F092FC8046384609F01AFC0746B6F997
:10336000020014F07DFA8146B6F9000014F078FAF4
:103370004146824614F0C8FA39468346484614F05E
:10338000C3FA0146584614F0B5F914F083FC4146DF
:103390003080484614F0B8FA39468046504614F05A
:1033A000B3FA0146404614F0A7F914F073FC70809C
:1033B0005B4B1A78500703D55A4B08225A613CE000
:1033C00059490968C9075CBF42F001021A70574A9F
:1033D0005749127812075EBF1A7822F001021A705C
:1033E000544A126812F0040F02D05348008870B992
:1033F0005248008808B1970709D4514A1288003210
:1034000018BF01221AB94F480079632806D9022251
:103410000A701A7822F001021A7005E01B78DE07A4
:1034200056BF02230A700B7006F0BFFE464B1B68A6
:10343000C01A002801DB0CF01BFF444BD3F894307A
:103440000BB14348984795F89E31294F002B00F067
:103450008980BB89B7F84801B0FBF3F03D4B461CAF
:103460001B78B6B2A7F84A611BB3B7F94CA1002389
:10347000DFF87CE034F813800EF5AB7C3CF81320C9
:103480000EF5A779C2EB080B39F913202CF813803D
:103490000AFB02F132B291FBF2F25A4429F81320EE
:1034A0000133042BE4D12B4B00221A70AEF84C01EF
:1034B00004E0B7F84C31013BA7F84C310C4A00232B
:1034C000B2F94C0100284BDDB2F94A612249A1F161
:1034D000080232F9132031F81310424392FBF6F23E
:1034E0008A1A24F813200133042BEFD13AE000BFED
:1034F00018040020502D00200CFEFFFF942E002009
:1035000056050020AC2E00206C2D0020E415002074
:103510002C230020582D00205A0A002035FA8E3C1A
:103520008D330020000C014030230020802D00202E
:103530002423002094300020F83000201A0A0020B4
:10354000140A00208830002028230020E8130020DF
:103550005C050020F00A00206E050020C20C00204F
:10356000A2F84C31A74EA84B3168012208071A7007
:1035700041D5A088DFF8E8E200F10E039BB21C2BD6
:10358000A24BB3F9043031D8A14A128852072DD585
:103590000A2293FBF2F2BEF80030D21A92B293B232
:1035A0000FFA83FE1EF1B30FBCBF02F5B4739BB2DA
:1035B000DFF864E21AB2B32A9EF800E0C4BFA3F5B4
:1035C000B4739BB21EF0080F95F8622113D052B26B
:1035D000524253438F4A1BB21268527A53436FF0E0
:1035E0001D0293FBF2F31844A08004E00A2293FB2F
:1035F000F2F3AEF8003011F0140FDFF8689271D0DA
:10360000834B1B8803F40273002B6BD0824B1B7817
:1036100003F0100303F0FF0E43B1804B95F9001245
:103620001A68638801FB023363805BE0D9F860317C
:103630007B4AD9787B489B7829B3B0F90010B2F95E
:103640000600421A002AB8BF52429A420EDD764A5C
:103650008842C2F800E04FF0010289F86421C8BF37
:103660005B42E2889BB21344E3803BE099F864310B
:103670002BB16E4B89F864E11A686D4B1A60674B89
:103680001B680B4423E0B0F90000B2F90620121ABF
:1036900082EAE27EAEEBE27E9E450ADD022392FBE9
:1036A000F3F2644B1A60644A0123137089F86431A1
:1036B0000AE099F864313BB15C4B89F864111A68EF
:1036C0005B4B1A605C4B1970544B1B680344D9F870
:1036D00068110A884988934203DB8B42A8BF0B46D6
:1036E0001A46E280554B1B78ABB14D4BB3F906201F
:1036F000B5F8A2319A420EDC514B5B79012B01D017
:10370000192B02D195F8F6212AB90E2B03D0082BDC
:103710001CBF0023A3803F4B1B6893F824A1BAF180
:10372000000F2FD03A4B1B889B072BD0454B4649A7
:10373000D3F82080404614F08FFAF8B9404609F0DB
:1037400069F9D7F86C1114F0DFF815F095F9B0F5B8
:10375000617FA8BF4FF4617014F082F83B4914F008
:1037600087F909F015FA0746504614F079F83946FA
:1037700014F0CAF815F080F980B200E00020E38868
:103780001844E08033689F0640F1CD80204B1B88B1
:1037900003F03003002B00F0C6801F4B1B78DE07C0
:1037A00040F1C180194BB3F904000A2390FBF3F0F8
:1037B00014F056F8264914F0A7F8064609F0E8F97F
:1037C0008046304609F058FA224B07461B68224AC9
:1037D000D978224E002973D0DFF88CB0B2F90200FC
:1037E000BBF802A005910FFA8AF3C01A04920EF0FA
:1037F000BDF90599049A4B42984237DB8842A8BF2D
:10380000084634E094300020F10A0020582D0020B2
:103810002C23002058200020802D0020543100202F
:1038200022150020F20A002050310020CC0B00208D
:10383000483100207433002058310020020000205D
:10384000E4150020243000208FC2753CEFB6B04450
:1038500035FA8E3C600A0020720A00208433002072
:10386000580A0020180400206E0A00201846BBF8F1
:1038700000C08244B2F900000FFA8CF21FFA8AFAF3
:10388000801A0693CDF810C00591ABF802A00EF097
:103890006DF9069BDDF810C0984204DB05990346DC
:1038A0008842A8BF0B4663449BB2ABF800300FFAC6
:1038B0008AF0049313F0D4FF049B834618B208E007
:1038C000B2F90200049213F0CBFF049A8346B2F9D6
:1038D000000013F0C5FF39468246584614F014F82C
:1038E00041460490504614F00FF8049B01461846D8
:1038F00013F000FF9C4914F0BBF814F0CBF94146DB
:103900003080584614F000F839468046504613F08F
:10391000FBFF0146404613F0EFFE934914F0A8F870
:1039200014F0B8F97080914BB5F874211868904B79
:103930000093904B1D68904B196800F16403A847F1
:103940008E4B8F49DB7804938E4B1E78032E15D94E
:10395000D9F870319D88B5F5FA7F0FD2B4F904001B
:10396000B1F904700028B8BF40426A42131A9F425E
:1039700003DB2B18BB42A8BF3B468B80824B1B68E6
:1039800013F000620BD1D9F87001E3884F88B1F8C9
:1039900000800590B1F904A07C4D144669E10B88C4
:1039A000002705933D46D9F87031B946B1F802A019
:1039B000B1F904B0DFF8F4810693B14541D20FFAB2
:1039C0008AF013F04DFFD8F8081013F09DFF079010
:1039D000BDF9140013F044FFD8F8041013F094FF5D
:1039E000DDF81CC00146604613F086FE069B07907A
:1039F00093F9020040420BFB00F013F031FFD8F8BE
:103A00000C1013F081FFDDF81CC00146604613F076
:103A100073FE14F03FF90FA980B221F819000FFAD4
:103A200085FE01B2714504DC0FFA87FE714502DBA9
:103A300028460546384609F1010908F110080746ED
:103A4000BBE7534BED1B1A68ADB212F4805F0593D0
:103A5000DFF85CA138D04F4A4F4E127812F0040FB5
:103A60004D4A02BFD2F83812098AA2F83412D2F8AD
:103A700038224A49108A4A4AB1F8068014680FFA77
:103A800088F7E288811A8F4204DCDAF80020278860
:103A9000148806E00244974206DBDAF800206488C6
:103AA0005788A6F8348215E0B6F934228A42D9BF85
:103AB0002788DAF80020DAF800206488D9BF148853
:103AC000B8465788A04605E0DAF80020B4F806802A
:103AD00057881488BAB21FFA84F9C9EB0206B6B245
:103AE0000FFA85FB30B28345264D2E4962DD012257
:103AF0000A7013F0B5FE0690584613F0B1FE069A10
:103B00000146104613F0B4FF8346002229788A420A
:103B100014D20DF13C0C3CF91200CDF81CC00692F9
:103B200013F09EFE594613F0EFFE14F0A5FF069A1F
:103B3000DDF81CC02CF812000132E7E7164AD2F873
:103B40007021507813F08CFE174913F091FF014655
:103B5000584614F095F8B8B336B2022496FBF4F444
:103B60004C44A4B227462FE00000204158200020FA
:103B700074170020940100206C30002000230020E6
:103B8000B42D0020AF2E002030230020940500200B
:103B9000BC1D00208D3300201804002022150020B9
:103BA000982F0020812D00200000C8428C050020A5
:103BB0009C2F00200020087002209BFBF0F009EBF6
:103BC0000004171AA4B2BFB2059BDAF800601B68A4
:103BD00095F8009003F480530693A34B0025B3F9A6
:103BE00034A2D3F838320593A04BD3F800B04D453A
:103BF00080F007810FAB33F815200FFA88F0079299
:103C000013F02EFE9A4B2901C95813F07DFE14F0D3
:103C100041F823B29842079A03DB3BB28342A8BF24
:103C2000034613440498934A9BB222F81530690066
:103C30001BB208B1B08811E0069870B10598BBF8C6
:103C400006E0008ACEEB0000824503DC3088BBF83A
:103C500000E005E0BBF8020000E03088B6F802E0C2
:103C6000834203DB7345A8BF7346184650520135A3
:103C7000BDE7B44205F11005DFF8F8B13BD218B248
:103C8000079313F0EDFD55F8181C13F03DFE069058
:103C900038B213F0E5FD55F8101C13F035FE069A06
:103CA0000146104613F028FD06900FFA88F013F035
:103CB000D7FD55F8141C13F027FE069A014610464E
:103CC00013F01AFD059B069093F9020040420AFB8F
:103CD00000F013F0C5FD55F80C1C13F015FE069A04
:103CE0000146104613F008FD13F0D4FF079B2BF894
:103CF00014000134BDE7BBF800300121B1421AB213
:103D000007D23BF9113001319A42B8BF1A4693B23B
:103D1000F4E75949D9F870810968D9F838C2488858
:103D20000BEB46098242C8BF181A544B514A1F6810
:103D3000C8BF80B207F480530593514BD8BF002011
:103D4000B3F90640494B07F010071D684A4558D0A3
:103D50001388059E1B1A9BB222F8023B4EB398F8BB
:103D600000A0BCF810E0BAF1000F08D1B5F806A029
:103D7000CAEB0E0B5C4502DDF244544514DB74457E
:103D8000CCBFB5F802E0B1F804E01BB2CCBFB1F88B
:103D900002A0B5F800A0734503DB5345A8BF534606
:103DA0009E4622F802ECD1E77445CCBF6B882B8885
:103DB00024E0049EB1F802E04EB132F902AC8B88E7
:103DC0009A451BDBF2455346A8BF734616E0B1F88F
:103DD00000A01BB2534503DB7345A8BF73469A4648
:103DE00022F802ACBCF812309C42AFDA0FB18B88DB
:103DF00004E098F80030002BA8D10B8822F8023C90
:103E0000A4E720490A788B4602F0040202F0FF037F
:103E100042B1154890F83C32013BDBB2182B00F25E
:103E20003D810BE0184A12789342F2D2174931F8DB
:103E30001300104921F813000133F5E701229A40DD
:103E4000134B1340002B00F02981124B0C491B88A7
:103E500013F4807F22D0104B1A88ADF83C205A888A
:103E60009B88ADF83E202FE018040020982F0020FA
:103E70008C050020B02E00209C2F0020BC1D0020AF
:103E8000221500208D330020AF2E0020703000203E
:103E9000992098012C230020502D0020B44B1A8823
:103EA000ADF83C205A889B88ADF83E20B14AADF869
:103EB00040301268D40409D5D0F83822B1F9064050
:103EC000128A944202DA5B42ADF84030AA4D4FF4B8
:103ED0007A72B5F902304FF4616403F5E16353433C
:103EE00093FBF4F3A3F5FA73ADF85430B5F9003051
:103EF00003F5E1635A4392FBF4F2A04BA2F5FA7288
:103F00001B88ADF85620A3F2DC53ADF84230D0F850
:103F100038320A881B8AD21AADF844204A88D21A4D
:103F2000ADF846208A88D21AADF84820CA88D21A3D
:103F3000ADF84A200A89D21AADF84C204A89D21A23
:103F4000ADF84E208A89D21AADF85020CA89D31A0A
:103F5000ADF8523000238A4A002122F813100133B1
:103F6000082BF8D1874B88491B68884D0493884BF0
:103F70001B680593874B1B78C3EBC30301EB030856
:103F8000414573D00B7833B103F1150201239340FF
:103F9000049A134066D0059B11F806EC0E2707FB28
:103FA0000E37B7F90020B7F9023064209B1A11F9D7
:103FB000022C9BB25A4392FBF0F211F805AC4FEA87
:103FC000530911F8034CC9EB02024FEA4A0616A83E
:103FD00092B211F801CC064414B936F81C0C0CE06E
:103FE000B5F9000036F91C6CB04208DA044484428A
:103FF00003DBA6423046A8BF2046288008E007DD44
:10400000041BB44203DB8442A8BF044626462E802C
:10401000D7F80A40012000FA0AF02042B5F9006002
:1040200011F9040C12B200FB06F04FF0640690FB8D
:10403000F6F014BF4FF0FF34012490420ADB4FFA30
:104040008CF25A4392FBF6F2C9EB020212B28242A0
:10405000A8BF02464A4B33F81E9002FB049423F893
:104060001E4000E02B800235073189E7484B4A4E5D
:104070001F6800250E2303FB057393F9064036F9EC
:10408000023FE8B26343642493FBF4F434800FF0FE
:10409000F3FC01352044082D3080EBD1354F384DED
:1040A0003B683B4E13F0200F33D000200FF0E4FCB0
:1040B0002880044601200FF0DFFC324B68801B682B
:1040C000190626D5354B2C4AD3F860321B78012BC4
:1040D00023D13168B2F9003091F914E04FF0320C7D
:1040E00003FB0EF393FBFCF31FFA83FE91F90630FA
:1040F000B2F902205B4253436FF0310193FBF1F1BF
:1041000093FBFCF30EEB0102A118734429801844C1
:104110006880D6F800E0002319E0D6F800E0B2F994
:1041200002309EF906105943322391FBF3F12144EA
:1041300029809EF91440B2F9001001FB04F292FBB1
:10414000F3F21044E4E70133082B2A5328D00E2160
:1041500001FB03E135F91300B1F900205C00904246
:10416000B1F90210EFDB0AB28242A8BF0246EAE7C9
:10417000B42D0020BC1D0020582D0020B02E0020A2
:10418000E807002030230020A72F0020560600203B
:104190005C200020A02F0020E6070020180400204B
:1041A000A64CD4F870A19AF90C30A3B994F83C82CB
:1041B00008F1FF33182B74D8DFE803F0377373511D
:1041C0007373734A73737373735B73737373735122
:1041D0006773735B3700DFF884924FF0000839F99A
:1041E000020F13F03DFB964B242101FB083108F030
:1041F0006BF914F041FC32680E2303FB082280B2F5
:10420000A9F80000B2F9003000B29842B2F90220D9
:1042100003DB13B28342A8BF034608F10108B8F1DB
:10422000080FA9F80030DAD1C0E79AF8063013B1C8
:104230000020698908E09BF8003003F0040303F0D4
:10424000FF00002BF4D1014607F004F8012629E015
:104250000020E98806F0FEFF0120298905E0002002
:10426000298906F0F7FF6989012006F0F3FF02268D
:1042700018E00226B01E35F81610C0B2013606F05E
:10428000E9FF082EF6D106260CE00326F01E35F8CD
:104290001610C0B2013606F0DDFF072EF6D1042657
:1042A00000E000263B689A0602D4B8F1050F0AD157
:1042B0003046298806F0CEFF701CC0B2698806F02F
:1042C000C9FF0236F6B23B68DB0205D494F88433AA
:1042D0007BB10FF016FB0CE0DFF88481002570192C
:1042E000C0B238F8021F06F0B5FF0D2DEED0013533
:1042F000F5E7544B1878002840F0C7813B681D0350
:1043000040F1C381504D2B78033B052B1FD84F4BF9
:1043100093F8543733B1012B09D10DF003FFC0F1ED
:104320007F0004E0D4F8880303689B689847D4F8BA
:104330008C3394F890231344B3F5807FA8BF4FF4D7
:1043400080738342D4BFC4F88C33C4F88C032B78B9
:10435000023B092B00F28981DFE813F00A00150007
:104360004C0084009A00B300C50040015D01680163
:104370000023C4F88C33C4F89433354B1B68C4F85D
:104380009833032370E1324B1A68D4F898336433BE
:104390009A4240F26A81402005F08AFD002840F0F0
:1043A00064814FF040082B4BD4F89423234F985C42
:1043B0001E4680B108F0F4FFD7F88C33B8F101083D
:1043C00003F1FF33C7F88C33D7F8943303F10103BB
:1043D000C7F89433E7D1D4F89423184BB25C002A81
:1043E00040F04381C3F894234FF0FF32C3F8982381
:1043F000042339E126230093174B492003F10C02D3
:10440000019302925021A3F10A02023309F0B8FB92
:10441000002840F02A813B684FF0FF3213F0800300
:104420000FBFC4F89433C4F89403C4F89823052349
:1044300004BFC4F89823072316E100BF1804002026
:104440007C0600208C33002044080020E415002066
:10445000FC220020049C01086E9C0108E607002055
:10446000281500208B4A022300210093019102911C
:10447000482002F1080309F083FB002840F0F58092
:104480004FF0FF33C4F89833C4F894030623EBE0ED
:10449000814B072603F10C02019302920096A3F1CF
:1044A000080247200021043309F06AFB002840F08D
:1044B000DC804FF0FF33C4F89403C4F898332E70B7
:1044C000D3E0764A05230021009301910291532005
:1044D00002F1080309F054FB002840F0C680C4F83C
:1044E00094030823C0E0402005F0E2FC002840F0DF
:1044F000BC80D4F894330D2B00F2BD80DFE803F0CC
:10450000070B0E1219202C31363B404E595D644882
:1045100013F032FF5CE0634863491AE06348644982
:10452000644A53E0644B654893F8521793F8532755
:104530004CE0634B634893E8060008331B6835E0A2
:104540005D4B0C2193F82C275F4801FB023393F855
:104550002E1713F011FF3BE0574B5C48B3F84411A2
:10456000F7E7554B5A48B3F84611F2E7594B5A480A
:10457000D3F89C10EDE7574B5848B3F8B210E8E772
:10458000D4F89C33D80404D54B4B554893F882118A
:10459000DFE7544B0C22C3F8942319E0464B5248F2
:1045A00093F8861193F8872193F8853113F0E4FE90
:1045B0000EE04E48B4F8A013CBE73B68190507D5C9
:1045C0003D4B4B48B3F88A11B3F9882113F0D4FE60
:1045D000D4F894330133C4F8943346E0454B1B6858
:1045E0009A0115D5B4F8A4333E4E8BB9D6F8A8334A
:1045F0000E200F93404B0FA91B68109308F0BAFFD1
:104600004FF48053A6F8A2330A232B7009F00AF85E
:1046100008F092FF29E094F8AC33002BF6D0354B2C
:104620001B689B01F2D409232B70F1E7334B1A6806
:10463000D4F89833C8339A4204D91F4B93F854677F
:104640008EB904E005F07AFC0028F6D10DE0D4F82C
:10465000880305F051FF94F8AD33C4F88863022B4A
:1046600001D107F030FB01232B7005F051FC60B144
:1046700001232B7009E005F061FC0028F5D04FF410
:104680008053A4F8A2330A23EEE7002017B0BDE858
:10469000F08F00BF2C9E0108449E0108909E0108E7
:1046A000E8BF010802C0010824C2010817C00108C0
:1046B0002BC0010837C00108E415002040C00108E4
:1046C000E8F7FF1F51C0010865C001086FC001086D
:1046D0007EC00108E81300208DC001089DC00108BC
:1046E000A7C0010818040020B4C00108CDC001080B
:1046F000D8C0010830230020F0300020FC22002028
:104700002DE9F04FA04BAFB01C780193002C00F0C6
:10471000E4809E4B1868002801F0C58706F0B0F8C9
:104720009B4C206806F0F4FA002801F0BC87206852
:1047300006F0EBFA0928974C01D03F2852D1002708
:10474000B8462568944E2DB1944831682A4615F034
:1047500017F920B93746B8F1000F00D1B046904B99
:1047600010369E42EFD34646B8F1000F1DD0D8F860
:1047700000C0D7F8009023681CF803E019F8030084
:10478000704512D15A1C854958B92D2B09D8DFF82C
:1047900004E2CEF800204FF0200E01F803E0885428
:1047A00003E001F803E02260E5E723680BB1B845B8
:1047B0000FD07C480FF0F8FBBE4207D856F8100B1C
:1047C0000FF0F2FB09200FF077FAF5E706F064F836
:1047D000002523689D42A3D2704B585D0FF06CFA00
:1047E0000135F6E72368002B41F0CE86042841F01E
:1047F00033876A480AF0CEF901F055BF3068DFF818
:10480000C4A106F085FA002850D0DAF8000006F0BE
:104810007CFADBF80030024693F84810002978D182
:10482000242840F0D780012283F84820DBF80030AC
:1048300093F84820062AE1D193F84900522800F065
:10484000BC8700F2B681362800F01C8700F2608138
:10485000242800F0808600F21481032800F0DF8213
:1048600040F2EF80052840F001811A200BF044FE51
:1048700000264D4B985D01360BF0F5FD0B2EF8D15F
:1048800000264A4B985D01360BF0EDFD082EF8D15D
:104890000026474B985D01360BF0E5FD072EF8D159
:1048A0000BF0F2FD2B68002283F84820414B18687A
:1048B00005F0E6FF404B93F87D3053B158F8040003
:1048C00006F015FA0FF070F808F008FA3B4A3C4B76
:1048D000DA604C34982C01F0E686DFF8F48054F866
:1048E000083004EB0802002BF3D0364E07933360F8
:1048F0000023354D354F8DF82130DFF8B890142363
:104900008DF8203006AB2A600697C9F80030AB4618
:1049100074E7012904D14D2814BF0022022283E745
:10492000022904D13C2814BF002203227CE703297A
:104930000CD140284FF0000102D983F8481075E7E8
:1049400058711971D971987104226DE7042906D143
:10495000997983F849004A409A71052264E705294C
:104960007FF464AF587919798842987906D9504014
:104970009871481C18710B441A7257E790420CBF8B
:104980000622002250E700BF8C3300206430002054
:10499000483000205420002064B701082420002063
:1049A00024B90108F5C101082BC0010837C001086E
:1049B00024C2010858230020C80700200400FA057B
:1049C00000ED00E05C2300205423002009A2000831
:1049D0004C150020CF490B7803F0040303F0FF0EC1
:1049E000002B7FF423AF232ADAF800001CD10292B7
:1049F000019A01231370C84B03911860C74B1860CC
:104A0000986010201873C6485F6083F80DE0043387
:104A10000360C4480FF0C8FA05F03EFF0399029AFC
:104A20000B7843F002030B70BF4B1B681B7893425B
:104A300001BFBE4ABE4B1A60BE4A04BFBE4BDA601D
:104A4000F4E6012800F0DF81022840F027870420E7
:104A50000BF052FD43200BF006FD4C200BF003FD44
:104A600046200BF000FD4C2000F0FDBEC0F0E281BE
:104A7000222840F0138750200BF03EFD002700F065
:104A800007BC2A2800F08F8519D8262800F06985F0
:104A9000282840F00387A94E07200BF02DFDB6F81B
:104AA00088010BF02CFDB6F88A010BF028FD96F872
:104AB0008C010BF0D8FCB6F88E0100F096BE3228BF
:104AC00000F0A985342800F002842C2840F0E68606
:104AD0009A4E0C200BF010FD96F898010BF0C3FCD9
:104AE000B6F8A4010BF00BFDB6F8A0010BF007FD22
:104AF000B6F8A2010BF003FD96F89A010BF0B3FC97
:104B0000B6F8A6010BF0FBFCB6F8A80100F06DBEEC
:104B1000452800F0578624D83B2800F0B2830BD8F4
:104B2000382800F02D853A2840F0B88604200BF094
:104B3000E3FC834B00F00DBD402800F07385422854
:104B400000F07F853D2840F0A9867C4E02200BF0C6
:104B5000D3FC96F8EC010BF086FC96F8EB0100F024
:104B600082BE4B2800F025850ED8472800F0B88576
:104B7000C0F0A285492840F0918602200BF0BCFCD1
:104B80006E4B988900F031BE4F2800F009865028FE
:104B900000F0CB854D2840F081866A4E6A4F307810
:104BA0004FF0000900EB4000C0B20BF0A5FC00F094
:104BB0001BBD732800F0188400F298806A2800F06A
:104BC0002F843DD8662800F086812FD8642800F015
:104BD0004481652840F062860B200BF08DFC5B4B16
:104BE00018880BF08CFC5A4B188880B20BF087FCAD
:104BF000584B1B68C3F3C000C3F38002800040EA37
:104C00004200C3F340021043C3F3401240EAC20023
:104C100003F0100318430BF072FC0BF04DFB0BF08C
:104C200077FC464B93F82C0700F01DBE682800F077
:104C3000EA8100F2F58110200BF05EFC002675E1A0
:104C40006E2800F010820FD86C2800F0FC8140F232
:104C5000068406200BF050FC3F4B18680BF058FC04
:104C60003E4B188800F0C1BD702800F07E82C0F075
:104C70004F82722840F01286304E16200BF03CFC1A
:104C8000B6F8A0010BF03BFCB6F844010BF037FC82
:104C9000B6F846010BF033FCB6F848010BF02FFCD8
:104CA000B6F8E2010BF02BFC96F801020BF0DBFBEF
:104CB00000200BF0D8FB96F802020BF0D4FB96F81C
:104CC0008D010BF0D0FB96F89B010BF0CCFB002084
:104CD0000BF0C9FB224B0A201B68B3F9623093FB2F
:104CE000F0F080B20BF00BFC00F04EBC7D2800F021
:104CF000808555D8762800F0C38335D8742800F015
:104D00000C83752840F0CA852F200BF0F5FB154E5B
:104D1000AFE200BF8D33002048300020C8070020DC
:104D20006430002025C20108741D0020EFBEADDEF6
:104D3000F04F00200400FA0500ED00E0E41500202B
:104D400018310020401D00208E17002088330020DD
:104D50009830002094300020CC0B0020040B002061
:104D600058200020B79E0108782800F0E780C0F0A6
:104D700019837C2840F09285D14E08200BF0BCFBB3
:104D8000B6F84C010BF0BBFBB6F84E010BF0B7FBCD
:104D9000B6F850010BF0B3FBB6F8520100F025BD98
:104DA000A42800F0958317D8962866D0A02800F094
:104DB000C4837E2840F07285C14E03200BF09CFB1B
:104DC00096F858010BF04FFB96F859010BF04BFB8E
:104DD00096F85A0100F047BDF12800F0EE80FE2859
:104DE00000F09D83F02840F05985B64E04200BF06A
:104DF00083FB3368B3F866000BF081FB3368B3F8CC
:104E0000640000F0F2BC03200BF076FB00200BF0F6
:104E10002AFB01200BF027FB102000F024BD0BF033
:104E20006BFB01200BF01FFB0C200BF01CFB022086
:104E300000F019BD06200BF05FFB41200BF013FBC7
:104E400046200BF010FB4E200BF00DFB41200BF029
:104E50000AFB9D4B187800F0C8BC07200BF04CFBF8
:104E6000E7200BF000FB964B58790BF0FCFA002082
:104E70000BF0F9FA042000F0B4BC0D200BF03CFB61
:104E8000924B18880BF03BFB914B188880B20BF0CB
:104E900036FB904B1B68C3F3C000C3F38002800055
:104EA00040EA4200C3F340021043C3F3401240EA19
:104EB000C20003F0100318430BF021FB0BF0FCF9C8
:104EC0000BF026FB7E4B93F82C070BF0CCFA824BB1
:104ED000187900F08ABC12200BF00EFB7F4B0026E5
:104EE000B3F8B230B3F5806F8CBF082701277C4B35
:104EF00033F91600013690FBF7F080B20BF0FFFAA1
:104F0000032EF4D1774E30880BF0F9FAB0880BF00D
:104F1000F6FA3089744E0BF0F2FA30880BF0EFFAA3
:104F2000B0880BF0ECFA308900F05FBC6F4B985DF5
:104F300001360BF098FA102EF8D1B1E470200BF086
:104F4000DBFA4FF000090E2606FB09F65D4F09F16A
:104F500001093B683344B3F825010BF0D0FA3B68F4
:104F60003344B3F827010BF0CAFA3B683344B3F873
:104F700029010BF0C4FA3B68334493F82B010BF082
:104F800072FA3B68334493F82C010BF06CFA3B68DF
:104F9000334493F82D010BF066FA3B68334493F8E1
:104FA0002E010BF060FA3B681E44D6F82F010BF07F
:104FB000AFFAB9F1080FC6D172E470200BF09CFA79
:104FC0003F4E06F1700796F8D4000BF04CFA96F8B5
:104FD000D5000BF048FA96F8D6000BF044FA96F894
:104FE000D7000BF040FA96F8D8000BF03CFA96F890
:104FF000D9000BF038FA073696F8D3000BF033FAE5
:10500000BE42E0D14CE410200BF076FA0026384B7B
:1050100033F8160001360BF072FA082EF7D13FE490
:10502000344F00263878400000F0FE000BF064FAA0
:105030003B789E42BFF434AC2F4B33F816000BF094
:105040005EFA0136F4E72D4E06200BF055FA308853
:105050000BF055FA70880BF052FAB6F904300A20BA
:1050600093FBF0F027E04FF6FF7607200BF044FAB1
:10507000234B1888FF28A8BFFF20C0B20BF0F3F91C
:10508000204B1868B042A8BF304620EAE07080B2DA
:105090000BF035FA1C4B18880BF031FA084B93F8DB
:1050A0008D211A4B186842B10A235843B042A8BF59
:1050B000304620EAE07080B297E300F30F00FAE791
:1050C000E4150020582000208A3300208833002077
:1050D000983000209430002088300020E813002011
:1050E000FE0A0020602D002064310020E807002027
:1050F000B02E0020401D002022150020582D002039
:10510000EC220020A8220020D00B0020100B002051
:10511000BB4E0B200BF0F0F93368374618780BF0D4
:10512000A2F933684FF0000958780BF09CF93B68FE
:10513000B34E4B44187909F101090BF094F9B9F118
:10514000030FF4D13368D8790BF08DF93368987870
:105150000BF089F93368D8780BF085F933685889F2
:105160000BF0CDF93368187A7DE3A64E1E200BF0C4
:10517000C3F9336800271B78022B66D1336807F127
:10518000080253F82200A04912F0BEFB13F074FC91
:1051900080F30800C0B20BF066F933689B4903EB5B
:1051A0008703D86A12F0B0FB13F066FC80F30800A6
:1051B000C0B20BF058F9336807F10E0253F8220021
:1051C000934912F0A1FB13F057FC80F30800C0B222
:1051D00001370BF048F9032FD0D1072F336821D1C5
:1051E000586C894912F090FB13F046FC80F30800DC
:1051F000C0B20BF038F933688349986C12F084FB25
:1052000013F03AFC80F30800C0B20BF02CF93368BD
:1052100093F84C0012F020FB13F02EFC80F30800F2
:10522000C0B20BE03B4458780BF01DF933683B44A7
:10523000D87A0BF018F933683B44587D01370BF0EE
:1052400012F90A2FC9D1FFF72BBB33683B445878BA
:105250000BF009F933683B44D87A0BF004F9336852
:105260003B44587D01370BF0FEF80A2FEDD1FFF7D4
:1052700017BB16F8010F00283FF412AB0BF0F3F840
:10528000F7E701200BF038F95E4B1B681878EAE26B
:105290005C4B0C211E685F4B06EB870696F8852059
:1052A000013701FB023393F838000BF0DCF896F875
:1052B00086000BF0D8F896F887000BF0D4F896F833
:1052C00088000BF0D0F8142FE2D1FFF7E9BA48209C
:1052D0000BF012F900274B4B1E68062303FB0766F1
:1052E00096F8DA000BF0BFF896F8D5000BF0BBF893
:1052F00096F8D6000BF0B7F896F8D7000BF0B3F895
:1053000096F8D8000BF0AFF8013796F8D9000BF0FB
:10531000AAF80C2FDFD1FFF7C3BA00264FF0010A1D
:105320004FF0000B3C4B1B789B4531DA3B4B4FF069
:1053300000091BF803200C2303FB09F3354F07F189
:105340003001595C914209D13B44586B14F00FFB7A
:105350000146BAF1000F07D1534607E009F10109F0
:10536000B9F11D0FE7D110E006440EE08B420CDAD4
:105370000C2202FB0972526B0391D05C02930BF07A
:1053800072F8029B03990133F0E70BF1010BC9E7B7
:10539000BAF1000F3FF484AAF0B20BF0ADF84FF071
:1053A000000ABDE71C4F002638780BF0A5F83B78C3
:1053B0009E42BFF475AA194B002116F803E00C2297
:1053C00002FB01F3134800F1300C13F80C20724576
:1053D00005D1034493F838000BF045F802E00131A1
:1053E0001D29ECD10136E2E708200BF085F80126F3
:1053F000F0B201360BF037F8092EF9D1FFF750BAA9
:105400006C30002058200020000020410000C842DD
:1054100000007A44B89E0108342300203523002080
:1054200010200BF069F8CA4BCA4E187800F0020041
:105430000BF019F8C84B18780BF015F830680BF022
:1054400067F870680BF064F8C44B18880BF057F8D5
:10545000C34B18880BF053F8C24B188EC5E10520DA
:105460000BF04AF8C04B18880BF049F8BF4B18886E
:105470000BF045F8BB4B93F8320000F00100F2E16D
:105480000AF0D2FF814612200BF036F8B9F1000F76
:1054900001D1B74B03E0B9F1100F03D1B54B1F6831
:1054A0005E6801E00026374648460AF0DCFF3846D1
:1054B0000BF02EF830460BF02BF8AF4B18680BF0C2
:1054C00027F800200BF01BF800200BF018F877E10C
:1054D000A44F002697F83300B94680000130C0B2CF
:1054E0000BF00AF897F833000AF0BDFF99F8333053
:1054F0009E42BFF4D5A9A14FB85D0AF0B4FF07F1F1
:105500001003985D0AF0AFFF07F12003985D303774
:105510000AF0A9FFB85D0AF0A6FF0136E6E7082009
:105520000AF0EAFF0026964B33F8160001360AF01F
:10553000E6FF042EF7D1FFF7B3B90C200AF0DCFF29
:10554000904B18680AF0E4FF8F4B18680AF0E0FFF0
:105550008E4B186845E104200AF0CEFF8C4B98680A
:105560003FE18B4E06200AF0C7FFB6F85C010AF057
:10557000C6FFB6F85E010AF0C2FFB6F8600134E17A
:1055800004200AF0B9FF824E96F882010AF06BFF00
:1055900096F886010AF067FF96F885010AF063FF26
:1055A00096F887015FE101200AF0A6FF784B587951
:1055B00059E1774E08200AF09FFF96F8E0010AF0C3
:1055C00052FF96F8E1010AF04EFFB6F8E2010AF048
:1055D00096FF96F8E4010AF046FFB6F8E6010AF0F5
:1055E0008EFF96F8E8013EE1337802379945BFF423
:1055F00057A917F8020C0AF036FF17F8010C09F149
:10560000010900EB800000EB800000F2EE2080B288
:105610000AF075FFE8E701200AF06EFF5C4B93F893
:105620009B0120E108200AF067FF0026584B334415
:1056300093F8900101360AF016FF082EF6D1FFF715
:105640002FB9534E10200AF057FF70790AF00BFF64
:10565000B0680AF05DFF96F898010AF004FFB6F80A
:105660005C010AF04CFFB6F85E010AF048FFB6F89C
:1056700060010AF044FFB6F888010AF040FFB6F86E
:105680008A01B2E0434B424E187806F12807C0EB7E
:10569000C000C0B20AF030FF96F8080200233E4A6C
:1056A000D25C904200F0E3800C333C2BF7D10836FB
:1056B000BE42F1D1FFF7F4B80D200AF01DFF06F04D
:1056C00045F8364E40F00200C0B20AF0CCFE3088F9
:1056D0000AF01EFFF0680AF01BFF0CF02BFC80E0C4
:1056E0000AF0B8FE074684200AF006FF38460AF0A2
:1056F0000FFF2A4B0DF13809DE6807F18003B34232
:105700008CBFF61B80260CF0CFFC3846324649464B
:1057100006F050F807460026BE42BFF6C1A819F8A9
:1057200006000AF0A0FE0136F6E7194E04200AF042
:10573000E3FE01200AF097FE96F854070AF093FE64
:1057400096F852070AF08FFE96F853078BE000BFD9
:10575000802D00201C0B0020180B0020160B0020B1
:10576000140B0020C80700208C0B00208E0B00209B
:10577000D40B0020640A002048310020FC070020E0
:105780003C080020E8F7FF1FECF7FF1FF0F7FF1FB2
:10579000E4150020C00C00207C1D00201800002013
:1057A0000B200AF0A9FE00200AF05DFE00200AF09E
:1057B0005AFE00200AF057FE0FE001200AF09CFE7E
:1057C000002050E013200AF097FE0026C74B985D9A
:1057D00001360AF048FE0B2EF8D100200AF098FEA0
:1057E00000200AF095FEFFF75BB80AF088FEFFF78D
:1057F00057B8BF4E03200AF07FFE336893F81D01AF
:105800000AF031FE336893F81E010AF02CFE33686B
:1058100093F81F0127E040F29984F22800F03C85BC
:1058200040F25D85F32840F0A4860AF0FDFDFF28D4
:10583000B04F40F0C585002607F180003146602258
:1058400087F87E6014F039F88DF817609DF81730EE
:1058500097F8E220A74E9A4200F2628501200AF0F2
:105860004BFE96F87E000AF0FEFDFFF719B80AF02D
:10587000FAFDB6F80A020AF042FE96F80C020AF0A7
:10588000F2FD96F80D020AF0EEFD96F80F020AF00E
:10589000EAFD96F80E020AF0E6FD08E7C8283CD1BA
:1058A0005E797608122E02D906F09CFB30E00027C4
:1058B000B74206D20AF0C4FD0EAB23F81700013739
:1058C000F6E732460023B34207DA0EA931F8130097
:1058D000894921F813000133F5E7122A05D0864BD8
:1058E000002123F812100132F7E7844B01221A70CD
:1058F0000EE0D12800F07683D22840F04186804B1C
:105900001B7803F0040303F0FF06002B00F0A483D0
:1059100000200AF0F1FDFEF7C3BF00F2EE81392846
:1059200011D10AF081FD774E86F882010AF07CFDE4
:1059300086F886010AF078FD86F885010AF074FD84
:1059400086F88701E4E700F21B812B2804D10AF0D6
:105950006BFD6C4B5871DBE76FD8252808D1694E79
:105960000023B3600AF076FDB3681843B060CFE758
:105970003ED8232840F004860AF056FD1328064638
:1059800092D85B4FD7F800900AF04EFD00210C2210
:1059900002FB01F3DFF880E10EEB030292F83820FE
:1059A000824221D1734493F8303009EB860686F8A1
:1059B00085300AF039FD86F886000AF035FD86F854
:1059C00087000AF031FD504A504B86F888001A6073
:1059D00038684F4B00211860853004F011FF4D4BA3
:1059E00080F00100187093E701311D29CFD15BE7EA
:1059F00027280DD10AF024FD424EA6F85C010AF0DA
:105A00001FFDA6F85E010AF01BFDA6F860017FE706
:105A1000292840F0B5850AF013FD3A4EA6F8880112
:105A20000AF00EFDA6F88A010AF0FEFC86F88C0149
:105A30000AF006FDA6F88E016AE7332805D10AF0C0
:105A4000F3FC304B83F89B0162E725D82D2840F00A
:105A500097850AF0E9FC2B4E86F898010AF0F0FCD5
:105A6000A6F8A4010AF0ECFCA6F8A0010AF0E8FCF4
:105A7000A6F8A2010AF0D8FC2B6886F89A015B7997
:105A8000082B7FF645AF0AF0DBFCA6F8A6010AF06A
:105A9000D7FCA6F8A8013BE735283FD10AF0C4FCA3
:105AA0000B2807463FF600AF114B1E680AF0BCFCFE
:105AB00003283FF6F9AE062303FB076686F8DA00F3
:105AC0000AF0B2FC86F8D5000AF0AEFC86F8D600E3
:105AD0000AF0AAFC86F8D7000AF0A6FC86F8D800DF
