:020000040800F2
:100000000050002055030108F1030108CDED000860
:10001000F1030108F1030108F103010800000000E9
:10002000000000000000000000000000F1030108D3
:10003000F103010800000000F10301083385000806
:10004000F1030108F1030108F1030108F1030108BC
:10005000F1030108F103010819CB000817CB0008D0
:10006000F1030108F1030108F1030108F10301089C
:10007000C5D60008B5D60008C9690008F103010813
:10008000A5D6000895D60008F1030108F103010880
:10009000F1030108F1030108F103010815CB000881
:1000A000F1030108C99B0008F1030108D99B00086E
:1000B000B99B0008A99B0008999B0008D975000806
:1000C000DB750008D5750008D7750008F103010835
:1000D000F1030108C1690008B9690008B1690008A5
:1000E00099860008F1030108F103010800000000EF
:1000F0000000000000000000000000000000000000
:0C01000000000000000000005FF808F1A3
:10011000838F828D2DE9F0479A4288BF0387038F32
:10012000A0B0838724238DF800304D238DF8013053
:100130003E2300F124078DF802300B7804460D466B
:1001400000263846694605228DF803608DF8043094
:100150000BF03AFC30B19DF80430A4F84A6084F802
:10016000483008E0A38F2387A38DA387DC4B1A7840
:100170000AB904221A702E784F2E00F0F58500F28D
:10018000B180342E00F0F78343D8222E00F0D083C4
:1001900013D8032E00F0B28107D8012E00F0888119
:1001A000022E40F0B386002590E1042E00F0B481C9
:1001B000052E40F0AB860025BEE1282E00F0C1845C
:1001C00017D8242E00F0B784262E40F09F86C54D08
:1001D0002046B5F85C1109F049F8B5F85E112046E3
:1001E00009F044F82046B5F8601109F03FF800F036
:1001F00039BE2C2E00F0D084322E00F02C852A2E11
:1002000040F08486B74B2046597909F059F800F040
:1002100029BE422E00F0328531D83A2E00F0778286
:100220001CD8362E00F05285382E40F06F86AD4D2A
:10023000204695F8821109F043F895F8861120467A
:1002400009F03EF895F88511204609F039F8204666
:1002500095F8871109F034F800F004BE3D2E00F047
:100260008F82402E00F0FE843B2E40F04F869E4B46
:1002700020461B6C197809F023F800F0F3BD472ED7
:1002800000F03E851ED8452E00F08385462E40F0B6
:100290003D860CF0DFFD954D40F00201C9B22046CD
:1002A00009F00EF82988204608F0B0FFE9682046DA
:1002B00008F0ACFF09F036FC0146204608F0A6FF26
:1002C00000F0D0BD4B2E00F08C844D2E00F0ED8060
:1002D000492E40F01B86834B2046998908F0C6FFC3
:1002E00000F0C0BD722E00F0AE8370D8682E00F012
:1002F000E98142D8642E00F03B810BD8502E00F0EB
:100300002285522E40F002862046002108F0D8FFB8
:1003100000F0A8BD662E00F03E8100F26D81744BA6
:10032000714D1988204608F0A1FF2988204689B21E
:1003300008F09CFF6B682046C3F3C001C3F3800242
:10034000890041EA4201C3F340021143C3F3401262
:1003500041EAC20103F01003194308F087FF0BF0D4
:10036000E5FE0146204608F051FF5E4B204693F81B
:10037000E41608F0A5FF00F075BD6D2E00F0BC81FD
:100380001BD8692E00F0A9816C2E40F0BF85564D18
:100390002046B5F85E1008F069FFB5F860102046F9
:1003A00008F064FFB5F962300A2193FBF1F12046B1
:1003B00089B208F05BFF00F055BD6F2E00F0EC81B4
:1003C000C0F0AB81702E00F02F8200F09FBD7D2E1B
:1003D00000F0078516D8752E00F0A48207D8732E7A
:1003E00000F08583742E40F09185002503E3782E7C
:1003F00000F009817C2E00F0DE84772E40F08685A7
:10040000002516E3A02E00F0868337D87E2E00F05C
:10041000FA84962E40F07A85354B334D1988204664
:1004200008F024FF2988204689B208F01FFF6B6876
:100430002046C3F3C001C3F38002890041EA4201B0
:10044000C3F340021143C3F3401241EAC20103F077
:100450001003194308F00AFF0BF068FE014620461E
:1004600008F0D4FE1F4B204693F8E41608F028FF4E
:100470002046297B08F0FAFE00F0F4BCF12E00F0D3
:10048000F780FE2E00F03C83F02E40F03F85164BA7
:1004900020461D6CB5F8661008F0E8FE2046B5F859
:1004A000641008F0E3FE00F0DDBC124D0026B8E356
:1004B0002046002108F004FF3146204608F000FFE6
:1004C0002046102108F0FCFE00F0CCBC0A4B204670
:1004D000595D013508F0F4FE042DF7D100F0C2BCDF
:1004E000941F00203C170020280500200000002059
:1004F000901F0020E6180020925501082046012197
:1005000008F0DEFE20460C2108F0DAFE204602212B
:1005100008F0D6FE00F0A6BC0025B44B2046595D7D
:10052000013508F0CDFE042DF7D1B14B20461978E6
:1005300008F09CFE00F096BCAE4B2046595D01359C
:1005400008F0BEFE0B2DF7D10025AB4B2046595DC0
:10055000013508F0B5FE082DF7D10025A74B204640
:10056000595D013508F0ACFE072DF7D100F07ABCDB
:100570002046E72108F0A4FEA14B2046597908F057
:100580009FFE2046002108F09BFE2046042108F033
:100590003DFE00F067BC9B4B0025B3F8AA30B3F5D5
:1005A000806F8CBF08260126974B204633F9151023
:1005B000013591FBF6F189B208F058FE032DF3D115
:1005C0000025924B53F825000FF0C8FB013581B28E
:1005D000204608F04BFE032DF3D100258C4B53F839
:1005E00025000FF0BBFB013581B2204608F03EFE2E
:1005F000032DF3D100F036BC20468649102208F0C6
:10060000D9FD00F02FBC4FF00008834B20461D6C35
:100610000E2303FB0855B5F8251108F027FEB5F8A1
:100620002711204608F022FEB5F82911204608F0CF
:100630001DFE95F82B11204608F042FE95F82C116E
:10064000204608F03DFE95F82D11204608F038FEB2
:1006500095F82E11204608F033FE08F101082046D7
:10066000D5F82F1108F0D2FDB8F1080FCDD1F9E37C
:10067000634D05F1700695F8D410204608F020FE71
:1006800095F8D510204608F01BFE95F8D6102046A8
:1006900008F016FE95F8D710204608F011FE95F8E0
:1006A000D810204608F00CFE95F8D910204608F026
:1006B00007FE073595F8D310204608F001FEB54235
:1006C000D9D1CFE30025554B204633F8151001351D
:1006D00008F0CCFD082DF6D1C4E300254E4B93F86D
:1006E0005C309D4280F0BE834D4B204633F81510A0
:1006F00008F0BCFD0135F1E7474D2046696E08F072
:1007000085FD2046B5F8681008F0B0FDAAE3424B1D
:100710002046D96E08F07AFDA4E34FF6FF76414BF0
:100720003D4D19882046FF29A8BFFF21C9B208F016
:10073000C7FD296F2046B142A8BF314621EAE171C9
:1007400089B208F093FDB5F87410204608F08EFDCC
:100750002B4BA96F93F88D315BB10A235943B142FA
:10076000A8BF314621EAE171204689B208F07EFD3A
:1007700078E301F30F01204689B208F077FD71E3B9
:100780001F4D204695F8EC1108F09AFD204695F88B
:10079000EB1108F095FD65E31F4B2046DD6F2978CE
:1007A00008F08EFD2046697808F08AFDEE1C05F100
:1007B000060816F8011F204608F082FD4645F8D1CC
:1007C000E979204608F07CFDA978204608F078FDFC
:1007D000E978204608F074FD6989204608F046FD56
:1007E0002046297A08F06CFD3CE300BF97550108CC
:1007F000931F00209C550108A8550108B155010818
:100800003C170020EC0A002038050020400500209D
:100810004C05002058050020280500206C0500200C
:10082000A41E0020981E0020D14B1D6C98462A78EB
:10083000022A65D105F11C06283556F8040FCD496A
:100840000FF0A0F812F000F880F30801C9B22046BA
:1008500008F036FDC849F0680FF094F811F0F4FF85
:1008600080F30801C9B2204608F02AFDC349B069E7
:100870000FF088F811F0E8FF80F30801C9B22046B4
:1008800008F01EFDAE42D8D10325072DD8F84060F0
:1008900022D1B849706C0FF075F811F0D5FF80F3D4
:1008A0000801C9B2204608F00BFDB249B06C0FF048
:1008B00069F811F0C9FF80F30801C9B2204608F0B9
:1008C000FFFC96F84C000FF005F811F0BDFF80F327
:1008D0000801C9B220460DE02E447178204608F088
:1008E000EFFCD8F8403020462B44D97A08F0E8FCD9
:1008F0002046717D013508F0E3FC0A2DC5D1B1E237
:1009000005F10A0615F8011F204608F0D9FCA97A5E
:10091000204608F0D5FC2046297D08F0D1FCB542E0
:10092000F0D19FE2204696492F2208F043FC99E23D
:1009300000268F4B0C211D6C914B05EB860595F81D
:100940008520204601FB023393F8381008F0B8FCEC
:1009500095F88610204608F0B3FC95F887102046DD
:1009600008F0AEFC0136204695F8881008F0A8FC87
:10097000142EDED176E200267D4B20461D6C062328
:1009800003FB065595F8DA1008F09AFC95F8D51097
:10099000204608F095FC95F8D610204608F090FC0B
:1009A00095F8D710204608F08BFC95F8D810204613
:1009B00008F086FC0136204695F8D91008F080FC36
:1009C0000C2ED9D14EE201311D2913D00C2202FB8D
:1009D00001F36B4800F1300E13F80E20B242F2D151
:1009E00003445E6B304612F054FF314682B220461B
:1009F00008F0E0FB01355E4B93F89C20954280F2B5
:100A000031828033EE5C0021E0E701311D290FD0F7
:100A10000C2202FB01F35A4800F1300E13F80E20AD
:100A2000B242F2D1034493F83810204608F048FC53
:100A300001354F4B93F89C20954280F01382803310
:100A4000EE5C0021E4E74F4D2046B5F8A01108F018
:100A50000DFCB5F84411204608F008FCB5F8461125
:100A6000204608F003FCB5F84811204608F0FEFBCC
:100A7000B5F8E211204608F0F9FB2046002108F005
:100A80001FFC2046002108F01BFC2046002108F036
:100A900017FC95F88D11204608F012FC95F89B1173
:100AA000204608F00DFC2046002108F009FC304BE0
:100AB0000A211B6C2046B3F9623093FBF1F189B235
:100AC00008F0D4FB95F88211204608F0F9FB95F860
:100AD0008611204608F0F4FB95F88511204608F0B1
:100AE000EFFB204695F8871108F0EAFBBAE10125F3
:100AF000E9B22046013508F0E3FB092DF8D1B1E158
:100B00000025214B204633F81510013508F0AEFBC7
:100B1000042DF6D1A6E11D4B2046196808F076FB9E
:100B20001B4B2046196808F071FB1A4B20461968C8
:100B300008F06CFB96E1134B2046996808F066FBC1
:100B400090E1104D2046B5F8881108F08FFBB5F8FC
:100B50008A11204608F08AFB95F88C11204608F08F
:100B6000AFFB2046B5F88E1108F080FB7AE100BF9C
:100B700028050020000020410000C84200007A44FF
:100B8000E03A01083C170020C6050020E8F7FF1FE7
:100B9000ECF7FF1FF0F7FF1FD64D204695F8981190
:100BA00008F08EFBB5F8A411204608F05FFBB5F8FD
:100BB000A011204608F05AFBB5F8A211204608F013
:100BC00055FB95F89A11204608F07AFBB5F8A61166
:100BD000204608F04BFB2046B5F8A81108F046FB6C
:100BE00040E1C44D204695F8E01108F069FB95F806
:100BF000E111204608F064FBB5F8E211204608F048
:100C000035FB95F8E411204608F05AFBB5F8E611DB
:100C1000204608F02BFB204695F8E81108F050FB21
:100C200020E1B54B023593F85C309E4280F01A818A
:100C300015F8021C204608F043FB15F8011C20465D
:100C400001EB810101EB810101F2EE2189B208F093
:100C50000DFB0136E5E7A74B204693F89B1108F002
:100C60002FFBFFE00025A34B20462B4493F8901167
:100C7000013508F025FB082DF5D1F3E09D4D204608
:100C8000697908F01DFBA968204608F0BFFA95F8BD
:100C90009811204608F014FBB5F85C11204608F0C6
:100CA000E5FAB5F85E11204608F0E0FAB5F86011F3
:100CB000204608F0DBFAB5F88811204608F0D6FA8D
:100CC0002046B5F88A1108F0D1FACBE0894D05F13C
:100CD0001806894A95F8041292F9A8004BB2984276
:100CE00000F0EA8092F9B400984200F0E58092F9B1
:100CF000C0209A4200F0E0800835B542E9D1B1E069
:100D0000284608F003FB06462046314608F07EFAE6
:100D10007A4BDD6806F18003AB428CBFAD1B8025AA
:100D200008F04EFE30462A4669460CF0C7F80646E3
:100D30000025B54280F296801DF80510204608F087
:100D4000BFFA0135F5E72046002108F0B9FA204640
:100D5000002108F0B5FA2046002108F0B1FA20463B
:100D6000002108F0ADFA7DE02046002108F0A8FA45
:100D70002046002108F0A4FA2046002108F0A0FA3D
:100D80002046002108F042FA2046002108F03EFAF1
:100D900068E000255A4B2046595D013508F090FA6D
:100DA0000B2DF7D12046002108F030FA2046002113
:100DB00008F02CFA56E04F4D2046B5F84C1108F0DB
:100DC00055FAB5F84E11204608F050FAB5F8501112
:100DD000204608F04BFA2046B5F8521108F046FAC2
:100DE00040E0454B20461D6C95F81D1108F068FA4F
:100DF00095F81E11204608F063FA204695F81F1159
:100E000008F05EFA2EE03B4D204695F8581108F0A8
:100E100057FA95F85911204608F052FA204695F8ED
:100E20005A1108F04DFA1DE0C0F04684D02E00F0B3
:100E30005184D22E40F09980324B1B7803F004038A
:100E400003F0FF0173B9AB6813F8012BAB60294BBA
:100E5000022A94BF83F8E42683F8E41604F096FA95
:100E600004F03AFBA38FA18D033393FBF1F201FB56
:100E70001233B4F84A10626B3846D15494F84810D3
:100E800094F84A30594084F848100AF0C9FDA38DFF
:100E900030B1A3876368986B0AF0E4FA00F09BBD59
:100EA000A28FA387184B22871A78002A40F09385D7
:100EB00004221A7000F08FBD204608F001FAB5F840
:100EC0000612204608F0D2F995F80812204608F0DC
:100ED000F7F995F80912204608F0F2F995F80B1287
:100EE000204608F0EDF9204695F80A1208F0E8F9D6
:100EF00002E700BF3C17002028050020000000206A
:100F00009C550108921F0020941F00204E2E5BD19B
:100F1000AB681A4612F8018BB8F1110FAA6024D8F9
:100F2000C64E5A7808F1D4080233AB6006EB48038A
:100F30009A70284608F0F9F940F2ED23984205DD51
:100F400040F6CA039842A8BF184601E040F2EE20DE
:100F5000A0F2EE20192390FBF3F006EB4806F070A8
:100F600080E701311D2940F0BE80A38FA28D0026AD
:100F70009A4288BF2387238F3846A38724238DF87E
:100F800000304D238DF8013021238DF802302B786D
:100F9000694605228DF803608DF804300AF014FDCF
:100FA00030B19DF80430A4F84A6084F8483059E71D
:100FB000A38F2387A38DA387A14B1A78002A7FF4E0
:100FC00051AF04221A704DE700F2FE81372E3CD15A
:100FD0006B780726B3FBF6F6C6EBC6029B1A13F036
:100FE000FF0FC2D1F6B2013EF6B2FF2E3FF43AAF88
:100FF000AB6813F8018B5FFA88F8AB604FFA88F0A2
:101000000CF088F981460028AFD080F8008028468F
:1010100008F08BF9AB68A9F8020013F8012BAB605C
:1010200089F80420AB6813F8012BAB6089F8052020
:10103000AB6813F8012BAB6089F80720AB6813F895
:10104000012BAB6089F80620CDE700F20581292E3F
:1010500016D1284608F069F9784EA6F88801284686
:1010600008F063F9AB68A6F88A0113F8012B28464B
:10107000AB6086F88C2108F058F9A6F88E01F1E6ED
:1010800063D8252E09D16D4E00232846B36008F0A1
:101090003DF9B3681843B060E4E6272E10D1284626
:1010A00008F043F9654EA6F85C01284608F03DF9C2
:1010B000A6F85E01284608F038F9A6F86001D1E6E6
:1010C000232E7FF452AFAB681A4612F8016B132E31
:1010D000AA603FF64AAF5B4A93F801809646023316
:1010E000106CAB6000210C2202FB01F3DFF864C13D
:1010F0000CEB030292F8382042457FF432AF634490
:1011000093F8303000EB860282F88530AB6813F834
:10111000011BAB6082F88610AB6813F8011BAB6053
:1011200082F88710AB6813F8011BAB60464B82F85E
:101130008810CEF8D030454B186085300CF05CFF3D
:10114000434B80F0010018748CE62D2E2AD1AB6839
:101150003A4E13F8012B2846AB6086F8982108F028
:10116000E4F8A6F8A401284608F0DFF8A6F8A001E4
:10117000284608F0DAF8AB68A6F8A20113F8012BAC
:10118000AB6086F89A216B78082B7FF66BAE284609
:1011900008F0CBF8A6F8A601284608F0C6F8A6F88D
:1011A000A8015FE609D82B2E7FF4DFAEAB6813F8F9
:1011B000012BAB60214B5A7154E6332E07D1AB683B
:1011C00013F8012BAB601D4B83F89B214AE6352EAB
:1011D0007FF4CBAEAA68134613F8011B0B29AB6052
:1011E0003FF6C3AE5078174B023203281B6CAA603F
:1011F0003FF6BBAE062202FB013383F8DA00AA6891
:1012000012F8011BAA6083F8D510AA6812F8011B16
:10121000AA6083F8D610AA6812F8011BAA6083F8A6
:10122000D710AA6812F8011BAA6083F8D810AA6820
:1012300012F8011BAA6083F8D91013E63C170020AE
:10124000941F00202805002080180020501E002038
:1012500000000020E03A0108432E2DD1AB68AB4ED0
:1012600013F8012B2846AB6000237271B36008F0BD
:101270004DF8B3681843AB68B06013F8012B2846EB
:10128000AB6086F8982108F050F8A6F85C01284673
:1012900008F04BF8A6F85E01284608F046F8A6F8D4
:1012A0006001284608F041F8A6F88801284608F0B1
:1012B0003CF8A6F88A01D5E549D83C2E09D1944BD3
:1012C0001A6CAB6813F8010BAB60107007F084FB6D
:1012D000C8E51CD8392E7FF448AEAB6813F8012B53
:1012E000AB608A4B83F88221AA6812F8011BAA60BE
:1012F00083F88611AA6812F8011BAA6083F8851189
:10130000AA6812F8011BAA6083F88711AAE53E2E8D
:101310000DD1AB687D4A13F8011BAB6082F8EC116C
:10132000AB6813F8011BAB6082F8EB119AE5412E14
:101330007FF41BAE0023AA6812F8011BAA60734A4F
:101340001A440133082B82F89011F4D18AE5482E13
:1013500002D108F0FBFB85E507D8442E7FF405AEEB
:101360006B4B012283F8EF207CE54A2E05D12846FD
:1013700007F0DBFF654B988174E54C2E7FF4F5ADEB
:10138000AB68624E13F8012B2846AB6086F8E0216B
:10139000AB6813F8012BAB6086F8E12107F0C5FFBD
:1013A000AB68A6F8E20113F8012B2846AB6086F87B
:1013B000E42107F0BAFFAB68A6F8E60113F8012BA9
:1013C000AB6086F8E8214DE5D32E06D1284607F01C
:1013D000ACFF4F4BA3F8CC0044E500F28881CD2E42
:1013E0000AD14C4B1B7859073FF53CAD484B4FF4A5
:1013F000C872A3F8EC2035E500F20581CA2E40F052
:101400009180434A136C92461978022969D103F1FD
:101410001C0903F12806D5F80880434613F8010B90
:10142000AB600EF057FA3C490EF060FB08F1020386
:1014300049F8040F98F80100AB600EF04BFA3749F9
:101440000EF054FB08F10303C9F80C0098F80200F1
:10145000AB600EF03FFA32490EF048FBB145C9F8D7
:101460001800D8D1DAF840904FF0030809F1040AC7
:10147000B8F1070FAE681AD1334613F8010BAB6011
:101480000EF028FA24490EF031FBB31CC9F84400D1
:101490007078AB600EF01EFA1F490EF027FBC9F8FA
:1014A0004800B3780336AE6089F84C3011E016F886
:1014B000013BAE608AF80030AB6813F8012BAB60DB
:1014C00009EB0803DA72AB6813F8012BAB608AF8FA
:1014D000142008F10108B8F10A0F0AF1010AC7D176
:1014E000C0E403F10A01AA6812F8010BAA6003F82C
:1014F000010FAA688B4212F8010BAA609872AA68C1
:1015000012F8010BAA601875EDD1ABE43C1700206E
:1015100028050020921F0020000020410000C84242
:1015200000007A44CC2E42D16B78092B7FF61DAD9A
:10153000AE4BDE6FAB68F01C13F8012BAB60327062
:10154000AB6813F8012BAB6072700023A968022B03
:1015500011F8012B03F10103A9600CBFFF216421E5
:101560008A42A8BF0A46032B00F8012FEED1AA68D1
:10157000284612F8013B642B28BF6423AA60F3714C
:10158000AB6813F8012BAB60B270AB6813F8012B9A
:10159000AB60F27007F0C9FE70816B780A2B7FF6A2
:1015A00061ACAB6813F8012BAB6032725AE4C82E01
:1015B0007FF4DBAC6E787608122E3FF6D6AC4FF097
:1015C0000008B04507D2284607F0AFFE2DF81800F6
:1015D00008F10108F5E732460023B34206DA3DF888
:1015E0001300834921F813000133F6E7122A05D0CE
:1015F0007F4B002123F812100132F7E77B4B0122C9
:1016000083F8CE202EE4CF2E7FF40EAC284607F0D0
:101610008CFE6FF4AF6683199BB2764EC62B98BFD3
:10162000A6F8A001284607F080FEA6F84401284647
:1016300007F07BFEA6F84601284607F076FEA6F8DE
:101640004801284607F071FEAB68A6F8E201DA1CF3
:10165000AA60DA780433AB6086F88D21AB6828463F
:1016600013F8012BAB6086F89B21AB680133AB60AC
:101670005E4BD3F8408007F058FE00EB8000AB686B
:101680004000A8F8620013F8012BAB6086F88221B5
:10169000AB6813F8012BAB6086F88621AB6813F8B2
:1016A000012BAB6086F88521AB6813F8012BAB608A
:1016B00086F88721FFF7D6BB4F4B1B785A073FF5BB
:1016C000D1AB4A4A92F8EE3043F0040382F8EE3090
:1016D000FFF7C8BB484B1B7858073FF5C3AB04F076
:1016E000AFF803F053FE03F0F7FEFFF7BBBBDB2EB2
:1016F0006BD13E4B1E211B6C2826D97219733221E7
:1017000019710F215971222199710E2119743521F6
:1017100099761921D9712121012517224FF02D0E1B
:101720005E709E7059745E72532178261D705A75D2
:101730009A7583F80DE05522D9769E72142183F8AC
:1017400014E09D774FF4FA7683F85450DFF8C8E040
:101750002A4D0A20DA70197200226421A3F84E6023
:101760000026DA759A731A76DA735A761E659874BB
:101770001977C3F820E0DD621D635D63204D214EC3
:101780001D64214D9E635D64204DDE6383F85B2004
:101790001F4E4FF4E1729D64A3F85C204B2510228C
:1017A000C3F824E09E6283F84C5083F8550083F818
:1017B000560083F8570083F8581083F8591083F8BF
:1017C0005A1083F85E20FFF74DBB00F29C80D62EA6
:1017D00024D10026284607F0A8FD0E4B23F816005A
:1017E0000136082EF6D1FFF73DBB00BF28050020CB
:1017F000001700203C170020921F0020CDCCCC3ECB
:101800000AD7233C8FC2F53C0000A04000004040B6
:1018100000006040FC0500203333B33F41D8D42E94
:101820007FF4A3AB6B780F2B7FF49FABAB6813F8FF
:10183000018BB8F1070FAB603FF697AB674B2846BB
:101840001E6C07F072FD0E2303FB0866A6F8250147
:10185000284607F06AFDA6F82701284607F065FD2F
:10186000AB68A6F8290113F8012B2846AB6086F86F
:101870002B21AB6813F8012BAB6086F82C21AB68E9
:1018800013F8012BAB6086F82D21AB6813F8012B00
:10189000AB6086F82E2107F039FDC6F82F01FFF75F
:1018A000E1BAD92E16D1284607F03FFD4C4EA6F8D6
:1018B0004C01284607F039FDA6F84E01284607F0EE
:1018C00034FDA6F85001284607F02FFDA6F8520176
:1018D000FFF7C8BADA2E7FF448ABAA683F4B12F87C
:1018E000011B1B6CAA6083F81D11AA6812F8011B6A
:1018F000AA6083F81E11AA6812F8011BAA6083F877
:101900001F11FFF7AFBAEF2E0DD1344B28461E6CD6
:1019100007F00BFDA6F86600284607F006FDA6F8BE
:101920006400FFF79FBA18D8DC2E7FF41EABAB68BB
:101930001A4612F8011B981CAA60294A033382F840
:10194000581113F8021CA86082F8591113F8011CF1
:10195000AB6082F85A11FFF785BAF22E31D1AA682E
:10196000114611F8013B0F2BA9603FF6FEAA5178F2
:101970000232AA601B4AC3EBC30313441971AA685D
:1019800012F8011BAA605971AA6812F8011BAA601B
:101990009971AA6812F8011BAA60D971AA6812F895
:1019A000011BAA601972AA6812F8011BAA60597279
:1019B000AA6812F8011BAA60997206F031FFFFF7BE
:1019C00051BAFA2E7FF4D1AA074B1B785B073FF57B
:1019D000CCAAFFF743BA20B0BDE8F0872805002065
:1019E0003C1700200C180020921F00202DE9F04F1A
:1019F0009D4F8BB004F0FEFC3B6813F480420AD08C
:101A00009A480021027832B1994A01700120107081
:101A1000984A1170C822D80703920CD5944A51787D
:101A20009078884207D00120D070924800249170AD
:101A3000642244700392990409D500238E4A32F837
:101A40001320002A41F0538001330C2BF6D1039B65
:101A500023B9874B9DF80C201A70DA70874B884A9F
:101A60001D7811680492C5B1864A1268914240F20D
:101A70002281013D1D701EE1DAF80030072C98BF6D
:101A8000195D7C4B88BF21465B687F489847032CD3
:101A90000ED908EB4404A08001357B4BECB21A78D8
:101AA000DFF8CC81A242DFF8FCA11A46E4D820E09E
:101AB000DAF8002004F10E0302EB8303D9881A89B7
:101AC0000028E6D0401A4FF47A734343501A93FB30
:101AD000F0F040F6C90300F57A70984205DC40F258
:101AE000EE239842B8BF184601E040F6CA0080B223
:101AF000CFE742F201063B681E40B6FA86F6634B1A
:101B00007609D3F800B036B998F8033088F8003079
:101B1000584B5978197098F800501DB1554B1D78E5
:101B200085F001050F2388F82830DAF8003098F89E
:101B300029A04FF0030CBAFBFCFC0CEB4C0CCCEBDB
:101B40000A0C92F80090DFF860815FFA8CFC0024A8
:101B50004C4551DA1DB14E4A32F8140000E02846D7
:101B6000DA8A4C49824202D81A8B824220D251F83A
:101B700024103F4A8B4503D2474A32F814001BE039
:101B8000E0B2CDF818C0059307920CF06FFC032C5F
:101B9000059BDDF818C00FDC079A4FF0010E92F894
:101BA00028100EFA04FE21EA0E0182F8281003E044
:101BB0000BF5967241F82420BEB92D4A28F81C0076
:101BC00092F8BC1029B9BAF1020F0ED9012182F89E
:101BD000BC10B8F80020B8F802001044B8F804208F
:101BE000104480B20322B0FBF2F02B4A08F1060841
:101BF00022F814000134ABE71D4D244995F8283034
:101C0000A3F10F025342534185F8BD30234A8BB1F3
:101C1000234B1B685B0102D53B68DE050AD40B68C9
:101C20009360D2689B1AC82B40D91C4B012283F8C1
:101C300021203BE00F4B0120587018700B68916811
:101C4000D36052685B1A934282BF144B002283F820
:101C5000212000244C4529DAE0B20CF007FC0E4BA1
:101C600023F814000134F5E7A01E0020F60500203B
:101C7000180600201400002024170020CC1E00208D
:101C800098130020C81E002084050020D01E0020CC
:101C90001C0600208C060020A41E0020D41E00205C
:101CA000701500209C1E00204206002095F8293067
:101CB000013385F829303B68DC0405D5AC4B1B6843
:101CC000D80701D40DF074F8049B1C68A94B1A685E
:101CD000D07AB8B1A849537B013831F810001BB154
:101CE000C0F53B60083080B200B2A0F57A70B0F564
:101CF0007A7FA8BF4FF47A7020EAE0700DF0EEFD15
:101D00009E4934E03B6819043AD59D4DD5F8C03062
:101D1000E31A002B34DB04F59C432033C5F8C030B4
:101D2000984B127B5979984B33F8113095F8C410C1
:101D30009BB293FBF2F3013101F00F0285F8C4204E
:101D40002A4482F8C5300346904A825C013013442D
:101D500010289BB2F8D11BB293FBF0F000B26428BC
:101D6000A8BF642020EAE0700DF0B8FD88490DF0AE
:101D7000BDFE88490DF006FE0DF0F0FF864B188081
:101D80003B68864D13F4807F00F01D81844BDFF8A3
:101D900014B29C4205D99BF8023013B901238BF889
:101DA00002309BF80230002B00F00D817D4B2E7825
:101DB00093F821406E4B621E9946544254411A6872
:101DC000002CC6F38006C2F3806814BF4FF0000AEF
:101DD0004FF0030A9BF82030052B00F2EE80DFE87D
:101DE00003F0034E628695B2002E3AD0644BD3F8CE
:101DF000D800B3F8DC100BF0E5FB012809D16A4AE2
:101E00006A4B12681B68D288642101FB0233CBF84D
:101E10001030B8F1000F0BD0634B1B681B793BB13E
:101E200009F078F803238BF820304FF47A7337E009
:101E3000002C40F0C2805D4BDBF810201968594B34
:101E400091420AD9049309F065F8049B032283F8B0
:101E5000202040F6B832DA61BCE7012283F8202066
:101E6000B8E74FF48060B8F1000F02D003F00EFA2B
:101E700001E003F0FBF90023CBF810309DE0002CCB
:101E800056D1494B1B681B7A012B02D009F042F84E
:101E9000A0E709F03FF803238BF8203040F6B83371
:101EA000CBF81C3096E724B105238BF820300121B4
:101EB00000E021466EB1324B4FF0020AD3F8D83021
:101EC0001A8A2D4B1A805A809A80374A1268528893
:101ED000DA80364B1A68DBF814309A4201D8002EAB
:101EE00068D147F23053CBF81C30032321E02B7824
:101EF00043F002032B700CF05BFF2C4BDBF81C2033
:101F00001B681344CBF81830042312E0274B9CB114
:101F10001A68DBF818309A424FD9254B1B781BB949
:101F2000D9F80030DB0748D42B7823F002032B705C
:101F300005238BF820304DE71B68DBF81C20134489
:101F4000CBF8183039E0184A184B12681B68D28851
:101F5000642101FB02334FF48060CBF81030002382
:101F60008BF820308BF8033003F080F932E700BFA4
:101F7000701500209C1E0020A41E002000007A4442
:101F800018060020581E0020681E0020DD060020D4
:101F90000000C84200C07F449C050020921F002022
:101FA000404B4C00D41E002084140020D01E002082
:101FB0001000002000297FF40DAFBAF1000F02D00D
:101FC00050460BF02DFBA24EB6F8521106F5C87024
:101FD0000BF0F8FA81469F48B6F8A031B0F902201C
:101FE00003F10B01914283460BDB0B3B934208DC70
:101FF000B0F90020914204DB9342CCBF00230123BF
:1020000000E00023B9F1000F0FD1934A12681001CC
:1020100011D5924AD27872B92A7851070BD523B1DB
:102020008F4A137843F0200303E08D4A137823F09E
:10203000200313700BE008F05DFF8A498A4B0020F3
:10204000002208601A6048605A6088609A602B78A5
:102050005A0735D53B68DB0632D5814B1B78DC0649
:102060002ED4824B824C1B788BB196F8EC31B9F1AF
:10207000000F14D173B17F4B1A68D4F8E0309B1A6B
:10208000002B07DA0CF094FE84F8E49018E0B9F124
:10209000000F0DD110200BF0C3FA01230EE03BB16D
:1020A000744A4FF47A71126801FB0323C4F8E030DC
:1020B00094F8E43023B10BF09FFA002384F8E43065
:1020C00096F8EA3196F8EB11049300231A46B6F815
:1020D000A241B6F8A4E13BF913009208A042C4BFA4
:1020E00062F07F02D2B201337045B8BF42F04002C5
:1020F000042BF0D15E4C94F8E530934205D194F86E
:10210000E630F92B04D8013300E0002384F8E630F0
:10211000564B84F8E5201A78DFF83C819A46E2B9FC
:10212000D8F80030D80708D5B9F1000F15D12B78B1
:10213000D90712D50CF002FE0FE02B785A070CD508
:102140004B4B1B784BB1454BDB7833B911B10CF0DD
:102150002FFE02E0B9F1000FF9D094F8E630444ABE
:10216000142BDFF81C9140F0A580049B003318BFAE
:10217000012304939AF8003063B392F8E5305F2BA3
:1021800011D12B7803F0040303F0FF0113B10CF01D
:102190000FFE08E00B20069105920BF041FA059A1C
:1021A000069982F8E610049BA3B194F8E5307D2BE4
:1021B00010D12B7803F0040303F0FF0213B10CF0ED
:1021C000F7FD07E00B2005920BF02AFA284B059A41
:1021D00083F8E6202B7803F0040303F0FF01002BC3
:1021E00068D194F8E530224A572B0AD14FF47A731C
:1021F000A2F8E830204B1B685B075BD50A221F4B17
:102200004FE03868400717D55A2B15D192F8EA30BD
:102210002BB1012382F8EA1082F8EB304AE092F801
:10222000EC3083F0010382F8EC300BB10C2000E0BD
:102230000D200BF0F5F93DE05D2B00F062845B2B87
:1022400000F061845E2B1DD1032000F05DBC00BF57
:102250003C170020A41E002070150020D41E002072
:1022600016060020A40F00203C14002010000020BF
:1022700018060020D01E00202C050020A0130020EE
:1022800068050020562B01D103F0D0FA9AF80030EF
:102290004BB994F8E530972B40F04E84B34B4FF494
:1022A000C8721A8006E094F8E5306F2B40F03B844A
:1022B0000CF044FD3B68580737D594F8EC30AC4A35
:1022C00093B12B7859070FD5BBF90610B6F8A23198
:1022D000994209DDD8F8003013F0010302BF322122
:1022E000A2F8EE1082F8EC30D8F80030DA030DD501
:1022F00094F8F0209E4B2AB993F8EA2012B93222C2
:10230000A3F8EE20012384F8F0300EE094F8EA30D0
:10231000974A53B12B7803F0040303F0FF0123B96C
:10232000012382F8EA1082F8EB30D9F800900023FC
:10233000C8F8003009F1870509F1D70A2A786B78C7
:1023400015F8010C9A420DD229460BF017F948B145
:1023500015F8022C012303FA02F2D8F800301343D7
:10236000C8F8003004355545E8D1824B1B784BB195
:10237000814DDFF81C822B68804E13F0020F40F075
:10238000F382EBE209F1D50509F21D196A78AB7801
:1023900028789A4228D2691C0BF0F0F820B36979AA
:1023A0000C2303FB0143D3F8FC20AA421CD0C3F842
:1023B000FC50287903F1F40283F8F4000020506007
:1023C000EB785370EB780C2B4FF0010304BF937044
:1023D0000323D37018BF9070012394F824218B40FD
:1023E00022EA030384F8243106354D45CED1644BEF
:1023F000DFF8A0811D68634B1B6805932378069363
:102400000023049398F80090B9F1000F00F09D822A
:10241000D8F80330059AD31A002B0CDB02F5FA73B7
:10242000049AC8F803300123934094F8242122EA47
:10243000030384F82431069B002B00F0868218F8F1
:10244000013C98F801200433DBB2002A40F03882C6
:102450003BF913204C4BB3F8A03103F1C8018A4279
:1024600002DD98F802A016E0C83B9A4204DA98F818
:1024700002C0CCF1000A0EE0049A0123934094F8C4
:10248000242122EA030384F82431059B03F5FA731F
:10249000C8F8033059E294F82431049A1341DB0759
:1024A00000F15382BAF1000FCCBF022001200BF0E3
:1024B000D9F809F1FF33252B00F23F82DFE813F052
:1024C0002600330043006C0085008D00A200B90097
:1024D000D000D700E1003D026C0078008D00A20022
:1024E000B9009B00B100C8001F012E013D01D301BE
:1024F000E201F101C4014C015B016A01790188012B
:102500009701A601B501EB00F300FF002B7803EB68
:102510000A0CBCF1FA0FA8BF4FF0FA0C2CEAEC7CC5
:1025200085F800C00BE06B7803EB0A0CBCF1640F7C
:10253000A8BF4FF0640C2CEAEC7C85F801C028465B
:102540000BF002F8F9E1EB78284603EB0A0CBCF13A
:10255000640FA8BF4FF0640C2CEAEC7C0B4B85F8A1
:1025600003C019680AF0A7FFE7E100BF14060020C6
:1025700018060020951F0020701500206E15002001
:10258000A4050020D01E00203C170020F8050020E4
:102590002C0500200D0700206B795344642BA8BF45
:1025A000642323EAE373B9F10D0F6B7100F0C58169
:1025B0002B7903EB0A0CBCF1640FA8BF4FF0640C3D
:1025C0002CEAEC7C85F804C0B7E1AB7903EB0A0C8C
:1025D0008CF3080C85F806C0AFE1C14B5246196870
:1025E000C8230093881CBF4B24310BF077FDB9F151
:1025F0000F0F00F0A281BA4B1968C823481C009342
:10260000203157E0B64B52461968C823009301F1B8
:102610000C00B54B30310BF061FDB9F1100F00F03B
:102620008C81AF4B1968C82301F10B0000932C314A
:1026300024E0AB4B52461968C823009301F1160001
:10264000AA4B3C310BF04AFDB9F1110F00F0758136
:10265000A34B1968C82301F115000093383117E026
:102660009F4B1968C823C81C0093283122E09C4B5B
:102670001968C82301F10D000093343152469A4B7A
:102680001AE0974B1968C82301F1170000934031F5
:102690005246964B10E0924B1968C82301F108008E
:1026A0000093443106E08E4B1968C82301F11200F3
:1026B0000093483152468B4B0BF010FD3DE1884BA7
:1026C0001A681378022B0DD192F84C3003EB0A0CE8
:1026D000BCF1C80FA8BF4FF0C80C2CEAEC7C82F804
:1026E0004CC02AE1137F03EB0A0CBCF1C80FA8BF52
:1026F0004FF0C80C2CEAEC7C82F81CC01DE1784B32
:102700001A68137903EB0A0CBCF1C80FA8BF4FF08D
:10271000C80C2CEAEC7C82F804C00EE1704B1A68FD
:10272000937B03EB0A0CBCF1C80FA8BF4FF0C80C99
:102730002CEAEC7C82F80EC0FFE0694B1A68137E2D
:1027400003EB0A0CBCF1C80FA8BF4FF0C80C2CEA71
:10275000EC7C82F818C0F0E0614B1A68537903EB07
:102760000A0CBCF1C80FA8BF4FF0C80C2CEAEC7CD7
:1027700082F805C0E1E05A4B1A68D37B03EB0A0CE0
:10278000BCF1C80FA8BF4FF0C80C2CEAEC7C82F853
:102790000FC0D2E0524B1A68937903EB0A0CBCF1DC
:1027A000C80FA8BF4FF0C80C2CEAEC7C82F806C01A
:1027B000C3E04B4B1A68137C03EB0A0CBCF1C80F47
:1027C000A8BF4FF0C80C2CEAEC7C82F810C0B4E033
:1027D000434B1A68937E03EB0A0CBCF1C80FA8BFE9
:1027E0004FF0C80C2CEAEC7C82F81AC0A5E03C4BF8
:1027F0001A68D37903EB0A0CBCF1C80FA8BF4FF0DD
:10280000C80C2CEAEC7C82F807C096E0344B1A68BE
:10281000537C03EB0A0CBCF1C80FA8BF4FF0C80CE7
:102820002CEAEC7C82F811C087E02D4B1A68D37E2D
:1028300003EB0A0CBCF1C80FA8BF4FF0C80C2CEA80
:10284000EC7C82F81BC078E0254B1A68537A03EBC6
:102850000A0CBCF1C80FA8BF4FF0C80C2CEAEC7CE6
:1028600082F809C069E01E4B1A68937A03EB0A0CE0
:10287000BCF1C80FA8BF4FF0C80C2CEAEC7C82F862
:102880000AC05AE0164B1A68137D03EB0A0CBCF120
:10289000C80FA8BF4FF0C80C2CEAEC7C82F814C01B
:1028A0004BE00F4B1B689A7F02EB0A0CBCF1C80F80
:1028B000A8BF4FF0C80C2CEAEC7C83F81EC03CE0AB
:1028C000012A3AD13BF9130098F80220B0F5617F54
:1028D0000EDB40F633039842A8BF18460AE000BF5B
:1028E000501E0020000020410000C84200007A4431
:1028F0004FF46170B9F10C0F1FD14FF4966393FB45
:10290000F2F3A0F5617090FBF3F0A94AC0B213781E
:10291000834212D0042834BF03460223137009FBFC
:102920000363A44A03F2E6630790136002F0E8FC35
:1029300007980130C0B20AF095FE049A0123934033
:1029400094F82421134384F82431049B08F10C08E3
:102950000133042B04937FF455AD09E53B68D8059A
:1029600010D5954BDB786BB1D8F80030990709D5B5
:10297000338813F001070AD108F0BCFA012002F0F5
:1029800085FC04E0012002F071FC012300E000233B
:102990002A6852070CD55BB1012002F067FC33882E
:1029A0009B0708D408F0A6FA022002F06FFC02E0B0
:1029B000022002F05BFC3388804A13F0030F4FF0D3
:1029C000100114BF51611161D8F8002012F00A0FF4
:1029D0002CD02A68D7060DD558070ED4042002F053
:1029E00055FC774B0A22B3F9043093FBF2F3754A96
:1029F000138002E0042002F039FC2B68990606D50A
:102A000033885A0606D4402002F040FC02E0402001
:102A100002F02CFC2B685B0641BF694B0A22B3F91C
:102A2000043093FBF2F348BFA4F826312B684FF42F
:102A300080701F0502D502F029FC01E002F016FCAF
:102A4000614B5B79082B01D00E2B02D1402002F0A4
:102A50000DFC012384F8283194F82931FBB1D8F812
:102A6000003058071BD52B68190703D4082002F043
:102A7000FDFB14E0348804F00804A4B27CB90820FB
:102A800002F004FC514B1A68514B1A60514BBBF8D1
:102A90000620A3F82A21504B1C60504B1C604D4F60
:102AA00097F82931002B7FD0D8F80030DA067BD593
:102AB0002B689B0204D44FF4007002F0D7FB73E044
:102AC000348804F40074A4B2002C6DD14FF400706B
:102AD00002F0DCFB3D4B1A683D4B1A60BBF8063038
:102AE000A7F82A313C4B1C603C4B1C605CE0394B26
:102AF0000122DA703A4B00225A7064230393FEF7E6
:102B0000ADBF012000E002205FFA80FA0AF1FF3336
:102B100086F8E43602F03AFC02F0DEFC50460AF099
:102B2000A1FDFFF7C7BB049A002A3FF4B2AB7E2B8E
:102B30007FF4AFABFFF7BCBBA72B06D1294A1378B4
:102B400043F004031370FFF7B5BB0022BB2B0992BF
:102B500001D1022303E0B72B04D14FF6FE73ADF889
:102B600026300AE0BE2B01D1022304E0BD2B7FF406
:102B7000A1AB4FF6FE73ADF82430D9F80020BDF8B4
:102B80002410B2F864300B44A2F86430BDF826106B
:102B9000B2F866300B44A2F8663002F047FE00231C
:102BA00084F8E630FFF786BB03980BB0BDE8F08FE2
:102BB0006C150020A4050020D41E0020000C01404C
:102BC00086050020F40500203C1700208C0500201D
:102BD00008140020180600201014002014140020EF
:102BE00014000020160600202DE9F04F95B007468E
:102BF00003F000FC9F4B85B21D8028460CF06AFE56
:102C00009D4982460CF0BEFE9C4C9D4B06461860CA
:102C1000002160680DF04AF808B19A4B6360616862
:102C200030460CF0A7FD014630460CF05FFFD4F8AB
:102C300000900646494650460CF09AFD0146304643
:102C40000CF0A0FE014648460CF094FD20600DF00B
:102C500085F88D4E80B232888C4BAD1AA081801AD7
:102C6000BA8D1D809A808A4A8A4D12795880DA80FE
:102C70008948D5F888309847DFF8008237460695AE
:102C800048B9864F864E3B68039713F0020F40F019
:102C90000F8100F096BDD8F81090002148460DF045
:102CA00005F870B17F4E3388002B00F0BD80D4F85A
:102CB00088307D4F1B7807F10C0503934FF0000817
:102CC00073E098F814309BB9C8F81830A5696B4EBA
:102CD000022D0BDC06F11C03242101FB05314846C3
:102CE0003A68013501F0FDFFB561EFE70123337567
:102CF000237D002BD6D0614B00229A61A5695F4EDF
:102D0000022DCFDC644F06F11C03242101FB0531A9
:102D100057F8250001F0B2FF0FF096FD0CF0DEFD34
:102D200047F825000135B561E8E7D5F800C0484609
:102D300061460892CDF814C007930CF019FD079B6B
:102D4000834618460CF0CAFD014658460CF0CEFEEC
:102D5000DDF814C0014660460CF00CFD03466860C7
:102D60001946484605930CF003FD014658460CF001
:102D700009FEA9680CF0FEFC059B089AE8602B6030
:102D8000A860454BDFF824914AF8032000234AF855
:102D90000930049B012B2BD008F10108B8F1030F77
:102DA00007F1040705F114054AD033884FEA880A71
:102DB000B3F57A7F049302BF00233B602B61364B4F
:102DC000386853F828900CF089FD49460CF0D2FC85
:102DD0000CF09EFF2B6938600133012B2B614FF003
:102DE0000002A2D1C5F80490C5F80090AA60C8E717
:102DF0002869012807DD01380CF070FD0146E868FC
:102E00000CF074FE00E000200FF0E4FE039B83460C
:102E100063B118460CF062FD014658460CF06EFF97
:102E200020B14FF47A733380002511E03B684FF4F2
:102E30007A7203F5FA7393FBF2F349F80A30ABE7C1
:102E40003088012801D10AF0EBFB3388013BEAE727
:102E5000164B114E53F825000CF040FD014656F874
:102E600025000CF085FC46F825000135032DEFD137
:102E700007E700BF901F0020BD37863544070020BC
:102E80004814002083F9223EA00F0020C605002030
:102E900030050020EC0A0020400500202C05002011
:102EA000341F002000070020D00700201808002051
:102EB000494B1B78002B00F0848404F06BFFD4F89E
:102EC000E030464DC31A0593D4F8E430C4F8E0006E
:102ED00093F8008004930027B8F1000F32D00598D2
:102EE0000CF0F8FC3E490CF04DFD0021824668686C
:102EF00056F827B00CF0DAFE58B140460CF0EEFC64
:102F000038490CF03FFD01464FF07E500CF0EEFDCD
:102F10006860504669680CF02DFC014650460CF084
:102F2000E5FDD5F800908246494658460CF020FC55
:102F3000014650460CF026FD014648460CF01AFCAE
:102F4000286001E056F827000CF0E2FE264A0C3516
:102F500022F817000137032FBED1234AB2F802A08E
:102F6000B2F800800FFA8AF35B430FFA88F992886F
:102F700009FB09330892BDF92090642209FB093945
:102F800002FB09F3069AB2F8AA9009FB09F993FB30
:102F9000F9F9A9F152030993039B186810F008008E
:102FA00026D0124E002130680CF080FE054660B934
:102FB000706800210CF07AFE48B9B06800210CF06E
:102FC00075FEB0FA80F0400902E0002000E02846DB
:102FD00000F001070DE000BF681F00202C08002052
:102FE000BD378635DB0FC940380500204C05002071
:102FF000074605980CF06EFC65490CF0C3FCD4F84C
:103000000C51644C0390216828460CF0BBFC6168AD
:10301000834628460CF0B6FCA168069028460CF0C2
:10302000B1FC5D4B0790594658461E685D689C6828
:103030000CF0A8FC8146069801460CF0A3FC014662
:1030400048460CF097FB8146079801460CF09AFC25
:10305000014648460CF08EFB0FF0BCFD0A90002F95
:1030600000F0A080314630460CF08CFC2946074623
:1030700028460CF087FC014638460CF07BFB2146C5
:10308000074620460CF07EFC014638460CF072FBE9
:10309000424907460CF032FE002800F08380384693
:1030A0000FF098FD01464FF07E500CF01FFD814659
:1030B000304649460CF066FC4946074628460CF067
:1030C00061FC4946064620460CF05CFC344C054643
:1030D000216838460CF056FC61680B9030460CF0C5
:1030E00051FC0B9B014618460CF044FBA1680B9069
:1030F00028460CF047FC0B9B014618460CF03AFBA7
:10310000E1680B9038460CF03DFC216907463046DB
:103110000CF038FC014638460CF02CFB6169064681
:1031200028460CF02FFC014630460CF023FB0B9B8D
:103130000546194618460CF025FC29460646284641
:103140000CF020FC014630460CF014FB0FF042FD61
:10315000014628460CF016FC00F10047A1693846EC
:103160000CF010FC00210CF005FBE1690646384626
:103170000CF008FC00210CF0FDFA216A05463846E7
:103180000CF000FC00210CF0F5FA04460DE000BF45
:10319000BD378635400500204C0500200AD7233C6A
:1031A000F4110020002425462646099B262B00F218
:1031B00086800FFA88F00CF091FB81460FFA8AF0B6
:1031C0000CF08CFB0746BDF920000CF087FB49464C
:1031D000804648460CF0D6FB3946824638460CF00D
:1031E000D1FB014650460CF0C5FA414682464046A6
:1031F0000CF0C8FB014650460CF0BCFA5849824618
:103200000CF07CFD00285AD050460FF0E3FC01463C
:103210004FF07E500CF06AFC8246484651460CF056
:10322000B1FB5146814638460CF0ACFB514607468F
:1032300040460CF0A7FB4B4B82461A6A38461146B3
:10324000D3F81C8009920B930CF09CFB414608902C
:1032500050460CF097FBDDF820C0014660460CF0AC
:1032600087FA014630460CF085FA0B9B06469B69AF
:103270005046194608930CF085FB099A8246114680
:1032800048460CF07FFB014650460CF071FA0146AF
:1032900028460CF06FFA4146054648460CF072FB92
:1032A000089B8046194638460CF06CFB01464046A8
:1032B0000CF05EFA014620460CF05CFA0446049BD2
:1032C0004FF00009D3F80480494640460CF016FD43
:1032D000254F78B30A9825490CF0F2FC80B33146AB
:1032E00040460CF04FFB03990CF04CFB0146D7F81D
:1032F00010010CF03FFA2946C7F8100140460CF0C7
:1033000041FB03990CF03EFB0146D7F814010CF089
:1033100031FA2146C7F8140140460CF033FB0399FB
:103320000CF030FB0146D7F818010CF023FAC7F86F
:10333000180105E0C7F81091C7F81491C7F8189163
:10334000049B98680A4B1B78590705D4094B1A68E7
:1033500044F61F639A420FD94FF07E510DE000BF33
:103360000AD7233CF411002044070020C2B8B23E23
:10337000921F0020D01E0020A4490CF003FB314610
:1033800080460CF0FFFAD7F810110CF0F3F9014663
:1033900058460CF0EFF92946064640460CF0F2FA82
:1033A000D7F814110CF0E6F9014606980CF0E2F992
:1033B0002146054640460CF0E5FAD7F818110CF006
:1033C000D9F9014607980CF0D5F94FF07C51074622
:1033D00003980CF0D7FA0446304621460CF0D2FA96
:1033E0002146064628460CF0CDFA2146804638464E
:1033F0000CF0C8FA864B8246D3F80090854B3146D4
:103400001F68854B09F100401D680CF0BBFA41466E
:10341000069038460CF0B6FA069B014618460CF0AA
:10342000A7F95146069028460CF0ACFA069B0146D7
:1034300018460CF09DF9794C0146D4F800B0584676
:103440000CF098F931462060089058460CF09AFA32
:103450005146069038460CF095FA069B01461846F0
:103460000CF088F94146069028460CF08BFA069B32
:10347000014618460CF07CF9014648460CF07AF9F2
:10348000634B41461860079058460CF07BFA514652
:10349000069048460CF076FA069B014618460CF05A
:1034A00067F93146069028460CF06CFA069B0146F7
:1034B00018460CF05FF9014638460CF05BF9554AA6
:1034C00051461060069058460CF05CFA4146824620
:1034D00048460CF057FA014650460CF04BF931467D
:1034E000804638460CF04EFA014640460CF040F952
:1034F000014628460CF03EF9DDF820C0464B6146F7
:103500001860054660460CF03DFA079A06461146DB
:1035100010460CF037FA014630460CF02BF9069BAA
:103520000646194618460CF02DFA014630460CF0B6
:1035300021F92946064628460CF024FA0146304671
:103540000CF018F90FF046FB01464FF07E500CF0DE
:10355000CDFA0546206829460CF014FA2C4B206061
:10356000294618680CF00EFA294B29461860294B99
:103570002B4C18680CF006FA264B29461860264B8F
:10358000284E18680CF0FEF9234B274D186005F003
:1035900089F9216AE06901F069FD24490CF0F2F92A
:1035A0000FF052F93080A06900F1004001F021FDD8
:1035B00001461F480CF0DCF81C490CF0E3F90FF051
:1035C00043F921687080E06801F050FD174900F16F
:1035D00000400CF0D7F9D5F8BC100CF0CBF80FF088
:1035E00033F983B21A044ABF00F56160B380B0803A
:1035F000104B266AD3F81C1130460CF07FFB0E4BA3
:103600001A78D8B142F008021AE000BF0000204149
:10361000E8110020EC110020F01100202000002013
:10362000F411002086050020EC0A00204C3D0F44D8
:10363000DB0FC93F440700201606002022F00802D5
:10364000974F1A70B7F900000CF048F98146B7F9A6
:1036500002000CF043F98046B7F904000CF03EF983
:103660002168074648460CF08DF96168824640465D
:103670000CF088F9014650460CF07CF8A1688246AF
:1036800038460CF07FF9014650460CF073F8A169FA
:10369000824648460CF076F9E169834640460CF0D4
:1036A00071F9014658460CF065F8394683463046B4
:1036B0000CF068F9014658460CF05CF8E1680646E3
:1036C00048460CF05FF92169814640460CF05AF9F2
:1036D000014648460CF04EF86169804638460CF0C9
:1036E00051F9014640460CF045F8049B00F10047B3
:1036F0005B786C4C012B18D16B4B1B785B070ED49D
:10370000D4F82001402390FBF3F3C01A0CF0E6F844
:1037100031460CF02FF80CF0FBFAC4F82001D4F875
:103720002001402390FBF3F001E0B5F8AA000CF073
:10373000D5F8014630460CF01BF8D4F8281106469F
:1037400003980CF017F8014603980CF0CFF9D4F861
:1037500024518046294630460CF00AF8014640467E
:103760000CF010F9014628460CF004F8C4F82401C6
:10377000064650460FF068F8D4F82C514B4C297887
:1037800001F028FC23681844206038460FF05CF8EC
:10379000297801F01FFC63681844606030460FF020
:1037A00053F8697801F016FCA368414A184405995A
:1037B0001368A060194411603E4A13680133136016
:1037C00003E0002333607360B3603B4BB3F9061032
:1037D0003A4BD3F800E0BEF80A2091420FDBB1F576
:1037E000FA6F9EF80750BFBF8B1A6B43A2F5FA65BC
:1037F00093FBF5F5ACBFC5F16405643500E06425C5
:103800002F4B304AB3F8A0C193F9623112689BB2D2
:10381000039216460493002240F2E630264B4FEA0C
:10382000420933F91280CCEB080303F2F31484420B
:1038300003D8002BB8BF5B4201E04FF4FA73022AB1
:10384000039C4FF0640045D094F81D411CB1A34285
:10385000CCBF1B1B002393FBF0F71B4C6FF0630BDB
:1038600034F817A00BFB073B013734F917400FFA68
:103870008AF7E41B04FB0BF494FBF0F4134F54445D
:1038800027F809400EEB020424796343104C93FBA4
:10389000F4F364339BB26B4393FBF0F047E000BF5B
:1038A0003805002044070020921F0020EC13002060
:1038B0007C1F0020E8130020A41E0020A405002087
:1038C0003C17002068050020CA160020940F002035
:1038D0000CFEFFFF94F81E411CB1A342CCBF1B1B82
:1038E000002393FBF0F0AE4C6FF0630A0AFB003B41
:1038F00004EB400704EB4000B7F93071B0F9320136
:10390000002BA0EB070000FB0BFB9BFBFAFB0498D2
:10391000C7EB0B0707FB00F7A248B8BF5B428780E5
:103920009EF806004343A04893FBF0F064307378A0
:103930006427434393FBF7F39C4C022AA354F37A86
:103940009B4C00FB03F393FBF7F3A354737D954C5F
:1039500000FB03F090FBF7F0964B9854964B0DD17B
:10396000E0459F700DDB954EB6F8A221914214DB25
:10397000B1F5FA6FA8BF4FF4FA610FE0E0459D542E
:1039800004DA34F809305B4224F809300132032AA2
:1039900006F101067FF440AFE5E71146891A4FF4BE
:1039A0007A735943C2F5FA62B1FBF2F1642391FBD9
:1039B000F3F2DFF858E26FF063003EF8127000FB9C
:1039C000021101323EF9122038B2121A514391FB12
:1039D000F3F33B44E3807A4B724D1B885F063FD57F
:1039E000784B0A20B3F9043093FBF0F0764B1B8838
:1039F000C01A00B20BF072FF74490BF0C3FF074608
:103A000001F02AFC8046384601F0B2FB0746B5F9C2
:103A100002000BF063FF8146B5F900000BF05EFF7A
:103A2000414682460BF0AEFF3946834648460BF0CE
:103A3000A9FF014658460BF09BFE0CF069F9414680
:103A4000288048460BF09EFF3946804650460BF0D2
:103A500099FF014640460BF08DFE0CF059F9688045
:103A60005B4B1A78500703D55A4B08225A613CE049
:103A700059490968C9075CBF42F001021A70574AE8
:103A80005749127817075EBF1A7822F001021A70A0
:103A9000544A126812F0040F02D05348008870B9DB
:103AA0005248008808B1950709D4514A128800325B
:103AB00018BF01221AB94F480079632806D902229B
:103AC0000A701A7822F001021A7005E01B78D807F4
:103AD00056BF02230A700B7004F05CF9464B1B685A
:103AE000C01A002801DB0AF019FD444BD3F88C30D2
:103AF0000BB14348984796F89E31294F002B00F0B0
:103B00008980BB89B7F84801B0FBF3F03D4B451CF9
:103B10001B78ADB2A7F84A511BB3B7F94CA10023EB
:103B2000DFF87CE034F813800EF5AB7C3CF8132012
:103B30000EF5A779C2EB080B39F913202CF8138086
:103B40000AFB02F12AB291FBF2F25A4429F813203F
:103B50000133042BE4D12B4B00221A70AEF84C0138
:103B600004E0B7F84C31013BA7F84C310C4A002374
:103B7000B2F94C0100284BDDB2F94A512249A1F1BA
:103B8000080232F9132031F81310424392FBF5F288
:103B90008A1A24F813200133042BEFD13AE000BF36
:103BA00044070020940F00200CFEFFFF601000204F
:103BB00082080020781000209C0F00203C17002075
:103BC0006E150020860500203E07002035FA8E3C49
:103BD000921F0020000C01407015002016060020E6
:103BE000F81E00202C050020A01300201406002041
:103BF0000007002030050020FC1E0020EC0A0020F9
:103C000088080020400700209A080020B2160020F3
:103C1000A2F84C31A64B01221A70A64BDFF80083A4
:103C2000196811F0080F3BD0A088A34D00F10E03D6
:103C30009BB21C2BA14B2DD8A14A1288520729D523
:103C4000B3F904200A2392FBF3F22B88D21A92B222
:103C500093B21DB2B335BCBF02F5B4739BB2994D9C
:103C60001AB2B32A2D78C4BFA3F5B4739BB22D0743
:103C700096F8622114D552B252425343D8F800202C
:103C80001BB2527A53436FF01D0293FBF2F30344CD
:103C9000A38005E0B3F904300A2293FBF2F32B80F2
:103CA00011F0140F884D75D0854B1B8803F40273F7
:103CB000002B6FD0834B1B7803F0100303F0FF0041
:103CC00043B1824B96F900121A68638801FB0233F4
:103CD00063805FE0D5F860317D4A93F803E07D4969
:103CE0009B78BEF1000F25D0B1F900E0B2F90610C3
:103CF000CEEB0102002AB8BF52429A420DDD764A4D
:103D0000714510604FF0010285F86421C8BF5B4225
:103D1000E2889BB21344E3803CE095F864312BB118
:103D20006E4B85F864011A686D4B1A60674B1B680F
:103D3000734424E0B1F90010B2F90620521A82EA65
:103D4000E270A0EBE27098420ADD022392FBF3F2EC
:103D5000644B1A60644B01221A7085F864210BE0F1
:103D600095F8643143B15D4B85F864E11A685C4BAA
:103D70001A605D4B83F800E0544B1B680B44D5F888
:103D800068110A884988934203DB8B42A8BF0B461F
:103D90001A46E280554B1B78ABB14D4BB3F9062068
:103DA000B6F8A2319A420EDC514B5B79012B01D05F
:103DB000192B02D196F8F6212AB90E2B03D0082B25
:103DC0001CBF0023A380D8F8003093F824A1BAF1D7
:103DD000000F2FD03A4B1B889B072BD0454B4649F1
:103DE000D3F8209048460BF075FFF8B9484601F02B
:103DF00000F9D7F86C110BF0C5FD0EF025FDB0F5FC
:103E0000617FA8BF4FF461700BF068FD3B490BF078
:103E10006DFE01F0ADF9074650460BF05FFD3946E7
:103E20000BF0B0FD0EF010FD80B200E00020E38842
:103E30001844E080324BD8F80000B6F874210093A3
:103E4000304B1E68304B196800F16403B0472F4BAC
:103E5000DB7803932E4B1F782E4B032F15D9D5F803
:103E600070219688B6F5FA7F0FD2B4F90400B3F941
:103E700004E00028B8BF404271420A1A964503DBAD
:103E800032187245A8BF72469A80234A126812F00F
:103E9000006147D1D5F87021B4F806A0B3F80280CC
:103EA000B3F800900492B3F904B01C4E0C467DE1C7
:103EB000410700202C050020F40500208605002085
:103EC0006E15002016060020440700201414002060
:103ED000A41E002042070020101400208C050020A2
:103EE00008140020801F002018140020100000205B
:103EF0003C170020F41100208FC2753CEFB6B0448F
:103F0000CC1800205C000020A4050020D41E002056
:103F10007B100020E40F002070150020C008002056
:103F2000680500200026D5F87011B24635465A883B
:103F3000B3F80090B3F904B0DFF838830491BA45C0
:103F400042D210B206920BF0C9FCD8F808100BF060
:103F500019FD05900FFA89F00BF0C0FCD8F8041099
:103F60000BF010FDDDF814C0014660460BF002FCBA
:103F7000049B059093F9020040420BFB00F00BF00C
:103F8000ADFCD8F80C100BF0FDFCDDF814C00146B8
:103F900060460BF0EFFB0BF0BBFE0DA980B221F8E1
:103FA0001A000FFA85FE01B27145069A04DC0FFA79
:103FB00086FE714502DB2846054630460AF1010AB5
:103FC00008F110080646BAE7A24BAD1B1A68ADB25D
:103FD00012F4805F0493DFF8A4A238D09E4A9F4E6B
:103FE000127812F0040F9D4A02BFD2F83812098AE3
:103FF000A2F83412D2F838229949108A994AB1F8B5
:10400000068014680FFA88F7E288811A8F4204DC70
:10401000DAF800202788148806E00244974206DB7D
:10402000DAF8002064885788A6F8348215E0B6F9DB
:1040300034228A42D9BF2788DAF80020DAF8002033
:104040006488D9BF1488B8465788A04605E0DAF8D6
:104050000020B4F8068057881488BAB21FFA84F991
:10406000C9EB0206B6B20FFA85FB30B283457E4D2E
:104070007E493CDD01220A700BF030FC0590584669
:104080000BF02CFC059A014610460BF02FFD8346E1
:10409000002229788A4214D20DF1340C3CF9120026
:1040A000CDF818C005920BF019FC59460BF06AFCCC
:1040B0000EF0CAFB059ADDF818C02CF81200013288
:1040C000E7E7664AD2F8702150780BF007FC6849A0
:1040D0000BF00CFD014658460BF010FE88B136B2CD
:1040E000022496FBF4F44C44A4B2274609E00020D5
:1040F000087002209BFBF0F009EB0004171AA4B231
:10410000BFB2049BDAF800601B6895F8009003F4D6
:1041100080530593514B0025B3F934A2D3F83832BC
:104120000493504BD3F800B04D4580F023810DAB84
:1041300033F815200FFA88F006920BF0CFFB4D4BA9
:104140002901C9580BF01EFC0BF0E2FD23B2984286
:10415000069A03DB3BB28342A8BF0346134403988D
:10416000454A9BB222F8153069001BB208B1B088ED
:1041700011E0059870B10498BBF806E0008ACEEB18
:104180000000824503DC3088BBF800E005E0BBF8A6
:10419000020000E03088B6F802E0834203DB73459A
:1041A000A8BF7346184650520135BDE7BC4206F120
:1041B0001006314B40D20FFA8AF006930BF08EFBBB
:1041C00056F8181C0BF0DEFB05900FFA88F00BF088
:1041D00085FB56F8101C0BF0D5FBDDF814C001462A
:1041E00060460BF0C7FA05900FFA89F00BF076FBEA
:1041F00056F8141C0BF0C6FBDDF814C001466046EF
:104200000BF0B8FA049B059093F9020040420BFBB7
:1042100000F00BF063FB56F80C1C0BF0B3FBDDF861
:1042200014C0014660460BF0A5FA0BF071FD069B29
:1042300023F814000134B9E71A880121B94214B2F5
:104240001ED233F9112001319442B8BF1446A2B2F4
:10425000F4E700BFA01E0020921F002044070020AA
:10426000A41E0020681100207B100020B00F002049
:104270000000C842B80800206C0500206C11002026
:10428000AF49D5F870C10968D5F83892488803EB72
:1042900047078442C8BF101AAA4AC8BF80B216682E
:1042A000A94AD8BF0020B2F90640A84A06F48058AF
:1042B000156806F010020492A54ABA425AD0138833
:1042C0001B1A9BB222F8023BB8F1000F29D09CF8D0
:1042D00000A0B9F810E0BAF1000F08D1B5F806A0B7
:1042E000CAEB0E0B5C4502DDF244544514DB744509
:1042F000CCBFB5F802E0B1F804E01BB2CCBFB1F816
:1043000002A0B5F800A0734503DB5345A8BF534690
:104310009E4622F802ECD0E77445CCBF6B882B8810
:1043200025E0039EB1F802E04EB132F902AC8B8871
:104330009A451CDBF2455346A8BF734617E0B1F817
:1043400000A01BB2534503DB7345A8BF73469A46D2
:1043500022F802ACB9F812309C42AEDA049B0BB1E1
:104360008B8804E09CF80030002BA6D10B8822F843
:10437000023CA2E777490A788B4602F0040202F079
:10438000FF0342B1744991F83C32013BDBB2182B78
:1043900000F24D810BE0714A12789342F2D27049DB
:1043A00031F813006A4921F813000133F5E70122BF
:1043B0009A406C4B1340002B00F039816A4B6248E5
:1043C0001B8813F4807F08D0684B1A88ADF834201E
:1043D0005A889B88ADF8362015E0654B1A88ADF8F1
:1043E00034205A889B88ADF83620564AADF83830CC
:1043F0001268D40409D5D1F83822B0F90640128ADF
:10440000944202DA5B42ADF838305A4D4FF47A727A
:10441000B5F902304FF4616403F5E163534393FB54
:10442000F4F3A3F5FA73ADF84C30B5F9003003F5A9
:10443000E1635A4392FBF4F2454BA2F5FA721B88F2
:10444000ADF84E20A3F2DC53ADF83A30D1F8383253
:1044500002881B8AD21AADF83C204288D21AADF8E5
:104460003E208288D21AADF84020C288D21AADF818
:1044700042200289D21AADF844204289D21AADF8FE
:1044800046208289D21AADF84820C289D31AADF8E5
:104490004A300023384A002122F813100133082B38
:1044A000F8D1364B36491B68364D0393364B1B68A3
:1044B0000493364B1B78C3EBC30301EB0308414560
:1044C00000F09D800B783BB103F11502012393406E
:1044D000039A134000F08F80049B11F806EC0E271E
:1044E00007FB0E37B7F90020B7F9023064209B1A9A
:1044F00011F9022C9BB25A4392FBF0F211F805AC71
:104500004FEA530911F8034CC9EB02024FEA4A067D
:1045100014A892B211F801CC064414B936F81C0C58
:104520000CE0B5F9000036F91C6CB04230DA0444F6
:10453000844203DBA6423046A8BF2046288030E0F4
:104540006C110020A01E0020A41E00206811002075
:104550006C050020921F0020440700207B100020E3
:10456000FC050020992098016E150020940F002072
:10457000E40F00208605002058050020701500205B
:104580007711002082090020CC0A00207011002041
:1045900007DD041BB44203DB8442A8BF0446264661
:1045A0002E80D7F80A40012000FA0AF02042B5F91F
:1045B000006011F9040C12B200FB06F04FF0640623
:1045C00090FBF6F014BF4FF0FF34012490420ADB59
:1045D0004FFA8CF25A4392FBF6F2C9EB020212B286
:1045E0008242A8BF02469D4B33F81E9002FB049402
:1045F00023F81E4000E02B80023507315FE7984B1F
:10460000984E1F6800250E2303FB057393F906409F
:1046100036F9023FE8B26343642493FBF4F4348038
:1046200004F026F901352044082D3080EBD18E4E60
:104630008A4C33688A4D13F0200F33D0002004F0E9
:1046400017F920800746012004F012F9874B60809B
:104650001B68190626D5864B864AD3F860321B782C
:10466000012B23D12968B2F9003091F914E04FF001
:10467000320C03FB0EF393FBFCF31FFA83FE91F95C
:104680000630B2F902205B4253436FF0310193FBD5
:10469000F1F193FBFCF30EEB0102B9187344218096
:1046A00018446080D5F800E0002319E0D5F800E058
:1046B000B2F902309EF906105943322391FBF3F10F
:1046C000394421809EF91470B2F9001001FB07F201
:1046D00092FBF3F21044E4E70133082BE25310D0CD
:1046E0000E2101FB03E134F91300B1F900205F0052
:1046F0009042B1F90210EFDB0AB28242A8BF024633
:10470000EAE75B4FD7F870A19AF90C30A3B997F894
:104710003C8208F1FF33182B74D8DFE803F03773BD
:1047200073517373734A73737373735B73737373BC
:1047300073516773735B3700DFF828914FF00008FF
:1047400039F9020F0BF0CAF84B4B242101FB083159
:1047500000F094FA0EF078F82A680E2303FB082282
:1047600080B2A9F80000B2F9003000B29842B2F964
:10477000022003DB13B28342A8BF034608F10108FD
:10478000B8F1080FA9F80030DAD1C0E79AF806307E
:1047900013B10020618908E09BF8003003F00403A6
:1047A00003F0FF00002BF4D1014602F015FB0125B8
:1047B00029E00020E18802F00FFB0120218905E0BB
:1047C0000020218902F008FB6189012002F004FB2E
:1047D000022518E00225A81E34F81510C0B20135D4
:1047E00002F0FAFA082DF6D106250CE00325E81EA2
:1047F00034F81510C0B2013502F0EEFA072DF6D1EB
:10480000042500E0002533689A0602D4B8F1050FAC
:104810000AD12846218802F0DFFA681CC0B26188FC
:1048200002F0DAFA0235EDB23368DB0205D497F80C
:10483000843373B103F060FF0BE0104E002428199D
:10484000C0B236F8021F02F0C7FA0D2CEFD00134C7
:10485000F5E7002015B0BDE8F08F00BF5805002037
:10486000CC0A002056050020A01E00207015002054
:104870004407002086050020A8090020AA1E002069
:104880002DE9F04F0C688DB0BB4920460EF0BEFFFD
:10489000BA49002820460CBF012507250EF0B6FFB7
:1048A000B7490028204608BF02250EF0AFFF0028B8
:1048B00008BF0425E90740F1F180B248002107F064
:1048C0009BF90020014607F0B5F9AF4CAF48002135
:1048D00007F092F9AE48002107F08EF96379AD4AEE
:1048E000013B0020AC4952F8232009F03CFBAB48C7
:1048F000002107F081F926460027D6F81480002110
:1049000040460BF0D3F928B1A548002107F074F90F
:1049100000266FE0A3493A460790D6F818B0D6F8BB
:104920001CA0D6F8209009F01EFB404600210BF099
:10493000C7F9079B18B19C48194607F05DF908A90B
:10494000404600F0E0FA002107F056F958460021F1
:104950000BF0B6F918B19448002107F04DF908A9F9
:10496000584600F0D0FA002107F046F950460021E1
:104970000BF0A6F918B18C48002107F03DF908A901
:10498000504600F0C0FA002107F036F948460021F1
:104990000BF096F918B18448002107F02DF908A909
:1049A000484600F0B0FA013702468049002009F07D
:1049B000DAFA0C2F06F110069FD1A5E794F8D5106E
:1049C00052B294F8D4300091019294F8D72000208C
:1049D000029294F9D8207649039294F9D9200734A9
:1049E000049294F8D32005923246013609F0BBFABE
:1049F000102E03D094F8D620002ADFD16D48002174
:104A000007F0FAF8604B6C4C9F6854F8042F22B101
:104A100000206A4909F0A7FAF7E71646684B53F8F1
:104A2000264054B10123B3403B4204D000206549E5
:104A3000224609F098FA0136F0E76348214607F06C
:104A4000DBF82246504B0CA9134493F890310B44E9
:104A50005E49515C0132082A03F8101CF2D100248F
:104A600008AA20465A498DF8284009F07CFA59488E
:104A7000214607F0C1F82146204608F067FC564958
:104A8000204609F070FA204603F062F953482146A7
:104A900007F0B2F82046214608F08AFBAA0748D55D
:104AA0004F48002107F0A8F84E48002107F0A4F86D
:104AB000354B002093F8E4264B4909F054FA4B4853
:104AC000002107F099F80020014608F07BFA4848D9
:104AD000002107F091F80020014608F0DDFA454872
:104AE000002107F089F80020014602F0C9FF424882
:104AF000002107F081F80020014602F0A5FD002604
:104B00000E27774300243D4A01231268A3403A440C
:104B1000D2F80A20134224D101340E2CF3D10136ED
:104B2000082EEDD100202C4909F01DFA102003F0C9
:104B30000FF96B071CD53248002107F05DF83148AA
:104B4000002107F059F8304B00201A782F4909F05E
:104B50000AFA0020204909F006FA202003F0F8F8AC
:104B600006E000202A493246234609F0FCF9D3E743
:104B700000200DB0BDE8F08FA5560108266E010893
:104B8000AC560108B25601083C170020C056010877
:104B9000D2560108F8430108DE560108E95601081B
:104BA000F656010803570108685A0108F15C01082C
:104BB0001B5701080B570108085201083A57010812
:104BC0000C5201084857010855570108AC6A010802
:104BD000615701086A57010889600108795701087F
:104BE000865701089957010801580108A75701087D
:104BF000B1570108C0570108CE570108CC0A002060
:104C0000DA570108EB5701086C150020FD57010821
:104C10000E58010870B50646B6FBF2F40846154674
:104C200014B12046FFF7F6FF05FB1464024B1B5D31
:104C300000F8013B70BD00BF25580108024B186801
:104C400003681B68184700BFD00A0020F7B514247A
:104C50004443094F3D192B89A87A00916A68194687
:104C6000002306F061FF3B5928610360EB7A437132
:104C70000120287303B0F0BD680000202DE9F04149
:104C80000C464E69CD69096807460AF07BFE6168EB
:104C9000804630460AF076FE014640460AF06AFD3C
:104CA000A1698046A0680AF06DFE014640460AF000
:104CB00061FDE168804628460AF064FE01464046F0
:104CC0000AF056FD216A804620690AF05BFE014623
:104CD00040460AF04DFDA66167612562E061BDE8CE
:104CE000F0812DE9F8430C462F4916460AF04AFE9A
:104CF000054630460AF0EEFD2C490AF043FE014617
:104D00004FF07E500AF0F2FE014628460AF0EEFE11
:104D1000064600F02DFA0546304600F09DFA24497B
:104D2000074630460AF02EFE29460AF0DFFE00F064
:104D30001FFA014628460AF025FE394606464FF07E
:104D40007E500AF015FD4FF07E51814630460AF044
:104D500011FD05464FF07C5148460AF013FE2946E6
:104D60000AF0C4FE29468046206048460AF0BEFE8E
:104D70004FF040416060C4F8088038460AF002FEF7
:104D800029460AF0B3FE3146E0604FF07E500AF04B
:104D9000EFFC29460AF0AAFE00232061A3616361AB
:104DA0002362E361BDE8F883DB0FC940BD37863578
:104DB000CA92283F2DE9F04102780346202A00F1EB
:104DC0000100F9D0092AF7D02D2A02D10346414D1E
:104DD00004E02B2A08BF03464FF07E551C460026F0
:104DE000234614F8012BA2F13007F9B209290DD896
:104DF000394930460AF0C6FD064638460AF06EFDCF
:104E0000014630460AF0B6FC0646E9E72E2A17D1DD
:104E1000314F234614F8010B3038C2B2092A0FD89B
:104E20000AF05CFD39460AF061FE014630460AF0A0
:104E3000A1FC2949064638460AF0A4FD0746E8E7E2
:104E40001A7802F0DF02452A39D15A782D2A02D188
:104E50000233012704E02B2A14BF01330233002759
:104E6000013B002413F8012F303AD1B2092903D8AD
:104E70000A2101FB0424F5E7B4F59A7F28BF4FF41B
:104E80009A74A0464FF07E53B8F1070F07D9184621
:104E900012490AF077FDA8F108080346F4E704F088
:104EA000070434B118460C490AF06CFD013C034676
:104EB000F7E719462FB130460AF018FE04E04FF02C
:104EC0007E5130460AF05EFD014628460AF05AFD42
:104ED000BDE8F081000080BF0000204120BCBE4C36
:104EE000931E232B28BF0A22031EB8BF2D2010B506
:104EF0000C46BCBF01F8010B5842FFF78BFE0023A4
:104F00000370204610BD30B5054687B00C4603A897
:104F100000210C220EF0B9FB284600210AF0EEFE1B
:104F200020B1284628490AF025FC03E028462649F6
:104F30000AF01EFC25490AF025FD0AF0E9FE0546A7
:104F400080EAE07069460A22A0EBE570FFF7C8FF2F
:104F5000002DACBF20232D2368468DF80C300EF0B9
:104F600098FC012807D130238DF80D308DF80E30D4
:104F70008DF80F300CE0022805D130238DF80D306C
:104F80008DF80E3004E0032804BF30238DF80D3077
:104F9000694603A80EF058FC03A80EF07AFC03380B
:104FA000C5B22A4603A920460EF09EFC0023635595
:104FB000204607490EF048FC03AB204659190EF075
:104FC00043FC204607B030BD6F12033A00007A441C
:104FD0004A58010880EAE073A3EBE0738B4206DBDA
:104FE000002801DD401A704702D0084470470020B5
:104FF000704770B520F00044214605464FF07E50C2
:105000000AF0B6FB0DF0E6FD1349064620460AF00D
:10501000B9FC12490AF0AEFB014620460AF0B2FC88
:105020000F490AF0A5FB014620460AF0ABFC0D49EA
:105030000AF0A0FB014630460AF0A4FC0021044619
:1050400028460AF03DFE20B1214607480AF090FBB1
:1050500070BD204670BD00BF306E99BC2716983DCC
:105060008434593EA40DC93FDB0F49402DE9F84374
:1050700021F0004520F00046074688462846314684
:105080000AF03CFE08B9344600E02C4620460021D8
:105090000AF00CFE60B9284631460AF011FE08B944
:1050A000304600E0284621460AF020FD044600E094
:1050B0000024204625490AF065FC25490AF058FBE2
:1050C00021460AF05FFC23490AF052FB21460AF010
:1050D00059FC21490AF04CFB21460AF053FC1F49B8
:1050E0000AF046FB1E4900F1004920460AF04AFC3E
:1050F0001C490AF03FFB21460AF044FC4FF07E5168
:105100000AF038FB014648460AF0F0FC29460446FE
:1051100030460AF0F3FD20B1214613480AF028FB7F
:105120000446404600210AF0CBFD20B121460F483D
:105130000AF01EFB0446384600210AF0C1FD08B102
:1051400004F100442046BDE8F88300BF39094E3D14
:10515000E3B59E3E88FA163E45FE7F3FA7DFA834A2
:1051600099FB243F69A2163EDB0FC93FDB0F494084
:1051700070B504460AF0CCFD2030402857D82046B0
:105180002C490AF0BBFD28B120462B490AF0F0FA61
:105190000446F4E7204629490AF092FD28B120464A
:1051A00025490AF0E7FA0446F4E7204624490AF0C4
:1051B000A5FD30B1224920460AF0DAFA014620481E
:1051C0000AE020461F490AF07BFD40B11C492046F9
:1051D0000AF0D0FA01461B480AF0CAFA04462146F2
:1051E00020460AF0CFFB0546204629460AF0CAFBB6
:1051F0001549064628460AF0C5FB14490AF0B8FAD4
:10520000014628460AF0BEFB11490AF0B3FA0146EE
:1052100028460AF0B7FB0F490AF0AAFA01463046C1
:105220000AF0B0FB014620460AF0A4FA70BD002047
:1052300070BD00BFDB0F4940DB0FC940DB0F49C029
:10524000DB0FC93FDB0FC9BF9A7C2E36FAAF4F394F
:105250003587083CA4AA2A3E08B503490AF08AFA11
:10526000BDE80840FFF784BFDB0FC93F064B10B510
:105270001A881C4622EA00009042188002D00120C1
:1052800008F0F0F9208810BD6E150020064B10B50F
:105290001A881C4610439042188002D0012008F062
:1052A000E1F9208810BD00BF6E15002008B5104B35
:1052B0001A780023D9B2914207D20E49002051F842
:1052C0002310013309680880F4E7322003F027F93E
:1052D000094B1B685A0309D5084B9B685B0305D42F
:1052E000BDE8084040F2DC5003F019B908BD00BF2A
:1052F0007B10002098100020A01E00203C170020EA
:1053000010B50E4C206808F01FF920680022047ABE
:1053100002FB02F3193B634303F6C4135343192101
:1053200093FBF1F3064921F812300132072AEFD13D
:10533000BDE81040034908F0BEB800BFA405002036
:1053400074080020801800200E4B1A786E2A16D19F
:1053500040F20C725988914211D11A79BE2A0ED1AD
:1053600093F80A270020EF2A0BD113F8012B5040A5
:10537000054A9342F9D1B0FA80F040097047002005
:105380007047704700F001080CF701082DE9F34160
:1053900009F0AEF84B4A6E23137040F20C73538041
:1053A000BE231371EF2382F80A37002319461646ED
:1053B00082F80B37F25C0133514040F20C72934299
:1053C000F8D1404B404A83F80B17404B04275A60F2
:1053D00002F188325A600020013F17F0FF075ED0CB
:1053E0003A4B34223A4CDA6004F17848A8F5F838A0
:1053F000C8F3090353B100234FF4005056F8088056
:10540000019308F0EBFE0428E6D11CE04FF43020B5
:1054100008F0E4FE0428DFD12C4D4FF430202B6936
:1054200043F002032B616C612B6943F040032B6155
:1054300008F0D4FE41F6FD732A69042803EA02034A
:105440002B61D8D0C8E7214D4FF400502B6943F0B1
:1054500001032B611FFA88F3238008F0BFFE0428A4
:1054600013D1A31C0193019B4FEA1848A3F80080B5
:105470004FF4005008F0B2FE41F6FE732A6904288A
:1054800003EA02032B6106D0A6E741F6FE732A6900
:1054900013402B61A0E70F4B04349C42A4D10B4A6C
:1054A0000428136943F08003136102D1FFF74CFF16
:1054B00010B9052008F00EF909F006F802B0BDE8B1
:1054C000F08100BF3C170020230167450020024007
:1054D00000F001080CF701082DE9F041FFF734FF57
:1054E00010B9042008F0F6F8AB4C09F001F8AB490C
:1054F00040F20C7220460EF0BDF894F8E4364FF4FA
:10550000CC71022B84BF002384F8E43694F8E4269F
:10551000A34D01FB02F3E01800F507702344286057
:1055200093F87C0201FB0242022803F51E7384BF3C
:105530000020187192F87C329A4A13700C2202FBF8
:105540000343994A03F2E663136046F20902A36833
:105550001A401AB9904A43F400539360A368DE07D7
:1055600041BF8D4A23F4C04323F008039360A3682E
:10557000580441BF884A23F4005323F00903936081
:10558000A368190741BF844A23F4C04323F00103F1
:105590009360A3689A0441BF23F480437E4A23F0BA
:1055A0000903936094F8EA217B4B2AB193F8F02128
:1055B00012B1002283F8F0214FF0000C67467B4EB9
:1055C0007B4B1E6004EB0C03B3F806E24FEA5E016E
:1055D00001F077314FEA9E0303F03333C1EB0E0045
:1055E000C11A4FEADE0303F01133CB1A03EB231386
:1055F00003F00F32FF2392FBF3F31EF00108C3EB1D
:10560000032318BF0137A2EB030318BFFFB2012B1E
:105610000ADD022B40F0BC80B8F1000F00F0B8802A
:105620001EF0BC0F00F0B4800CF1080CBCF1180F98
:10563000C8D1013F012F00F2AB80FFF761FE0021CE
:1056400030225C480EF021F85B4F5C4BD5F80080AF
:105650001F605B4B08F18500C3F8008008F0CCFCAC
:10566000584B80F001001870574B07F12C0119605E
:10567000D4F86C21554B1A6098F8000003F0ACF98F
:10568000534B94F8E01107F19C021A6064224A43DC
:10569000504BC8325A6000229A60DA601A615A612F
:1056A0009A61DA6183F8202083F821204A4B2D6823
:1056B00007F132021A60494B05F225121A60484B75
:1056C00005F295121A60474B07F108021A60464B23
:1056D000DFF854811F60454B07F1AC021A6007F1F7
:1056E000BC03C8F80430424BB4F864011E600AF0F1
:1056F000F5F840490AF0FAF9C8F81000B4F8660164
:105700000AF0ECF83B490AF0F1F995F8683008F135
:10571000080288F8083095F88430C8F80C0088F83A
:10572000093094F8ED31E86E88F81430324BC8F83F
:1057300018501A60314B05F170021A6030490AF0B6
:1057400021F901464FF07C500AF0D0F9B5F822411A
:105750002C4B186020460AF0C1F801462A480AF08E
:10576000C5F92A490AF00EF9294A2A4B15602A4A36
:10577000186005F174031360284A05F21D151560C1
:10578000274A1760274ABDE8F041136008F09CBE25
:1057900008F0FEFB51E700BF3C17002000F00108B5
:1057A000680500206C150020A4050020CC180020FE
:1057B0009C1E00200C07002080180020F805002007
:1057C000501E002010000020CC07002054070020AD
:1057D00084140020D41E0020401F0020CC0A00208A
:1057E000A4090020681100206C110020B4080020DA
:1057F0007C09002000401C4628080020700800207A
:10580000DB0F49406C080020000061444C3D0F4410
:105810000C140020B0080020FC130020A408002075
:10582000AC080020AC130020D00A002008B5FFF718
:10583000ADFDFFF751FEBDE80840012007F012BFA3
:105840002DE9F74FE94C002140F20C7220460DF093
:105850001CFFE74B04F507721A60E64B00221A7032
:10586000E54B04F2E6611960032363714FF4817321
:10587000A36040F6C413A4F86431012384F86831AE
:1058800084F8623184F8843184F88C3184F8993159
:1058900040F2DC53A4F8A03140F24C43A4F8A2310A
:1058A00040F26C73A4F8A43140F27533A4F8A63129
:1058B00040F64303A4F8A83123466E21217084F8F2
:1058C00082110A21CD4884F883112B2184F8851197
:1058D0002121C4F86C0184F886114FF4FA70232159
:1058E000A4F8740184F8871120204FF4C87184F85B
:1058F0007001A4F88811032ACCBF0121002102F114
:10590000010283F8AA1114BF1E210521122A83F86F
:10591000AB1103F10203EED1052384F8EC314FF013
:10592000C803A4F8F431B64B40F2DC50C4F8F831A7
:1059300040F27E43A4F8443140F23A73A4F8463171
:1059400040F27E53A4F84C3140F2EA53A4F84E31B1
:1059500040F2B45301264FF47A774FF4FA654FF0D2
:10596000320B4FF01E0A4FF01909A4F850314FF4D2
:10597000C87384F89CA1A4F8D051A4F8D451A4F819
:10598000D851A4F8DC5184F8ED9184F8F1B1A4F871
:105990004A010190A4F852B1A4F85431A4F856B1C8
:1059A000A4F8CE71A4F8D271A4F8D671A4F8DA7173
:1059B00084F8EB6184F8F06184F8F26184F8F661B0
:1059C00084F80062A4F8487108F0E2FA884B4FF0BE
:1059D000220E1B6866742674E673A58183F806E0C0
:1059E0004FF00E0E83F810E04FF0350E83F81AE0FA
:1059F0004FF0210E83F811E04FF0530E83F81BE0B7
:105A00004FF0140E172283F808E04FF0780E5A7505
:105A10009A7583F80AE05522DFF808E200254FF076
:105A2000280883F80BA083F80CA0DA704FF00A0A5C
:105A30002D220F2183F807904FF064095A7383F8E1
:105A400004B01A751E7083F8018083F80280DD753A
:105A50009D731D765971DD735D7683F812A083F80E
:105A60001C9083F809804FF4FA729E77C3F838E0EF
:105A7000C3F83CE0DFF8B0E1A3F84E2000221A653D
:105A8000C3F828E05F4ADFF8A4E1DA621A635A63D8
:105A9000C3F848E05C4A4FF04B0E83F84CE04FF4FB
:105AA000E17E1A64A3F85CE0DFF884C1574A4FF046
:105AB000100E83F85EE001984FF05A0E5A6483F896
:105AC0005460C3F820C0C3F824C083F855A083F8FD
:105AD00056A083F857A083F8589083F8599083F81C
