:020000040800F2
:10000000005000204D020108E9020108C5EC00087B
:10001000E9020108E9020108E90201080000000004
:10002000000000000000000000000000E9020108DC
:10003000E902010800000000E9020108279C00080D
:10004000E9020108E9020108E9020108E9020108E0
:10005000E9020108E9020108B5840008B18400083A
:10006000E9020108E9020108E9020108E9020108C0
:1000700099D6000889D6000859A90008E9020108A4
:1000800079D6000869D60008E9020108E9020108EA
:10009000E9020108E9020108E9020108AD8400084B
:1000A000E902010879A70008E902010889A7000808
:1000B0006DA700085DA700084DA700089D56000821
:1000C000A15600089556000899560008E902010853
:1000D000E90201084DA9000841A9000835A9000856
:1000E0008D9D0008E9020108E902010800000000F6
:1000F0000000000000000000000000000000000000
:0C01000000000000000000005FF808F1A3
:10011000838F828D2DE9F0479A4288BF0387038F32
:10012000A0B0838724238DF800304D238DF8013053
:100130003E2300F124078DF802300B7804460D466B
:1001400000263846694605228DF803608DF8043094
:100150000EF010F930B19DF80430A4F84A6084F82C
:10016000483008E0A38F2387A38DA387DC4B1A7840
:100170000AB904221A702E784F2E00F0F58500F28D
:10018000B180342E00F0F78343D8222E00F0D083C4
:1001900013D8032E00F0B28107D8012E00F0888119
:1001A000022E40F0B386002590E1042E00F0B481C9
:1001B000052E40F0AB860025BEE1282E00F0C1845C
:1001C00017D8242E00F0B784262E40F09F86C54D08
:1001D0002046B5F85C1105F0A1FEB5F85E11204689
:1001E00005F09CFE2046B5F8601105F097FE00F082
:1001F00039BE2C2E00F0D084322E00F02C852A2E11
:1002000040F08486B74B2046597905F0B1FE00F0E6
:1002100029BE422E00F0328531D83A2E00F0778286
:100220001CD8362E00F05285382E40F06F86AD4D2A
:10023000204695F8821105F09BFE95F88611204620
:1002400005F096FE95F88511204605F091FE2046B2
:1002500095F8871105F08CFE00F004BE3D2E00F0ED
:100260008F82402E00F0FE843B2E40F04F869E4B46
:1002700020461B6C197805F07BFE00F0F3BD472E7D
:1002800000F03E851ED8452E00F08385462E40F0B6
:100290003D860CF077F8954D40F00201C9B220463A
:1002A00005F066FE2988204605F008FEE96820462C
:1002B00005F004FE0AF010FA0146204605F0FEFDA6
:1002C00000F0D0BD4B2E00F08C844D2E00F0ED8060
:1002D000492E40F01B86834B2046998905F01EFE6F
:1002E00000F0C0BD722E00F0AE8370D8682E00F012
:1002F000E98142D8642E00F03B810BD8502E00F0EB
:100300002285522E40F002862046002105F030FE64
:1003100000F0A8BD662E00F03E8100F26D81744BA6
:10032000714D1988204605F0F9FD2988204689B2CB
:1003300005F0F4FD6B682046C3F3C001C3F38002EF
:10034000890041EA4201C3F340021143C3F3401262
:1003500041EAC20103F01003194305F0DFFD0CF080
:1003600025FD0146204605F0A9FD5E4B204693F889
:10037000E41605F0FDFD00F075BD6D2E00F0BC81AA
:100380001BD8692E00F0A9816C2E40F0BF85564D18
:100390002046B5F85E1005F0C1FDB5F860102046A6
:1003A00005F0BCFDB5F962300A2193FBF1F120465E
:1003B00089B205F0B3FD00F055BD6F2E00F0EC8161
:1003C000C0F0AB81702E00F02F8200F09FBD7D2E1B
:1003D00000F0078516D8752E00F0A48207D8732E7A
:1003E00000F08583742E40F09185002503E3782E7C
:1003F00000F009817C2E00F0DE84772E40F08685A7
:10040000002516E3A02E00F0868337D87E2E00F05C
:10041000FA84962E40F07A85354B334D1988204664
:1004200005F07CFD2988204689B205F077FD6B68D0
:100430002046C3F3C001C3F38002890041EA4201B0
:10044000C3F340021143C3F3401241EAC20103F077
:100450001003194305F062FD0CF0A8FC014620468C
:1004600005F02CFD1F4B204693F8E41605F080FDA7
:100470002046297B05F052FD00F0F4BCF12E00F07F
:10048000F780FE2E00F03C83F02E40F03F85164BA7
:1004900020461D6CB5F8661005F040FD2046B5F805
:1004A000641005F03BFD00F0DDBC124D0026B8E302
:1004B0002046002105F05CFD3146204605F058FD40
:1004C0002046102105F054FD00F0CCBC0A4B20461C
:1004D000595D013505F04CFD042DF7D100F0C2BC8B
:1004E000141F0020B416002020050020000000206A
:1004F000101F00205E1800208E54010820460121A4
:1005000005F036FD20460C2105F032FD2046022183
:1005100005F02EFD00F0A6BC0025B44B2046595D29
:10052000013505F025FD042DF7D1B14B2046197892
:1005300005F0F4FC00F096BCAE4B2046595D013549
:1005400005F016FD0B2DF7D10025AB4B2046595D6C
:10055000013505F00DFD082DF7D10025A74B2046EC
:10056000595D013505F004FD072DF7D100F07ABC87
:100570002046E72105F0FCFCA14B2046597905F007
:10058000F7FC2046002105F0F3FC2046042105F08D
:1005900095FC00F067BC9B4B0025B3F8AA30B3F57F
:1005A000806F8CBF08260126974B204633F9151023
:1005B000013591FBF6F189B205F0B0FC032DF3D1C2
:1005C0000025924B53F825000FF044FB013581B212
:1005D000204605F0A3FC032DF3D100258C4B53F8E6
:1005E00025000FF037FB013581B2204605F096FC5F
:1005F000032DF3D100F036BC20468649102205F0C9
:1006000031FC00F02FBC4FF00008834B20461D6CDE
:100610000E2303FB0855B5F8251105F07FFCB5F84E
:100620002711204605F07AFCB5F82911204605F07F
:1006300075FC95F82B11204605F09AFC95F82C11C5
:10064000204605F095FC95F82D11204605F090FC0C
:1006500095F82E11204605F08BFC08F10108204684
:10066000D5F82F1105F02AFCB8F1080FCDD1F9E328
:10067000634D05F1700695F8D410204605F078FC1E
:1006800095F8D510204605F073FC95F8D610204655
:1006900005F06EFC95F8D710204605F069FC95F83A
:1006A000D810204605F064FC95F8D910204605F0D6
:1006B0005FFC073595F8D310204605F059FCB5428C
:1006C000D9D1CFE30025554B204633F8151001351D
:1006D00005F024FC082DF6D1C4E300254E4B93F819
:1006E0005C309D4280F0BE834D4B204633F81510A0
:1006F00005F014FC0135F1E7474D2046696E05F021
:10070000DDFB2046B5F8681005F008FCAAE3424B73
:100710002046D96E05F0D2FBA4E34FF6FF76414B9D
:100720003D4D19882046FF29A8BFFF21C9B205F019
:100730001FFC296F2046B142A8BF314621EAE17172
:1007400089B205F0EBFBB5F87410204605F0E6FB26
:100750002B4BA96F93F88D315BB10A235943B142FA
:10076000A8BF314621EAE171204689B205F0D6FBE7
:1007700078E301F30F01204689B205F0CFFB71E366
:100780001F4D204695F8EC1105F0F2FB204695F838
:10079000EB1105F0EDFB65E31F4B2046DD6F29787B
:1007A00005F0E6FB2046697805F0E2FBEE1C05F15A
:1007B000060816F8011F204605F0DAFB4645F8D179
:1007C000E979204605F0D4FBA978204605F0D0FB56
:1007D000E978204605F0CCFB6989204605F09EFBB0
:1007E0002046297A05F0C4FB3CE300BF935401087E
:1007F000131F002098540108A4540108AD540108A7
:10080000B4160020BC0D0020300500203805002063
:10081000440500205005002020050020640500202C
:100820001C1E0020101E0020D14B1D6C98462A78FB
:10083000022A65D105F11C06283556F8040FCD496A
:100840000FF01CF811F07EFF80F30801C9B22046BA
:1008500005F08EFBC849F0680FF010F811F072FF38
:1008600080F30801C9B2204605F082FBC349B06994
:100870000FF004F811F066FF80F30801C9B22046BA
:1008800005F076FBAE42D8D10325072DD8F840609D
:1008900022D1B849706C0EF0F1FF11F053FF80F3D4
:1008A0000801C9B2204605F063FBB249B06C0EF0F6
:1008B000E5FF11F047FF80F30801C9B2204605F0BB
:1008C00057FB96F84C000EF081FF11F03BFF80F3D0
:1008D0000801C9B220460DE02E447178204605F08B
:1008E00047FBD8F8403020462B44D97A05F040FB2E
:1008F0002046717D013505F03BFB0A2DC5D1B1E2E3
:1009000005F10A0615F8011F204605F031FBA97A0A
:10091000204605F02DFB2046297D05F029FBB54238
:10092000F0D19FE2204696492F2205F09BFA99E2EA
:1009300000268F4B0C211D6C914B05EB860595F81D
:100940008520204601FB023393F8381005F010FB98
:1009500095F88610204605F00BFB95F88710204689
:1009600005F006FB0136204695F8881005F000FBDF
:10097000142EDED176E200267D4B20461D6C062328
:1009800003FB065595F8DA1005F0F2FA95F8D51044
:10099000204605F0EDFA95F8D610204605F0E8FA65
:1009A00095F8D710204605F0E3FA95F8D8102046C0
:1009B00005F0DEFA0136204695F8D91005F0D8FA90
:1009C0000C2ED9D14EE201311D2913D00C2202FB8D
:1009D00001F36B4800F1300E13F80E20B242F2D151
:1009E00003445E6B304612F0D2FE314682B220469E
:1009F00005F038FA01355E4B93F89C20954280F261
:100A000031828033EE5C0021E0E701311D290FD0F7
:100A10000C2202FB01F35A4800F1300E13F80E20AD
:100A2000B242F2D1034493F83810204605F0A0FA00
:100A300001354F4B93F89C20954280F01382803310
:100A4000EE5C0021E4E74F4D2046B5F8A01105F01B
:100A500065FAB5F84411204605F060FAB5F846117C
:100A6000204605F05BFAB5F84811204605F056FA25
:100A7000B5F8E211204605F051FA2046002105F0B4
:100A800077FA2046002105F073FA2046002105F090
:100A90006FFA95F88D11204605F06AFA95F89B11CA
:100AA000204605F065FA2046002105F061FA304B3A
:100AB0000A211B6C2046B3F9623093FBF1F189B235
:100AC00005F02CFA95F88211204605F051FA95F8B8
:100AD0008611204605F04CFA95F88511204605F060
:100AE00047FA204695F8871105F042FABAE1012548
:100AF000E9B22046013505F03BFA092DF8D1B1E104
:100B00000025214B204633F81510013505F006FA73
:100B1000042DF6D1A6E11D4B2046196805F0CEF94B
:100B20001B4B2046196805F0C9F91A4B2046196875
:100B300005F0C4F996E1134B2046996805F0BEF91B
:100B400090E1104D2046B5F8881105F0E7F9B5F8A9
:100B50008A11204605F0E2F995F88C11204605F03F
:100B600007FA2046B5F88E1105F0D8F97AE100BFF2
:100B700020050020000020410000C84200007A4407
:100B8000DC390108B4160020BE050020E8F7FF1F7D
:100B9000ECF7FF1FF0F7FF1FD64D204695F8981190
:100BA00005F0E6F9B5F8A411204605F0B7F9B5F857
:100BB000A011204605F0B2F9B5F8A211204605F0C3
:100BC000ADF995F89A11204605F0D2F9B5F8A611BD
:100BD000204605F0A3F92046B5F8A81105F09EF9C6
:100BE00040E1C44D204695F8E01105F0C1F995F8B3
:100BF000E111204605F0BCF9B5F8E211204605F0F8
:100C00008DF995F8E411204605F0B2F9B5F8E61132
:100C1000204605F083F9204695F8E81105F0A8F97B
:100C200020E1B54B023593F85C309E4280F01A818A
:100C300015F8021C204605F09BF915F8011C20460A
:100C400001EB810101EB810101F2EE2189B205F096
:100C500065F90136E5E7A74B204693F89B1105F0AF
:100C600087F9FFE00025A34B20462B4493F8901111
:100C7000013505F07DF9082DF5D1F3E09D4D2046B5
:100C8000697905F075F9A968204605F017F995F816
:100C90009811204605F06CF9B5F85C11204605F076
:100CA0003DF9B5F85E11204605F038F9B5F8601148
:100CB000204605F033F9B5F88811204605F02EF9E5
:100CC0002046B5F88A1105F029F9CBE0894D05F1E8
:100CD0001806894A95F8041292F9A8004BB2984276
:100CE00000F0EA8092F9B400984200F0E58092F9B1
:100CF000C0209A4200F0E0800835B542E9D1B1E069
:100D0000284605F05BF906462046314605F0D6F840
:100D10007A4BDD6806F18003AB428CBFAD1B8025AA
:100D200009F028FC30462A4669460BF05FFB064670
:100D30000025B54280F296801DF80510204605F08A
:100D400017F90135F5E72046002105F011F9204695
:100D5000002105F00DF92046002105F009F9204693
:100D6000002105F005F97DE02046002105F000F99D
:100D70002046002105F0FCF82046002105F0F8F897
:100D80002046002105F09AF82046002105F096F84B
:100D900068E000255A4B2046595D013505F0E8F81A
:100DA0000B2DF7D12046002105F088F820460021C0
:100DB00005F084F856E04F4D2046B5F84C1105F08B
:100DC000ADF8B5F84E11204605F0A8F8B5F8501169
:100DD000204605F0A3F82046B5F8521105F09EF81C
:100DE00040E0454B20461D6C95F81D1105F0C0F8FC
:100DF00095F81E11204605F0BBF8204695F81F1106
:100E000005F0B6F82EE03B4D204695F8581105F058
:100E1000AFF895F85911204605F0AAF8204695F844
:100E20005A1105F0A5F81DE0C0F04684D02E00F060
:100E30005184D22E40F09980324B1B7803F004038A
:100E400003F0FF0173B9AB6813F8012BAB60294BBA
:100E5000022A94BF83F8E42683F8E41606F0C8F962
:100E600006F06CFAA38FA18D033393FBF1F201FB23
:100E70001233B4F84A10626B3846D15494F84810D3
:100E800094F84A30594084F848100DF09FFAA38D29
:100E900030B1A3876368186A0CF0E6FF00F09BBDD1
:100EA000A28FA387184B22871A78002A40F09385D7
:100EB00004221A7000F08FBD204605F059F8B5F8ED
:100EC0000612204605F02AF895F80812204605F08B
:100ED0004FF895F80912204605F04AF895F80B12DC
:100EE000204605F045F8204695F80A1205F040F82E
:100EF00002E700BFB41600202005002000000020FB
:100F000098540108121F0020141F00204E2E5BD1A0
:100F1000AB681A4612F8018BB8F1110FAA6024D8F9
:100F2000C64E5A7808F1D4080233AB6006EB48038A
:100F30009A70284605F051F840F2ED23984205DDFD
:100F400040F6CA039842A8BF184601E040F2EE20DE
:100F5000A0F2EE20192390FBF3F006EB4806F070A8
:100F600080E701311D2940F0BE80A38FA28D0026AD
:100F70009A4288BF2387238F3846A38724238DF87E
:100F800000304D238DF8013021238DF802302B786D
:100F9000694605228DF803608DF804300DF0EAF9FA
:100FA00030B19DF80430A4F84A6084F8483059E71D
:100FB000A38F2387A38DA387A14B1A78002A7FF4E0
:100FC00051AF04221A704DE700F2FE81372E3CD15A
:100FD0006B780726B3FBF6F6C6EBC6029B1A13F036
:100FE000FF0FC2D1F6B2013EF6B2FF2E3FF43AAF88
:100FF000AB6813F8018B5FFA88F8AB604FFA88F0A2
:101000000CF072F981460028AFD080F800802846A5
:1010100004F0E3FFAB68A9F8020013F8012BAB6002
:1010200089F80420AB6813F8012BAB6089F8052020
:10103000AB6813F8012BAB6089F80720AB6813F895
:10104000012BAB6089F80620CDE700F20581292E3F
:1010500016D1284604F0C1FF784EA6F8880128462C
:1010600004F0BBFFAB68A6F88A0113F8012B2846F1
:10107000AB6086F88C2104F0B0FFA6F88E01F1E693
:1010800063D8252E09D16D4E00232846B36004F0A5
:1010900095FFB3681843B060E4E6272E10D12846C8
:1010A00004F09BFF654EA6F85C01284604F095FF0E
:1010B000A6F85E01284604F090FFA6F86001D1E68C
:1010C000232E7FF452AFAB681A4612F8016B132E31
:1010D000AA603FF64AAF5B4A93F801809646023316
:1010E000106CAB6000210C2202FB01F3DFF864C13D
:1010F0000CEB030292F8382042457FF432AF634490
:1011000093F8303000EB860282F88530AB6813F834
:10111000011BAB6082F88610AB6813F8011BAB6053
:1011200082F88710AB6813F8011BAB60464B82F85E
:101130008810CEF8D030454B186085300CF08EFB0F
:10114000434B80F0010018748CE62D2E2AD1AB6839
:101150003A4E13F8012B2846AB6086F8982104F02C
:101160003CFFA6F8A401284604F037FFA6F8A0012A
:10117000284604F032FFAB68A6F8A20113F8012B51
:10118000AB6086F89A216B78082B7FF66BAE284609
:1011900004F023FFA6F8A601284604F01EFFA6F8D7
:1011A000A8015FE609D82B2E7FF4DFAEAB6813F8F9
:1011B000012BAB60214B5A7154E6332E07D1AB683B
:1011C00013F8012BAB601D4B83F89B214AE6352EAB
:1011D0007FF4CBAEAA68134613F8011B0B29AB6052
:1011E0003FF6C3AE5078174B023203281B6CAA603F
:1011F0003FF6BBAE062202FB013383F8DA00AA6891
:1012000012F8011BAA6083F8D510AA6812F8011B16
:10121000AA6083F8D610AA6812F8011BAA6083F8A6
:10122000D710AA6812F8011BAA6083F8D810AA6820
:1012300012F8011BAA6083F8D91013E6B416002037
:10124000141F002020050020F8170020C81D0020D2
:1012500000000020DC390108432E2DD1AB68AB4ED5
:1012600013F8012B2846AB6000237271B36004F0C1
:10127000A5FEB3681843AB68B06013F8012B28468D
:10128000AB6086F8982104F0A8FEA6F85C01284619
:1012900004F0A3FEA6F85E01284604F09EFEA6F820
:1012A0006001284604F099FEA6F88801284604F05B
:1012B00094FEA6F88A01D5E549D83C2E09D1944B75
:1012C0001A6CAB6813F8010BAB60107008F0FEFEEF
:1012D000C8E51CD8392E7FF448AEAB6813F8012B53
:1012E000AB608A4B83F88221AA6812F8011BAA60BE
:1012F00083F88611AA6812F8011BAA6083F8851189
:10130000AA6812F8011BAA6083F88711AAE53E2E8D
:101310000DD1AB687D4A13F8011BAB6082F8EC116C
:10132000AB6813F8011BAB6082F8EB119AE5412E14
:101330007FF41BAE0023AA6812F8011BAA60734A4F
:101340001A440133082B82F89011F4D18AE5482E13
:1013500002D109F0D5F985E507D8442E7FF405AE12
:101360006B4B012283F8EF207CE54A2E05D12846FD
:1013700004F033FE654B988174E54C2E7FF4F5AD97
:10138000AB68624E13F8012B2846AB6086F8E0216B
:10139000AB6813F8012BAB6086F8E12104F01DFE69
:1013A000AB68A6F8E20113F8012B2846AB6086F87B
:1013B000E42104F012FEAB68A6F8E60113F8012B55
:1013C000AB6086F8E8214DE5D32E06D1284604F01F
:1013D00004FE4F4BA3F8CC0044E500F28881CD2EEB
:1013E0000AD14C4B1B7859073FF53CAD484B4FF4A5
:1013F000C872A3F8EC2035E500F20581CA2E40F052
:101400009180434A136C92461978022969D103F1FD
:101410001C0903F12806D5F80880434613F8010B90
:10142000AB600EF0D3F93C490EF0DCFA08F1020390
:1014300049F8040F98F80100AB600EF0C7F937497E
:101440000EF0D0FA08F10303C9F80C0098F8020076
:10145000AB600EF0BBF932490EF0C4FAB145C9F8E1
:101460001800D8D1DAF840904FF0030809F1040AC7
:10147000B8F1070FAE681AD1334613F8010BAB6011
:101480000EF0A4F924490EF0ADFAB31CC9F84400DB
:101490007078AB600EF09AF91F490EF0A3FAC9F804
:1014A0004800B3780336AE6089F84C3011E016F886
:1014B000013BAE608AF80030AB6813F8012BAB60DB
:1014C00009EB0803DA72AB6813F8012BAB608AF8FA
:1014D000142008F10108B8F10A0F0AF1010AC7D176
:1014E000C0E403F10A01AA6812F8010BAA6003F82C
:1014F000010FAA688B4212F8010BAA609872AA68C1
:1015000012F8010BAA601875EDD1ABE4B4160020F7
:1015100020050020121F0020000020410000C842CA
:1015200000007A44CC2E42D16B78092B7FF61DAD9A
:10153000AE4BDE6FAB68F01C13F8012BAB60327062
:10154000AB6813F8012BAB6072700023A968022B03
:1015500011F8012B03F10103A9600CBFFF216421E5
:101560008A42A8BF0A46032B00F8012FEED1AA68D1
:10157000284612F8013B642B28BF6423AA60F3714C
:10158000AB6813F8012BAB60B270AB6813F8012B9A
:10159000AB60F27004F021FD70816B780A2B7FF64E
:1015A00061ACAB6813F8012BAB6032725AE4C82E01
:1015B0007FF4DBAC6E787608122E3FF6D6AC4FF097
:1015C0000008B04507D2284604F007FD2DF81800A2
:1015D00008F10108F5E732460023B34206DA3DF888
:1015E0001300834921F813000133F6E7122A05D0CE
:1015F0007F4B002123F812100132F7E77B4B0122C9
:1016000083F8CE202EE4CF2E7FF40EAC284604F0D3
:10161000E4FC6FF4AF6683199BB2764EC62B98BF7D
:10162000A6F8A001284604F0D8FCA6F844012846F4
:1016300004F0D3FCA6F84601284604F0CEFCA6F838
:101640004801284604F0C9FCAB68A6F8E201DA1CA0
:10165000AA60DA780433AB6086F88D21AB6828463F
:1016600013F8012BAB6086F89B21AB680133AB60AC
:101670005E4BD3F8408004F0B0FC00EB8000AB6818
:101680004000A8F8620013F8012BAB6086F88221B5
:10169000AB6813F8012BAB6086F88621AB6813F8B2
:1016A000012BAB6086F88521AB6813F8012BAB608A
:1016B00086F88721FFF7D6BB4F4B1B785A073FF5BB
:1016C000D1AB4A4A92F8EE3043F0040382F8EE3090
:1016D000FFF7C8BB484B1B7858073FF5C3AB05F075
:1016E000E1FF05F085FD05F029FEFFF7BBBBDB2E12
:1016F0006BD13E4B1E211B6C2826D97219733221E7
:1017000019710F215971222199710E2119743521F6
:1017100099761921D9712121012517224FF02D0E1B
:101720005E709E7059745E72532178261D705A75D2
:101730009A7583F80DE05522D9769E72142183F8AC
:1017400014E09D774FF4FA7683F85450DFF8C8E040
:101750002A4D0A20DA70197200226421A3F84E6023
:101760000026DA759A731A76DA735A761E659874BB
:101770001977C3F820E0DD621D635D63204D214EC3
:101780001D64214D9E635D64204DDE6383F85B2004
:101790001F4E4FF4E1729D64A3F85C204B2510228C
:1017A000C3F824E09E6283F84C5083F8550083F818
:1017B000560083F8570083F8581083F8591083F8BF
:1017C0005A1083F85E20FFF74DBB00F29C80D62EA6
:1017D00024D10026284604F000FC0E4B23F8160006
:1017E0000136082EF6D1FFF73DBB00BF20050020D3
:1017F00078160020B4160020121F0020CDCCCC3E5D
:101800000AD7233C8FC2F53C0000A04000004040B6
:1018100000006040F40500203333B33F41D8D42E9C
:101820007FF4A3AB6B780F2B7FF49FABAB6813F8FF
:10183000018BB8F1070FAB603FF697AB674B2846BB
:101840001E6C04F0CAFB0E2303FB0866A6F82501F4
:10185000284604F0C2FBA6F82701284604F0BDFB89
:10186000AB68A6F8290113F8012B2846AB6086F86F
:101870002B21AB6813F8012BAB6086F82C21AB68E9
:1018800013F8012BAB6086F82D21AB6813F8012B00
:10189000AB6086F82E2104F091FBC6F82F01FFF70C
:1018A000E1BAD92E16D1284604F097FB4C4EA6F883
:1018B0004C01284604F091FBA6F84E01284604F09E
:1018C0008CFBA6F85001284604F087FBA6F85201CD
:1018D000FFF7C8BADA2E7FF448ABAA683F4B12F87C
:1018E000011B1B6CAA6083F81D11AA6812F8011B6A
:1018F000AA6083F81E11AA6812F8011BAA6083F877
:101900001F11FFF7AFBAEF2E0DD1344B28461E6CD6
:1019100004F063FBA6F86600284604F05EFBA6F818
:101920006400FFF79FBA18D8DC2E7FF41EABAB68BB
:101930001A4612F8011B981CAA60294A033382F840
:10194000581113F8021CA86082F8591113F8011CF1
:10195000AB6082F85A11FFF785BAF22E31D1AA682E
:10196000114611F8013B0F2BA9603FF6FEAA5178F2
:101970000232AA601B4AC3EBC30313441971AA685D
:1019800012F8011BAA605971AA6812F8011BAA601B
:101990009971AA6812F8011BAA60D971AA6812F895
:1019A000011BAA601972AA6812F8011BAA60597279
:1019B000AA6812F8011BAA60997208F0ABFAFFF747
:1019C00051BAFA2E7FF4D1AA074B1B785B073FF57B
:1019D000CCAAFFF743BA20B0BDE8F087200500206D
:1019E000B416002084170020121F00202DE9F04FAC
:1019F0009D4F8BB007F018F93B6813F480420AD072
:101A00009A480021027832B1994A01700120107081
:101A1000984A1170C822D80703920CD5944A51787D
:101A20009078884207D00120D070924800249170AD
:101A3000642244700392990409D500238E4A32F837
:101A40001320002A41F0538001330C2BF6D1039B65
:101A500023B9874B9DF80C201A70DA70874B884A9F
:101A60001D7811680492C5B1864A1268914240F20D
:101A70002281013D1D701EE1DAF80030072C98BF6D
:101A8000195D7C4B88BF21465B687F489847032CD3
:101A90000ED908EB4404A08001357B4BECB21A78D8
:101AA000DFF8CC81A242DFF8FCA11A46E4D820E09E
:101AB000DAF8002004F10E0302EB8303D9881A89B7
:101AC0000028E6D0401A4FF47A734343501A93FB30
:101AD000F0F040F6C90300F57A70984205DC40F258
:101AE000EE239842B8BF184601E040F6CA0080B223
:101AF000CFE742F201063B681E40B6FA86F6634B1A
:101B00007609D3F800B036B998F8033088F8003079
:101B1000584B5978197098F800501DB1554B1D78E5
:101B200085F001050F2388F82830DAF8003098F89E
:101B300029A04FF0030CBAFBFCFC0CEB4C0CCCEBDB
:101B40000A0C92F80090DFF860815FFA8CFC0024A8
:101B50004C4551DA1DB14E4A32F8140000E02846D7
:101B6000DA8A4C49824202D81A8B824220D251F83A
:101B700024103F4A8B4503D2474A32F814001BE039
:101B8000E0B2CDF818C0059307920CF0A7F8032C2B
:101B9000059BDDF818C00FDC079A4FF0010E92F894
:101BA00028100EFA04FE21EA0E0182F8281003E044
:101BB0000BF5967241F82420BEB92D4A28F81C0076
:101BC00092F8BC1029B9BAF1020F0ED9012182F89E
:101BD000BC10B8F80020B8F802001044B8F804208F
:101BE000104480B20322B0FBF2F02B4A08F1060841
:101BF00022F814000134ABE71D4D244995F8283034
:101C0000A3F10F025342534185F8BD30234A8BB1F3
:101C1000234B1B685B0102D53B68DE050AD40B68C9
:101C20009360D2689B1AC82B40D91C4B012283F8C1
:101C300021203BE00F4B0120587018700B68916811
:101C4000D36052685B1A934282BF144B002283F820
:101C5000212000244C4529DAE0B20CF03FF80E4B6D
:101C600023F814000134F5E7181E0020EE050020CB
:101C700010060020140000209C160020441E0020A6
:101C800054140020401E00207C050020481E002027
:101C900014060020840600201C1E00204C1E00207C
:101CA00024160020141E00203A06002095F8293042
:101CB000013385F829303B68DC0405D5AC4B1B6843
:101CC000D80701D40CF0F0FF049B1C68A94B1A68DC
:101CD000D07AB8B1A849537B013831F810001BB154
:101CE000C0F53B60083080B200B2A0F57A70B0F564
:101CF0007A7FA8BF4FF47A7020EAE0700DF06AFD99
:101D00009E4934E03B6819043AD59D4DD5F8C03062
:101D1000E31A002B34DB04F59C432033C5F8C030B4
:101D2000984B127B5979984B33F8113095F8C410C1
:101D30009BB293FBF2F3013101F00F0285F8C4204E
:101D40002A4482F8C5300346904A825C013013442D
:101D500010289BB2F8D11BB293FBF0F000B26428BC
:101D6000A8BF642020EAE0700DF034FD88490DF032
:101D700039FE88490DF082FD0DF06CFF864B18800E
:101D80003B68864D13F4807F00F01D81844BDFF8A3
:101D900014B29C4205D99BF8023013B901238BF889
:101DA00002309BF80230002B00F00D817D4B2E7825
:101DB00093F821406E4B621E9946544254411A6872
:101DC000002CC6F38006C2F3806814BF4FF0000AEF
:101DD0004FF0030A9BF82030052B00F2EE80DFE87D
:101DE00003F0034E628695B2002E3AD0644BD3F8CE
:101DF000D800B3F8DC100BF0CFFB012809D16A4AF8
:101E00006A4B12681B68D288642101FB0233CBF84D
:101E10001030B8F1000F0BD0634B1B681B793BB13E
:101E200009F000FC03238BF820304FF47A7337E07D
:101E3000002C40F0C2805D4BDBF810201968594B34
:101E400091420AD9049309F0EDFB049B032283F825
:101E5000202040F6B832DA61BCE7012283F8202066
:101E6000B8E74FF48060B8F1000F02D005F040F9F8
:101E700001E005F02DF90023CBF810309DE0002C97
:101E800056D1494B1B681B7A012B02D009F0CAFBC3
:101E9000A0E709F0C7FB03238BF8203040F6B833E6
:101EA000CBF81C3096E724B105238BF820300121B4
:101EB00000E021466EB1324B4FF0020AD3F8D83021
:101EC0001A8A2D4B1A805A809A80374A1268528893
:101ED000DA80364B1A68DBF814309A4201D8002EAB
:101EE00068D147F23053CBF81C30032321E02B7824
:101EF00043F002032B700CF0D7FE2C4BDBF81C20B8
:101F00001B681344CBF81830042312E0274B9CB114
:101F10001A68DBF818309A424FD9254B1B781BB949
:101F2000D9F80030DB0748D42B7823F002032B705C
:101F300005238BF820304DE71B68DBF81C20134489
:101F4000CBF8183039E0184A184B12681B68D28851
:101F5000642101FB02334FF48060CBF81030002382
:101F60008BF820308BF8033005F0B2F832E700BF71
:101F700024160020141E00201C1E002000007A449D
:101F800010060020D01D0020E01D0020D5060020F6
:101F90000000C84200C07F4494050020121F0020AA
:101FA000404B4C004C1E002040150020481E0020D5
:101FB0001000002000297FF40DAFBAF1000F02D00D
:101FC00050460BF017FBA24EB6F8521106F5C8703A
:101FD0000BF0E2FA81469F48B6F8A031B0F9022032
:101FE00003F10B01914283460BDB0B3B934208DC70
:101FF000B0F90020914204DB9342CCBF00230123BF
:1020000000E00023B9F1000F0FD1934A12681001CC
:1020100011D5924AD27872B92A7851070BD523B1DB
:102020008F4A137843F0200303E08D4A137823F09E
:10203000200313700BE009F0E5FA8A498A4B00206F
:10204000002208601A6048605A6088609A602B78A5
:102050005A0735D53B68DB0632D5814B1B78DC0649
:102060002ED4824B824C1B788BB196F8EC31B9F1AF
:10207000000F14D173B17F4B1A68D4F8E0309B1A6B
:10208000002B07DA0CF010FE84F8E49018E0B9F1A8
:10209000000F0DD110200BF0ADFA01230EE03BB183
:1020A000744A4FF47A71126801FB0323C4F8E030DC
:1020B00094F8E43023B10BF089FA002384F8E4307B
:1020C00096F8EA3196F8EB11049300231A46B6F815
:1020D000A241B6F8A4E13BF913009208A042C4BFA4
:1020E00062F07F02D2B201337045B8BF42F04002C5
:1020F000042BF0D15E4C94F8E530934205D194F86E
:10210000E630F92B04D8013300E0002384F8E630F0
:10211000564B84F8E5201A78DFF83C819A46E2B9FC
:10212000D8F80030D80708D5B9F1000F15D12B78B1
:10213000D90712D50CF07EFD0FE02B785A070CD58D
:102140004B4B1B784BB1454BDB7833B911B10CF0DD
:10215000ABFD02E0B9F1000FF9D094F8E630444A43
:10216000142BDFF81C9140F0A580049B003318BFAE
:10217000012304939AF8003063B392F8E5305F2BA3
:1021800011D12B7803F0040303F0FF0113B10CF01D
:102190008BFD08E00B20069105920BF02BFA059AB7
:1021A000069982F8E610049BA3B194F8E5307D2BE4
:1021B00010D12B7803F0040303F0FF0213B10CF0ED
:1021C00073FD07E00B2005920BF014FA284B059ADB
:1021D00083F8E6202B7803F0040303F0FF01002BC3
:1021E00068D194F8E530224A572B0AD14FF47A731C
:1021F000A2F8E830204B1B685B075BD50A221F4B17
:102200004FE03868400717D55A2B15D192F8EA30BD
:102210002BB1012382F8EA1082F8EB304AE092F801
:10222000EC3083F0010382F8EC300BB10C2000E0BD
:102230000D200BF0DFF93DE05D2B00F062845B2B9D
:1022400000F061845E2B1DD1032000F05DBC00BF57
:10225000B41600201C1E0020241600204C1E002056
:102260000E06002064100020F8140020100000204A
:1022700010060020481E0020240500205C140020C9
:1022800060050020562B01D105F002FA9AF80030C3
:102290004BB994F8E530972B40F04E84B34B4FF494
:1022A000C8721A8006E094F8E5306F2B40F03B844A
:1022B0000CF0C0FC3B68580737D594F8EC30AC4ABA
:1022C00093B12B7859070FD5BBF90610B6F8A23198
:1022D000994209DDD8F8003013F0010302BF322122
:1022E000A2F8EE1082F8EC30D8F80030DA030DD501
:1022F00094F8F0209E4B2AB993F8EA2012B93222C2
:10230000A3F8EE20012384F8F0300EE094F8EA30D0
:10231000974A53B12B7803F0040303F0FF0123B96C
:10232000012382F8EA1082F8EB30D9F800900023FC
:10233000C8F8003009F1870509F1D70A2A786B78C7
:1023400015F8010C9A420DD229460BF001F948B15B
:1023500015F8022C012303FA02F2D8F800301343D7
:10236000C8F8003004355545E8D1824B1B784BB195
:10237000814DDFF81C822B68804E13F0020F40F075
:10238000F382EBE209F1D50509F21D196A78AB7801
:1023900028789A4228D2691C0BF0DAF820B36979C0
:1023A0000C2303FB0143D3F8FC20AA421CD0C3F842
:1023B000FC50287903F1F40283F8F4000020506007
:1023C000EB785370EB780C2B4FF0010304BF937044
:1023D0000323D37018BF9070012394F824218B40FD
:1023E00022EA030384F8243106354D45CED1644BEF
:1023F000DFF8A0811D68634B1B6805932378069363
:102400000023049398F80090B9F1000F00F09D822A
:10241000D8F80330059AD31A002B0CDB02F5FA73B7
:10242000049AC8F803300123934094F8242122EA47
:10243000030384F82431069B002B00F0868218F8F1
:10244000013C98F801200433DBB2002A40F03882C6
:102450003BF913204C4BB3F8A03103F1C8018A4279
:1024600002DD98F802A016E0C83B9A4204DA98F818
:1024700002C0CCF1000A0EE0049A0123934094F8C4
:10248000242122EA030384F82431059B03F5FA731F
:10249000C8F8033059E294F82431049A1341DB0759
:1024A00000F15382BAF1000FCCBF022001200BF0E3
:1024B000C3F809F1FF33252B00F23F82DFE813F068
:1024C0002600330043006C0085008D00A200B90097
:1024D000D000D700E1003D026C0078008D00A20022
:1024E000B9009B00B100C8001F012E013D01D301BE
:1024F000E201F101C4014C015B016A01790188012B
:102500009701A601B501EB00F300FF002B7803EB68
:102510000A0CBCF1FA0FA8BF4FF0FA0C2CEAEC7CC5
:1025200085F800C00BE06B7803EB0A0CBCF1640F7C
:10253000A8BF4FF0640C2CEAEC7C85F801C028465B
:102540000AF0ECFFF9E1EB78284603EB0A0CBCF14A
:10255000640FA8BF4FF0640C2CEAEC7C0B4B85F8A1
:1025600003C019680AF091FFE7E100BF0C060020E4
:1025700010060020151F002024160020221600201F
:102580009C050020481E0020B4160020F005002005
:1025900024050020050700206B795344642BA8BF55
:1025A000642323EAE373B9F10D0F6B7100F0C58169
:1025B0002B7903EB0A0CBCF1640FA8BF4FF0640C3D
:1025C0002CEAEC7C85F804C0B7E1AB7903EB0A0C8C
:1025D0008CF3080C85F806C0AFE1C14B5246196870
:1025E000C8230093881CBF4B24310BF0AFF9B9F11D
:1025F0000F0F00F0A281BA4B1968C823481C009342
:10260000203157E0B64B52461968C823009301F1B8
:102610000C00B54B30310BF099F9B9F1100F00F007
:102620008C81AF4B1968C82301F10B0000932C314A
:1026300024E0AB4B52461968C823009301F1160001
:10264000AA4B3C310BF082F9B9F1110F00F0758102
:10265000A34B1968C82301F115000093383117E026
:102660009F4B1968C823C81C0093283122E09C4B5B
:102670001968C82301F10D000093343152469A4B7A
:102680001AE0974B1968C82301F1170000934031F5
:102690005246964B10E0924B1968C82301F108008E
:1026A0000093443106E08E4B1968C82301F11200F3
:1026B0000093483152468B4B0BF048F93DE1884B73
:1026C0001A681378022B0DD192F84C3003EB0A0CE8
:1026D000BCF1C80FA8BF4FF0C80C2CEAEC7C82F804
:1026E0004CC02AE1137F03EB0A0CBCF1C80FA8BF52
:1026F0004FF0C80C2CEAEC7C82F81CC01DE1784B32
:102700001A68137903EB0A0CBCF1C80FA8BF4FF08D
:10271000C80C2CEAEC7C82F804C00EE1704B1A68FD
:10272000937B03EB0A0CBCF1C80FA8BF4FF0C80C99
:102730002CEAEC7C82F80EC0FFE0694B1A68137E2D
:1027400003EB0A0CBCF1C80FA8BF4FF0C80C2CEA71
:10275000EC7C82F818C0F0E0614B1A68537903EB07
:102760000A0CBCF1C80FA8BF4FF0C80C2CEAEC7CD7
:1027700082F805C0E1E05A4B1A68D37B03EB0A0CE0
:10278000BCF1C80FA8BF4FF0C80C2CEAEC7C82F853
:102790000FC0D2E0524B1A68937903EB0A0CBCF1DC
:1027A000C80FA8BF4FF0C80C2CEAEC7C82F806C01A
:1027B000C3E04B4B1A68137C03EB0A0CBCF1C80F47
:1027C000A8BF4FF0C80C2CEAEC7C82F810C0B4E033
:1027D000434B1A68937E03EB0A0CBCF1C80FA8BFE9
:1027E0004FF0C80C2CEAEC7C82F81AC0A5E03C4BF8
:1027F0001A68D37903EB0A0CBCF1C80FA8BF4FF0DD
:10280000C80C2CEAEC7C82F807C096E0344B1A68BE
:10281000537C03EB0A0CBCF1C80FA8BF4FF0C80CE7
:102820002CEAEC7C82F811C087E02D4B1A68D37E2D
:1028300003EB0A0CBCF1C80FA8BF4FF0C80C2CEA80
:10284000EC7C82F81BC078E0254B1A68537A03EBC6
:102850000A0CBCF1C80FA8BF4FF0C80C2CEAEC7CE6
:1028600082F809C069E01E4B1A68937A03EB0A0CE0
:10287000BCF1C80FA8BF4FF0C80C2CEAEC7C82F862
:102880000AC05AE0164B1A68137D03EB0A0CBCF120
:10289000C80FA8BF4FF0C80C2CEAEC7C82F814C01B
:1028A0004BE00F4B1B689A7F02EB0A0CBCF1C80F80
:1028B000A8BF4FF0C80C2CEAEC7C83F81EC03CE0AB
:1028C000012A3AD13BF9130098F80220B0F5617F54
:1028D0000EDB40F633039842A8BF18460AE000BF5B
:1028E000C81D0020000020410000C84200007A44BA
:1028F0004FF46170B9F10C0F1FD14FF4966393FB45
:10290000F2F3A0F5617090FBF3F0A94AC0B213781E
:10291000834212D0042834BF03460223137009FBFC
:102920000363A44A03F2E6630790136004F01AFC01
:1029300007980130C0B20AF07FFE049A0123934049
:1029400094F82421134384F82431049B08F10C08E3
:102950000133042B04937FF455AD09E53B68D8059A
:1029600010D5954BDB786BB1D8F80030990709D5B5
:10297000338813F001070AD108F044FE012004F067
:10298000B7FB04E0012004F0A3FB012300E00023D7
:102990002A6852070CD55BB1012004F099FB3388FB
:1029A0009B0708D408F02EFE022004F0A1FB02E0F1
:1029B000022004F08DFB3388804A13F0030F4FF0A0
:1029C000100114BF51611161D8F8002012F00A0FF4
:1029D0002CD02A68D7060DD558070ED4042004F051
:1029E00087FB774B0A22B3F9043093FBF2F3754A65
:1029F000138002E0042004F06BFB2B68990606D5D7
:102A000033885A0606D4402004F072FB02E04020CE
:102A100004F05EFB2B685B0641BF694B0A22B3F9E9
:102A2000043093FBF2F348BFA4F826312B684FF42F
:102A300080701F0502D504F05BFB01E004F048FB49
:102A4000614B5B79082B01D00E2B02D1402004F0A2
:102A50003FFB012384F8283194F82931FBB1D8F8E1
:102A6000003058071BD52B68190703D4082004F041
:102A70002FFB14E0348804F00804A4B27CB90820C9
:102A800004F036FB514B1A68514B1A60514BBBF89E
:102A90000620A3F82A21504B1C60504B1C604D4F60
:102AA00097F82931002B7FD0D8F80030DA067BD593
:102AB0002B689B0204D44FF4007004F009FB73E010
:102AC000348804F40074A4B2002C6DD14FF400706B
:102AD00004F00EFB3D4B1A683D4B1A60BBF8063004
:102AE000A7F82A313C4B1C603C4B1C605CE0394B26
:102AF0000122DA703A4B00225A7064230393FEF7E6
:102B0000ADBF012000E002205FFA80FA0AF1FF3336
:102B100086F8E43604F06CFB04F010FC50460AF032
:102B20008BFDFFF7C7BB049A002A3FF4B2AB7E2BA4
:102B30007FF4AFABFFF7BCBBA72B06D1294A1378B4
:102B400043F004031370FFF7B5BB0022BB2B0992BF
:102B500001D1022303E0B72B04D14FF6FE73ADF889
:102B600026300AE0BE2B01D1022304E0BD2B7FF406
:102B7000A1AB4FF6FE73ADF82430D9F80020BDF8B4
:102B80002410B2F864300B44A2F86430BDF826106B
:102B9000B2F866300B44A2F8663004F079FD0023E9
:102BA00084F8E630FFF786BB03980BB0BDE8F08FE2
:102BB000201600209C0500204C1E0020000C014027
:102BC0007E050020EC050020B416002084050020BE
:102BD000C414002010060020CC140020D0140020C3
:102BE000140000200E0600202DE9F04F95B0074696
:102BF00006F01AF89F4B85B21D8028460CF0E6FDC2
:102C00009D4982460CF03AFE9C4C9D4B064618604E
:102C1000002160680CF0C6FF08B19A4B63606168E0
:102C200030460CF023FD014630460CF0DBFED4F8B4
:102C300000900646494650460CF016FD01463046C7
:102C40000CF01CFE014648460CF010FD20600DF013
:102C500001F88D4E80B232888C4BAD1AA081801A5B
:102C6000BA8D1D809A808A4A8A4D12795880DA80FE
:102C70008948D5F888309847DFF8008237460695AE
:102C800048B9864F864E3B68039713F0020F40F019
:102C90000F8100F096BDD8F81090002148460CF046
:102CA00081FF70B17F4E3388002B00F0BD80D4F8D7
:102CB00088307D4F1B7807F10C0503934FF0000817
:102CC00073E098F814309BB9C8F81830A5696B4EBA
:102CD000022D0BDC06F11C03242101FB05314846C3
:102CE0003A68013503F02FFFB561EFE70123337533
:102CF000237D002BD6D0614B00229A61A5695F4EDF
:102D0000022DCFDC644F06F11C03242101FB0531A9
:102D100057F8250003F0E4FE0FF014FD0CF05AFD07
:102D200047F825000135B561E8E7D5F800C0484609
:102D300061460892CDF814C007930CF095FC079BF0
:102D4000834618460CF046FD014658460CF04AFEF4
:102D5000DDF814C0014660460CF088FC034668604C
:102D60001946484605930CF07FFC014658460CF086
:102D700085FDA9680CF07AFC059B089AE8602B6039
:102D8000A860454BDFF824914AF8032000234AF855
:102D90000930049B012B2BD008F10108B8F1030F77
:102DA00007F1040705F114054AD033884FEA880A71
:102DB000B3F57A7F049302BF00233B602B61364B4F
:102DC000386853F828900CF005FD49460CF04EFC8D
:102DD0000CF01AFF2B6938600133012B2B614FF087
:102DE0000002A2D1C5F80490C5F80090AA60C8E717
:102DF0002869012807DD01380CF0ECFC0146E86881
:102E00000CF0F0FD00E000200FF062FE039B834613
:102E100063B118460CF0DEFC014658460CF0EAFEA1
:102E200020B14FF47A733380002511E03B684FF4F2
:102E30007A7203F5FA7393FBF2F349F80A30ABE7C1
:102E40003088012801D10AF0D5FB3388013BEAE73D
:102E5000164B114E53F825000CF0BCFC014656F8F9
:102E600025000CF001FC46F825000135032DEFD1BB
:102E700007E700BF101F0020BD3786353C07002044
:102E80000415002083F9223E60100020BE050020BA
:102E900028050020BC0D0020380500202405002056
:102EA000B41E0020F8060020C807002010080020EB
:102EB000494B1B78002B00F0848406F0E5FAD4F827
:102EC000E030464DC31A0593D4F8E430C4F8E0006E
:102ED00093F8008004930027B8F1000F32D00598D2
:102EE0000CF074FC3E490CF0C9FC00218246686875
:102EF00056F827B00CF056FE58B140460CF06AFC6C
:102F000038490CF0BBFC01464FF07E500CF06AFDD6
:102F10006860504669680CF0A9FB014650460CF009
:102F200061FDD5F800908246494658460CF09CFB5E
:102F3000014650460CF0A2FC014648460CF096FBB8
:102F4000286001E056F827000CF05EFE264A0C359A
:102F500022F817000137032FBED1234AB2F802A08E
:102F6000B2F800800FFA8AF35B430FFA88F992886F
:102F700009FB09330892BDF92090642209FB093945
:102F800002FB09F3069AB2F8AA9009FB09F993FB30
:102F9000F9F9A9F152030993039B186810F008008E
:102FA00026D0124E002130680CF0FCFD054660B9B9
:102FB000706800210CF0F6FD48B9B06800210CF0F3
:102FC000F1FDB0FA80F0400902E0002000E0284660
:102FD00000F001070DE000BFE81E002024080020DB
:102FE000BD378635DB0FC940300500204405002081
:102FF000074605980CF0EAFB65490CF03FFCD4F855
:103000000C51644C0390216828460CF037FC616831
:10301000834628460CF032FCA168069028460CF046
:103020002DFC5D4B0790594658461E685D689C68AC
:103030000CF024FC8146069801460CF01FFC01466A
:1030400048460CF013FB8146079801460CF016FC2D
:10305000014648460CF00AFB0FF03AFD0A90002F9B
:1030600000F0A080314630460CF008FC29460746A7
:1030700028460CF003FC014638460CF0F7FA2146CE
:10308000074620460CF0FAFB014638460CF0EEFAF3
:10309000424907460CF0AEFD002800F08380384618
:1030A0000FF016FD01464FF07E500CF09BFC814660
:1030B000304649460CF0E2FB4946074628460CF0EC
:1030C000DDFB4946064620460CF0D8FB344C05464D
:1030D000216838460CF0D2FB61680B9030460CF04A
:1030E000CDFB0B9B014618460CF0C0FAA1680B9073
:1030F00028460CF0C3FB0B9B014618460CF0B6FAB1
:10310000E1680B9038460CF0B9FB21690746304660
:103110000CF0B4FB014638460CF0A8FA616906468B
:1031200028460CF0ABFB014630460CF09FFA0B9B97
:103130000546194618460CF0A1FB294606462846C6
:103140000CF09CFB014630460CF090FA0FF0C0FCEE
:10315000014628460CF092FB00F10047A169384671
:103160000CF08CFB00210CF081FAE1690646384630
:103170000CF084FB00210CF079FA216A05463846F0
:103180000CF07CFB00210CF071FA04460DE000BF4E
:10319000BD37863538050020440500200AD7233C7A
:1031A000B4120020002425462646099B262B00F257
:1031B00086800FFA88F00CF00DFB81460FFA8AF03A
:1031C0000CF008FB0746BDF920000CF003FB494654
:1031D000804648460CF052FB3946824638460CF091
:1031E0004DFB014650460CF041FA414682464046AE
:1031F0000CF044FB014650460CF038FA5849824620
:103200000CF0F8FC00285AD050460FF061FC014643
:103210004FF07E500CF0E6FB8246484651460CF0DB
:103220002DFB5146814638460CF028FB5146074697
:1032300040460CF023FB4B4B82461A6A3846114637
:10324000D3F81C8009920B930CF018FB41460890B0
:1032500050460CF013FBDDF820C0014660460CF030
:1032600003FA014630460CF001FA0B9B06469B69B7
:103270005046194608930CF001FB099A8246114604
:1032800048460CF0FBFA014650460CF0EDF90146B9
:1032900028460CF0EBF94146054648460CF0EEFA9C
:1032A000089B8046194638460CF0E8FA014640462D
:1032B0000CF0DAF9014620460CF0D8F90446049BDC
:1032C0004FF00009D3F80480494640460CF092FCC8
:1032D000254F78B30A9825490CF06EFC80B331462F
:1032E00040460CF0CBFA03990CF0C8FA0146D7F827
:1032F00010010CF0BBF92946C7F8100140460CF04C
:10330000BDFA03990CF0BAFA0146D7F814010CF093
:10331000ADF92146C7F8140140460CF0AFFA039905
:103320000CF0ACFA0146D7F818010CF09FF9C7F879
:10333000180105E0C7F81091C7F81491C7F8189163
:10334000049B98680A4B1B78590705D4094B1A68E7
:1033500044F61F639A420FD94FF07E510DE000BF33
:103360000AD7233CB41200203C070020C2B8B23E6A
:10337000121F0020481E0020A4490CF07FFA31469D
:1033800080460CF07BFAD7F810110CF06FF901466B
:1033900058460CF06BF92946064640460CF06EFA8A
:1033A000D7F814110CF062F9014606980CF05EF99A
:1033B0002146054640460CF061FAD7F818110CF08A
:1033C00055F9014607980CF051F94FF07C5107462A
:1033D00003980CF053FA0446304621460CF04EFA9E
:1033E0002146064628460CF049FA214680463846D2
:1033F0000CF044FA864B8246D3F80090854B314658
:103400001F68854B09F100401D680CF037FA4146F2
:10341000069038460CF032FA069B014618460CF02E
:1034200023F95146069028460CF028FA069B0146DF
:1034300018460CF019F9794C0146D4F800B05846FA
:103440000CF014F931462060089058460CF016FA3A
:103450005146069038460CF011FA069B0146184674
:103460000CF004F94146069028460CF007FA069B3A
:10347000014618460CF0F8F8014648460CF0F6F8FC
:10348000634B41461860079058460CF0F7F95146D7
:10349000069048460CF0F2F9069B014618460CF0DF
:1034A000E3F83146069028460CF0E8F9069B014601
:1034B00018460CF0DBF8014638460CF0D7F8554AB0
:1034C00051461060069058460CF0D8F941468246A5
:1034D00048460CF0D3F9014650460CF0C7F8314687
:1034E000804638460CF0CAF9014640460CF0BCF85C
:1034F000014628460CF0BAF8DDF820C0464B61467C
:103500001860054660460CF0B9F9079A0646114660
:1035100010460CF0B3F9014630460CF0A7F8069BB4
:103520000646194618460CF0A9F9014630460CF03B
:103530009DF82946064628460CF0A0F9014630467B
:103540000CF094F80FF0C4FA01464FF07E500CF0E6
:1035500049FA0546206829460CF090F92C4B20606A
:10356000294618680CF08AF9294B29461860294B1E
:103570002B4C18680CF082F9264B29461860264B14
:10358000284E18680CF07AF9234B274D186006F086
:1035900003FD216AE06903F09BFC24490CF06EF9FD
:1035A0000FF0D0F83080A06900F1004003F053FC28
:1035B00001461F480CF058F81C490CF05FF90FF059
:1035C000C1F821687080E06803F082FC174900F1BF
:1035D00000400CF053F9D5F8BC100CF047F80FF090
:1035E000B1F883B21A044ABF00F56160B380B080BD
:1035F000104B266AD3F81C1130460CF0FBFA0E4B28
:103600001A78D8B142F008021AE000BF0000204149
:10361000A8120020AC120020B012002020000020D0
:10362000B41200207E050020BC0D00204C3D0F444C
:10363000DB0FC93F3C0700200E06002022F00802E5
:10364000974F1A70B7F900000CF0C4F88146B7F92B
:1036500002000CF0BFF88046B7F904000CF0BAF88D
:103660002168074648460CF009F9616882464046E1
:103670000CF004F9014650460BF0F8FFA1688246B1
:1036800038460CF0FBF8014650460BF0EFFFA169FD
:10369000824648460CF0F2F8E169834640460CF059
:1036A000EDF8014658460BF0E1FF394683463046B7
:1036B0000CF0E4F8014658460BF0D8FFE1680646E6
:1036C00048460CF0DBF82169814640460CF0D6F8FC
:1036D000014648460BF0CAFF6169804638460CF047
:1036E000CDF8014640460BF0C1FF049B00F10047B6
:1036F0005B786C4C012B18D16B4B1B785B070ED49D
:10370000D4F82001402390FBF3F3C01A0CF062F8C8
:1037100031460BF0ABFF0CF077FAC4F82001D4F877
:103720002001402390FBF3F001E0B5F8AA000CF073
:1037300051F8014630460BF097FFD4F828110646A1
:1037400003980BF093FF014603980CF04BF9D4F863
:1037500024518046294630460BF086FF01464046FC
:103760000CF08CF8014628460BF080FFC4F82401C9
:10377000064650460EF0E6FFD4F82C514B4C297803
:1037800003F05AFB23681844206038460EF0DAFF35
:10379000297803F051FB63681844606030460EF0EE
:1037A000D1FF697803F048FBA368414A18440599A2
:1037B0001368A060194411603E4A13680133136016
:1037C00003E0002333607360B3603B4BB3F9061032
:1037D0003A4BD3F800E0BEF80A2091420FDBB1F576
:1037E000FA6F9EF80750BFBF8B1A6B43A2F5FA65BC
:1037F00093FBF5F5ACBFC5F16405643500E06425C5
:103800002F4B304AB3F8A0C193F9623112689BB2D2
:10381000039216460493002240F2E630264B4FEA0C
:10382000420933F91280CCEB080303F2F31484420B
:1038300003D8002BB8BF5B4201E04FF4FA73022AB1
:10384000039C4FF0640045D094F81D411CB1A34285
:10385000CCBF1B1B002393FBF0F71B4C6FF0630BDB
:1038600034F817A00BFB073B013734F917400FFA68
:103870008AF7E41B04FB0BF494FBF0F4134F54445D
:1038800027F809400EEB020424796343104C93FBA4
:10389000F4F364339BB26B4393FBF0F047E000BF5B
:1038A000300500203C070020121F0020A814002033
:1038B000FC1E0020A41400201C1E00209C050020DB
:1038C000B4160020600500204A1600205410002085
:1038D0000CFEFFFF94F81E411CB1A342CCBF1B1B82
:1038E000002393FBF0F0AE4C6FF0630A0AFB003B41
:1038F00004EB400704EB4000B7F93071B0F9320136
:10390000002BA0EB070000FB0BFB9BFBFAFB0498D2
:10391000C7EB0B0707FB00F7A248B8BF5B428780E5
:103920009EF806004343A04893FBF0F064307378A0
:103930006427434393FBF7F39C4C022AA354F37A86
:103940009B4C00FB03F393FBF7F3A354737D954C5F
:1039500000FB03F090FBF7F0964B9854964B0DD17B
:10396000E0459F700DDB954EB6F8A221914214DB25
:10397000B1F5FA6FA8BF4FF4FA610FE0E0459D542E
:1039800004DA34F809305B4224F809300132032AA2
:1039900006F101067FF440AFE5E71146891A4FF4BE
:1039A0007A735943C2F5FA62B1FBF2F1642391FBD9
:1039B000F3F2DFF858E26FF063003EF8127000FB9C
:1039C000021101323EF9122038B2121A514391FB12
:1039D000F3F33B44E3807A4B724D1B885F063FD57F
:1039E000784B0A20B3F9043093FBF0F0764B1B8838
:1039F000C01A00B20BF0EEFE74490BF03FFF074611
:103A000003F05CFB8046384603F0E4FA0746B5F95C
:103A100002000BF0DFFE8146B5F900000BF0DAFE84
:103A2000414682460BF02AFF3946834648460BF052
:103A300025FF014658460BF017FE0CF0E5F841460D
:103A4000288048460BF01AFF3946804650460BF056
:103A500015FF014640460BF009FE0CF0D5F86880D2
:103A60005B4B1A78500703D55A4B08225A613CE049
:103A700059490968C9075CBF42F001021A70574AE8
:103A80005749127817075EBF1A7822F001021A70A0
:103A9000544A126812F0040F02D05348008870B9DB
:103AA0005248008808B1950709D4514A128800325B
:103AB00018BF01221AB94F480079632806D902229B
:103AC0000A701A7822F001021A7005E01B78D807F4
:103AD00056BF02230A700B7005F0D6FC464B1B68DC
:103AE000C01A002801DB0AF051F9444BD3F88C309E
:103AF0000BB14348984796F89E31294F002B00F0B0
:103B00008980BB89B7F84801B0FBF3F03D4B451CF9
:103B10001B78ADB2A7F84A511BB3B7F94CA10023EB
:103B2000DFF87CE034F813800EF5AB7C3CF8132012
:103B30000EF5A779C2EB080B39F913202CF8138086
:103B40000AFB02F12AB291FBF2F25A4429F813203F
:103B50000133042BE4D12B4B00221A70AEF84C0138
:103B600004E0B7F84C31013BA7F84C310C4A002374
:103B7000B2F94C0100284BDDB2F94A512249A1F1BA
:103B8000080232F9132031F81310424392FBF5F288
:103B90008A1A24F813200133042BEFD13AE000BF36
:103BA0003C070020541000200CFEFFFF20110020D5
:103BB0007A080020381100205C100020B416002084
:103BC000221600207E0500203607002035FA8E3CA4
:103BD000121F0020000C0140241600200E060020B9
:103BE000701E0020240500205C1400200C0600201C
:103BF000F806002028050020741E0020BC0D0020BF
:103C0000800800203807002092080020321600208B
:103C1000A2F84C31A64B01221A70A64BDFF80083A4
:103C2000196811F0080F3BD0A088A34D00F10E03D6
:103C30009BB21C2BA14B2DD8A14A1288520729D523
:103C4000B3F904200A2392FBF3F22B88D21A92B222
:103C500093B21DB2B335BCBF02F5B4739BB2994D9C
:103C60001AB2B32A2D78C4BFA3F5B4739BB22D0743
:103C700096F8622114D552B252425343D8F800202C
:103C80001BB2527A53436FF01D0293FBF2F30344CD
:103C9000A38005E0B3F904300A2293FBF2F32B80F2
:103CA00011F0140F884D75D0854B1B8803F40273F7
:103CB000002B6FD0834B1B7803F0100303F0FF0041
:103CC00043B1824B96F900121A68638801FB0233F4
:103CD00063805FE0D5F860317D4A93F803E07D4969
:103CE0009B78BEF1000F25D0B1F900E0B2F90610C3
:103CF000CEEB0102002AB8BF52429A420DDD764A4D
:103D0000714510604FF0010285F86421C8BF5B4225
:103D1000E2889BB21344E3803CE095F864312BB118
:103D20006E4B85F864011A686D4B1A60674B1B680F
:103D3000734424E0B1F90010B2F90620521A82EA65
:103D4000E270A0EBE27098420ADD022392FBF3F2EC
:103D5000644B1A60644B01221A7085F864210BE0F1
:103D600095F8643143B15D4B85F864E11A685C4BAA
:103D70001A605D4B83F800E0544B1B680B44D5F888
:103D800068110A884988934203DB8B42A8BF0B461F
:103D90001A46E280554B1B78ABB14D4BB3F9062068
:103DA000B6F8A2319A420EDC514B5B79012B01D05F
:103DB000192B02D196F8F6212AB90E2B03D0082B25
:103DC0001CBF0023A380D8F8003093F824A1BAF1D7
:103DD000000F2FD03A4B1B889B072BD0454B4649F1
:103DE000D3F8209048460BF0F1FEF8B9484603F0AE
:103DF00032F8D7F86C110BF041FD0EF0A3FCB0F5D2
:103E0000617FA8BF4FF461700BF0E4FC3B490BF0FD
:103E1000E9FD03F0DFF8074650460BF0DBFC3946BE
:103E20000BF02CFD0EF08EFC80B200E00020E38849
:103E30001844E080324BD8F80000B6F874210093A3
:103E4000304B1E68304B196800F16403B0472F4BAC
:103E5000DB7803932E4B1F782E4B032F15D9D5F803
:103E600070219688B6F5FA7F0FD2B4F90400B3F941
:103E700004E00028B8BF404271420A1A964503DBAD
:103E800032187245A8BF72469A80234A126812F00F
:103E9000006147D1D5F87021B4F806A0B3F80280CC
:103EA000B3F800900492B3F904B01C4E0C467DE1C7
:103EB0003907002024050020EC0500207E050020A5
:103EC000221600200E0600203C070020D0140020FF
:103ED0001C1E00203A070020CC140020840500207E
:103EE000C4140020001F0020D41400201000002063
:103EF000B4160020B41200208FC2753CEFB6B04457
:103F000044180020600000209C0500204C1E00206A
:103F10003B110020A410002024160020B808002027
:103F2000600500200026D5F87011B24635465A8843
:103F3000B3F80090B3F904B0DFF838830491BA45C0
:103F400042D210B206920BF045FCD8F808100BF0E4
:103F500095FC05900FFA89F00BF03CFCD8F80410A2
:103F60000BF08CFCDDF814C0014660460BF07EFBC4
:103F7000049B059093F9020040420BFB00F00BF00C
:103F800029FCD8F80C100BF079FCDDF814C00146C0
:103F900060460BF06BFB0BF037FE0DA980B221F8E9
:103FA0001A000FFA85FE01B27145069A04DC0FFA79
:103FB00086FE714502DB2846054630460AF1010AB5
:103FC00008F110080646BAE7A24BAD1B1A68ADB25D
:103FD00012F4805F0493DFF8A4A238D09E4A9F4E6B
:103FE000127812F0040F9D4A02BFD2F83812098AE3
:103FF000A2F83412D2F838229949108A994AB1F8B5
:10400000068014680FFA88F7E288811A8F4204DC70
:10401000DAF800202788148806E00244974206DB7D
:10402000DAF8002064885788A6F8348215E0B6F9DB
:1040300034228A42D9BF2788DAF80020DAF8002033
:104040006488D9BF1488B8465788A04605E0DAF8D6
:104050000020B4F8068057881488BAB21FFA84F991
:10406000C9EB0206B6B20FFA85FB30B283457E4D2E
:104070007E493CDD01220A700BF0ACFB05905846EE
:104080000BF0A8FB059A014610460BF0ABFC8346EB
:10409000002229788A4214D20DF1340C3CF9120026
:1040A000CDF818C005920BF095FB59460BF0E6FBD6
:1040B0000EF048FB059ADDF818C02CF8120001320A
:1040C000E7E7664AD2F8702150780BF083FB684925
:1040D0000BF088FC014658460BF08CFD88B136B2D7
:1040E000022496FBF4F44C44A4B2274609E00020D5
:1040F000087002209BFBF0F009EB0004171AA4B231
:10410000BFB2049BDAF800601B6895F8009003F4D6
:1041100080530593514B0025B3F934A2D3F83832BC
:104120000493504BD3F800B04D4580F023810DAB84
:1041300033F815200FFA88F006920BF04BFB4D4B2D
:104140002901C9580BF09AFB0BF05EFD23B298428F
:10415000069A03DB3BB28342A8BF0346134403988D
:10416000454A9BB222F8153069001BB208B1B088ED
:1041700011E0059870B10498BBF806E0008ACEEB18
:104180000000824503DC3088BBF800E005E0BBF8A6
:10419000020000E03088B6F802E0834203DB73459A
:1041A000A8BF7346184650520135BDE7BC4206F120
:1041B0001006314B40D20FFA8AF006930BF00AFB3F
:1041C00056F8181C0BF05AFB05900FFA88F00BF00C
:1041D00001FB56F8101C0BF051FBDDF814C0014632
:1041E00060460BF043FA05900FFA89F00BF0F2FAF3
:1041F00056F8141C0BF042FBDDF814C00146604673
:104200000BF034FA049B059093F9020040420BFB3B
:1042100000F00BF0DFFA56F80C1C0BF02FFBDDF86A
:1042200014C0014660460BF021FA0BF0EDFC069B32
:1042300023F814000134B9E71A880121B94214B2F5
:104240001ED233F9112001319442B8BF1446A2B2F4
:10425000F4E700BF181E0020121F00203C070020BA
:104260001C1E0020281200203B110020701000208E
:104270000000C842B0080020640500202C12002075
:10428000AF49D5F870C10968D5F83892488803EB72
:1042900047078442C8BF101AAA4AC8BF80B216682E
:1042A000A94AD8BF0020B2F90640A84A06F48058AF
:1042B000156806F010020492A54ABA425AD0138833
:1042C0001B1A9BB222F8023BB8F1000F29D09CF8D0
:1042D00000A0B9F810E0BAF1000F08D1B5F806A0B7
:1042E000CAEB0E0B5C4502DDF244544514DB744509
:1042F000CCBFB5F802E0B1F804E01BB2CCBFB1F816
:1043000002A0B5F800A0734503DB5345A8BF534690
:104310009E4622F802ECD0E77445CCBF6B882B8810
:1043200025E0039EB1F802E04EB132F902AC8B8871
:104330009A451CDBF2455346A8BF734617E0B1F817
:1043400000A01BB2534503DB7345A8BF73469A46D2
:1043500022F802ACB9F812309C42AEDA049B0BB1E1
:104360008B8804E09CF80030002BA6D10B8822F843
:10437000023CA2E777490A788B4602F0040202F079
:10438000FF0342B1744991F83C32013BDBB2182B78
:1043900000F24D810BE0714A12789342F2D27049DB
:1043A00031F813006A4921F813000133F5E70122BF
:1043B0009A406C4B1340002B00F039816A4B6248E5
:1043C0001B8813F4807F08D0684B1A88ADF834201E
:1043D0005A889B88ADF8362015E0654B1A88ADF8F1
:1043E00034205A889B88ADF83620564AADF83830CC
:1043F0001268D40409D5D1F83822B0F90640128ADF
:10440000944202DA5B42ADF838305A4D4FF47A727A
:10441000B5F902304FF4616403F5E163534393FB54
:10442000F4F3A3F5FA73ADF84C30B5F9003003F5A9
:10443000E1635A4392FBF4F2454BA2F5FA721B88F2
:10444000ADF84E20A3F2DC53ADF83A30D1F8383253
:1044500002881B8AD21AADF83C204288D21AADF8E5
:104460003E208288D21AADF84020C288D21AADF818
:1044700042200289D21AADF844204289D21AADF8FE
:1044800046208289D21AADF84820C289D31AADF8E5
:104490004A300023384A002122F813100133082B38
:1044A000F8D1364B36491B68364D0393364B1B68A3
:1044B0000493364B1B78C3EBC30301EB0308414560
:1044C00000F09D800B783BB103F11502012393406E
:1044D000039A134000F08F80049B11F806EC0E271E
:1044E00007FB0E37B7F90020B7F9023064209B1A9A
:1044F00011F9022C9BB25A4392FBF0F211F805AC71
:104500004FEA530911F8034CC9EB02024FEA4A067D
:1045100014A892B211F801CC064414B936F81C0C58
:104520000CE0B5F9000036F91C6CB04230DA0444F6
:10453000844203DBA6423046A8BF2046288030E0F4
:104540002C120020181E00201C1E00202812002003
:1045500064050020121F00203C0700203B110020B2
:10456000F405002099209801221600205410002004
:10457000A41000207E0500205005002024160020F5
:10458000371200207A090020C40A002030120020CF
:1045900007DD041BB44203DB8442A8BF0446264661
:1045A0002E80D7F80A40012000FA0AF02042B5F91F
:1045B000006011F9040C12B200FB06F04FF0640623
:1045C00090FBF6F014BF4FF0FF34012490420ADB59
:1045D0004FFA8CF25A4392FBF6F2C9EB020212B286
:1045E0008242A8BF02469D4B33F81E9002FB049402
:1045F00023F81E4000E02B80023507315FE7984B1F
:10460000984E1F6800250E2303FB057393F906409F
:1046100036F9023FE8B26343642493FBF4F4348038
:1046200005F0A0FC01352044082D3080EBD18E4EE2
:104630008A4C33688A4D13F0200F33D0002005F0E8
:1046400091FC20800746012005F08CFC874B6080A0
:104650001B68190626D5864B864AD3F860321B782C
:10466000012B23D12968B2F9003091F914E04FF001
:10467000320C03FB0EF393FBFCF31FFA83FE91F95C
:104680000630B2F902205B4253436FF0310193FBD5
:10469000F1F193FBFCF30EEB0102B9187344218096
:1046A00018446080D5F800E0002319E0D5F800E058
:1046B000B2F902309EF906105943322391FBF3F10F
:1046C000394421809EF91470B2F9001001FB07F201
:1046D00092FBF3F21044E4E70133082BE25310D0CD
:1046E0000E2101FB03E134F91300B1F900205F0052
:1046F0009042B1F90210EFDB0AB28242A8BF024633
:10470000EAE75B4FD7F870A19AF90C30A3B997F894
:104710003C8208F1FF33182B74D8DFE803F03773BD
:1047200073517373734A73737373735B73737373BC
:1047300073516773735B3700DFF828914FF00008FF
:1047400039F9020F0BF046F84B4B242101FB0831DD
:1047500002F0C6F90DF0F6FF2A680E2303FB0822CB
:1047600080B2A9F80000B2F9003000B29842B2F964
:10477000022003DB13B28342A8BF034608F10108FD
:10478000B8F1080FA9F80030DAD1C0E79AF806307E
:1047900013B10020618908E09BF8003003F00403A6
:1047A00003F0FF00002BF4D1014603F019FD0125B1
:1047B00029E00020E18803F013FD0120218905E0B4
:1047C0000020218903F00CFD6189012003F008FD20
:1047D000022518E00225A81E34F81510C0B20135D4
:1047E00003F0FEFC082DF6D106250CE00325E81E9B
:1047F00034F81510C0B2013503F0F2FC072DF6D1E4
:10480000042500E0002533689A0602D4B8F1050FAC
:104810000AD12846218803F0E3FC681CC0B26188F5
:1048200003F0DEFC0235EDB23368DB0205D497F805
:10483000843373B105F0DAFA0BE0104E0024281926
:10484000C0B236F8021F03F0CBFC0D2CEFD00134C0
:10485000F5E7002015B0BDE8F08F00BF500500203F
:10486000C40A00204E050020181E00202416002037
:104870003C0700207E050020A0090020221E002009
:104880002DE9F04F0C688DB0BB4920460EF03CFF7F
:10489000BA49002820460CBF012507250EF034FF39
:1048A000B7490028204608BF02250EF02DFF00283A
:1048B00008BF0425E90740F1F180B248002109F062
:1048C000AFFD0020014607F0F5FFAF4CAF480021D7
:1048D00009F0A6FDAE48002109F0A2FD6379AD4ABA
:1048E000013B0020AC4952F8232008F06FFFAB4891
:1048F000002109F095FD26460027D6F814800021F6
:1049000040460BF04FF928B1A548002109F088FD79
:1049100000266FE0A3493A460790D6F818B0D6F8BB
:104920001CA0D6F8209008F051FF404600210BF063
:1049300043F9079B18B19C48194609F071FD08A975
:10494000404602F012FA002109F06AFD58460021A3
:104950000BF032F918B19448002109F061FD08A963
:10496000584602F002FA002109F05AFD5046002193
:104970000BF022F918B18C48002109F051FD08A96B
:10498000504602F0F2F9002109F04AFD48460021A4
:104990000BF012F918B18448002109F041FD08A973
:1049A000484602F0E2F9013702468049002008F04B
:1049B0000DFF0C2F06F110069FD1A5E794F8D51036
:1049C00052B294F8D4300091019294F8D72000208C
:1049D000029294F9D8207649039294F9D9200734A9
:1049E000049294F8D32005923246013608F0EEFE88
:1049F000102E03D094F8D620002ADFD16D48002174
:104A000009F00EFD604B6C4C9F6854F8042F22B1E6
:104A100000206A4908F0DAFEF7E71646684B53F8BB
:104A2000264054B10123B3403B4204D000206549E5
:104A3000224608F0CBFE0136F0E76348214609F034
:104A4000EFFC2246504B0CA9134493F890310B44D1
:104A50005E49515C0132082A03F8101CF2D100248F
:104A600008AA20465A498DF8284008F0AFFE594858
:104A7000214609F0D5FC2146204608F051FC564954
:104A8000204608F0A3FE204604F0DCFC53482146F3
:104A900009F0C6FC2046214608F074FBAA0748D559
:104AA0004F48002109F0BCFC4E48002109F0B8FC39
:104AB000354B002093F8E4264B4908F087FE4B481D
:104AC000002109F0ADFC0020014608F065FA4848D5
:104AD000002109F0A5FC0020014608F0C7FA45486E
:104AE000002109F09DFC0020014604F043FB4248F0
:104AF000002109F095FC0020014604F01FF9002672
:104B00000E27774300243D4A01231268A3403A440C
:104B1000D2F80A20134224D101340E2CF3D10136ED
:104B2000082EEDD100202C4908F050FE102004F092
:104B300089FC6B071CD53248002109F071FC314813
:104B4000002109F06DFC304B00201A782F4908F045
:104B50003DFE0020204908F039FE202004F072FCC0
:104B600006E000202A493246234608F02FFED3E70C
:104B700000200DB0BDE8F08FA15501080D6D0108B2
:104B8000A8550108AE550108B4160020BC5501080F
:104B9000CE5501084C430108DA550108E5550108D6
:104BA000F2550108FF5501083C5B0108F85B01085C
:104BB0001756010807560108045101083656010826
:104BC000085101084456010851560108936901082B
:104BD0005D56010866560108905F01087556010888
:104BE0008256010895560108FD560108A356010892
:104BF000AD560108BC560108CA560108C40A002077
:104C0000D6560108E756010820160020F95601087B
:104C10000A57010800000000094B1B78032B01BF55
:104C2000084A094B1268012005BFC3F89820074ABB
:104C30000020C3F8A02004BF054AC3F8A420704791
:104C40002C04002058000020BC0D00204554000812
:104C5000215100080C4A1378022B13D10B490C4B3D
:104C600009685278C3F898100A49002AC3F8A010BE
:104C700009490CBF6F226E22C3F8A41083F8A82044
:104C800001207047002070472C0400205C000020A9
:104C9000BC0D0020195600082151000813B5104B17
:104CA00004461B21586801AA022301F0D9FD90B1E6
:104CB0009DF805309DF8040003EB00200AF08AFD02
:104CC00008490AF0D3FC08490AF08CFE07490AF0AB
:104CD000CDFC2060012000F0010002B010BD00BF3B
:104CE000C80A002000404E4600008C4300000C42E1
:104CF000144B07B51B78032B01D000201FE012488E
:104D0000124B75218360682303700DF107020023A5
:104D1000037101F0A7FD0028EFD09DF80730702B3C
:104D2000EBD10B4A0B4B12680120DA670A4AC3F831
:104D300084200A4AC3F88820094AC3F8942003B0A3
:104D40005DF804FB2C04002058150020C40E002040
:104D500058000020BC0D002035520008D15000083A
:104D600090C1793D144B07B51B78022B01D0002070
:104D70001FE01248124B75218360682303700DF108
:104D800007020023037101F06DFD0028EFD09DF8AC
:104D90000730682BEBD10B4A0B4B12680120DA6706
:104DA0000A4AC3F884200A4AC3F88820094AC3F88B
:104DB000942003B05DF804FB2C040020581500205B
:104DC000C40E00205C000020BC0D00205D540008D3
:104DD000D150000890C1793D154B13B51C78012CBA
:104DE00001D0002021E01348134B002183600DF116
:104DF000070268230370017101F034FD0028F0D030
:104E00009DF80730682BECD120460C4A0C4B1268F9
:104E1000DA670C4AC3F884200B4AC3F888200B4A8F
:104E2000C3F88C200A4AC3F8942002B010BD00BF1A
:104E30002C04002058150020C40E0020540000202F
:104E4000BC0D0020514F0008D15000089D4C0008B7
:104E500090C1793D2DE9FF41354C267B2546002E3A
:104E600061D1142005F02CFA3248334B7627D0213B
:104E700003AA83600770067101F0F4FC002852D089
:104E80009DF80C30582B4ED13146402204F11000D1
:104E90000EF079FB384603F08DFC6061002842D0AB
:104EA000264A1388591C11802382882104F120028C
:104EB000182301F0D5FC38B36069F42103AA01F08E
:104EC000D1FC08B31E4F01250420D7F8C080322141
:104ED00000951C4A04F110032076657609F012F95A
:104EE000E06100B3184B257303603223A387174B8F
:104EF000C4F84C801B6884F83E502E464571C7F8B4
:104F0000C430C7F8C8000EE0E86920B109F05CF9C8
:104F1000074B0022DA61696929B1886801F0A5FCB4
:104F2000034B00225A61304604B0BDE8F08100BF57
:104F3000C80A002058150020C40E00201E000020C2
:104F4000BC0D0020815B00082157010850000020A3
:104F50002DE9F3410446192004F05BFE0CB12778DB
:104F600000E00127544D15216868002201F058FC2B
:104F700010B9022008F098FBDFF83C8100210C22D8
:104F800040460EF000FB682003F014FC6860002827
:104F900000F08880162140F202320DF1070301F083
:104FA00049FC002861D09DF80730012606FA03F07D
:104FB00009F0E6FF02460B463DA1D1E900010AF0E7
:104FC0006FF90AF0FDFA3D4C3E21A06001AAD8F825
:104FD000040001F047FC002847D09DF8043003F09E
:104FE0000702B2421CBF66F302038DF804309DF83D
:104FF000043008BF00265A0604D56FF386138DF8D7
:1050000004302AE04EBB2E4AE5611388591C1180FA
:105010004FF018026B802B4B67F30202AB602379D1
:10502000162143F00103237101232375264B02F05F
:105030001F02A361002323876387A38784F84A3074
:10504000E387A4F84030A4F842300023E3641A4C0C
:10505000606801F0E5FBA8B110E068683E219DF8AA
:10506000042001F0DDFB0028CDD16968D1B188684A
:1050700001F0FBFB104B00225A6013E0A3680BB158
:10508000124A5A60172100220124686801F0C8FB07
:105090003D212246686801F0C3FB68683E21224634
:1050A00001F0BEFB02B0BDE8F08100BFAFF30080AD
:1050B0000000000000606040C80A0020BC0D002015
:1050C0001E000020C00D0020295900080000834167
:1050D00030B5124C0546207987B010F0010019D088
:1050E000A369E06901A99847A0B1BDF904000AF0DD
:1050F00071FB0390BDF906000AF06CFB0490BDF94A
:1051000008000AF067FB29460590227D03A803F0FA
:105110001BFA012000F0010007B030BDBC0D0020DB
:1051200030B5144C0546237987B003F0020303F031
:10513000FF00D3B1636AA06A01A99847A8B1BDF97D
:1051400004000AF047FB0390BDF906000AF042FB99
:105150000490BDF908000AF03DFB2946059094F83B
:10516000202003A803F0F0F9012000F0010007B0AF
:1051700030BD00BFBC0D0020F0B5294D85B02B68B7
:10518000002B4AD0274E96F85000002846D11A68C6
:10519000254C12B1A1690A43A2619A889868ADF8BA
:1051A000002002228DF80320694604228DF8022097
:1051B00006F0ADFEA369002743F00103A3612B684D
:1051C0000124187B197D06F08DFE2B68174993F991
:1051D000150004F0EBFD2B68154A1B69536102931F
:1051E00008230DEB03008DF80D308DF80C708DF851
:1051F0000E4003F07FF92B6801A85B7D8DF80670E7
:105200008DF8043003238DF805308DF8074003F046
:1052100053F986F85040204600E0184605B0F0BD2E
:1052200028040020C80A0020001002404956000847
:10523000000401402DE9F3410446FFF79DFF18B13A
:10524000774B012283F890200CB1277800E00127EA
:10525000744D0021102205F154000EF094F96820DD
:1052600003F0A8FAE865002800F0D1801B2140F285
:1052700002320DF1070301F0DDFA002800F09880FA
:105280009DF80730012606FA03F009F079FE024680
:105290000B4661A1D1E900010AF002F80AF090F989
:1052A0005F4C1C21A06040F20232E86D0DF1070353
:1052B00001F0C0FA00287BD09DF807304FF4804001
:1052C00018410AF087FA6B21E06001AAE86D01F04D
:1052D000C9FA00286CD09DF8043003F0080101F0F1
:1052E000FF0221B132466FF3C3038DF804309DF8FD
:1052F0000430590604D56FF386138DF804304FE05F
:10530000002A4DD1484A002613884FF00108591C45
:10531000A5F85830454B11802B662379444A43F059
:1053200003032371434B6262A361434B0022E36199
:10533000A362E26484F8148084F82080268766875C
:10534000A68784F84A60E687A4F84060A4F8426023
:10535000A3F154046B218022E06D85F8568001F0A2
:105360005FFA642004F0ACFF68210722E06D01F0D1
:1053700057FA642004F0A4FF6B213246E06D01F07F
:105380004FFA642004F09CFF6B214246E06D01F06F
:1053900047FAE06D1B21182201F042FAA8B110E093
:1053A000E86D6B219DF8042001F03AFA0028A9D19C
:1053B000E96D61B3886801F058FA1A4B0022DA658A
:1053C00025E0236E0BB11D4A5A60E86D1C211022A6
:1053D00001F026FA28B1134B1B6E13B14FF08B422C
:1053E0009A601A2107F00702E86D01F019FA144BD0
:1053F00019211A78E86D01F013FA37211022E86DAF
:1054000001F00EFAE86D3821012201F009FA02B02C
:10541000BDE8F081AFF30080000000000060604054
:10542000BC0D0020C80A00201E000020C00D002076
:1054300081570008EB5700081C0B00200000834137
:105440002E04002008B50020FFF796FE024B4FF413
:105450008052A3F8AA2008BDBC0D00202DE9F3411D
:105460000446FFF789FE18B1634B012283F89020B0
:1054700014B194F8008001E04FF001085F4D002165
:10548000102205F164000EF07EF8682003F092F916
:10549000E866002800F0A8806B21802201F0C0F9A6
:1054A00000287ED0564B1C461E6800F09EFD2368E7
:1054B0009B1B642BF9D9E86E1B2101AA4F4E01F00A
:1054C000D1F900286DD09DF804300127C3F3C10342
:1054D00007FA03F009F054FD02460B4644A1D1E956
:1054E000000109F0DDFE0AF06BF8434C1C21A060BE
:1054F0006A46F06E01F0B6F9002852D09DF80030EF
:105500004FF48040C3F3C10318410AF063F93D4AE8
:10551000E06013882775D919A6F86830231D336712
:105520002379118043F003032371374B374AA3617A
:1055300006F16403E361A362002323876387A387E3
:1055400084F84A30E387A4F84030A4F842300023BE
:10555000E3646B21626284F820708022E86E86F832
:10556000667001F05DF9642004F053FB6B210322A7
:10557000E86E01F055F9264B19211A78E86E01F012
:105580004FF90F2004F045FB1A2108F00702E86EDE
:1055900001F046F9E86E1B21182201F041F968B1CB
:1055A00008E0E96E01B3886801F05FF9134B00224F
:1055B000DA6619E0336F0BB1164A5A60E86E1C21A7
:1055C000102201F02DF928B10C4B1B6F13B14FF0D5
:1055D0008B429A6037210222E86E01F021F9E86ED1
:1055E0003821012201F01CF902B0BDE8F08100BFB2
:1055F0000000000000606040BC0D0020C80A0020D0
:10560000C00E00201E000020BF580008555800089A
:105610002E0400200000834108B50020FFF7ACFDF8
:10562000074B5B7813B1012B03D008BD4FF4006228
:1056300001E04FF48052034BA3F8AA2008BD00BF3D
:105640002C040020BC0D0020074B1B681A69074B77
:1056500019685869104206D0114204D05A61044BAF
:10566000986F08F001BC7047280400200004014036
:10567000BC0D0020054A08B5138801339BB2138086
:10568000034B187805F0EEFF002008BD2005002030
:105690004415002006F0F0B806F042BA06F0ECB867
:1056A00006F03EBA70B5C468237D13B1032B12D047
:1056B00017E00D4D2368012098472B689847064650
:1056C0002B689847801B80B20A28F9D923680020EC
:1056D0009847012304E063680BB1E0699847002311
:1056E0002375002070BD00BF3810002018B9034B8F
:1056F00001221A707047002303727047141F0020A4
:10570000C36810B59C695CB194F8243033B10023B0
:1057100084F82430A36A0BB1A06998472468F2E7A3
:10572000204610BD30B585B005460C4640680621C0
:1057300001AA01F097F808B39DF8040010F00100E9
:105740001CD06868002102AA062301F089F8A8B1DC
:105750009DF809209DF80830012003EB02232380E7
:105760009DF80B209DF80A3003EB0223A3809DF8DF
:105770000D209DF80C3003EB0223638005B030BD93
:1057800037B5062305460C4680683B216A4601F082
:1057900067F840B39DF801309DF800109DF8022095
:1057A00003EB01219DF803309DF8040003EB022276
:1057B0009DF8053089B203EB002392B29BB22180A1
:1057C0006280A380687868B109B291FBF0F1218012
:1057D000697812B292FBF1F262806A781BB293FB95
:1057E000F2F3A380012003B030BD37B50623054690
:1057F0000C46806843216A4601F032F840B39DF8B8
:1058000001309DF800109DF8022003EB01219DF866
:1058100003309DF8040003EB02229DF8053089B2A5
:1058200003EB002392B29BB221806280A380287890
:1058300068B109B291FBF0F12180297812B292FB94
:10584000F1F262802A781BB293FBF2F3A38001206D
:1058500003B030BD37B5062305460C4680683B21B2
:105860006A4600F0FDFF40B39DF801309DF800103E
:105870009DF8022003EB01219DF803309DF8040000
:1058800003EB02229DF8053089B203EB002392B2AC
:105890009BB221806280A380687868B109B291FBD5
:1058A000F0F12180697812B292FBF1F262806A789D
:1058B0001BB293FBF2F3A380012003B030BD37B5D8
:1058C000062305460C46806843216A4600F0C8FF5F
:1058D00040B39DF801309DF800109DF8022003EBC5
:1058E00001219DF803309DF8040003EB02229DF88E
:1058F000053089B203EB002392B29BB22180628013
:10590000A380287868B109B291FBF0F12180297851
:1059100012B292FBF1F262802A781BB293FBF2F38F
:10592000A380012003B030BD37B5062305460C46E1
:1059300040681D216A4600F093FF28B39DF80130AE
:105940009DF800109DF8022043EA01219DF80330E4
:105950009DF8040043EA02229DF80530218043EAC5
:1059600000236280A380287868B109B291FBF0F12E
:105970002180297812B292FBF1F262802A781BB260
:1059800093FBF2F3A380012003B030BD37B504468A
:105990000D46006909216A4600F064FF08B900203D
:1059A00039E09DF80030DB07F9D5206903216A460C
:1059B000062300F055FF0028F1D09DF801309DF836
:1059C000000003EB002000B209F004FF216809F099
:1059D00055FF0AF019F99DF8033028809DF8020060
:1059E00003EB002000B209F0F5FEA16809F046FFC4
:1059F0000AF00AF99DF80530A8809DF8040003EB31
:105A0000002000B209F0E6FE616809F037FF0AF0F5
:105A1000FBF86880012003B030BD037A73B5052B15
:105A200004460D4600F2958060680DF10701A84715
:105A3000002875D0237A052BF6D8DFE803F003227F
:105A4000282E39459DF8071024290FD1236A0121FA
:105A50005A7A21720AB959721A77C8221A60DA6022
:105A60001A7A022AE0D100229A61DDE7434B1B78C3
:105A7000032B59D1636D002B56D02046E26C98471A
:105A8000D2E79DF807304D2B4ED102231AE09DF846
:105A900007303C2B48D1032314E09DF807307C2BC2
:105AA00044D8E2686375137001232374042309E06A
:105AB0009DF80730227CE16823758B54237C0133E9
:105AC000237405232372AFE7237CE2689DF8071057
:105AD000D154227C637D0132D2B2023393422274CC
