:020000040800F2
:1000000000500020455C0108E15C01084D410108F9
:10001000E15C0108E15C0108E15C0108000000000E
:10002000000000000000000000000000E15C01088A
:10003000E15C010800000000E15C0108216F00089C
:10004000E15C0108E15C0108E15C0108E15C010898
:10005000E15C0108E15C0108210301081D030108BE
:10006000190301081503010811030108557300085D
:100070004D730008457300083D7300083573000890
:100080002D73000825730008E15C0108E15C01089C
:10009000E15C0108E15C0108E15C01080D03010875
:1000A000E15C010849C50008E15C010859C5000888
:1000B00039C5000829C5000819C500080DD8000871
:1000C0000FD8000809D800080BD80008E15C010827
:1000D000E15C0108B1E00008A5E0000899E0000833
:1000E00009030108E15C0108E15C0108000000006F
:1000F0000000000000000000000000000000000000
:0C01000000000000000000005FF808F1A3
:100110002DE9F04F374ED7B0751E771C4FF0000811
:1001200055F8113CA5F11109002B01F0B58455F8E3
:10013000110C07F061F88246002801F0868455F81A
:10014000110C07F056F815F8053C0446013B042B4A
:1001500004D8DFE803F0070C1F292D0024284DD117
:10016000012344E04D2814BF002302233FE0002375
:100170003C2805F8053C02D03E2805D075E015F86E
:100180000D3C002B71D103E015F80D3C012B6CD117
:1001900003232CE040284FF000039EBF05F8043CE9
:1001A00005F8030C042322E005F8020C05231EE0E9
:1001B00015F8042C15F8033C9A4209D2531C0E4939
:1001C00005F8043C502303FB08131A4410744CE058
:1001D00015F8022C691E5A4013F1FF3303D311F8AE
:1001E000010B4240F8E794420CBF0623002305F8B8
:1001F000053C3AE0D6070020C4070020DFF8E4B051
:1002000055F8111C9BF8003013F004022DD1232C5B
:1002100020D12B4B012018702A4B2B4883F8B1209A
:100220001022C3F8A80083F8B020C3F8AC1003F183
:10023000A8022648C3F8A010C3F8A410C3F8C4202D
:1002400012F050FF0FF034F89BF8003043F0020337
:100250008BF800301E4B1B78A34201BF1D4A1E4B7A
:100260001A601E4A04BF1E4BDA6015F8053C062BC7
:100270007FF45DAF15F80DECBEF1000F41F0E583A2
:1002800015F8030C502101FB08010E4C15F8020C67
:1002900056AB10311FFA80FC214416AA089301388E
:1002A0006B1E0A930792ADF826E00B91ADF830C0B3
:1002B000ADF832E0ADF824C0CB1AA34614E000BF7D
:1002C0007E3A0020C4070020C97200085AB601080F
:1002D0005C1A0020EFBEADDEF04F00200400FA05EE
:1002E00000ED00E0803A0020FD2801F29F83DFE866
:1002F00010F014011D012501300139019D0B9D0BEA
:100300009D0B9D0B9D0B9D0B9D0B9D0B9D0B9D0BAD
:100310009D0B9D0B9D0B9D0B9D0B9D0B9D0B9D0B9D
:100320009D0B9D0B9D0B9D0B9D0B9D0B9D0B9D0B8D
:10033000EA043B0A4F039F07C504E709C904F4090F
:10034000D704270AFE04540A01055B0A8105FE0052
:100350009B05520B5C05C80A7203D4076E05FC0AA4
:100360000A01050A8F024B036A07EB025F079D0B28
:100370006205CF0A9D0B9D0B8A0B7E06D7050B06E7
:1003800066099D0B9D0B1F05800A4005A10A3706D3
:100390002E069D0B77069D0B9D0B9D0B9D0B9D0BBC
:1003A0002E099D0B9D0B9D0B9D0B9D0B9D0B9D0B7E
:1003B0009D0B9D0B9D0B9D0B47015501CE01F90136
:1003C0005C0267021004330475028502B902F5026B
:1003D0002B039D0BCE039D0B9E0347034404BB03DD
:1003E000FD019D0B9D0B9D0B8D069B06B206A7057F
:1003F00003015F0645069D0B9D0B9D0B9D0B9D0B01
:100400009D0B9D0B9D0B9D0B9D0B9D0B9D0B9D0BAC
:100410009D0B9D0B9D0B9D0B9D0B9D0B9D0B9D0B9C
:100420009D0B9D0B9D0B9D0B9D0B9D0B9D0B9D0B8C
:10043000B7049D0B9D0B9D0B79049D0B9D0B9D0B94
:100440009D0B9D0B9D0B9D0B9D0B9D0B9D0B9D0B6C
:100450009D0B9D0B9D0B9D0B9D0B9D0B9D0B9D0B5C
:100460009D0B9D0B9D0B9D0B9D0B9D0B9D0B9D0B4C
:100470009D0B9D0B9D0B9D0B9D0B9D0B9D0B9D0B3C
:1004800029076A0974079D0BFF0743094E094508B0
:100490003B0999091607220791089D0B85089D0BBA
:1004A0009D0BF40805091B0920097B0B9D0B9D0B77
:1004B0009D0B9D0B9D0B9D0B9D0B9D0B9D0B9D0BFC
:1004C0009D0B9D0B9D0B9D0B9D0B9D0B9D0B550738
:1004D000AC043102CF089D0BDB0AC0069D0B9D0BBF
:1004E0009D0B9D0B5B099D0B9D0B9D0BA104DFF8E4
:1004F00070B3002401F032BAB4F80831FF2BA8BF62
:10050000FF2300F054BC94F82C31137094F82D3173
:10051000537094F82E3100F0A6BD00230DF15B015D
:10052000137001230791537019210FE0BA4907A8EE
:10053000042211F08AFC012301F07ABA0E21012372
:1005400051700DF15B01079113700321917001F05F
:100550006FBA07A8B149042211F077FCB04B07A885
:10056000197832E307A8AF490B2211F06EFC07A8F7
:10057000AD49082211F069FC07A8AC490722D8E769
:10058000E723137094F8303107A853700DF15B0323
:10059000079300239370042100F034BDA44B07A8F7
:1005A000198811F070FCB4F8401107A889B211F055
:1005B0006AFCD4F8443107A8C3F3C001C3F3800236
:1005C000890041EA4201C3F340021143C3F34012E0
:1005D00041EAC20103F01003194311F054FC002357
:1005E0001946B4F84801934A12F901E0BEF1FF3F01
:1005F0000CD04FF2FF720A41D20707D540FA01F240
:10060000D20742BF012202FA0EF2134301310C2934
:10061000E9D1D4F84CE10021012287488A401040FA
:1006200018B112EA0E0F18BF134301312029F3D17C
:10063000824A00201278864651070146D4F850C1FC
:1006400048BF43F00103012202FA00FB1BEA0C0F32
:1006500007D01BEA030F1CBF02FA0EF211430EF182
:10066000010E01301D28EED107A811F0F8FB079B01
:1006700094F85421591C07911A7007A894F85C113A
:1006800011F001FC07A8B4F8601100F0E0BCB4F868
:100690006C310024B3F5806F8CBF4FF0030B4FF02B
:1006A000000B674B07A853F82410013441FA0BF1F3
:1006B00089B211F0E8FB032CF3D10024614B07A8A9
:1006C00033F82410013411F0DEFB032CF6D10024A2
:1006D0005D4B07A833F82410013411F0D4FB032C30
:1006E000F6D128E707A85949102222E700230C2455
:1006F0005C43DBF8A4210393115B07A811F0C3FB53
:10070000DBF8A42107A82244518811F0BCFBDBF8D8
:10071000A42107A82244918811F0B5FBDBF8A4219D
:1007200022449179079A501C07901170DBF8A4219C
:100730002244D179079A501C07901170DBF8A4214C
:1007400007A81444A16811F08AFB039B0133082B0E
:10075000CDD1F0E63E4B03F17001079A13F8010C7E
:10076000541C07941070079A1878541C0794107042
:10077000079A5878541C07941070079A9878541C5C
:1007800007941070079AD878541C07941070079A31
:100790001879541C07941070079A58790733541C21
:1007A0008B4207941070D8D1C5E60024294B07A8C6
:1007B00033F81410013411F066FB082CF6D1BAE6B8
:1007C0000024254B1B789C42BFF6B5AE234B07A8EF
:1007D00033F8141011F057FB0134F2E707A8B4F80E
:1007E000301211F050FBB4F8321207A811F04BFB95
:1007F000B4F934320A2193FBF1F1D6E307A8D4F817
:10080000381211F02CFB07A8B4F83C1200F01FBC02
:1008100007A8D4F84012F5E392B6010897B601088C
:100820007F3A00209CB60108A8B60108B1B60108BD
:10083000783A002050970108C0F11F1A803A002032
:1008400034090020400900204C09002058090020EC
:100850006D090020DC0900204C1A0020081A002035
:100860008C0800204FF6FF7B94F84A32B4F84C22F3
:1008700004EBC3030DF159010791D3F85412FF2A79
:10088000A8BFFF225945A8BF594621EAE17107A830
:1008900089B28DF85820039311F0F5FAB4F860127C
:1008A00007A811F0F0FA039B94F86222D3F85012D3
:1008B0003AB10A2359435945A8BF594621EAE17183
:1008C00073E301F30F0170E394F865320DF15A01FF
:1008D000137094F86432079153702CE6D4F86832A0
:1008E0000DF159001978079011705B780DF15A01DC
:1008F000537007910023DBF86822B7491A44107936
:10090000079A0133541C032B07941070F3D1D1F8CC
:100910006832DA79079B581C07901A70D1F8683250
:100920009A78079B581C07901A70D1F86832DA78C9
:10093000079B581C07901A70D1F8684207A8618974
:1009400011F0A1FA227A0EE20022DBF86C32995CF7
:10095000079B581C07901970DBF86C321344997A86
:10096000079B581C07901970DBF86C321344197DF3
:10097000079B0132581C0A2A07901970E5D1DAE565
:1009800007A896492F22D4E5D4F86C329B7F0EE25B
:100990000024DBF8702212F8240002EB8403039396
:1009A00005F008F8079A4179501C0790039B1170D5
:1009B000079A5978501C07901170079A9978501C23
:1009C00007901170DA78079B0134591C142C079199
:1009D0001A70DED1AFE5002106234B43DBF8740229
:1009E000079CC21892F805E004F1010CCDF81CC078
:1009F00084F800E0C05C079B01315C1C0794187010
:100A0000079B50785C1C07941870079B90785C1CBF
:100A100007941870079BD0785C1C07941870079B8C
:100A20001279581C0C2907901A70D5D183E500243F
:100A30000123DBF85021A340134211D0E0B204F0AF
:100A4000B9FF01680846039118F0CDFD03990246ED
:100A500007A811F0FAF9079B5A1C07923B221A705B
:100A600001341D2CE4D166E500240123DBF850217C
:100A7000A340134207D0E0B204F09CFF079B4279E9
:100A8000591C07911A7001341D2CEED153E5544BBB
:100A900007A8198A039311F0F6F907A8B4F8781299
:100AA00011F0F1F907A8B4F87A1211F0ECF907A8DF
:100AB000B4F87C1211F0E7F907A8B4F8861211F027
:100AC000E2F9079A94F88C12501C0790117007995C
:100AD000039B4A1C079200220A70079994F88D0222
:100AE00001F1010ECDF81CE00870079994F862023C
:100AF00001F1010ECDF81CE00870D97A079B581C53
:100B000007901970079B591C07911A70D4F89032FE
:100B1000A3E094F894320DF15A0103F0020313702C
:100B200094F895320791537007A8D4F8981211F0F1
:100B300096F907A8D4F89C1211F091F907A8B4F817
:100B4000A01211F0A0F907A8B4F8A21211F09BF9B5
:100B500007A8B4F8A4127AE207A8B4F8A61211F014
:100B600092F9B4F8A81207A811F08DF994F8AA32F6
:100B7000079A03F00103511C1BE115F8013C0A958B
:100B800023B9D4F8AC12D4F8B0B208E0102B19BFD6
:100B90004FF0000B5946D4F8B412D4F8B8B20DF1A6
:100BA00059001370079007A811F059F907A8594682
:100BB00011F055F907A8D4F8BC1211F050F907A8A4
:100BC000002111F060F907A8002111F05CF9079BE2
:100BD0005A1C07920022C9E0C40700205C97010854
:100BE0002C1A002094F8C0320DF1590113700791AE
:100BF00000239BF8C0229342BFF69DACB34A0799ED
:100C0000985C4C1C0794087002F11001585C07991D
:100C10004C1C0794087002F12001585C079930328F
:100C20004C1C07940870995C079A0133501C07907C
:100C30001170DEE70024A64B07A833F81410013426
:100C400011F021F9042CF6D175E4D4F80C3307A87F
:100C5000598811F018F9D4F80C3307A81988F6E16F
:100C60009C4B07A8196811F0FAF89B4B07A8196864
:100C700011F0F5F8994B07A81968C3E107A8D4F853
:100C80001013BFE107A8B4F8141311F0FCF807A87B
:100C9000B4F8161311F0F7F807A8B4F81813D6E152
:100CA00007A8B4F81A1311F0EEF807A8B4F81C134B
:100CB00011F0E9F807A8B4F81E1311F0E4F807A83A
:100CC000B4F82013C3E194F845320DF15B011370C1
:100CD00094F844320791537094F8463207A8937001
:100CE000B4F8481211F0CFF894F84A223BE094F897
:100CF00030315CE07A4C0DF15901237A0791137081
:100D000007A8A18A11F0BFF807A8218A11F0BBF843
:100D100007A8618A11F0B7F8079BA27A591C0791BE
:100D20001A7007A8E18A11F0AEF807A8218B8EE1AE
:100D300094F884320DF15A01137094F885320791BA
:100D4000537007A8B4F8861211F09DF8079B94F829
:100D50008822591C07911A7007A8B4F8891211F05B
:100D600092F894F88B22079B591C07911A70FFF791
:100D7000E2BB00245B4B1B789C42BFF6DCAB5A4BBA
:100D8000079A13F81410501C079003EB44031170DA
:100D9000597807A801EB810101EB810101F2EE21F5
:100DA00089B211F070F80134E4E74D4BDB7A0DF1B4
:100DB0005901079118E10023494A995C079A0133C8
:100DC000501C082B07901170F6D1FFF7B4BB474CAD
:100DD00004F1280B14F8032C00234549C95C8A420E
:100DE00000F064860C333C2BF7D108345C45F1D11C
:100DF000FFF7A1BB0024DFF80CB107A83BF80410F3
:100E000011F041F8A344079B9BF80220591C07915D
:100E10001A70079B9BF803200434591C402C07913F
:100E20001A70E8D1FFF787BB0024324B07A853F8AC
:100E30002410013411F013F8202CF6D1FFF77BBBFE
:100E400000222D4B062101FB023100230798441C90
:100E5000079402700798441C079403700798CC5CB1
:100E6000013300F1010E062BCDF81CE00470EDD12A
:100E70000132062AE5D10023079A511C0791062169
:100E80001170079A511C079113701C4A995C079ABC
:100E90000133501C0B2B07901170EDD1FFF74BBBAA
:100EA00010F07AFA079B40F002005A1C144C07928B
:100EB0001870218807A810F0D2FFE16807A810F089
:100EC000CEFF0BF0EFFA014607A89BE0850A002051
:100ED000C60A0020E8F7FF1FECF7FF1FF0F7FF1F1F
:100EE0002C1A00204C1A0020E60A0020611A00206B
:100EF0000C0B0020480B0020C80B0020EC0B00203E
:100F0000000000208C0800200AA806F091FB834610
:100F100007A8594610F0A3FF0799089CBB4B641A19
:100F2000802CDB68A8BF80240BEB04029A4288BFA8
:100F3000CBEB030403910BF003FA584603992246C6
:100F400010F05EFA079B18440790FFF7F4BA0023ED
:100F500017A91370537093700791D370FFF7EBBA12
:100F600000240DF15B0307A821461470547094709F
:100F7000079310F074FF07A8214643E094F8333438
:100F80000DF15A01033B18BF01231370B4F84C3222
:100F90000791FF2BA8BFFF23537094F84A3204EB4C
:100FA000C30BDBF8541281F3100107A889B24EE09D
:100FB0000024DFF878B20A2354F80B1007A859432D
:100FC00081F3100189B2A34410F05DFF083407A833
:100FD000DBF8041010F043FF102CEAD1FFF7ABBA96
:100FE0000DF15903079300231370FFF7A4BA07A864
:100FF00087490B2210F029FF07A8002110F02FFFCE
:1010000007A8002110F02BFFFFF795BA07A8B4F846
:10101000341410F038FF07A8B4F8361410F033FF7A
:1010200007A8B4F8381412E0D4F83C340DF1590094
:1010300019780790117059780DF15A000790517086
:1010400099780DF15B009170D988079007A810F08E
:101050001AFFFFF770BA94F84034137094F84134D3
:10106000537094F842340DF15B0107919370FFF7D0
:1010700062BA68480021C022002418F062FA2346B0
:1010800065489BF80625654994423DDA427AD207C5
:1010900037D5027A01EB4202B2F91822002A30DD7C
:1010A000D0F80CC01A0101EB020EDCF80410BCF8F9
:1010B00008C0CEF84414AEF84AC44FF0000E012127
:1010C00001FA0EF111EA0C0101D0714604E00EF1B3
:1010D000010EBEF1100FF2D15A444FF0020E82F809
:1010E0004FE44FF0480EA2F84CC482F84EE4A2F848
:1010F000481402F24C41D2F84C2401334A601022C9
:101100008A7101340830BCE7DBB20DF15902079255
:1011100081F87C358DF85830414A00F075BC414B60
:101120001B785B073FF507AA15F8010C0A9505F037
:101130007DF8FFF700BA0AA810F07CFEA4F87E053F
:10114000FFF7F9B9C3F3470BBBF1120F00F26E843E
:1011500000235B4509D20AA8039310F06BFE039BA2
:101160000DAA22F813000133F3E7594600225A452D
:1011700007DA0DAB33F812002B4B23F812000132C3
:10118000F5E7122905D0284B002223F81120013160
:10119000F7E7012384F8A43500F04ABC0AA8D4F884
:1011A0000CB310F047FEABF80200D4F80C431FE17B
:1011B00015F8013C0A9684F8653216F8013C84F86B
:1011C0006432FFF7B8B9D4F86C3215F8010C0A95FF
:1011D000987704F083FBFFF7AEB9D4F86C22531E66
:1011E00002F109000A9A511C0A91114611F8024BAA
:1011F00003F8014F0A9151788342997202F1030179
:101200000A9192781A75EDD1FFF795B90000002088
:101210009CB60108080C0020C80C0020C407002060
:1012200081570008803A0020440D0020140A002055
:1012300015F8011C0A95132900F3F883D4F870E21D
:1012400016F8010C0A960023DFF8ECC4DA000CEB68
:10125000020B9BF841B083451BD1624492F84030A9
:101260000EEB81000EF821300A9B5A1C0A921B7863
:1012700043700A9B5A1C0A921B7883700A9B5A1C63
:101280000A921B78C370D4F8700213F001F9FFF7CB
:1012900052B901331D2BD7D1C8E315F8012C0A959B
:1012A0000B2A00F3C38316F8010CD4F87412042837
:1012B0000A9600F3BB8306235A438B18587168784B
:1012C0000A9788540A9A511C0A9112785A700A9AFD
:1012D000511C0A9112789A700A9A511C0A9112783C
:1012E000DA700A9A511C0A9112781A71FFF723B921
:1012F000092B40F39B83D4F8684215F8012C0A951A
:1013000022700A9A04F1030C511C0A9112780021F0
:1013100062700A9A022902F1010ECDF828E01078D5
:101320000CBF4FF0FF0B4FF0640B584528BF5846D9
:10133000013103290CF8010FEBD1911C0A9151786E
:101340000332642928BF64210A92E1719EF80120CA
:101350000AA8A2700A9A0393511C0A911278E270AB
:1013600010F068FD039B60810A2B3FF4E4A80A9B00
:101370005A1C0A921B782372FFF7DDB80AA810F0F6
:1013800059FD6FF4AF6E00EB0E03DFF8B0B3C62B60
:1013900098BFABF810000AA810F04CFDA4F8780232
:1013A0000AA810F047FDA4F87A020AA810F042FD3E
:1013B000A4F87C020AA810F03DFD0A9BA4F886025E
:1013C0005A1C0A921A4612F8031B0A929A7884F859
:1013D0008C1284F88D221A1D0A92DA78063384F86A
:1013E000622213F8022CD4F890428BF80B200A9357
:1013F0000AA810F01FFD2080FFF79DB800240AA85E
:1014000010F018FDC74B23F814000134082CF6D156
:10141000FFF791B80D2B40F0098315F801BC0A9530
:10142000BBF1070F00F20283D4F8A4310AA803939A
:1014300010F000FD0C2202FB0BFB039B23F80B00BA
:10144000D4F8A4310AA8039310F0F4FC039B5B4486
:101450005880D4F8A4310AA8039310F0EBFC039B46
:10146000D4F8A4215B4498800A9B93441A46591CE3
:101470000A9112F8021B0AA88BF806100A925B78F0
:101480008BF8073006F0D4F8CBF80800FFF753B814
:1014900015F8013C0A950F2B00F3C88216F8012CB1
:1014A000C3EBC3039B448BF8A8216A788BF8A9216E
:1014B000AA788BF8AA21EA788BF8AB212A798BF8E5
:1014C000AC216A798BF8AD21EA1D0A92AA798BF8D2
:1014D000AE2109F07BF9FFF72EB80AA810F0AAFC9C
:1014E000A4F834040AA810F0A5FCA4F836040AA84D
:1014F00010F0A0FCA4F83804FFF71DB8D4F83C4461
:1015000015F8013C0A9523700A9B0AA85A1C0A92F6
:101510001B7863700A9B5A1C0A921B78A37010F008
:1015200089FCE080FFF707B87F4811F04FF8FFF71C
:1015300002B815F8013C0A9784F8403416F8013CCB
:1015400084F841346B7884F84234FEF7F4BF082302
:10155000079A013B511C079113F0FF034FF0000164
:101560001170F5D1FEF7E7BF704B1B785C073EF5B5
:10157000E2AF04F099FB1CE06C4B1B7858073EF57A
:10158000DAAF4FF4C873A4F8BE35FEF7D4BF674B8B
:101590001B7859073EF5CFAF94F8943243F004031B
:1015A00084F89432FEF7C7BF604B1B785A0700F1EE
:1015B0003D8204F087FA04F055FCFEF7BCBF0AF048
:1015C00085FFFEF7B8BF15F8013C23B194F89432BB
:1015D00043F0020303E094F8943223F0020384F80A
:1015E000943216F8013C0AA884F895320A9606F05F
:1015F0001FF8C4F898020AA806F01AF8C4F89C026A
:101600000AA810F017FCA4F8A0020AA810F012FC17
:1016100094F8AA32A4F8A20243F0020384F8AA3292
:10162000FEF789BF15F801CC0AA8CDF814C00A95B9
:1016300005F0FEFF04900AA805F0FAFF03900AA83F
:1016400005F0F6FF83460AA810F0F4FB0AA810F094
:10165000F1FB0A9BDDF814C001330A93039A049945
:10166000BCF1000F15D11020C4F8AC12C4F8B022A0
:1016700004F0B0F994F8943243F0010384F8943202
:10168000BBF1000F3EF457AF294BC3F8BCB2FEF7D5
:1016900052BFBCF1100F7EF44EAFC4F8B412C4F8C0
:1016A000B822BBF1000F02D0214BC3F8BCB22148D5
:1016B0000223011D84F8C0350AF0B6FCFEF73BBFDB
:1016C00000230AA8C4F8103305F0B2FFD4F8103391
:1016D0001843C4F81003FEF72EBF0AA810F0AAFBA7
:1016E000A4F814030AA810F0A5FBA4F816030AA88E
:1016F00010F0A0FBA4F81803FEF71DBF15F8013C7D
:101700000A95002B40F0928116F8013C84F82C31A8
:101710006B7884F82D31EB1C0A93AB7884F82E316A
:10172000FEF709BF6A0D002058D40108803A002056
:10173000C4070020780A0020509701082C1A0020C6
:1017400015F8014C0A95012C00F370810AA810F0DD
:1017500071FB0BEB840BABF81A030AA810F06AFBC1
:10176000ABF81C03FEF7E7BE15F8013C0AA884F8A5
:10177000453216F8013C0A9784F844326B7884F8B5
:10178000463210F057FB0A9BA4F848025A1C0A92F2
:101790001B7884F84A32FEF7CEBE15F8013C0A9554
:1017A00084F83031FEF7C7BE994C15F8013C0AA801
:1017B00023720A9510F03EFBA0820AA810F03AFBB3
:1017C00020820AA810F036FB0A9B60825A1C0A92FB
:1017D0001B78A3720B9B9B1A012B7EF7ACAE0AA859
:1017E00010F028FBE0820AA810F024FB2083FEF70B
:1017F000A2BE15F8013C0AA884F8843216F8013C10
:101800000A9684F8853210F015FB0A9BA4F886022C
:101810005A1C0A921B780AA884F8883210F00AFB36
:101820000A9BA4F889025A1C0A921B7884F88B320E
:10183000FEF781BE15F8014C0A95112C00F3F680D5
:1018400016F8012C64000BEB040383F822230AA88A
:101850000A9610F0EFFA40F2ED23984205DD40F6CB
:10186000CA039842A8BF184601E040F2EE20A0F259
:10187000EE20192390FBF3F0A3448BF82303FEF72B
:101880005ABE15F8012C624B0A95DA72FEF753BE68
:1018900000230A9A511C0A9111785D4A9954013328
:1018A000082BF6D1FEF747BE5A4B1B785B073EF577
:1018B00042AE15F901BC0A95584605F035FA08B153
:1018C000436873B9032300220093019258464FF4F2
:1018D00000614FF4E13305F0D8FBC4F8C40510B93A
:1018E000A4E0C4F8C4354C4A8EE0072293FBF2F220
:1018F000C2EBC202934240F099800A9A0B9B9B1A5A
:10190000062B7EF718AE531C0A9312780023434C23
:1019100004EBC304A1788A4207D1A2700AA810F090
:1019200089FA631DA080093403E00133052BEED151
:101930007CE00A9A511C0A91127803F8012FA34205
:10194000F7D1DAE722F824000134102C8BF802E0FA
:101950008BF803300BF1040B3EF4EDAD0B9B0A9AB0
:101960009B1A032B7EF7E7AD0AA810F063FA0A9BD7
:10197000B0F5B47F03F101020A921A4612F802EBA5
:101980004FEA84010A925B78254ADBDB002350187A
:10199000535243804AE0052B0A9515F8014C45D176
:1019A0001F2C43DC0AA805F043FE0BEB840BCBF89D
:1019B00084030FF001FEFEF7BEBD2046631C0A93B0
:1019C00010F802EBE21C0A9063780A92A0780F28C4
:1019D0002CD8BEF1050F0DD8052B27D8062202FB07
:1019E0000EB2134483F804040A9C0B1B022BE4DCA4
:1019F000FEF7A1BDBEF1060F18D10A2B16D85B4425
:101A000083F82804F0E7074A074B1A60FEF793BDF6
:101A10002C1A0020803A0020715700085C1A002020
:101A20008C080020A55A0008583A00204FF0FF33D8
:101A3000ADF82630079B4846089307A916AB0793D5
:101A400005F0FEFB002305F8053C264C23681BB17E
:101A5000484698470023236015F8053CE3B955F83C
:101A6000093CCBB1BAF1000F16D156AA0E924FF62F
:101A7000FF7216AC0D94ADF83C20ADF83EA00DA859
:101A8000984730B10D9B48460DA90E930D9405F073
:101A9000D7FB002345F8093C503650355037B8F194
:101AA000000F1BD14FF00108FEF73ABB079B07A8B8
:101AB000591C07911A7034F8011C10F0E4F9224601
:101AC0000023079912F8010F013301F1010E042BD5
:101AD000CDF81CE00870F4D1FFF787B957B0BDE826
:101AE000F08F00BF583A00202DE9F04F8BB007F07F
:101AF00071FFC14B1E78002E41F0C482BF4D2B6890
:101B00005C0541F1BF82BE4BBE4C1B68DFF83883D9
:101B1000DF882378002B00F0F481D8F80020636878
:101B2000D31A7C2B40F2ED81237A62600133237259
:101B300006F12400C0B207F0FFFEB34B53F82600B5
:101B40004FF47A735843B14B01361B8990FBF3F085
:101B500000B207F0DFFE032EEAD1302007F0ECFEE2
:101B6000AB4BDFF8A092B3F9000007F0D3FE07F00B
:101B7000DBFE237A980733D141F28833D9F8042069
:101B80009A421AD9102007F0D7FED9F80C00642623
:101B900090FBF6F000B207F0BDFE212007F0CCFE6E
:101BA000D9F80C0090FBF6F306FB130383EAE3700D
:101BB000A0EBE37000B207F0ADFE142007F0BCFE0E
:101BC000944BB3F904000A2390FBF3F007F0A2FE54
:101BD0001C2007F0B1FE002007F09CFE07F0A4FED9
:101BE000237A590740F06881022007F0A5FE854B53
:101BF0004FF0050918696423323090FBF3F000B20E
:101C000007F088FE844B0320B3F9066007F094FECA
:101C100096FBF9F6814BB6B21B785A070AD53846BF
:101C200006F066FD20B92B6813F0100F18BF0026D0
:101C300030B204E07A4B9888B0FBF9F000B207F0BC
:101C400069FE2B689B0773D5A37DDFF8B891754FAC
:101C500033B3DFF8F8A13A889AF80010642303FB45
:101C600002124B00B2FBF3F3B9F8186006203601FC
:101C7000B6B246EA0326B6B2C3F303231E4307F007
:101C80005BFE30B207F046FEB9F818309AF8001043
:101C900001339BB293FBF1F201FB1233A9F8183028
:101CA00094F82630012B05D1392007F045FEB7F90D
:101CB00000001BE03E886E235E43152796FBF7F677
:101CC0003A20B7B24FF0640907F036FEB7FBF9F6D9
:101CD00030B209FB167607F01DFE3B2007F02CFE04
:101CE000B0B2461D0A2096FBF0F000B24C4F07F050
:101CF00011FE4D4E97F80690282007F01DFE56F86D
:101D000039300A2093FBF0F000B207F003FE042004
:101D100007F012FEBB8813B104F054FF05E0BB7955
:101D200006EBC306706880F3100000B207F0F2FD06
:101D30003E4B1B689F0640F1B4803D4F3B789E07A9
:101D40001FD5DFF80C91112007F0F6FDB9F800005F
:101D50004FF4F3667043374B90FBF3F000B207F09B
:101D6000D9FD192007F0E8FDB9F8000046436420CA
:101D700096FBF0F696FBF0F300FB136000B207F061
:101D8000C9FD2D4B01201E883B7813F0020F08BFC0
:101D9000002607F0D1FD30B207F0BCFD092007F0A6
:101DA000CBFD002007F0B6FD244B1E78244B1A888B
:101DB000B2F5967F09D9237A03F00F03072B04D8D5
:101DC00042F20F76964228BF1646052007F0B4FD72
:101DD00094F825300BB930B244E0A6F1200013F09E
:101DE000E1F9184913F0E6FA0021064613F0CCFB9E
:101DF00080BB4FF07C512FE07E3A0020041A002077
:101E0000000C00204C11002034090020280900207B
:101E1000000A0020F4090020C81B0020803A00209E
:101E2000080A0020100A0020140A002008090020D7
:101E3000580A0020A0860100640A0020590A0020E8
:101E4000100000206666E63F743600203C02002049
:101E5000660A00204FF03F41304613F0EFF813F0D0
:101E6000BBFB00B207F056FD3B78980704D494F80A
:101E70002830C44E012B04D1012384F82830C248F5
:101E800016E0C249F06913F0E1F913F0A5FBBF4970
:101E90000290306A13F0DAF913F09EFB039002A867
:101EA00006E0BB4A02AB92E8030083E80300184651
:101EB00007F054FD07F038FD237A282B21D1B14BD0
:101EC0000022D8F800001A724FF47A73B0FBF3F7CF
:101ED0004FF03C09172007F02FFDB7FBF9F6B6FBD2
:101EE000F9F009FB1060000200B207F013FD1820A2
:101EF00007F022FD09FB167000B207F00BFD07F09A
:101F000013FD94F829309F4E002B00F0768104F0E9
:101F100082FEF36A9F4AC31A9342074640F2C98081
:101F2000002386F8323086F834309B4B96F86010E8
:101F30001B88DAB21B0A86F84E2086F84F3086F8E6
:101F4000442086F84530F26DD8F800309A1A4FF4E4
:101F50007A734B439A420DD3904B1B68F365904BB9
:101F60001B78013B012B9FBF102386F832300223E0
:101F700086F834308B4B8C499B790A2051F83320FA
:101F800001EBC3014B6892FBF0F293FBF0F384F892
:101F90004C20121284F84D2084F85030834A1B12D2
:101FA00084F85130824B12781B789107754E84F873
:101FB0007B3003D42D2386F87C3079E0042B8CBF52
:101FC0003323322386F87C306F4B7A4AD3F800A053
:101FD00058689AFBF2FB784B4FF0060903FB0BA6FF
:101FE00009FB06F675494FF0640896FBF1FE01FB0C
:101FF0001E6696FBF8F684F86D60361284F86E6003
:1020000090FBF2F603FB060309FB03F393FBF1F2EB
:1020100001FB123393FBF8F351B206EB860202EB9D
:10202000820201EB820284F872301B1292B284F8B1
:102030007330634B84F87020120A84F871201A8878
:10204000242353434FF47A7293FBF2F384F86830FD
:10205000C3F3072384F869305A4B0BEB8B0B1B88B7
:102060004FFA8EFC84F874301B0A84F87530564B96
:102070000BEB8B0B1B880CEB8B0E03F5FA739BB2EF
:1020800084F876301B0A84F87730504B1FFA8EFEA6
:102090001B884FEADA7A84F86BE0C00F4FEA1E2EF5
:1020A00084F86AA084F86CE084F86F0084F87D30CE
:1020B000E76294F88D90334EB9F1000F0FD1D6F846
:1020C000940005F099F8012809D90228DFF8008169
:1020D00000F02D8707F010FC012388F80230D4F8B7
:1020E0009860284B002E00F0888093F88D203AB13C
:1020F00040F6B731D3F8A020BA1A8A4216D87CE04D
:10210000012283F88D20D3F8A420D3F8940012780C
:10211000022A04D80430022107F0D8FB02E0022191
:1021200004F0B0FF002384F8A83064E093F89C200A
:10213000AAB9C3F8982083F88D20D3F8A420D3F847
:1021400094001278022A04D80430012107F0BEFB63
:1021500002E0012104F096FF07F0CEFB4BE0013ACC
:10216000D2B283F89C2093F8A81093F8A9008ABBF8
:1021700001304A1C83F8A90083F8A820D3F8940002
:1021800037E000BF4C1100205C0A00208096184BFD
:10219000809801083F0D0300100A002074360020CB
:1021A000F70B0020080A0020140A0020580A00201B
:1021B000590A002080969800806967FF40420F000E
:1021C000660A00206A0A0020640A00206C0A0020C7
:1021D00010000020324612F801EB01300EEB010630
:1021E000714683F8A900D3F8940083F8A860C3F877
:1021F000982005F004F8C4F8A070BC4E94F8AA200A
:102200003768BB4B002A00F01882D3F8AC20002AB4
:1022100000F0138293F8B030013B012B00F20D82E5
:10222000D4F8AC00DFF8C88204F0E6FFE0B1D8F8DB
:10223000AC0004F0DEFF98F8B13081467E2BD6F872
:1022400000A00ED102231B2888F8B03009D1D8F89D
:10225000AC0004F0D1FF20B90123C8F8B4A088F87D
:10226000B83084F8B190DBE7D8F8B42033689B1A13
:1022700041F6583293421FD9032388F8B030DCE18D
:102280009C4A32F8130010B903464FF4036001333F
:10229000B0F5C06FDBB200F0C7801ED9B0F5006F9B
:1022A00000F0CF8034D9B0F5036F41D184F8B93054
:1022B000914B1B689B064AD494F8B81094F8B93037
:1022C000002900F0B8813268D21B012AD8D984F8DD
:1022D000B930002384F8B830AFE1B0F5047F41D0C5
:1022E0000AD8B0F5887F00F0DE80B0F5007F7BD0A3
:1022F000B0F5807FE4D186E0B0F5806F00F0148106
:10230000B0F5826F00F04781B0F5407FD8D132E060
:10231000B0F5E26F00F0D980B0F5E46F00F0DA803C
:10232000B0F5E06FCCD184F8B930744B1968D5E0C2
:1023300004D8B0F5026F00F05881C1E7B0F5046F22
:1023400000F0BB80B0F5116F00F06081B8E76C4B16
:102350001B789907B0D56B4B19884FF4F3634B4347
:1023600064215FE184F8B9302B689A07A4D5664BE5
:102370000A211B8848E184F8B9302B68DFF87081A6
:102380009B0799D598F81630002B95D05E4BDFF857
:1023900094911B8899F8002003EB830303EB8303DC
:1023A00002EB830351009BB293FBF1F398F8BA1050
:1023B00002F00F02C3F30B0342EA031301F00F0113
:1023C00041EA031107F04EFA002388F8B83098F874
:1023D000BA3099F800100133DBB2B3FBF1F201FB24
:1023E000123388F8BA3067E784F8B9302B681905DA
:1023F0007FF562AF454B9A79454B53F832100A236B
:1024000091FBF3F110E184F8B9303B4BDFF8E08049
:102410001B685A077FF550AFD8F80C1007F022FA66
:10242000002388F8B83047E784F8B9302B681B05DB
:102430007FF542AF354B9A79354B03EBC2035968B0
:10244000F2E02D4A84F8B930126891067FF534AF76
:102450002B4A127892077FF52FAF13F0010F2D4B07
:1024600010D05A68192182EAE273A3EBE27303EBFE
:102470005303B3FBF1F3002A43F0004110DA43F0B9
:1024800040410DE01B68192283EAE371A1EBE3717F
:1024900001EB5101B1FBF2F1002BB8BF41F08041DB
:1024A0004FF4006090E084F8B930134B1B685B0771
:1024B0007FF502AF184B1968B6E084F8B930174BB6
:1024C0000A21B3F9043059437EE084F8B9300B4B4C
:1024D000596803E084F8B930084B996864234B438A
:1024E0000F4A118993FBF1F16EE000BF74360020B2
:1024F0004C1100208AB70108080900203409002087
:10250000580A0020660A0020100A0020080A00204D
:10251000140A00205C0A0020000A0020F4090020B0
:10252000280900203C02002084F8B930904B42F288
:1025300011711A7842F2107312F0010F08BF194698
:10254000900748BF023153078A4B48BF04311B88AC
:10255000D80748BF0A319A0748BF143113F4106FE7
:1025600018BF2831580748BF64311A0748BFC8311F
:10257000980548BF01F5C8719A0648BF01F57A7100
:10258000D80648BF01F5FA615A0648BF01F57A61DD
:102590004FF4806018E084F8B930774B1B6813F073
:1025A000200817D0754B1A7812F0020F14BF4FF4A1
:1025B0007A71002112F0010F714A14BF4FF4FA63CF
:1025C00000230B441178194407F04CF9002384F8D8
:1025D000B83071E62B681B067FF56EAE414607F0FA
:1025E00041F9684B83F8B88066E684F8B930624BED
:1025F0001B6899067FF560AE604B1B789A077FF5E4
:102600005BAE614B64211B8859430DE084F8B930FF
:102610002B689B077FF550AE5C4B5D4A19880A23F7
:102620004B43117893FBF1F107F01CF9554B002255
:1026300083F8B82040E684F8B93094F8BB30DFF86E
:102640004481002B00F00D81D8F8BC30002B00F045
:1026500008813768D8F8C030FB1A632B40F201813B
:10266000DFF838A1412007F0E3F8BAF902004FF093
:102670000A0990FBF9F080B207F0D1F8BAF900002E
:1026800090FBF9F080B207F0CAF8BAF9040090FBA9
:10269000F9F080B207F0C3F807F092F898F8C48018
:1026A00018F0010842D0344B1A689B4612F0200FF4
:1026B00000F0AA80314BDFF8C8901B7813F0020FAE
:1026C00008D099F80030052B34BF4FF002084FF0C6
:1026D000030801E04FF00108DFF8C4A0472007F02D
:1026E000A7F8DAF8000007F089F8DAF8040007F034
:1026F00085F8284B4FF0640A1888B0FBFAF0C0B296
:1027000007F06AF8DBF8003013F0140F0BBF1E4B14
:10271000214B1888186808BF0AFB00F007F06EF814
:1027200099F8000048EA8000C0B269E0114B1B88AC
:10273000D90539D4DA060FD4980610D4590611D425
:102740001A0712D4D8072DD413F0020F14BF4FF07C
:1027500003084FF0010827E04FF00D0824E04FF088
:10276000090821E04FF004081EE04FF008081BE0C4
:10277000803A00200C09002008090020580A002097
:10278000590A00204C110020640A0020100A002081
:102790003C020020660A0020FC090020F409002009
:1027A0005C0A00204FF00208C24B93F80090C24B25
:1027B000C9F38009DB781BB149F002095FFA89F996
:1027C000532007F035F8BD4B188800EB800000EB74
:1027D0008000800080B207F022F8002007F01FF888
:1027E000B74B1888FE23584340F2FF3390FBF3F0B9
:1027F000C0B206F0F1FF002006F0EEFF49EA8800C3
:1028000006F0EAFF06F0DCFF94F8C480B8F1000F90
:102810001AD1DFF8D8924F2007F00AF8D9F8000053
:1028200006F0ECFFD9F8040006F0E8FF404606F099
:10283000E5FF012006F0D0FFA24B187800F0010060
:1028400006F0CAFF06F0BCFF94F8C4300A21013339
:10285000DBB2B3FBF1F201FB1233C4F8C07084F8B1
:10286000C43094F8C530002B00F02B83964B1B68C6
:10287000002B00F0268304F0CEF944F61F62934B40
:102880000746D3F8C830C31A934240F21A83022095
:1028900006F06AFF002800F0878048F603418C4B61
:1028A000D5F800C01A6849F6074312F0080F08BFB0
:1028B0000B46510744BF43F4005343F0080390060E
:1028C00048BF43F48043834848BF43F020031CF0D3
:1028D00002028179054616BF784810460088C3F386
:1028E000090E1FBF00EB800000EB8000800080B26B
:1028F0001CF4006F16BFDFF8F8C14FF6FF783CF804
:102900003180CAB1744A95F801A092F800C06B4AB0
:1029100011882A780CFB1A19CAEB0202642101FB08
:1029200009F10CFB02F2B1FBF2F2642AA8BF6422A7
:1029300022EAE272D2B200E06422029303930023FF
:10294000ADF81430ADF81A30ADF81C30ADF81E30CB
:10295000ADF82030ADF82230ADF824305F4BCDF823
:1029600010E08DF82620ADF81600ADF8188002AA08
:102970000DF1200E154603CD7545186059602A46A5
:1029800003F10803F6D128681860A988AA7999800C
:102990009A71534B01227C211F20DA7110F0CCF97F
:1029A00010F0B2F910F09EF9032006F0DDFE0028C9
:1029B00063D04C4BD6F800A01B78002B00F0F882B7
:1029C000494A012BB2F800E040F2F382022B55880D
:1029D00000F0F082032BB2F804C000F0ED82042B6B
:1029E000D08800F0EA82052BB2F8088000F0E78278
:1029F000062BB2F80A9000F0E482072B918914BFED
:102A0000D289002240F2FF3B2D4BADF81A201B88E3
:102A10000022C3EB032393FBFBF38DF81D302F4BF8
:102A2000ADF80CE08DF81C20CDF808A0ADF80E50E4
:102A3000ADF810C0ADF81200ADF81480ADF81690E6
:102A4000ADF8181002AA0DF1180E154603CD754504
:102A5000186059602A4603F10803F6D12868F4216A
:102A60001860AA8816209A801D4B2322DA7110F074
:102A700063F910F049F910F035F9062006F074FEFC
:102A8000002800F0EB80124B1A689A4612F0200FD3
:102A900000F0E4800B4BDFF85CB01B7813F0020F02
:102AA0002AD09BF80030052B34BF4FF002084FF0BE
:102AB000030823E0803A002020210020100A002093
:102AC000240A0020580A0020783600204C110020EB
:102AD00008090020080A00203C0200208B37002053
:102AE000833700204C1A0020081A0020700A0020AA
:102AF000140A0020590A00204FF0010804F08BF856
:102B00009E494FF47A7E0B889D4D0EFB03F2069290
:102B10004FF6FF72029000209BF800B00390ADF8D2
:102B20001C202868ADF81E20964A0DF1080E04906E
:102B30008DF8248068688DF825B08946AB46F0464C
:102B40001546914B0590B3F800C0904BADF820C0EE
:102B50001B880DF1200C03EB83035B00ADF82230E2
:102B6000734603CB6345106051609E4602F1080234
:102B7000F6D11868182110609B881E209380844B22
:102B8000D971019310F0D8F810F0BEF810F0AAF83F
:102B900004F041F8B9F800E04FF47A7C0CFB0EFE2B
:102BA000DAF800C0019B1CF0140F99461EBF794B48
:102BB0004FF00A0C1B684FF00A0A18BF0CFB03FC0D
:102BC000754B08BFF446B3F90430CDF814E093FB1D
:102BD000FAF3C646DBF80020DBF804100392ADF8E8
:102BE00022300022674BCDF818C002900491ADF856
:102BF0001C20ADF81E20ADF820200DF1200C7246EF
:102C000003CA624518605960964603F10803F6D17D
:102C100010686821186021231C2089F8073010F003
:102C20008BF810F071F810F05DF85C4B5A681B6877
:102C30000392029300230493434603CBC9F8080090
:102C40001868696031232721A8600C2089F80730B3
:102C500010F072F810F058F810F044F80A2006F05E
:102C600083FD002846D04C4DD6F80090B5F9000001
:102C700012F098FA4A4912F09DFB4A4912F0E6FA1E
:102C80008046B5F90200404212F08CFA444912F035
:102C900091FB444912F0DAFA0646B5F9040012F045
:102CA00081FA3F4912F086FB3E4912F0CFFA002329
:102CB000069307930893334B0496CDF80890CDF80C
:102CC0000C80059002AD08AE2A4603CAB2421860D5
:102CD0005960154603F10803F6D1106827211860E2
:102CE0002B4B1E221C20DA7110F026F810F00CF885
:102CF0000FF0F8FF0B2006F037FD002800F0DF8012
:102D0000294B0025D3F8008018F020090BD01E4B6A
:102D1000188811F03DFE0022244B11F0C9FF12F07B
:102D200037F9064600E02E4618F0140F0AD0194B6A
:102D3000186811F02DFE00221C4B11F0B9FF12F0A3
:102D400027F908E0B9F1000F04D00C4B188812F0F5
:102D500025FA00E00020104B0A22B3F9043093FB5F
:102D6000F2F2134B92B2B3F90630B3F57A7F21DB5E
:102D7000B3F5FA6FA8BF4FF4FA631DE0640A0020B0
:102D80005C0A00208B370020660A0020680A0020B9
:102D900083370020FC090020F4090020700A00207D
:102DA0000000204135FA8E3C0809002000005940FF
:102DB000081A00204FF47A73ADF81820A3F57A733F
:102DC000642253434FF47A7293FBF2F3ADF81A3056
:102DD000AE4B02AA90469A4603960295049005953A
:102DE00006AE154603CDB542186059602A4603F178
:102DF0000803F6D12868A64E1860142001464A231D
:102E0000F3710FF099FF0FF07FFF0FF06BFFA14BF5
:102E1000B1461D78A04B05F0040505F0FF02002D1A
:102E20000CBF4025C0251B78013BDBB2102B97BFA0
:102E30009A494FF0000B5B1893F808B0984B1B8829
:102E400099071ABF002645F01005012613F4027FEA
:102E500018BF022613F0100F18BF062613F0200F1C
:102E600018BF102632B18F4BDB78002B14BF052220
:102E7000042205E011F04EF9002814BF02220322BB
:102E800000238DF80F2003228DF80D308DF81020CF
:102E900002968DF80CB08DF80E50B8E803008AF851
:102EA0000820CAF80000CAF804100920322189F865
:102EB00007300FF041FF0FF027FF0FF013FFC4F8AA
:102EC000C87094F8CC30002B00F0DC80D4F8D0002F
:102ED000754D04F091F9002800F0D480D5F8D000A9
:102EE00004F087F995F8D43006461BB1013B85F80C
:102EF000D430EBE7032205F1D50005F1D60116F039
:102F000005FB95F8D53095F8D62083F47F4383F000
:102F1000FF039B1A85F8D8609BB2B6B2B6EB132FAD
:102F2000D4D195F8D710DBB28B42CFD14CE098F8D2
:102F300002302BB1C6F8907088F80290FFF7CFB836
:102F4000D6F89030FB1AB3F57A6FFFF4C8A80123C6
:102F5000D6F8940088F8023004F04BF98046D6F891
:102F6000940004F046F918F07F0F7FF4B8A88A287F
:102F700003D08E280ED0FFF7B2B84C4B1B689A06D0
:102F80007FF5ADA896F88D30002B7FF4A8A806F148
:102F9000610306E096F88D30002B7FF4A0A806F1BF
:102FA0003003C6F898302D2386F89C30FFF797B889
:102FB0009E4600254FF0000C00204FF000084FF017
:102FC000000900210A461DE595F8D93002F00F00EE
:102FD00013B908B185F8D90094F8D930324D984228
:102FE000FFF474AFC31AD9B202293FF66FAF02F0F3
:102FF000F002802A09D160F07F0004238DF80900D7
:103000008DF8083002A8022112E0902A13D106227E
:103010008DF80820214A60F06F0013445B7E8DF824
:1030200009008DF80A3002238DF80B3002A8042124
:1030300006F05AFB4AE7A02A7FF448AF174A134428
:103040005B7E022B19D0032B0AD0012B7FF43EAFFD
:1030500029690A23053191FBF3F101F5C8710AE0F2
:10306000134B19880A23594395F8DA301BB1114BD9
:103070001B7891FBF3F189B201E00F4BD98806F080
:103080005FFB23E700200BB0BDE8F08F8B370020FB
:1030900083370020803A0020F4080020809801083F
:1030A0000C090020202100204C11002008090020DC
:1030B000100A00203C020020C81B00202DE9F04F20
:1030C000A24CA34B227889B01E68994632B163683E
:1030D000F31A002BA2BF00232370237242F20103D4
:1030E0009C4D2A68134003B9637213072ED59A4B7F
:1030F0001B7A072B1AD8DFE803F00404070A0D1027
:10310000131607F0EBFD12E007F0C6FE0FE007F024
:1031100067FE0CE007F026FE09E007F0C5FC06E0BC
:1031200007F050FD03E007F00DFD00E00020C707A9
:103130000CD501236372894BC0F34000187006F56B
:10314000C33380F00100A033207063602B68580403
:103150000ED507F061FFC1070AD5012363727F4ACC
:10316000237006F54333002103F5A07311706360EB
:103170002968CA070ED5A07AE27A744B824209D038
:1031800001221A72754A0027577006F5C332A03221
:103190005A60D8728B0409D50023714A32F8132083
:1031A000002A41F0D18001330C2BF6D1627AD9F894
:1031B00000302AB9654AD2689A1A002AC1F23081D1
:1031C00003F59C422032E260664A1778AFB1664947
:1031D00009688B4240F21581013F177011E1072EFB
:1031E00096BF5D4A3146B15C5B6860489847032EE4
:1031F0000AD904EB4606308201375C4BFEB21A78DE
:103200001946B242EBD81EE00028F2D0584A4FF4DB
:103210007A7332F8261002EB8602401A584353881C
:103220005B1A90FBF3F040F6C90300F57A70984200
:1032300005DC40F2EE239842B8BF184601E040F6A4
:10324000CA0080B2D5E742F201062B681E40B6FAEA
:1032500086F6484B76091A6826B9237A23703F4BC5
:103260005878187027781FB13C4B1F7887F00107FA
:103270000F2384F83430384B91F800A0B3F816B01F
:103280001B8B0321019394F83530DFF8F080B3FBFA
:10329000F1F101EB4101591AC9B2029100255545DE
:1032A00070DADFF8DCE03FB3AEF1700131F8150001
:1032B000584502D30199884222D95EF82500234956
:1032C000824203D22C4931F815001DE0E8B2049384
:1032D0000392059108F0CAFA032D039A049B13DCAC
:1032E00005994FF0010C91F834E00CFA05FC2EEA38
:1032F0000C0E81F834E007E0BBF1000FDDD1584639
:1033000002F596714EF82510CEB9029928F81100F1
:103310000E4991F8C8E0BEF1000F04D1022B0ED97E
:10332000012081F8C800B8F80010B8F8020008447D
:10333000B8F80410084480B20321B0FBF1F00E4944
:1033400008F1060821F815000135A8E72812002029
:1033500004330020041A00202C1A0020130000203F
:10336000C22000201C210020182100204C1A00201F
:103370004421002074360020081A00205E1200202C
:10338000A812002094F834209E49A2F10F0EDEF11D
:10339000000242EB0E0284F8C9209B4B92B19B4A7B
:1033A0001268570103D59A4A1268D6050AD40A68EA
:1033B0009A60DB68D21AC82A1ED9934B012283F87F
:1033C000212019E0934A0120507010700A68996812
:1033D000DA605B68521A9A4282BF8B4B002283F8F4
:1033E00021200025554507DAE8B208F03FFA8A4B5C
:1033F00023F815000135F5E794F83530013384F8EA
:103400003530834E3368DD0405D5804B1B68D80703
:1034100001D410F071FE814BD9F80070D87A9B4628
:10342000B8B17D4A5B7B013832F810001BB1C0F5A2
:103430003B60083080B200B2A0F57A70B0F57A7FB8
:10344000A8BF4FF47A7020EAE07011F0ABFE744927
:1034500035E0336819043BD5D4F8CC30714DFB1AF4
:10346000002B35DB07F59C432033C5F8CC306E4B81
:1034700095F8D0105A7A6D4B013133F812309BF821
:103480000C209BB293FBF2F301F00F0285F8D020E1
:103490002A4482F8D1300346654A825C01301344E5
:1034A00010289BB2F8D11BB293FBF0F000B2642855
:1034B000A8BF642020EAE07011F074FE5D4911F0AD
:1034C00079FF5D4911F0C2FE12F0ACF85B4B188039
:1034D00033685B4D13F4807F00F02581594BDFF892
:1034E00028A19F4205D99AF8022012B901228AF830
:1034F00002209AF80220002A00F01581424A95F82D
:10350000008092F82170C8F380087A1E5742574114
:103510003E4A002F11680292C1F38063019314BFE9
:103520004FF000094FF003099AF82020052A00F215
:10353000F480DFE812F006004D006100AF00BE002D
:10354000DB00B8F1000F36D03F4A1268D08805F092
:10355000CFF8012809D12B4A3C491268B1F805106F
:10356000642000FB0122CAF81020019B53B1374AA6
:1035700012793AB102F04EFA03228AF820204FF471
:103580007A7236E0002F40F0C8801E4ADAF8101038
:1035900010681D4A88420AD9039202F03BFA039A46
:1035A000032182F8201040F6B831D161BCE7012137
:1035B00082F82010B8E7019B4FF4806013B102F04D
:1035C00019FA01E002F006FA0022CAF81020A4E07D
:1035D000002F40F080801D4AD279012A02D002F0EB
:1035E00019FAA1E702F016FA03228AF8202040F621
:1035F000B832CAF81C2097E757B305228AF8202072
:10360000012026E07436002020210020100900202F
:10361000041A002013000020081A00202C1A002091
:1036200000007A4428120020DC180020EC1800204A
:10363000F91200200000C84200C07F44240A002084
:10364000803A0020404B4C00000C0020480A00202B
:103650003846B8F1000F0ED0BBF81020A249A34B9A
:103660000A804A808A809A7893F803E04FF0020932
:1036700042EA0E22CA809E4A1168DAF8142091426A
:1036800002D8B8F1000F45D147F23052CAF81C20D9
:10369000032221E02A7842F002022A7010F02CFD69
:1036A000934ADAF81C1012680A44CAF81820042257
:1036B00012E08F4A9FB11168DAF8182091422CD994
:1036C0008C4A12781AB9029B1A68D30725D42A7833
:1036D00022F002022A7005228AF8202024E71268CC
:1036E000DAF81C100A44CAF8182016E0804A7F490C
:1036F0001268B1F80510642000FB01224FF48060CD
:10370000CAF8102000228AF820208AF8032002F04C
:1037100061F909E700287FF407AFB9F1000F02D083
:1037200048460CF089FD744B1B68D88804F0E0FF14
:1037300081466D48BBF81030B0F9022003F10B014F
:10374000914201900BDB0B3B934208DCB0F9002067
:10375000914204DB9342CCBF0023012300E000230D
:10376000B9F1000F0FD1654A1268100111D5644AF2
:10377000D27872B92A7851070BD523B1614A1378F0
:1037800043F0200303E05F4A137823F02003137013
:103790000CE05D4A00235D48136053605C4A0021E1
:1037A0000360116043605160836091602B785A0719
:1037B00035D53368DB0632D5524B1B78DF062ED465
:1037C0004C4B1B7893B1534B9B78B9F1000F15D13B
:1037D0007BB1474B1A68D4F8E4309B1A002B08DA07
:1037E00010F08AFC4C4B83F8E89018E0B9F1000F18
:1037F0000DD110200CF020FD01230EE03BB13C4A1E
:103800004FF47A71126801FB0323C4F8E43094F892
:10381000E83023B10CF0F6F9002384F8E8303D4B92
:10382000002293F8008059781346BBF81270BBF859
:1038300014E001989B0830F912000132B842C4BF6D
:1038400063F07F03DBB27045B8BF43F04003042A46
:10385000EFD194F8E92030489A4205D190F8EA2057
:10386000F92A04D8013200E0002280F8EA20214F32
:1038700084F8E9303B78E3B9204B1B68D80708D5BA
:10388000B9F1000F15D12B78D90712D510F0E6FB4E
:103890000FE02B785A070CD51F4B1B784BB1184BF8
:1038A000DB7833B911B110F027FC02E0B9F1000F59
:1038B000F9D094F8EA30142B40F0A5803B7818F149
:1038C000000818BF4FF00108002B43D0124B93F8AB
:1038D000E9305F2B28D12B7803F0040303F0FF09B4
:1038E000E3B110F009FC1FE0081A0020480A00208C
:1038F000743600208D010020000C002010090020EB
:1039000020210020580A0020EC1B0020D01B0020A2
:10391000641C0020270A0020281200200B200CF035
:103920008BFCB14B83F8EA90B8F1000F12D094F8F9
:10393000E9307D2B0ED12B7803F0040303F0FF094F
:1039400013B110F0D9FB05E00B200CF075FCA64B71
:1039500083F8EA902B7803F0040303F0FF01002BB7
:1039600051D194F8E930A04A572B0FD14FF47A7314
:10397000A2F8EC3033681B0601D508F0EBFB9B4B3B
:103980001B685F073FD50A22994B33E03068400738
:1039900017D55A2B15D192F8EE302BB1012382F8AE
:1039A000EE1082F8EF302EE092F8F03083F0010351
:1039B00082F8F0300BB10C2000E00D200CF03CFC44
:1039C00021E05D2B00F0CB845B2B00F0CA845E2BE2
:1039D00002D1032000F0C6BC562B01D102F034FC0A
:1039E0003B784BB994F8E930972B40F0CE84814B6B
:1039F0004FF4C8721A8006E094F8E9306F2B40F05B
:103A0000BB8410F02BFB33685F0737D594F8F03098
:103A10007549794A93B12B7858070FD5019BB3F9B3
:103A20000600BBF81230984208DD136813F001035A
:103A300002BF3220A1F8F20081F8F0301368D903F8
:103A40000DD594F8F420684B2AB993F8EE2012B9FA
:103A50003222A3F8F220012384F8F4300EE094F827
:103A6000EE30614A53B12B7803F0040303F0FF01F9
:103A700023B9012382F8EE1082F8EF305F4B4FF04C
:103A800000091B689F1C03F152083A787B7817F8ED
:103A9000010C9A4209D2394610F0D6FC28B117F829
:103AA000022C0123934049EA030904374745ECD12E
:103AB000514BC3F80090524B1B784BB14E4CDFF882
:103AC0002C9123684F4F13F0020F40F0D481CCE1CA
:103AD0004D4B1F6807F148087A78BB7838789A42CE
:103AE00029D2791C10F0B0FC28B378790C2141431D
:103AF000DFF820E10EEB01039A68BA421BD09F6009
:103B00003A790EF8012000215960FA785A70FA7853
:103B10000C2A4FF0010204BF9A700322DA70324A75
:103B200018BF997092F8F5200123834022EA03031D
:103B30002D4A82F8F53006374745CDD1334BDFF8B3
:103B4000D880D3F800A0324B4FF000091B680293D5
:103B50002378039398F80070002F00F07D81D8F847
:103B60000330029AD31A002B0DDB1F4902F5FA73BA
:103B7000C8F8033091F8F520012303FA09F322EA8B
:103B8000030381F8F530039B002B00F0658118F8E2
:103B9000013C98F801200433DBB2002A40F01E817A
:103BA000019A32F91310BBF8103003F1C8029142A8
:103BB0000D4A02DD98F8024030E0C83B994203DA32
:103BC00098F80240644229E092F8F510012303FAC4
:103BD00009F321EA030382F8F530029B03F5FA7337
:103BE000C8F8033038E100BF28120020080900207F
:103BF0000C330020820D002010090020340A002020
:103C00007E3A00200C090020380A00202C0A0020EF
:103C1000743600204C1600204D16002092F8F53026
:103C200043FA09F3DA0700F11781002CCCBF022018
:103C300001200CF027FB7B1E132B60D8DFE803F07C
:103C40000A0E17202E33404E5F5F5F5F20293340FE
:103C50004E3D4A5850462146FA2203E021460AF1D9
:103C60000100642204F0EAFD02F0DEF8EBE00AF164
:103C700003002146642204F0E1FD02F071F8E2E065
:103C80000AF105002146642204F0D8FD0D2F00F052
:103C9000DA800AF10400214664222EE00AF10600CF
:103CA0002146FF2297E09C4B21461868C82201302C
:103CB00004F0C4FD0F2F00F0C680974B18681AE07F
:103CC000954B21461868C8220B3004F0B7FD102F21
:103CD00000F0B980904B18680A300CE08E4B2146FA
:103CE0001868C822153004F0A9FD112F00F0AB8030
:103CF000894B186814302146C82204F09FFD093F03
:103D00001D2F00F2A080DFE807F00F13179E9E9E84
:103D10009E9E9E9E9E9E272B2F575B5F5333373B65
:103D20003F43474B4F1B1F237B4B186802304EE02D
:103D3000794B18680C304AE0774B1868163046E02B
:103D4000754B1868073042E0734B186811303EE03D
:103D5000714B18681B303AE06F4B1868033036E03F
:103D60006D4B18680D3032E06B4B186817302EE041
:103D7000694B186804302AE0674B18680E3026E05B
:103D8000654B1868053022E0634B18680F301EE061
:103D9000614B186819301AE05F4B1868063016E05E
:103DA0005D4B1868103012E05B4B18681A300EE05B
:103DB000594B186808300AE0574B1868093006E07C
:103DC000554B1868133002E0534B18681D3000281B
:103DD00039D02146C82204F031FD34E0012A32D125
:103DE000019A98F8020032F91340B4F5617F05DBBF
:103DF00040F633039C42A8BF1C4601E04FF46174B7
:103E00000C2F20D14FF4966393FBF0F0A4F561746E
:103E100094FBF0F4414AE4B21378A34213D0032C8C
:103E200034BF2346002313703D4A07FB03273D4B55
:103E30001F6001F0F9FF01F0DDFF01F091FF601C50
:103E4000C0B20CF01FFA3849012391F8F52003FAAB
:103E500009F3134381F8F53009F10109B9F1040FB1
:103E600008F10C087FF476AE28E63368DB0514D53C
:103E70002E4BDB788BB1D9F8003098070DD5B7F809
:103E8000008018F001080DD1294B0120C3F80080F3
:103E9000C3F8048001F0AEFD04E0012001F09AFDBA
:103EA000012300E00023226851070FD573B10120E0
:103EB00001F090FD3B8803F002039BB24BB91C4A12
:103EC00002201360536001F095FD02E0022001F032
:103ED00081FDDFF868803B88D8F80820B8F80C101E
:103EE00013F0030F14BF51611161D9F8002012F0D3
:103EF0000A0F42D02268D20622D55B0723D40420C1
:103F000001F078FD0B4B0A22B3F9043093FBF2F376
:103F1000094A138017E000BF300A0020C83800208B
:103F2000CA3800202C0A002028120020202100205E
:103F3000EC1B0020F4090020420D00205C3600201C
:103F4000042001F047FD2368980606D53B885906F2
:103F500006D4402001F04EFD02E0402001F03AFD81
:103F600023685A0641BFA74B0A22B3F9043093FBDA
:103F7000F2F344BFA44AA2F8F630D9F800309B0609
:103F800008D42368180540F1A1804FF4807001F037
:103F900031FD9FE09D4B1B78990759D59C4B1B78B1
:103FA000042B55D92368DFF860A213F400720ED0F9
:103FB0003B88DA063FD4102001F01CFD202001F0E0
:103FC00009FD9448011D08F02FF802222EE0B7F8F1
:103FD00000B00BF0100B1FFA8BF34BB110200292C4
:103FE00001F0F8FC8C4B029A4FF0010B1A7000E0C4
:103FF0009B4623685B0512D5DAF8F83087495A8961
:10400000B1F90030002BB8BF5B42934207DAB1F937
:104010000230002BB8BF5B429342C0F2EB813B8879
:1040200098060AD5202001F0D5FC00227A4B4FF0EB
:10403000010B1A7001E04FF0000B9AF8FC30B3B995
:104040000E200CF0F9F8704B012283F8FC200EE0F2
:104050003B8803F03003002B93D0102001F0BAFC12
:10406000202001F0B7FC6C4B00221A7002E0BBF17B
:10407000000F86D000229646694B002023F81E00D0
:10408000684B191D03F10A0C21F81E00002142F8AB
:104090000C109444CCF80400CCF8081023F81E004F
:1040A00003F1320C5A3342F80C10D15094441344AB
:1040B000CCF80400CCF80810586099601432BEF1B6
:1040C000000F7FF45EAF4FF0010ED5E74FF4807024
:1040D00001F080FC544B1B78082B01D00E2B02D131
:1040E000402001F077FC3368590530D54F4B1B78E1
:1040F0001BB92B7813F0040F02E0236813F4002F90
:1041000020D04B4B00221A7004F076FB0646F0B12B
:10411000DFF844A1DAF80030834206D102F0BAFD9C
:1041200050460021502215F00CFADAF85030B34214
:10413000EAD1304602F0AEFD002150223D4815F094
:1041400000FAE1E705F046FC08B102F0E5FF2E4A6F
:10415000012382F880312B785A0705D5D8F8003032
:10416000B8F804205A61A1E0D4F800B01BF0010FA8
:1041700002BF314A43F001031370304BD87811F07D
:1041800011F82F4911F062F80EF0D0F806462D4BC9
:104190003146D3F820A0504611F014FA18B92B7804
:1041A00023F001032B700FF0B5FF18B9264B1B79D4
:1041B000642B03D92B7823F001032B700FF0AAFF97
:1041C000B8B91BF0806F17D1204B93F82030032B28
:1041D00012D05046314611F0F5F980B11C4B1B78D6
:1041E000002B3BD1184B1B4D1B79642B98BF00252E
:1041F00036E048F2551533E040F6150530E042F25E
:1042000055052DE0F409002028120020580A00204E
:10421000590A0020700A0020840D0020C81B0020CD
:104220007A3A002026130020F408002060110020B4
:104230005B1A002014080020803A0020270A002082
:1042400035FA8E3CC81E00201C09002020210020C9
:104250007E3A002055050200C407002040F20525E3
:10426000714EC6F8845102F0D6FCD6F88831C31AD4
:10427000002B1BDD6D4B1A68012A9EBF00221D60BA
:10428000C6F884211A685AB1D8F80010B8F804505A
:1042900012F0010F4FEA520214BF4D610D611A6016
:1042A00000F5433000F5A070C6F88801D9F8003059
:1042B0005D071FD52368180703D4082001F08AFB87
:1042C00018E03D8805F00805ADB29DB9082001F061
:1042D00091FB574B1A68574B1A60019B524ADB8877
:1042E000A2F88C31544BDB88A2F88E31534B1D6001
:1042F000534B1D60D9F80030D90640F191802368F6
:104300009A0204D44FF4007001F064FB88E03C880A
:1043100004F40074A4B2002C40F082804FF40070CA
:1043200001F068FB424B1A68424B1A60019B3E4AFF
:10433000DB88A2F88C31404BDB88A2F88E313F4BF2
:104340001C603F4B1C606BE0012323723D4B00223D
:104350005A7006F5C333A0336360FEF727BF012010
:1043600000E00220C7B2781EC0B201F05FFF3846FD
:104370000BF088FFFFF747BBB8F1000F3FF432ABFB
:104380007E2B7FF42FABFFF73CBBA72B06D12E4A29
:10439000137843F004031370FFF735BB0022BB2BE7
:1043A000079201D1022303E0B72B04D14FF6FE732D
:1043B000ADF81E300AE0BE2B01D1022304E0BD2B74
:1043C0007FF421AB4FF6FE73ADF81C301F4BBDF8E8
:1043D0001C101B681A880A441A80BDF81E105A88DF
:1043E0000A445A8001F030FF0F4A002382F8EA3075
:1043F000FFF709BB3B889B063FF51FAE202001F06D
:10440000F9FA134B13481A685B68011D4360026098
:1044100007F00AFE104B4FF0010B83F800B00CE6DA
:10442000002009B0BDE8F08F28120020BC31002028
:10443000FC090020800A0020C81B002070330020E7
:104440007433002013000020580A0020D00A0020F6
:104450005C0A0020780A0020840D00202DE9F04F2E
:10446000964F00237978964A3B70838904291380FC
:10447000164608BF934A97B008BF138002F0CBFBE3
:10448000914B924D1A88924B0095D3F800C0914BF6
:1044900004461868904BA8461968904B1B68E04783
:1044A0007B78042B04D102F0B6FB864B001B98806E
:1044B0008B4B1B6898477B780490012B06D1894968
:1044C0003388804A096893805B1AD380864B87497A
:1044D000DB78874A0393874B1C78032C14D98E888A
:1044E000B6F5FA7F10D2844BB2F904E0B3F9045068
:1044F0007042002DB8BF6D42431B9E4503DB73190C
:104500007345A8BF734693807C4B1D6815F000650A
:104510000DD191F90270784B7942B2F90470DB88C1
:10452000B2F80290B2F800A04F43754E71E1002638
:104530003546B34691F902905388C9F10001B2F9AA
:104540000490B2F800A009FB01F9DFF8D081A3457F
:1045500039D218B2069310F025FED8F8081010F0E2
:1045600075FE05900FFA8AF010F01CFED8F80410C2
:1045700010F06CFE059A0146104610F05FFD0590A4
:10458000484610F00FFED8F80C1010F05FFE059AA8
:104590000146104610F052FD11F01EF80FAA80B22D
:1045A00022F81B0029B202B28A42069B03DC31B218
:1045B0008A4202DB2846054630460BF1010B08F122
:1045C00010080646C3E74F4BC6EB050A1A681FFAE8
:1045D0008AFA12F4805F9946DFF844812FD04A4B63
:1045E0001B7813F0040F394B08BF1A8A188A474BFF
:1045F00008BFA7F8C4201B68454AD688DA8834B2B9
:10460000811A8C42434B03DC1D88B8F8004005E05A
:104610000244944205DBB8F802505C88A7F8C460F5
:1046200013E0B7F9C4208A42D7BF1D885C88B8F868
:1046300000402E46C4BFB8F80250264605E02E4B77
:10464000B8F80040DE88B8F80250ADB21FFA84FB1B
:10465000CBEB05040FFA8AFA24B2A2452E4B61DD9A
:1046600001221A70204610F09DFD0546504610F0BC
:1046700099FD0146284610F09DFE05464FF0000AC0
:104680001C4B1B789A4510D20FAB33F91A000593D7
:1046900010F088FD294610F0D9FD13F067FE059B48
:1046A00023F81A000AF1010AEAE7022094FBF0F06D
:1046B0000BEB0004A4B225463FE000BFDC13002052
:1046C000783A0020C60A0020F81600202C1A002094
:1046D00018000020300A00202C0A0020D00A0020F8
:1046E000801900205C3A002020210020F4080020DE
:1046F000341C00203A1C0020C81B00201009002098
:10470000EC130020041A0020803A0020000C002046
:10471000081A0020F80B0020DC1B0020E01300200A
:104720003C0A002000221A7002239AFBF3FA0BEBDA
:104730000A04CAEB0505A4B2ADB2D9F80030B8F846
:10474000042003F480530993B7F9C430A74F0593AD
:10475000A74BB8F802B01B8AB8F800900693A54B97
:104760004FF000081B680793A34B19885B880891DA
:10477000A24991F800A04FEA4A0AD04500F01B81F7
:104780000FA938F801C030B20C920B93CDF828C0B5
:1047900010F008FD9A4951F8381010F057FD10F04C
:1047A0001BFF21B28842DDF828C00B9B0C9A03DB6B
:1047B00029B28142A8BF01468C4403991FFA8CFCA0
:1047C00027F802CF0FFA8CFC19B1944517DA9446FA
:1047D0001AE0099989B107990698C988411A05987C
:1047E000884206DCCC450EDB08998C45A8BF8C4678
:1047F0000AE09C4503DA9C4606E0CC4503DBDC4539
:10480000A8BFDC4600E0CC46A7F800C008F10208CB
:10481000B3E7A542DFF8FCB137D218B2069310F027
:10482000C1FC56F80C1C10F011FD05900FFA89F030
:1048300010F0B8FC56F8041C10F008FD059A01466B
:10484000104610F0FBFB05900FFA8AF010F0AAFC5E
:1048500056F8081C10F0FAFC059A0146104610F0B4
:10486000EDFB0590384610F09DFC56F8101B10F03B
:10487000EDFC059A0146104610F0E0FB10F0ACFE8E
:10488000069B2BF815000135C3E7BBF80010012289
:10489000A2420BB207D23BF9121001328B42B8BFD1
:1048A0000B4699B2F4E7574AB8F810705088834223
:1048B000554BC8BF091A1B68C8BF89B203F48052A0
:1048C0000B92524A03F0100392F80190504A0C9355
:1048D000B2F90650474AD8BF002112680592464AED
:1048E000B2F800A0B2F802E01FFA8AF20792454A35
:1048F0001FFA8EF6B2F800C006969688B8F8122015
:104900001FFA8CF30892434A0A93B3B2099302EB5D
:1049100044030D930D9B9A424DD013880B9C5B1A58
:104920009BB222F8023B04B3B9F1000F09D1059CF8
:10493000B4F80680C8EB070B5D4502DDB844454579
:104940000CDBBD421BB203DD734514DA73462FE066
:10495000B34214DB5345A8BF534629E0BD42CCBF48
:10496000BDF81830BDF81C3022E0039C4CB132F980
:10497000023CB34203DB8342A8BF034618E0334640
:1049800016E01BB2634503DB8342A8BF034600E089
:10499000634622F8023C089B9D42BBDA0C9B13B194
:1049A000BDF8243004E0B9F1000FB3D1BDF82830D0
:1049B00022F8023CAEE7184B1A7802F0040202F02B
:1049C000FF033AB1114B1B78013BDBB2182B00F20D
:1049D000388125E0094A12789342F3D20F4931F821
:1049E00013000C4921F813000133F5E7DA09002020
:1049F0002C1A0020000C0020F80B00203A1C00208C
:104A0000E01300203C0A0020041A0020F4080020D3
:104A1000081A0020DC090020803A00206A0D0020DE
:104A200001229A40BC4B1340002B00F00A81BB4B83
:104A3000BB481B88BB4913F4807F08D0BA4B1A8847
:104A4000ADF83C205A889B88ADF83E2013E0B74B68
:104A50001A88ADF83C205A889B88ADF83E20B44AAD
:104A6000ADF840301268D20407D5B1F90640028A89
:104A7000944202DA5B42ADF84030AE4D4FF47A72A8
:104A8000B5F902304FF4616403F5E163534393FBDE
:104A9000F4F3A3F5FA73ADF85430B5F9003003F52B
:104AA000E1635A4392FBF4F2A34BA2F5FA721B881E
:104AB000ADF85620A3F2DC53ADF842300A88038AE1
:104AC000D21AADF844204A88D21AADF846208A8816
:104AD000D21AADF84820CA88D21AADF84A200A89FD
:104AE000D21AADF84C204A89D21AADF84E208A89E4
:104AF000D21AADF85020CA89D31AADF8523000232B
:104B00008E4A002122F813100133082BF8D18C4B68
:104B10008C491B688C4D03938C4BD3F800B08C4BA5
:104B20001B78C3EBC30301EB0308414571D00B783D
:104B300033B11533DAB201239340039A134064D0A2
:104B400011F806EC0C2707FB0EB7B7F90020B7F9F0
:104B5000023064209B1A11F9022C9BB25A4392FB3B
:104B6000F0F211F805AC4FEA530911F8034CC9EB08
:104B700002024FEA4A0616A892B211F801CC064486
:104B800014B936F81C0C0CE0B5F9000036F91C6CB1
:104B9000B04208DA0444844203DBA6423046A8BF90
:104BA0002046288008E007DD041BB44203DB844272
:104BB000A8BF044626462E80BC68012000FA0AF0F1
:104BC0002042B5F9006011F9040C12B200FB06F0A6
:104BD0004FF0640690FBF6F014BF4FF0FF34012451
:104BE00090420ADB4FFA8CF25A4392FBF6F2C9EB81
:104BF000020212B28242A8BF0246504B33F81E9006
:104C000002FB049423F81E4000E02B80023507319C
:104C10008BE74E4B4F4E1F6800250C2303FB05739B
:104C200093F9064036F9023FE8B26343642493FBEC
:104C3000F4F4348005F0F2FD01352044082D308075
:104C4000EBD13B4E3D4C3368404D13F0200F33D039
:104C5000002005F0E3FD20800746012005F0DEFD81
:104C6000374B60801B681B0626D53B4B314AD3F877
:104C7000E8301B78012B23D12968B2F9003091F973
:104C800012E04FF0320C03FB0EF393FBFCF31FFA20
:104C900083FE91F90630B2F902205B4253436FF074
:104CA000310193FBF1F193FBFCF30EEB0102B91818
:104CB0007344218018446080D5F800E0002319E097
:104CC000D5F800E0B2F902309EF9061059433223BC
:104CD00091FBF3F1394421809EF91270B2F9001072
:104CE00001FB07F292FBF3F21044E4E70133082BD7
:104CF000E25333D00C2101FB03E134F91300B1F985
:104D000000205F009042B1F90210EFDB0AB282424C
:104D1000A8BF0246EAE700BF992098010C090020CD
:104D20002C1A0020081A0020C81B0020341C002068
:104D3000041A0020F4090020DC0900205809002092
:104D4000100900207E1D0020A21400203424002021
:104D5000771D002056090020DC130020A64F97F98C
:104D60000C3093B93B78013B182B75D8DFE803F082
:104D7000397474527474744B74747474745C747491
:104D8000747474526874745C3900DFF8A8924FF040
:104D900000089A4A1C2339F9020F03FB082A10F075
:104DA00001FA014650460DF010F813F0DFFA2B68B7
:104DB0000C2202FB083280B2A9F80000B2F90030E0
:104DC00000B29842B2F9022003DB13B28342A8BFBB
:104DD000034608F10108B8F1080FA9F80030D8D14E
:104DE000C0E7BB7913B10020618908E0844B1B78D0
:104DF00003F0040303F0FF00002BF4D1014609F097
:104E00001DFE012529E00020E18809F017FE0120A0
:104E1000218905E00020218909F010FE6189012027
:104E200009F00CFE022518E00225A81E34F8151022
:104E3000C0B2013509F002FE082DF6D106250CE0BE
:104E40000325E81E34F81510C0B2013509F0F6FD4F
:104E5000072DF6D1042500E000253368990602D419
:104E60003B78052B0AD12846218809F0E7FD681C0C
:104E7000C0B2618809F0E2FD0235EDB23368DA02B2
:104E800006D4604D95F8CC3173B105F0E1FC0BE030
:104E90005D4E00242819C0B236F8021F09F0CEFD7D
:104EA0000D2CEED00134F5E76B78042B05D101F021
:104EB000B2FE049BC01A554BD88001F0ACFE544B97
:104EC00004909B680BB153489847534B534C1B6855
:104ED000534E13F4801F6DD0378807F40067BFB2BC
:104EE000002F54D1464B1B785B0750D54FF4006020
:104EF00000F080FD2068D5F8D421837F1189022B32
:104F000004BF012385F8D0314FF47A7303FB01F31A
:104F1000444918BF85F8D071098893FBF1F34249E1
:104F20005B429BB291F800C0A5F8D831002192F8FD
:104F300003E01778BEF1000F01D0774504D8BCF12B
:104F4000030F05D8022903D14FF0000E82F803E0C9
:104F500090F800E00132BE4538BF077010F801EB51
:104F6000284F4FEA8E1E07F5ED7828F811E007F577
:104F7000F07E4FF000082EF8118007F5F37E2EF832
:104F8000113001310329D2D1012387F8EC31338864
:104F900018051AD41A4B1B7803F0040303F0FF061C
:104FA0009BB995F8EC3183B101F04EF9154B83F8BC
:104FB000EC610AE03388190507D5114B1B785A07B5
:104FC00003D54FF4006000F005FD184A184B176830
:104FD000B3F906307A8993422EDBB3F5FA6FF8798C
:104FE000BFBF9B1A4343A2F5FA6093FBF0F0ACBF3E
:104FF000C0F16400643020E0F4080020C8140020F0
:10500000803A0020DC1300200E1A0020C60A00207F
:1050100044170020AA15002010090020300A0020A3
:105020000C090020783A00203A1C00202C0A0020AD
:10503000081A0020560900206420BA4B0022B3F859
:1050400010E0B94BD3F800C023681D460393B74B5B
:105050004FEA420833F91290CEEB0903002B05DD2D
:10506000B3F5FA7FA8BF4FF4FA7306E0C9EB0E035D
:10507000B3F5FA7FA8BF4FF4FA73022A4FF0640425
:105080002BD09CF8001019B18B42CCBF5B1A0023C7
:1050900093FBF4F6A6496FF0630B31F816A00BFBF7
:1050A000063B013631F916100FFA8AF6891B01FB0F
:1050B0000BF191FBF4F19F4E514426F80810B918FA
:1050C00009794B439C4993FBF1F364339BB243430F
:1050D0009A4993FBF4F388542EE09CF8011019B11F
:1050E0008B42CCBF5B1A002393FBF4F694496FF01C
:1050F000630A31F816B00AFB063A013631F9161088
:105100000FFA8BF6891B01FB0AF191FBF4F18B443A
:105110009CF90410002BC1F100010BFB01FB854938
:10512000B8BF5B42A1F804B0B9794B43824993FB05
:10513000F1F3824964338C7029786424594391FBDC
:10514000F4F1804EF145B154A97A7F4E03FB01F191
:1051500091FBF4F1B154297D05F1010503FB01F345
:1051600093FBF4F379498B54724B02F10102BEBFF9
:1051700033F80810494223F80810032A7FF467AF78
:105180006A4AB2F90650674A568AB54206DBB5F557
:10519000FA6F2946A8BF4FF4FA6100E031464FF498
:1051A0007A72891B5143C6F5FA62B1FBF2F16424AD
:1051B00091FBF4F0664A6FF0630E32F810700EFB4C
:1051C000001E013032F9100039B2411A01FB0EF114
:1051D00091FBF4F2D419A4B2DC805E4B554FB3F8C6
:1051E00000B01BF0400F41D05B4B0A20B3F90430F4
:1051F00093FBF0F0594B1B88C01A00B20FF0D2FF9E
:10520000574910F023F880460DF090F8814640464B
:105210000DF018F88046B7F902000FF0C3FF824680
:10522000B7F900000FF0BEFF4946069010F00EF8E7
:1052300041460590504610F009F8059A014610467F
:105240000FF0FAFE10F0C8F94946388050460FF0CA
:10525000FDFF069B8146414618460FF0F7FF0146C9
:1052600048460FF0EBFE10F0B7F978803D4B3E4F0B
:105270001968984611F0140F00F0A4801BF4027F07
:1052800000F0A080394B2B481B7803F0100303F08B
:10529000FF0C43B1364B97F9F0211C68438804FB9F
:1052A000023343808EE0204B1A68324B92F803E0C1
:1052B0009278BEF1000F21D0B3F900E0CEEB0503E8
:1052C000002BB8BF5B4293420DDD2B4B7545C3F8F5
:1052D00000C04FF0010387F8F131C8BF5242154BAF
:1052E0001444DC806EE097F8F131002B5AD0234B48
:1052F00087F8F1C11A68224B1A6053E0B3F9003005
:10530000EB1A83EAE374A4EBE37494423EDD0222D9
:1053100093FBF2F31B4A13601B4A0123137087F8B7
:10532000F1313FE02C1A0020000C0020081A002068
:105330003A160020C81B00200CFEFFFF3B1C00207B
:105340002C160020F41B0020C9150020301C002062
:10535000141600200C090020F40900201E13002060
:1053600035FA8E3C08090020DC130020580A002082
:1053700074330020B413002070330020FC09002097
:10538000800A0020683A00207833002097F8F13135
:1053900043B1A14B87F8F1E11A68A04B1A60A04B0A
:1053A00083F800E09F4BA04CB3F900209F4B1B6893
:1053B000134422886488934203DBA342A8BF234698
:1053C0001A46C2800B0738D599499A4C88880A2218
:1053D00000F10E039BB21C2B974BB3F9043029D874
:1053E0001BF0040F26D093FBF2F22388D21A92B25C
:1053F00093B21CB2B334BCBF02F5B4739BB21AB201
:105400008E4CB32A8E4A2478C8BFA3F5B4731268B1
:10541000C8BF9BB2240712790FD552B252425343F0
:10542000039A1BB2127A53431E2293FBF2F3C31A60
:105430008B8002E093FBF2F32380824B1B7883B1D5
:10544000B5420EDC804A1378012B01D0192B01D113
:10545000927932B90E2B04D0082B1EBF744B002258
:105460009A807A4B1B689D7875B31BF0030F2BD085
:10547000774B78491C6A204610F090F8F8B920461E
:105480000CF021FE744B19680FF0E0FE12F06EFF75
:10549000B0F5617FA8BF4FF461700FF083FE6F49D4
:1054A0000FF088FF0CF0CEFE044628460FF07AFE7F
:1054B00021460FF0CBFE12F059FF80B200E0002031
:1054C0005B4AD3881844D080654B9B7B002B61D00E
:1054D000644B1B78002B3BD0634B1B6E9A89B2F553
:1054E0007A7F05DB44F620639342A8BF134601E0B0
:1054F0004FF47A735D4A03F57A7312689BB2B3FB7B
:10550000F2F3581C80B2B7F9F4C1A7F8F2010022F7
:10551000574C474904F5FF7531F8126035F8121001
:1055200004F5FB7EC1EB06093EF9121025F8126066
:105530000CFB01F191FBF0F149442EF812100132FD
:10554000042AE5D1474A00211170A4F8F43104E09F
:10555000B7F8F431013BA7F8F431B7F9F401444A44
:1055600000284FF0000313DDB2F9F2414149A1F1E7
:10557000080232F9132031F81310424392FBF4F27F
:105580008A1A2B4921F813200133042BEED101E0B4
:10559000A2F8F431D8F800309A0640F1CC80364BAE
:1055A0001B8803F03003002B00F0C580234B1B78D1
:1055B000DB0740F1C080204B304DB3F904000A23D3
:1055C00090FBF3F00FF0EEFD2D490FF03FFE044687
:1055D0000CF038FE804620460CF0A8FE294B06460B
:1055E0001B68DA78284B002A73D0284CB3F90200E4
:1055F000B4F8029005920FFA89F1401A039306F06D
:1056000001FD059AA246C2F1000B5845039B3FDB02
:105610009042A8BF10463CE0FC090020800A002010
:1056200078330020B61300203C0A00207433002099
:10563000C81B0020420D0020F4090020580A002059
:10564000000C00208D010020F4080020001700202D
:10565000C81E00208FC2753C10170020EFB6B04462
:105660002C1A0020A8130020200000205C3A002003
:10567000DC130020DA1500200C0900207A3A002003
:1056800035FA8E3C201300202A1300202613002018
:1056900058464844BAF800401FFA80F9B3F90000B0
:1056A00023B2C01A0392AAF8029006F0ABFC584548
:1056B00004DB039A9042A8BF104683465C44A4B220
:1056C0000FFA89F0AAF800400FF06CFD814620B275
:1056D00008E0B3F9020003930FF064FD039B8146D9
:1056E000B3F900000FF05EFD3146044648460FF066
:1056F000ADFD4146824620460FF0A8FD01465046CA
:105700000FF09AFC17490FF055FE0FF065FF414668
:10571000288048460FF09AFD3146804620460FF01B
:1057200095FD014640460FF089FC0E490FF042FE00
:105730000FF052FF68807B78042B06D101F06BFAE2
:10574000049BC01A084B588008E0052B06D1074A75
:10575000054B12889A80DA880132DA80002017B06F
:10576000BDE8F08F00002041C60A0020783A0020F2
:10577000024B0068196800220DF0F2B9880D002074
:1057800010B50446006801F026FD2068BDE8104011
:105790000AF04EBA37B5054600212A2213F0D1FE91
:1057A000052200230421019300938DF804208DF835
:1057B00007208DF80510AA1C6C4603CC51600749E0
:1057C0001060595C0133052B02F8081BF4D101234A
:1057D000AB8052232B7003B030BD00BFAEB70108C1
:1057E000F0B540F2E6363B4DB5F90040241A04F21C
:1057F000F317B74203D8002CB8BF644201E04FF45E
:10580000FA74B5F902502F1A40F2E63007F2F31598
:10581000854203D8002FB8BF7F4201E04FF4FA77EA
:10582000BC42B8BF3C462C48C4F5FA74052794FB2B
:10583000F7F7B0F90040B0F90260002CB8BF64423D
:10584000002EB8BF7642B442B8BF3446012A21D1F7
:10585000AE2939DC1220C1F1AF0141430A220C1BF1
:1058600091FBF2F1544394FBF1F2642AA8BF642245
:10587000002BC1BFA7F164006421484390FBF3F003
:10588000D4BF0020401822EAE2724243642092FB17
:10589000F0F01BE000290DDDC4F5E164122594FB56
:1058A000F5F54D43642295FBF2F5501A2844584310
:1058B00090FBF2F3002B07DDA7F16400642444435E
:1058C00094FBF3F0643001E00020F0BD20EAE070CA
:1058D000F0BD00BF081A0020F4090020044B20B1DD
:1058E000012814BF034A044A00E0044A1A607047C2
:1058F00018000020ADA20008F19F0008B59C000828
:105900002DE9F3471C4D04462B688BB3438D23B917
:1059100094F82930012B2BD11AE00026B4F82A8004
:10592000A18D4046D5F800A00CF00AFD8146404606
:105930000FF034FC114F01233744014600933846E1
:1059400052464B461C360CF01FFD542EE6D1DFE7C5
:10595000638C6BB10026608C0FF020FC084F014671
:10596000374438462A681C360CF090FD542EF2D18C
:1059700002B0BDE8F08700BF5C3A0020881C002020
:10598000DC1C002010B5084C002120680FF0F2FD4F
:1059900038B1064B18680FF001FC05490FF056FCB2
:1059A0002060206810BD00BF0C1600205C3A00206B
:1059B000BD3786350022064B03EBC20319798142BD
:1059C00001D11846704701321D2AF4D100207047DA
:1059D0008C970108064B10B51A881C4622EA000075
:1059E0009042188002D001200AF04CFC208810BDA3
:1059F0000C090020064B10B51A881C461043904233
:105A0000188002D001200AF03DFC208810BD00BFA4
:105A10000C09002010B50B4C0123E3704FF480609B
:105A2000022384F82030FFF7E5FF074B074A1B6885
:105A30005278642101FB02336361238801332380A0
:105A400010BD00BF2021002074360020480A00202D
:105A500008B5104B1A780023D9B2914207D20E49EB
:105A6000002051F82310013309680880F4E7322040
:105A700001F0FDF9094B1B685A0309D5084B1B6857
:105A80005B0305D4BDE8084040F2DC5001F0EFB9FB
:105A900008BD00BF3A1C0020EC1D0020041A0020A5
:105AA000D40A002008B5006801F095FB04F03AFF25
:105AB000FFF7CEFF014A024BDA60FEE70400FA0569
:105AC00000ED00E02DE9F04F8BB005F01BFF4FF02B
:105AD00003096F4C0021A046182204A813F031FDE1
